:020000040800F2
:100000000000012059240008292100082F210008A0
:10001000352100083B2100084121000800000000B4
:100020000000000000000000000000004721000860
:10003000552100080000000063210008712100081C
:10004000A9240008A9240008A9240008A92400085C
:10005000A9240008A9240008A9240008A92400084C
:10006000A9240008A9240008A92400088121000867
:10007000A9240008A9240008A9240008A92400082C
:10008000A9240008A9240008A9240008A92400081C
:10009000A9240008A9240008A9240008A92400080C
:1000A000A9240008A9240008A9240008A9240008FC
:1000B000A92400080000000000000000A924000896
:1000C000A9240008A9240008A9240008A9240008DC
:1000D000A924000895210008A9210008A9240008E6
:1000E000A9240008A9240008000000000000000066
:1000F0000000000000000000000000000000000000
:1001000000000000A924000800000000A924000845
:100110000000000000000000A9240008A924000835
:10012000A9240008A9240008A9240008A92400087B
:10013000A9240008000000000000000000000000EA
:10014000A9240008A9240008A92400080000000030
:10015000A9240008A9240008A9240008A92400084B
:10016000A9240008A9240008A92400080000000010
:10017000A9240008A92400080000000000000000D5
:0C018000A9240008A9240008A9240008F4
:1001900010B5054C237833B9044B13B10448AFF3C1
:1001A00000800123237010BDDC010020000000004E
:1001B000B4AB000808B5034B1BB103490348AFF3C8
:1001C000008008BD00000000E0010020B4AB000882
:1001D000034613F8012B002AFBD1181A0138704787
:1001E00001F0FF01102A2BDB10F0070F08D010F8E8
:1001F000013B013A8B422DD010F0070F42B3F6D1EC
:10020000F0B441EA012141EA014122F007047FF004
:1002100000070023F0E80256083C85EA010586EA5B
:10022000010685FA47F5A3FA87F586FA47F6A5FA97
:1002300087F68EB9EED1F0BC01F0FF0102F00702A3
:1002400032B110F8013B013A83EA010313B1F8D14E
:100250000020704701387047002D06BF354603382F
:10026000073815F0010F07D1013015F4807F02BF68
:10027000013015F4C03F0130F0BC0138704700BFB9
:1002800081F0004102E000BF83F0004330B54FEA47
:1002900041044FEA430594EA050F08BF90EA020FB4
:1002A0001FBF54EA000C55EA020C7FEA645C7FEA47
:1002B000655C00F0E2804FEA5454D4EB5555B8BF6A
:1002C0006D420CDD2C4480EA020281EA030382EADB
:1002D000000083EA010180EA020281EA0303362D6D
:1002E00088BF30BD11F0004F4FEA01314FF4801C40
:1002F0004CEA113102D0404261EB410113F0004F52
:100300004FEA03334CEA133302D0524263EB430308
:1003100094EA050F00F0A780A4F10104D5F1200EA6
:100320000DDB02FA0EFC22FA05F2801841F1000101
:1003300003FA0EF2801843FA05F359410EE0A5F1D5
:1003400020050EF1200E012A03FA0EFC28BF4CF006
:10035000020C43FA05F3C01851EBE37101F00045BC
:1003600007D54FF0000EDCF1000C7EEB00006EEBC9
:100370000101B1F5801F1BD3B1F5001F0CD3490853
:100380005FEA30004FEA3C0C04F101044FEA4452AA
:1003900012F5800F80F09A80BCF1004F08BF5FEA31
:1003A000500C50F1000041EB045141EA050130BD11
:1003B0005FEA4C0C404141EB0101013C28BFB1F523
:1003C000801FE9D291F0000F04BF01460020B1FA6E
:1003D00081F308BF2033A3F10B03B3F120020CDA41
:1003E0000C3208DD02F1140CC2F10C0201FA0CF01F
:1003F00021FA02F10CE002F11402D8BFC2F1200C84
:1004000001FA02F120FA0CFCDCBF41EA0C01904039
:10041000E41AA2BF01EB0451294330BD6FEA040482
:100420001F3C1CDA0C340EDC04F11404C4F120026D
:1004300020FA04F001FA02F340EA030021FA04F37F
:1004400045EA030130BDC4F10C04C4F1200220FAD6
:1004500002F001FA04F340EA0300294630BD21FA14
:1004600004F0294630BD94F0000F83F4801306BFDA
:1004700081F480110134013D4EE77FEA645C18BFCE
:100480007FEA655C29D094EA050F08BF90EA020F65
:1004900005D054EA000C04BF1946104630BD91EA5D
:1004A000030F1EBF0021002030BD5FEA545C05D160
:1004B0004000494128BF41F0004130BD14F580049F
:1004C0003CBF01F5801130BD01F0004545F0FE4113
:1004D00041F470014FF0000030BD7FEA645C1ABF48
:1004E000194610467FEA655C1CBF0B46024650EA7F
:1004F000013406BF52EA033591EA030F41F40021AB
:1005000030BD00BF90F0000F04BF0021704730B530
:100510004FF4806404F132044FF000054FF0000105
:1005200050E700BF90F0000F04BF0021704730B5C6
:100530004FF4806404F1320410F0004548BF40429B
:100540004FF000013EE700BF42004FEAE2014FEAF0
:1005500031014FEA02701FBF12F07F4393F07F4FCB
:1005600081F06051704732F07F4208BF704793F0CE
:100570007F4F04BF41F40021704730B54FF46074E1
:1005800001F0004521F000411CE700BF50EA0102E4
:1005900008BF704730B54FF000050AE050EA01028D
:1005A00008BF704730B511F0004502D5404261EBFD
:1005B00041014FF4806404F132045FEA915C3FF43E
:1005C000D8AE4FF003025FEADC0C18BF03325FEADB
:1005D000DC0C18BF033202EBDC02C2F1200300FA8C
:1005E00003FC20FA02F001FA03FE40EA0E0021FAB1
:1005F00002F11444BDE600BF70B54FF0FF0C4CF49F
:10060000E06C1CEA11541DBF1CEA135594EA0C0F50
:1006100095EA0C0F00F0DEF82C4481EA030621EA8B
:100620004C5123EA4C5350EA013518BF52EA0335C6
:1006300041F4801143F4801338D0A0FB02CE4FF078
:100640000005E1FB02E506F00042E0FB03E54FF0A8
:100650000006E1FB03569CF0000F18BF4EF0010EA0
:10066000A4F1FF04B6F5007F64F5407404D25FEA9C
:100670004E0E6D4146EB060642EAC62141EA55514F
:100680004FEAC52040EA5E504FEACE2EB4F1FD0C91
:1006900088BFBCF5E06F1ED8BEF1004F08BF5FEA0F
:1006A000500E50F1000041EB045170BD06F00046C1
:1006B00046EA010140EA020081EA0301B4EB5C046E
:1006C000C2BFD4EB0C0541EA045170BD41F4801166
:1006D0004FF0000E013C00F3AB8014F1360FDEBF8B
:1006E000002001F0004170BDC4F10004203C35DA67
:1006F0000C341BDC04F11404C4F1200500FA05F3EA
:1007000020FA04F001FA05F240EA020001F000428A
:1007100021F0004110EBD37021FA04F642EB060100
:100720005EEA430E08BF20EAD37070BDC4F10C042A
:10073000C4F1200500FA04F320FA05F001FA04F2EE
:1007400040EA020001F0004110EBD37041F10001DA
:100750005EEA430E08BF20EAD37070BDC4F12005E5
:1007600000FA05F24EEA020E20FA04F301FA05F24D
:1007700043EA020321FA04F001F0004121FA04F2F5
:1007800020EA020000EBD3705EEA430E08BF20EAC5
:10079000D37070BD94F0000F0FD101F000464000FF
:1007A00041EB010111F4801F08BF013CF7D041EA81
:1007B000060195F0000F18BF704703F00046520085
:1007C00043EB030313F4801F08BF013DF7D043EA56
:1007D0000603704794EA0C0F0CEA135518BF95EA0C
:1007E0000C0F0CD050EA410618BF52EA4306D1D193
:1007F00081EA030101F000414FF0000070BD50EAB2
:10080000410606BF1046194652EA430619D094EA3B
:100810000C0F02D150EA013613D195EA0C0F05D125
:1008200052EA03361CBF104619460AD181EA030179
:1008300001F0004141F0FE4141F470014FF0000031
:1008400070BD41F0FE4141F4780170BD70B54FF0CC
:10085000FF0C4CF4E06C1CEA11541DBF1CEA13554C
:1008600094EA0C0F95EA0C0F00F0A7F8A4EB05042E
:1008700081EA030E52EA03354FEA013100F0888025
:100880004FEA03334FF0805545EA131343EA1263EE
:100890004FEA022245EA111545EA10654FEA0026A3
:1008A0000EF000419D4208BF964244F1FD0404F55C
:1008B000407402D25B084FEA3202B61A65EB0305B8
:1008C0005B084FEA32024FF480104FF4002CB6EB75
:1008D000020E75EB030E22BFB61A754640EA0C00F5
:1008E0005B084FEA3202B6EB020E75EB030E22BF35
:1008F000B61A754640EA5C005B084FEA3202B6EB76
:10090000020E75EB030E22BFB61A754640EA9C0034
:100910005B084FEA3202B6EB020E75EB030E22BF04
:10092000B61A754640EADC0055EA060E18D04FEAC2
:10093000051545EA16754FEA06164FEAC30343EA62
:1009400052734FEAC2025FEA1C1CC0D111F4801F2F
:100950000BD141EA00014FF000004FF0004CB6E728
:1009600011F4801F04BF01430020B4F1FD0C88BFC7
:10097000BCF5E06F3FF6AFAEB5EB030C04BFB6EBD2
:10098000020C5FEA500C50F1000041EB045170BDC5
:100990000EF0004E4EEA113114EB5C04C2BFD4EBF2
:1009A0000C0541EA045170BD41F480114FF0000E76
:1009B000013C90E645EA060E8DE60CEA135594EAF2
:1009C0000C0F08BF95EA0C0F3FF43BAF94EA0C0FF5
:1009D0000AD150EA01347FF434AF95EA0C0F7FF46A
:1009E00025AF104619462CE795EA0C0F06D152EABE
:1009F00003353FF4FDAE1046194622E750EA4106A2
:100A000018BF52EA43067FF4C5AE50EA41047FF4B2
:100A10000DAF52EA43057FF4EBAE12E74FF0FF3C17
:100A200006E000BF4FF0010C02E000BF4FF0010CE8
:100A30004DF804CD4FEA410C7FEA6C5C4FEA430C61
:100A400018BF7FEA6C5C1BD001B050EA410C0CBFB0
:100A500052EA430C91EA030F02BF90EA020F002012
:100A6000704710F1000F91EA030F58BF994208BF79
:100A700090422CBFD8176FEAE37040F00100704736
:100A80004FEA410C7FEA6C5C02D150EA013C07D18D
:100A90004FEA430C7FEA6C5CD6D152EA033CD3D0D8
:100AA0005DF8040B704700BF8446104662468C46D2
:100AB0001946634600E000BF01B5FFF7B7FF002805
:100AC00048BF10F1000F01BD4DF808EDFFF7F4FF2E
:100AD0000CBF012000205DF808FB00BF4DF808EDB9
:100AE000FFF7EAFF34BF012000205DF808FB00BFDC
:100AF0004DF808EDFFF7E0FF94BF012000205DF8FE
:100B000008FB00BF4DF808EDFFF7CEFF94BF0120B2
:100B100000205DF808FB00BF4DF808EDFFF7C4FFAB
:100B200034BF012000205DF808FB00BF4FEA410CF4
:100B30007FEA6C5C02D150EA013C0AD14FEA430CD7
:100B40007FEA6C5C02D152EA033C02D14FF0000014
:100B500070474FF0010070474FEA410212F5001252
:100B600015D211D56FF47873B3EB625212D94FEAF4
:100B7000C12343F0004343EA505311F0004F23FADE
:100B800002F018BF404270474FF00000704750EA33
:100B9000013005D111F0004008BF6FF000407047F0
:100BA0004FF00000704700BF4FEA4102B2F1E0434E
:100BB00024BFB3F5001CDCF1FE5C0DD901F0004C44
:100BC0004FEAC0024CEA5070B2F1004F40EB830094
:100BD00008BF20F00100704711F0804F21D113F1C0
:100BE0003872BCBF01F00040704741F480114FEAF9
:100BF0005252C2F11802C2F1200C10FA0CF320FA82
:100C000002F018BF40F001004FEAC1234FEAD3239E
:100C100003FA0CFC40EA0C0023FA02F34FEA430308
:100C2000CCE77FEA625307D150EA01331EBF4FF091
:100C3000FE4040F44000704701F0004040F0FE40AC
:100C400040F40000704700BF53B94AB9002908BFFB
:100C500000281CBF4FF0FF314FF0FF3000F074B997
:100C6000ADF1080C6DE904CE00F006F8DDF804E003
:100C7000DDE9022304B070472DE9F047089D0446E2
:100C80008E46002B4DD18A42944669D9B2FA82F23F
:100C900052B101FA02F3C2F1200120FA01F10CFA7B
:100CA00002FC41EA030E94404FEA1C48210CBEFBB3
:100CB000F8F61FFA8CF708FB16E341EA034306FB3C
:100CC00007F199420AD91CEB030306F1FF3080F0CB
:100CD0001F81994240F21C81023E63445B1AA4B218
:100CE000B3FBF8F008FB103344EA034400FB07F7BA
:100CF000A7420AD91CEB040400F1FF3380F00A81FB
:100D0000A74240F207816444023840EA0640E41BEF
:100D100000261DB1D4400023C5E900433146BDE89B
:100D2000F0878B4209D9002D00F0EF800026C5E93D
:100D3000000130463146BDE8F087B3FA83F6002E55
:100D40004AD18B4202D3824200F2F980841A61EBCD
:100D5000030301209E46002DE0D0C5E9004EDDE7EB
:100D600002B9FFDEB2FA82F2002A40F09280A1EBD3
:100D70000C014FEA1C471FFA8CFE0126200CB1FB28
:100D8000F7F307FB131140EA01410EFB03F0884221
:100D900008D91CEB010103F1FF3802D2884200F2AE
:100DA000CB804346091AA4B2B1FBF7F007FB101140
:100DB00044EA01440EFB00FEA64508D91CEB0404DE
:100DC00000F1FF3102D2A64500F2BB800846A4EB39
:100DD0000E0440EA03409CE7C6F12007B34022FA24
:100DE00007FC4CEA030C20FA07F401FA06F31C4353
:100DF000F9404FEA1C4900FA06F3B1FBF9F8200C60
:100E00001FFA8CFE09FB181140EA014108FB0EF0A5
:100E1000884202FA06F20BD91CEB010108F1FF3AF5
:100E200080F08880884240F28580A8F10208614401
:100E3000091AA4B2B1FBF9F009FB101144EA01410F
:100E400000FB0EFE8E4508D91CEB010100F1FF34BA
:100E50006CD28E456AD90238614440EA0840A0FB52
:100E60000294A1EB0E01A142C846A64656D353D028
:100E70005DB1B3EB080261EB0E0101FA07F722FA4C
:100E800006F3F1401F43C5E9007100263146BDE875
:100E9000F087C2F12003D8400CFA02FC21FA03F3D8
:100EA000914001434FEA1C471FFA8CFEB3FBF7F059
:100EB00007FB10360B0C43EA064300FB0EF69E427E
:100EC00004FA02F408D91CEB030300F1FF382FD217
:100ED0009E422DD9023863449B1B89B2B3FBF7F6BF
:100EE00007FB163341EA034106FB0EF38B4208D998
:100EF0001CEB010106F1FF3816D28B4214D9023ED9
:100F00006144C91A46EA004638E72E46284605E7F6
:100F10000646E3E61846F8E64B45A9D2B9EB0208C7
:100F200064EB0C0E0138A3E74646EAE7204694E757
:100F30004046D1E7D0467BE7023B614432E730468A
:100F400009E76444023842E7704700BF80B500AF4C
:100F50007F21064802F0A0FC0A2001F01BFB0522BD
:100F60000349024801F070FE00BF80BD4C04002020
:100F7000F801002000000000B0B584B000AF0023ED
:100F8000FB81334B1B887B81324B1B883B810023C9
:100F90007B730AE07B7B304A32F813309AB2FB89CC
:100FA0001344FB817B7B01337B737B7B042BF1D967
:100FB000FB8907EE903AF8EEE77A9FED287A67EE24
:100FC000877AFCEEE77A17EE903AFB817B8907EE91
:100FD000903AB8EEE77AFB8907EE903AF8EE677A36
:100FE00077EE677A17EE900AFFF7AEFA16A3D3E909
:100FF0000023FFF701FB02460B4614461D463B89C2
:101000001846FFF78FFA02460B4620462946FFF79F
:101010001DFC02460B46104619464FF00002104BCD
:10102000FFF734F902460B4610461946FFF7BCFDA0
:1010300003467B607B6807EE903AB0EE670A103794
:10104000BD46B0BDAFF3008033333333333311408B
:10105000A875FF1FCA75FF1FF8010020CDCC4C3EBC
:101060000000394080B584B000AF194807F06AFC31
:101070000023BB601DE040F2DC5303226B211548C6
:1010800003F003FB0346FB71642001F083FAFB7954
:10109000002B05D1104807F0DBFC0123FB730BE0AC
:1010A0000023FB734FF4FA7001F074FABB6801334C
:1010B000BB60BB68092BDEDDFB7B002B02D1074840
:1010C00007F0C6FCFB7B18461037BD4680BD00BF4D
:1010D000D0AB00081C050020E8AB0008F0AB00080E
:1010E00080B584B000AFF860B9607A607B689AB26E
:1010F0007B680133B968044805F0C4FC7B68184676
:101100001037BD4680BD00BF6406002080B582B0A8
:1011100000AF78607B680B4A934205D14FF40072B0
:101120000949084805F042FD7B68084A934205D109
:101130004FF400720649054805F038FD00BF083736
:10114000BD4680BD6406002004020020E8060020A1
:101150000804002080B582B000AF78607868FFF79F
:10116000D5FF00BF0837BD4680BD000080B400AF8A
:101170000D4BB3F858301A460B4BB3F85A309BB2AC
:10118000D31A03F50073094A12889B1A5A42C3F313
:101190000803C2F3080258BF53429BB21846BD462B
:1011A0005DF8047B704700BF640600200404002043
:1011B00080B483B000AF0C4B1B885A1C91B20A4A12
:1011C00011801A46094B9B5CFB71074B1B88B3F5DA
:1011D000007F02D3044B00221A80FB7918460C379B
:1011E000BD465DF8047B7047040400200402002023
:1011F00080B487B000AF786000237B6131E07B6909
:101200003B610023FB6011E0FB6801337A68134403
:101210001B78002B04D13B690133184A134427E0A3
:101220003B6901333B61FB680133FB60134A3B6957
:1012300013441B78FB72FB7A0133114A13441B7869
:1012400003F00303012B02D1FB7A203300E0FB7A89
:10125000FA6879680A4412789342D5D07B690133E1
:101260007B61064A7B6913441B78002BC7D100239E
:1012700018461C37BD465DF8047B704728040020E3
:101280002CAD000880B582B000AFFFF76FFF0346BA
:101290003B603B68002B0FD000237B6008E0FFF72A
:1012A00087FF0346184600F00BF87B6801337B602C
:1012B0007A683B689A42F2DB00BF0837BD4680BDC2
:1012C00080B582B000AF0346FB711F4B1B681F2B1C
:1012D00007D81D4B1B685A1C1B490A601B49FA7929
:1012E000CA54FB790A2B2CD1174B1B68013B174AB8
:1012F000D35C0D2B04D1144B1B68013B124A1360C5
:10130000114B1B681A46114B13440F4A1268C2F165
:1013100020020021184606F0A3FE0B4B00221A60A3
:101320000B48FFF765FF03460A4A934206D00A4876
:10133000FFF75EFF0346094A934202D100F010F81E
:1013400000BF0837BD4680BD4804002028040020A7
:1013500020AC00082904002024AC00082C04002044
:1013600080B582B002AF27A3D3E90023CDE90023E3
:101370004FF000021A4B1B4807F0E4FA1A4807F036
:10138000E1FA1A4B1B78032B1AD801A252F823F06A
:10139000A1130008A9130008B1130008B91300082D
:1013A000134807F055FB0BE0124807F051FB07E02C
:1013B000114807F04DFB03E0104807F049FB00BF60
:1013C000FFF7DAFD10EE103A1846FFF7BDF80246B7
:1013D0000B460B4807F0B6FA00BFBD4680BD00BF04
:1013E0000000F03F2CAC000850AC00086C07002057
:1013F00064AC00086CAC000870AC000884AC000859
:1014000094AC0008000000A09999C93F80B582B053
:1014100000AF01F04AF800F05DF800F007FB00F0C3
:10142000E7FA00F0BBF800F04BF900F089F900F0A2
:10143000C7F900F07DFA00F0ABFA00F01FF900F0F8
:10144000FFF900F096F800211C4804F05BFD1C48F1
:10145000FFF75CFE1B48FFF759FE1B4807F0F8FA40
:10146000FFF700FE03461A46184B1A70002220218F
:10147000174803F063F8002000F0D6FFFFF766FD81
:1014800001F07CF8786001F079F8386000F0DEFF58
:1014900001F074F802467B68D31AB3F57A7F02D361
:1014A00001F06CF8786001F069F802463B68D31AE5
:1014B0001D2BEBD901F062F83860E7E71806002031
:1014C00064060020E8060020B0AC00086C0700208D
:1014D0000004004880B596B000AF07F11403442221
:1014E0000021184606F0BCFD3B4600221A605A60F7
:1014F0009A60DA601A614FF4007003F0B3FA0346A1
:10150000002B01D000F054FB01237B614FF48033AA
:10151000BB610223FB6303233B6401237B640A2337
:10152000BB640723FB6402233B6502237B6507F151
:101530001403184603F0ECFA0346002B01D000F028
:1015400037FB0F233B6003237B600023BB6000233A
:10155000FB6000233B613B460221184603F0ECFE92
:101560000346002B01D000F023FB00BF5837BD46D7
:1015700080BD80B500AF00220021252002F0C7FA0F
:10158000252002F0E0FA00220021262002F0BFFA16
:10159000262002F0D8FA00BF80BD000080B586B0DA
:1015A00000AF3B4600221A605A609A60DA601A6106
:1015B0005A612F4B2F4A1A602D4B4FF480225A60EC
:1015C0002B4B00229A602A4B0022DA60284B002223
:1015D0001A61274B04225A61254B00221A76244BAC
:1015E00001225A76224B0122DA61214B002283F834
:1015F00020201F4B00229A621D4B0022DA621C4BF6
:10160000012283F830201A4B00225A63184B012222
:1016100083F83820164B0C22DA63154B00221A642B
:10162000134B00225A64124B01229A64104801F0B5
:10163000C3F90346002B01D000F0BAFA0E4B3B6011
:1016400006237B600723BB607F23FB6004233B6191
:1016500000237B613B461946054801F097FB034692
:10166000002B01D000F0A4FA00BF1837BD4680BDA2
:101670004C04002000000450000052C780B500AFA9
:101680000D4B0E4A1A600C4B00221A710A4B0022B5
:101690005A71094B00225A61074B00229A61064B8E
:1016A00001221A62044802F06FFA0346002B01D0AF
:1016B00000F07EFA00BF80BDF80400200030024038
:1016C00080B500AF1B4B1C4A1A601A4B1B4A5A606C
:1016D000184B00229A60174B0122DA60154B00224A
:1016E0001A61144B00225A61124B00229A61114B6D
:1016F0000022DA610F4B00221A620E4802F036FF18
:101700000346002B01D000F053FA0021094803F0F2
:1017100003F90346002B01D000F04AFA00210548E6
:1017200003F045F90346002B01D000F041FA00BF59
:1017300080BD00BF1C05002000540040471330004E
:1017400080B500AF1B4B1C4A1A601A4B1B4A5A60EB
:10175000184B00229A60174B0122DA60154B0022C9
:101760001A61144B00225A61124B00229A61114BEC
:101770000022DA610F4B00221A620E4802F0F6FED8
:101780000346002B01D000F013FA0021094803F0B2
:10179000C3F80346002B01D000F00AFA00210548E7
:1017A00003F005F90346002B01D000F001FA00BF59
:1017B00080BD00BF70050020005800404713300076
:1017C00080B500AF1B4B1C4A1A601A4B1B4A5A606B
:1017D000184B00229A60174B0122DA60154B002249
:1017E0001A61144B00225A61124B00229A61114B6C
:1017F0000022DA610F4B00221A620E4802F0B6FE98
:101800000346002B01D000F0D3F90021094803F072
:1018100083F80346002B01D000F0CAF900210548E7
:1018200003F0C5F80346002B01D000F0C1F900BF5A
:1018300080BD00BFC4050020005C0040471330009D
:1018400080B592B000AF07F12C0300221A605A60F5
:101850009A60DA601A615A619A613B462C22002133
:10186000184606F0FDFB304B304A1A602E4B4FF401
:101870009C725A602C4B00229A602B4B4FF4807262
:10188000DA60294B00221A61274B00225A61264B4D
:1018900000229A61244804F07DFA0346002B01D00F
:1018A00000F086F9204804F0CCFA0346002B01D062
:1018B00000F07EF96023FB6200233B6302237B631D
:1018C0000023BB630423FB6300233B6400237B648E
:1018D00007F12C0300221946134804F0F1FB0346DC
:1018E000002B01D000F064F900233B6000237B60F3
:1018F0000023BB600023FB6000233B614FF40053D7
:101900007B610023BB623B461946074804F0F4FFA5
:101910000346002B01D000F04BF9034800F030FBE8
:1019200000BF4837BD4680BD180600200044014076
:1019300080B500AF144B154A1A60134B4FF4E132D7
:101940005A60114B00229A600F4B0022DA600E4B56
:1019500000221A610C4B0C225A610B4B00229A6137
:10196000094B0022DA61084B00221A62064B002262
:101970005A62054805F038F80346002B01D000F004
:1019800017F900BF80BD00BF640600200038014089
:1019900080B500AF144B154A1A60134B4FF4E13277
:1019A0005A60114B00229A600F4B0022DA600E4BF6
:1019B00000221A610C4B0C225A610B4B00229A61D7
:1019C000094B0022DA61084B00221A62064B002202
:1019D0005A62054805F008F80346002B01D000F0D4
:1019E000E7F800BF80BD00BFE806002000440040CB
:1019F00080B582B000AF0C4B9B6C0B4A43F00103E7
:101A00009364094B9B6C03F001037B607B680022AD
:101A100000210B2002F07BF80B2002F094F800BFAD
:101A20000837BD4680BD00BF0010024080B58AB0B7
:101A300000AF07F1140300221A605A609A60DA605E
:101A40001A61574BDB6C564A43F00403D364544B82
:101A5000DB6C03F004033B613B69514BDB6C504A88
:101A600043F08003D3644E4BDB6C03F08003FB60D8
:101A7000FB684B4BDB6C4A4A43F00103D364484B91
:101A8000DB6C03F00103BB60BB68454BDB6C444A75
:101A900043F00203D364424BDB6C03F002037B6030
:101AA0007B6800224FF4CB514FF0904002F046FD8E
:101AB000002248F221213B4802F040FD4FF4404310
:101AC0007B610323BB610023FB6107F1140319460B
:101AD000354802F0B9FB48F202037B610323BB6186
:101AE0000023FB6107F1140319464FF0904002F008
:101AF000ABFB10237B610023BB610023FB6107F17B
:101B0000140319464FF0904002F09EFB4FF4CB5364
:101B10007B610123BB610023FB6100233B6207F172
:101B2000140319464FF0904002F08EFB48F2212337
:101B30007B610123BB610023FB6100233B6207F152
:101B400014031946174802F07FFB41F202037B6140
:101B50000023BB610023FB6107F114031946114800
:101B600002F072FB40F60C437B610323BB61002350
:101B7000FB6107F1140319460A4802F065FB0823CC
:101B80007B610323BB610023FB6107F1140319464A
:101B9000064802F059FB00BF2837BD4680BD00BF94
:101BA000001002400004004800080048001C0048E3
:101BB00080B400AF72B600BFFEE7000080B582B00F
:101BC00000AF104B1B6E0F4A43F0010313660D4B21
:101BD0001B6E03F001037B607B680A4B9B6D094A17
:101BE00043F080539365074B9B6D03F080533B603C
:101BF0003B6800220021052001F089FF00BF083763
:101C0000BD4680BD0010024080B59AB000AF78603C
:101C100007F10C035C220021184606F021FA7B68CC
:101C20001B682E4A934255D14FF48043FB604FF01E
:101C30008053FB6503233B6101237B610823BB6168
:101C40000723FB6102233B6202237B624FF0807318
:101C5000BB6207F10C03184603F092FD0346002B0C
:101C600001D0FFF7A5FF1E4BDB6C1D4A43F4005368
:101C7000D3641B4BDB6C03F40053BB60BB68194B94
:101C8000194A1A60174B00225A60164B00229A60BC
:101C9000144B0022DA60134B80221A61114B4FF46F
:101CA00080725A610F4B4FF480629A610D4B202273
:101CB000DA610C4B00221A620A4802F04FF8034620
:101CC000002B01D0FFF774FF7B68064ADA64054AEF
:101CD0007B68936200BF6837BD4680BD000004503A
:101CE00000100240B00400200800024080B485B01B
:101CF00000AF78607B681B680A4A93420BD10A4B9D
:101D00009B6C094A43F480539364074B9B6C03F428
:101D10008053FB60FB6800BF1437BD465DF8047B51
:101D2000704700BF003002400010024080B5A6B0EE
:101D300000AF786007F1840300221A605A609A604D
:101D4000DA601A6107F128035C220021184606F0C8
:101D500087F97B681B68754A93423DD14023BB627B
:101D60000023BB6507F12803184603F009FD03466D
:101D7000002B01D0FFF71CFF6D4BDB6C6C4A43F06E
:101D80000103D3646A4BDB6C03F001037B627B6A63
:101D90004FF4C063C7F884301223C7F8883000239B
:101DA000C7F88C300323C7F890300423C7F8943069
:101DB00007F1840319464FF0904002F045FA5C4B5E
:101DC0009B6D5B4A43F400139365594B9B6D03F481
:101DD00000133B623B6AA4E07B681B68554A934250
:101DE0003CD18023BB620023FB6507F12803184622
:101DF00003F0C6FC0346002B01D0FFF7D9FE4C4B85
:101E0000DB6C4B4A43F00203D364494BDB6C03F0B9
:101E10000203FB61FB694FF4C043C7F8843012230F
:101E2000C7F888300023C7F88C300323C7F89030F8
:101E30000423C7F8943007F1840319463E4802F0A2
:101E400003FA3B4B9B6D3A4A43F480039365384B4E
:101E50009B6D03F48003BB61BB6962E07B681B6818
:101E6000364A93425DD14FF48073BB6200233B66D8
:101E700007F12803184603F083FC0346002B01D02A
:101E8000FFF796FE2A4BDB6C294A43F00103D3642B
:101E9000274BDB6C03F001037B617B69244BDB6C1C
:101EA000234A43F00203D364214BDB6C03F00203AB
:101EB0003B613B698023C7F884301223C7F8883020
:101EC0000023C7F88C300323C7F890300423C7F8E9
:101ED000943007F1840319464FF0904002F0B4F9B2
:101EE0001023C7F884301223C7F888300023C7F8BE
:101EF0008C300323C7F890300423C7F8943007F1DF
:101F0000840319460C4802F09FF9094B9B6D084A5F
:101F100043F400039365064B9B6D03F40003FB60E1
:101F2000FB6800BF9837BD4680BD00BF005400402D
:101F3000001002400058004000040048005C0040CF
:101F400080B485B000AF78607B681B680A4A934212
:101F50000BD10A4B1B6E094A43F400331366074B3F
:101F60001B6E03F40033FB60FB6800BF1437BD46F3
:101F70005DF8047B704700BF004401400010024040
:101F800080B588B000AF786007F10C0300221A60BA
:101F90005A609A60DA601A617B681B68114A934242
:101FA0001CD1114BDB6C104A43F00203D3640E4B7F
:101FB000DB6C03F00203BB60BB684FF48073FB6013
:101FC00002233B6100237B610023BB610E23FB6185
:101FD00007F10C031946054802F036F900BF203717
:101FE000BD4680BD0044014000100240000400488E
:101FF00080B5A2B000AF786007F1740300221A60C8
:102000005A609A60DA601A6107F118035C220021B5
:10201000184606F025F87B681B683F4A934238D182
:102020000123BB610123BB6307F11803184603F0CA
:10203000A7FB0346002B01D0FFF7BAFD374B1B6E01
:10204000364A43F480431366344B1B6E03F48043DB
:102050007B617B69314BDB6C304A43F00203D36414
:102060002E4BDB6C03F002033B613B69C0237B67B3
:102070000223BB670023FB670323C7F880300723D5
:10208000C7F8843007F174031946254802F0DCF8DC
:102090003DE07B681B68234A934238D10223BB6131
:1020A0000423FB6307F11803184603F069FB03469A
:1020B000002B01D0FFF77CFD184B9B6D174A43F4B2
:1020C00000339365154B9B6D03F40033FB60FB6895
:1020D000124BDB6C114A43F00103D3640F4BDB6CF2
:1020E00003F00103BB60BB680C237B670223BB6763
:1020F0000023FB670323C7F880300723C7F8843029
:1021000007F1740319464FF0904002F09DF800BFAC
:102110008837BD4680BD00BF003801400010024036
:10212000000400480044004080B400AFFEE780B4E3
:1021300000AFFEE780B400AFFEE780B400AFFEE77B
:1021400080B400AFFEE780B400AF00BFBD465DF8CD
:10215000047B704780B400AF00BFBD465DF8047BD0
:10216000704780B400AF00BFBD465DF8047B704788
:1021700080B500AF00F0EEF901F0FFFC00BF80BDBC
:1021800080B500AF024801F080FF00BF80BD00BFF6
:10219000B004002080B500AF024804F05DFD00BF30
:1021A00080BD00BF6406002080B500AF024804F087
:1021B00053FD00BF80BD00BFE806002080B400AF23
:1021C00001231846BD465DF8047B704780B582B098
:1021D00000AF7860396005F019FF034616221A60D7
:1021E0004FF0FF3318460837BD4680BD80B582B03A
:1021F00000AF78604FF0FF317868FFF7E7FFFEE748
:1022000080B586B000AFF860B9607A6000237B616A
:102210000AE0AFF300800146BB685A1CBA60CAB23C
:102220001A707B6901337B617A697B689A42F0DBC3
:102230007B6818461837BD4680BD80B483B000AFB8
:1022400078604FF0FF3318460C37BD465DF8047BCD
:10225000704780B483B000AF786039603B684FF45A
:1022600000525A60002318460C37BD465DF8047BC7
:10227000704780B483B000AF7860012318460C37F4
:10228000BD465DF8047B704780B485B000AFF86050
:10229000B9607A60002318461437BD465DF8047BA8
:1022A0007047000080B586B000AF7860144A154BC7
:1022B000D31A7B617B693B61134B1B68002B02D1F6
:1022C000114B124A1A60104B1A687B6813443A6922
:1022D0009A4207D205F09AFE03460C221A604FF08C
:1022E000FF3309E0084B1B68FB60074B1A687B68EB
:1022F0001344054A1360FB6818461837BD4680BD75
:102300000000012000040000700700209807002052
:1023100080B400AF064BD3F88830054A43F470030D
:10232000C2F8883000BFBD465DF8047B704700BF2F
:1023300000ED00E080B500AF2E4B1B88002B4BD08A
:102340002D4B1B6801332C4A13602B4B1B68294A09
:102350001288934240D3284B00221A60274B1B68F7
:102360000133264A1360254B1A68254B1B681B0C4A
:1023700040339A4216D3214B00221A60204B1B682F
:102380009BB24FF6FF72934204D01D4B1B68013B7A
:102390001B4A13601A4B1B689BB2002B02D1154BD2
:1023A00000221A80154B1B683F2B03D9002000F038
:1023B0003BF81CE0114B1B681F2B06D90F4B1B6809
:1023C000DBB2C3F13F03DBB202E00C4B1B68DBB2B4
:1023D000184600F029F80AE0064B1B88002B06D1AE
:1023E000054B00221A60054B00221A60FFE700BF70
:1023F00080BD00BF740700207C07002080070020FC
:102400007807002080B483B000AF0346FB71054B12
:102410001B68FA795A6300BF0C37BD465DF8047B30
:10242000704700BF1806002080B582B000AF034699
:10243000FB71FB79044AD35C1846FFF7E3FF00BF4A
:102440000837BD4680BD00BF0CAD000880B500AFA9
:10245000FEF718FF00BF80BDDFF834D0FFF758FF4C
:102460000C480D490D4A002302E0D458C4500433EF
:10247000C4188C42F9D30A4A0A4C002301E01360C5
:102480000432A242FBD305F0C7FDFEF7BFFFFEE713
:102490000000012000000020DC0100201CB1000829
:1024A000DC01002098070020FEE780B582B000AF75
:1024B0000023FB71032001F01FFB0F2000F00EF83A
:1024C0000346002B02D00123FB7101E0FFF776FBEE
:1024D000FB7918460837BD4680BD000080B584B042
:1024E00000AF78600023FB73174B1B78002B23D0C1
:1024F000164B1A68144B1B7819464FF47A73B3FBCA
:10250000F1F3B2FBF3F3184601F02BFB0346002B6B
:102510000FD17B680F2B09D8002279684FF0FF306C
:1025200001F0F5FA0A4A7B68136007E00123FB73A8
:1025300004E00123FB7301E00123FB73FB7B1846DE
:102540001037BD4680BD00BF0800002000000020FD
:102550000400002080B400AF064B1B781A46064BDF
:102560001B681344044A136000BFBD465DF8047B3A
:10257000704700BF080000208407002080B400AF2F
:10258000034B1B681846BD465DF8047B704700BFCF
:102590008407002080B584B000AF7860FFF7EEFFBD
:1025A000B8607B68FB60FB68B3F1FF3F05D00A4B66
:1025B0001B781A46FB681344FB6000BFFFF7DEFF81
:1025C0000246BB68D31AFA689A42F7D800BF00BF28
:1025D0001037BD4680BD00BF0800002080B483B026
:1025E00000AF786039607B689B6823F47C123B689D
:1025F0001A437B689A6000BF0C37BD465DF8047BC8
:10260000704780B483B000AF786039607B689B68A6
:1026100023F0E0723B681A437B689A6000BF0C3776
:10262000BD465DF8047B704780B483B000AF78602E
:102630007B689B6803F0E07318460C37BD465DF875
:10264000047B704780B487B000AFF860B9607A60EF
:102650003B60FB6860331A46BB689B0013447B6198
:102660007B691A68084B13407A6802F0F8413A68AF
:102670000A43134343F000427B691A6000BF1C37D2
:10268000BD465DF8047B704700F0FF0380B485B061
:1026900000AF786039607B6860331A463B689B0006
:1026A0001344FB60FB681B6803F0F84318461437BB
:1026B000BD465DF8047B704780B487B000AFF8601A
:1026C000B9607A60FB6860331A46BB689B001344AC
:1026D0007B617B691B6823F000427B681A437B693E
:1026E0001A6000BF1C37BD465DF8047B704780B49C
:1026F00083B000AF78607B68DB6803F44063002B35
:1027000001D1012300E0002318460C37BD465DF8D7
:10271000047B704780B487B000AFF860B9607A601E
:10272000FB6830331A46BB681B0A9B0003F00C039E
:1027300013447B617B691A68BB6803F01F031F2188
:1027400001FA03F3DB431A407B689B0E03F01F0181
:10275000BB6803F01F0301FA03F31A437B691A6095
:1027600000BF1C37BD465DF8047B704780B487B05E
:1027700000AFF860B9607A60FB6814331A46BB6832
:102780005B0E9B0003F0040313447B617B691A68B2
:10279000BB681B0D03F01F03072101FA03F3DB43A2
:1027A0001A40BB681B0D03F01F03796801FA03F39D
:1027B0001A437B691A6000BF1C37BD465DF8047B75
:1027C0007047000080B485B000AFF860B9607A60EF
:1027D000FB68D3F8B020BB68C3F31203DB431A4095
:1027E0007B6803F018030849D940BB680B40C3F36A
:1027F00012031A43FB68C3F8B02000BF1437BD466C
:102800005DF8047B704700BFFFFF070080B483B012
:1028100000AF78607B689B6823F0204323F03F0380
:102820007A68936000BF0C37BD465DF8047B704743
:1028300080B483B000AF78607B689B6803F000537E
:10284000B3F1005F01D1012300E0002318460C37EB
:10285000BD465DF8047B704780B483B000AF7860FC
:102860007B689B6823F0104323F03F0343F08052C2
:102870007B689A6000BF0C37BD465DF8047B7047EB
:1028800080B483B000AF78607B689B6803F08053AE
:10289000B3F1805F01D1012300E0002318460C371B
:1028A000BD465DF8047B704780B483B000AF7860AC
:1028B0007B689B6823F0004323F03F0343F0010251
:1028C0007B689A6000BF0C37BD465DF8047B70479B
:1028D00080B483B000AF78607B689B6823F00043CE
:1028E00023F03F0343F002027B689A6000BF0C377D
:1028F000BD465DF8047B704780B483B000AF78605C
:102900007B689B6803F00103012B01D1012300E0E8
:10291000002318460C37BD465DF8047B704780B431
:1029200083B000AF78607B689B6803F00203022BE2
:1029300001D1012300E0002318460C37BD465DF8A5
:10294000047B704780B483B000AF78607B689B687D
:1029500023F0004323F03F0343F004027B689A60B6
:1029600000BF0C37BD465DF8047B704780B483B070
:1029700000AF78607B689B6803F00403042B01D1EF
:10298000012300E0002318460C37BD465DF8047BA8
:10299000704780B483B000AF78607B689B6803F0B9
:1029A0000803082B01D1012300E0002318460C374F
:1029B000BD465DF8047B704780B588B000AF786095
:1029C0000023FB770023BB607B68002B01D1012330
:1029D0002CE17B681B69002B7B685B6D002B09D1A8
:1029E0007868FFF711F97B6800229A657B680022FE
:1029F00083F850207B681B681846FFF719FF0346D1
:102A0000002B04D07B681B681846FFF7FFFE7B682D
:102A10001B681846FFF734FF0346002B15D17B686F
:102A20001B681846FFF718FF824B1B689B09824AF8
:102A3000A2FB03239B0901335B00BB6002E0BB6880
:102A4000013BBB60BB68002BF9D17B681B68184653
:102A5000FFF716FF0346002B0DD17B685B6D43F03B
:102A600010027B685A657B689B6D43F001027B68AE
:102A70009A650123FB777B681B681846FFF776FF92
:102A800078617B685B6D03F01003002B40F0C5801C
:102A90007B69002B40F0C1807B685B6D23F4817300
:102AA00043F002027B685A657B681B681846FFF793
:102AB00023FF0346002B0BD16048FFF71DFF0346A1
:102AC000002B05D17B685B6819465D48FFF786FDE2
:102AD0007B685B7E5A037B685B6B1A437B68DB68B1
:102AE0001A437B689B681A437B6893F820301B0469
:102AF0001343BB617B6893F82030012B06D17B68C0
:102B00005B6A013B5B04BA691343BB617B689B6AE8
:102B1000002B09D07B689B6A03F470727B68DB6AC8
:102B20001343BA691343BB617B681B68DA68454B82
:102B300013407A681268B9690B43D3607B681B68DD
:102B40001846FFF713FF38617B681B681846FFF7CC
:102B500020FFF8603B69002B3DD1FB68002B3AD188
:102B60007B681B7E9A037B6893F830305B001343CD
:102B7000BB617B681B68DB6823F4804323F002039E
:102B80007A681268B9690B43D3607B6893F8383070
:102B9000012B18D17B681B681B6923F4FF6323F0AA
:102BA00004037A68D16B7A68126C11437A68526CAC
:102BB00011437A68926C0A431A437B681B6842F09F
:102BC00001021A6107E07B681B681A697B681B6851
:102BD00022F001021A617B681B69012B0CD17B6812
:102BE0001B681B6B23F00F017B68DB695A1E7B6837
:102BF0001B680A431A6307E07B681B681A6B7B68D3
:102C00001B6822F00F021A637B685B6D23F00303DD
:102C100043F001027B685A6507E07B685B6D43F017
:102C200010027B685A650123FB77FB7F184620372B
:102C3000BD4680BD00000020632D3E05000004500D
:102C40000003045007C0F0FF80B586B000AFF86005
:102C5000B9607A60FB681B681846FFF787FE034679
:102C6000002B67D1FB6893F85030012B01D1022370
:102C700063E0FB68012283F85020F86800F066FCEE
:102C80000346FB75FB7D002B4FD1FB685B6D23F486
:102C9000706323F0010343F48072FB685A65FB689C
:102CA0005B6D03F48053002B06D0FB689B6D23F013
:102CB0000602FB689A6502E0FB6800229A65FB68E1
:102CC000DB6C204ADA62FB68DB6C1F4A1A63FB6824
:102CD000DB6C1E4A5A63FB681B681C221A60FB6887
:102CE000002283F85020FB681B685A68FB681B6849
:102CF00042F010025A60FB681B68DA68FB681B68C8
:102D000042F00102DA60FB68D86CFB681B68403354
:102D10001946BA687B6801F0D9F80346FB75FB6871
:102D20001B681846FFF70EFE06E0FB68002283F8DA
:102D3000502001E00223FB75FB7D18461837BD4685
:102D400080BD00BF17370008EF3700080B380008B8
:102D500080B483B000AF786000BF0C37BD465DF82B
:102D6000047B704780B483B000AF786000BF0C373D
:102D7000BD465DF8047B704780B483B000AF7860D7
:102D800000BF0C37BD465DF8047B704780B5B6B018
:102D900000AF78603960002387F8D7300023FB60EC
:102DA0007B6893F85030012B01D10223B9E37B6893
:102DB000012283F850207B681B681846FFF7D6FD78
:102DC0000346002B40F09E833B685B68052B24D8AC
:102DD0003B685B68023B032B1BD801A252F823F02F
:102DE000F12D0008F92D0008012E0008092E000819
:102DF0003B680C225A6011E03B6812225A600DE0D9
:102E00003B6818225A6009E03B684FF480725A60B0
:102E100004E03B6806225A6000E000BF7B68186847
:102E20003B6859683B681B681A46FFF773FC7B6870
:102E30001B681846FFF79AFDC7F8D0007B681B682F
:102E40001846FFF7A6FDC7F8CC00D7F8D030002B06
:102E500040F0A681D7F8CC30002B40F0A1817B68F0
:102E600018683B6819683B689B681A46FFF77EFC48
:102E70003B685A697B681B68DB68DB0803F0030367
:102E80005B0002FA03F3C7F8C8303B681B69042BE8
:102E90000AD07B6818683B6819693B681A68D7F8DC
:102EA000C830FFF7CFFB7BE17B681B680021184629
:102EB000FFF7ECFB0346C3F31203002B0AD17B6838
:102EC0001B6800211846FFF7E1FB03469B0E03F049
:102ED0001F021EE07B681B6800211846FFF7D6FB27
:102EE0000346C7F8BC30D7F8BC3093FAA3F3C7F851
:102EF000B830D7F8B830C7F8C030D7F8C030002B9A
:102F000001D1202304E0D7F8C030B3FA83F3DBB259
:102F10001A463B681B68C3F31203002B05D13B68BC
:102F20001B689B0E03F01F0318E03B681B68C7F883
:102F3000B030D7F8B03093FAA3F3C7F8AC30D7F875
:102F4000AC30C7F8B430D7F8B430002B01D120230F
:102F500004E0D7F8B430B3FA83F3DBB29A4206D177
:102F60007B681B68002200211846FFF7A5FB7B68E1
:102F70001B6801211846FFF789FB0346C3F31203C0
:102F8000002B0AD17B681B6801211846FFF77EFBE6
:102F900003469B0E03F01F021EE07B681B680121A5
:102FA0001846FFF773FB0346C7F8A430D7F8A430E0
:102FB00093FAA3F3C7F8A030D7F8A030C7F8A83029
:102FC000D7F8A830002B01D1202304E0D7F8A8308F
:102FD000B3FA83F3DBB21A463B681B68C3F31203F0
:102FE000002B05D13B681B689B0E03F01F0318E004
:102FF0003B681B68C7F89830D7F8983093FAA3F36A
:10300000C7F89430D7F89430C7F89C30D7F89C3084
:10301000002B01D1202304E0D7F89C30B3FA83F3CE
:10302000DBB29A4206D17B681B6800220121184658
:10303000FFF742FB7B681B6802211846FFF726FB5F
:103040000346C3F31203002B0AD17B681B680221DD
:103050001846FFF71BFB03469B0E03F01F021EE002
:103060007B681B6802211846FFF710FB0346C7F870
:103070008C30D7F88C3093FAA3F3C7F88830D7F8A0
:103080008830C7F89030D7F89030002B01D120233A
:1030900004E0D7F89030B3FA83F3DBB21A463B680A
:1030A0001B68C3F31203002B05D13B681B689B0E02
:1030B00003F01F0316E03B681B68C7F88030D7F8A1
:1030C000803093FAA3F3FB67FB6FC7F88430D7F81F
:1030D0008430002B01D1202304E0D7F88430B3FAE8
:1030E00083F3DBB29A4206D17B681B68002202217F
:1030F0001846FFF7E1FA7B681B6803211846FFF7C3
:10310000C5FA0346C3F31203002B0AD17B681B6880
:1031100003211846FFF7BAFA03469B0E03F01F027D
:1031200017E07B681B6803211846FFF7AFFA0346D8
:103130007B677B6F93FAA3F33B673B6FBB67BB6F08
:10314000002B01D1202303E0BB6FB3FA83F3DBB282
:103150001A463B681B68C3F31203002B05D13B687A
:103160001B689B0E03F01F0311E03B681B68BB66E6
:10317000BB6E93FAA3F37B667B6EFB66FB6E002B44
:1031800001D1202303E0FB6EB3FA83F3DBB29A4252
:1031900006D17B681B68002203211846FFF78CFAD2
:1031A0007B681B681846FFF7A7FB0346002B40F01F
:1031B0003F817B6818683B6819683B68DB681A4682
:1031C000FFF700FB3B68DB688E4A934240F030819A
:1031D0007B6818683B681B68C3F31203002B0BD194
:1031E0003B681B689B0E013303F01F03092B94BF40
:1031F00001230023DBB219E03B681B68FB65FB6D14
:1032000093FAA3F3BB65BB6D3B663B6E002B01D10C
:10321000202303E03B6EB3FA83F3DBB2013303F008
:103220001F03092B94BF01230023DBB2002B79D0AD
:103230003B681B68C3F31203002B07D13B681B6874
:103240009B0E01339B0603F0F84215E03B681B68B8
:103250003B653B6D93FAA3F3FB64FB6C7B657B6D75
:10326000002B01D1202303E07B6DB3FA83F3DBB2A3
:1032700001339B0603F0F8423B681B68C3F312035B
:10328000002B09D13B681B689B0E013303F01F0321
:10329000012101FA03F317E03B681B687B647B6C38
:1032A00093FAA3F33B643B6CBB64BB6C002B01D172
:1032B000202303E0BB6CB3FA83F3DBB2013303F0EA
:1032C0001F03012101FA03F342EA03013B681B6873
:1032D000C3F31203002B0AD13B681B689B0E01331A
:1032E00003F01F0213465B0013441B0518E03B6804
:1032F0001B68BB63BB6B93FAA3F37B637B6BFB63C2
:10330000FB6B002B01D1202303E0FB6BB3FA83F3AB
:10331000DBB2013303F01F0213465B0013441B05AD
:103320000B4380E03B681B68C3F31203002B07D1FB
:103330003B681B689B0E01339B0603F0F84215E0C7
:103340003B681B68FB62FB6A93FAA3F3BB62BB6A30
:103350003B633B6B002B01D1202303E03B6BB3FAB3
:1033600083F3DBB201339B0603F0F8423B681B6832
:10337000C3F31203002B09D13B681B689B0E01337A
:1033800003F01F03012101FA03F317E03B681B68F8
:103390003B623B6A93FAA3F3FB61FB697B627B6A46
:1033A000002B01D1202303E07B6AB3FA83F3DBB265
:1033B000013303F01F03012101FA03F342EA030181
:1033C0003B681B68C3F31203002B0DD13B681B68DD
:1033D0009B0E013303F01F0213465B0013441E3B98
:1033E0001B0543F000731DE03B681B687B617B6934
:1033F00093FAA3F33B613B69BB61BB69002B03D12B
:10340000202305E000007F40BB69B3FA83F3DBB201
:10341000013303F01F0213465B0013441E3B1B05E0
:1034200043F000730B433A6892681946FFF79EF920
:103430003B681A683D4B1340002B6CD03C48FFF7AB
:10344000F3F8C7F8C4003B681B683A4A934227D197
:10345000D7F8C43003F40003002B21D17B681B682C
:10346000354A934257D1D7F8C43043F40003194684
:103470002F48FFF7C6F8314B1B689B09304AA2FB67
:1034800003239B095A1C13465B0013449B00FB60FB
:1034900002E0FB68013BFB60FB68002BF9D13AE0DE
:1034A0003B681B68274A934213D1D7F8C43003F016
:1034B0008073002B0DD17B681B681F4A93422AD171
:1034C000D7F8C43043F0807319461948FFF799F8CC
:1034D00021E03B681B681C4A93421CD1D7F8C430DA
:1034E00003F48003002B16D17B681B68124A9342B9
:1034F00011D1D7F8C43043F4800319460C48FFF7C4
:1035000080F808E07B685B6D43F020027B685A65B9
:10351000012387F8D7307B68002283F8502097F882
:10352000D7301846D837BD4680BD00BF00000880A0
:1035300000030450000052C70000045000000020A7
:10354000632D3E05000084CB0100008080B584B06F
:1035500000AF78600023BB607B681B681846FFF7EC
:10356000CBF90346002B69D17B681B689A68364B00
:103570001340002B0DD07B685B6D43F010027B681D
:103580005A657B689B6D43F001027B689A65012355
:1035900055E07B681B681846FFF786F92B48FFF754
:1035A00043F8034603F40003002B13D0284B1B6899
:1035B0009B09284AA2FB03239B095A1C13465B0064
:1035C00013449B00BB6002E0BB68013BBB60BB686F
:1035D000002BF9D1FEF7D2FFF86028E07B681B686A
:1035E0001846FFF789F90346002B04D17B681B6856
:1035F0001846FFF759F9FEF7C1FF0246FB68D31AD8
:10360000022B14D97B681B681B6803F00103012B94
:103610000DD07B685B6D43F010027B685A657B6858
:103620009B6D43F001027B689A65012307E07B688C
:103630001B681B6803F00103012BCFD10023184640
:103640001037BD4680BD00BF3F000080000304501E
:1036500000000020632D3E0580B584B000AF786087
:103660007B681B681846FFF75AF9F8607B681B688F
:103670001846FFF741F90346002B47D0FB68002BA3
:1036800044D17B681B689B6803F00D03012B0CD1B0
:103690007B681B681846FFF71BF97B681B680322D1
:1036A0001A60FEF76BFFB86029E07B685B6D43F042
:1036B00010027B685A657B689B6D43F001027B6852
:1036C0009A65012323E0FEF759FF0246BB68D31A2F
:1036D000022B14D97B681B689B6803F00103002B45
:1036E0000DD07B685B6D43F010027B685A657B6888
:1036F0009B6D43F001027B689A65012307E07B68BC
:103700001B689B6803F00103002BDCD100231846E3
:103710001037BD4680BD80B584B000AF78607B684F
:103720009B6AFB60FB685B6D03F05003002B4BD181
:10373000FB685B6D43F40072FB685A65FB681B68AD
:103740001B6803F00803002B21D0FB681B68184698
:10375000FEF7CDFF0346002B32D0FB681B68DB6809
:1037600003F40053002B2BD1FB685B6D23F48072B4
:10377000FB685A65FB685B6D03F48053002B1FD117
:10378000FB685B6D43F00102FB685A6518E0FB685B
:103790001B68DB6803F00203002B11D1FB685B6D33
:1037A00023F48072FB685A65FB685B6D03F48053F9
:1037B000002B05D1FB685B6D43F00102FB685A6585
:1037C000F868FFF7C5FA0EE0FB685B6D03F01003C5
:1037D000002B03D0F868FFF7CFFA04E0FB68DB6C3E
:1037E0005B6B7868984700BF1037BD4680BD80B5D9
:1037F00084B000AF78607B689B6AFB60F868FFF775
:10380000B1FA00BF1037BD4680BD80B584B000AFAF
:1038100078607B689B6AFB60FB685B6D43F04002ED
:10382000FB685A65FB689B6D43F00402FB689A6570
:10383000F868FFF7A1FA00BF1037BD4680BD80B41D
:1038400083B000AF786039607B689B6823F04043A9
:1038500023F03F033A6802F08042134343F00042F2
:103860007B689A6000BF0C37BD465DF8047B7047EB
:1038700080B483B000AF78607B689B6803F000433E
:10388000B3F1004F01D1012300E0002318460C37AB
:10389000BD465DF8047B704780B584B000AF7860AA
:1038A00039600023BB607B6893F85030012B01D155
:1038B00002234DE07B68012283F850207868FFF7EF
:1038C000CBFE0346FB73FB7B002B36D17B685B6D25
:1038D00023F4885323F0020343F002027B685A6505
:1038E0007B681B6839681846FFF7A9FF14E0BB68BE
:1038F0000133BB60BB68B3F5912F0DD37B685B6D63
:1039000023F0120343F010027B685A657B680022A3
:1039100083F8502001231BE07B681B681846FFF7E3
:10392000A7FF0346002BE2D17B685B6D23F0030306
:1039300043F001027B685A6505E07B685B6D43F0EC
:1039400010027B685A657B68002283F85020FB7B5D
:1039500018461037BD4680BD80B485B000AF786092
:103960007B6803F00703FB600C4BDB68BB60BA6845
:103970004FF6FF031340BB60FB681A02BB6813439A
:1039800043F0BF6343F40033BB60044ABB68D360B9
:1039900000BF1437BD465DF8047B704700ED00E0C2
:1039A00080B400AF044BDB681B0A03F00703184622
:1039B000BD465DF8047B704700ED00E080B483B045
:1039C00000AF0346FB7197F90730002B0BDBFB7947
:1039D00003F01F02074997F907305B09012000FA3D
:1039E00002F241F8232000BF0C37BD465DF8047B8E
:1039F000704700BF00E100E080B483B000AF034631
:103A00003960FB7197F90730002B0ADB3B68DAB2AB
:103A10000C4997F907301201D2B20B4483F8002306
:103A20000AE03B68DAB20849FB7903F00F03043B74
:103A30001201D2B20B441A7600BF0C37BD465DF8B6
:103A4000047B704700E100E000ED00E080B489B045
:103A500000AFF860B9607A60FB6803F00703FB61B0
:103A6000FB69C3F10703042B28BF0423BB61FB6977
:103A70000433062B02D9FB69033B00E000237B6182
:103A80004FF0FF32BB6902FA03F3DA43BB681A4016
:103A90007B699A404FF0FF317B6901FA03F3D94308
:103AA0007B680B40134318462437BD465DF8047B02
:103AB0007047000080B582B000AF78607B68013B42
:103AC000B3F1807F01D301230FE00A4A7B68013BF9
:103AD00053600F214FF0FF30FFF78EFF054B0022A0
:103AE0009A60044B07221A60002318460837BD4627
:103AF00080BD00BF10E000E080B582B000AF78600C
:103B00007868FFF729FF00BF0837BD4680BD80B544
:103B100086B000AF0346B9607A60FB7300237B6117
:103B2000FFF73EFF78617A68B9687869FFF78EFF22
:103B3000024697F90F3011461846FFF75DFF00BFA8
:103B40001837BD4680BD80B582B000AF0346FB711B
:103B500097F907301846FFF731FF00BF0837BD4619
:103B600080BD80B582B000AF78607868FFF7A2FFB3
:103B7000034618460837BD4680BD80B500AFFEF746
:103B8000D9FB00BF80BD000080B582B000AF786077
:103B90007B68002B01D1012354E07B685B7FDBB2A3
:103BA000002B05D17B6800221A777868FEF79EF813
:103BB0007B6802225A777B681B79002B0CD17B68CB
:103BC0001B68224A5A617B681B689A687B681B687D
:103BD00022F018029A600CE07B6899687B68DB68C9
:103BE0001A46786800F034F80346002B01D0012310
:103BF00028E07B685B79002B05D17B681B684FF060
:103C0000FF321A6104E07B681B687A6812691A61E6
:103C10007B681B689B6823F060017B685A697B683E
:103C20001B680A439A607B681B689B6823F08001CD
:103C30007B689A697B681B680A439A607B680122EB
:103C40005A77002318460837BD4680BDB71DC1040A
:103C500080B487B000AFF860B9607A600023FB756C
:103C60001F233B6100BF3B695A1E3A61002B09D0FC
:103C70003B6903F01F03BA6822FA03F303F0010360
:103C8000002BF0D07B68182B46D801A252F823F005
:103C90001F3D0008193D0008193D0008193D0008A6
:103CA000193D0008193D0008193D0008193D00089C
:103CB0000D3D0008193D0008193D0008193D000898
:103CC000193D0008193D0008193D0008193D00087C
:103CD000013D0008193D0008193D0008193D000884
:103CE000193D0008193D0008193D0008193D00085C
:103CF000F53C00083B69062B13D90123FB7510E046
:103D00003B69072B0FD90123FB750CE03B690F2B97
:103D10000BD90123FB7508E00123FB7506E000BF0A
:103D200004E000BF02E000BF00E000BFFB7D002B0D
:103D30000DD1FB681B68BA685A61FB681B689B68F9
:103D400023F01801FB681B687A680A439A60FB7DC0
:103D500018461C37BD465DF8047B704780B485B0BB
:103D600000AF78607B68002B01D1012398E07B686D
:103D70001B681A464D4B9A420FD87B681B681A463F
:103D80004B4B13444B4AA2FB03231B099A007B684D
:103D90005A647B68484A1A640EE07B681B681A46BE
:103DA000464B1344434AA2FB03231B099A007B683A
:103DB0005A647B68424A1A647B68022283F8252091
:103DC0007B681B681B68FB60FB6823F4FF4323F0E0
:103DD0007003FB607B689A687B68DB681A437B68CA
:103DE0001B691A437B685B691A437B689B691A43AA
:103DF0007B68DB691A437B681B6A1343FA681343C9
:103E0000FB607B681B68FA681A607B689B68B3F587
:103E1000804F39D07B681B6C274A93421AD1294BBB
:103E20001A687B685B6C03F01C030F2101FA03F333
:103E3000DB43244913400B60224B1A687B685968A6
:103E40007B685B6C03F01C0301FA03F31D49134309
:103E50000B6019E01C4B1A687B685B6C03F01C0359
:103E60000F2101FA03F3DB43174913400B60164B94
:103E70001A687B6859687B685B6C03F01C0301FA65
:103E800003F3114913430B607B680022DA637B68FC
:103E9000012283F825207B68002283F82420002358
:103EA00018461437BD465DF8047B7047070402408E
:103EB000F8FFFDBFCDCCCCCC00000240F8FBFDBF2D
:103EC00000040240A8000240A804024080B586B069
:103ED00000AFF860B9607A603B600023FB75FB6857
:103EE00093F82430012B01D102234BE0FB6801221F
:103EF00083F82420FB6893F82530DBB2012B3AD1FC
:103F0000FB68022283F82520FB680022DA63FB6845
:103F10001B681A68FB681B6822F001021A603B6884
:103F20007A68B968F86800F05FF9FB681B6B002BD2
:103F300008D0FB681B681A68FB681B6842F00E0219
:103F40001A600FE0FB681B681A68FB681B6822F0A8
:103F500004021A60FB681B681A68FB681B6842F061
:103F60000A021A60FB681B681A68FB681B6842F04B
:103F700001021A6005E0FB68002283F82420022376
:103F8000FB75FB7D18461837BD4680BD80B485B0F3
:103F900000AF78600023FB737B6893F82530DBB2B9
:103FA000022B08D07B680422DA637B68002283F846
:103FB0002420012322E07B681B681A687B681B6849
:103FC00022F00E021A607B681B681A687B681B6807
:103FD00022F001021A607B685B6C03F01C027B68B4
:103FE0001B6C012101FA02F25A607B68012283F8FE
:103FF00025207B68002283F82420FB7B1846143799
:10400000BD465DF8047B704780B584B000AF786032
:104010000023FB737B6893F82530DBB2022B05D0BD
:104020007B680422DA630123FB7329E07B681B6849
:104030001A687B681B6822F00E021A607B681B6896
:104040001A687B681B6822F001021A607B685B6C4F
:1040500003F01C027B681B6C012101FA02F25A601A
:104060007B68012283F825207B68002283F82420C6
:104070007B689B6B002B03D07B689B6B78689847B1
:10408000FB7B18461037BD4680BD80B584B000AFBD
:1040900078607B681B6C1B68FB607B681B681B6817
:1040A000BB607B685B6C03F01C0304229A40FB68D6
:1040B0001340002B26D0BB6803F00403002B21D053
:1040C0007B681B681B6803F02003002B07D17B680B
:1040D0001B681A687B681B6822F004021A607B6800
:1040E0005B6C03F01C027B681B6C042101FA02F27A
:1040F0005A607B681B6B002B71D07B681B6B7868E8
:1041000098476CE07B685B6C03F01C0302229A40CA
:10411000FB681340002B2ED0BB6803F00203002B7A
:1041200029D07B681B681B6803F02003002B0BD190
:104130007B681B681A687B681B6822F00A021A6099
:104140007B68012283F825207B685B6C03F01C02EE
:104150007B681B6C022101FA02F25A607B68002224
:1041600083F824207B68DB6A002B38D07B68DB6A0D
:104170007868984733E07B685B6C03F01C03082287
:104180009A40FB681340002B2AD0BB6803F0080359
:10419000002B25D07B681B681A687B681B6822F09F
:1041A0000E021A607B685B6C03F01C027B681B6C60
:1041B000012101FA02F25A607B680122DA637B680E
:1041C000012283F825207B68002283F824207B6865
:1041D0005B6B002B04D07B685B6B7868984700BFF3
:1041E00000BF1037BD4680BD80B485B000AFF86019
:1041F000B9607A603B60FB685B6C03F01C02FB6893
:104200001B6C012101FA02F25A60FB681B683A68D4
:104210005A60FB689B68102B08D1FB681B687A68A2
:104220009A60FB681B68BA68DA6007E0FB681B6885
:10423000BA689A60FB681B687A68DA6000BF143756
:10424000BD465DF8047B704780B487B000AF7860EE
:10425000396000237B6154E13B681A6801217B6966
:1042600001FA03F31340FB60FB68002B00F046816A
:104270003B685B6803F00303012B05D03B685B6878
:1042800003F00303022B30D17B689B683B617B69A1
:104290005B00032202FA03F3DB433A6913403B61FC
:1042A0003B68DA687B695B0002FA03F33A691343FF
:1042B0003B617B683A699A607B685B683B6101227D
:1042C0007B6902FA03F3DB433A6913403B613B68C5
:1042D0005B681B0903F001027B6902FA03F33A6988
:1042E00013433B617B683A695A603B685B6803F043
:1042F0000303032B17D07B68DB683B617B695B00A2
:10430000032202FA03F3DB433A6913403B613B6843
:104310009A687B695B0002FA03F33A6913433B61D5
:104320007B683A69DA603B685B6803F00303022B41
:1043300023D17B69DA087B68083253F822303B616D
:104340007B6903F007039B000F2202FA03F3DB43B0
:104350003A6913403B613B681A697B6903F00703C4
:104360009B0002FA03F33A6913433B617B69DA0865
:104370007B680832396943F822107B681B683B610F
:104380007B695B00032202FA03F3DB433A691340C3
:104390003B613B685B6803F003027B695B0002FAE8
:1043A00003F33A6913433B617B683A691A603B68DF
:1043B0005B6803F44033002B00F0A080584B1B6E69
:1043C000574A43F001031366554B1B6E03F001037C
:1043D000BB60BB68534A7B699B08023352F82330A9
:1043E0003B617B6903F003039B000F2202FA03F396
:1043F000DB433A6913403B617B68B3F1904F19D0BE
:104400007B68494A934213D07B68484A93420DD057
:104410007B68474A934207D07B68464A934201D162
:10442000042308E0072306E0032304E0022302E05C
:10443000012300E000237A6902F003029200934016
:104440003A6913433B6137497B699B0802333A69F8
:1044500041F82320384B9B683B61FB68DB433A699A
:1044600013403B613B685B6803F48013002B03D06F
:104470003A69FB6813433B612F4A3B6993602E4BBB
:10448000DB683B61FB68DB433A6913403B613B6897
:104490005B6803F40013002B03D03A69FB681343F5
:1044A0003B61254A3B69D360234B5B683B61FB68FA
:1044B000DB433A6913403B613B685B6803F40033BC
:1044C000002B03D03A69FB6813433B611A4A3B69EE
:1044D0005360194B1B683B61FB68DB433A6913402F
:1044E0003B613B685B6803F48033002B03D03A697F
:1044F000FB6813433B61104A3B6913607B690133DE
:104500007B613B681A687B6922FA03F3002B7FF416
:10451000A3AE00BF00BF1C37BD465DF8047B7047EB
:10452000001002400000014000040048000800485C
:10453000000C0048001000480004014080B483B023
:1045400000AF78600B467B8013467B707B78002B36
:1045500003D07A887B689A6102E07A887B689A62E5
:1045600000BF0C37BD465DF8047B704780B582B054
:1045700000AF78607B68002B01D1012381E07B686C
:1045800093F84130DBB2002B06D17B68002283F820
:1045900040207868FDF7CAFB7B68242283F841201D
:1045A0007B681B681A687B681B6822F001021A602E
:1045B0007B685A687B681B6822F070621A617B68AE
:1045C0001B689A687B681B6822F400429A607B68CB
:1045D000DB68012B07D17B689A687B681B6842F413
:1045E00000429A6006E07B689A687B681B6842F428
:1045F00004429A607B68DB68022B04D17B681B68ED
:104600004FF400625A607B681B685B687A681268C6
:1046100043F0007343F4004353607B681B68DA681F
:104620007B681B6822F40042DA607B681A697B6849
:104630005B6942EA03017B689B691A027B681B681D
:104640000A43DA607B68D9697B681A6A7B681B68F1
:104650000A431A607B681B681A687B681B6842F013
:1046600001021A607B6800225A647B68202283F86A
:1046700041207B6800221A637B68002283F8422075
:10468000002318460837BD4680BD80B58AB002AF0A
:10469000F8607A603B600B467B8100237B61FB689E
:1046A00093F84130DBB2202B40F0F180FB681B68AF
:1046B0009B6903F40043B3F5004F01D10223E7E007
:1046C000FB6893F84030012B01D10223E0E0FB6846
:1046D000012283F84020FB68242283F84120FB68F4
:1046E00000225A64FB68DB68012B07D17B89C3F386
:1046F000090343F0007343F4005304E07B89C3F3E0
:10470000090343F42053FA6812685360FDF736FF3B
:10471000B861FB681B689B6903F02003202B0CBF6A
:1047200001230023DBB2FB77FB681B689B6903F066
:104730001003102B0CBF01230023DBB2BB7734E046
:104740003B68B3F1FF3F1AD0FDF718FF0246BB6983
:10475000D31A3A689A4202D33B68002B0FD1FB6808
:10476000202283F84120FB685B6C43F02002FB6849
:104770005A64FB68002283F84020012388E0FB682C
:104780001B689B6903F02003202B0CBF012300232F
:10479000DBB2FB77FB681B689B6903F01003102BEF
:1047A0000CBF01230023DBB2BB77FB7F002B02D1C0
:1047B000BB7F002BC4D0FB681B689B6903F0100310
:1047C000102B1AD0BB6900933B6800222021F868A7
:1047D00000F062F80346002B01D0012358E0FB688B
:1047E0001B682022DA61FB68202283F84120FB68E5
:1047F000002283F8402000234AE0BB6900933B6815
:1048000000222021F86800F047F80346002B01D071
:1048100001233DE0FB681B681022DA61FB681B681E
:104820002022DA617B697A689A4218D1FB681B689A
:104830005A68FB681B6842F480425A60BB69009367
:104840003B6800222021F86800F026F80346002B80
:1048500001D001231CE0FB681B682022DA617B6920
:1048600001337B617B697A689A423FF63BAFFB6814
:10487000202283F84120FB685B6C43F02002FB6838
:104880005A64FB68002283F84020012300E00223E1
:1048900018462037BD4680BD80B584B000AFF860B3
:1048A000B9603B601346FB7122E03B68B3F1FF3F08
:1048B0001ED0FDF763FE0246BB69D31A3A689A42DE
:1048C00002D33B68002B13D1FB685B6C43F02002E2
:1048D000FB685A64FB68202283F84120FB680022B1
:1048E00083F84220FB68002283F8402001230FE078
:1048F000FB681B689A69BB681340BA689A420CBF90
:1049000001230023DBB21A46FB799A42CDD0002363
:1049100018461037BD4680BD80B483B000AF7860C4
:1049200039607B6893F84130DBB2202B38D17B684B
:1049300093F84030012B01D1022332E07B68012241
:1049400083F840207B68242283F841207B681B6821
:104950001A687B681B6822F001021A607B681B687A
:104960001A687B681B6822F480521A607B681B6897
:1049700019687B681B683A680A431A607B681B6881
:104980001A687B681B6842F001021A607B6820226B
:1049900083F841207B68002283F84020002300E058
:1049A000022318460C37BD465DF8047B704780B47F
:1049B00085B000AF786039607B6893F84130DBB236
:1049C000202B39D17B6893F84030012B01D1022391
:1049D00033E07B68012283F840207B68242283F83F
:1049E00041207B681B681A687B681B6822F0010203
:1049F0001A607B681B681B68FB60FB6823F47063AC
:104A0000FB603B681B02FA681343FB607B681B6812
:104A1000FA681A607B681B681A687B681B6842F03A
:104A200001021A607B68202283F841207B68002203
:104A300083F84020002300E0022318461437BD46C7
:104A40005DF8047B7047000080B400AF044B1B6826
:104A500003F4C0631846BD465DF8047B704700BF91
:104A60000070004080B485B000AF78607B68B3F51B
:104A7000007F30D1234B1B6803F4C063B3F5007F84
:104A800038D0204B1B6823F4C0631E4A43F40073E4
:104A900013601D4B1B68322202FB03F31B4AA2FB6F
:104AA00003239B0C0133FB6002E0FB68013BFB60CE
:104AB000144B5B6903F48063B3F5806F02D1FB682C
:104AC000002BF2D10F4B5B6903F48063B3F5806F69
:104AD00010D103230FE00B4B1B6803F4C063B3F545
:104AE000806F07D0074B1B6823F4C063054A43F46B
:104AF00080631360002318461437BD465DF8047BBD
:104B0000704700BF007000400000002083DE1B43A0
:104B100080B588B000AF78607B68002B02D101239C
:104B200000F002BC964B9B6803F00C03BB61944BF6
:104B3000DB6803F003037B617B681B6803F01003F1
:104B4000002B00F0E480BB69002B07D0BB690C2B65
:104B500040F08B807B69012B40F08780884B1B687D
:104B600003F00203002B05D07B689B69002B01D169
:104B70000123D9E37B681A6A814B1B6803F00803A1
:104B8000002B04D07E4B1B6803F0F00305E07C4B48
:104B9000D3F894301B0903F0F003934223D27B68CF
:104BA0001B6A184600F08CFD0346002B01D0012340
:104BB000BAE3734B1B68724A43F008031360704BEF
:104BC0001B6823F0F0027B681B6A6D4913430B607E
:104BD0006B4B5B6823F47F427B68DB691B0268498F
:104BE00013434B6025E0664B1B68654A43F008039E
:104BF0001360634B1B6823F0F0027B681B6A6049FB
:104C000013430B605E4B5B6823F47F427B68DB6978
:104C10001B025B4913434B60BB69002B09D17B68C6
:104C20001B6A184600F04CFD0346002B01D00123FF
:104C30007AE300F081FC0246514B9B681B0903F0AC
:104C40000F035049CB5C03F01F0322FA03F34E4AD3
:104C500013604E4B1B681846FDF740FC0346FB7380
:104C6000FB7B002B52D0FB7B5EE37B689B69002BB8
:104C700032D0434B1B68424A43F001031360FDF7F7
:104C80007DFC386108E0FDF779FC02463B69D31AE8
:104C9000022B01D9032347E3394B1B6803F00203BE
:104CA000002BF0D0364B1B68354A43F008031360E5
:104CB000334B1B6823F0F0027B681B6A30491343B7
:104CC0000B602F4B5B6823F47F427B68DB691B0220
:104CD0002B4913434B601AE0294B1B68284A23F0E9
:104CE00001031360FDF74AFC386108E0FDF746FC5C
:104CF00002463B69D31A022B01D9032314E3204B4C
:104D00001B6803F00203002BF0D100E000BF7B68BA
:104D10001B6803F00103002B73D0BB69082B05D07F
:104D2000BB690C2B0ED17B69032B0BD1144B1B6879
:104D300003F40033002B63D07B685B68002B5FD1EA
:104D40000123F1E27B685B68B3F5803F06D10C4B31
:104D50001B680B4A43F48033136025E07B685B6873
:104D6000B3F5A02F14D1064B1B68054A43F48023EA
:104D70001360034B1B68024A43F48033136013E053
:104D800000100240C4AC0008000000200400002015
:104D9000A04B1B689F4A23F4803313609D4B1B6814
:104DA0009C4A23F4802313607B685B68002B13D03C
:104DB000FDF7E4FB386108E0FDF7E0FB02463B69E4
:104DC000D31A642B01D90323AEE2924B1B6803F480
:104DD0000033002BF0D014E0FDF7D0FB386108E081
:104DE000FDF7CCFB02463B69D31A642B01D90323A0
:104DF0009AE2884B1B6803F40033002BF0D100E0EB
:104E000000BF7B681B6803F00203002B60D0BB6906
:104E1000042B05D0BB690C2B19D17B69022B16D151
:104E20007C4B1B6803F48063002B05D07B68DB6838
:104E3000002B01D1012377E2764B5B6823F0F85217
:104E40007B681B691B06734913434B6040E07B681A
:104E5000DB68002B23D06F4B1B686E4A43F48073D2
:104E60001360FDF78BFB386108E0FDF787FB024616
:104E70003B69D31A022B01D9032355E2654B1B680A
:104E800003F48063002BF0D0624B5B6823F0F85290
:104E90007B681B691B065F4913434B6018E05D4B41
:104EA0001B685C4A23F480731360FDF767FB38616D
:104EB00008E0FDF763FB02463B69D31A022B01D9D8
:104EC000032331E2534B1B6803F48063002BF0D1C2
:104ED0007B681B6803F00803002B3CD07B685B6990
:104EE000002B1CD04B4BD3F894304A4A43F00103BB
:104EF000C2F89430FDF742FB386108E0FDF73EFB55
:104F000002463B69D31A022B01D903230CE2414B21
:104F1000D3F8943003F00203002BEFD01BE03D4B9D
:104F2000D3F894303B4A23F00103C2F89430FDF7E4
:104F300025FB386108E0FDF721FB02463B69D31AE7
:104F4000022B01D90323EFE1324BD3F8943003F065
:104F50000203002BEFD17B681B6803F00403002BD6
:104F600000F0A6800023FB772A4B9B6D03F0805353
:104F7000002B0DD1274B9B6D264A43F08053936540
:104F8000244B9B6D03F08053BB60BB680123FB7710
:104F9000214B1B6803F48073002B18D11E4B1B6838
:104FA0001D4A43F480731360FDF7E8FA386108E0A6
:104FB000FDF7E4FA02463B69D31A022B01D9032319
:104FC000B2E1154B1B6803F48073002BF0D07B68B3
:104FD0009B68012B08D10F4BD3F890300D4A43F05A
:104FE0000103C2F8903029E07B689B68052B15D13E
:104FF000084BD3F89030074A43F00403C2F89030CE
:10500000044BD3F89030034A43F00103C2F89030C8
:1050100014E000BF00100240007000409A4BD3F82B
:105020009030994A23F00103C2F89030964BD3F8A0
:105030009030954A23F00403C2F890307B689B6857
:10504000002B16D0FDF79AFA38610AE0FDF796FAC0
:1050500002463B69D31A41F28832934201D90323B5
:1050600062E1894BD3F8903003F00203002BEDD0BE
:1050700015E0FDF783FA38610AE0FDF77FFA024692
:105080003B69D31A41F28832934201D903234BE1A1
:105090007D4BD3F8903003F00203002BEDD1FB7F62
:1050A000012B05D1784B9B6D774A23F08053936594
:1050B0007B681B6803F02003002B3CD07B685B6A95
:1050C000002B1CD0704BD3F898306F4A43F001038B
:1050D000C2F89830FDF752FA386108E0FDF74EFA51
:1050E00002463B69D31A022B01D903231CE1664B0C
:1050F000D3F8983003F00203002BEFD01BE0624B93
:10510000D3F89830604A23F00103C2F89830FDF7D5
:1051100035FA386108E0FDF731FA02463B69D31AE7
:10512000022B01D90323FFE0574BD3F8983003F04B
:105130000203002BEFD17B689B6A002B00F0F38009
:105140007B689B6A022B40F0C9804F4BDB687B6118
:105150007B6903F003027B68DB6A9A422CD17B698E
:1051600003F070027B681B6B013B1B019A4223D149
:105170007B6903F4FE427B685B6B1B029A421BD186
:105180007B6903F078427B689B6BDB069A4213D104
:105190007B6903F4C0027B68DB6B5B08013B5B054A
:1051A0009A4209D17B6903F0C0627B681B6C5B0883
:1051B000013B5B069A426BD0BB690C2B62D0324B31
:1051C0001B6803F08063002B01D00123ACE02E4B61
:1051D0001B682D4A23F080731360FDF7CFF9386107
:1051E00008E0FDF7CBF902463B69D31A022B01D93F
:1051F000032399E0244B1B6803F00073002BF0D1CC
:10520000214BDA68214B13407A68D16A7A68126BB5
:10521000013A120111437A68526B120211437A6803
:10522000D26B5208013A520511437A68126C520847
:10523000013A520611437A68926BD2060A43124928
:105240001343CB60104B1B680F4A43F0807313600D
:105250000D4BDB680C4A43F08073D360FDF78EF989
:10526000386108E0FDF78AF902463B69D31A022B40
:1052700001D9032358E0044B1B6803F00073002B93
:10528000F0D050E001234FE0001002408C809D01DF
:10529000274B1B6803F00073002B44D1244B1B6881
:1052A000234A43F080731360214BDB68204A43F0AC
:1052B0008073D360FDF762F9386108E0FDF75EF9AD
:1052C00002463B69D31A022B01D903232CE0184B69
:1052D0001B6803F00073002BF0D024E0BB690C2B9B
:1052E0001FD0134B1B68124A23F080731360FDF725
:1052F00045F9386108E0FDF741F902463B69D31AE8
:10530000022B01D903230FE0094B1B6803F0007344
:10531000002BF0D1064BDA680549064B1340CB60F1
:1053200001E0012300E0002318462037BD4680BD80
:1053300000100240FCFFEEFE80B584B000AF786044
:1053400039607B68002B01D10123E7E0754B1B68B6
:1053500003F007033A689A4210D9724B1B6823F096
:10536000070270493B6813430B606E4B1B6803F0E8
:1053700007033A689A4201D00123CFE07B681B689B
:1053800003F00203002B10D07B689A68664B9B6881
:1053900003F0F0039A4208D9634B9B6823F0F002B4
:1053A0007B689B68604913438B607B681B6803F0D4
:1053B0000103002B4CD07B685B68032B07D15A4B51
:1053C0001B6803F00073002B21D10123A6E07B684A
:1053D0005B68022B07D1544B1B6803F40033002B8E
:1053E00015D101239AE07B685B68002B07D14E4BF7
:1053F0001B6803F00203002B09D101238EE04A4B06
:105400001B6803F48063002B01D1012386E0464B27
:105410009B6823F003027B685B68434913438B60FE
:10542000FDF7ACF8F8600AE0FDF7A8F80246FB6863
:10543000D31A41F28832934201D903236EE03A4BEA
:105440009B6803F00C027B685B689B009A42EBD17F
:105450007B681B6803F00203002B10D07B689A68FE
:10546000314B9B6803F0F0039A4208D22E4B9B68A5
:1054700023F0F0027B689B682B4913438B60294B18
:105480001B6803F007033A689A4210D2254B1B6849
:1054900023F0070223493B6813430B60214B1B6831
:1054A00003F007033A689A4201D0012336E07B6893
:1054B0001B6803F00403002B08D01B4B9B6823F4EC
:1054C000E0627B68DB68184913438B607B681B686C
:1054D00003F00803002B09D0134B9B6823F46052A0
:1054E0007B681B69DB00104913438B6000F024F8D4
:1054F00002460D4B9B681B0903F00F030B49CB5C65
:1055000003F01F0322FA03F3094A1360094B1B68D7
:105510001846FCF7E3FF0346FB72FB7A1846103788
:10552000BD4680BD0020024000100240C4AC00080F
:10553000000000200400002080B489B000AF0023E8
:10554000FB610023BB613E4B9B6803F00C033B6196
:105550003B4BDB6803F00303FB603B69002B05D08A
:105560003B690C2B21D1FB68012B1ED1344B1B68EE
:1055700003F00803002B07D1314BD3F894301B0AFA
:1055800003F00F03FB6105E02D4B1B681B0903F0C3
:105590000F03FB612B4AFB6952F82330FB613B6927
:1055A000002B0DD1FB69BB610AE03B69042B02D1E2
:1055B000254BBB6104E03B69082B01D1234BBB6148
:1055C0003B690C2B34D11E4BDB6803F00303BB603B
:1055D000BB68022B03D0BB68032B03D005E01A4B3A
:1055E0007B6105E0194B7B6102E0FB697B6100BFD9
:1055F000134BDB681B0903F0070301337B60104B7F
:10560000DB681B0A03F07F037A6903FB02F27B6805
:10561000B2FBF3F37B610A4BDB685B0E03F0030321
:1056200001335B003B607A693B68B2FBF3F3BB611B
:10563000BB6918462437BD465DF8047B704700BF40
:1056400000100240DCAC00080024F40000127A00D4
:1056500080B400AF034B1B681846BD465DF8047B61
:10566000704700BF0000002080B500AFFFF7F0FFDB
:105670000246064B9B681B0A03F007030449CB5CF8
:1056800003F01F0322FA03F3184680BD0010024006
:10569000D4AC000880B500AFFFF7DAFF0246064B36
:1056A0009B68DB0A03F007030449CB5C03F01F038C
:1056B00022FA03F3184680BD00100240D4AC000863
:1056C00080B586B000AF786000233B612A4B9B6DAC
:1056D00003F08053002B03D0FFF7B6F9786114E094
:1056E000254B9B6D244A43F080539365224B9B6D61
:1056F00003F08053FB60FB68FFF7A6F978611E4B4F
:105700009B6D1D4A23F0805393657B69B3F5007F41
:105710000BD17B68802B19D97B68A02B02D902237F
:105720003B6113E001233B6110E07B68802B02D9D1
:1057300003233B610AE07B68802B02D102233B619B
:1057400004E07B68702B01D101233B610B4B1B688C
:1057500023F0070209493B6913430B60074B1B68A1
:1057600003F007033A699A4201D0012300E00023C5
:1057700018461837BD4680BD001002400020024088
:1057800080B586B000AF78600023FB740023BB7443
:105790007B681B6803F40063002B31D07B685B6C73
:1057A000B3F5400F1AD0B3F5400F14D8002B09D031
:1057B000B3F5000F0FD15D4BDB685C4A43F48033D7
:1057C000D3600CE07B6804330021184600F0F0F948
:1057D0000346FB7403E00123FB7400E000BFFB7C85
:1057E000002B0BD1514BD3F8883023F440027B6857
:1057F0005B6C4E491343C1F8883001E0FB7CBB74FD
:105800007B681B6803F40033002B00F09E800023AC
:105810007B74464B9B6D03F08053002B01D1012319
:1058200000E00023002B0DD0404B9B6D3F4A43F01E
:10583000805393653D4B9B6D03F08053BB60BB6809
:1058400001237B743A4B1B68394A43F4807313601D
:10585000FCF794FEF86009E0FCF790FE0246FB6856
:10586000D31A022B02D90323FB7405E0304B1B68CB
:1058700003F48073002BEFD0FB7C002B5AD12B4B11
:10588000D3F8903003F440737B617B69002B1ED00A
:105890007B689B6D7A699A4219D0244BD3F890307B
:1058A00023F440737B61214BD3F890301F4A43F4BB
:1058B0008033C2F890301D4BD3F890301B4A23F44C
:1058C0008033C2F89030194A7B69C2F890307B6906
:1058D00003F00103002B16D0FCF750FEF8600BE03C
:1058E000FCF74CFE0246FB68D31A41F28832934221
:1058F00002D90323FB7406E00C4BD3F8903003F07D
:105900000203002BECD0FB7C002B0BD1074BD3F810
:10591000903023F440727B689B6D04491343C1F8B7
:10592000903009E0FB7CBB7406E000BF0010024031
:1059300000700040FB7CBB747B7C012B05D19B4B32
:105940009B6D9A4A23F0805393657B681B6803F034
:105950000103002B0AD0954BD3F8883023F00302C3
:105960007B681B6A91491343C1F888307B681B68C8
:1059700003F00203002B0AD08C4BD3F8883023F0BD
:105980000C027B685B6A89491343C1F888307B68E5
:105990001B6803F00403002B0AD0844BD3F8883033
:1059A00023F030027B689B6A80491343C1F888303A
:1059B0007B681B6803F02003002B0AD07B4BD3F8D5
:1059C000883023F440627B68DB6A78491343C1F86E
:1059D00088307B681B6803F40073002B0AD0734B7C
:1059E000D3F8883023F440227B68DB6B6F49134384
:1059F000C1F888307B681B6803F48063002B0AD0F1
:105A00006A4BD3F8883023F440127B681B6C6749DB
:105A10001343C1F888307B681B6803F04003002BF8
:105A20000AD0624BD3F8883023F440527B681B6B5A
:105A30005E491343C1F888307B681B6803F080031C
:105A4000002B0AD0594BD3F8883023F440427B68AE
:105A50005B6B56491343C1F888307B681B6803F4BD
:105A60008073002B0AD0514BD3F8883023F4403296
:105A70007B689B6B4D491343C1F888307B681B687A
:105A800003F40023002B28D0484BD3F8883023F0B0
:105A900040627B689B6C45491343C1F888307B6842
:105AA0009B6CB3F1006F06D1404BDB683F4A43F477
:105AB0008013D36011E07B689B6CB3F1806F0CD1D5
:105AC0007B6804330121184600F072F80346FB742A
:105AD000FB7C002B01D0FB7CBB747B681B6803F450
