:020000040800F2
:10000000000001204D970008557000085970000845
:100010005D70000861700008657000080000000055
:1000200000000000000000000000000071E2000875
:10003000697000080000000001E3000865E30008A3
:100040009D9700089D9700089D9700089D970008C0
:100050009D9700089D9700089D9700089D970008B0
:100060009D9700089D9700089D9700086D700008F7
:100070009D9700089D9700089D9700089D97000890
:100080009D9700089D9700089D9700089D97000880
:100090009D9700089D9700089D9700089D97000870
:1000A0009D9700089D9700089D9700089D97000860
:1000B0009D97000800000000000000009D970008C8
:1000C0009D9700089D9700089D9700089D97000840
:1000D0009D97000879700008857000089D970008BA
:1000E0009D9700089D970008000000000000000098
:1000F0000000000000000000000000000000000000
:10010000000000009D970008000000009D97000877
:1001100000000000000000009D970008917000089A
:100120009D9700089D9700089D9700089D970008DF
:100130009D97000800000000000000000000000083
:100140009D9700089D9700089D97000800000000FB
:100150009D9700089D9700089D9700089D970008AF
:100160009D9700089D9700089D97000800000000DB
:100170009D9700089D970008000000000000000007
:0C0180009D9700089D9700089D970008BF
:1001900010B5054C237833B9044B13B10448AFF3C1
:1001A00000800123237010BD080200200000000021
:1001B000C83A010808B5034B1BB103490348AFF324
:1001C000008008BD000000000C020020C83A0108B1
:1001D00038B500281CBF01680029184A23D1184BE4
:1001E0001C684FF6F0710C404CF24025AC421FBF2A
:1001F0001B6819404CF27024A14212D1114D29689C
:1002000079B911490B68C3F30B03B3F58A6F1FBFAC
:100210000968C1F30B0140F28343994204BF0121F5
:10022000117028B905E0094B994204BF01211170F2
:100230004068BDE8324005F00FBB00BF240200203B
:1002400000ED00E0002004E00010005C00003748F2
:1002500001F0FF01102A2BDB10F0070F08D010F877
:10026000013B013A8B422DD010F0070F42B3F6D17B
:10027000F0B441EA012141EA014122F007047FF094
:1002800000070023F0E80256083C85EA010586EAEB
:10029000010685FA47F5A3FA87F586FA47F6A5FA27
:1002A00087F68EB9EED1F0BC01F0FF0102F0070233
:1002B00032B110F8013B013A83EA010313B1F8D1DE
:1002C0000020704701387047002D06BF35460338BF
:1002D000073815F0010F07D1013015F4807F02BFF8
:1002E000013015F4C03F0130F0BC0138704700BF49
:1002F000034613F8012B002AFBD1181A0138704766
:1003000081F0004102E000BF83F0004330B54FEAC6
:1003100041044FEA430594EA050F08BF90EA020F33
:100320001FBF54EA000C55EA020C7FEA645C7FEAC6
:10033000655C00F0E2804FEA5454D4EB5555B8BFE9
:100340006D420CDD2C4480EA020281EA030382EA5A
:10035000000083EA010180EA020281EA0303362DEC
:1003600088BF30BD11F0004F4FEA01314FF4801CBF
:100370004CEA113102D0404261EB410113F0004FD1
:100380004FEA03334CEA133302D0524263EB430388
:1003900094EA050F00F0A780A4F10104D5F1200E26
:1003A0000DDB02FA0EFC22FA05F2801841F1000181
:1003B00003FA0EF2801843FA05F359410EE0A5F155
:1003C00020050EF1200E012A03FA0EFC28BF4CF086
:1003D000020C43FA05F3C01851EBE37101F000453C
:1003E00007D54FF0000EDCF1000C7EEB00006EEB49
:1003F0000101B1F5801F1BD3B1F5001F0CD34908D3
:100400005FEA30004FEA3C0C04F101044FEA445229
:1004100012F5800F80F09A80BCF1004F08BF5FEAB0
:10042000500C50F1000041EB045141EA050130BD90
:100430005FEA4C0C404141EB0101013C28BFB1F5A2
:10044000801FE9D291F0000F04BF01460020B1FAED
:1004500081F308BF2033A3F10B03B3F120020CDAC0
:100460000C3208DD02F1140CC2F10C0201FA0CF09E
:1004700021FA02F10CE002F11402D8BFC2F1200C03
:1004800001FA02F120FA0CFCDCBF41EA0C019040B9
:10049000E41AA2BF01EB0451294330BD6FEA040402
:1004A0001F3C1CDA0C340EDC04F11404C4F12002ED
:1004B00020FA04F001FA02F340EA030021FA04F3FF
:1004C00045EA030130BDC4F10C04C4F1200220FA56
:1004D00002F001FA04F340EA0300294630BD21FA94
:1004E00004F0294630BD94F0000F83F4801306BF5A
:1004F00081F480110134013D4EE77FEA645C18BF4E
:100500007FEA655C29D094EA050F08BF90EA020FE4
:1005100005D054EA000C04BF1946104630BD91EADC
:10052000030F1EBF0021002030BD5FEA545C05D1DF
:100530004000494128BF41F0004130BD14F580041E
:100540003CBF01F5801130BD01F0004545F0FE4192
:1005500041F470014FF0000030BD7FEA645C1ABFC7
:10056000194610467FEA655C1CBF0B46024650EAFE
:10057000013406BF52EA033591EA030F41F400212A
:1005800030BD00BF90F0000F04BF0021704730B5B0
:100590004FF4806404F132044FF000054FF0000185
:1005A00050E700BF90F0000F04BF0021704730B546
:1005B0004FF4806404F1320410F0004548BF40421B
:1005C0004FF000013EE700BF42004FEAE2014FEA70
:1005D00031014FEA02701FBF12F07F4393F07F4F4B
:1005E00081F06051704732F07F4208BF704793F04E
:1005F0007F4F04BF41F40021704730B54FF4607461
:1006000001F0004521F000411CE700BF50EA010263
:1006100008BF704730B54FF000050AE050EA01020C
:1006200008BF704730B511F0004502D5404261EB7C
:1006300041014FF4806404F132045FEA915C3FF4BD
:10064000D8AE4FF003025FEADC0C18BF03325FEA5A
:10065000DC0C18BF033202EBDC02C2F1200300FA0B
:1006600003FC20FA02F001FA03FE40EA0E0021FA30
:1006700002F11444BDE600BF70B54FF0FF0C4CF41E
:10068000E06C1CEA11541DBF1CEA135594EA0C0FD0
:1006900095EA0C0F00F0DEF82C4481EA030621EA0B
:1006A0004C5123EA4C5350EA013518BF52EA033546
:1006B00041F4801143F4801338D0A0FB02CE4FF0F8
:1006C0000005E1FB02E506F00042E0FB03E54FF028
:1006D0000006E1FB03569CF0000F18BF4EF0010E20
:1006E000A4F1FF04B6F5007F64F5407404D25FEA1C
:1006F0004E0E6D4146EB060642EAC62141EA5551CF
:100700004FEAC52040EA5E504FEACE2EB4F1FD0C10
:1007100088BFBCF5E06F1ED8BEF1004F08BF5FEA8E
:10072000500E50F1000041EB045170BD06F0004640
:1007300046EA010140EA020081EA0301B4EB5C04ED
:10074000C2BFD4EB0C0541EA045170BD41F48011E5
:100750004FF0000E013C00F3AB8014F1360FDEBF0A
:10076000002001F0004170BDC4F10004203C35DAE6
:100770000C341BDC04F11404C4F1200500FA05F369
:1007800020FA04F001FA05F240EA020001F000420A
:1007900021F0004110EBD37021FA04F642EB060180
:1007A0005EEA430E08BF20EAD37070BDC4F10C04AA
:1007B000C4F1200500FA04F320FA05F001FA04F26E
:1007C00040EA020001F0004110EBD37041F100015A
:1007D0005EEA430E08BF20EAD37070BDC4F1200565
:1007E00000FA05F24EEA020E20FA04F301FA05F2CD
:1007F00043EA020321FA04F001F0004121FA04F275
:1008000020EA020000EBD3705EEA430E08BF20EA44
:10081000D37070BD94F0000F0FD101F0004640007E
:1008200041EB010111F4801F08BF013CF7D041EA00
:10083000060195F0000F18BF704703F00046520004
:1008400043EB030313F4801F08BF013DF7D043EAD5
:100850000603704794EA0C0F0CEA135518BF95EA8B
:100860000C0F0CD050EA410618BF52EA4306D1D112
:1008700081EA030101F000414FF0000070BD50EA31
:10088000410606BF1046194652EA430619D094EABB
:100890000C0F02D150EA013613D195EA0C0F05D1A5
:1008A00052EA03361CBF104619460AD181EA0301F9
:1008B00001F0004141F0FE4141F470014FF00000B1
:1008C00070BD41F0FE4141F4780170BD70B54FF04C
:1008D000FF0C4CF4E06C1CEA11541DBF1CEA1355CC
:1008E00094EA0C0F95EA0C0F00F0A7F8A4EB0504AE
:1008F00081EA030E52EA03354FEA013100F08880A5
:100900004FEA03334FF0805545EA131343EA12636D
:100910004FEA022245EA111545EA10654FEA002622
:100920000EF000419D4208BF964244F1FD0404F5DB
:10093000407402D25B084FEA3202B61A65EB030537
:100940005B084FEA32024FF480104FF4002CB6EBF4
:10095000020E75EB030E22BFB61A754640EA0C0074
:100960005B084FEA3202B6EB020E75EB030E22BFB4
:10097000B61A754640EA5C005B084FEA3202B6EBF5
:10098000020E75EB030E22BFB61A754640EA9C00B4
:100990005B084FEA3202B6EB020E75EB030E22BF84
:1009A000B61A754640EADC0055EA060E18D04FEA42
:1009B000051545EA16754FEA06164FEAC30343EAE2
:1009C00052734FEAC2025FEA1C1CC0D111F4801FAF
:1009D0000BD141EA00014FF000004FF0004CB6E7A8
:1009E00011F4801F04BF01430020B4F1FD0C88BF47
:1009F000BCF5E06F3FF6AFAEB5EB030C04BFB6EB52
:100A0000020C5FEA500C50F1000041EB045170BD44
:100A10000EF0004E4EEA113114EB5C04C2BFD4EB71
:100A20000C0541EA045170BD41F480114FF0000EF5
:100A3000013C90E645EA060E8DE60CEA135594EA71
:100A40000C0F08BF95EA0C0F3FF43BAF94EA0C0F74
:100A50000AD150EA01347FF434AF95EA0C0F7FF4E9
:100A600025AF104619462CE795EA0C0F06D152EA3D
:100A700003353FF4FDAE1046194622E750EA410621
:100A800018BF52EA43067FF4C5AE50EA41047FF432
:100A90000DAF52EA43057FF4EBAE12E74FF0FF3C97
:100AA00006E000BF4FF0010C02E000BF4FF0010C68
:100AB0004DF804CD4FEA410C7FEA6C5C4FEA430CE1
:100AC00018BF7FEA6C5C1BD001B050EA410C0CBF30
:100AD00052EA430C91EA030F02BF90EA020F002092
:100AE000704710F1000F91EA030F58BF994208BFF9
:100AF00090422CBFD8176FEAE37040F001007047B6
:100B00004FEA410C7FEA6C5C02D150EA013C07D10C
:100B10004FEA430C7FEA6C5CD6D152EA033CD3D057
:100B20005DF8040B704700BF8446104662468C4651
:100B30001946634600E000BF01B5FFF7B7FF002884
:100B400048BF10F1000F01BD4DF808EDFFF7F4FFAD
:100B50000CBF012000205DF808FB00BF4DF808ED38
:100B6000FFF7EAFF34BF012000205DF808FB00BF5B
:100B70004DF808EDFFF7E0FF94BF012000205DF87D
:100B800008FB00BF4DF808EDFFF7CEFF94BF012032
:100B900000205DF808FB00BF4DF808EDFFF7C4FF2B
:100BA00034BF012000205DF808FB00BF4FEA410C74
:100BB0007FEA6C5C02D150EA013C0AD14FEA430C57
:100BC0007FEA6C5C02D152EA033C02D14FF0000094
:100BD00070474FF0010070474FEA410212F50012D2
:100BE00015D211D56FF47873B3EB625212D94FEA74
:100BF000C12343F0004343EA505311F0004F23FA5E
:100C000002F018BF404270474FF00000704750EAB2
:100C1000013005D111F0004008BF6FF0004070476F
:100C20004FF00000704700BF4A0011D212F50012C9
:100C300011D20DD56FF47873B3EB62520ED44FEA34
:100C4000C12343F0004343EA505323FA02F07047B4
:100C50004FF00000704750EA013002D14FF0FF30F2
:100C600070474FF0000070474FEA4102B2F1E04395
:100C700024BFB3F5001CDCF1FE5C0DD901F0004C83
:100C80004FEAC0024CEA5070B2F1004F40EB8300D3
:100C900008BF20F00100704711F0804F21D113F1FF
:100CA0003872BCBF01F00040704741F480114FEA38
:100CB0005252C2F11802C2F1200C10FA0CF320FAC1
:100CC00002F018BF40F001004FEAC1234FEAD323DE
:100CD00003FA0CFC40EA0C0023FA02F34FEA430348
:100CE000CCE77FEA625307D150EA01331EBF4FF0D1
:100CF000FE4040F44000704701F0004040F0FE40EC
:100D000040F40000704700BF80F0004002E000BFE8
:100D100081F0004142001FBF5FEA410392EA030FE6
:100D20007FEA226C7FEA236C6AD04FEA1262D2EB30
:100D30001363C1BFD218414048404140B8BF5B4235
:100D4000192B88BF704710F0004F40F4000020F0CE
:100D50007F4018BF404211F0004F41F4000121F0E4
:100D60007F4118BF494292EA030F3FD0A2F101022E
:100D700041FA03FC10EB0C00C3F1200301FA03F16C
:100D800000F0004302D5494260EB4000B0F5000F8F
:100D900013D3B0F1807F06D340084FEA310102F14E
:100DA0000102FE2A51D2B1F1004F40EBC25008BF00
:100DB00020F0010040EA03007047490040EB0000CA
:100DC000013A28BFB0F5000FEDD2B0FA80FCACF1CB
:100DD000080CB2EB0C0200FA0CF0AABF00EBC250F8
:100DE00052421843BCBFD0401843704792F0000FE6
:100DF00081F4000106BF80F400000132013BB5E739
:100E00004FEA41037FEA226C18BF7FEA236C21D0AE
:100E100092EA030F04D092F0000F08BF0846704713
:100E200090EA010F1CBF0020704712F07F4F04D1E1
:100E3000400028BF40F00040704712F100723CBFF4
:100E400000F50000704700F0004343F0FE4040F41E
:100E5000000070477FEA226216BF08467FEA2363DC
:100E60000146420206BF5FEA412390EA010F40F4C7
:100E7000800070474FF0000304E000BF10F0004313
:100E800048BF40425FEA000C08BF704743F09643FA
:100E900001464FF000001CE050EA010208BF704715
:100EA0004FF000030AE000BF50EA010208BF70479C
:100EB00011F0004302D5404261EB41015FEA010CB1
:100EC00002BF84460146002043F0B64308BFA3F1A9
:100ED0008053A3F50003BCFA8CF2083AA3EBC2538B
:100EE00010DB01FA02FC634400FA02FCC2F12002AA
:100EF000BCF1004F20FA02F243EB020008BF20F0E1
:100F00000100704702F1200201FA02FCC2F1200246
:100F100050EA4C0021FA02F243EB020008BF20EA3B
:100F2000DC7070477BB972B90029BEBF00204FF05A
:100F3000004106E008BF00281CBF6FF000414FF0E1
:100F4000FF3000F0EBB9ADF1080C6DE904CE0029DB
:100F500009DB002B1ADB00F083F8DDF804E0DDE9A3
:100F6000022304B07047404261EB4101002B1BDBC0
:100F700000F076F8DDF804E0DDE9022304B0404239
:100F800061EB4101524263EB43037047524263EB12
:100F9000430300F065F8DDF804E0DDE9022304B066
:100FA000404261EB41017047524263EB430300F062
:100FB00057F8DDF804E0DDE9022304B0524263EBA8
:100FC0004303704753B94AB9002908BF00281CBF22
:100FD0004FF0FF314FF0FF3000F0A0B9ADF1080C39
:100FE0006DE904CE00F03CF8DDF804E0DDE9022311
:100FF00004B0704738B50022002304460D46FFF7C1
:10100000ADFD28B920462946BDE8384000F00AB8B1
:10101000204605F1004100F005F8404261EB410136
:1010200038BD00BFD0B50C4B002206460F46FFF777
:1010300023FBFFF7F9FD0446FFF7A4FA074B002254
:10104000FFF71AFB02460B4630463946FFF75CF9BC
:10105000FFF7EAFD2146D0BD0000F03D0000F04161
:101060002DE9F047089D0C46002B4ED194468C4547
:101070008646B2FA82F262D94AB1C2F120039140A7
:1010800020FA03F30CFA02FC194300FA02FE4FEABD
:101090001C471FFA8CF6B1FBF7F44FEA1E4307FB1F
:1010A000141143EA014304FB06F199420AD91CEBEF
:1010B000030304F1FF3080F01281994240F20F8166
:1010C000023C6344591A1FFA8EF3B1FBF7F007FB99
:1010D000101143EA014300FB06F69E420AD91CEBBD
:1010E000030300F1FF3180F0FC809E4240F2F98062
:1010F000634402389B1B40EA044000211DB1D340E9
:101100000022C5E90032BDE8F0878B4205D90DB158
:10111000C5E9000100210846F5E7B3FA83F100298B
:1011200046D1A34202D39042C0F0F080861A64EB0D
:1011300003030120002DE6D0C5E90063E3E7002AA0
:1011400040F09080A1EB0C044FEA1C481FFA8CF78A
:101150000121B4FBF8F64FEA1E4308FB164443EAAC
:10116000044307FB06F0984208D91CEB030306F181
:10117000FF3402D2984200F2CD8026461C1A1FFA94
:101180008EF3B4FBF8F008FB104443EA044300FB81
:1011900007F79F4208D91CEB030300F1FF3402D28A
:1011A0009F4200F2B0802046DB1B40EA0640A5E7E4
:1011B000C1F120068B4022FA06F71F4320FA06FCF5
:1011C00004FA01F343EA0C03F44000FA01F8380C86
:1011D0004FEA1349B4FBF0FE1FFA87FC00FB1E44E4
:1011E00049EA04440EFB0CF9A14502FA01F20AD9BE
:1011F0003C190EF1FF3A80F08480A14540F28180D5
:10120000AEF1020E3C44A4EB09041FFA83F9B4FBCF
:10121000F0F300FB134449EA044403FB0CFCA4452F
:1012200007D93C1903F1FF3067D2A44565D9023BC9
:101230003C4443EA0E40A0FB0293A4EB0C049C4206
:10124000CE469C4651D34ED055B1B8EB0E0364EB5D
:101250000C0404FA06F6CB401E43CC40C5E90064FA
:10126000002150E7C2F1200320FA03F10CFA02FC3E
:1012700024FA03F394400C434FEA1C4800FA02FEA0
:101280001FFA8CF7B3FBF8F008FB1031230C43EA8C
:10129000014300FB07F1994208D91CEB030300F15D
:1012A000FF362CD299422AD9023863445B1AA4B281
:1012B000B3FBF8F108FB113344EA034401FB07F3E5
:1012C000A34208D91CEB040401F1FF3613D2A34258
:1012D00011D902396444E41A41EA004139E704466D
:1012E000F0E6084606E7C845AED2B9EB020E63EB5E
:1012F000070C0138A8E73146EDE7034699E7304689
:10130000D4E7D6467FE7634402384DE706462346D6
:1013100008460FE7023E634430E700BF704700BF56
:101320000E484FF0FF3380F8F13080F8F23001467C
:101330004FF6FF7300F1F10C11F8012B82EA132232
:1013400082EA121242EA032383EA023383EA421357
:101350006145A0F8F1309BB2EED17047BC19002076
:101360002DE9F04186B0002306460C4690460193D5
:1013700009F0E8F9204B9A6942F040429A614CF238
:10138000FA321A6101230022CDE9022301A90123C7
:1013900002A8CDE9046309F0BFFA28BBC4EBC62656
:1013A00006F1006605464FEAD808083E02E0A84567
:1013B00014D01D46F4E80223A7190020394609F08D
:1013C0000BFA6B1C0028F2D009F0D0F939460B4813
:1013D0000FF008F9012006B0BDE8F08109F0C6F968
:1013E000002006B0BDE8F08109F0C0F9314604489C
:1013F0000FF0F8F8F4E700BF002002407C3B010842
:10140000683B010870B5124EB6F8F140FFF788FF4F
:10141000B6F8F130A34201D1002070BD0425F322BB
:1014200031467E20FFF79CFF044608B1013DF6D10E
:10143000074E0425F32231467F20FFF791FF18B1B4
:10144000013DF7D12043C4B2601CC0B270BD00BFE3
:10145000BC19002010B5144CEC22002120460FF0DE
:1014600089FAE31F114A44F8062C022104F8071CEC
:101470000C226FF01B01002059719A71F521E722AF
:10148000A0701A764124712283F82510142123209C
:10149000DC7383F832200F24012283F83B101C7286
:1014A000987283F83C2010BDC319002017D94E3D17
:1014B000F8B5394DC5F100646E1C05F1F30E2B46ED
:1014C00004F57C341A5D03F8012F9E45FAD13349A7
:1014D0004FF6FF7201F1F10C11F8013B83EA122380
:1014E00083EA131343EA022282EA033282EA4312B6
:1014F000614592B2F0D12A48B6F8F170264B801BB4
:10150000C15C03F8011F9E45FAD124484FF6FF73D2
:1015100010F8011B81EA132181EA111141EA03232A
:1015200083EA013383EA411360459BB2F0D1B6F8F8
:10153000F110994210F8F13C14D0022B14D19742CB
:1015400012D12B5D05F8013FAE45FAD1134D0424AD
:10155000F32229467F20FFF703FFD0B1013CF7D1EA
:101560000320F8BD022B07D0FFF774FFFFF74AFFF7
:101570000128F5D80220F8BD97420AD0074D04246F
:10158000F32229467E20FFF7EBFE10B1013CF7D194
:10159000E6E70020F8BD00BFBB190020BC19002001
:1015A00001F8030870B5B24EB24CB34D30460FF09F
:1015B00081F82178B1480FF015F8D4F80100FFF751
:1015C00003F80B460246AE480FF00CF8B4F80510CD
:1015D000AC480FF007F82189AB480FF003F894F8F6
:1015E0003B10AA480EF0FEFF94F83C10A84801F00A
:1015F00003010EF0F7FF04F14D01A6480EF0F2FFD3
:10160000B4F87D10A4480EF0EDFF04F17F01A3486B
:101610000EF0E8FFB4F8AF10A1480EF0E3FF04F1BC
:10162000B101A0480EF0DEFF04F1C1019E480EF0AA
:10163000D9FF2A78A17A9D48C2F3400201F0010146
:101640000EF0D0FF2A78A17A9948C2F38302C1F341
:1016500043010EF0C7FF6A78A17A9648964D02F0D2
:101660000102C1F340110EF0BDFFD4F80B00FEF7EC
:10167000ABFF0B46024691480EF0B4FFE17B2A789F
:101680008F4801F00101C2F340020EF0ABFF2A784F
:10169000E17B8C48C2F38302C1F343010EF0A2FF49
:1016A0006A78E17B884802F00102C1F340110EF034
:1016B00099FFAA7AE17B8548854D02F00102C1F3CA
:1016C00080110EF08FFF2069FEF77EFF02460B4669
:1016D00080480EF087FF6069FEF776FF0B460246F2
:1016E0007D480EF07FFF217E2A787C4801F00101C1
:1016F000C2F340020EF076FF2A78217E7848C2F3CA
:101700008302C1F343010EF06DFF6A78217E7548B4
:1017100002F00102C1F340110EF064FFEA7C217E69
:10172000714802F00102C9090EF05CFFAA7A217E1D
:101730006E486F4D02F00102C1F380110EF052FFAE
:10174000D4F81900FEF740FF02460B4669480EF038
:1017500049FFD4F82100FEF737FF02460B466648E2
:101760000EF040FFD4F81D00FEF72EFF0B46024698
:1017700062480EF037FF94F825102A78604801F08F
:101780000101C2F340020EF02DFF6A7894F8251093
:101790005C4802F00102C1F340110EF023FFEA7C25
:1017A00094F82510584802F00102C9090EF01AFFFA
:1017B000AA7A94F825105548554D02F00102C1F35C
:1017C00080110EF00FFFD4F82600FEF7FDFE024652
:1017D0000B4650480EF006FFD4F82E00FEF7F4FE3C
:1017E00002460B464C480EF0FDFED4F82A00FEF7E8
:1017F000EBFE0B46024649480EF0F4FE94F8321018
:101800002A78474801F00101C2F340020EF0EAFED7
:101810006A7894F83210434802F00102C1F3401193
:101820000EF0E0FEAA7A94F832103F4802F001026E
:10183000C1F380110EF0D6FED4F83300FEF7C4FEDB
:1018400002460B4639480EF0CDFED4F83700FEF7BD
:10185000BBFE02460B4636480EF0C4FEB4F8F1104B
:1018600034480EF0BFFE3046BDE870400EF022BF97
:10187000983B0108BC1900205C1B0020BC3B010800
:10188000D43B0108EC3B0108043C01081C3C010866
:10189000303C0108443C0108583C01086C3C0108FC
:1018A0007C3C0108903C0108A43C0108B83C0108BC
:1018B000D43C0108EC3C0108441B0020083D010811
:1018C000243D0108403D0108583D0108743D0108D0
:1018D000201B00208C3D0108A83D0108C03D0108E7
:1018E000DC3D0108F43D0108103E01082C3E0108D2
:1018F000FC1A0020483E0108643E0108803E0108B1
:101900009C3E0108B83E0108D43E0108F03E0108A3
:10191000E41A00200C3F0108283F0108443F010859
:10192000603F01087C3F0108983F0108B43F01086F
:10193000D03F0108EC3F0108F0B593B00B46009290
:1019400007460E4615461149024602A80EF0EEFE65
:101950000F4B009302A80F4B02224FF47A7100F054
:10196000A1FC012802D0002013B0F0BD0446394686
:1019700009480FF029F9314608480FF025F92946A2
:1019800007480FF021F9204613B0F0BD18400108B8
:101990000C40010808480108170A0020280A002006
:1019A000390A002000B583B0084A0092084B094864
:1019B000022242F2107100F075FCA0F10100B0FAB1
:1019C00080F0400903B05DF804FB00BF0C40010843
:1019D000344001084040010810B582B00F4A00921F
:1019E0000F4B0446022248B10E484FF47A7100F0C2
:1019F00059FC012809D0002002B010BD0A484FF45C
:101A00007A7100F04FFC0128F5D1084B93F8E627D6
:101A100064F3000283F8E62702B010BD0C40010811
:101A2000084801086C4001087C4001083002002091
:101A30002DE9F04182B01E4F009704460D461D4827
:101A40001646984602221C4B42F2107100F02AFC06
:101A5000012804D00024204602B0BDE8F0814046B1
:101A6000FFF7BAFF204632462946FFF765FF0446D6
:101A70000028EFD0114B124912480097022200F0C3
:101A800011FC01280546E5D10C4B009702224FF4CA
:101A90007A710D4800F006FC084B0C482A464FF4BA
:101AA000FA7100F0FFFB204602B0BDE8F08100BFF4
:101AB0000C40010840400108344001080848010872
:101AC000084C010000400108504001088C4001080A
:101AD00010B592B00C460346144A00944021144CB1
:101AE00002A80EF0EFFD134B0094022242F2107197
:101AF00002A800F0D7FB012814D00E4B0E4800942A
:101B000002224FF47A7100F0CDFB0C4A92F82B3888
:101B1000022B07D013B9002012B010BD012382F8A8
:101B20002B38F8E7012012B010BD00BF9C4001081F
:101B30000C400108084801085C4001083002002000
:101B400008B50948094B012241F2883100F0AAFB8F
:101B5000012801D0002008BD054B93F82B280AB1BD
:101B600083F82B08012008BDBC4001080848010883
:101B70003002002070B5154D154E164B84B0012271
:101B80000096044685F82C281348022240F2DC51C6
:101B900000F088FB012805D0032385F82C380020AD
:101BA00004B070BD204600F041FB0C491A2203A886
:101BB0000EF0BCFD0A4B009602224FF4FA6103A816
:101BC00000F070FB0128E7D1EAE700BF30020020F7
:101BD0000C400108CC400108D4400108E440010851
:101BE000E8400108F0B5144F144A89B0012387F882
:101BF0002C380D460B460646142103A80EF062FD54
:101C00000F4B009303A80F4B022240F2DC5100F06F
:101C100049FB012805D00323002087F82C3809B0A0
:101C2000F0BD04462946304600F016FB1E200BF09E
:101C30000FFD204609B0F0BD30020020F44001083D
:101C40000C400108CC4001082DE9F04F264C274FED
:101C5000DFF8A480DFF8A4A00FCC8FB008AE0FC6C9
:101C600094E80300224C86E80300224E07AD0DF1F4
:101C7000340900210097334684F8311B02224FF4C7
:101C8000FA71404600F00EFB012829D14FF0650B98
:101C900006E00BF0DDFC0BF1FF3313F0FF0B08D077
:101CA00094F8313B0820002BF3D001200FB0BDE8A1
:101CB000F08F94F8313B002BF7D14D4510D055F8FB
:101CC000043F5246142103A80EF0FCFC0097334653
:101CD00003A802224FF4FA7100F0E4FA0228C8D1F6
:101CE00000200FB0BDE8F08FE03A01080C40010879
:101CF00030020020084801089C410108AC4101085D
:101D000070B5664C94F830335A0782B030D578B944
:101D100094F8312B002A40F0958094F82B2852B388
:101D2000002384F84C3BA4F8313B012002B070BD85
:101D30006FF345135A4E84F8303364200BF088FC5F
:101D4000584B5948009602224FF47A7100F0AAFAD3
:101D50000128054614D055480EF0ACFC94F8313BF0
:101D6000002B40F091805248202200210EF002FE0C
:101D7000002002B070BD43F0200384F83033CFE779
:101D80002022002104F533600EF0F4FD4FF42F7093
:101D90000BF05EFC434B4748009602224FF49671CD
:101DA00000F080FA0228D6D04FF42F700BF050FCD0
:101DB000FFF74AFF0028CED064200BF049FC394BD6
:101DC0003D482A464FF4FA7100F06CFA012809D018
:101DD00064200BF03DFC334B37482A464FF4FA7130
:101DE00000F060FA14200BF033FC2E4B0096022218
:101DF0004FF49671314800F055FA14200BF028FC8E
:101E0000284B009602224FF496712D4800F04AFAB2
:101E100014200BF01DFC234B009602224FF4967108
:101E2000284800F03FFA14200BF012FC1D4B0096DE
:101E300002224FF49671244800F034FA32200BF05D
:101E400007FC72E71648174B009002224FF47A7194
:101E50001E4800F027FA054632200BF0F9FB94F8F3
:101E60002B382BB994F8303343F0200384F8303307
:101E7000012D3FF455AF16480EF01CFC002384F8EA
:101E80004C3BA4F8313B73E7064B009602224FF41B
:101E90007A710E4800F006FA65E700BF30020020B4
:101EA0000C40010808480108BC410108F041010844
:101EB000600D00208C410108CC410108044101085B
:101EC0002C4101084C4101086C4101080C420108F9
:101ED0001C42010800B583B0094A0A4B009244F63F
:101EE00020610222084800F0DDF9012805BF074BF8
:101EF0000022002083F85A2603B05DF804FB00BFDF
:101F0000884201086C4201087C420108300200202E
:101F100000B583B00B4A00920B4B0C4802224FF4E1
:101F20007A7100F0BFF9012805D0022803D0002003
:101F300003B05DF804FB064B83F8D90703B05DF8E6
:101F400004FB00BFBC4201089C420108B0420108EA
:101F50003002002010B5012882B015D002280446B6
:101F600002D0002002B010BD0E4A00920E4B024675
:101F70004FF47A710D4800F095F90128F1D10C4B1E
:101F8000012083F8D947EDE70A4A00920A4B0B4833
:101F900002224FF47A7100F085F901280446E0D15D
:101FA000EDE700BF2443010804430108184301087A
:101FB00030020020F0420108D0420108E44201084A
:101FC00000B583B00B4A00920B4B0C4802224FF431
:101FD0007A7100F067F9012805D0A0F10200B0FA8B
:101FE00080F040094000064B83F8D80703B05DF845
:101FF00004FB00BF5C43010838430108504301085B
:1020000030020020012810B5044603D0022810D069
:10201000002010BD02460C4B0C484FF47A7100F0C2
:1020200041F901280446F3D1094B83F8D847012030
:1020300010BD054B074801224FF47A7100F032F9C8
:102040000128E5D1F0E700BF74430108804301088F
:10205000300200209C43010810B50C4A0C4B0D4C7B
:102060000D480E4986B0CDE904320D4A0D4BCDE93D
:102070000021CDE9020407224FF47A710A4800F0EA
:1020800011F90A4B83F8D70706B010BDD8430108F1
:10209000EC430108004401081444010828440108E5
:1020A0003C440108B8430108CC4301083002002039
:1020B00030B51B4D87B004464FF48072002128468E
:1020C0000EF058FC22461749002402A805F80A4CD5
:1020D00005F8014C45F8124C45F80E4C45F8234CD8
:1020E00045F81F4C45F81B4C45F8174C05F8134CA8
:1020F00045F8094C45F8054C0EF018FB0A4A0092C9
:102100000A4B02A8022241F2883100F0CBF80128E4
:102110000ABF15F88B0C2046C0F3400007B030BD55
:1021200007090020504401080C4001080848010834
:1021300030B593B0044602460E4902A80EF0F6FAF6
:102140000CAD22460C4906A80EF0F0FA22460B49C7
:1021500028460EF0EBFA009506AB022246F2A811D3
:1021600002A800F09FF8A0F10100B0FA80F0400949
:1021700013B030BD60440108704401088444010874
:1021800008B50948094B012241F2883100F08AF86C
:10219000012806D1064B93F89206003818BF01209B
:1021A00008BD002008BD00BFA84401089C440108E8
:1021B0003002002008B50122054B06484FF4FA71A1
:1021C00000F070F8A0F10100B0FA80F0400908BDFD
:1021D00008480108B4440108F0B595B0CDE90123E1
:1021E00004460D4616461F46009103460D4A20211F
:1021F00004A80EF067FA2346CDE901670A4A009564
:1022000020210CA80EF05EFA0CAB01224FF4FA71FB
:1022100004A800F047F8A0F10100B0FA80F04009EE
:1022200015B0F0BDC0440108D8440108037803B9D3
:10223000704710B50446FEF75BF802462146054894
:10224000642392B20BF078F8BDE810400A200BF03E
:10225000FFB900BF5016002008B584460A464FF467
:10226000C873044861460BF067F8BDE808400A20CF
:102270000BF0EEB95016002010B5044607F0FAFA3C
:10228000074B1A880021C3E9C201981840F2FE21C9
:102290008A4298BF0132C47098BF1A8010BD00BF37
:1022A000300200200CB42DE9F04F4E4E83B096F86A
:1022B000303300AF9A0797F8304082460D4606D576
:1022C00064200BF0C5F996F830339B07F8D407F07B
:1022D000D1FA05F132031844C6F8400620214FF028
:1022E000904008F09DFC00286DD196F830334FF0F7
:1022F000000843F0020386F8303386F8488607F07A
:10230000B9FA4FEA8409C6F83C064FF42072364801
:10231000C6F8445641460EF02DFB09F1070303F4BD
:10232000FF6307F13402ADEB030D7A60EB468CB12D
:10233000DFF8B4801446ABF1040B914421684BF8EC
:10234000041F0434404640227C6090440EF039FB68
:102350004C45F3D12548782251460EF032FB96F8D1
:102360003C33A3B12148FDF7C3FF02461F49204873
:10237000642392B20AF0E0FF0A200BF069F906E04C
:102380000A200BF065F996F848060A3DA8B9002D19
:10239000F6DC4FF42072002113480EF0EBFA96F8A9
:1023A00030336FF3410386F8303307F063FA00F1FE
:1023B000320396F84806C6F840360C37BD46BDE8ED
:1023C000F04F02B07047002220214FF0904008F0FB
:1023D0002DFC64200BF03CF907F04CFA6430C6F891
:1023E000400682E730020020EC0500206C0500204A
:1023F000501600202DE9F84F6448654CDFF8A8B16D
:102400000EF058F94FF000080127C14604F2E575B7
:1024100094F83033590709D4B4F82E3833B964200E
:102420000BF016F994F830335907F5D507F022FA76
:1024300041F28833A0EB080098427CD8B4F82E68AB
:10244000002E65D1534E4FF0000A01E0AE420DD090
:1024500016F8010F0028F9D0FFF72AFE00283FD117
:10246000FFF7AEFDAE4286F800A0F1D194F8DB375D
:10247000002B64D194F84C36DA073BD407F0FAF914
:1024800094F830134AF6C87211F0010F42F210733B
:10249000A0EB090018BF1346984216D994F82B38C0
:1024A000032B12D00122C8215B463B48FFF7FAFEFE
:1024B0003A4B3B480122C821FFF7F4FEFFF780FDAD
:1024C00006F00EF907F0D6F9814620214FF0904032
:1024D00008F0A6FB00283CD005200BF0B9F897E7E0
:1024E00064200BF0B5F83078FFF722FE64200BF083
:1024F000AFF8B5E708226FF300034FF4FA7084F8E1
:102500005A2684F84C360BF0A3F8FFF7E3FCB5E746
:1025100030460CF07DF93246824622490EF05CFBD3
:10252000002350463146A4F82E3805F02DFE5046C3
:102530000CF076F986E707F09DF980467EE738468D
:10254000FFF7B6FDB0B90137FFB2962F08BF0027DD
:1025500090E707F08FF9D4F840369842BCD994F848
:1025600030339B06B8D5012220214FF0904008F06F
:102570005DFBB1E764200BF06BF83846FFF7D8FD40
:1025800064200BF065F8FFF71BFDDCE7F44401085D
:10259000300200200B0A00200C45010818450108F4
:1025A00024450108600A00200445010830B5504B5D
:1025B000504883B00122C821FFF774FE4E4B4F48AC
:1025C0000122C821FFF76EFE4D4B4E480122C82163
:1025D000FFF768FE4C4B4D480122C821FFF762FE11
:1025E0004B4A00924B4B4C480222C821FFF75AFE3F
:1025F00001284ED0494B4A484A4C0122C821FFF7D6
:1026000051FE494B49480122C821FFF74BFE464B7A
:10261000474801224FF47A71FFF744FE0220FFF78A
:10262000F1FC0220FFF796FC00231A46A721112097
:10263000FFF7D2FDFFF710FDFFF76AFC94F8D937DA
:10264000022B22D1FFF79CFDFFF7B4FD94F8301365
:102650003848009041F0200184F83013324B36485E
:1026600002224FF4FA71FFF71DFE344B3448012269
:10267000C821FFF717FE2C4B324801224FF4FA71A4
:10268000FFF710FE012003B030BD0220FFF762FC0F
:10269000D8E7044602462C4B224D2C48C821FFF7B0
:1026A00001FE2B4B2B4822464FF47A71FFF7FAFDBF
:1026B00095F830C3284B29486FF3451C2246C821A2
:1026C00085F830C3FFF7EEFD012802D0002003B0EB
:1026D00030BD95F83043144B6FF3820402464FF43B
:1026E000FA611F4885F83043FFF7DCFDEEE700BFD5
:1026F000304501083C45010844450108584501089A
:102700006445010878450108844501089845010899
:10271000C4450108A8450108B84501082C46010830
:102720004046010830020020084801084C460108D4
:10273000BC4101080C4001085C460108184501082D
:10274000244501080C420108D4450108E845010868
:10275000F44501080046010808460108144601082E
:102760001C460108F8B5374D95F830336FF3451323
:1027700085F8303300283ED0D8B220F0060040F073
:10278000040085F83003304B30480122C821FFF7A0
:1027900089FD012847D0012211462D482A4F2B4E92
:1027A00008F044FA4FF496600AF052FF28480022DD
:1027B000012108F03BFA40F6C4100AF049FF95F8F1
:1027C000303343F0040385F830330A243B460122BA
:1027D000C8213046FFF766FD012804F1FF332ED0F3
:1027E00013F0FF04F2D195F8303364F3820385F8D7
:1027F00030330120F8BD144B044601221348C82190
:10280000FFF750FD0128F4D195F83013114B64F314
:102810008201024685F830130F484FF4FA61FFF742
:1028200041FD0120E6E764200AF012FFFFF7BEFE3B
:1028300095F8303343F0040385F83033F8BDC820F1
:10284000F2E700BF300200200846010814460108E4
:1028500000040048084801081C4601080C4B93F886
:10286000300310F0040000D1704700B583B0094A6E
:102870000092094B094802224FF47A71FFF712FDCA
:10288000A0F10100B0FA80F0400903B05DF804FB4C
:102890003002002078460108084801086C4601080B
:1028A00000B51B4A92F95616B2F84E360029ACBF55
:1028B0002B202D20002993B0B8BF4942C9B2069100
:1028C00092F85516CDE9041092F8540692F8531672
:1028D000CDE9021092F8520692F850160D4ACDE951
:1028E0000010A3F5FA63282108A80DF0EBFE0A4AB0
:1028F00000920A4B02224FF4FA6108A8FFF7D2FCBB
:10290000A0F10100B0FA80F0400913B05DF804FBBB
:1029100030020020884601080C40010808480108E0
:10292000F0B5234C8DB04FF43562064600212046A9
:102930000EF020F800251F4B009329461E4B0193F3
:102940004FF400776846CDE90357ADF808600AF008
:1029500063FE1A4B18600A200AF07AFE184B0693A1
:102960002946184B079306A80995ADF820600A97E9
:102970000AF052FE144B024601250A201A600AF0A2
:1029800067FE4FF4FD632846A4F84E3684F850568F
:1029900084F85256FFF7E6FE18B1FFF703F80DB0C2
:1029A000F0BD2846FFF7DEFEFEF7FCFF0DB0F0BDE0
:1029B00030020020B8460108F52300082C02002050
:1029C000C44601089132000828020020F0B52DED20
:1029D000028BC04EC04989B030460EF005F8002881
:1029E00000F0E3822C210DF0CDFF01300BF00BFF46
:1029F00096F82D330128A6F103040CBF43F0010320
:102A00006FF3000384F83033B449B2480DF0ECFFA3
:102A100028B194F8303343F0100384F83033B049D0
:102A2000AC480DF0E1FF28B194F8303343F00803CF
:102A300084F83033AB49A7480DF0D6FF10B1072317
:102A400084F85A36A849A3480DF0CEFF90B1222150
:102A50000DF098FF451C222128460DF093FF2946D2
:102A6000421BA2480DF0ADFF94F84C3643F0010331
:102A700084F84C369E4997480DF0B6FF38B13A219C
:102A80000DF080FF01300BF0BEFE84F83803994949
:102A900090480DF0A9FF10B33A210DF073FF451CCB
:102AA00028460BF0B0FE2C2128460DF06BFF451C8C
:102AB00028460BF0A8FE2C210346284684F8313323
:102AC0000DF060FF01300BF09BFE8B4B51EC100BB7
:102AD0000022FDF7FBFEFEF7C7F8C4F83403874970
:102AE0007C480DF081FF10B1052384F85A368449E3
:102AF00078480DF079FF10B1022384F85A368149E5
:102B000074480DF071FF10B1032384F85A367E49E2
:102B100070480DF069FF10B1042384F85A367B49E0
:102B20006C480DF061FF20B194F830335B0700F181
:102B30002782774967480DF057FF28B194F84C3643
:102B400043F0040384F84C36724962480DF04CFFA0
:102B5000B8B13A210DF016FF8378222B00F102055F
:102B600000F0088228460BF04EFE2C210346284632
:102B700084F8DB370DF006FF01300BF044FE84F8DB
:102B8000DA07654953480DF02FFF054638B194F830
:102B9000D937022B00F04783012B00F022835F49D5
:102BA0004C480DF021FF60B12C210DF0EBFE851C8F
:102BB000222128460DF0E6FE2946421B58480DF01A
:102BC00000FF584943480DF00FFF002854D0222140
:102BD0000DF0D8FE02220546411C03A80DF0F1FEBF
:102BE000002703A88DF80E700BF00DFE00F5FA60BB
:102BF0000222291DA4F84E0603A80DF0E2FE03A848
:102C00000BF001FE0222E91D84F8500603A80DF026
:102C1000D8FE03A80BF0F7FD022205F10A0184F8A3
:102C2000520603A80DF0CDFE03A80BF0ECFD022226
:102C300005F10D0184F8530603A80DF0C2FE03A8A8
:102C40000BF0E1FD022205F1100184F8540603A8FF
:102C50000DF0B7FE03A80BF0D6FD05F1120184F8C4
:102C60005506032203A80DF0ACFE03A80BF0CBFD24
:102C7000A4F8587684F856062B4916480DF0B4FE91
:102C800048B12A4B002513F8012F002A00F09D823D
:102C900001350A2DF7D126490E480DF0A5FEA0B149
:102CA000244D00232221C6F88F366B60AB60EB60A9
:102CB0002B740DF067FE461C222130460DF062FE9B
:102CC0003146821B28460DF07CFE1B4901480DF061
:102CD0008BFE33E03302002018450108D44601087A
:102CE000E4460108F4460108004701088B0800206B
:102CF000044501080C47010800408F4014470108B3
:102D000020470108304701084047010850470108A3
:102D1000644701087443010870470108BC47010873
:102D2000AD080020C8470108D44701080B0A00205D
:102D30009C440108C2080020E047010840B19C4AB9
:102D40000192531E00939B49931E033A0DF00EFD12
:102D500099499A480DF048FE48B1994A99490DF0B1
:102D600005FD9748FDF7C4FA052800F2FE80964954
:102D700092480DF039FE18B1944A95490DF0F6FCD1
:102D800094498E480DF030FE18B1934A93490DF0E6
:102D9000EDFC934989480DF027FE38B1914A009225
:102DA000A2F111039049223A0DF0E0FC8F498348CB
:102DB0000DF01AFE18B18E4A8E490DF0D7FC8E49DF
:102DC0007E480DF011FE70B13A210DF0DBFD0130AF
:102DD0000BF019FD94F8E637002840F0C18060F34D
:102DE000000384F8E637854974480DF0FDFD10B105
:102DF000032384F82B38824970480DF0F5FD10B19B
:102E0000012384F82B387F496C480DF0EDFD10B19B
:102E1000012384F82B387C4968480DF0E5FD10B19A
:102E2000042384F82B38794964480DF0DDFD10B196
:102E3000022384F82B38764960480DF0D5FD10B197
:102E4000022384F82B3873495C480DF0CDFD10B196
:102E5000002384F82B38704958480DF0C5FD10B197
:102E6000002384F82B386D4954480DF0BDFD10B196
:102E7000022384F82C386A4950480DF0B5FD10B192
:102E8000032384F82C3867494C480DF0ADFDE0B1C0
:102E90002C210DF077FD461C30460BF0B4FCB0F54C
:102EA000407F94BF87B24FF4407705464FF03A0118
:102EB000304688BF3D460DF065FD01462A465A481A
:102EC00001310DF089FEA4F82E7858493B480DF0E9
:102ED0008BFD002862D03A210DF054FD451C284698
:102EE0000BF091FCC0B284F8310B002840F0AA80AE
:102EF000012384F8303B4E4930480DF075FD10B188
:102F0000022384F8313B4B4E0025F71C96F8BC3366
:102F100006F56F71384640364BB10DF065FD013551
:102F2000EDB2002840F05B810A2DEFD10346002569
:102F30004FF440722946214884F8483625800DF028
:102F400019FD94F8303365F3410384F8303306F00B
:102F500091FC3230C4F8400609B0BDEC028BF0BDE4
:102F600043F0010384F8E6373DE72044002380F86E
:102F7000D236FCE628462C210DF004FD451CF1E577
:102F80004FF4356200212B480DF0F4FC4FF4FA6049
:102F90000AF05EFB0120FFF7E5FBCAE5264907487A
:102FA0000DF022FD002896D1A5E7F41E2CE500BF08
:102FB000C1080020EC470108104801083302002036
:102FC000070900201C48010830480108400500207E
:102FD00038480108484801085005002054480108B5
:102FE00068480108390A0020744801089848010817
:102FF0004A0A0020A4480108B8480108C44801084A
:10300000D4480108E4480108F048010804490108CF
:10301000184901083440010830490108E840010816
:103020004849010858490108600A00206049010820
:1030300078490108300200206C4901088096184B3D
:103040000000C8422C2128460DF09CFC2C210130A8
:103050000DF098FC471C05460422394603A80DF0E4
:10306000B0FC002603A88DF810600BF0CCFB691DA6
:103070000222A4F8340B03A80DF0A3FC03A8ADF8BA
:103080000E600BF0C0FBE91D022284F8360B03A88A
:103090000DF097FC03A80BF0B6FB05F10901022225
:1030A00084F8380B03A80DF08CFC03A80BF0ABFBE5
:1030B00005F10B01022284F8390B03A80DF081FC05
:1030C00003A80BF0A0FB05F10D01022284F83A0BD6
:1030D00003A80DF076FC03A80BF095FB032205F185
:1030E000100184F83B0B03A80DF06BFC03A80BF058
:1030F0008AFB2C2103463846A4F83E3B84F83C6BFF
:103100000DF040FC451C28460BF07AFB51EC100BEF
:10311000FDF7AAFD1FED378A07EE900A67EE887A61
:103120002C21FDEEE77A284617EE903AC4F8403B92
:103130000DF028FC451C28460BF062FB51EC100BEF
:10314000FDF792FD07EE900A67EE887A2C21FDEEDE
:10315000E77A284617EE903AC4F8443B0DF012FC8B
:10316000451C28460BF04CFB51EC100BFDF77CFD89
:103170001FED4D7A07EE900A67EE877A0326FDEE83
:10318000E77A17EE903AC4F8483B28462C210DF018
:10319000F9FB731E13F0FF0600F10105F5D1284677
:1031A0000BF031FB072684F8320B28462C210DF05A
:1031B000E9FB731E13F0FF0600F10105F5D1284667
:1031C0000BF021FB84F84C0B92E62C210DF0DAFB7E
:1031D00001300BF018FB254485F8DC075BE52B4636
:1031E000A5E64FF48072274800210DF0C3FB264A64
:1031F0000023C4F8C536C4F8B4365360137242F8DD
:10320000053C02F8013C42F80D3CC4F8CE3642F8C9
:10321000093C5374C2F80D3094F84C3643F0020365
:1032200084F84C36BBE4174F4FF4807200213846C7
:103230000DF0A0FBA7F12302A7F112032846A7F186
:1032400009010025009101971049C6F8C25647F8B8
:10325000055C47F80E5CC6F8B1561D7207F8015CB4
:10326000D5601574C2E90155C6F8CB560DF07EFA4B
:10327000042894F84C36D1D065F3410384F84C36D9
:103280008DE400BF07090020F50800207C470108F5
:1032900008B50F480F4C0DF00DFA08E094F83033E4
:1032A00013F0040F0CBF322003200AF0D1F9238859
:1032B000042BF3D906F0DEFAD4E9C223801A63EBBB
:1032C0004303152873F10003E8D3FFF77FFBE5E71D
:1032D000804901083002002010B5074C7F212046AC
:1032E00006F03EFF0A2006F0CBFA20460349BDE86F
:1032F0001040052206F0A6BEC0180020800D002058
:10330000234A9FED247A1188538890880B44D188F2
:10331000128903440B4413449BB207EE903AF8EE33
:10332000E77A70B567EE877A1B4EFCEEE77AB6F85F
:10333000A83007EE103A17EE903A9BB207EE903A9B
:10334000B8EEC77AF8EE677A77EE677A17EE900AEA
:10335000FDF73AF90CA3D3E90023FDF78DF90446F4
:10336000B6F8CA000D46FDF71DF902460B46204689
:103370002946FDF7ABFA094B0022FCF7C7FFFDF722
:1033800073FC00EE100A70BD333333333333114016
:10339000800D0020CDCC4C3E0075FF1F0000394051
:1033A00010B54FEA400C86B008461FFA8CF19C46D7
:1033B000022341F28834019305AB02940093012368
:1033C000644608F091F828B9BDF814302380012034
:1033D00006B010BD002006B010BD00BF2DE9F043BF
:1033E000838CA3F17602012A87B004D900273846DE
:1033F00007B0BDE8F08341F2883202920D4600F139
:10340000320259000123CDE90023044689B2806AC3
:10341000D02208F069F80028E8D194F83230582B0F
:1034200001D0602BE2D1A18C012742F2107205AECF
:10343000B6230292B940019700968DF81430A06A25
:1034400089B23B46E02207F029FF0028CED141F2A5
:103450008838A18CA06A009649000123CDE9017843
:1034600089B2F32208F040F89DF8143003F001030C
:103470000343DBB2002BECD1A18CCDF808800227EE
:10348000490000960197A06A89B20123882208F0BA
:103490002BF80028AAD1CDE901780096A18CBDF8BF
:1034A000143023804900A06A89B201238A2208F0DF
:1034B0001BF800289AD1CDE901780096A18CBDF8BF
:1034C000143063804900A06A89B201238C2208F07D
:1034D0000BF800288AD1CDE901780096A18CBDF8BF
:1034E0001430A3804900A06A89B201238E2207F01C
:1034F000FBFF00287FF47AAFCDE901780096A18C1C
:10350000BDF81430E3804900A06A89B201239022FB
:1035100007F0EAFF00287FF469AFCDE90178009653
:10352000A18CBDF8143023814900A06A89B201231F
:10353000922207F0D9FF00287FF458AFCDE9017837
:103540000096A18CBDF81400608101239940A06A07
:10355000942289B207F0C8FF00287FF447AFBDF876
:103560001430A381A16AA08C04F10E039622FFF708
:1035700017FF00283FF43AAFA16AA08C04F11003B2
:103580009822FFF70DFF00283FF430AFA16AA08C0E
:1035900004F112039A22FFF703FF00283FF426AF3D
:1035A000A16AA08C04F114039C22FFF7F9FE002805
:1035B0003FF41CAFA16AA08C04F116039E22FFF712
:1035C000EFFE074600283FF411AF94F83220A38C99
:1035D000A06A602A3DD05B00009699B26B786A7948
:1035E0009B0043EA42138DF8143042F2107201231B
:1035F000CDE90132F52207F051FE00287FF4F6AE46
:1036000095F80080AB78EA78B8F1010F08BF287010
:103610004FEA830343EA421394F8322008BF8046FE
:1036200048EA0308602AA38CA06A5FFA88F87AD077
:103630005B0042F2107299B20123CDE9013200968B
:10364000F4228DF8148007F029FE00287FF4CEAE16
:10365000CDE65B004FF0010899B241F2883904F1E0
:1036600018030093CDE901894346A12207F03CFFEE
:1036700000287FF4BBAECDF808900096A18C022301
:10368000019301FA08F1A06A89B24346E12207F0EA
:103690002BFF00287FF4AAAECDE90189BDF81430D4
:1036A000A18C638304F11C03009301FA08F1A06A62
:1036B00089B24346E32207F017FF00287FF496AE55
:1036C000A16AA08C0DF11203E422FFF769FE002825
:1036D0003FF48CAEA16AA08C3346E522FFF760FE72
:1036E00000283FF483AECDE90189A18C04F12202C8
:1036F000434600929940A06A89B2E72207F0F4FE9F
:1037000000287FF473AEBDF81430BDF81220A06A13
:103710001B092384130103F47F63C2F303221343C1
:10372000E383A38C57E75B0099B22B798DF81430B3
:1037300042F210720123CDE901320096F22207F025
:10374000ADFD00287FF452AEA06AA38C70E700BFE5
:1037500030B541F2883287B00125818CCDE9015224
:103760000DF116030093A940044689B2806A2B46E6
:10377000F42207F0B9FE10B1002007B030BD9DF86B
:103780001620A18CA06A42F2107322F003022A4391
:10379000A94002930DF11703CDE900358DF81620ED
:1037A0008DF8172089B22B46F42207F077FD002808
:1037B000E2D1284607B030BD10B5818C806A86B052
:1037C00001230DF1170241F2883499400092CDE9AE
:1037D000013489B2F32207F087FE10B1002006B051
:1037E00010BD9DF81700C0F3C00006B010BD00BFAB
:1037F0002DE9F04F044690F832008FB060288846DB
:1038000005921E4600F053810BB10023336006235E
:10381000002601930CAB0093A18C41F28832012366
:1038200002929940A06A89B2F72207F05DFE002853
:1038300040F039819DF834309DF833209DF83510E3
:10384000B4F90AC09DF8307006971B0143EA0233B1
:10385000228843EA1111C2EB131303FB03F5B4F9F9
:1038600004302D1303FB05F55200B4F90230C2EB0E
:10387000D10203FB02F2AD1305EBE22505EB85094E
:1038800009F180094FEA2929E188B4F90820C8F82C
:1038900000909DF83180CDF81C809DF83280CDF8E5
:1038A0002080B4F91080CDF82480B4F90E80CDF8D2
:1038B0002880A5F5FA3EB4F90C80CDF82C808EFB5B
:1038C0000E894FEAEC7B0CFB09FA82FB0E2308FB06
:1038D0000BAAACFB08CBD3441B034FEA1C2C43EAD6
:1038E00012534CEA0B6C12031CEB020C43EB2B2320
:1038F00003F50043ACFB01C201FB0321CB174A10C7
:1039000053EA610100F08A800899079F090941EA9A
:103910000711069F41EA07310A9F87FB0EEC099FBA
:103920004FEA4C4C07FB09F94FEAE77A4CEADE3CD8
:1039300008FB0A9A4FEA4E4EA7FB08981EEB090EA9
:10394000C1F58011C2444AEB0C0A0B9F10EB0E002C
:1039500001F0004E4EEA510EC907B1EB00080AEB28
:10396000C70A6EEB0A0E18EB080C4EEB0E011CEBAF
:10397000080C4EEB010188014FEA8C1940EA9C606B
:103980001CEB090C41EB0001890041EA9C714FEAF4
:103990008C0C1CEB080C4EEB01014FEA8C008900EB
:1039A00010EB080041EA9C714EEB0101FDF7BAFAF9
:1039B000B4F9162084464FEA5C3E48134EEAC14EE5
:1039C000D31702FB00F80EFB0389A2FB0E2802FBB3
:1039D00000F0C8440EFB0800A2FB0E2E8644520ED7
:1039E000B4F9143042EACE1212EB0C0041EB6E62D5
:1039F00003FB01F14FEAE37E0EFB0C11A3FB0C3C31
:103A00006144DB0C43EA4133C01842EBE142B4F9B4
:103A10001230000A40EA026000EB0310059B1860B8
:103A2000002E3CD0BDF83630B4F91E2094F9221097
:103A30005BBA9BB21205C2EB8332B4F92030A5F514
:103A4000963505FB1322237F05FB03F3DB1205FBF1
:103A500001F1891203F5004301FB03F39B12B4F952
:103A60001A1003F5001301FB03F302F5804203F57E
:103A70000053D2139B1302FB03F3DA13217E02FBE4
:103A800002F2D21101FB02F2A3EB221323EAE37349
:103A9000B3F1C85FA8BF4FF0C8531B1333600120B8
:103AA0000FB0BDE8F08F00200FB0BDE8F08F002B05
:103AB0003FF4ADAE0823ACE670B50D4684B01646B3
:103AC00013B31C4602AA03AB01A9FFF791FE10B97C
:103AD000002004B070BDDDED017A9FED177AF8EE9D
:103AE000E77AC7EE876A9DED027ADDED037AC5EDD0
:103AF000006ABBEECC7AFBEECB7A86ED007AC4EDA1
:103B0000007A012004B070BD02AA01A9FFF770FE7F
:103B10000028DDD0DDED017ADFED076AF8EEE77A07
:103B200087EEA67ADDED027A85ED007AFBEECC7A9F
:103B3000C6ED007AE5E700BF0000C84270B5154841
:103B4000154E0CF04FFD052540F2DC530322D62123
:103B5000304607F0E7FD0446322009F079FD4FF4C6
:103B6000FA7044B109F074FD013DEDD10B480CF041
:103B7000A1FD284670BD0A480CF09CFDD62380228A
:103B80002E21054805F064F9012009F061FD0120AE
:103B900070BD00BF9449010800180020AC4901081D
:103BA000CC5F010800B583B0D6230DF106023B219E
:103BB000044805F037F9BDF8060005F0C7F903B071
:103BC0005DF804FB0018002000B583B0D6230DF18A
:103BD00006023D21044805F025F9BDF8060005F070
:103BE000B5F903B05DF804FB0018002000B583B000
:103BF000D6230DF106023721044805F013F9BDF86C
:103C0000060005F0A3F903B05DF804FB00180020DE
:103C100000B583B0D6230DF106023921044805F022
:103C200001F9BDF8060005F091F903B05DF804FB59
:103C30000018002000B583B0D6230DF10602312113
:103C4000044805F0EFF8BDF8060005F07FF903B071
:103C50005DF804FB0018002000B583B0D6230DF1F9
:103C600006023321044805F0DDF8BDF8060005F032
:103C70006DF903B05DF804FB0018002000B587B0B3
:103C800001230DF117024FF4FA71CDE901310092D1
:103C9000D6210022084807F027FC9DF8173003F0D2
:103CA0003F03C3EB431203EB8200400000F6C41055
:103CB00080B207B05DF804FB0018002000B583B0A7
:103CC000D6230DF106020121064805F0ABF8BDF838
:103CD000060005F03BF900EB8000400080B203B025
:103CE0005DF804FB0018002000B583B0D6230DF169
:103CF00006020321064805F095F8BDF8060005F018
:103D000025F900EB8000400080B203B05DF804FBB1
:103D1000001800200246D623024802F03F0200218C
:103D200005F096B800180020074B10B5A3FB003033
:103D3000C00805F00BF9BDE810400246D623034841
:103D4000012105F099B800BFCDCCCCCC00180020E3
:103D5000074B10B5A3FB0030C00805F0F7F8BDE82D
:103D600010400246D6230348032105F085B800BF62
:103D7000CDCCCCCC001800200246D623014805212A
:103D800005F066B80018002010B505F0DFF8BDE8B2
:103D900010400246D6230248062105F06DB800BF48
:103DA000001800200246D6230148102105F050B823
:103DB000001800200246D6230148182105F048B813
:103DC0000018002010B50C4C82B0D6230DF107026C
:103DD0001021204605F012F80DF107000122032101
:103DE00005F060F89DF80720D6231021204605F045
:103DF0002FF802B010BD00BF0018002030B50C4DE8
:103E000083B0D62304460DF107021521284604F09D
:103E1000F5FF22460DF10700002105F043F89DF85B
:103E20000720D6231521284605F012F803B030BD2F
:103E30000018002038B50D4D0D4C2B882288934278
:103E400009D00C49114407D99A1A0B4892B208F0CC
:103E50003FFE2B88238038BDC2F50062064892B22F
:103E600008F036FE0023238038BD00BFD20D0020AD
:103E7000D00D0020D40D0020D4160020024B834228
:103E800000D07047FFF7D6BFD4160020F0B5124B14
:103E9000124C1F882688101E83B00EDD0139104D8C
:103EA0000A18334611F801EF05F803E003F1010C9D
:103EB000CCF30A038A422380F4D1BE4201D003B07E
:103EC000F0BD084B9B6F212BF9D00190FFF7B2FF9B
:103ED000019803B0F0BD00BFD00D0020D20D00202E
:103EE000D40D0020D416002038B50D4B984204465E
:103EF00003D00C4B9C4207D038BD0B49402209F03F
:103F00005BFB084B9C42F7D1084D2878FEF7B4F9CB
:103F1000294620460122BDE8384009F04DBB00BFCC
:103F2000D416002050160020D8150020D4150020EB
:103F300038B50D4B9842044603D00C4B9C4207D039
:103F400038BD0B49402209F037FB084B9C42F7D1A2
:103F5000084D2878FEF790F9294620460122BDE851
:103F6000384009F029BB00BFD416002050160020AD
:103F7000D8150020D4150020F0B5124E3378DBB1EF
:103F8000114C374645428446BE4605E09CF8013058
:103F9000A3B11EF8013F8C46E25C614602F00302C9
:103FA000012A11F8012B08BF20339A42EED017F8EE
:103FB000013F0135002BE6D11846F0BD65440135BF
:103FC0007019F0BD900D002061670108F8B5077801
:103FD000202F08BF4778064608BF0136F7B13D4697
:103FE000002404E016F8015F0CEB40043DB1A5F19C
:103FF000300C5FFA8CF0092804EB8400F2D92D2FE5
:1040000000D16442944201DB9C4204DD04480CF080
:1040100051FB3046F8BD0C603046F8BD3C46F1E738
:10402000B849010870B50478049E202C08BF0130FF
:10403000002B26DDC518844603E00A2C09D0AC45C8
:104040000ED01CF8014BACEB000E0D2C0EF1FF3E18
:10405000F3D17245F3DDBDE870400D480CF02ABB8A
:1040600001380C46CD1803E00A2B08D0AC4208D02A
:1040700010F8013F0D2B224604F8013BF4D1002338
:1040800013700A4603483146BDE870400CF0AABAE6
:10409000C4490108D049010830B52DED028B0378E1
:1040A000202B83B00446B0EE408AF0EE608A0D46C5
:1040B00003D114F8013F202BFBD001A920460BF0BF
:1040C00079FAB4EEC80AF1EE10FA04DBB4EEE80AAD
:1040D000F1EE10FA07D907480CF0ECFA204603B0CD
:1040E000BDEC028B30BD204685ED000A03B0BDEC6F
:1040F000028B30BDB849010800B59FED357B83B018
:10410000354B36488DED007B00220CF06BFA3448BD
:104110000CF068FA334B1B78032B06D8DFE803F06A
:104120005450024C30480CF0C5FAFFF7E9F810EE95
:10413000100AFCF749FA02460B462C480CF052FADA
:10414000FFF730FD01462A480CF04CFAFFF74EFD10
:10415000014628480CF046FAFFF75AFD014626486A
:104160000CF040FAFFF730FD014624480CF03AFA13
:10417000FFF760FD014622480CF034FAFFF76CFDB2
:10418000014620480CF02EFAFFF778FD01461E4844
:104190000CF028FAFFF792FD01461C480CF022FAB9
:1041A000FFF7A2FD01461A480CF01CFA194803B0AB
:1041B0005DF804EB0CF07EBA17480CF07BFAB4E71C
:1041C00016480CF077FAB0E715480CF073FAACE734
:1041D000000000606666E63F0000F03FDC49010831
:1041E000004A01086B1B00201C4A0108404A0108D4
:1041F0005C4A01086C4A01087C4A01088C4A0108A3
:10420000A04A0108B04A0108C44A0108E84A010866
:104210000C4B0108505F0108304A0108B0650108E5
:10422000144A01080000000010B59FED3B7B82B0EE
:104230008DED007B3A4B3B483B4C00220CF0D2F911
:104240003A480CF037FA3A480CF034FA39480CF096
:1042500031FA39480CF02EFA38480CF02BFA38486D
:104260000CF028FA37480CF025FA37480CF022FAFF
:1042700036480CF01FFA20460CF01CFA34480CF0BB
:1042800019FA34480CF016FA33480CF013FA334894
:104290000CF010FA32480CF00DFA20460CF00AFA35
:1042A00030480CF007FA30480CF004FA2F480CF0B4
:1042B00001FA20460CF0FEF92D480CF0FBF92D48D0
:1042C0000CF0F8F92C480CF0F5F92C480CF0F2F948
:1042D0002B480CF0EFF92B480CF0ECF92A480CF0C5
:1042E000E9F92A480CF0E6F929480CF0E3F92948E5
:1042F0000CF0E0F928480CF0DDF928480CF0DAF968
:1043000020460CF0D7F926480CF0D4F9204602B02C
:10431000BDE810400CF0CEB9000000606666E63FD4
:104320000000F03FDC490108505F0108304B0108F4
:10433000404B01087C4B0108C84B01081C4C01088C
:10434000704C0108BC4C01080C4D0108484D010897
:10435000804D0108944D0108B84D0108E44D010855
:10436000084E01082C4E01083C4E0108844E0108FD
:10437000C84E0108D84E0108E04E0108EC4E010875
:10438000204F0108444F01086C4F01088C4F010871
:10439000A44F0108DC4F01080450010840500108F7
:1043A000A45001082DE9F047AC4C2DED028B236899
:1043B0003F2B86B003D8AA495A1CC85422600A2849
:1043C00004D006B0BDEC028BBDE8F0872368A44D95
:1043D000581E00212A5C0D2A18BF1846C0F1400261
:1043E00028440CF0C7FA00239E482360FFF7C4FD61
:1043F0006B1C834200F0DA809B48FFF7BDFD2E1D49
:10440000864200F0D3809948FFF7B6FD05F1060813
:10441000804500F0E3809648FFF7AEFD05F10709FF
:10442000814500F0E2809348FFF7A6FD05F10B04FB
:10443000844200F0C2809048FFF79EFD844200F065
:10444000E6808E48FFF798FD05F10A07874200F0E5
:10445000E5808B48FFF790FD874200F0EA808948AD
:10446000FFF78AFD05F10C0A824500F0E7808648D7
:10447000FFF782FD844200F047818448FFF77CFD0E
:10448000804508BF012000F0BB808148FFF774FD24
:10449000814500F0B4807F48FFF76EFD874200F051
:1044A00062827D487D4DFFF767FD854200F0768290
:1044B0007B48FFF761FD844200F077827948FFF77F
:1044C0005BFD874200F07F827748FFF755FD85420C
:1044D00000F080827548FFF74FFD854277D0744821
:1044E000FFF74AFD814500F0D7827248FFF744FD8F
:1044F000824500F0D8827048FFF73EFD6F4B834243
:1045000000F0F5826E48FFF737FD864200F02C81FF
:104510006C48FFF731FD6C4B984205467FF451AF74
:104520006A48FFF729FD00283FF44BAFA0427FF413
:1045300048AF67490CF058FA0646002840F043831C
:10454000644920460CF050FA002840F05A83624932
:1045500020460CF049FA00283FF433AF0B355F4991
:1045600028460CF041FA0646002840F088835C4952
:1045700028460CF039FA00283FF423AF594C5A4A28
:10458000E3795A48022161F3430301211170E37179
:104590000CF090F8564B1E8002F0BEFF208906B04A
:1045A000BDEC028BBDE8F04702F014BF06B0BDECD5
:1045B000028BBDE8F047FFF737BE4E480CF07AF8A3
:1045C00006B0BDEC028BBDE8F047FCF743BF06B078
:1045D000BDEC028BBDE8F04703F092BD06B0BDEC28
:1045E000028BBDE8F047FFF787BD4348A022382182
:1045F00006B0BDEC028BBDE8F04704F071BC0020B2
:1046000006B0BDEC028BBDE8F047FEF7ABB806B0D4
:10461000BDEC028BBDE8F047FCF7C4BFFCF748FFD8
:104620000146364806B0BDEC028BBDE8F0470BF002
:10463000D9BFFCF7E7FE01463148F3E705A943F689
:10464000982300220AF10100FFF7C0FC059B254AD0
:104650002C48A2F8053099B2E4E700BF8C0D002089
:10466000900D0020C4500108C8500108D050010826
:10467000D8500108E0500108085101081451010800
:104680004851010894510108B4510108D45101085E
:10469000DC510108E451010828520108990D00205D
:1046A00034520108505201085C520108845201083A
:1046B0009052010898520108D0520108980D00202C
:1046C00010530108005B0108950D0020085B0108EC
:1046D000105B0108385B0108605B0108685B01083A
:1046E000985B0108BC190020B21900206C5B01081E
:1046F00018160020EC500108AC17002020510108CA
:1047000054510108A45101082B7BB448202B03D13C
:1047100010F8013F202BFBD005A90AF04BFFFAEE61
:10472000047AB4EEE70AF1EE10FAB0EE408AC0F275
:104730002D81F2EE047AB4EEE70AF1EE10FA00F2FF
:10474000258110EE100AFBF73FFF02460B46A44CF2
:10475000A44818EE101AC4F8011006B0BDEC028B84
:10476000BDE8F0470BF03EBF9F48FFF705FC00286F
:1047700040F0A4819D48FFF7FFFB0546002840F06C
:10478000CF819B48FFF7F8FB0646002840F0DA810E
:104790009848FFF7F1FB002840F0EF819648FFF7BB
:1047A000EBFB0546002840F04A829448FFF7E4FB03
:1047B000002840F04D829248FFF7DEFB002840F0D1
:1047C00087829048FFF7D8FB002840F06E828E4821
:1047D000FFF7D2FB002840F08D828C48FFF7CCFB1E
:1047E000002840F07E828A48FFF7C6FB10B1A04245
:1047F00000F0CC828748FFF7BFFB10B1B84200F051
:104800006D858548FFF7B8FB002800F05F83A04264
:104810007FF4D7AD8148FFF7AFFB70B18049704C92
:104820000B78227E7F4842F0010243F00203227699
:104830000B700BF03FFFFCF7E5FD7B48FFF79CFB9F
:1048400070B16749764B0C7E1A7878486FF3410255
:104850006FF300040C761A700BF02CFFFCF7D2FDFE
:104860007348FFF789FBF0B10523002205A94FF03B
:10487000FF3470480594FFF7A9FB5949684B059C24
:10488000087E1A7804F00F0565F3440065F385028D
:104890000876E0B21A7001F0C9FF214666480BF0B5
:1048A000A1FEFCF7AFFD6548FFF766FB044618B1B3
:1048B000634B984200F05D846248FFF75DFB04465D
:1048C00018B1614B984200F09C846048FFF754FB9C
:1048D000044600283FF475AD5D4B98427FF471ADFE
:1048E0005C490CF081F8B8B1F2EE040ABAEE040AA1
:1048F00005A9E01DFFF7D0FB494B39490598C3F8DE
:104900000F00C1F81D00FBF75FFE02460B46524840
:104910000BF068FEFCF776FD50494D480CF064F84A
:1049200070B13F492E4C8B7A227E4D4842F04002B6
:1049300043F0010322768B720BF0BCFEFCF762FDA4
:10494000484943480CF050F800283FF43AAD244958
:10495000334B0C7E9A7A44486FF386146FF300024F
:104960000C769A72A9E2414A414811460023FDF7AC
:104970005FF8404A404B014600290CBF11461946DA
:104980003E480BF02FFE3E493E484BE63E489FED29
:104990003F8A0BF08FFE00220023D8E606B0BDEC64
:1049A000028BBDE8F047FCF7FDBF394842F21B71AE
:1049B000FDF78EF82F4A304B014600290CBF1146F7
:1049C00019462E482EE606B0BDEC028BBDE8F04736
:1049D000FDF7B6B82F48FDF7CDF8EBE79C0D0020AA
:1049E000BC190020C0510108185301083C530108AC
:1049F00060530108A4530108085401082054010819
:104A00004454010858540108745401089054010892
:104A1000AC540108A8550108D0560108B454010847
:104A2000201B0020D8560108D4540108F056010874
:104A3000F4540108A00D0020085701081C55010876
:104A4000A70D002088570108A10D00206856010815
:104A50009F0D00202C550108F857010858550108F2
:104A600018580108805501083C580108E44A01081B
:104A7000F0510108BC500108B8500108FC51010870
:104A80004A0A00200C520108B84901080000000041
:104A9000405201086852010806B0BDEC028BBDE827
:104AA000F04703F0EFBD9A499A4891F84C4B01F555
:104AB00034610EC900940BF095FD82E44FF4B463A9
:104AC0004FF0FF340F2205A90594FFF77FFA059BED
:104AD0000E2B7FF776AC904A90480733A2FB032356
:104AE000DB088F4AC3EB031399B213819AE5FDF7F4
:104AF000B5FE87498B4891F9562691F8553691F8BD
:104B00005446CDE9023291F8532691F85236CDE958
:104B1000002491F85026B1F84E160BF063FD50E4D6
:104B2000FA234FF0FF34012205A90594FFF74EFA4E
:104B3000059B002B7FF745AC794A7B4882F83B30D8
:104B4000D9B26FE54FF0FF3402232A4605A9059438
:104B5000FFF73CFA059C002C40F38D80012C00F0FF
:104B60009A80022C00F09B80704B00221A806C4BC4
:104B7000DA7964F34302DA7123E403234FF0FF345C
:104B8000324605A90594FFF721FA059B002BFFF695
:104B900018AC634A92F83C1003F0030363F301017D
:104BA000022B82F83C1000F0B080032B00F0AB80A9
:104BB000012B14BF5E485F4806B0BDEC028BBDE818
:104BC000F0470BF077BD564C4FF0FF3005A905902C
:104BD0004FF4FA73012205F10A00FFF7F7F9E279C1
:104BE0000599554D55482980012363F34302E2712D
:104BF000534A036089B20023524813700BF0F2FC51
:104C0000CCE44FF0FF3005A905904FF4FA73012270
:104C100005F10A00FFF7DAF9494B474A404C05997C
:104C20001E70464B118001221A60E3794648022229
:104C300062F3430389B2E3710BF0D4FCAAE4434B63
:104C40000093434930230122FFF7ECF9FFF7B9BB8A
:104C50004FF6FF734FF0FF342A4605A90594FFF77E
:104C6000B5F9059B002BFFF6ACAB2D4A3948A2F8ED
:104C70007D3099B2D6E438480BF01CFD77E7284C1C
:104C80002F49E3793548012262F343030A70E37147
:104C90000BF010FD82E432480BF00CFD64E7314864
:104CA0000BF0A0FC02F038FC5EE74FF6FF734FF00C
:104CB000FF34002205A90594FFF788F9059B002B16
:104CC000FFF67FAB164A2848A2F8AF3099B2A9E4A4
:104CD000264B0093264930230122FFF7A3F9FFF763
:104CE00070BB244B0093244910230122FFF79AF94B
:104CF000FFF767BB214B0093214910230122FFF7E7
:104D000091F9FFF75EBB1F4856E71F4854E700BF05
:104D100030020020A852010889888888245301089D
:104D2000BC190020DC520108485301081816002065
:104D3000B4530108C0530108B41900208C19002095
:104D4000B2190020185B0108405B010814540108E7
:104D5000091A002030540108945301086C5B0108C3
:104D60006C53010880530108645401085054010831
:104D70003B1A00209C5401087D1A00208054010831
:104D80006D1A0020EC530108D8530108B148FFF711
:104D9000F3F870B1B049B14A8B7AB14843F00103DE
:104DA0008B72137843F0020313700BF083FCFCF753
:104DB00029FBAC48FFF7E0F870B1A74AA74B917AFE
:104DC000A9486FF3000191721A786FF341021A70CB
:104DD0000BF070FCFCF716FBA448FFF7CDF8F8B118
:104DE0004FF0FF300323002205A90590A048FFF7EC
:104DF000EDF89949994B059D8E7A1A7805F00F00C8
:104E000060F3850260F344061A708E7204F05AF95A
:104E1000984B2946188098480BF0E4FBFCF7F2FA0F
:104E20009648FFF7A9F8054600283FF4E3AC944BF9
:104E300098427FF4DFAC93490BF0D6FDB8B1F2EEA7
:104E4000040ABAEE040A05A9E81DFFF725F9834B09
:104E500081490598C3F80600C1F80B00FBF7B4FBC5
:104E600002460B4688480BF0BDFBFCF7CBFA87499E
:104E700083480BF0B9FD70B17849774C4B78A27A32
:104E8000834842F0200243F00103A2724B700BF002
:104E900011FCFCF7B7FA7F4979480BF0A5FD002813
:104EA0003FF48FAA6C496D4B8C7A5A787A486FF32D
:104EB00045146FF300028C725A700BF0FBFB06B0C6
:104EC000BDEC028BBDE8F047FCF79CBA7348FFF7D6
:104ED00053F810B1A04200F09E827148FFF74CF8E1
:104EE00000283FF415ABA0427FF412AB5948FFF7FE
:104EF00043F880B158486B4990F832200B7842F063
:104F0000010243F0020380F8322067480B700BF077
:104F1000D1FBFCF777FA5348FFF72EF880B14E49E2
:104F2000604B91F832001A786FF300006FF3410282
:104F300081F832005D481A700BF0BCFBFCF762FA96
:104F40004A48FFF719F850B30823002205A94FF08B
:104F5000FF3547480595FFF739F83F4A059D92F818
:104F60003210504B05F00F0060F3440182F832100C
:104F70001A7860F385021A7001F034F84C4A03463F
:104F8000DBB213704B4A002010704B4A137000F0D4
:104F9000AFFE294649480BF025FBFCF733FA3748AA
:104FA000FEF7EAFF054618B1354B984200F09680AF
:104FB0004348FEF7E1FF054600283FF4A9AA414B0C
:104FC00098427FF4A5AA2F490BF00EFDB8B1DFED92
:104FD0003E0A9FED3E0A05A9E81DFFF75DF8314B3B
:104FE0001D490598C3F80F00C1F83700FBF7ECFA2C
:104FF00002460B4636480BF0F5FAFCF703FA234954
:1050000030480BF0F1FC80B12649134C8B7A94F8B0
:105010003220304842F0400243F0010384F832204D
:105020008B720BF047FBFCF7EDF91A4925480BF0A2
:10503000DBFC00283FF4C5A907491A4B91F8324020
:105040009A7A25486FF386146FF3000281F8324094
:105050009A7232E7B4540108BC1900205C1B00208E
:10506000BC540108D4540108DC540108F45401086C
:10507000A00D0020AE190020FC5401081C550108A9
:10508000A70D00202C55010834550108585501087A
:105090005C550108805501088455010860580108D5
:1050A000D4590108E41A0020DC590108F459010818
:1050B000AA190020AD190020AC1900200C5A0108D3
:1050C00088570108A10D00200000FA430000FAC330
:1050D000985A0108B85A0108DC5A01086C490BF0CB
:1050E00083FCB8B1F2EE040ABAEE040A05A9E81D81
:1050F000FEF7D2FF674B68490598C3F83300C1F843
:105100000600FBF761FA02460B4664480BF06AFAA8
:10511000FCF778F9624963480BF066FC80B15D48A2
:105120005D4990F832204B7842F0200243F00103B1
:1051300080F832205C484B700BF0BCFAFCF762F947
:105140005A4958480BF050FC00283FF431AF514900
:10515000514B91F832005A786FF345106FF300020B
:1051600081F8320052485A700BF0A4FAFCF74AF961
:105170001EE747490BF038FCB8B1F2EE040ABAEE6C
:10518000040A05A9E01DFEF787FF4A4B414905982F
:10519000C3F80600C1F81900FBF716FA02460B46E1
:1051A00045480BF01FFAFCF72DF93D493D480BF03F
:1051B0001BFC70B13F49374C4B78227E3F4842F090
:1051C000200243F0010322764B700BF073FAFCF7D8
:1051D00019F9364933480BF007FC00283FF46CAB53
:1051E0002C49344B0C7E5A7835486FF300026FF32C
:1051F00045140C765A700BF05DFAFCF703F9FFF7D3
:105200005BBB23490BF0F0FBB0B1DFED2E0A9FED45
:105210002E0A05A9E01DFEF73FFF264B1D49059804
:105220009861C1F82100FBF7CFF902460B462748E9
:105230000BF0D8F9FCF7E6F8194925480BF0D4FB38
:1052400070B11C49134CCB7C227E224842F0800274
:1052500043F001032276CB740BF02CFAFCF7D2F862
:1052600012491B480BF0C0FB00283FF42EAB094944
:10527000104B0C7EDA7C18486FF300026FF3C714F2
:105280000C76DA740BF016FAFCF7BCF8FFF71DBBCE
:105290002C550108BC190020E41A00202C5A0108E2
:1052A00058550108A70D0020505A010880550108E3
:1052B000745A0108201B00201C57010840570108A0
:1052C000645701080000FA430000FAC39057010830
:1052D000A10D0020B0570108D4570108A548FEF7DA
:1052E0004BFE70B1A448A549C27B0B7842F0010285
:1052F00043F00203C273A2480B700BF0DBF9FCF71A
:1053000081F8A048FEF738FE70B19B499B4BC87BE3
:105310001A786FF300006FF34102C8739A481A704D
:105320000BF0C8F9FCF76EF89848FEF725FEE0B1DF
:105330000123002205A94FF0FF3595480595FEF79A
:1053400045FE8D4A0599D57B8C4B01F00F0060F32B
:105350004405D5731A788F4D60F385028E481A7014
:1053600029700BF03FF9FCF74DF88C48FEF704FE6E
:10537000054618B18A4B984200F082818948FEF7B1
:10538000FBFD054600283FF43CAA874B98427FF47A
:1053900038AA86490BF028FBB0B1F2EE040ABAEE47
:1053A000040A05A9E81DFEF777FE744B72490598BB
:1053B000C3F80F004861FBF707F902460B467C482B
:1053C0000BF010F9FCF71EF87A4977480BF00CFB4C
:1053D00070B16A49684C8B7AE27B774842F04002B0
:1053E00043F00103E2738B720BF064F9FCF70AF8E7
:1053F00072496D480BF0F8FA00283EF4E2AF5E49BE
:105400005E4BCC7B9A7A6E486FF386146FF3000282
:10541000CC739A7251E55748FEF7AEFD80B15648FD
:10542000684990F825200B7842F0010243F002030E
:1054300080F8252064480B700BF03CF9FBF7E2FF85
:105440005048FEF799FD80B14B495E4B91F825001D
:105450001A786FF300006FF3410281F825005B4872
:105460001A700BF027F9FBF7CDFF4848FEF784FDD3
:10547000E0B10A23002205A94FF0FF3554480595F5
:10548000FEF7A4FD3C4A059892F825504D4B00F0DC
:105490000F0161F3440582F825501A78C0B261F318
:1054A00085021A7004F0C4F8FBF7ACFF3B48FEF726
:1054B00063FD054618B1474B984200F027814648E6
:1054C000FEF75AFD054618B1444B984200F08E8015
:1054D0003448FEF751FD054600283FF4FEAC2C4B46
:1054E00098427FF4FAAC31490BF07EFAB8B1F2EE93
:1054F000040ABAEE040A05A9E81DFEF7CDFD314BFA
:105500001D490598C3F80F00C1F82A00FBF75CF8A5
:1055100002460B4632480BF065F8FBF773FF25494E
:105520001B480BF061FA80B12649134C8B7A94F832
:1055300025202C4842F0400243F0010384F8252046
:105540008B720BF0B7F8FBF75DFF1C4910480BF0AE
:105550004BFA00283EF435AF07491A4B91F8254025
:105560009A7A21486FF386146FF3000281F8254080
:105570009A72A2E4B4540108BC190020441B002014
:10558000B0550108D4540108C8550108F454010865
:105590009F0D0020A8190020E05501081C550108A6
:1055A000A60D0020685601089E0D00202C5501080C
:1055B0007056010858550108905601088055010899
:1055C000B0560108FC1A00206858010880580108EC
:1055D000A00D0020A70D002088570108A10D002074
:1055E0006C5901088C590108B05901086D490BF03C
:1055F000FBF9B0B1DFED6C0A9FED6C0A05A9E81D5F
:10560000FEF74AFD6A4B6B490598C3F82E00886186
:10561000FAF7DAFF02460B4667480AF0E3FFFBF7AA
:10562000F1FE664966480BF0DFF980B160486149D8
:1056300090F82520CB7C42F0800243F0010380F8F3
:1056400025206048CB740BF035F8FBF7DBFE5E4994
:105650005B480BF0C9F900283FF43AAF5449554B69
:1056600091F82500DA7C6FF3C7106FF3000281F820
:1056700025005648DA740BF01DF8FBF7C3FE27E748
:1056800048490BF0B1F9B0B1F2EE040ABAEE040ADF
:1056900005A9E81DFEF700FD454B4D490598186129
:1056A000C1F80600FAF790FF02460B4649480AF097
:1056B00099FFFBF7A7FE414947480BF095F970B1F8
:1056C0003B484349C27B4B7842F0200243F0010340
:1056D000C27342484B700AF0EDFFFBF793FE3A4964
:1056E0003D480BF081F900283FF448AE3049384B73
:1056F000C87B5A786FF345106FF30002C8733848BF
:105700005A700AF0D7FFFBF77DFE37E625490BF00C
:105710006BF9B8B1F2EE040ABAEE040A05A9E81D65
:10572000FEF7BAFC224B23490598C3F82600C1F8BE
:105730000600FAF749FF02460B462A480AF052FFD4
:10574000FBF760FE1D4928480BF04EF980B1184860
:10575000184990F825204B7842F0200243F00103CD
:1057600080F8252021484B700AF0A4FFFBF74AFE81
:1057700015491D480BF038F900283FF4A0AE0C493C
:105780000C4B91F825005A786FF345106FF3000227
:1057900081F8250016485A700AF08CFFFBF732FE9C
:1057A0008DE600BF2C5501080000FA430000FAC343
:1057B000BC190020FC1A00200459010858550108A2
:1057C000A10D0020245901088055010848590108FD
:1057D000441B002000560108A60D00202056010899
:1057E0004456010898580108A70D0020BC5801082C
:1057F000E0580108154AB2F85A302DE9F041B2F8E4
:105800005840134E9BB2E41A32884034A41A6342C3
:1058100003F03F0304F03F0458BF5C42A4B294B1CC
:1058200000250C4FA84600E03288B85C531C9BB2A0
:105830003F2B05F10105338088BFA6F80080FEF7F5
:10584000B1FDA542F0D1BDE8F08100BFD416002023
:10585000D6150020D8150020084B9A6A22F48052F1
:105860009A629A6C42F480529A649B6C82B003F400
:1058700080530193019B002002B07047001002404A
:1058800010B582B003F066FB124896230322EE2186
:1058900005F048FF0446642007F0DAFEB4B9EE23B1
:1058A0000C480DF107020D2103F0A8FA9DF807300E
:1058B000102B05D008480AF0FDFE002002B010BDF4
:1058C00006480AF0F7FE012002B010BD04480AF0B5
:1058D000F1FEF2E7AC170020A85B01089C5B010811
:1058E000B45B010800B58BB003F034FB05ABFA21C3
:1058F0001222CDE90121009310220123EE21354827
:1059000005F0F2FD9DF815209DF814309DF8160065
:10591000110941EA03111202DB0902F470622E4BF5
:1059200018BFA1F5805110434908D20A9DF81820EC
:1059300019600CBF5860A0F580519DF8170018BF82
:10594000596012019DF8191042EA003242EA111022
:10595000D20C18BFA0F580109860BDF81A20090479
:1059600052BA01F4702192B20A43C90C18BFA2F5D1
:105970008012DA60BDF81C2052BA91B2120448BFFE
:10598000A1F580311961BDF81E2052BA91B2100400
:1059900048BFA1F580315961BDF8202052BA91B2BB
:1059A000120448BFA1F580319961BDF8222052BA96
:1059B00091B2100448BFA1F58031D961BDF824200F
:1059C00052BA91B2120448BFA1F5803119620BB0EE
:1059D0005DF804FBAC170020241600202DE9F041EF
:1059E000134F86B001240DF117054FF0FA08064653
:1059F00003F0B0FA2346CDE9014800950922EE21D3
:105A0000384605F071FD32462146284603F04AFA31
:105A100023460922EE21CDE901480095384605F0DC
:105A20003DFC204607F014FE06B0BDE8F08100BF43
:105A3000AC1700202DE9F041134F86B001240DF181
:105A400017054FF0FA08064603F084FA2346CDE91D
:105A500001480095EE210922384605F045FD324601
:105A60002846F02103F034FA23460922EE21CDE93D
:105A700001480095384605F011FC204607F0E8FD86
:105A800006B0BDE8F08100BFAC17002070B586B04D
:105A900001240DF11705FA2603F05CFA2346CDE93F
:105AA000014607220095EE21114805F01DFD0DF17C
:105AB000160328220093CDE901462346EE210C4827
:105AC00005F012FD9DF91630002BACBF00222246D6
:105AD0002846072103F0E6F90123FA22CDE9013235
