:020000040800F2
:100000000000012085A100087570000879700008C3
:100010007D700008817000088570000800000000F5
:1000200000000000000000000000000041ED00089A
:100030008970000800000000D1ED000835EE0008CE
:10004000D5A10008D5A10008D5A10008D5A10008B8
:10005000D5A10008D5A10008D5A10008D5A10008A8
:10006000D5A10008D5A10008D5A100088D70000811
:10007000D5A10008D5A10008D5A10008D5A1000888
:10008000D5A10008D5A10008D5A10008D5A1000878
:10009000D5A10008D5A10008D5A10008D5A1000868
:1000A000D5A10008D5A10008D5A10008D5A1000858
:1000B000D5A100080000000000000000D5A1000844
:1000C000D5A10008D5A10008D5A10008D5A1000838
:1000D000D5A1000899700008A5700008D5A10008F6
:1000E000D5A10008D5A10008000000000000000014
:1000F0000000000000000000000000000000000000
:1001000000000000D5A1000800000000D5A10008F3
:100110000000000000000000D5A10008B170000838
:10012000D5A10008D5A10008D5A10008D5A10008D7
:10013000D5A1000800000000000000000000000041
:10014000D5A10008D5A10008D5A100080000000035
:10015000D5A10008D5A10008D5A10008D5A10008A7
:10016000D5A10008D5A10008D5A100080000000015
:10017000D5A10008D5A10008000000000000000083
:0C018000D5A10008D5A10008D5A10008F9
:1001900010B5054C237833B9044B13B10448AFF3C1
:1001A00000800123237010BD080200200000000021
:1001B0007845010808B5034B1BB103490348AFF369
:1001C000008008BD000000000C02002078450108F6
:1001D00038B500281CBF01680029184A23D1184BE4
:1001E0001C684FF6F0710C404CF24025AC421FBF2A
:1001F0001B6819404CF27024A14212D1114D29689C
:1002000079B911490B68C3F30B03B3F58A6F1FBFAC
:100210000968C1F30B0140F28343994204BF0121F5
:10022000117028B905E0094B994204BF01211170F2
:100230004068BDE8324005F01DBB00BF240200202D
:1002400000ED00E0002004E00010005C00003748F2
:1002500001F0FF01102A2BDB10F0070F08D010F877
:10026000013B013A8B422DD010F0070F42B3F6D17B
:10027000F0B441EA012141EA014122F007047FF094
:1002800000070023F0E80256083C85EA010586EAEB
:10029000010685FA47F5A3FA87F586FA47F6A5FA27
:1002A00087F68EB9EED1F0BC01F0FF0102F0070233
:1002B00032B110F8013B013A83EA010313B1F8D1DE
:1002C0000020704701387047002D06BF35460338BF
:1002D000073815F0010F07D1013015F4807F02BFF8
:1002E000013015F4C03F0130F0BC0138704700BF49
:1002F000034613F8012B002AFBD1181A0138704766
:1003000081F0004102E000BF83F0004330B54FEAC6
:1003100041044FEA430594EA050F08BF90EA020F33
:100320001FBF54EA000C55EA020C7FEA645C7FEAC6
:10033000655C00F0E2804FEA5454D4EB5555B8BFE9
:100340006D420CDD2C4480EA020281EA030382EA5A
:10035000000083EA010180EA020281EA0303362DEC
:1003600088BF30BD11F0004F4FEA01314FF4801CBF
:100370004CEA113102D0404261EB410113F0004FD1
:100380004FEA03334CEA133302D0524263EB430388
:1003900094EA050F00F0A780A4F10104D5F1200E26
:1003A0000DDB02FA0EFC22FA05F2801841F1000181
:1003B00003FA0EF2801843FA05F359410EE0A5F155
:1003C00020050EF1200E012A03FA0EFC28BF4CF086
:1003D000020C43FA05F3C01851EBE37101F000453C
:1003E00007D54FF0000EDCF1000C7EEB00006EEB49
:1003F0000101B1F5801F1BD3B1F5001F0CD34908D3
:100400005FEA30004FEA3C0C04F101044FEA445229
:1004100012F5800F80F09A80BCF1004F08BF5FEAB0
:10042000500C50F1000041EB045141EA050130BD90
:100430005FEA4C0C404141EB0101013C28BFB1F5A2
:10044000801FE9D291F0000F04BF01460020B1FAED
:1004500081F308BF2033A3F10B03B3F120020CDAC0
:100460000C3208DD02F1140CC2F10C0201FA0CF09E
:1004700021FA02F10CE002F11402D8BFC2F1200C03
:1004800001FA02F120FA0CFCDCBF41EA0C019040B9
:10049000E41AA2BF01EB0451294330BD6FEA040402
:1004A0001F3C1CDA0C340EDC04F11404C4F12002ED
:1004B00020FA04F001FA02F340EA030021FA04F3FF
:1004C00045EA030130BDC4F10C04C4F1200220FA56
:1004D00002F001FA04F340EA0300294630BD21FA94
:1004E00004F0294630BD94F0000F83F4801306BF5A
:1004F00081F480110134013D4EE77FEA645C18BF4E
:100500007FEA655C29D094EA050F08BF90EA020FE4
:1005100005D054EA000C04BF1946104630BD91EADC
:10052000030F1EBF0021002030BD5FEA545C05D1DF
:100530004000494128BF41F0004130BD14F580041E
:100540003CBF01F5801130BD01F0004545F0FE4192
:1005500041F470014FF0000030BD7FEA645C1ABFC7
:10056000194610467FEA655C1CBF0B46024650EAFE
:10057000013406BF52EA033591EA030F41F400212A
:1005800030BD00BF90F0000F04BF0021704730B5B0
:100590004FF4806404F132044FF000054FF0000185
:1005A00050E700BF90F0000F04BF0021704730B546
:1005B0004FF4806404F1320410F0004548BF40421B
:1005C0004FF000013EE700BF42004FEAE2014FEA70
:1005D00031014FEA02701FBF12F07F4393F07F4F4B
:1005E00081F06051704732F07F4208BF704793F04E
:1005F0007F4F04BF41F40021704730B54FF4607461
:1006000001F0004521F000411CE700BF50EA010263
:1006100008BF704730B54FF000050AE050EA01020C
:1006200008BF704730B511F0004502D5404261EB7C
:1006300041014FF4806404F132045FEA915C3FF4BD
:10064000D8AE4FF003025FEADC0C18BF03325FEA5A
:10065000DC0C18BF033202EBDC02C2F1200300FA0B
:1006600003FC20FA02F001FA03FE40EA0E0021FA30
:1006700002F11444BDE600BF70B54FF0FF0C4CF41E
:10068000E06C1CEA11541DBF1CEA135594EA0C0FD0
:1006900095EA0C0F00F0DEF82C4481EA030621EA0B
:1006A0004C5123EA4C5350EA013518BF52EA033546
:1006B00041F4801143F4801338D0A0FB02CE4FF0F8
:1006C0000005E1FB02E506F00042E0FB03E54FF028
:1006D0000006E1FB03569CF0000F18BF4EF0010E20
:1006E000A4F1FF04B6F5007F64F5407404D25FEA1C
:1006F0004E0E6D4146EB060642EAC62141EA5551CF
:100700004FEAC52040EA5E504FEACE2EB4F1FD0C10
:1007100088BFBCF5E06F1ED8BEF1004F08BF5FEA8E
:10072000500E50F1000041EB045170BD06F0004640
:1007300046EA010140EA020081EA0301B4EB5C04ED
:10074000C2BFD4EB0C0541EA045170BD41F48011E5
:100750004FF0000E013C00F3AB8014F1360FDEBF0A
:10076000002001F0004170BDC4F10004203C35DAE6
:100770000C341BDC04F11404C4F1200500FA05F369
:1007800020FA04F001FA05F240EA020001F000420A
:1007900021F0004110EBD37021FA04F642EB060180
:1007A0005EEA430E08BF20EAD37070BDC4F10C04AA
:1007B000C4F1200500FA04F320FA05F001FA04F26E
:1007C00040EA020001F0004110EBD37041F100015A
:1007D0005EEA430E08BF20EAD37070BDC4F1200565
:1007E00000FA05F24EEA020E20FA04F301FA05F2CD
:1007F00043EA020321FA04F001F0004121FA04F275
:1008000020EA020000EBD3705EEA430E08BF20EA44
:10081000D37070BD94F0000F0FD101F0004640007E
:1008200041EB010111F4801F08BF013CF7D041EA00
:10083000060195F0000F18BF704703F00046520004
:1008400043EB030313F4801F08BF013DF7D043EAD5
:100850000603704794EA0C0F0CEA135518BF95EA8B
:100860000C0F0CD050EA410618BF52EA4306D1D112
:1008700081EA030101F000414FF0000070BD50EA31
:10088000410606BF1046194652EA430619D094EABB
:100890000C0F02D150EA013613D195EA0C0F05D1A5
:1008A00052EA03361CBF104619460AD181EA0301F9
:1008B00001F0004141F0FE4141F470014FF00000B1
:1008C00070BD41F0FE4141F4780170BD70B54FF04C
:1008D000FF0C4CF4E06C1CEA11541DBF1CEA1355CC
:1008E00094EA0C0F95EA0C0F00F0A7F8A4EB0504AE
:1008F00081EA030E52EA03354FEA013100F08880A5
:100900004FEA03334FF0805545EA131343EA12636D
:100910004FEA022245EA111545EA10654FEA002622
:100920000EF000419D4208BF964244F1FD0404F5DB
:10093000407402D25B084FEA3202B61A65EB030537
:100940005B084FEA32024FF480104FF4002CB6EBF4
:10095000020E75EB030E22BFB61A754640EA0C0074
:100960005B084FEA3202B6EB020E75EB030E22BFB4
:10097000B61A754640EA5C005B084FEA3202B6EBF5
:10098000020E75EB030E22BFB61A754640EA9C00B4
:100990005B084FEA3202B6EB020E75EB030E22BF84
:1009A000B61A754640EADC0055EA060E18D04FEA42
:1009B000051545EA16754FEA06164FEAC30343EAE2
:1009C00052734FEAC2025FEA1C1CC0D111F4801FAF
:1009D0000BD141EA00014FF000004FF0004CB6E7A8
:1009E00011F4801F04BF01430020B4F1FD0C88BF47
:1009F000BCF5E06F3FF6AFAEB5EB030C04BFB6EB52
:100A0000020C5FEA500C50F1000041EB045170BD44
:100A10000EF0004E4EEA113114EB5C04C2BFD4EB71
:100A20000C0541EA045170BD41F480114FF0000EF5
:100A3000013C90E645EA060E8DE60CEA135594EA71
:100A40000C0F08BF95EA0C0F3FF43BAF94EA0C0F74
:100A50000AD150EA01347FF434AF95EA0C0F7FF4E9
:100A600025AF104619462CE795EA0C0F06D152EA3D
:100A700003353FF4FDAE1046194622E750EA410621
:100A800018BF52EA43067FF4C5AE50EA41047FF432
:100A90000DAF52EA43057FF4EBAE12E74FF0FF3C97
:100AA00006E000BF4FF0010C02E000BF4FF0010C68
:100AB0004DF804CD4FEA410C7FEA6C5C4FEA430CE1
:100AC00018BF7FEA6C5C1BD001B050EA410C0CBF30
:100AD00052EA430C91EA030F02BF90EA020F002092
:100AE000704710F1000F91EA030F58BF994208BFF9
:100AF00090422CBFD8176FEAE37040F001007047B6
:100B00004FEA410C7FEA6C5C02D150EA013C07D10C
:100B10004FEA430C7FEA6C5CD6D152EA033CD3D057
:100B20005DF8040B704700BF8446104662468C4651
:100B30001946634600E000BF01B5FFF7B7FF002884
:100B400048BF10F1000F01BD4DF808EDFFF7F4FFAD
:100B50000CBF012000205DF808FB00BF4DF808ED38
:100B6000FFF7EAFF34BF012000205DF808FB00BF5B
:100B70004DF808EDFFF7E0FF94BF012000205DF87D
:100B800008FB00BF4DF808EDFFF7CEFF94BF012032
:100B900000205DF808FB00BF4DF808EDFFF7C4FF2B
:100BA00034BF012000205DF808FB00BF4FEA410C74
:100BB0007FEA6C5C02D150EA013C0AD14FEA430C57
:100BC0007FEA6C5C02D152EA033C02D14FF0000094
:100BD00070474FF0010070474FEA410212F50012D2
:100BE00015D211D56FF47873B3EB625212D94FEA74
:100BF000C12343F0004343EA505311F0004F23FA5E
:100C000002F018BF404270474FF00000704750EAB2
:100C1000013005D111F0004008BF6FF0004070476F
:100C20004FF00000704700BF4A0011D212F50012C9
:100C300011D20DD56FF47873B3EB62520ED44FEA34
:100C4000C12343F0004343EA505323FA02F07047B4
:100C50004FF00000704750EA013002D14FF0FF30F2
:100C600070474FF0000070474FEA4102B2F1E04395
:100C700024BFB3F5001CDCF1FE5C0DD901F0004C83
:100C80004FEAC0024CEA5070B2F1004F40EB8300D3
:100C900008BF20F00100704711F0804F21D113F1FF
:100CA0003872BCBF01F00040704741F480114FEA38
:100CB0005252C2F11802C2F1200C10FA0CF320FAC1
:100CC00002F018BF40F001004FEAC1234FEAD323DE
:100CD00003FA0CFC40EA0C0023FA02F34FEA430348
:100CE000CCE77FEA625307D150EA01331EBF4FF0D1
:100CF000FE4040F44000704701F0004040F0FE40EC
:100D000040F40000704700BF80F0004002E000BFE8
:100D100081F0004142001FBF5FEA410392EA030FE6
:100D20007FEA226C7FEA236C6AD04FEA1262D2EB30
:100D30001363C1BFD218414048404140B8BF5B4235
:100D4000192B88BF704710F0004F40F4000020F0CE
:100D50007F4018BF404211F0004F41F4000121F0E4
:100D60007F4118BF494292EA030F3FD0A2F101022E
:100D700041FA03FC10EB0C00C3F1200301FA03F16C
:100D800000F0004302D5494260EB4000B0F5000F8F
:100D900013D3B0F1807F06D340084FEA310102F14E
:100DA0000102FE2A51D2B1F1004F40EBC25008BF00
:100DB00020F0010040EA03007047490040EB0000CA
:100DC000013A28BFB0F5000FEDD2B0FA80FCACF1CB
:100DD000080CB2EB0C0200FA0CF0AABF00EBC250F8
:100DE00052421843BCBFD0401843704792F0000FE6
:100DF00081F4000106BF80F400000132013BB5E739
:100E00004FEA41037FEA226C18BF7FEA236C21D0AE
:100E100092EA030F04D092F0000F08BF0846704713
:100E200090EA010F1CBF0020704712F07F4F04D1E1
:100E3000400028BF40F00040704712F100723CBFF4
:100E400000F50000704700F0004343F0FE4040F41E
:100E5000000070477FEA226216BF08467FEA2363DC
:100E60000146420206BF5FEA412390EA010F40F4C7
:100E7000800070474FF0000304E000BF10F0004313
:100E800048BF40425FEA000C08BF704743F09643FA
:100E900001464FF000001CE050EA010208BF704715
:100EA0004FF000030AE000BF50EA010208BF70479C
:100EB00011F0004302D5404261EB41015FEA010CB1
:100EC00002BF84460146002043F0B64308BFA3F1A9
:100ED0008053A3F50003BCFA8CF2083AA3EBC2538B
:100EE00010DB01FA02FC634400FA02FCC2F12002AA
:100EF000BCF1004F20FA02F243EB020008BF20F0E1
:100F00000100704702F1200201FA02FCC2F1200246
:100F100050EA4C0021FA02F243EB020008BF20EA3B
:100F2000DC7070477BB972B90029BEBF00204FF05A
:100F3000004106E008BF00281CBF6FF000414FF0E1
:100F4000FF3000F0EBB9ADF1080C6DE904CE0029DB
:100F500009DB002B1ADB00F083F8DDF804E0DDE9A3
:100F6000022304B07047404261EB4101002B1BDBC0
:100F700000F076F8DDF804E0DDE9022304B0404239
:100F800061EB4101524263EB43037047524263EB12
:100F9000430300F065F8DDF804E0DDE9022304B066
:100FA000404261EB41017047524263EB430300F062
:100FB00057F8DDF804E0DDE9022304B0524263EBA8
:100FC0004303704753B94AB9002908BF00281CBF22
:100FD0004FF0FF314FF0FF3000F0A0B9ADF1080C39
:100FE0006DE904CE00F03CF8DDF804E0DDE9022311
:100FF00004B0704738B50022002304460D46FFF7C1
:10100000ADFD28B920462946BDE8384000F00AB8B1
:10101000204605F1004100F005F8404261EB410136
:1010200038BD00BFD0B50C4B002206460F46FFF777
:1010300023FBFFF7F9FD0446FFF7A4FA074B002254
:10104000FFF71AFB02460B4630463946FFF75CF9BC
:10105000FFF7EAFD2146D0BD0000F03D0000F04161
:101060002DE9F047089D0C46002B4ED194468C4547
:101070008646B2FA82F262D94AB1C2F120039140A7
:1010800020FA03F30CFA02FC194300FA02FE4FEABD
:101090001C471FFA8CF6B1FBF7F44FEA1E4307FB1F
:1010A000141143EA014304FB06F199420AD91CEBEF
:1010B000030304F1FF3080F01281994240F20F8166
:1010C000023C6344591A1FFA8EF3B1FBF7F007FB99
:1010D000101143EA014300FB06F69E420AD91CEBBD
:1010E000030300F1FF3180F0FC809E4240F2F98062
:1010F000634402389B1B40EA044000211DB1D340E9
:101100000022C5E90032BDE8F0878B4205D90DB158
:10111000C5E9000100210846F5E7B3FA83F100298B
:1011200046D1A34202D39042C0F0F080861A64EB0D
:1011300003030120002DE6D0C5E90063E3E7002AA0
:1011400040F09080A1EB0C044FEA1C481FFA8CF78A
:101150000121B4FBF8F64FEA1E4308FB164443EAAC
:10116000044307FB06F0984208D91CEB030306F181
:10117000FF3402D2984200F2CD8026461C1A1FFA94
:101180008EF3B4FBF8F008FB104443EA044300FB81
:1011900007F79F4208D91CEB030300F1FF3402D28A
:1011A0009F4200F2B0802046DB1B40EA0640A5E7E4
:1011B000C1F120068B4022FA06F71F4320FA06FCF5
:1011C00004FA01F343EA0C03F44000FA01F8380C86
:1011D0004FEA1349B4FBF0FE1FFA87FC00FB1E44E4
:1011E00049EA04440EFB0CF9A14502FA01F20AD9BE
:1011F0003C190EF1FF3A80F08480A14540F28180D5
:10120000AEF1020E3C44A4EB09041FFA83F9B4FBCF
:10121000F0F300FB134449EA044403FB0CFCA4452F
:1012200007D93C1903F1FF3067D2A44565D9023BC9
:101230003C4443EA0E40A0FB0293A4EB0C049C4206
:10124000CE469C4651D34ED055B1B8EB0E0364EB5D
:101250000C0404FA06F6CB401E43CC40C5E90064FA
:10126000002150E7C2F1200320FA03F10CFA02FC3E
:1012700024FA03F394400C434FEA1C4800FA02FEA0
:101280001FFA8CF7B3FBF8F008FB1031230C43EA8C
:10129000014300FB07F1994208D91CEB030300F15D
:1012A000FF362CD299422AD9023863445B1AA4B281
:1012B000B3FBF8F108FB113344EA034401FB07F3E5
:1012C000A34208D91CEB040401F1FF3613D2A34258
:1012D00011D902396444E41A41EA004139E704466D
:1012E000F0E6084606E7C845AED2B9EB020E63EB5E
:1012F000070C0138A8E73146EDE7034699E7304689
:10130000D4E7D6467FE7634402384DE706462346D6
:1013100008460FE7023E634430E700BF704700BF56
:101320000E484FF0FF3380F8F13080F8F23001467C
:101330004FF6FF7300F1F10C11F8012B82EA132232
:1013400082EA121242EA032383EA023383EA421357
:101350006145A0F8F1309BB2EED17047C81900206A
:101360002DE9F04186B0002306460C4690460193D5
:1013700009F016FF204B9A6942F040429A614CF204
:10138000FA321A6101230022CDE9022301A90123C7
:1013900002A8CDE9046309F0EDFF28BBC4EBC62623
:1013A00006F1006605464FEAD808083E02E0A84567
:1013B00014D01D46F4E80223A7190020394609F08D
:1013C00039FF6B1C0028F2D009F0FEFE39460B48AD
:1013D0000FF070FE012006B0BDE8F08109F0F4FEC8
:1013E000002006B0BDE8F08109F0EEFE3146044869
:1013F0000FF060FEF4E700BF002002402C46010819
:101400001846010870B5124EB6F8F140FFF788FF94
:10141000B6F8F130A34201D1002070BD0425F322BB
:1014200031467E20FFF79CFF044608B1013DF6D10E
:10143000074E0425F32231467F20FFF791FF18B1B4
:10144000013DF7D12043C4B2601CC0B270BD00BFE3
:10145000C819002010B5144CEC22002120460FF0D2
:10146000F1FFE31F114A44F8062C022104F8071C7F
:101470000C226FF01B01002059719A71F521E722AF
:10148000A0701A764124712283F82510142123209C
:10149000DC7383F832200F24012283F83B101C7286
:1014A000987283F83C2010BDCF19002017D94E3D0B
:1014B000F8B5394DC5F100646E1C05F1F30E2B46ED
:1014C00004F57C341A5D03F8012F9E45FAD13349A7
:1014D0004FF6FF7201F1F10C11F8013B83EA122380
:1014E00083EA131343EA022282EA033282EA4312B6
:1014F000614592B2F0D12A48B6F8F170264B801BB4
:10150000C15C03F8011F9E45FAD124484FF6FF73D2
:1015100010F8011B81EA132181EA111141EA03232A
:1015200083EA013383EA411360459BB2F0D1B6F8F8
:10153000F110994210F8F13C14D0022B14D19742CB
:1015400012D12B5D05F8013FAE45FAD1134D0424AD
:10155000F32229467F20FFF703FFD0B1013CF7D1EA
:101560000320F8BD022B07D0FFF774FFFFF74AFFF7
:101570000128F5D80220F8BD97420AD0074D04246F
:10158000F32229467E20FFF7EBFE10B1013CF7D194
:10159000E6E70020F8BD00BFC7190020C8190020E9
:1015A00001F8030870B5B24EB24CB34D30460FF09F
:1015B000E9FD2178B1480FF07DFDD4F80100FFF777
:1015C00003F80B460246AE480FF074FDB4F8051060
:1015D000AC480FF06FFD2189AB480FF06BFD94F81C
:1015E0003B10AA480FF066FD94F83C10A84801F0A3
:1015F00003010FF05FFD04F14D01A6480FF05AFD05
:10160000B4F87D10A4480FF055FD04F17F01A34804
:101610000FF050FDB4F8AF10A1480FF04BFD04F1EE
:10162000B101A0480FF046FD04F1C1019E480FF042
:1016300041FD2A78A17A9D48C2F3400201F00101E0
:101640000FF038FD2A78A17A9948C2F38302C1F3DA
:1016500043010FF02FFD6A78A17A9648964D02F06B
:101660000102C1F340110FF025FDD4F80B00FEF785
:10167000ABFF0B46024691480FF01CFDE17B2A7838
:101680008F4801F00101C2F340020FF013FD2A78E8
:10169000E17B8C48C2F38302C1F343010FF00AFDE2
:1016A0006A78E17B884802F00102C1F340110FF033
:1016B00001FDAA7AE17B8548854D02F00102C1F364
:1016C00080110FF0F7FC2069FEF77EFF02460B4603
:1016D00080480FF0EFFC6069FEF776FF0B4602468C
:1016E0007D480FF0E7FC217E2A787C4801F001015B
:1016F000C2F340020FF0DEFC2A78217E7848C2F364
:101700008302C1F343010FF0D5FC6A78217E75484E
:1017100002F00102C1F340110FF0CCFCEA7C217E03
:10172000714802F00102C9090FF0C4FCAA7A217EB7
:101730006E486F4D02F00102C1F380110FF0BAFC48
:10174000D4F81900FEF740FF02460B4669480FF037
:10175000B1FCD4F82100FEF737FF02460B4666487D
:101760000FF0A8FCD4F81D00FEF72EFF0B46024632
:1017700062480FF09FFC94F825102A78604801F029
:101780000101C2F340020FF095FC6A7894F825102D
:101790005C4802F00102C1F340110FF08BFCEA7CBF
:1017A00094F82510584802F00102C9090FF082FC94
:1017B000AA7A94F825105548554D02F00102C1F35C
:1017C00080110FF077FCD4F82600FEF7FDFE0246EC
:1017D0000B4650480FF06EFCD4F82E00FEF7F4FED6
:1017E00002460B464C480FF065FCD4F82A00FEF781
:1017F000EBFE0B46024649480FF05CFC94F83210B1
:101800002A78474801F00101C2F340020FF052FC70
:101810006A7894F83210434802F00102C1F3401193
:101820000FF048FCAA7A94F832103F4802F0010207
:10183000C1F380110FF03EFCD4F83300FEF7C4FE74
:1018400002460B4639480FF035FCD4F83700FEF756
:10185000BBFE02460B4636480FF02CFCB4F8F110E4
:1018600034480FF027FC3046BDE870400FF08ABCCA
:1018700048460108C8190020C81B00206C46010812
:10188000844601089C460108B4460108CC4601087C
:10189000E0460108F4460108084701081C47010812
:1018A0002C470108404701085447010868470108D0
:1018B000844701089C470108B01B0020B847010875
:1018C000D4470108F04701080848010824480108E6
:1018D0008C1B00203C48010858480108704801084A
:1018E0008C480108A4480108C0480108DC480108E8
:1018F000681B0020F8480108144901083049010814
:101900004C4901086849010884490108A0490108B7
:10191000501B0020BC490108D8490108F4490108BE
:10192000104A01082C4A0108484A0108644A010883
:10193000804A01089C4A0108F0B593B00B4600921A
:1019400007460E4615461149024602A80FF056FCFE
:101950000F4B009302A80F4B02224FF47A7100F054
:10196000A1FC012802D0002013B0F0BD0446394686
:1019700009480FF091FE314608480FF08DFE2946C8
:1019800007480FF089FE204613B0F0BDC84A010891
:10199000BC4A0108B8520108170A0020280A002092
:1019A000390A002000B583B0084A0092084B094864
:1019B000022242F2107100F075FCA0F10100B0FAB1
:1019C00080F0400903B05DF804FB00BFBC4A010889
:1019D000E44A0108F04A010810B582B00F4A0092AB
:1019E0000F4B0446022248B10E484FF47A7100F0C2
:1019F00059FC012809D0002002B010BD0A484FF45C
:101A00007A7100F04FFC0128F5D1084B93F8E627D6
:101A100064F3000283F8E62702B010BDBC4A010857
:101A2000B85201081C4B01082C4B01083002002061
:101A30002DE9F04182B01E4F009704460D461D4827
:101A40001646984602221C4B42F2107100F02AFC06
:101A5000012804D00024204602B0BDE8F0814046B1
:101A6000FFF7BAFF204632462946FFF765FF0446D6
:101A70000028EFD0114B124912480097022200F0C3
:101A800011FC01280546E5D10C4B009702224FF4CA
:101A90007A710D4800F006FC084B0C482A464FF4BA
:101AA000FA7100F0FFFB204602B0BDE8F08100BFF4
:101AB000BC4A0108F04A0108E44A0108B85201088A
:101AC000084C0100B04A0108004B01083C4B0108DA
:101AD00010B592B00C460346144A00944021144CB1
:101AE00002A80FF057FB134B0094022242F2107130
:101AF00002A800F0D7FB012814D00E4B0E4800942A
:101B000002224FF47A7100F0CDFB0C4A92F82B3888
:101B1000022B07D013B9002012B010BD012382F8A8
:101B20002B38F8E7012012B010BD00BF4C4B010864
:101B3000BC4A0108B85201080C4B010830020020D1
:101B400008B50948094B012241F2883100F0AAFB8F
:101B5000012801D0002008BD054B93F82B280AB1BD
:101B600083F82B08012008BD6C4B0108B85201080E
:101B70003002002070B5154D154E164B84B0012271
:101B80000096044685F82C281348022240F2DC51C6
:101B900000F088FB012805D0032385F82C380020AD
:101BA00004B070BD204600F041FB0C491A2203A886
:101BB0000FF024FB0A4B009602224FF4FA6103A8AF
:101BC00000F070FB0128E7D1EAE700BF30020020F7
:101BD000BC4A01087C4B0108844B0108944B010866
:101BE000984B0108F0B5144F144A89B0012387F8C7
:101BF0002C380D460B460646142103A80FF0CAFAEE
:101C00000F4B009303A80F4B022240F2DC5100F06F
:101C100049FB012805D00323002087F82C3809B0A0
:101C2000F0BD04462946304600F016FB1E200CF09D
:101C30003DFA204609B0F0BD30020020A44B010857
:101C4000BC4A01087C4B01082DE9F04F264C274F78
:101C5000DFF8A480DFF8A4A00FCC8FB008AE0FC6C9
:101C600094E80300224C86E80300224E07AD0DF1F4
:101C7000340900210097334684F8311B02224FF4C7
:101C8000FA71404600F00EFB012829D14FF0650B98
:101C900006E00CF00BFA0BF1FF3313F0FF0B08D04A
:101CA00094F8313B0820002BF3D001200FB0BDE8A1
:101CB000F08F94F8313B002BF7D14D4510D055F8FB
:101CC000043F5246142103A80FF064FA00973346EC
:101CD00003A802224FF4FA7100F0E4FA0228C8D1F6
:101CE00000200FB0BDE8F08F90450108BC4A010804
:101CF00030020020B85201084C4C01085C4C01082D
:101D000070B5664C94F830335A0782B030D578B944
:101D100094F8312B002A40F0958094F82B2852B388
:101D2000002384F84C3BA4F8313B012002B070BD85
:101D30006FF345135A4E84F8303364200CF0B6F933
:101D4000584B5948009602224FF47A7100F0AAFAD3
:101D50000128054614D055480FF014FA94F8313B89
:101D6000002B40F091805248202200210FF06AFBA6
:101D7000002002B070BD43F0200384F83033CFE779
:101D80002022002104F533600FF05CFB4FF42F702C
:101D90000CF08CF9434B4748009602224FF49671A1
:101DA00000F080FA0228D6D04FF42F700CF07EF9A4
:101DB000FFF74AFF0028CED064200CF077F9394BAA
:101DC0003D482A464FF4FA7100F06CFA012809D018
:101DD00064200CF06BF9334B37482A464FF4FA7104
:101DE00000F060FA14200CF061F92E4B00960222EC
:101DF0004FF49671314800F055FA14200CF056F962
:101E0000284B009602224FF496712D4800F04AFAB2
:101E100014200CF04BF9234B009602224FF49671DC
:101E2000284800F03FFA14200CF040F91D4B0096B2
:101E300002224FF49671244800F034FA32200CF05C
:101E400035F972E71648174B009002224FF47A7169
:101E50001E4800F027FA054632200CF027F994F8C6
:101E60002B382BB994F8303343F0200384F8303307
:101E7000012D3FF455AF16480FF084F9002384F884
:101E80004C3BA4F8313B73E7064B009602224FF41B
:101E90007A710E4800F006FA65E700BF30020020B4
:101EA000BC4A0108B85201086C4C0108A04C01085A
:101EB000600D00203C4C01087C4C0108B44B01082B
:101EC000DC4B0108FC4B01081C4C0108BC4C010810
:101ED000CC4C010800B583B0094A0A4B009244F685
:101EE00020610222084800F0DDF9012805BF074BF8
:101EF0000022002083F85A2603B05DF804FB00BFDF
:101F0000384D01081C4D01082C4D010830020020FD
:101F100000B583B00B4A00920B4B0C4802224FF4E1
:101F20007A7100F0BFF9012805D0022803D0002003
:101F300003B05DF804FB064B83F8D90703B05DF8E6
:101F400004FB00BF6C4D01084C4D0108604D0108B9
:101F50003002002010B5012882B015D002280446B6
:101F600002D0002002B010BD0E4A00920E4B024675
:101F70004FF47A710D4800F095F90128F1D10C4B1E
:101F8000012083F8D947EDE70A4A00920A4B0B4833
:101F900002224FF47A7100F085F901280446E0D15D
:101FA000EDE700BFD44D0108B44D0108C84D01084C
:101FB00030020020A04D0108804D0108944D010819
:101FC00000B583B00B4A00920B4B0C4802224FF431
:101FD0007A7100F067F9012805D0A0F10200B0FA8B
:101FE00080F040094000064B83F8D80703B05DF845
:101FF00004FB00BF0C4E0108E84D0108004E01082B
:1020000030020020012810B5044603D0022810D069
:10201000002010BD02460C4B0C484FF47A7100F0C2
:1020200041F901280446F3D1094B83F8D847012030
:1020300010BD054B074801224FF47A7100F032F9C8
:102040000128E5D1F0E700BF244E0108304E010819
:10205000300200204C4E010810B50C4A0C4B0D4CC0
:102060000D480E4986B0CDE904320D4A0D4BCDE93D
:102070000021CDE9020407224FF47A710A4800F0EA
:1020800011F90A4B83F8D70706B010BD884E010836
:102090009C4E0108B04E0108C44E0108D84E0108FC
:1020A000EC4E0108684E01087C4E01083002002009
:1020B00030B51B4D87B004464FF48072002128468E
:1020C0000FF0C0F922461749002402A805F80A4C6F
:1020D00005F8014C45F8124C45F80E4C45F8234CD8
:1020E00045F81F4C45F81B4C45F8174C05F8134CA8
:1020F00045F8094C45F8054C0FF080F80A4A009263
:102100000A4B02A8022241F2883100F0CBF80128E4
:102110000ABF15F88B0C2046C0F3400007B030BD55
:1021200007090020004F0108BC4A0108B852010805
:1021300030B593B0044602460E4902A80FF05EF88F
:102140000CAD22460C4906A80FF058F822460B4960
:1021500028460FF053F8009506AB022246F2A8116C
:1021600002A800F09FF8A0F10100B0FA80F0400949
:1021700013B030BD104F0108204F0108344F010843
:1021800008B50948094B012241F2883100F08AF86C
:10219000012806D1064B93F89206003818BF01209B
:1021A00008BD002008BD00BF584F01084C4F010872
:1021B0003002002008B50122054B06484FF4FA71A1
:1021C00000F070F8A0F10100B0FA80F0400908BDFD
:1021D000B8520108644F0108F0B595B0CDE901236C
:1021E00004460D4616461F46009103460D4A20211F
:1021F00004A80EF0CFFF2346CDE901670A4A0095F7
:1022000020210CA80EF0C6FF0CAB01224FF4FA718E
:1022100004A800F047F8A0F10100B0FA80F04009EE
:1022200015B0F0BD704F0108884F0108037803B95D
:10223000704710B50446FEF75BF802462146054894
:10224000642392B20BF0A6FDBDE810400A200BF00B
:102250002DBF00BF5016002008B584460A464FF433
:10226000C873044861460BF095FDBDE808400A209C
:102270000BF01CBF5016002010B5044608F016F8ED
:10228000074B1A880021C3E9C201981840F2FE21C9
:102290008A4298BF0132C47098BF1A8010BD00BF37
:1022A000300200200CB42DE9F04F4E4E83B096F86A
:1022B000303300AF9A0797F8304082460D4606D576
:1022C00064200BF0F3FE96F830339B07F8D407F048
:1022D000EDFF05F132031844C6F8400620214FF007
:1022E000904009F0CBF900286DD196F830334FF0CB
:1022F000000843F0020386F8303386F8488607F07A
:10230000D5FF4FEA8409C6F83C064FF420723648E0
:10231000C6F8445641460FF095F809F1070303F457
:10232000FF6307F13402ADEB030D7A60EB468CB12D
:10233000DFF8B4801446ABF1040B914421684BF8EC
:10234000041F0434404640227C6090440FF0A1F802
:102350004C45F3D12548782251460FF09AF896F86B
:102360003C33A3B12148FDF7C3FF02461F49204873
:10237000642392B20BF00EFD0A200BF097FE06E0EC
:102380000A200BF093FE96F848060A3DA8B9002DE6
:10239000F6DC4FF42072002113480FF053F896F842
:1023A00030336FF3410386F8303307F07FFF00F1DD
:1023B000320396F84806C6F840360C37BD46BDE8ED
:1023C000F04F02B07047002220214FF0904009F0FA
:1023D0005BF964200BF06AFE07F068FF6430C6F812
:1023E000400682E730020020EC0500206C0500204A
:1023F000501600202DE9F84F6748684CDFF8B4B15B
:102400000EF0C0FE4FF000080127C14604F2E5754A
:1024100094F83033590709D4B4F82E3833B964200E
:102420000BF044FE94F830335907F5D507F03EFF22
:1024300041F28833A0EB0800984200F28380B4F8A0
:102440002E68002E6BD1564E4FF0000A01E0AE42CE
:102450000CD016F8010F0028F9D0FFF729FE58BB61
:10246000FFF7AEFDAE4286F800A0F2D194F8DB375C
:10247000002B4AD194F84C36DA0727D407F016FF20
:1024800094F830134AF6C87211F0010F42F210733B
:10249000A0EB090018BF1346984203D994F839639A
:1024A000002E53D020214FF0904009F0E7F8D8B12A
:1024B00005200BF0FBFDABE764200BF0F7FD307857
:1024C000FFF736FE64200BF0F1FDC9E708226FF339
:1024D00000034FF4FA7084F85A2684F84C360BF057
:1024E000E5FDFFF7F7FCC9E707F0E0FED4F840365A
:1024F0009842DDD994F830339B06D9D501222021AA
:102500004FF0904009F0C0F8D2E73846FFF7D0FD11
:10251000B0BB0137FFB2962F08BF0027AAE73046AD
:102520000CF0DEFE324682461E490FF0BDF8002355
:1025300050463146A4F82E3805F09AFE50460CF06D
:10254000D7FE80E707F0B2FE804678E74FF001093A
:102550004A46C8215B46144884F83993FFF7A2FE27
:102560004A46124B1248C821FFF79CFEFFF728FD90
:1025700006F03AFD84F8396307F098FE814691E74A
:1025800064200BF093FD3846FFF7D2FD64200BF07A
:102590008DFDFFF715FDBCE7A44F010830020020B8
:1025A0000B0A0020600A0020BC4F0108C84F010838
:1025B000D44F0108B44F010830B5504B504883B098
:1025C0000122C821FFF76EFE4E4B4F480122C82161
:1025D000FFF768FE4D4B4E480122C821FFF762FE0F
:1025E0004C4B4D480122C821FFF75CFE4B4A00923C
:1025F0004B4B4C480222C821FFF754FE01284ED015
:10260000494B4A484A4C0122C821FFF74BFE494B2F
:1026100049480122C821FFF745FE464B47480122A1
:102620004FF47A71FFF73EFE0220FFF7EBFC022029
:10263000FFF790FC00231A46A7211120FFF7CCFDDD
:10264000FFF70AFDFFF764FC94F8D937022B22D17B
:10265000FFF796FDFFF7AEFD94F830133848009071
:1026600041F0200184F83013324B364802224FF4F7
:10267000FA71FFF717FE344B34480122C821FFF7E7
:1026800011FE2C4B324801224FF4FA71FFF70AFE7B
:10269000012003B030BD0220FFF75CFCD8E7044600
:1026A00002462C4B224D2C48C821FFF7FBFD2B4B3B
:1026B0002B4822464FF47A71FFF7F4FD95F830C3AA
:1026C000284B29486FF3451C2246C82185F830C3A2
:1026D000FFF7E8FD012802D0002003B030BD95F8D7
:1026E0003043144B6FF3820402464FF4FA611F48E3
:1026F00085F83043FFF7D6FDEEE700BFE04F010855
:10270000EC4F0108F44F010808500108145001086B
:10271000285001083450010848500108745001083D
:102720005850010868500108DC500108F0500108B9
:1027300030020020B8520108FC5001086C4C01081E
:10274000BC4A01080C510108C84F0108D44F0108C8
:10275000BC4C01088450010898500108A45001089D
:10276000B0500108B8500108C4500108CC5001080D
:10277000F8B5374D95F830336FF3451385F830339E
:1027800000283ED0D8B220F0060040F0040085F8C2
:102790003003304B30480122C821FFF783FD012868
:1027A00047D0012211462D482A4F2B4E08F06CFFCE
:1027B0004FF496600BF07AFC28480022012108F0C3
:1027C00063FF40F6C4100BF071FC95F8303343F012
:1027D000040385F830330A243B460122C8213046E1
:1027E000FFF760FD012804F1FF332ED013F0FF0442
:1027F000F2D195F8303364F3820385F83033012049
:10280000F8BD144B044601221348C821FFF74AFDC6
:102810000128F4D195F83013114B64F3820102467C
:1028200085F830130F484FF4FA61FFF73BFD0120A4
:10283000E6E764200BF03AFCFFF7BEFE95F8303374
:1028400043F0040385F83033F8BDC820F2E700BF39
:1028500030020020B8500108C450010800040048AC
:10286000B8520108CC5001080C4B93F8300310F01B
:10287000040000D1704700B583B0094A0092094BAB
:10288000094802224FF47A71FFF70CFDA0F1010014
:10289000B0FA80F0400903B05DF804FB300200207C
:1028A00028510108B85201081C51010800B51B4A03
:1028B00092F95616B2F84E360029ACBF2B202D20C7
:1028C000002993B0B8BF4942C9B2069192F8551693
:1028D000CDE9041092F8540692F85316CDE902108F
:1028E00092F8520692F850160D4ACDE90010A3F561
:1028F000FA63282108A80EF04DFC0A4A00920A4B00
:1029000002224FF4FA6108A8FFF7CCFCA0F1010005
:10291000B0FA80F0400913B05DF804FB30020020EB
:1029200038510108BC4A0108B8520108F0B5234CDF
:102930008DB04FF435620646002120460EF082FD30
:1029400000251F4B009329461E4B01934FF400773F
:102950006846CDE90357ADF808600BF08BFB1A4BC6
:1029600018600A200BF0A2FB184B06932946184B5F
:10297000079306A80995ADF820600A970BF07AFB3B
:10298000144B024601250A201A600BF08FFB4FF40E
:10299000FD632846A4F84E3684F8505684F8525603
:1029A000FFF7E6FE18B1FEF7FDFF0DB0F0BD2846BB
:1029B000FFF7DEFEFEF7F6FF0DB0F0BD300200209F
:1029C00068510108F52300082C0200207451010809
:1029D0009D32000828020020F0B52DED028BC04E7C
:1029E000C04989B030460EF067FD002800F0E38250
:1029F0002C210EF02FFD01300CF06DFC96F82D33DC
:102A00000128A6F103040CBF43F001036FF3000398
:102A100084F83033B449B2480EF04EFD28B194F832
:102A2000303343F0100384F83033B049AC480EF033
:102A300043FD28B194F8303343F0080384F8303371
:102A4000AB49A7480EF038FD10B1072384F85A3679
:102A5000A849A3480EF030FD90B122210EF0FAFCF7
:102A6000451C222128460EF0F5FC2946421BA248AF
:102A70000EF00FFD94F84C3643F0010384F84C3609
:102A80009E4997480EF018FD38B13A210EF0E2FC4D
:102A900001300CF020FC84F83803994990480EF07E
:102AA0000BFD10B33A210EF0D5FC451C28460CF066
:102AB00012FC2C2128460EF0CDFC451C28460CF0BB
:102AC0000AFC2C210346284684F831330EF0C2FC60
:102AD00001300CF0FDFB8B4B51EC100B0022FDF78D
:102AE000F5FEFEF7C1F8C4F8340387497C480EF0C0
:102AF000E3FC10B1052384F85A36844978480EF077
:102B0000DBFC10B1022384F85A36814974480EF078
:102B1000D3FC10B1032384F85A367E4970480EF076
:102B2000CBFC10B1042384F85A367B496C480EF074
:102B3000C3FC20B194F830335B0700F1278277495A
:102B400067480EF0B9FC28B194F84C3643F0040302
:102B500084F84C36724962480EF0AEFCB8B13A21A6
:102B60000EF078FC8378222B00F1020500F0088239
:102B700028460CF0B0FB2C210346284684F8DB37AE
:102B80000EF068FC01300CF0A6FB84F8DA0765490A
:102B900053480EF091FC054638B194F8D937022B12
:102BA00000F04783012B00F022835F494C480EF070
:102BB00083FC60B12C210EF04DFC851C222128469F
:102BC0000EF048FC2946421B58480EF062FC58495A
:102BD00043480EF071FC002854D022210EF03AFC3C
:102BE00002220546411C03A80EF053FC002703A84F
:102BF0008DF80E700CF06FFB00F5FA600222291DB3
:102C0000A4F84E0603A80EF044FC03A80CF063FBE6
:102C10000222E91D84F8500603A80EF03AFC03A82E
:102C20000CF059FB022205F10A0184F8520603A8B0
:102C30000EF02FFC03A80CF04EFB022205F10D0153
:102C400084F8530603A80EF024FC03A80CF043FB01
:102C5000022205F1100184F8540603A80EF019FCB5
:102C600003A80CF038FB05F1120184F85506032285
:102C700003A80EF00EFC03A80CF02DFBA4F8587668
:102C800084F856062B4916480EF016FC48B12A4B1C
:102C9000002513F8012F002A00F09D8201350A2D2E
:102CA000F7D126490E480EF007FCA0B1244D0023B1
:102CB0002221C6F88F366B60AB60EB602B740EF090
:102CC000C9FB461C222130460EF0C4FB3146821B54
:102CD00028460EF0DEFB1B4901480EF0EDFB33E009
:102CE00033020020C84F01088451010894510108A3
:102CF000A4510108B05101088B080020B44F01080D
:102D0000BC51010800408F40C4510108D051010856
:102D1000E0510108F0510108005201081452010865
:102D2000244E0108205201086C520108AD08002011
:102D300078520108845201080B0A00204C4F010808
:102D4000C20800209052010840B19C4A0192531ED3
:102D500000939B49931E033A0EF070FA99499A48E2
:102D60000EF0AAFB48B1994A99490EF067FA9748C4
:102D7000FDF7BEFA052800F2FE80964992480EF053
:102D80009BFB18B1944A95490EF058FA94498E4825
:102D90000EF092FB18B1934A93490EF04FFA934903
:102DA00089480EF089FB38B1914A0092A2F11103D3
:102DB0009049223A0EF042FA8F4983480EF07CFB8C
:102DC00018B18E4A8E490EF039FA8E497E480EF0BF
:102DD00073FB70B13A210EF03DFB01300CF07BFA31
:102DE00094F8E637002840F0C18060F3000384F8CF
:102DF000E637854974480EF05FFB10B1032384F871
:102E00002B38824970480EF057FB10B1012384F82B
:102E10002B387F496C480EF04FFB10B1012384F82A
:102E20002B387C4968480EF047FB10B1042384F826
:102E30002B38794964480EF03FFB10B1022384F827
:102E40002B38764960480EF037FB10B1022384F826
:102E50002B3873495C480EF02FFB10B1002384F827
:102E60002B38704958480EF027FB10B1002384F826
:102E70002B386D4954480EF01FFB10B1022384F823
:102E80002C386A4950480EF017FB10B1032384F820
:102E90002C3867494C480EF00FFBE0B12C210EF0A6
:102EA000D9FA461C30460CF016FAB0F5407F94BFB4
:102EB00087B24FF4407705464FF03A01304688BF5D
:102EC0003D460EF0C7FA01462A465A4801310EF037
:102ED000EBFBA4F82E7858493B480EF0EDFA002899
:102EE00062D03A210EF0B6FA451C28460CF0F3F9F0
:102EF000C0B284F8310B002840F0AA80012384F886
:102F0000303B4E4930480EF0D7FA10B1022384F816
:102F1000313B4B4E0025F71C96F8BC3306F56F711C
:102F2000384640364BB10EF0C7FA0135EDB20028F5
:102F300040F05B810A2DEFD1034600254FF440722B
:102F40002946214884F8483625800EF07BFA94F80B
:102F5000303365F3410384F8303307F0A7F932309A
:102F6000C4F8400609B0BDEC028BF0BD43F001038C
:102F700084F8E6373DE72044002380F8D236FCE6AB
:102F800028462C210EF066FA451CF1E54FF4356217
:102F900000212B480EF056FA4FF4FA600BF086F839
:102FA0000120FFF7E5FBCAE5264907480EF084FA41
:102FB000002896D1A5E7F41E2CE500BFC10800202B
:102FC0009C520108C052010833020020070900206A
:102FD000CC520108E052010840050020E8520108E7
:102FE000F852010850050020045301081853010845
:102FF000390A002024530108485301084A0A0020D6
:10300000545301086853010874530108845301089C
:1030100094530108A0530108B4530108C853010890
:10302000E44A0108E0530108984B0108F8530108ED
:1030300008540108600A00201054010828540108AF
:10304000300200201C5401088096184B0000C84232
:103050002C2128460EF0FEF92C2101300EF0FAF951
:10306000471C05460422394603A80EF012FA002632
:1030700003A88DF810600CF02EF9691D0222A4F847
:10308000340B03A80EF005FA03A8ADF80E600CF09F
:1030900022F9E91D022284F8360B03A80EF0F9F993
:1030A00003A80CF018F905F10901022284F8380B85
:1030B00003A80EF0EEF903A80CF00DF905F10B01D1
:1030C000022284F8390B03A80EF0E3F903A80CF0F0
:1030D00002F905F10D01022284F83A0B03A80EF063
:1030E000D8F903A80CF0F7F8032205F1100184F8D1
:1030F0003B0B03A80EF0CDF903A80CF0ECF82C2143
:1031000003463846A4F83E3B84F83C6B0EF0A2F927
:10311000451C28460CF0DCF851EC100BFDF7A4FD23
:103120001FED378A07EE900A67EE887A2C21FDEEB4
:10313000E77A284617EE903AC4F8403B0EF08AF939
:10314000451C28460CF0C4F851EC100BFDF78CFD23
:1031500007EE900A67EE887A2C21FDEEE77A284682
:1031600017EE903AC4F8443B0EF074F9451C28461B
:103170000CF0AEF851EC100BFDF776FD1FED4D7A1B
:1031800007EE900A67EE877A0326FDEEE77A17EEE0
:10319000903AC4F8483B28462C210EF05BF9731E88
:1031A00013F0FF0600F10105F5D128460CF093F865
:1031B000072684F8320B28462C210EF04BF9731E9B
:1031C00013F0FF0600F10105F5D128460CF083F855
:1031D00084F84C0B92E62C210EF03CF901300CF0F7
:1031E0007AF8254485F8DC075BE52B46A5E64FF425
:1031F0008072274800210EF025F9264A0023C4F8E2
:10320000C536C4F8B4365360137242F8053C02F870
:10321000013C42F80D3CC4F8CE3642F8093C5374E8
:10322000C2F80D3094F84C3643F0020384F84C3663
:10323000BBE4174F4FF48072002138460EF002F9BC
:10324000A7F12302A7F112032846A7F109010025DF
:10325000009101971049C6F8C25647F8055C47F837
:103260000E5CC6F8B1561D7207F8015CD560157486
:10327000C2E90155C6F8CB560DF0E0FF042894F8DA
:103280004C36D1D065F3410384F84C368DE400BF51
:1032900007090020F50800202C52010808B50F4846
:1032A0000F4C0DF06FFF08E094F8303313F0040F6B
:1032B0000CBF322003200AF0F9FE2388042BF3D937
:1032C00006F0F4FFD4E9C223801A63EB4303152808
:1032D00073F10003E8D3FFF77FFBE5E73054010803
:1032E00030020020024B022283F83923704700BFCE
:1032F00030020020024B002283F83923704700BFC0
:103300003002002010B5074C7F21204607F056FC04
:103310000A2006F0D1FF20460349BDE810400522EF
:1033200007F0BEBBC0180020800D00200000000088
:10333000234A9FED247A1188538890880B44D188C2
:10334000128903440B4413449BB207EE903AF8EE03
:10335000E77A70B567EE877A1B4EFCEEE77AB6F82F
:10336000A83007EE103A17EE903A9BB207EE903A6B
:10337000B8EEC77AF8EE677A77EE677A17EE900ABA
:10338000FDF722F90CA3D3E90023FDF775F90446F4
:10339000B6F8CA000D46FDF705F902460B46204671
:1033A0002946FDF793FA094B0022FCF7AFFFFDF722
:1033B0005BFC00EE100A70BD3333333333331140FE
:1033C000800D0020CDCC4C3E0075FF1F0000394021
:1033D00010B54FEA400C86B008461FFA8CF19C46A7
:1033E000022341F28834019305AB02940093012338
:1033F000644608F0A7FD28B9BDF8143023800120E9
:1034000006B010BD002006B010BD00BF2DE9F0438E
:10341000838CA3F17602012A87B004D900273846AD
:1034200007B0BDE8F08341F2883202920D4600F108
:10343000320259000123CDE90023044689B2806A93
:10344000D02208F07FFD0028E8D194F83230582BC4
:1034500001D0602BE2D1A18C012742F2107205AE9F
:10346000B6230292B940019700968DF81430A06AF5
:1034700089B23B46E02208F03FFC0028CED141F261
:103480008838A18CA06A009649000123CDE9017813
:1034900089B2F32208F056FD9DF8143003F00103C1
:1034A0000343DBB2002BECD1A18CCDF808800227BE
:1034B000490000960197A06A89B20123882208F08A
:1034C00041FD0028AAD1CDE901780096A18CBDF874
:1034D000143023804900A06A89B201238A2208F0AF
:1034E00031FD00289AD1CDE901780096A18CBDF874
:1034F000143063804900A06A89B201238C2208F04D
:1035000021FD00288AD1CDE901780096A18CBDF873
:103510001430A3804900A06A89B201238E2208F0EA
:1035200011FD00287FF47AAFCDE901780096A18CD7
:10353000BDF81430E3804900A06A89B201239022CB
:1035400008F000FD00287FF469AFCDE9017800960E
:10355000A18CBDF8143023814900A06A89B20123EF
:10356000922208F0EFFC00287FF458AFCDE90178F3
:103570000096A18CBDF81400608101239940A06AD7
:10358000942289B208F0DEFC00287FF447AFBDF832
:103590001430A381A16AA08C04F10E039622FFF7D8
:1035A00017FF00283FF43AAFA16AA08C04F1100382
:1035B0009822FFF70DFF00283FF430AFA16AA08CDE
:1035C00004F112039A22FFF703FF00283FF426AF0D
:1035D000A16AA08C04F114039C22FFF7F9FE0028D5
:1035E0003FF41CAFA16AA08C04F116039E22FFF7E2
:1035F000EFFE074600283FF411AF94F83220A38C69
:10360000A06A602A3DD05B00009699B26B786A7917
:103610009B0043EA42138DF8143042F210720123EA
:10362000CDE90132F52208F067FB00287FF4F6AE01
:1036300095F80080AB78EA78B8F1010F08BF2870E0
:103640004FEA830343EA421394F8322008BF8046CE
:1036500048EA0308602AA38CA06A5FFA88F87AD047
:103660005B0042F2107299B20123CDE9013200965B
:10367000F4228DF8148008F03FFB00287FF4CEAED2
:10368000CDE65B004FF0010899B241F2883904F1B0
:1036900018030093CDE901894346A12208F052FCAA
:1036A00000287FF4BBAECDF808900096A18C0223D1
:1036B000019301FA08F1A06A89B24346E12208F0B9
:1036C00041FC00287FF4AAAECDE90189BDF8143091
:1036D000A18C638304F11C03009301FA08F1A06A32
:1036E00089B24346E32208F02DFC00287FF496AE11
:1036F000A16AA08C0DF11203E422FFF769FE0028F5
:103700003FF48CAEA16AA08C3346E522FFF760FE41
:1037100000283FF483AECDE90189A18C04F1220297
:10372000434600929940A06A89B2E72208F00AFC59
:1037300000287FF473AEBDF81430BDF81220A06AE3
:103740001B092384130103F47F63C2F30322134391
:10375000E383A38C57E75B0099B22B798DF8143083
:1037600042F210720123CDE901320096F22208F0F4
:10377000C3FA00287FF452AEA06AA38C70E700BFA2
:1037800030B541F2883287B00125818CCDE90152F4
:103790000DF116030093A940044689B2806A2B46B6
:1037A000F42208F0CFFB10B1002007B030BD9DF827
:1037B0001620A18CA06A42F2107322F003022A4361
:1037C000A94002930DF11703CDE900358DF81620BD
:1037D0008DF8172089B22B46F42208F08DFA0028C4
:1037E000E2D1284607B030BD10B5818C806A86B022
:1037F00001230DF1170241F2883499400092CDE97E
:10380000013489B2F32208F09DFB10B1002006B00C
:1038100010BD9DF81700C0F3C00006B010BD00BF7A
:103820002DE9F04F044690F832008FB060288846AA
:1038300005921E4600F053810BB10023336006232E
:10384000002601930CAB0093A18C41F28832012336
:1038500002929940A06A89B2F72208F073FB00280F
:1038600040F039819DF834309DF833209DF83510B3
:10387000B4F90AC09DF8307006971B0143EA023381
:10388000228843EA1111C2EB131303FB03F5B4F9C9
:1038900004302D1303FB05F55200B4F90230C2EBDE
:1038A000D10203FB02F2AD1305EBE22505EB85091E
:1038B00009F180094FEA2929E188B4F90820C8F8FC
:1038C00000909DF83180CDF81C809DF83280CDF8B5
:1038D0002080B4F91080CDF82480B4F90E80CDF8A2
:1038E0002880A5F5FA3EB4F90C80CDF82C808EFB2B
:1038F0000E894FEAEC7B0CFB09FA82FB0E2308FBD6
:103900000BAAACFB08CBD3441B034FEA1C2C43EAA5
:1039100012534CEA0B6C12031CEB020C43EB2B23EF
:1039200003F50043ACFB01C201FB0321CB174A1096
:1039300053EA610100F08A800899079F090941EA6A
:103940000711069F41EA07310A9F87FB0EEC099F8A
:103950004FEA4C4C07FB09F94FEAE77A4CEADE3CA8
:1039600008FB0A9A4FEA4E4EA7FB08981EEB090E79
:10397000C1F58011C2444AEB0C0A0B9F10EB0E00FC
:1039800001F0004E4EEA510EC907B1EB00080AEBF8
:10399000C70A6EEB0A0E18EB080C4EEB0E011CEB7F
:1039A000080C4EEB010188014FEA8C1940EA9C603B
:1039B0001CEB090C41EB0001890041EA9C714FEAC4
:1039C0008C0C1CEB080C4EEB01014FEA8C008900BB
:1039D00010EB080041EA9C714EEB0101FDF7A2FAE1
:1039E000B4F9162084464FEA5C3E48134EEAC14EB5
:1039F000D31702FB00F80EFB0389A2FB0E2802FB83
:103A000000F0C8440EFB0800A2FB0E2E8644520EA6
:103A1000B4F9143042EACE1212EB0C0041EB6E62A4
:103A200003FB01F14FEAE37E0EFB0C11A3FB0C3C00
:103A30006144DB0C43EA4133C01842EBE142B4F984
:103A40001230000A40EA026000EB0310059B186088
:103A5000002E3CD0BDF83630B4F91E2094F9221067
:103A60005BBA9BB21205C2EB8332B4F92030A5F5E4
:103A7000963505FB1322237F05FB03F3DB1205FBC1
:103A800001F1891203F5004301FB03F39B12B4F922
:103A90001A1003F5001301FB03F302F5804203F54E
:103AA0000053D2139B1302FB03F3DA13217E02FBB4
:103AB00002F2D21101FB02F2A3EB221323EAE37319
:103AC000B3F1C85FA8BF4FF0C8531B133360012088
:103AD0000FB0BDE8F08F00200FB0BDE8F08F002BD5
:103AE0003FF4ADAE0823ACE670B50D4684B0164683
:103AF00013B31C4602AA03AB01A9FFF791FE10B94C
:103B0000002004B070BDDDED017A9FED177AF8EE6C
:103B1000E77AC7EE876A9DED027ADDED037AC5ED9F
:103B2000006ABBEECC7AFBEECB7A86ED007AC4ED70
:103B3000007A012004B070BD02AA01A9FFF770FE4F
:103B40000028DDD0DDED017ADFED076AF8EEE77AD7
:103B500087EEA67ADDED027A85ED007AFBEECC7A6F
:103B6000C6ED007AE5E700BF0000C84270B5154811
:103B7000154E0DF09FFA052540F2DC530322D621A5
:103B8000304608F0FDFA044632200AF08FFA4FF46E
:103B9000FA7044B10AF08AFA013DEDD10B480DF0FC
:103BA000F1FA284670BD0A480DF0ECFAD6238022BF
:103BB0002E21054805F068FE01200AF077FA012061
:103BC00070BD00BF4454010800180020645401086F
:103BD0005C54010800B583B0D6230DF106023B21E9
:103BE000044805F03BFEBDF8060005F0CBFE03B02F
:103BF0005DF804FB0018002000B583B0D6230DF15A
:103C000006023D21044805F029FEBDF8060005F036
:103C1000B9FE03B05DF804FB0018002000B583B0C6
:103C2000D6230DF106023721044805F017FEBDF832
:103C3000060005F0A7FE03B05DF804FB00180020A5
:103C400000B583B0D6230DF106023921044805F0F2
:103C500005FEBDF8060005F095FE03B05DF804FB17
:103C60000018002000B583B0D6230DF106023121E3
:103C7000044805F0F3FDBDF8060005F083FE03B02F
:103C80005DF804FB0018002000B583B0D6230DF1C9
:103C900006023321044805F0E1FDBDF8060005F0F9
:103CA00071FE03B05DF804FB0018002000B587B07A
:103CB00001230DF117024FF4FA71CDE901310092A1
:103CC000D6210022084808F03DF99DF8173003F08E
:103CD0003F03C3EB431203EB8200400000F6C41025
:103CE00080B207B05DF804FB0018002000B583B077
:103CF000D6230DF106020121064805F0AFFDBDF8FF
:103D0000060005F03FFE00EB8000400080B203B0EB
:103D10005DF804FB0018002000B583B0D6230DF138
:103D200006020321064805F099FDBDF8060005F0DE
:103D300029FE00EB8000400080B203B05DF804FB78
:103D4000001800200246D623024802F03F0200215C
:103D500005F09ABD00180020074B10B5A3FB0030FA
:103D6000C00805F00FFEBDE810400246D623034808
:103D7000012105F09DBD00BFCDCCCCCC00180020AA
:103D8000074B10B5A3FB0030C00805F0FBFDBDE8F4
:103D900010400246D6230348032105F089BD00BF29
:103DA000CDCCCCCC001800200246D62301480521FA
:103DB00005F06ABD0018002010B505F0E3FDBDE870
:103DC00010400246D6230248062105F071BD00BF0F
:103DD000001800200246D6230148102105F054BDEA
:103DE000001800200246D6230148182105F04CBDDA
:103DF0000018002010B50C4C82B0D6230DF107023C
:103E00001021204605F016FD0DF1070001220321C7
:103E100005F064FD9DF80720D6231021204605F00B
:103E200033FD02B010BD00BF0018002030B50C4DAE
:103E300083B0D62304460DF107021521284605F06C
:103E4000F9FC22460DF10700002105F047FD9DF821
:103E50000720D6231521284605F016FD03B030BDF6
:103E60000018002038B50D4D0D4C2B882288934248
:103E700009D00C49114407D99A1A0B4892B209F09B
:103E800055FB2B88238038BDC2F50062064892B2EC
:103E900009F04CFB0023238038BD00BFD20D002069
:103EA000D00D0020D40D0020D4160020024B8342F8
:103EB00000D07047FFF7D6BFD4160020F0B5124BE4
:103EC000124C1F882688101E83B00EDD0139104D5C
:103ED0000A18334611F801EF05F803E003F1010C6D
:103EE000CCF30A038A422380F4D1BE4201D003B04E
:103EF000F0BD084B9B6F212BF9D00190FFF7B2FF6B
:103F0000019803B0F0BD00BFD00D0020D20D0020FD
:103F1000D40D0020D416002038B50D4B984204462D
:103F200003D00C4B9C4207D038BD0B4940220AF00D
:103F300071F8084B9C42F7D1084D2878FEF79CF9A0
:103F4000294620460122BDE838400AF063B800BF88
:103F5000D416002050160020D8150020D4150020BB
:103F600038B50D4B9842044603D00C4B9C4207D009
:103F700038BD0B4940220AF04DF8084B9C42F7D15E
:103F8000084D2878FEF778F9294620460122BDE839
:103F900038400AF03FB800BFD41600205016002069
:103FA000D8150020D4150020F0B5124E3378DBB1BF
:103FB000114C374645428446BE4605E09CF8013028
:103FC000A3B11EF8013F8C46E25C614602F0030299
:103FD000012A11F8012B08BF20339A42EED017F8BE
:103FE000013F0135002BE6D11846F0BD654401358F
:103FF0007019F0BD900D002069750108F8B50778BB
:10400000202F08BF4778064608BF0136F7B13D4666
:10401000002404E016F8015F0CEB40043DB1A5F16B
:10402000300C5FFA8CF0092804EB8400F2D92D2FB4
:1040300000D16442944201DB9C4204DD04480DF04F
:10404000A1F83046F8BD0C603046F8BD3C46F1E7BB
:104050007054010870B50478049E202C08BF01300C
:10406000002B26DDC518844603E00A2C09D0AC4598
:104070000ED01CF8014BACEB000E0D2C0EF1FF3EE8
:10408000F3D17245F3DDBDE870400D480DF07AB80C
:1040900001380C46CD1803E00A2B08D0AC4208D0FA
:1040A00010F8013F0D2B224604F8013BF4D1002308
:1040B00013700A4603483146BDE870400CF0FABF61
:1040C0007C5401088854010830B52DED028B03782B
:1040D000202B83B00446B0EE408AF0EE608A0D4695
:1040E00003D114F8013F202BFBD001A920460BF08F
:1040F000C9FFB4EEC80AF1EE10FA04DBB4EEE80A28
:10410000F1EE10FA07D907480DF03CF8204603B04D
:10411000BDEC028B30BD204685ED000A03B0BDEC3E
:10412000028B30BD7054010830B5354D354883B031
:1041300000242B462246CDE900450CF0BBFF324857
:104140000CF0B8FF314B1B78032B06D8DFE803F0E7
:104150005450024C2E480DF015F8FFF7E9F810EE18
:10416000100AFCF731FA02460B462A480CF0A2FF6F
:10417000FFF730FD014628480CF09CFFFFF74EFD8D
:10418000014626480CF096FFFFF75AFD01462448E9
:104190000CF090FFFFF730FD014622480CF08AFF3B
:1041A000FFF760FD014620480CF084FFFFF76CFD2F
:1041B00001461E480CF07EFFFFF778FD01461C48C3
:1041C0000CF078FFFFF792FD01461A480CF072FFE1
:1041D000FFF7A2FD014618480CF06CFF174803B02A
:1041E000BDE830400CF0CEBF15480CF0CBFFB4E773
:1041F00014480CF0C7FFB0E713480CF0C3FFACE75E
:104200000000F03F94540108B8540108D71B002067
:10421000D4540108F8540108145501082455010824
:1042200034550108445501085855010868550108DE
:104230007C550108A0550108C4550108E86901082A
:10424000E8540108B4730108CC540108D0B53B4FC1
:104250003B483C4C82B0002632463B46CDE90067E5
:104260000CF028FF38480CF08DFF38480CF08AFF1E
:1042700037480CF087FF37480CF084FF36480CF0C5
:1042800081FF36480CF07EFF35480CF07BFF354847
:104290000CF078FF34480CF075FF20460CF072FFEC
:1042A00032480CF06FFF32480CF06CFF31480CF0D4
:1042B00069FF31480CF066FF30480CF063FF204680
:1042C0000CF060FF2E480CF05DFF2E480CF05AFFFA
:1042D0002D480CF057FF20460CF054FF2B480CF0F3
:1042E00051FF2B480CF04EFF2A480CF04BFF2A4898
:1042F0000CF048FF29480CF045FF29480CF042FF1C
:1043000028480CF03FFF28480CF03CFF27480CF0F1
:1043100039FF27480CF036FF26480CF033FF2648BB
:104320000CF030FF20460CF02DFF24480CF02AFF43
:10433000204602B0BDE8D0400CF024BF0000F03FA2
:1043400094540108E8690108E8550108F855010886
:104350003456010880560108D45601082857010830
:1043600074570108C457010800580108385801085B
:104370004C580108705801089C580108C0580108A1
:10438000E4580108F45801083C5901088059010813
:104390009059010898590108A4590108D8590108F1
:1043A000FC590108245A0108445A01085C5A0108C2
:1043B000945A0108BC5A0108F85A01085C5B0108CC
:1043C0002DE9F047AC4C2DED028B23683F2B86B0D6
:1043D00003D8AA495A1CC85422600A2804D006B03F
:1043E000BDEC028BBDE8F0872368A44D581E002168
:1043F0002A5C0D2A18BF1846C0F1400228440DF06F
:1044000021F800239E482360FFF7CEFD6B1C8342FA
:1044100000F0DA809B48FFF7C7FD2E1D864200F0B2
:10442000D3809948FFF7C0FD05F10608804500F0EC
:10443000E3809648FFF7B8FD05F10709814500F0D4
:10444000E2809348FFF7B0FD05F10B04844200F0D1
:10445000C2809048FFF7A8FD844200F0E6808E48B5
:10446000FFF7A2FD05F10A07874200F0E5808B48BF
:10447000FFF79AFD874200F0EA808948FFF794FD34
:1044800005F10C0A824500F0E7808648FFF78CFDB5
:10449000844200F047818448FFF786FD804508BFCD
:1044A000012000F0BB808148FFF77EFD814500F0D0
:1044B000B4807F48FFF778FD874200F062827D4834
:1044C0007D4DFFF771FD854200F076827B48FFF756
:1044D0006BFD844200F077827948FFF765FD8742E3
:1044E00000F07F827748FFF75FFD854200F0808211
:1044F0007548FFF759FD854277D07448FFF754FDA2
:10450000814500F0D7827248FFF74EFD824500F0EA
:10451000D8827048FFF748FD6F4B834200F0F58268
:104520006E48FFF741FD864200F02C816C48FFF792
:104530003BFD6C4B984205467FF451AF6A48FFF74C
:1045400033FD00283FF44BAFA0427FF448AF6749EA
:104550000CF0B2FF0646002840F043836449204631
:104560000CF0AAFF002840F05A83624920460CF064
:10457000A3FF00283FF433AF0B355F4928460CF00A
:104580009BFF0646002840F088835C4928460CF0D3
:1045900093FF00283FF423AF594C5A4AE3795A4815
:1045A000022161F3430301211170E3710CF0EAFD74
:1045B000564B1E8003F012F8208906B0BDEC028B2A
:1045C000BDE8F04702F068BF06B0BDEC028BBDE865
:1045D000F047FFF73BBE4E480CF0D4FD06B0BDECF3
:1045E000028BBDE8F047FCF735BF06B0BDEC028B8F
:1045F000BDE8F04703F0CABD06B0BDEC028BBDE8D4
:10460000F047FFF791BD4348A022382106B0BDEC2A
:10461000028BBDE8F04705F07FB9002006B0BDEC85
:10462000028BBDE8F047FEF7A3B806B0BDEC028BE5
:10463000BDE8F047FCF7B6BFFCF73AFF0146364845
:1046400006B0BDEC028BBDE8F0470CF033BDFCF7C3
:10465000D9FE01463148F3E705A943F69823002225
:104660000AF10100FFF7CAFC059B254A2C48A2F875
:10467000053099B2E4E700BF8C0D0020900D0020BA
:104680007C5B0108805B0108885B0108905B010886
:10469000985B0108C05B0108CC5B0108005C010865
:1046A0004C5C01086C5C01088C5C0108945C01089E
:1046B0009C5C0108E05C0108990D0020EC5C01089D
:1046C000085D0108145D01083C5D0108485D0108B2
:1046D000505D0108885D0108980D0020C85D010843
:1046E000B8650108950D0020C0650108C86501087E
:1046F000F065010818660108206601085066010887
:10470000C8190020BA1900202466010818160020D4
:10471000A45B0108AC170020D85B01080C5C010801
:104720005C5C01082B7BB448202B03D110F8013FBF
:10473000202BFBD005A90BF0A5FCFAEE047AB4EE11
:10474000E70AF1EE10FAB0EE408AC0F22D81F2EEE7
:10475000047AB4EEE70AF1EE10FA00F2258110EEC9
:10476000100AFBF731FF02460B46A44CA44818EE92
:10477000101AC4F8011006B0BDEC028BBDE8F0477A
:104780000CF098BC9F48FFF70FFC002840F0A48174
:104790009D48FFF709FC0546002840F0CF819B4863
:1047A000FFF702FC0646002840F0DA819848FFF740
:1047B000FBFB002840F0EF819648FFF7F5FB05462C
:1047C000002840F04A829448FFF7EEFB002840F0B2
:1047D0004D829248FFF7E8FB002840F0878290481E
:1047E000FFF7E2FB002840F06E828E48FFF7DCFB0B
:1047F000002840F08D828C48FFF7D6FB002840F05F
:104800007E828A48FFF7D0FB10B1A04200F0CC8234
:104810008748FFF7C9FB10B1B84200F06D858548A5
:10482000FFF7C2FB002800F05F83A0427FF4D7AD02
:104830008148FFF7B9FB70B18049704C0B78227E3C
:104840007F4842F0010243F0020322760B700CF025
:1048500099FCFCF7D7FD7B48FFF7A6FB70B16749D1
:10486000764B0C7E1A7878486FF341026FF30004A0
:104870000C761A700CF086FCFCF7C4FD7348FFF749
:1048800093FBF0B10523002205A94FF0FF347048D7
:104890000594FFF7B3FB5949684B059C087E1A78CD
:1048A00004F00F0565F3440065F385020876E0B275
:1048B0001A7001F0C9FF214666480CF0FBFBFCF7BB
:1048C000A1FD6548FFF770FB044618B1634B9842A1
:1048D00000F05D846248FFF767FB044618B1614B46
:1048E000984200F09C846048FFF75EFB0446002875
:1048F0003FF475AD5D4B98427FF471AD5C490CF0AF
:10490000DBFDB8B1F2EE040ABAEE040A05A9E01D17
:10491000FFF7DAFB494B39490598C3F80F00C1F896
:104920001D00FBF751FE02460B4652480CF0C2FB3D
:10493000FCF768FD50494D480CF0BEFD70B13F4991
:104940002E4C8B7A227E4D4842F0400243F0010308
:1049500022768B720CF016FCFCF754FD4849434854
:104960000CF0AAFD00283FF43AAD2449334B0C7EED
:104970009A7A44486FF386146FF300020C769A72A9
:10498000A9E2414A414811460023FDF751F8404A47
:10499000404B014600290CBF114619463E480CF019
:1049A00089FB3E493E484BE63E489FED3F8A0CF06E
:1049B000E9FB00220023D8E606B0BDEC028BBDE87F
:1049C000F047FCF7EFBF394844F6A671FDF780F8D1
:1049D0002F4A304B014600290CBF114619462E487C
:1049E0002EE606B0BDEC028BBDE8F047FDF7A8B897
:1049F0002F48FDF7BFF8EBE79C0D0020C8190020F9
:104A0000785C0108D05D0108F45D0108185E0108BA
:104A10005C5E0108C05E0108D85E0108FC5E01080A
:104A2000105F01082C5F0108485F0108645F0108FE
:104A300060600108886101086C5F01088C1B002020
:104A4000906101088C5F0108A8610108AC5F010852
:104A5000A00D0020C0610108D45F0108A70D00204F
:104A600040620108A10D0020206101089F0D002077
:104A7000E45F0108B062010810600108D06201081B
:104A800038600108F46201089C550108A85C01081F
:104A9000745B0108705B0108B45C01084A0A0020DD
:104AA000C45C01087054010800000000F85C0108B3
:104AB000205D010806B0BDEC028BBDE8F04704F0B4
:104AC0007FBA9A499A4891F84C4B01F534610EC966
:104AD00000940CF0EFFA82E44FF4B4634FF0FF342B
:104AE0000F2205A90594FFF789FA059B0E2B7FF786
:104AF00076AC904A90480733A2FB0323DB088F4A29
:104B0000C3EB031399B213819AE5FDF7ADFE874914
:104B10008B4891F9562691F8553691F85446CDE9CF
:104B2000023291F8532691F85236CDE9002491F8DB
:104B30005026B1F84E160CF0BDFA50E4FA234FF0AF
:104B4000FF34012205A90594FFF758FA059B002BB5
:104B50007FF745AC794A7B4882F83B30D9B26FE5A4
:104B60004FF0FF3402232A4605A90594FFF746FAC1
:104B7000059C002C40F38D80012C00F09A80022CC3
:104B800000F09B80704B00221A806C4BDA7964F342
:104B90004302DA7123E403234FF0FF34324605A9C0
:104BA0000594FFF72BFA059B002BFFF618AC634A20
:104BB00092F83C1003F0030363F30101022B82F827
:104BC0003C1000F0B080032B00F0AB80012B14BF31
:104BD0005E485F4806B0BDEC028BBDE8F0470CF0C4
:104BE000D1BA564C4FF0FF3005A905904FF4FA7337
:104BF000012205F10A00FFF701FAE2790599554D06
:104C000055482980012363F34302E271534A03604C
:104C100089B20023524813700CF04CFACCE44FF0E8
:104C2000FF3005A905904FF4FA73012205F10A003F
:104C3000FFF7E4F9494B474A404C05991E70464B33
:104C4000118001221A60E3794648022262F343038D
:104C500089B2E3710CF02EFAAAE4434B0093434966
:104C600030230122FFF7F6F9FFF7B9BB4FF6FF73C8
:104C70004FF0FF342A4605A90594FFF7BFF9059BBD
:104C8000002BFFF6ACAB2D4A3948A2F87D3099B223
:104C9000D6E438480CF076FA77E7284C2F49E379C8
:104CA0003548012262F343030A70E3710CF06AFA9B
:104CB00082E432480CF066FA64E731480CF0FAF905
:104CC00002F08CFC5EE74FF6FF734FF0FF340022DA
:104CD00005A90594FFF792F9059B002BFFF67FAB22
:104CE000164A2848A2F8AF3099B2A9E4264B00939F
:104CF000264930230122FFF7ADF9FFF770BB244BA3
:104D00000093244910230122FFF7A4F9FFF767BBA2
:104D1000214B0093214910230122FFF79BF9FFF754
:104D20005EBB1F4856E71F4854E700BF3002002013
:104D3000605D010889888888DC5D0108C819002049
:104D4000945D0108005E0108181600206C5E0108E1
:104D5000785E0108BE19002094190020BA190020BD
:104D6000D0650108F8650108CC5E0108151A00201D
:104D7000E85E01084C5E010824660108245E010813
:104D8000385E01081C5F0108085F0108471A00200F
:104D9000545F0108891A0020385F0108791A002041
:104DA000A45E0108905E0108B148FFF7FDF870B1FC
:104DB000B049B14A8B7AB14843F001038B72137842
:104DC00043F0020313700CF0DDF9FCF71BFBAC4859
:104DD000FFF7EAF870B1A74AA74B917AA9486FF399
:104DE000000191721A786FF341021A700CF0CAF93F
:104DF000FCF708FBA448FFF7D7F8F8B14FF0FF30F5
:104E00000323002205A90590A048FFF7F7F8994968
:104E1000994B059D8E7A1A7805F00F0060F3850294
:104E200060F344061A708E7204F068FE984B2946AF
:104E3000188098480CF03EF9FCF7E4FA9648FFF722
:104E4000B3F8054600283FF4E3AC944B98427FF456
:104E5000DFAC93490CF030FBB8B1F2EE040ABAEEC5
:104E6000040A05A9E81DFFF72FF9834B814905982E
:104E7000C3F80600C1F80B00FBF7A6FB02460B4681
:104E800088480CF017F9FCF7BDFA874983480CF005
:104E900013FB70B17849774C4B78A27A834842F083
:104EA000200243F00103A2724B700CF06BF9FCF787
:104EB000A9FA7F4979480CF0FFFA00283FF48FAA3D
:104EC0006C496D4B8C7A5A787A486FF345146FF3BE
:104ED00000028C725A700CF055F906B0BDEC028BD2
:104EE000BDE8F047FCF78EBA7348FFF75DF810B1E4
:104EF000A04200F09E827148FFF756F800283FF468
:104F000015ABA0427FF412AB5948FFF74DF880B1C2
:104F100058486B4990F832200B7842F0010243F078
:104F2000020380F8322067480B700CF02BF9FCF775
:104F300069FA5348FFF738F880B14E49604B91F851
:104F400032001A786FF300006FF3410281F83200EB
:104F50005D481A700CF016F9FCF754FA4A48FFF74E
:104F600023F850B30823002205A94FF0FF35474826
:104F70000595FFF743F83F4A059D92F83210504BD4
:104F800005F00F0060F3440182F832101A7860F3E4
:104F900085021A7001F034F84C4A0346DBB21370F4
:104FA0004B4A002010704B4A137000F0AFFE2946A8
:104FB00049480CF07FF8FCF725FA3748FEF7F4FF74
:104FC000054618B1354B984200F096804348FEF7ED
:104FD000EBFF054600283FF4A9AA414B98427FF415
:104FE000A5AA2F490CF068FAB8B1DFED3E0A9FED93
:104FF0003E0A05A9E81DFFF767F8314B1D490598E2
:10500000C3F80F00C1F83700FBF7DEFA02460B4683
:1050100036480CF04FF8FCF7F5F9234930480CF00E
:105020004BFA80B12649134C8B7A94F832203048E1
:1050300042F0400243F0010384F832208B720CF0FE
:10504000A1F8FCF7DFF91A4925480CF035FA0028D9
:105050003FF4C5A907491A4B91F832409A7A25487E
:105060006FF386146FF3000281F832409A7232E7D0
:105070006C5F0108C8190020C81B0020745F01087C
:105080008C5F0108945F0108AC5F0108A00D00204F
:10509000B6190020B45F0108D45F0108A70D0020F5
:1050A000E45F0108EC5F010810600108146001086A
:1050B000386001083C600108186301088C6401082D
:1050C000501B002094640108AC640108B219002050
:1050D000B5190020B4190020C46401084062010819
:1050E000A10D00200000FA430000FAC3506501083A
:1050F00070650108946501086C490CF0DDF9B8B1E0
:10510000F2EE040ABAEE040A05A9E81DFEF7DCFF78
:10511000674B68490598C3F83300C1F80600FBF7F0
:1051200053FA02460B4664480BF0C4FFFCF76AF9D9
:10513000624963480CF0C0F980B15D485D4990F860
:1051400032204B7842F0200243F0010380F83220F5
:105150005C484B700CF016F8FCF754F95A49584863
:105160000CF0AAF900283FF431AF5149514B91F8A6
:1051700032005A786FF345106FF3000281F8320065
:1051800052485A700BF0FEFFFCF73CF91EE7474906
:105190000CF092F9B8B1F2EE040ABAEE040A05A9CD
:1051A000E01DFEF791FF4A4B41490598C3F8060000
:1051B000C1F81900FBF708FA02460B4645480BF008
:1051C00079FFFCF71FF93D493D480CF075F970B1C6
:1051D0003F49374C4B78227E3F4842F0200243F053
:1051E000010322764B700BF0CDFFFCF70BF936492B
:1051F00033480CF061F900283FF46CAB2C49344B78
:105200000C7E5A7835486FF300026FF345140C7624
:105210005A700BF0B7FFFCF7F5F8FFF75BBB2349BB
:105220000CF04AF9B0B1DFED2E0A9FED2E0A05A968
:10523000E01DFEF749FF264B1D4905989861C1F80E
:105240002100FBF7C1F902460B4627480BF032FF5D
:10525000FCF7D8F8194925480CF02EF970B11C4913
:10526000134CCB7C227E224842F0800243F00103A3
:105270002276CB740BF086FFFCF7C4F812491B486A
:105280000CF01AF900283FF42EAB0949104B0C7EA4
:10529000DA7C18486FF300026FF3C7140C76DA74E7
:1052A0000BF070FFFCF7AEF8FFF71DBBE45F0108E1
:1052B000C8190020501B0020E46401081060010898
:1052C000A70D002008650108386001082C65010859
:1052D0008C1B0020D4610108F86101081C620108E0
:1052E0000000FA430000FAC348620108A10D002043
:1052F000686201088C620108A548FEF755FE70B18E
:10530000A448A549C27B0B7842F0010243F0020396
:10531000C273A2480B700BF035FFFCF773F8A0487E
:10532000FEF742FE70B19B499B4BC87B1A786FF326
:1053300000006FF34102C8739A481A700BF022FF05
:10534000FCF760F89848FEF72FFEE0B10123002239
:1053500005A94FF0FF3595480595FEF74FFE8D4A9C
:105360000599D57B8C4B01F00F0060F34405D57394
:105370001A788F4D60F385028E481A7029700BF0F1
:1053800099FEFCF73FF88C48FEF70EFE054618B173
:105390008A4B984200F082818948FEF705FE054657
:1053A00000283FF43CAA874B98427FF438AA8649EC
:1053B0000CF082F8B0B1F2EE040ABAEE040A05A9C4
:1053C000E81DFEF781FE744B72490598C3F80F0083
:1053D0004861FBF7F9F802460B467C480BF06AFE81
:1053E000FCF710F87A4977480CF066F870B16A4912
:1053F000684C8B7AE27B774842F0400243F001032D
:10540000E2738B720BF0BEFEFBF7FCFF72496D4836
:105410000CF052F800283EF4E2AF5E495E4BCC7BC4
:105420009A7A6E486FF386146FF30002CC739A7207
:1054300051E55748FEF7B8FD80B15648684990F8E5
:1054400025200B7842F0010243F0020380F825206A
:1054500064480B700BF096FEFBF7D4FF5048FEF744
:10546000A3FD80B14B495E4B91F825001A786FF38C
:1054700000006FF3410281F825005B481A700BF0C1
:1054800081FEFBF7BFFF4848FEF78EFDE0B10A231F
:10549000002205A94FF0FF3554480595FEF7AEFDF3
:1054A0003C4A059892F825504D4B00F00F0161F3EE
:1054B000440582F825501A78C0B261F385021A704B
:1054C00004F0D2FDFBF79EFF3B48FEF76DFD05465D
:1054D00018B1474B984200F027814648FEF764FD1B
:1054E000054618B1444B984200F08E803448FEF7D0
:1054F0005BFD054600283FF4FEAC2C4B98427FF440
:10550000FAAC31490BF0D8FFB8B1F2EE040ABAEEAA
:10551000040A05A9E81DFEF7D7FD314B1D49059882
:10552000C3F80F00C1F82A00FBF74EF802460B46FD
:1055300032480BF0BFFDFBF765FF25491B480BF018
:10554000BBFF80B12649134C8B7A94F825202C4858
:1055500042F0400243F0010384F825208B720BF0E7
:1055600011FEFBF74FFF1C4910480BF0A5FF002868
:105570003EF435AF07491A4B91F825409A7A2148F5
:105580006FF386146FF3000281F825409A72A2E44B
:105590006C5F0108C8190020B01B0020686001087A
:1055A0008C5F010880600108AC5F01089F0D00203E
:1055B000B019002098600108D45F0108A60D0020F2
:1055C000206101089E0D0020E45F010828610108A8
:1055D000106001084861010838600108686101082D
:1055E000681B00202063010838630108A00D00201B
:1055F000A70D002040620108A10D002024640108CD
:1056000044640108686401086D490BF055FFB0B1AE
:10561000DFED6C0A9FED6C0A05A9E81DFEF754FD4D
:105620006A4B6B490598C3F82E008861FAF7CCFFE6
:1056300002460B4667480BF03DFDFBF7E3FE66496B
:1056400066480BF039FF80B16048614990F8252029
:10565000CB7C42F0800243F0010380F825206048B3
:10566000CB740BF08FFDFBF7CDFE5E495B480BF072
:1056700023FF00283FF43AAF5449554B91F82500D9
:10568000DA7C6FF3C7106FF3000281F825005648EB
:10569000DA740BF077FDFBF7B5FE27E748490BF00E
:1056A0000BFFB0B1F2EE040ABAEE040A05A9E81D38
:1056B000FEF70AFD454B4D4905981861C1F80600F3
:1056C000FAF782FF02460B4649480BF0F3FCFBF762
:1056D00099FE414947480BF0EFFE70B13B48434902
:1056E000C27B4B7842F0200243F00103C273424870
:1056F0004B700BF047FDFBF785FE3A493D480BF038
:10570000DBFE00283FF448AE3049384BC87B5A785E
:105710006FF345106FF30002C87338485A700BF0EE
:1057200031FDFBF76FFE37E625490BF0C5FEB8B13A
:10573000F2EE040ABAEE040A05A9E81DFEF7C4FC5D
:10574000224B23490598C3F82600C1F80600FAF752
:105750003BFF02460B462A480BF0ACFCFBF752FE1F
:105760001D4928480BF0A8FE80B11848184990F848
:1057700025204B7842F0200243F0010380F82520D9
:1057800021484B700BF0FEFCFBF73CFE15491D4811
:105790000BF092FE00283FF4A0AE0C490C4B91F8A0
:1057A00025005A786FF345106FF3000281F8250049
:1057B00016485A700BF0E6FCFBF724FE8DE600BF9E
:1057C000E45F01080000FA430000FAC3C819002092
:1057D000681B0020BC63010810600108A10D0020B7
:1057E000DC6301083860010800640108B01B002078
:1057F000B8600108A60D0020D8600108FC6001080F
:1058000050630108A70D0020746301089863010824
:10581000154AB2F85A302DE9F041B2F85840134E0B
:105820009BB2E41A32884034A41A634203F03F0367
:1058300004F03F0458BF5C42A4B294B100250C4F61
:10584000A84600E03288B85C531C9BB23F2B05F1A0
:105850000105338088BFA6F80080FEF7B1FDA542A0
:10586000F0D1BDE8F08100BFD4160020D61500208D
:10587000D8150020084B9A6A22F480529A629A6CDA
:1058800042F480529A649B6C82B003F4805301937B
:10589000019B002002B070470010024010B582B09A
:1058A00004F074F8124896230322EE2106F068FCF7
:1058B0000446642008F0FAFBB4B9EE230C480DF15D
:1058C00007020D2103F0B6FF9DF80730102B05D01D
:1058D00008480BF057FC002002B010BD06480BF042
:1058E00051FC012002B010BD04480BF04BFCF2E764
:1058F000AC17002060660108546601086C66010858
:1059000000B58BB004F042F805ABFA211222CDE9C4
:105910000121009310220123EE21354806F012FBED
:105920009DF815209DF814309DF81600110941EAE4
:1059300003111202DB0902F470622E4B18BFA1F5AD
:10594000805110434908D20A9DF8182019600CBFF5
:105950005860A0F580519DF8170018BF59601201DA
:105960009DF8191042EA003242EA1110D20C18BF19
:10597000A0F580109860BDF81A20090452BA01F40D
:10598000702192B20A43C90C18BFA2F58012DA60E6
:10599000BDF81C2052BA91B2120448BFA1F5803163
:1059A0001961BDF81E2052BA91B2100448BFA1F58A
:1059B00080315961BDF8202052BA91B2120448BF1B
:1059C000A1F580319961BDF8222052BA91B210043C
:1059D00048BFA1F58031D961BDF8242052BA91B2F7
:1059E000120448BFA1F5803119620BB05DF804FBC9
:1059F000AC170020241600202DE9F041134F86B08B
:105A000001240DF117054FF0FA08064603F0BEFF1A
:105A10002346CDE9014800950922EE21384606F0DB
:105A200091FA32462146284603F058FF23460922C0
:105A3000EE21CDE901480095384606F05DF9204693
:105A400008F034FB06B0BDE8F08100BFAC170020C1
:105A50002DE9F041134F86B001240DF117054FF0E9
:105A6000FA08064603F092FF2346CDE90148009567
:105A7000EE210922384606F065FA32462846F02122
:105A800003F042FF23460922EE21CDE901480095AB
:105A9000384606F031F9204608F008FB06B0BDE8AC
:105AA000F08100BFAC17002070B586B001240DF165
:105AB0001705FA2603F06AFF2346CDE901460722BF
:105AC0000095EE21114806F03DFA0DF1160328224B
:105AD0000093CDE901462346EE210C4806F032FA48
