:020000040800F2
:1000000000000120ED160008591500085F150008D2
:10001000651500086B150008711500080000000048
:10002000000000000000000000000000771500083C
:10003000851500080000000093150008A1150008B0
:100040003D1700083D1700083D1700083D17000840
:100050003D1700083D1700083D1700083D17000830
:100060003D1700083D1700083D1700083D17000820
:10007000AD150008C1150008D5150008E9150008E0
:10008000FD150008111600083D1700083D1700086F
:100090003D1700083D1700083D1700083D170008F0
:1000A0003D170008251600083D1700083D170008F9
:1000B0003D17000800000000000000003D17000888
:1000C0003D1700083D1700083D1700083D170008C0
:1000D0003D1700083D1700083D1700083D170008B0
:1000E0003D1700083D170008000000000000000058
:1000F0000000000000000000000000000000000000
:10010000000000003D170008000000003D17000837
:1001100000000000000000003D1700083D17000827
:100120003D1700083D1700083D1700083D1700085F
:100130003D17000800000000000000000000000063
:100140003D1700083D1700083D170008000000009B
:100150003D1700083D1700083D1700083D1700082F
:100160003D1700083D1700083D170008000000007B
:100170003D1700083D1700080000000000000000C7
:0C0180003D1700083D1700083D1700085F
:10018C0010B5054C237833B9044B13B10448AFF3C5
:10019C0000800123237010BD0C0000200000000023
:1001AC002062000808B5034B1BB103490348AFF3A9
:1001BC00008008BD00000000100000202062000834
:1001CC0053B94AB9002908BF00281CBF4FF0FF31B2
:1001DC004FF0FF3000F074B9ADF1080C6DE904CEAE
:1001EC0000F006F8DDF804E0DDE9022304B0704706
:1001FC002DE9F047089D04468E46002B4DD18A42CE
:10020C00944669D9B2FA82F252B101FA02F3C2F100
:10021C00200120FA01F10CFA02FC41EA030E944091
:10022C004FEA1C48210CBEFBF8F61FFA8CF708FBB2
:10023C0016E341EA034306FB07F199420AD91CEB8A
:10024C00030306F1FF3080F01F81994240F21C81BC
:10025C00023E63445B1AA4B2B3FBF8F008FB103304
:10026C0044EA034400FB07F7A7420AD91CEB040439
:10027C0000F1FF3380F00A81A74240F20781644409
:10028C00023840EA0640E41B00261DB1D44000238E
:10029C00C5E900433146BDE8F0878B4209D9002DF2
:1002AC0000F0EF800026C5E9000130463146BDE87C
:1002BC00F087B3FA83F6002E4AD18B4202D38242E6
:1002CC0000F2F980841A61EB030301209E46002D95
:1002DC00E0D0C5E9004EDDE702B9FFDEB2FA82F2EA
:1002EC00002A40F09280A1EB0C014FEA1C471FFA48
:1002FC008CFE0126200CB1FBF7F307FB131140EA2F
:10030C0001410EFB03F0884208D91CEB010103F1FB
:10031C00FF3802D2884200F2CB804346091AA4B2BD
:10032C00B1FBF7F007FB101144EA01440EFB00FE91
:10033C00A64508D91CEB040400F1FF3102D2A645F6
:10034C0000F2BB800846A4EB0E0440EA03409CE795
:10035C00C6F12007B34022FA07FC4CEA030C20FA42
:10036C0007F401FA06F31C43F9404FEA1C4900FA62
:10037C0006F3B1FBF9F8200C1FFA8CFE09FB1811DF
:10038C0040EA014108FB0EF0884202FA06F20BD952
:10039C001CEB010108F1FF3A80F08880884240F2A2
:1003AC008580A8F102086144091AA4B2B1FBF9F0E6
:1003BC0009FB101144EA014100FB0EFE8E4508D9E1
:1003CC001CEB010100F1FF346CD28E456AD9023866
:1003DC00614440EA0840A0FB0294A1EB0E01A1424B
:1003EC00C846A64656D353D05DB1B3EB080261EBB9
:1003FC000E0101FA07F722FA06F3F1401F43C5E993
:10040C00007100263146BDE8F087C2F12003D840C8
:10041C000CFA02FC21FA03F3914001434FEA1C470A
:10042C001FFA8CFEB3FBF7F007FB10360B0C43EAFC
:10043C00064300FB0EF69E4204FA02F408D91CEBAC
:10044C00030300F1FF382FD29E422DD902386344AA
:10045C009B1B89B2B3FBF7F607FB163341EA03414A
:10046C0006FB0EF38B4208D91CEB010106F1FF3899
:10047C0016D28B4214D9023E6144C91A46EA004690
:10048C0038E72E46284605E70646E3E61846F8E622
:10049C004B45A9D2B9EB020864EB0C0E0138A3E76B
:1004AC004646EAE7204694E74046D1E7D0467BE74C
:1004BC00023B614432E7304609E76444023842E7C4
:1004CC00704700BF80B500AF01F033F900F03EF883
:1004DC0000F0B2FB00F06AFB00F08AF800F02CF997
:1004EC0000F06AF900F0A8F900F000FB00F02EFB18
:1004FC0000F000F900F0E0F900F032FA00F07EFABA
:10050C0001F0E4F8002220210F4802F03DFD1F20ED
:10051C0001F0CAF8002220210B4802F035FD1F2003
:10052C0001F0C2F84FF47A7001F078F90122202121
:10053C00054802F029FD002001F0B6F84FF47A705E
:10054C0001F06CF9E6E700BF0004004880B596B0F6
:10055C0000AF07F1140344220021184605F052FEA7
:10056C003B4600221A605A609A60DA601A614FF4B6
:10057C00007002F055FE0346002B01D000F0F2FB98
:10058C0009237B614FF48033BB610123BB620223DF
:10059C00FB6303233B6401237B640A23BB640723B3
:1005AC00FB6402233B6502237B6507F114031846A9
:1005BC0002F08CFE0346002B01D000F0D3FB0F237E
:1005CC003B6003237B600023BB600023FB600023A4
:1005DC003B613B460221184603F08CFA0346002B84
:1005EC0001D000F0BFFB00BF5837BD4680BD0000F6
:1005FC0080B586B000AF3B4600221A605A609A6004
:10060C00DA601A615A61374B374A1A60354B00224F
:10061C005A60344B00229A60324B0022DA60314B24
:10062C0001221A612F4B04225A612E4B00221A769A
:10063C002C4B00225A762B4B0222DA61294B0022DA
:10064C0083F82020274B00229A62264B0022DA6284
:10065C00244B002283F83020224B00225A63214B7A
:10066C00012283F838201F4B0C22DA631D4B002229
:10067C001A641C4B00225A641A4B01229A641948C2
:10068C0001F07CFA0346002B01D000F06BFB174BFA
:10069C003B6006237B600623BB607F23FB60042347
:1006AC003B6100237B613B4619460E4801F0AEFBD3
:1006BC000346002B01D000F055FB0D4B3B600C2387
:1006CC007B600323BB603B461946064801F09EFB4A
:1006DC000346002B01D000F045FB00BF1837BD4688
:1006EC0080BD00BF2800002000000450000052C74D
:1006FC004000201980B500AF0D4B0E4A1A600C4B10
:10070C0000221A710A4B00225A71094B00225A61BD
:10071C00074B00229A61064B01221A62044802F030
:10072C0067F80346002B01D000F01CFB00BF80BD16
:10073C008C0000200030024080B500AF1B4B1C4ADF
:10074C001A601A4B1B4A5A60184B00229A60174BBE
:10075C000122DA60154B00221A61144B00225A61F7
:10076C00124B00229A61114B0022DA610F4B0022CE
:10077C001A620E4802F020FC0346002B01D000F058
:10078C00F1FA0021094802F0A6FC0346002B01D027
:10079C0000F0E8FA0021054802F0E8FC0346002BC3
:1007AC0001D000F0DFFA00BF80BD00BFB000002018
:1007BC00005400404713300080B500AF1B4B1C4A5F
:1007CC001A601A4B1B4A5A60184B00229A60174B3E
:1007DC000122DA60154B00221A61144B00225A6177
:1007EC00124B00229A61114B0022DA610F4B00224E
:1007FC001A620E4802F0E0FB0346002B01D000F019
:10080C00B1FA0021094802F066FC0346002B01D026
:10081C0000F0A8FA0021054802F0A8FC0346002BC2
:10082C0001D000F09FFA00BF80BD00BF0401002082
:10083C00005800404713300080B500AF1B4B1C4ADA
:10084C001A601A4B1B4A5A60184B00229A60174BBD
:10085C000122DA60154B00221A61144B00225A61F6
:10086C00124B00229A61114B0022DA610F4B0022CD
:10087C001A620E4802F0A0FB0346002B01D000F0D8
:10088C0071FA0021094802F026FC0346002B01D026
:10089C0000F068FA0021054802F068FC0346002BC2
:1008AC0001D000F05FFA00BF80BD00BF58010020EE
:1008BC00005C00404713300080B588B000AF07F1F2
:1008CC00100300221A605A609A60DA603B1D002205
:1008DC001A605A609A60204B204A1A601E4B002204
:1008EC005A601D4B00229A601B4B4FF6FF72DA6068
:1008FC00194B00221A61184B00225A61164B002228
:10090C009A61154803F024FE0346002B01D000F039
:10091C0029FA4FF480533B6107F1100319460E4836
:10092C0004F05AFA0346002B01D000F01BFA002306
:10093C007B600023BB600023FB603B1D194606480F
:10094C0004F0E8FE0346002B01D000F00BFA00BFC8
:10095C002037BD4680BD00BFCC020020002C0140DA
:10096C0080B588B000AF07F1100300221A605A60FE
:10097C009A60DA603B1D00221A605A609A601E4B26
:10098C004FF080421A601C4B00225A601A4B002216
:10099C009A60194B4FF0FF32DA60174B00221A6144
:1009AC00154B00229A61144803F0D2FD0346002B2C
:1009BC0001D000F0D7F94FF480533B6107F11003DD
:1009CC0019460D4804F008FA0346002B01D000F03C
:1009DC00C9F900237B600023FB603B1D19460648C8
:1009EC0004F098FE0346002B01D000F0BBF900BFC9
:1009FC002037BD4680BD00BF1803002080B592B0E3
:100A0C0000AF07F12C0300221A605A609A60DA607A
:100A1C001A615A619A613B462C220021184605F056
:100A2C00F1FB304B304A1A602E4B40F219225A60BF
:100A3C002C4B00229A602B4B4FF48072DA60294BBE
:100A4C0000221A61274B00225A61264B00229A6120
:100A5C00244803F07DFD0346002B01D000F082F901
:100A6C00204803F0CCFD0346002B01D000F07AF9AE
:100A7C006023FB6200233B6300237B630023BB6387
:100A8C000023FB6300233B6400237B6407F12C03EE
:100A9C0000221946134804F08BF80346002B01D0B2
:100AAC0000F060F900233B6000237B600023BB60F7
:100ABC000023FB6000233B614FF400537B61002358
:100ACC00BB623B461946074804F08AFE0346002BDE
:100ADC0001D000F047F9034800F00AFC00BF48378A
:100AEC00BD4680BD640300200044014080B500AFCA
:100AFC00144B154A1A60134B4FF4E1325A60114BE8
:100B0C0000229A600F4B0022DA600E4B00221A6111
:100B1C000C4B0C225A610B4B00229A61094B0022A0
:100B2C00DA61084B00221A62064B00225A62054811
:100B3C0004F0ECFE0346002B01D000F013F900BFCB
:100B4C0080BD00BFB00300200038014080B500AF6D
:100B5C00144B154A1A60134B4FF4E1325A60114B87
:100B6C0000229A600F4B0022DA600E4B00221A61B1
:100B7C000C4B0C225A610B4B00229A61094B002240
:100B8C00DA61084B00221A62064B00225A620548B1
:100B9C0004F0BCFE0346002B01D000F0E3F800BFCC
:100BAC0080BD00BF340400200044004080B582B0FA
:100BBC0000AF204B9B6C1F4A43F0010393641D4B09
:100BCC009B6C03F001037B607B68002200210C20EE
:100BDC0001F0D7FD0C2001F0F0FD002200210D20CA
:100BEC0001F0CFFD0D2001F0E8FD002200210E20C8
:100BFC0001F0C7FD0E2001F0E0FD002200210F20C6
:100C0C0001F0BFFD0F2001F0D8FD002200211020C3
:100C1C0001F0B7FD102001F0D0FD002200211120C1
:100C2C0001F0AFFD112001F0C8FD00BF0837BD4633
:100C3C0080BD00BF0010024080B58AB000AF07F144
:100C4C00140300221A605A609A60DA601A61434BEE
:100C5C00DB6C424A43F00403D364404BDB6C03F07F
:100C6C0004033B613B693D4BDB6C3C4A43F0800326
:100C7C00D3643A4BDB6C03F08003FB60FB68374BAF
:100C8C00DB6C364A43F00103D364344BDB6C03F06A
:100C9C000103BB60BB68314BDB6C304A43F0020391
:100CAC00D3642E4BDB6C03F002037B607B68002269
:100CBC004FF4CB514FF0904002F066F9002248F20D
:100CCC002121274802F060F910237B610023BB61CE
:100CDC000023FB6107F1140319464FF0904001F01B
:100CEC00D9FF4FF4CB537B610123BB610023FB6124
:100CFC0000233B6207F1140319464FF0904001F0BA
:100D0C00C9FF48F221237B610123BB610023FB61F6
:100D1C0000233B6207F114031946114801F0BAFF96
:100D2C0041F202037B610023BB610023FB6107F1ED
:100D3C00140319460A4801F0ADFF40F204437B61ED
:100D4C000323BB610023FB6107F11403194604481C
:100D5C0001F0A0FF00BF2837BD4680BD0010024047
:100D6C000004004880B400AF72B600BFFEE700007C
:100D7C0080B483B000AF0F4B1B6E0E4A43F00103DF
:100D8C0013660C4B1B6E03F001037B607B68094BF5
:100D9C009B6D084A43F080539365064B9B6D03F0A3
:100DAC0080533B603B6800BF0C37BD465DF8047B4D
:100DBC00704700BF0010024080B5A0B000AF786053
:100DCC0007F16C0300221A605A609A60DA601A61AB
:100DDC0007F110035C220021184605F013FA7B681A
:100DEC001B68254A934243D14FF480433B614FF03B
:100DFC0080533B6603237B610123BB610823FB61AA
:100E0C0007233B6202237B620223BB624FF0807399
:100E1C00FB6207F11003184603F090F80346002B11
:100E2C0001D0FFF79FFF154BDB6C144A43F40053C2
:100E3C00D364124BDB6C03F40053FB60FB680F4B69
:100E4C00DB6C0E4A43F00103D3640C4BDB6C03F0F8
:100E5C000103BB60BB680223FB660B233B670023CB
:100E6C007B6707F16C0319464FF0904001F012FFBD
:100E7C0000BF8037BD4680BD00000450001002400A
:100E8C0080B485B000AF78607B681B680A4A9342D7
:100E9C000BD10A4B9B6C094A43F480539364074B68
:100EAC009B6C03F48053FB60FB6800BF1437BD469A
:100EBC005DF8047B704700BF003002400010024018
:100ECC0080B5A6B000AF786007F1840300221A60E9
:100EDC005A609A60DA601A6107F128035C220021DB
:100EEC00184605F08FF97B681B686B4A93423DD11D
:100EFC004023BB620023BB6507F12803184603F0AF
:100F0C001DF80346002B01D0FFF72CFF634BDB6C65
:100F1C00624A43F00103D364604BDB6C03F00103C2
:100F2C007B627B6A4FF4C063C7F884301223C7F826
:100F3C0088300023C7F88C300323C7F89030042383
:100F4C00C7F8943007F1840319464FF0904001F034
:100F5C00A1FE524B9B6D514A43F4001393654F4BCA
:100F6C009B6D03F400133B623B6A5BE17B681B687F
:100F7C004B4A934240F0A0808023BB620023FB6568
:100F8C0007F12803184602F0D9FF0346002B01D0C5
:100F9C00FFF7E8FE414BDB6C404A43F00203D3649D
:100FAC003E4BDB6C03F00203FB61FB694FF4C04367
:100FBC00C7F884301223C7F888300023C7F88C3068
:100FCC000323C7F890300423C7F8943007F1840347
:100FDC001946344801F05EFE304B9B6D2F4A43F4AA
:100FEC00800393652D4B9B6D03F48003BB61BB6940
:100FFC002D4B2E4A1A602C4B03225A602A4B00228E
:10100C009A60294B0022DA60274B80221A61264B0A
:10101C0000225A61244B00229A61234B0022DA6190
:10102C00214B00221A62204801F0CCFC0346002B15
:10103C0001D0FFF797FE7B681B4ADA631A4A7B687C
:10104C0093621B4B1B4A1A60194B03225A60184BB4
:10105C0010229A60164B0022DA60154B80221A611E
:10106C00134B00225A61124B00229A61104B002242
:10107C00DA610F4B00221A620D4801F0A3FC034603
:10108C00002B01D0FFF76EFE7B68094A9A63084A71
:10109C007B689362C6E000BF005400400010024021
:1010AC000058004000040048AC01002058000240E9
:1010BC00F4010020440002407B681B685B4A9342A9
:1010CC0040F0B0804FF48073BB6200233B6607F1A5
:1010DC002803184602F032FF0346002B01D0FFF71D
:1010EC0041FE534BDB6C524A43F00103D364504B2B
:1010FC00DB6C03F001037B617B694D4BDB6C4C4A71
:10110C0043F00203D3644A4BDB6C03F002033B61F4
:10111C003B698023C7F884301223C7F8883000233A
:10112C00C7F88C300323C7F890300423C7F89430E9
:10113C0007F1840319464FF0904001F0ABFD1023EA
:10114C00C7F884301223C7F888300023C7F88C30D6
:10115C000323C7F890300423C7F8943007F18403B5
:10116C001946344801F096FD314B9B6D304A43F4DF
:10117C00000393652E4B9B6D03F40003FB60FB682F
:10118C002D4B2E4A1A602C4B03225A602A4B0022FC
:10119C009A60294B0022DA60274B80221A61264B79
:1011AC0000225A61244B00229A61234B0022DA61FF
:1011BC00214B00221A62204801F004FC0346002B4C
:1011CC0001D0FFF7CFFD7B681B4ADA631A4A7B68B4
:1011DC0093621B4B1B4A1A60194B03225A60184B23
:1011EC0010229A60164B0022DA60154B80221A618D
:1011FC00134B00225A61124B00229A61104B0022B1
:10120C00DA610F4B00221A620D4801F0DBFB03463A
:10121C00002B01D0FFF7A6FD7B68094A9A63084AA8
:10122C007B68936200BF9837BD4680BD005C004070
:10123C0000100240000400483C0200203000024034
:10124C00840200201C00024080B586B000AF78609C
:10125C007B681B68234A934214D1234B1B6E224A92
:10126C0043F400631366204B1B6E03F400637B6135
:10127C007B6900220021192001F083FA192001F06A
:10128C009CFA2AE07B681B68B3F1804F0CD1164B9B
:10129C009B6D154A43F001039365134B9B6D03F053
:1012AC0001033B613B6918E07B681B680F4A934262
:1012BC0013D10D4B1B6E0C4A43F4003313660A4BCF
:1012CC001B6E03F40033FB60FB6800220021192025
:1012DC0001F057FA192001F070FA00BF1837BD461B
:1012EC0080BD00BF002C01400010024000440140B2
:1012FC0080B588B000AF786007F10C0300221A604B
:10130C005A609A60DA601A617B681B68114A9342D2
:10131C001CD1114BDB6C104A43F00203D3640E4B0F
:10132C00DB6C03F00203BB60BB684FF48073FB60A3
:10133C0002233B6100237B610023BB610E23FB6115
:10134C0007F10C031946054801F0A4FC00BF203737
:10135C00BD4680BD0044014000100240000400481E
:10136C0080B5A2B000AF786007F1740300221A6058
:10137C005A609A60DA601A6107F118035C22002146
:10138C00184604F03FFF7B681B68684A934238D1CB
:10139C000123BB610123BB6307F11803184602F05C
:1013AC00CDFD0346002B01D0FFF7DCFC604B1B6E20
:1013BC005F4A43F4804313665D4B1B6E03F480431A
:1013CC007B617B695A4BDB6C594A43F00203D36453
:1013DC00574BDB6C03F002033B613B69C0237B671B
:1013EC000223BB670023FB670323C7F88030072366
:1013FC00C7F8843007F1740319464E4801F04AFCD3
:10140C0090E07B681B684C4A934240F08B8002232F
:10141C00BB610423FB6307F11803184602F08EFD31
:10142C000346002B01D0FFF79DFC414B9B6D404ABE
:10143C0043F4003393653E4B9B6D03F40033FB6028
:10144C00FB683B4BDB6C3A4A43F00103D364384BEB
:10145C00DB6C03F00103BB60BB680C237B670223CE
:10146C00BB670023FB670323C7F880300723C7F84B
:10147C00843007F1740319464FF0904001F00AFCD8
:10148C002E4B2F4A1A602D4B02225A602B4B0022F6
:10149C009A602A4B0022DA60284B80221A61274B73
:1014AC0000225A61254B00229A61244B0022DA61FA
:1014BC00224B00221A62214801F084FA0346002BC9
:1014CC0001D0FFF74FFC7B681C4A1A671B4A7B68EC
:1014DC0093621C4B1C4A1A601A4B02225A60194B1D
:1014EC0010229A60174B0022DA60164B80221A6188
:1014FC00144B00225A61134B00229A61114B0022AB
:10150C00DA61104B00221A620E4801F05BFA0346B6
:10151C00002B01D0FFF726FC7B680A4ADA66094AE1
:10152C007B68936200BF8837BD4680BD00380140A0
:10153C00001002400004004800440040B8040020A1
:10154C006C000240000500208000024080B400AF17
:10155C00FEE780B400AFFEE780B400AFFEE780B4D6
:10156C0000AFFEE780B400AFFEE780B400AF00BF71
:10157C00BD465DF8047B704780B400AF00BFBD462C
:10158C005DF8047B704780B400AF00BFBD465DF8CA
:10159C00047B704780B500AF00F020F900BF80BD20
:1015AC0080B500AF024801F0C5FA00BF80BD00BF96
:1015BC008402002080B500AF024801F0BBFA00BFE6
:1015CC0080BD00BF3C02002080B500AF024801F096
:1015DC00B1FA00BF80BD00BFF401002080B500AFA0
:1015EC00024801F0A7FA00BF80BD00BFAC0100208B
:1015FC0080B500AF024801F09DFA00BF80BD00BF6E
:10160C00B804002080B500AF024801F093FA00BF87
:10161C0080BD00BF0005002080B500AF034803F07B
:10162C002DF9034803F02AF900BF80BDCC0200203D
:10163C006403002080B400AF064BD3F88830054A11
:10164C0043F47003C2F8883000BFBD465DF8047BDC
:10165C00704700BF00ED00E080B58AB000AF0346D4
:10166C003960FB7107F10C031C220021184604F0B1
:10167C00C9FDFB79002B01D1402300E06023FB6006
:10168C00FB793B6107F10C033A681946054803F0F6
:10169C0015FA3968034803F013F800BF2837BD4624
:1016AC0080BD00BF6403002080B582B000AF03464C
:1016BC00FB71FB79044AD35C00211846FFF7CCFF81
:1016CC0000BF0837BD4680BD8062000880B500AF02
:1016DC000021024802F0F4FF00BF80BD640300202B
:1016EC00DFF834D0FFF7A6FF0C480D490D4A002354
:1016FC0002E0D458C4500433C4188C42F9D30A4ABB
:10170C000A4C002301E013600432A242FBD304F024
:10171C0055FDFEF7D7FEFEE700000120000000207B
:10172C000C000020B06200080C0000204C050020CA
:10173C00FEE780B582B000AF0023FB71032001F0FF
:10174C0015F80F2000F00EF80346002B02D00123F1
:10175C00FB7101E0FFF70CFBFB7918460837BD461F
:10176C0080BD000080B584B000AF78600023FB73AF
:10177C00174B1B78002B23D0164B1A68144B1B7875
:10178C0019464FF47A73B3FBF1F3B2FBF3F318463B
:10179C0001F021F80346002B0FD17B680F2B09D8E1
:1017AC00002279684FF0FF3000F0EBFF0A4A7B68AB
:1017BC00136007E00123FB7304E00123FB7301E0DA
:1017CC000123FB73FB7B18461037BD4680BD00BF61
:1017DC0008000020000000200400002080B400AFAE
:1017EC00064B1B781A46064B1B681344044A1360BD
:1017FC0000BFBD465DF8047B704700BF08000020A9
:10180C004805002080B400AF034B1B681846BD464A
:10181C005DF8047B704700BF4805002080B584B09C
:10182C0000AF7860FFF7EEFFB8607B68FB60FB6889
:10183C00B3F1FF3F05D00A4B1B781A46FB681344E3
:10184C00FB6000BFFFF7DEFF0246BB68D31AFA68E5
:10185C009A42F7D800BF00BF1037BD4680BD00BF0D
:10186C000800002080B483B000AF786039607B68DA
:10187C009B6823F47C123B681A437B689A6000BF18
:10188C000C37BD465DF8047B704780B483B000AF65
:10189C00786039607B689B6823F0E0723B681A4380
:1018AC007B689A6000BF0C37BD465DF8047B7047BF
:1018BC0080B483B000AF78607B689B6803F0E07302
:1018CC0018460C37BD465DF8047B704780B487B072
:1018DC0000AFF860B9607A603B60FB6860331A4611
:1018EC00BB689B0013447B617B691A68084B1340EF
:1018FC007A6802F0F8413A680A43134343F0004215
:10190C007B691A6000BF1C37BD465DF8047B7047CD
:10191C0000F0FF0380B485B000AF786039607B685D
:10192C0060331A463B689B001344FB60FB681B68E2
:10193C0003F0F84318461437BD465DF8047B704736
:10194C0080B487B000AFF860B9607A60FB68603330
:10195C001A46BB689B0013447B617B691B6823F0B0
:10196C0000427B681A437B691A6000BF1C37BD4676
:10197C005DF8047B704780B487B000AFF860B96045
:10198C007A60FB6830331A46BB681B0A9B0003F075
:10199C000C0313447B617B691A68BB6803F01F035B
:1019AC001F2101FA03F3DB431A407B689B0E03F003
:1019BC001F01BB6803F01F0301FA03F31A437B6991
:1019CC001A6000BF1C37BD465DF8047B704780B4BD
:1019DC0087B000AFF860B9607A60FB6814331A46C0
:1019EC00BB685B0E9B0003F0040313447B617B69B3
:1019FC001A68BB681B0D03F01F03072101FA03F3E0
:101A0C00DB431A40BB681B0D03F01F03796801FA16
:101A1C0003F31A437B691A6000BF1C37BD465DF89F
:101A2C00047B704780B485B000AFF860B9607A6011
:101A3C00FB68D3F8B020BB68C3F31203DB431A4036
:101A4C007B6803F018030849D940BB680B40C3F30B
:101A5C0012031A43FB68C3F8B02000BF1437BD460D
:101A6C005DF8047B704700BFFFFF070080B483B0B4
:101A7C0000AF78607B689B6823F0204323F03F0322
:101A8C007A68936000BF0C37BD465DF8047B7047E5
:101A9C0080B483B000AF78607B689B6803F0005320
:101AAC00B3F1005F01D1012300E0002318460C378D
:101ABC00BD465DF8047B704780B483B000AF78609E
:101ACC007B689B6823F0104323F03F0343F0805264
:101ADC007B689A6000BF0C37BD465DF8047B70478D
:101AEC0080B483B000AF78607B689B6803F0805350
:101AFC00B3F1805F01D1012300E0002318460C37BD
:101B0C00BD465DF8047B704780B483B000AF78604D
:101B1C007B689B6803F00103012B01D1012300E0DA
:101B2C00002318460C37BD465DF8047B704780B423
:101B3C0083B000AF78607B689B6803F00403042BD0
:101B4C0001D1012300E0002318460C37BD465DF897
:101B5C00047B704780B483B000AF78607B689B686F
:101B6C0003F00803082B01D1012300E000231846E1
:101B7C000C37BD465DF8047B7047000080B588B01B
:101B8C0000AF78600023FB770023BB607B68002BE1
:101B9C0001D101232CE17B681B69002B7B685B6DF9
:101BAC00002B09D17868FFF707F97B6800229A654A
:101BBC007B68002283F850207B681B681846FFF76F
:101BCC0067FF0346002B04D07B681B681846FFF7A1
:101BDC004DFF7B681B681846FFF782FF0346002BFE
:101BEC0015D17B681B681846FFF766FF824B1B6894
:101BFC009B09824AA2FB03239B0901335B00BB6058
:101C0C0002E0BB68013BBB60BB68002BF9D17B6871
:101C1C001B681846FFF764FF0346002B0DD17B6849
:101C2C005B6D43F010027B685A657B689B6D43F0DB
:101C3C0001027B689A650123FB777B681B68184659
:101C4C00FFF775FF78617B685B6D03F01003002B69
:101C5C0040F0C5807B69002B40F0C1807B685B6DD8
:101C6C0023F4817343F002027B685A657B681B681E
:101C7C001846FFF749FF0346002B0BD16048FFF7CE
:101C8C0043FF0346002B05D17B685B6819465D4812
:101C9C00FFF7E8FD7B685B7E5A037B685B6B1A433E
:101CAC007B68DB681A437B689B681A437B6893F8F4
:101CBC0020301B041343BB617B6893F82030012B4D
:101CCC0006D17B685B6A013B5B04BA691343BB6159
:101CDC007B689B6A002B09D07B689B6A03F470724B
:101CEC007B68DB6A1343BA691343BB617B681B686F
:101CFC00DA68454B13407A681268B9690B43D360B4
:101D0C007B681B681846FFF712FF38617B681B68FD
:101D1C001846FFF71FFFF8603B69002B3DD1FB68AD
:101D2C00002B3AD17B681B7E9A037B6893F830308A
:101D3C005B001343BB617B681B68DB6823F4804347
:101D4C0023F002037A681268B9690B43D3607B688D
:101D5C0093F83830012B18D17B681B681B6923F46E
:101D6C00FF6323F004037A68D16B7A68126C114319
:101D7C007A68526C11437A68926C0A431A437B68F6
:101D8C001B6842F001021A6107E07B681B681A6944
:101D9C007B681B6822F001021A617B681B69012BAE
:101DAC000CD17B681B681B6B23F00F017B68DB6914
:101DBC005A1E7B681B680A431A6307E07B681B6822
:101DCC001A6B7B681B6822F00F021A637B685B6DD1
:101DDC0023F0030343F001027B685A6507E07B683C
:101DEC005B6D43F010027B685A650123FB77FB7F28
:101DFC0018462037BD4680BD00000020632D3E05EF
:101E0C00000004500003045007C0F0FF80B5B6B0CA
:101E1C0000AF78603960002387F8D7300023FB606F
:101E2C007B6893F85030012B01D10223B9E37B6816
:101E3C00012283F850207B681B681846FFF777FE59
:101E4C000346002B40F09E833B685B68052B24D82F
:101E5C003B685B68023B032B1BD801A252F823F0B2
:101E6C007D1E0008851E00088D1E0008951E0008AA
:101E7C003B680C225A6011E03B6812225A600DE05C
:101E8C003B6818225A6009E03B684FF480725A6034
:101E9C0004E03B6806225A6000E000BF7B681868CB
:101EAC003B6859683B681B681A46FFF764FD7B6802
:101EBC001B681846FFF73BFEC7F8D0007B681B6811
:101ECC001846FFF747FEC7F8CC00D7F8D030002BE8
:101EDC0040F0A681D7F8CC30002B40F0A1817B6874
:101EEC0018683B6819683B689B681A46FFF76FFDDA
:101EFC003B685A697B681B68DB68DB0803F00303EB
:101F0C005B0002FA03F3C7F8C8303B681B69042B6B
:101F1C000AD07B6818683B6819693B681A68D7F85F
:101F2C00C830FFF7D3FC7BE17B681B6800211846A7
:101F3C00FFF7F0FC0346C3F31203002B0AD17B68B6
:101F4C001B6800211846FFF7E5FC03469B0E03F0C7
:101F5C001F021EE07B681B6800211846FFF7DAFCA5
:101F6C000346C7F8BC30D7F8BC3093FAA3F3C7F8D4
:101F7C00B830D7F8B830C7F8C030D7F8C030002B1D
:101F8C0001D1202304E0D7F8C030B3FA83F3DBB2DD
:101F9C001A463B681B68C3F31203002B05D13B6840
:101FAC001B689B0E03F01F0318E03B681B68C7F807
:101FBC00B030D7F8B03093FAA3F3C7F8AC30D7F8F9
:101FCC00AC30C7F8B430D7F8B430002B01D1202393
:101FDC0004E0D7F8B430B3FA83F3DBB29A4206D1FB
:101FEC007B681B68002200211846FFF7A9FC7B6860
:101FFC001B6801211846FFF78DFC0346C3F312033F
:10200C00002B0AD17B681B6801211846FFF782FC64
:10201C0003469B0E03F01F021EE07B681B68012128
:10202C001846FFF777FC0346C7F8A430D7F8A4305E
:10203C0093FAA3F3C7F8A030D7F8A030C7F8A830AC
:10204C00D7F8A830002B01D1202304E0D7F8A83012
:10205C00B3FA83F3DBB21A463B681B68C3F3120373
:10206C00002B05D13B681B689B0E03F01F0318E087
:10207C003B681B68C7F89830D7F8983093FAA3F3ED
:10208C00C7F89430D7F89430C7F89C30D7F89C3008
:10209C00002B01D1202304E0D7F89C30B3FA83F352
:1020AC00DBB29A4206D17B681B68002201211846DC
:1020BC00FFF746FC7B681B6802211846FFF72AFCD9
:1020CC000346C3F31203002B0AD17B681B68022161
:1020DC001846FFF71FFC03469B0E03F01F021EE081
:1020EC007B681B6802211846FFF714FC0346C7F8EF
:1020FC008C30D7F88C3093FAA3F3C7F88830D7F824
:10210C008830C7F89030D7F89030002B01D12023BD
:10211C0004E0D7F89030B3FA83F3DBB21A463B688D
:10212C001B68C3F31203002B05D13B681B689B0E85
:10213C0003F01F0316E03B681B68C7F88030D7F824
:10214C00803093FAA3F3FB67FB6FC7F88430D7F8A2
:10215C008430002B01D1202304E0D7F88430B3FA6B
:10216C0083F3DBB29A4206D17B681B680022022102
:10217C001846FFF7E5FB7B681B6803211846FFF741
:10218C00C9FB0346C3F31203002B0AD17B681B68FF
:10219C0003211846FFF7BEFB03469B0E03F01F02FC
:1021AC0017E07B681B6803211846FFF7B3FB034657
:1021BC007B677B6F93FAA3F33B673B6FBB67BB6F8C
:1021CC00002B01D1202303E0BB6FB3FA83F3DBB206
:1021DC001A463B681B68C3F31203002B05D13B68FE
:1021EC001B689B0E03F01F0311E03B681B68BB666A
:1021FC00BB6E93FAA3F37B667B6EFB66FB6E002BC8
:10220C0001D1202303E0FB6EB3FA83F3DBB29A42D5
:10221C0006D17B681B68002203211846FFF790FB50
:10222C007B681B681846FFF76FFC0346002B40F0D9
:10223C003F817B6818683B6819683B68DB681A4605
:10224C00FFF7F0FB3B68DB688E4A934240F030812D
:10225C007B6818683B681B68C3F31203002B0BD117
:10226C003B681B689B0E013303F01F03092B94BFC3
:10227C0001230023DBB219E03B681B68FB65FB6D97
:10228C0093FAA3F3BB65BB6D3B663B6E002B01D190
:10229C00202303E03B6EB3FA83F3DBB2013303F08C
:1022AC001F03092B94BF01230023DBB2002B79D031
:1022BC003B681B68C3F31203002B07D13B681B68F8
:1022CC009B0E01339B0603F0F84215E03B681B683C
:1022DC003B653B6D93FAA3F3FB64FB6C7B657B6DF9
:1022EC00002B01D1202303E07B6DB3FA83F3DBB227
:1022FC0001339B0603F0F8423B681B68C3F31203DF
:10230C00002B09D13B681B689B0E013303F01F03A4
:10231C00012101FA03F317E03B681B687B647B6CBB
:10232C0093FAA3F33B643B6CBB64BB6C002B01D1F5
:10233C00202303E0BB6CB3FA83F3DBB2013303F06D
:10234C001F03012101FA03F342EA03013B681B68F6
:10235C00C3F31203002B0AD13B681B689B0E01339D
:10236C0003F01F0213465B0013441B0518E03B6887
:10237C001B68BB63BB6B93FAA3F37B637B6BFB6345
:10238C00FB6B002B01D1202303E0FB6BB3FA83F32F
:10239C00DBB2013303F01F0213465B0013441B0531
:1023AC000B4380E03B681B68C3F31203002B07D17F
:1023BC003B681B689B0E01339B0603F0F84215E04B
:1023CC003B681B68FB62FB6A93FAA3F3BB62BB6AB4
:1023DC003B633B6B002B01D1202303E03B6BB3FA37
:1023EC0083F3DBB201339B0603F0F8423B681B68B6
:1023FC00C3F31203002B09D13B681B689B0E0133FE
:10240C0003F01F03012101FA03F317E03B681B687B
:10241C003B623B6A93FAA3F3FB61FB697B627B6AC9
:10242C00002B01D1202303E07B6AB3FA83F3DBB2E8
:10243C00013303F01F03012101FA03F342EA030104
:10244C003B681B68C3F31203002B0DD13B681B6860
:10245C009B0E013303F01F0213465B0013441E3B1B
:10246C001B0543F000731DE03B681B687B617B69B7
:10247C0093FAA3F33B613B69BB61BB69002B03D1AE
:10248C00202305E000007F40BB69B3FA83F3DBB285
:10249C00013303F01F0213465B0013441E3B1B0564
:1024AC0043F000730B433A6892681946FFF78FFAB2
:1024BC003B681A683D4B1340002B6CD03C48FFF72F
:1024CC00F7F9C7F8C4003B681B683A4A934227D116
:1024DC00D7F8C43003F40003002B21D17B681B68B0
:1024EC00354A934257D1D7F8C43043F40003194608
:1024FC002F48FFF7CAF9314B1B689B09304AA2FBE6
:10250C0003239B095A1C13465B0013449B00FB607E
:10251C0002E0FB68013BFB60FB68002BF9D13AE061
:10252C003B681B68274A934213D1D7F8C43003F099
:10253C008073002B0DD17B681B681F4A93422AD1F4
:10254C00D7F8C43043F0807319461948FFF79DF94A
:10255C0021E03B681B681C4A93421CD1D7F8C4305D
:10256C0003F48003002B16D17B681B68124A93423C
:10257C0011D1D7F8C43043F4800319460C48FFF747
:10258C0084F908E07B685B6D43F020027B685A6538
:10259C00012387F8D7307B68002283F8502097F806
:1025AC00D7301846D837BD4680BD00BF0000088024
:1025BC0000030450000052C700000450000000202B
:1025CC00632D3E05000084CB0100008080B485B0F3
:1025DC0000AF78607B6803F00703FB600C4BDB6893
:1025EC00BB60BA684FF6FF031340BB60FB681A026E
:1025FC00BB68134343F0BF6343F40033BB60044A2E
:10260C00BB68D36000BF1437BD465DF8047B7047D0
:10261C0000ED00E080B400AF044BDB681B0A03F054
:10262C0007031846BD465DF8047B704700ED00E0DB
:10263C0080B483B000AF0346FB7197F90730002BD1
:10264C000BDBFB7903F01F02074997F907305B0995
:10265C00012000FA02F241F8232000BF0C37BD46DE
:10266C005DF8047B704700BF00E100E080B483B0EC
:10267C0000AF03463960FB7197F90730002B0ADB7A
:10268C003B68DAB20C4997F907301201D2B20B440D
:10269C0083F800230AE03B68DAB20849FB7903F0BF
:1026AC000F03043B1201D2B20B441A7600BF0C3755
:1026BC00BD465DF8047B704700E100E000ED00E0F2
:1026CC0080B489B000AFF860B9607A60FB6803F041
:1026DC000703FB61FB69C3F10703042B28BF042329
:1026EC00BB61FB690433062B02D9FB69033B00E099
:1026FC0000237B614FF0FF32BB6902FA03F3DA432C
:10270C00BB681A407B699A404FF0FF317B6901FA34
:10271C0003F3D9437B680B40134318462437BD465B
:10272C005DF8047B7047000080B582B000AF786024
:10273C007B68013BB3F1807F01D301230FE00A4A90
:10274C007B68013B53600F214FF0FF30FFF78EFF8A
:10275C00054B00229A60044B07221A60002318468E
:10276C000837BD4680BD00BF10E000E080B582B0E8
:10277C0000AF78607868FFF729FF00BF0837BD46C7
:10278C0080BD80B586B000AF0346B9607A60FB733C
:10279C0000237B61FFF73EFF78617A68B96878693E
:1027AC00FFF78EFF024697F90F3011461846FFF7D8
:1027BC005DFF00BF1837BD4680BD80B582B000AF4D
:1027CC000346FB7197F907301846FFF731FF00BF3E
:1027DC000837BD4680BD80B582B000AF78607868A0
:1027EC00FFF7A2FF034618460837BD4680BD000020
:1027FC0080B582B000AF78607B68002B01D10123DB
:10280C0054E07B685B7FDBB2002B05D17B68002238
:10281C001A777868FEF734FB7B6802225A777B685C
:10282C001B79002B0CD17B681B68224A5A617B6890
:10283C001B689A687B681B6822F018029A600CE08F
:10284C007B6899687B68DB681A46786800F034F816
:10285C000346002B01D0012328E07B685B79002B19
:10286C0005D17B681B684FF0FF321A6104E07B686E
:10287C001B687A6812691A617B681B689B6823F075
:10288C0060017B685A697B681B680A439A607B68A5
:10289C001B689B6823F080017B689A697B681B68C6
:1028AC000A439A607B6801225A770023184608373E
:1028BC00BD4680BDB71DC10480B487B000AFF860C1
:1028CC00B9607A600023FB751F233B6100BF3B6935
:1028DC005A1E3A61002B09D03B6903F01F03BA68FA
:1028EC0022FA03F303F00103002BF0D07B68182BC2
:1028FC0046D801A252F823F0932900088D2900082C
:10290C008D2900088D2900088D2900088D290008C3
:10291C008D2900088D290008812900088D290008BF
:10292C008D2900088D2900088D2900088D290008A3
:10293C008D2900088D290008752900088D290008AB
:10294C008D2900088D2900088D2900088D29000883
:10295C008D2900088D290008692900083B69062B80
:10296C0013D90123FB7510E03B69072B0FD9012309
:10297C00FB750CE03B690F2B0BD90123FB7508E0B1
:10298C000123FB7506E000BF04E000BF02E000BFBE
:10299C0000E000BFFB7D002B0DD1FB681B68BA6803
:1029AC005A61FB681B689B6823F01801FB681B6865
:1029BC007A680A439A60FB7D18461C37BD465DF861
:1029CC00047B704780B485B000AF78607B68002BC7
:1029DC0001D1012398E07B681B681A464D4B9A4243
:1029EC000FD87B681B681A464B4B13444B4AA2FB0F
:1029FC0003231B099A007B685A647B68484A1A6453
:102A0C000EE07B681B681A46464B1344434AA2FBF4
:102A1C0003231B099A007B685A647B68424A1A6438
:102A2C007B68022283F825207B681B681B68FB608F
:102A3C00FB6823F4FF4323F07003FB607B689A6808
:102A4C007B68DB681A437B681B691A437B685B698C
:102A5C001A437B689B691A437B68DB691A437B6862
:102A6C001B6A1343FA681343FB607B681B68FA68A4
:102A7C001A607B689B68B3F5804F39D07B681B6C00
:102A8C00274A93421AD1294B1A687B685B6C03F076
:102A9C001C030F2101FA03F3DB43244913400B60A1
:102AAC00224B1A687B6859687B685B6C03F01C03CB
:102ABC0001FA03F31D4913430B6019E01C4B1A6810
:102ACC007B685B6C03F01C030F2101FA03F3DB43FF
:102ADC00174913400B60164B1A687B6859687B6862
:102AEC005B6C03F01C0301FA03F3114913430B60F5
:102AFC007B680022DA637B68012283F825207B68DF
:102B0C00002283F82420002318461437BD465DF8B4
:102B1C00047B704707040240F8FFFDBFCDCCCCCC42
:102B2C0000000240F8FBFDBF00040240A800024078
:102B3C00A804024080B584B000AF78607B681B6C41
:102B4C001B68FB607B681B681B68BB607B685B6CED
:102B5C0003F01C0304229A40FB681340002B26D080
:102B6C00BB6803F00403002B21D07B681B681B6837
:102B7C0003F02003002B07D17B681B681A687B6865
:102B8C001B6822F004021A607B685B6C03F01C0269
:102B9C007B681B6C042101FA02F25A607B681B6B88
:102BAC00002B71D07B681B6B786898476CE07B6856
:102BBC005B6C03F01C0302229A40FB681340002B51
:102BCC002ED0BB6803F00203002B29D07B681B6856
:102BDC001B6803F02003002B0BD17B681B681A6861
:102BEC007B681B6822F00A021A607B68012283F85A
:102BFC0025207B685B6C03F01C027B681B6C02213C
:102C0C0001FA02F25A607B68002283F824207B6868
:102C1C00DB6A002B38D07B68DB6A7868984733E036
:102C2C007B685B6C03F01C0308229A40FB68134022
:102C3C00002B2AD0BB6803F00803002B25D07B683F
:102C4C001B681A687B681B6822F00E021A607B688E
:102C5C005B6C03F01C027B681B6C012101FA02F215
:102C6C005A607B680122DA637B68012283F8252095
:102C7C007B68002283F824207B685B6B002B04D0DC
:102C8C007B685B6B7868984700BF00BF1037BD4608
:102C9C0080BD000080B487B000AF7860396000233D
:102CAC007B6154E13B681A6801217B6901FA03F3EB
:102CBC001340FB60FB68002B00F046813B685B68AF
:102CCC0003F00303012B05D03B685B6803F003039F
:102CDC00022B30D17B689B683B617B695B000322D4
:102CEC0002FA03F3DB433A6913403B613B68DA6851
:102CFC007B695B0002FA03F33A6913433B617B681F
:102D0C003A699A607B685B683B6101227B6902FAD5
:102D1C0003F3DB433A6913403B613B685B681B0977
:102D2C0003F001027B6902FA03F33A6913433B6136
:102D3C007B683A695A603B685B6803F00303032BBA
:102D4C0017D07B68DB683B617B695B00032202FA6E
:102D5C0003F3DB433A6913403B613B689A687B6938
:102D6C005B0002FA03F33A6913433B617B683A69EF
:102D7C00DA603B685B6803F00303022B23D17B69A9
:102D8C00DA087B68083253F822303B617B6903F028
:102D9C0007039B000F2202FA03F3DB433A6913404B
:102DAC003B613B681A697B6903F007039B0002FADD
:102DBC0003F33A6913433B617B69DA087B68083299
:102DCC00396943F822107B681B683B617B695B00A7
:102DDC00032202FA03F3DB433A6913403B613B687D
:102DEC005B6803F003027B695B0002FA03F33A6948
:102DFC0013433B617B683A691A603B685B6803F478
:102E0C004033002B00F0A080584B1B6E574A43F008
:102E1C0001031366554B1B6E03F00103BB60BB68CB
:102E2C00534A7B699B08023352F823303B617B6920
:102E3C0003F003039B000F2202FA03F3DB433A690E
:102E4C0013403B617B68B3F1904F19D07B68494AC2
:102E5C00934213D07B68484A93420DD07B68474A13
:102E6C00934207D07B68464A934201D1042308E081
:102E7C00072306E0032304E0022302E0012300E021
:102E8C0000237A6902F00302920093403A691343DB
:102E9C003B6137497B699B0802333A6941F823202F
:102EAC00384B9B683B61FB68DB433A6913403B61E1
:102EBC003B685B6803F48013002B03D03A69FB6812
:102ECC0013433B612F4A3B6993602E4BDB683B619C
:102EDC00FB68DB433A6913403B613B685B6803F476
:102EEC000013002B03D03A69FB6813433B61254A5E
:102EFC003B69D360234B5B683B61FB68DB433A69FE
:102F0C0013403B613B685B6803F40033002B03D038
:102F1C003A69FB6813433B611A4A3B695360194B8E
:102F2C001B683B61FB68DB433A6913403B613B68C0
:102F3C005B6803F48033002B03D03A69FB681343BE
:102F4C003B61104A3B6913607B6901337B613B68D1
:102F5C001A687B6922FA03F3002B7FF4A3AE00BF3F
:102F6C0000BF1C37BD465DF8047B70470010024063
:102F7C00000001400004004800080048000C004814
:102F8C00001000480004014080B483B000AF7860AA
:102F9C000B467B8013467B707B78002B03D07A88A2
:102FAC007B689A6102E07A887B689A6200BF0C3772
:102FBC00BD465DF8047B704780B582B000AF786089
:102FCC007B68002B01D1012381E07B6893F84130B1
:102FDC00DBB2002B06D17B68002283F84020786896
:102FEC00FDF76EFF7B68242283F841207B681B6809
:102FFC001A687B681B6822F001021A607B685A68A9
:10300C007B681B6822F070621A617B681B689A6887
:10301C007B681B6822F400429A607B68DB68012B9A
:10302C0007D17B689A687B681B6842F400429A60FF
:10303C0006E07B689A687B681B6842F404429A60DD
:10304C007B68DB68022B04D17B681B684FF4006241
:10305C005A607B681B685B687A68126843F000737F
:10306C0043F4004353607B681B68DA687B681B6819
:10307C0022F40042DA607B681A697B685B6942EA79
:10308C0003017B689B691A027B681B680A43DA6040
:10309C007B68D9697B681A6A7B681B680A431A606B
:1030AC007B681B681A687B681B6842F001021A6017
:1030BC007B6800225A647B68202283F841207B685D
:1030CC0000221A637B68002283F8422000231846F2
:1030DC000837BD4680BD80B483B000AF78603960DE
:1030EC007B6893F84130DBB2202B38D17B6893F8A6
:1030FC004030012B01D1022332E07B68012283F89E
:10310C0040207B68242283F841207B681B681A6866
:10311C007B681B6822F001021A607B681B681A68C6
:10312C007B681B6822F480521A607B681B681968E4
:10313C007B681B683A680A431A607B681B681A68CC
:10314C007B681B6842F001021A607B68202283F8BE
:10315C0041207B68002283F84020002300E00223FA
:10316C0018460C37BD465DF8047B704780B485B0BB
:10317C0000AF786039607B6893F84130DBB2202B6C
:10318C0039D17B6893F84030012B01D1022333E015
:10319C007B68012283F840207B68242283F841203D
:1031AC007B681B681A687B681B6822F001021A6036
:1031BC007B681B681B68FB60FB6823F47063FB6017
:1031CC003B681B02FA681343FB607B681B68FA6858
:1031DC001A607B681B681A687B681B6842F00102E6
:1031EC001A607B68202283F841207B68002283F8D8
:1031FC004020002300E0022318461437BD465DF83A
:10320C00047B704780B400AF044B1B6803F4C063AD
:10321C001846BD465DF8047B704700BF0070004047
:10322C0080B485B000AF78607B68B3F5007F30D197
:10323C00234B1B6803F4C063B3F5007F38D0204BDD
:10324C001B6823F4C0631E4A43F4007313601D4BC8
:10325C001B68322202FB03F31B4AA2FB03239B0CC9
:10326C000133FB6002E0FB68013BFB60144B5B69C4
:10327C0003F48063B3F5806F02D1FB68002BF2D1AD
:10328C000F4B5B6903F48063B3F5806F10D103239C
:10329C000FE00B4B1B6803F4C063B3F5806F07D0D2
:1032AC00074B1B6823F4C063054A43F48063136027
:1032BC00002318461437BD465DF8047B704700BFE9
:1032CC00007000400000002083DE1B4380B588B0F6
:1032DC0000AF78607B68002B02D1012300F002BCA8
:1032EC00964B9B6803F00C03BB61944BDB6803F0BB
:1032FC0003037B617B681B6803F01003002B00F059
:10330C00E480BB69002B07D0BB690C2B40F08B8091
:10331C007B69012B40F08780884B1B6803F002030C
:10332C00002B05D07B689B69002B01D10123D9E3CD
:10333C007B681A6A814B1B6803F00803002B04D0CE
:10334C007E4B1B6803F0F00305E07C4BD3F8943004
:10335C001B0903F0F003934223D27B681B6A1846C7
:10336C0000F08CFD0346002B01D00123BAE3734B14
:10337C001B68724A43F008031360704B1B6823F000
:10338C00F0027B681B6A6D4913430B606B4B5B68E7
:10339C0023F47F427B68DB691B02684913434B6053
:1033AC0025E0664B1B68654A43F008031360634BCA
:1033BC001B6823F0F0027B681B6A604913430B60A7
:1033CC005E4B5B6823F47F427B68DB691B025B49C5
:1033DC0013434B60BB69002B09D17B681B6A1846F1
:1033EC0000F04CFD0346002B01D001237AE300F0E2
:1033FC0081FC0246514B9B681B0903F00F0350499B
:10340C00CB5C03F01F0322FA03F34E4A13604E4BBE
:10341C001B681846FEF7A6F90346FB73FB7B002BD3
:10342C0052D0FB7B5EE37B689B69002B32D0434B15
:10343C001B68424A43F001031360FEF7E3F938615D
:10344C0008E0FEF7DFF902463B69D31A022B01D9DB
:10345C00032347E3394B1B6803F00203002BF0D026
:10346C00364B1B68354A43F008031360334B1B681B
:10347C0023F0F0027B681B6A304913430B602F4B1F
:10348C005B6823F47F427B68DB691B022B49134387
:10349C004B601AE0294B1B68284A23F00103136088
:1034AC00FEF7B0F9386108E0FEF7ACF902463B696B
:1034BC00D31A022B01D9032314E3204B1B6803F00E
:1034CC000203002BF0D100E000BF7B681B6803F007
:1034DC000103002B73D0BB69082B05D0BB690C2BE7
:1034EC000ED17B69032B0BD1144B1B6803F40033F7
:1034FC00002B63D07B685B68002B5FD10123F1E26A
:10350C007B685B68B3F5803F06D10C4B1B680B4A9C
:10351C0043F48033136025E07B685B68B3F5A02F20
:10352C0014D1064B1B68054A43F480231360034BEC
:10353C001B68024A43F48033136013E0001002400E
:10354C00386200080000002004000020A04B1B681B
:10355C009F4A23F4803313609D4B1B689C4A23F4D1
:10356C00802313607B685B68002B13D0FEF74AF94D
:10357C00386108E0FEF746F902463B69D31A642B22
:10358C0001D90323AEE2924B1B6803F40033002BEA
:10359C00F0D014E0FEF736F9386108E0FEF732F9A6
:1035AC0002463B69D31A642B01D903239AE2884B58
:1035BC001B6803F40033002BF0D100E000BF7B68E4
:1035CC001B6803F00203002B60D0BB69042B05D0F1
:1035DC00BB690C2B19D17B69022B16D17C4B1B6858
:1035EC0003F48063002B05D07B68DB68002B01D1D2
:1035FC00012377E2764B5B6823F0F8527B681B69FA
:10360C001B06734913434B6040E07B68DB68002B5F
:10361C0023D06F4B1B686E4A43F480731360FEF724
:10362C00F1F8386108E0FEF7EDF802463B69D31A71
:10363C00022B01D9032355E2654B1B6803F480630D
:10364C00002BF0D0624B5B6823F0F8527B681B694F
:10365C001B065F4913434B6018E05D4B1B685C4ACB
:10366C0023F480731360FEF7CDF8386108E0FEF7A1
:10367C00C9F802463B69D31A022B01D9032331E264
:10368C00534B1B6803F48063002BF0D17B681B68E1
:10369C0003F00803002B3CD07B685B69002B1CD02B
:1036AC004B4BD3F894304A4A43F00103C2F89430A0
:1036BC00FEF7A8F8386108E0FEF7A4F802463B696B
:1036CC00D31A022B01D903230CE2414BD3F89430CB
:1036DC0003F00203002BEFD01BE03D4BD3F89430EA
:1036EC003B4A23F00103C2F89430FEF78BF83861A3
:1036FC0008E0FEF787F802463B69D31A022B01D982
:10370C000323EFE1324BD3F8943003F00203002B88
:10371C00EFD17B681B6803F00403002B00F0A6803C
:10372C000023FB772A4B9B6D03F08053002B0DD1AC
:10373C00274B9B6D264A43F080539365244B9B6D1E
:10374C0003F08053BB60BB680123FB77214B1B68E4
:10375C0003F48073002B18D11E4B1B681D4A43F4D5
:10376C0080731360FEF74EF8386108E0FEF74AF8F4
:10377C0002463B69D31A022B01D90323B2E1154B44
:10378C001B6803F48073002BF0D07B689B68012BC3
:10379C0008D10F4BD3F890300D4A43F00103C2F817
:1037AC00903029E07B689B68052B15D1084BD3F82A
:1037BC009030074A43F00403C2F89030044BD3F81E
:1037CC009030034A43F00103C2F8903014E000BF7C
:1037DC0000100240007000409A4BD3F89030994A88
:1037EC0023F00103C2F89030964BD3F89030954AF1
:1037FC0023F00403C2F890307B689B68002B16D032
:10380C00FEF700F838610AE0FDF7FCFF02463B6961
:10381C00D31A41F28832934201D9032362E1894BD6
:10382C00D3F8903003F00203002BEDD015E0FDF738
:10383C00E9FF38610AE0FDF7E5FF02463B69D31A60
:10384C0041F28832934201D903234BE17D4BD3F8EB
:10385C00903003F00203002BEDD1FB7F012B05D13F
:10386C00784B9B6D774A23F0805393657B681B687C
:10387C0003F02003002B3CD07B685B6A002B1CD030
:10388C00704BD3F898306F4A43F00103C2F898306C
:10389C00FDF7B8FF386108E0FDF7B4FF02463B695D
:1038AC00D31A022B01D903231CE1664BD3F89830B1
:1038BC0003F00203002BEFD01BE0624BD3F89830DF
:1038CC00604A23F00103C2F89830FDF79BFF386182
:1038DC0008E0FDF797FF02463B69D31A022B01D98A
:1038EC000323FFE0574BD3F8983003F00203002B6F
:1038FC00EFD17B689B6A002B00F0F3807B689B6A9E
:10390C00022B40F0C9804F4BDB687B617B6903F075
:10391C0003027B68DB6A9A422CD17B6903F070024C
:10392C007B681B6B013B1B019A4223D17B6903F41F
:10393C00FE427B685B6B1B029A421BD17B6903F0D6
:10394C0078427B689B6BDB069A4213D17B6903F44C
:10395C00C0027B68DB6B5B08013B5B059A4209D1BB
:10396C007B6903F0C0627B681B6C5B08013B5B06E8
:10397C009A426BD0BB690C2B62D0324B1B6803F0A4
:10398C008063002B01D00123ACE02E4B1B682D4A29
:10399C0023F080731360FDF735FF386108E0FDF705
:1039AC0031FF02463B69D31A022B01D9032399E05C
:1039BC00244B1B6803F00073002BF0D1214BDA6809
:1039CC00214B13407A68D16A7A68126B013A120162
:1039DC0011437A68526B120211437A68D26B520807
:1039EC00013A520511437A68126C5208013A520698
:1039FC0011437A68926BD2060A4312491343CB6087
:103A0C00104B1B680F4A43F0807313600D4BDB683F
:103A1C000C4A43F08073D360FDF7F4FE386108E084
:103A2C00FDF7F0FE02463B69D31A022B01D90323A2
:103A3C0058E0044B1B6803F00073002BF0D050E0EF
:103A4C0001234FE0001002408C809D01274B1B6826
:103A5C0003F00073002B44D1244B1B68234A43F022
:103A6C0080731360214BDB68204A43F08073D36072
:103A7C00FDF7C8FE386108E0FDF7C4FE02463B695D
:103A8C00D31A022B01D903232CE0184B1B6803F02B
:103A9C000073002BF0D024E0BB690C2B1FD0134B10
:103AAC001B68124A23F080731360FDF7ABFE38617C
:103ABC0008E0FDF7A7FE02463B69D31A022B01D999
:103ACC0003230FE0094B1B6803F00073002BF0D1AC
:103ADC00064BDA680549064B1340CB6001E0012325
:103AEC0000E0002318462037BD4680BD0010024080
:103AFC00FCFFEEFE80B584B000AF786039607B6867
:103B0C00002B01D10123E7E0754B1B6803F0070381
:103B1C003A689A4210D9724B1B6823F0070270491D
:103B2C003B6813430B606E4B1B6803F007033A684A
:103B3C009A4201D00123CFE07B681B6803F002039B
:103B4C00002B10D07B689A68664B9B6803F0F003DF
:103B5C009A4208D9634B9B6823F0F0027B689B6800
:103B6C00604913438B607B681B6803F00103002BD7
:103B7C004CD07B685B68032B07D15A4B1B6803F056
:103B8C000073002B21D10123A6E07B685B68022B1C
:103B9C0007D1544B1B6803F40033002B15D10123C0
:103BAC009AE07B685B68002B07D14E4B1B6803F0D7
:103BBC000203002B09D101238EE04A4B1B6803F44E
:103BCC008063002B01D1012386E0464B9B6823F0D8
:103BDC0003027B685B68434913438B60FDF712FE5D
:103BEC00F8600AE0FDF70EFE0246FB68D31A41F2BC
:103BFC008832934201D903236EE03A4B9B6803F061
:103C0C000C027B685B689B009A42EBD17B681B685B
:103C1C0003F00203002B10D07B689A68314B9B6831
:103C2C0003F0F0039A4208D22E4B9B6823F0F0026B
:103C3C007B689B682B4913438B60294B1B6803F0F3
:103C4C0007033A689A4210D2254B1B6823F00702EF
:103C5C0023493B6813430B60214B1B6803F007039C
:103C6C003A689A4201D0012336E07B681B6803F066
:103C7C000403002B08D01B4B9B6823F4E0627B6889
:103C8C00DB68184913438B607B681B6803F00803DF
:103C9C00002B09D0134B9B6823F460527B681B6983
:103CAC00DB00104913438B6000F024F802460D4BE7
:103CBC009B681B0903F00F030B49CB5C03F01F033C
:103CCC0022FA03F3094A1360094B1B681846FDF7E7
:103CDC0049FD0346FB72FB7A18461037BD4680BD82
:103CEC000020024000100240386200080000002052
:103CFC000400002080B489B000AF0023FB610023D6
:103D0C00BB613E4B9B6803F00C033B613B4BDB6898
:103D1C0003F00303FB603B69002B05D03B690C2BC4
:103D2C0021D1FB68012B1ED1344B1B6803F0080317
:103D3C00002B07D1314BD3F894301B0A03F00F033F
:103D4C00FB6105E02D4B1B681B0903F00F03FB61A6
:103D5C002B4AFB6952F82330FB613B69002B0DD1D8
:103D6C00FB69BB610AE03B69042B02D1254BBB61AB
:103D7C0004E03B69082B01D1234BBB613B690C2B45
:103D8C0034D11E4BDB6803F00303BB60BB68022B12
:103D9C0003D0BB68032B03D005E01A4B7B6105E015
:103DAC00194B7B6102E0FB697B6100BF134BDB6845
:103DBC001B0903F0070301337B60104BDB681B0A04
:103DCC0003F07F037A6903FB02F27B68B2FBF3F327
:103DDC007B610A4BDB685B0E03F0030301335B0072
:103DEC003B607A693B68B2FBF3F3BB61BB69184675
:103DFC002437BD465DF8047B704700BF00100240BD
:103E0C00506200080024F40000127A0080B400AF65
:103E1C00034B1B681846BD465DF8047B704700BF1A
:103E2C000000002080B500AFFFF7F0FF0246064B04
:103E3C009B681B0A03F007030449CB5C03F01F03C8
:103E4C0022FA03F3184680BD0010024048620008B5
:103E5C0080B500AFFFF7DAFF0246064B9B68DB0A22
:103E6C0003F007030449CB5C03F01F0322FA03F3AE
:103E7C00184680BD001002404862000880B586B02C
:103E8C0000AF786000233B612A4B9B6D03F080539D
:103E9C00002B03D0FFF7B6F9786114E0254B9B6D2E
:103EAC00244A43F080539365224B9B6D03F080535F
:103EBC00FB60FB68FFF7A6F978611E4B9B6D1D4AF2
:103ECC0023F0805393657B69B3F5007F0BD17B683E
:103EDC00802B19D97B68A02B02D902233B6113E0FC
:103EEC0001233B6110E07B68802B02D903233B61EB
:103EFC000AE07B68802B02D102233B6104E07B68E3
:103F0C00702B01D101233B610B4B1B6823F0070283
:103F1C0009493B6913430B60074B1B6803F007030C
:103F2C003A699A4201D0012300E000231846183761
:103F3C00BD4680BD001002400020024080B586B016
:103F4C0000AF78600023FB740023BB747B681B6894
:103F5C0003F40063002B31D07B685B6CB3F5400F2E
:103F6C001AD0B3F5400F14D8002B09D0B3F5000FBD
:103F7C000FD15D4BDB685C4A43F48033D3600CE0BB
:103F8C007B6804330021184600F0F0F90346FB74FB
:103F9C0003E00123FB7400E000BFFB7C002B0BD182
:103FAC00514BD3F8883023F440027B685B6C4E494C
:103FBC001343C1F8883001E0FB7CBB747B681B6841
:103FCC0003F40033002B00F09E8000237B74464BDF
:103FDC009B6D03F08053002B01D1012300E00023E3
:103FEC00002B0DD0404B9B6D3F4A43F080539365A3
:103FFC003D4B9B6D03F08053BB60BB6801237B740E
:10400C003A4B1B68394A43F480731360FDF7FAFB93
:10401C00F86009E0FDF7F6FB0246FB68D31A022BA9
:10402C0002D90323FB7405E0304B1B6803F4807347
:10403C00002BEFD0FB7C002B5AD12B4BD3F89030BC
:10404C0003F440737B617B69002B1ED07B689B6DF6
:10405C007A699A4219D0244BD3F8903023F44073E8
:10406C007B61214BD3F890301F4A43F48033C2F864
:10407C0090301D4BD3F890301B4A23F48033C2F898
:10408C009030194A7B69C2F890307B6903F00103C8
:10409C00002B16D0FDF7B6FBF8600BE0FDF7B2FB7A
:1040AC000246FB68D31A41F28832934202D90323A9
:1040BC00FB7406E00C4BD3F8903003F00203002B9A
:1040CC00ECD0FB7C002B0BD1074BD3F8903023F4B6
:1040DC0040727B689B6D04491343C1F8903009E032
:1040EC00FB7CBB7406E000BF001002400070004077
:1040FC00FB7CBB747B7C012B05D19B4B9B6D9A4A43
:10410C0023F0805393657B681B6803F00103002B3D
:10411C000AD0954BD3F8883023F003027B681B6AD6
:10412C0091491343C1F888307B681B6803F0020384
:10413C00002B0AD08C4BD3F8883023F00C027B6810
:10414C005B6A89491343C1F888307B681B6803F0AC
:10415C000403002B0AD0844BD3F8883023F03002B0
:10416C007B689B6A80491343C1F888307B681B6865
:10417C0003F02003002B0AD07B4BD3F8883023F4B8
:10418C0040627B68DB6A78491343C1F888307B68EE
:10419C001B6803F40073002B0AD0734BD3F88830E0
:1041AC0023F440227B68DB6B6F491343C1F88830E2
:1041BC007B681B6803F48063002B0AD06A4BD3F82E
:1041CC00883023F440127B681B6C67491343C1F899
:1041DC0088307B681B6803F04003002B0AD0624BCD
:1041EC00D3F8883023F440527B681B6B5E49134331
:1041FC00C1F888307B681B6803F08003002B0AD061
:10420C00594BD3F8883023F440427B685B6B56499A
:10421C001343C1F888307B681B6803F48073002B50
:10422C000AD0514BD3F8883023F440327B689B6B17
:10423C004D491343C1F888307B681B6803F4002395
:10424C00002B28D0484BD3F8883023F040627B6891
:10425C009B6C45491343C1F888307B689B6CB3F168
:10426C00006F06D1404BDB683F4A43F48013D360A8
:10427C0011E07B689B6CB3F1806F0CD17B680433CD
:10428C000121184600F072F80346FB74FB7C002BEE
:10429C0001D0FB7CBB747B681B6803F48023002B70
:1042AC0028D0314BD3F8883023F040627B68DB6C2C
:1042BC002D491343C1F888307B68DB6CB3F1006F78
:1042CC0006D1294BDB68284A43F48013D36011E0F4
:1042DC007B68DB6CB3F1806F0CD17B6804330121FC
:1042EC00184600F043F80346FB74FB7C002B01D00E
:1042FC00FB7CBB747B681B6803F48043002B1CD0D5
:10430C00194BD3F8883023F040527B681B6D16494B
:10431C001343C1F888307B681B6DB3F1805F0CD1FF
:10432C007B6804330221184600F020F80346FB7426
:10433C00FB7C002B01D0FB7CBB747B681B6803F4FB
:10434C000043002B0AD0084BD3F8883023F080426E
:10435C007B685B6D04491343C1F88830BB7C1846FD
:10436C001837BD4680BD00BF0010024080B584B038
:10437C0000AF786039600023FB73744BDB6803F08B
:10438C000303002B18D0714BDB6803F003027B682E
:10439C001B689A420DD17B681B68002B09D06B4BB4
:1043AC00DB681B0903F007035A1C7B685B689A42A5
:1043BC0047D00123FB7344E07B681B68032B18D0A8
:1043CC00032B25D8012B02D0022B09D020E05F4B08
:1043DC001B6803F00203002B1DD10123FB731AE0B1
:1043EC005A4B1B6803F48063002B16D10123FB731B
:1043FC0013E0564B1B6803F40033002B0FD1534BC7
:10440C001B6803F48023002B09D10123FB7306E006
:10441C000123FB7304E000BF02E000BF00E000BF1B
:10442C00FB7B002B0DD1494BDB6823F073027B68BF
:10443C0019687B685B68013B1B010B4343491343C1
:10444C00CB60FB7B002B7CD1404B1B683F4A23F09D
:10445C0080631360FDF7D6F9B86009E0FDF7D2F977
:10446C000246BB68D31A022B02D90323FB7305E067
:10447C00364B1B6803F00063002BEFD1FB7B002B4A
:10448C005FD13B68002B10D1304B1B6923F0784374
:10449C0023F4FE437A68926811027A68D268D206D5
:1044AC000A432A4913430B6127E03B68012B12D1C5
:1044BC00264B1B6923F4C00323F4FE437A689268ED
:1044CC0011027A6812695208013A52050A431F49CF
:1044DC0013430B6111E01D4B1B6923F0C06323F4E4
:1044EC00FE437A68926811027A6852695208013A5E
:1044FC0052060A43154913430B61144B1B68134AAC
:10450C0043F080631360FDF77DF9B86009E0FDF7B7
:10451C0079F90246BB68D31A022B02D90323FB7329
:10452C0005E00A4B1B6803F00063002BEFD0FB7B0C
:10453C00002B06D1054B1A697B689B690349134311
:10454C000B61FB7B18461037BD4680BD0010024046
:10455C0080B582B000AF78607B68002B01D101235D
:10456C0049E07B6893F83D30DBB2002B06D17B68C9
:10457C00002283F83C207868FCF766FE7B680222F8
:10458C0083F83D207B681A687B6804331946104613
:10459C0000F01EFD7B68012283F848207B68012215
:1045AC0083F83E207B68012283F83F207B68012240
:1045BC0083F840207B68012283F841207B6801222C
:1045CC0083F842207B68012283F843207B68012218
:1045DC0083F844207B68012283F845207B68012204
:1045EC0083F846207B68012283F847207B680122F0
:1045FC0083F83D20002318460837BD4680BD80B5A2
:10460C0082B000AF78607B68002B01D1012349E0B8
:10461C007B6893F83D30DBB2002B06D17B6800221F
:10462C0083F83C20786800F041F87B68022283F81C
:10463C003D207B681A687B6804331946104600F0ED
:10464C00C7FC7B68012283F848207B68012283F831
:10465C003E207B68012283F83F207B68012283F88F
:10466C0040207B68012283F841207B68012283F87B
:10467C0042207B68012283F843207B68012283F867
:10468C0044207B68012283F845207B68012283F853
:10469C0046207B68012283F847207B68012283F83F
:1046AC003D20002318460837BD4680BD80B483B03A
:1046BC0000AF786000BF0C37BD465DF8047B7047D7
:1046CC0080B584B000AF786039603B68002B09D1AD
:1046DC007B6893F83E30DBB2012B14BF012300231F
:1046EC00DBB23CE03B68042B09D17B6893F83F308C
:1046FC00DBB2012B14BF01230023DBB22FE03B689C
:10470C00082B09D17B6893F84030DBB2012B14BF26
:10471C0001230023DBB222E03B680C2B09D17B6820
:10472C0093F84130DBB2012B14BF01230023DBB221
:10473C0015E03B68102B09D17B6893F84230DBB253
:10474C00012B14BF01230023DBB208E07B6893F834
:10475C004330DBB2012B14BF01230023DBB2002B4F
:10476C0001D001237EE03B68002B04D17B68022240
:10477C0083F83E2023E03B68042B04D17B680222A3
:10478C0083F83F201BE03B68082B04D17B68022296
:10479C0083F8402013E03B680C2B04D17B68022289
:1047AC0083F841200BE03B68102B04D17B6802227C
:1047BC0083F8422003E07B68022283F843207B6865
:1047CC001B6801223968184600F07EFF7B681B6865
:1047DC00264A934209D07B681B68254A934204D031
:1047EC007B681B68234A934201D1012300E000231C
:1047FC00002B07D07B681B685A6C7B681B6842F4E3
:10480C0000425A647B681B68184A934209D07B6843
:10481C001B68B3F1804F04D07B681B68144A934229
:10482C0015D17B681B689A68134B1340FB60FB68BF
:10483C00062B15D0FB68B3F5803F11D07B681B6845
:10484C001A687B681B6842F001021A6008E07B68FA
:10485C001B681A687B681B6842F001021A6000E052
:10486C0000BF002318461037BD4680BD002C014008
:10487C0000400140004401400700010080B582B0B7
:10488C0000AF78607B681B681B6903F00203022B86
:10489C0022D17B681B68DB6803F00203022B1BD15F
:1048AC007B681B686FF002021A617B6801221A7721
:1048BC007B681B689B6903F00303002B03D07868AB
:1048CC0000F067FB05E0786800F059FB786800F0B1
:1048DC006AFB7B6800221A777B681B681B6903F0F4
:1048EC000403042B22D17B681B68DB6803F00403F0
:1048FC00042B1BD17B681B686FF004021A617B6868
:10490C0002221A777B681B689B6903F44073002BA7
:10491C0003D0786800F03DFB05E0786800F02FFBD1
:10492C00786800F040FB7B6800221A777B681B6874
:10493C001B6903F00803082B22D17B681B68DB681A
:10494C0003F00803082B1BD17B681B686FF008026F
:10495C001A617B6804221A777B681B68DB6903F099
:10496C000303002B03D0786800F013FB05E0786894
:10497C0000F005FB786800F016FB7B6800221A77C4
:10498C007B681B681B6903F01003102B22D17B681A
:10499C001B68DB6803F01003102B1BD17B681B68B2
:1049AC006FF010021A617B6808221A777B681B680B
:1049BC00DB6903F44073002B03D0786800F0E9FA4C
:1049CC0005E0786800F0DBFA786800F0ECFA7B68B8
:1049DC0000221A777B681B681B6903F00103012B0B
:1049EC000ED17B681B68DB6803F00103012B07D138
:1049FC007B681B686FF001021A61786800F0B5FAE9
:104A0C007B681B681B6903F08003802B0ED17B68CD
:104A1C001B68DB6803F08003802B07D17B681B6865
:104A2C006FF080021A61786800F05CFF7B681B688D
:104A3C001B6903F48073B3F5807F0ED17B681B6810
:104A4C00DB6803F08003802B07D17B681B686FF455
:104A5C0080721A61786800F04FFF7B681B681B69D5
:104A6C0003F04003402B0ED17B681B68DB6803F01E
:104A7C004003402B07D17B681B686FF040021A6122
:104A8C00786800F09AFA7B681B681B6903F02003B6
:104A9C00202B0ED17B681B68DB6803F02003202BD6
:104AAC0007D17B681B686FF020021A61786800F0F0
:104ABC000FFF00BF0837BD4680BD000080B586B033
:104ACC0000AFF860B9607A600023FB75FB6893F85F
:104ADC003C30012B01D1022366E0FB68012283F8F4
:104AEC003C207B68142B57D801A252F823F000BF4E
:104AFC00514B0008A54B0008A54B0008A54B00081E
:104B0C005F4B0008A54B0008A54B0008A54B0008FF
:104B1C006D4B0008A54B0008A54B0008A54B0008E1
:104B2C007B4B0008A54B0008A54B0008A54B0008C3
:104B3C00894B0008A54B0008A54B0008A54B0008A5
:104B4C00974B0008FB681B68B968184600F0A4FA7C
:104B5C0025E0FB681B68B968184600F019FB1EE0DD
:104B6C00FB681B68B968184600F08CFB17E0FB6803
:104B7C001B68B968184600F0FDFB10E0FB681B6869
:104B8C00B968184600F054FC09E0FB681B68B9686A
:104B9C00184600F0A5FC02E00123FB7500BFFB6882
:104BAC00002283F83C20FB7D18461837BD4680BD9B
:104BBC0080B586B000AFF860B9607A600023FB75F1
:104BCC00FB6893F83C30012B01D10223FFE0FB681A
:104BDC00012283F83C207B68142B00F2F08001A2A8
:104BEC0052F823F0454C0008CB4D0008CB4D000883
:104BFC00CB4D0008854C0008CB4D0008CB4D000870
:104C0C00CB4D0008C74C0008CB4D0008CB4D00081D
:104C1C00CB4D0008074D0008CB4D0008CB4D0008CC
:104C2C00CB4D0008494D0008CB4D0008CB4D00087A
:104C3C00CB4D0008894D0008FB681B68B968184605
:104C4C0000F02AFAFB681B689A69FB681B6842F043
:104C5C0008029A61FB681B689A69FB681B6822F062
:104C6C0004029A61FB681B689969BB681A69FB6846
:104C7C001B680A439A61A5E0FB681B68B968184673
:104C8C0000F086FAFB681B689A69FB681B6842F4A3
:104C9C0000629A61FB681B689A69FB681B6822F4C6
:104CAC0080629A61FB681B689969BB681B691A0270
:104CBC00FB681B680A439A6184E0FB681B68B9684F
:104CCC00184600F0DFFAFB681B68DA69FB681B68A2
:104CDC0042F00802DA61FB681B68DA69FB681B6842
:104CEC0022F00402DA61FB681B68D969BB681A6997
:104CFC00FB681B680A43DA6164E0FB681B68B968EF
:104D0C00184600F037FBFB681B68DA69FB681B6808
:104D1C0042F40062DA61FB681B68DA69FB681B68A5
:104D2C0022F48062DA61FB681B68D969BB681B6975
:104D3C001A02FB681B680A43DA6143E0FB681B68D4
:104D4C00B968184600F074FBFB681B685A6DFB6869
:104D5C001B6842F008025A65FB681B685A6DFB68B9
:104D6C001B6822F004025A65FB681B68596DBB680E
:104D7C001A69FB681B680A435A6523E0FB681B68C9
:104D8C00B968184600F0ACFBFB681B685A6DFB68F1
:104D9C001B6842F400625A65FB681B685A6DFB681D
:104DAC001B6822F480625A65FB681B68596DBB68EE
:104DBC001B691A02FB681B680A435A6502E001234F
:104DCC00FB7500BFFB68002283F83C20FB7D184676
:104DDC001837BD4680BD00BF80B584B000AF786089
:104DEC0039600023FB737B6893F83C30012B01D1B5
:104DFC000223B6E07B68012283F83C207B68022208
:104E0C0083F83D207B681B689B68BB60BB6823F400
:104E1C00803323F07703BB60BB6823F47F43BB6014
:104E2C007B681B68BA689A603B681B68B3F5005FC7
:104E3C003ED0B3F5005F00F28780B3F5805F00F0E1
:104E4C008680B3F5805F7FD8702B1AD0702B7BD8FF
:104E5C00602B50D0602B77D8502B3CD0502B73D874
:104E6C00402B58D0402B6FD8302B64D0302B6BD8C4
:104E7C00202B60D0202B67D8002B5CD0102B5AD065
:104E8C0062E07B6818683B6899683B685A683B68C5
:104E9C00DB6800F0F9FB7B681B689B68BB60BB6838
:104EAC0043F07703BB607B681B68BA689A604FE07D
:104EBC007B6818683B6899683B685A683B68DB6894
:104ECC0000F0E2FB7B681B689A687B681B6842F405
:104EDC0080429A603CE07B6818683B6859683B6884
:104EEC00DB681A4600F056FB7B681B68502118469D
:104EFC0000F0AFFB2CE07B6818683B6859683B6896
:104F0C00DB681A4600F075FB7B681B68602118464D
:104F1C0000F09FFB1CE07B6818683B6859683B6895
:104F2C00DB681A4600F036FB7B681B68402118468C
:104F3C0000F08FFB0CE07B681A683B681B68194615
:104F4C00104600F086FB03E00123FB7300E000BF7A
:104F5C007B68012283F83D207B68002283F83C208B
:104F6C00FB7B18461037BD4680BD80B483B000AFC4
:104F7C00786000BF0C37BD465DF8047B704780B489
:104F8C0083B000AF786000BF0C37BD465DF8047B82
:104F9C00704780B483B000AF786000BF0C37BD465B
:104FAC005DF8047B704780B483B000AF786000BFBD
:104FBC000C37BD465DF8047B704780B483B000AFFE
:104FCC00786000BF0C37BD465DF8047B704700006D
:104FDC0080B485B000AF786039607B681B68FB607B
:104FEC007B682A4A934203D07B68B3F1804F08D187
:104FFC00FB6823F07003FB603B685B68FA68134343
:10500C00FB607B68214A93420BD07B68B3F1804FE5
:10501C0007D07B681E4A934203D07B681D4A93429B
:10502C0008D1FB6823F44073FB603B68DB68FA68CB
:10503C001343FB60FB6823F080023B685B691343FE
:10504C00FB607B68FA681A603B689A687B68DA6276
:10505C003B681A687B689A627B680C4A934207D05B
:10506C007B680B4A934203D07B680A4A934203D174
:10507C003B681A697B681A637B6801225A6100BF1E
:10508C001437BD465DF8047B704700BF002C01400F
:10509C00004001400044014080B487B000AF78600C
:1050AC0039607B681B6A23F001027B681A627B689B
:1050BC001B6A7B617B685B683B617B689B69FB60FF
:1050CC00FB6823F4803323F07003FB60FB6823F050
:1050DC000303FB603B681B68FA681343FB607B6946
:1050EC0023F002037B613B689B687A6913437B6105
:1050FC007B68244A934207D07B68234A934203D0AF
:10510C007B68224A93420CD17B6923F008037B61B4
:10511C003B68DB687A6913437B617B6923F004038A
:10512C007B617B68174A934207D07B68164A93428F
:10513C0003D07B68154A934211D13B6923F48073E9
:10514C003B613B6923F400733B613B685B693A69E3
:10515C0013433B613B689B693A6913433B617B6832
:10516C003A695A607B68FA689A613B685A687B684E
:10517C005A637B687A691A6200BF1C37BD465DF8BA
:10518C00047B7047002C014000400140004401406A
:10519C0080B487B000AF786039607B681B6A23F0FD
:1051AC0010027B681A627B681B6A7B617B685B6898
:1051BC003B617B689B69FB60FB6823F0807323F485
:1051CC00E043FB60FB6823F44073FB603B681B68A7
:1051DC001B02FA681343FB607B6923F020037B619D
:1051EC003B689B681B017A6913437B617B68224A8D
:1051FC0093420DD17B6923F080037B613B68DB68B4
:10520C001B017A6913437B617B6923F040037B614B
:10521C007B68194A934207D07B68184A934203D0A3
:10522C007B68174A934213D13B6923F480633B613B
:10523C003B6923F400633B613B685B699B003A6903
:10524C0013433B613B689B699B003A6913433B6189
:10525C007B683A695A607B68FA689A613B685A685D
:10526C007B689A637B687A691A6200BF1C37BD46FB
:10527C005DF8047B704700BF002C014000400140EA
:10528C000044014080B487B000AF786039607B681F
:10529C001B6A23F480727B681A627B681B6A7B61D1
:1052AC007B685B683B617B68DB69FB60FB6823F4B4
:1052BC00803323F07003FB60FB6823F00303FB6077
:1052CC003B681B68FA681343FB607B6923F400732B
:1052DC007B613B689B681B027A6913437B617B682B
:1052EC00214A93420DD17B6923F400637B613B68B7
:1052FC00DB681B027A6913437B617B6923F480634F
:10530C007B617B68184A934207D07B68174A9342AB
:10531C0003D07B68164A934213D13B6923F4805324
:10532C003B613B6923F400533B613B685B691B01A8
:10533C003A6913433B613B689B691B013A69134310
:10534C003B617B683A695A607B68FA68DA613B6852
:10535C005A687B68DA637B687A691A6200BF1C370B
:10536C00BD465DF8047B7047002C014000400140B5
:10537C000044014080B487B000AF786039607B682E
:10538C001B6A23F480527B681A627B681B6A3B6140
:10539C007B685B687B617B68DB69FB60FB6823F087
:1053AC00807323F4E043FB60FB6823F44073FB60E1
:1053BC003B681B681B02FA681343FB603B6923F4D0
:1053CC0000533B613B689B681B033A6913433B6189
:1053DC007B68144A934207D07B68134A934203D0EC
:1053EC007B68124A934209D17B6923F480437B6129
:1053FC003B685B699B017A6913437B617B687A69C3
:10540C005A607B68FA68DA613B685A687B681A6490
:10541C007B683A691A6200BF1C37BD465DF8047B95
:10542C00704700BF002C0140004001400044014087
:10543C0080B487B000AF786039607B681B6A23F456
:10544C0080327B681A627B681B6A3B617B685B6895
:10545C007B617B685B6DFB60FB6823F4803323F01E
:10546C007003FB603B681B68FA681343FB603B6985
:10547C0023F400333B613B689B681B043A6913437C
:10548C003B617B68134A934207D07B68124A934274
:10549C0003D07B68114A934209D17B6923F4803392
:1054AC007B613B685B691B027A6913437B617B6898
:1054BC007A695A607B68FA685A653B685A687B68F7
:1054CC009A657B683A691A6200BF1C37BD465DF865
:1054DC00047B7047002C0140004001400044014017
:1054EC0080B487B000AF786039607B681B6A23F4A6
:1054FC0080127B681A627B681B6A3B617B685B6805
:10550C007B617B685B6DFB60FB6823F0807323F42D
:10551C00E043FB603B681B681B02FA681343FB60AB
:10552C003B6923F400133B613B689B681B053A699C
:10553C0013433B617B68144A934207D07B68134A40
:10554C00934203D07B68124A934209D17B6923F4BE
:10555C0080237B613B685B699B027A6913437B61A7
:10556C007B687A695A607B68FA685A653B685A6846
:10557C007B68DA657B683A691A6200BF1C37BD46E6
:10558C005DF8047B704700BF002C014000400140D7
:10559C000044014080B487B000AFF860B9607A6015
:1055AC00FB681B6A7B61FB681B6A23F00102FB68CA
:1055BC001A62FB689B693B613B6923F0F0033B611A
:1055CC007B681B013A6913433B617B6923F00A0337
:1055DC007B617A69BB6813437B61FB683A699A61AA
:1055EC00FB687A691A6200BF1C37BD465DF8047B04
:1055FC00704780B487B000AFF860B9607A60FB6820
:10560C001B6A23F01002FB681A62FB689B697B61C2
:10561C00FB681B6A3B617B6923F470437B617B688D
:10562C001B037A6913437B613B6923F0A0033B6145
:10563C00BB681B013A6913433B61FB687A699A6149
:10564C00FB683A691A6200BF1C37BD465DF8047BE3
:10565C00704780B485B000AF786039607B689B6818
:10566C00FB60FB6823F07003FB603A68FB68134334
:10567C0043F00703FB607B68FA689A6000BF14373D
:10568C00BD465DF8047B704780B487B000AFF8600E
:10569C00B9607A603B60FB689B687B617B6923F433
:1056AC007F437B613B681A027B681A43BB681343D8
:1056BC007A6913437B61FB687A699A6000BF1C3777
:1056CC00BD465DF8047B704780B487B000AFF860CE
:1056DC00B9607A60BB6803F01F03012202FA03F37E
:1056EC007B61FB681A6A7B69DB431A40FB681A62B0
:1056FC00FB681A6ABB6803F01F03796801FA03F3AD
:10570C001A43FB681A6200BF1C37BD465DF8047B68
:10571C007047000080B485B000AF786039607B685A
:10572C0093F83C30012B01D102234FE07B6801221E
:10573C0083F83C207B68022283F83D207B681B6841
:10574C005B68FB607B681B689B68BB607B681B6845
:10575C00214A934208D1FB6823F47003FB603B6839
:10576C005B68FA681343FB60FB6823F07003FB6013
:10577C003B681B68FA681343FB607B681B68FA681C
:10578C005A607B681B68144A934209D07B681B687B
:10579C00B3F1804F04D07B681B68104A93420CD144
:1057AC00BB6823F08003BB603B689B68BA681343FB
:1057BC00BB607B681B68BA689A607B68012283F8BF
:1057CC003D207B68002283F83C20002318461437C8
:1057DC00BD465DF8047B7047002C01400040014041
:1057EC0080B485B000AF786039600023FB607B68C3
:1057FC0093F83C30012B01D1022360E07B6801223D
:10580C0083F83C20FB6823F0FF023B68DB68134302
:10581C00FB60FB6823F440723B689B681343FB609E
:10582C00FB6823F480623B685B681343FB60FB6896
:10583C0023F400623B681B681343FB60FB6823F492
:10584C0080523B681B691343FB60FB6823F40052D6
:10585C003B685B691343FB60FB6823F480423B6845
:10586C009B6A1343FB60FB6823F470223B689B69C3
:10587C001B041343FB607B681B68144A934215D1CD
:10588C00FB6823F470023B685B6A1B051343FB60E7
:10589C00FB6823F080723B68DB691343FB60FB6899
:1058AC0023F000723B681B6A1343FB607B681B6828
:1058BC00FA685A647B68002283F83C20002318465F
:1058CC001437BD465DF8047B704700BF002C0140C7
:1058DC0080B483B000AF786000BF0C37BD465DF874
:1058EC00047B704780B483B000AF786000BF0C3786
:1058FC00BD465DF8047B704780B483B000AF786020
:10590C0000BF0C37BD465DF8047B704780B582B094
:10591C0000AF78607B68002B01D1012340E07B68ED
:10592C009B6F002B06D17B68002283F8742078686B
:10593C00FBF716FD7B6824229A677B681B681A6844
:10594C007B681B6822F001021A60786800F02CF862
:10595C000346012B01D1012322E07B685B6A002BFB
:10596C0002D0786800F07AFA7B681B685A687B680A
:10597C001B6822F490425A607B681B689A687B68AB
:10598C001B6822F02A029A607B681B681A687B6885
:10599C001B6842F001021A60786800F001FB0346B4
:1059AC0018460837BD4680BD2DE9B04F8AB000AF10
:1059BC00F860002387F82230FB689A68FB681B6943
:1059CC001A43FB685B691A43FB68DB6913437B6210
:1059DC00FB681B681A689E4B1340FA681268796A58
:1059EC000B431360FB681B685B6823F44051FB6836
:1059FC00DA68FB681B680A435A60FB689B697B6228
:105A0C00FB681B68934A934204D0FB681B6A7A6A52
:105A1C0013437B62FB681B689B6823F43061FB6853
:105A2C001B687A6A0A439A60FB681B688A4A93422D
:105A3C0026D18A4BD3F8883003F00303032B1BD8F1
:105A4C0001A252F823F000BF655A0008755A0008ED
:105A5C006D5A00087D5A0008012387F82330ABE00B
:105A6C00022387F82330A7E0042387F82330A3E030
:105A7C00082387F823309FE0102387F823309BE01E
:105A8C00FB681B68764A934238D1744BD3F8883044
:105A9C0003F00C030C2B2DD801A252F823F000BFFD
:105AAC00E15A0008015B0008015B0008015B00087B
:105ABC00F15A0008015B0008015B0008015B00085B
:105ACC00E95A0008015B0008015B0008015B000853
