:020000040800F2
:10000000000001207598000815710008197100089A
:100010001D71000821710008257100080000000012
:1000200000000000000000000000000091E3000854
:10003000297100080000000021E4000885E40008A0
:10004000C5980008C5980008C5980008C59800081C
:10005000C5980008C5980008C5980008C59800080C
:10006000C5980008C5980008C59800082D710008BB
:10007000C5980008C5980008C5980008C5980008EC
:10008000C5980008C5980008C5980008C5980008DC
:10009000C5980008C5980008C5980008C5980008CC
:1000A000C5980008C5980008C5980008C5980008BC
:1000B000C59800080000000000000000C598000876
:1000C000C5980008C5980008C5980008C59800089C
:1000D000C59800083971000845710008C5980008E6
:1000E000C5980008C5980008000000000000000046
:1000F0000000000000000000000000000000000000
:1001000000000000C598000800000000C598000825
:100110000000000000000000C598000851710008B0
:10012000C5980008C5980008C5980008C59800083B
:10013000C59800080000000000000000000000005A
:10014000C5980008C5980008C59800080000000080
:10015000C5980008C5980008C5980008C59800080B
:10016000C5980008C5980008C59800080000000060
:10017000C5980008C59800080000000000000000B5
:0C018000C5980008C5980008C598000844
:1001900010B5054C237833B9044B13B10448AFF3C1
:1001A00000800123237010BD080200200000000021
:1001B000C83B010808B5034B1BB103490348AFF323
:1001C000008008BD000000000C020020C83B0108B0
:1001D00038B500281CBF01680029184A23D1184BE4
:1001E0001C684FF6F0710C404CF24025AC421FBF2A
:1001F0001B6819404CF27024A14212D1114D29689C
:1002000079B911490B68C3F30B03B3F58A6F1FBFAC
:100210000968C1F30B0140F28343994204BF0121F5
:10022000117028B905E0094B994204BF01211170F2
:100230004068BDE8324005F06DBB00BF24020020DD
:1002400000ED00E0002004E00010005C00003748F2
:1002500001F0FF01102A2BDB10F0070F08D010F877
:10026000013B013A8B422DD010F0070F42B3F6D17B
:10027000F0B441EA012141EA014122F007047FF094
:1002800000070023F0E80256083C85EA010586EAEB
:10029000010685FA47F5A3FA87F586FA47F6A5FA27
:1002A00087F68EB9EED1F0BC01F0FF0102F0070233
:1002B00032B110F8013B013A83EA010313B1F8D1DE
:1002C0000020704701387047002D06BF35460338BF
:1002D000073815F0010F07D1013015F4807F02BFF8
:1002E000013015F4C03F0130F0BC0138704700BF49
:1002F000034613F8012B002AFBD1181A0138704766
:1003000081F0004102E000BF83F0004330B54FEAC6
:1003100041044FEA430594EA050F08BF90EA020F33
:100320001FBF54EA000C55EA020C7FEA645C7FEAC6
:10033000655C00F0E2804FEA5454D4EB5555B8BFE9
:100340006D420CDD2C4480EA020281EA030382EA5A
:10035000000083EA010180EA020281EA0303362DEC
:1003600088BF30BD11F0004F4FEA01314FF4801CBF
:100370004CEA113102D0404261EB410113F0004FD1
:100380004FEA03334CEA133302D0524263EB430388
:1003900094EA050F00F0A780A4F10104D5F1200E26
:1003A0000DDB02FA0EFC22FA05F2801841F1000181
:1003B00003FA0EF2801843FA05F359410EE0A5F155
:1003C00020050EF1200E012A03FA0EFC28BF4CF086
:1003D000020C43FA05F3C01851EBE37101F000453C
:1003E00007D54FF0000EDCF1000C7EEB00006EEB49
:1003F0000101B1F5801F1BD3B1F5001F0CD34908D3
:100400005FEA30004FEA3C0C04F101044FEA445229
:1004100012F5800F80F09A80BCF1004F08BF5FEAB0
:10042000500C50F1000041EB045141EA050130BD90
:100430005FEA4C0C404141EB0101013C28BFB1F5A2
:10044000801FE9D291F0000F04BF01460020B1FAED
:1004500081F308BF2033A3F10B03B3F120020CDAC0
:100460000C3208DD02F1140CC2F10C0201FA0CF09E
:1004700021FA02F10CE002F11402D8BFC2F1200C03
:1004800001FA02F120FA0CFCDCBF41EA0C019040B9
:10049000E41AA2BF01EB0451294330BD6FEA040402
:1004A0001F3C1CDA0C340EDC04F11404C4F12002ED
:1004B00020FA04F001FA02F340EA030021FA04F3FF
:1004C00045EA030130BDC4F10C04C4F1200220FA56
:1004D00002F001FA04F340EA0300294630BD21FA94
:1004E00004F0294630BD94F0000F83F4801306BF5A
:1004F00081F480110134013D4EE77FEA645C18BF4E
:100500007FEA655C29D094EA050F08BF90EA020FE4
:1005100005D054EA000C04BF1946104630BD91EADC
:10052000030F1EBF0021002030BD5FEA545C05D1DF
:100530004000494128BF41F0004130BD14F580041E
:100540003CBF01F5801130BD01F0004545F0FE4192
:1005500041F470014FF0000030BD7FEA645C1ABFC7
:10056000194610467FEA655C1CBF0B46024650EAFE
:10057000013406BF52EA033591EA030F41F400212A
:1005800030BD00BF90F0000F04BF0021704730B5B0
:100590004FF4806404F132044FF000054FF0000185
:1005A00050E700BF90F0000F04BF0021704730B546
:1005B0004FF4806404F1320410F0004548BF40421B
:1005C0004FF000013EE700BF42004FEAE2014FEA70
:1005D00031014FEA02701FBF12F07F4393F07F4F4B
:1005E00081F06051704732F07F4208BF704793F04E
:1005F0007F4F04BF41F40021704730B54FF4607461
:1006000001F0004521F000411CE700BF50EA010263
:1006100008BF704730B54FF000050AE050EA01020C
:1006200008BF704730B511F0004502D5404261EB7C
:1006300041014FF4806404F132045FEA915C3FF4BD
:10064000D8AE4FF003025FEADC0C18BF03325FEA5A
:10065000DC0C18BF033202EBDC02C2F1200300FA0B
:1006600003FC20FA02F001FA03FE40EA0E0021FA30
:1006700002F11444BDE600BF70B54FF0FF0C4CF41E
:10068000E06C1CEA11541DBF1CEA135594EA0C0FD0
:1006900095EA0C0F00F0DEF82C4481EA030621EA0B
:1006A0004C5123EA4C5350EA013518BF52EA033546
:1006B00041F4801143F4801338D0A0FB02CE4FF0F8
:1006C0000005E1FB02E506F00042E0FB03E54FF028
:1006D0000006E1FB03569CF0000F18BF4EF0010E20
:1006E000A4F1FF04B6F5007F64F5407404D25FEA1C
:1006F0004E0E6D4146EB060642EAC62141EA5551CF
:100700004FEAC52040EA5E504FEACE2EB4F1FD0C10
:1007100088BFBCF5E06F1ED8BEF1004F08BF5FEA8E
:10072000500E50F1000041EB045170BD06F0004640
:1007300046EA010140EA020081EA0301B4EB5C04ED
:10074000C2BFD4EB0C0541EA045170BD41F48011E5
:100750004FF0000E013C00F3AB8014F1360FDEBF0A
:10076000002001F0004170BDC4F10004203C35DAE6
:100770000C341BDC04F11404C4F1200500FA05F369
:1007800020FA04F001FA05F240EA020001F000420A
:1007900021F0004110EBD37021FA04F642EB060180
:1007A0005EEA430E08BF20EAD37070BDC4F10C04AA
:1007B000C4F1200500FA04F320FA05F001FA04F26E
:1007C00040EA020001F0004110EBD37041F100015A
:1007D0005EEA430E08BF20EAD37070BDC4F1200565
:1007E00000FA05F24EEA020E20FA04F301FA05F2CD
:1007F00043EA020321FA04F001F0004121FA04F275
:1008000020EA020000EBD3705EEA430E08BF20EA44
:10081000D37070BD94F0000F0FD101F0004640007E
:1008200041EB010111F4801F08BF013CF7D041EA00
:10083000060195F0000F18BF704703F00046520004
:1008400043EB030313F4801F08BF013DF7D043EAD5
:100850000603704794EA0C0F0CEA135518BF95EA8B
:100860000C0F0CD050EA410618BF52EA4306D1D112
:1008700081EA030101F000414FF0000070BD50EA31
:10088000410606BF1046194652EA430619D094EABB
:100890000C0F02D150EA013613D195EA0C0F05D1A5
:1008A00052EA03361CBF104619460AD181EA0301F9
:1008B00001F0004141F0FE4141F470014FF00000B1
:1008C00070BD41F0FE4141F4780170BD70B54FF04C
:1008D000FF0C4CF4E06C1CEA11541DBF1CEA1355CC
:1008E00094EA0C0F95EA0C0F00F0A7F8A4EB0504AE
:1008F00081EA030E52EA03354FEA013100F08880A5
:100900004FEA03334FF0805545EA131343EA12636D
:100910004FEA022245EA111545EA10654FEA002622
:100920000EF000419D4208BF964244F1FD0404F5DB
:10093000407402D25B084FEA3202B61A65EB030537
:100940005B084FEA32024FF480104FF4002CB6EBF4
:10095000020E75EB030E22BFB61A754640EA0C0074
:100960005B084FEA3202B6EB020E75EB030E22BFB4
:10097000B61A754640EA5C005B084FEA3202B6EBF5
:10098000020E75EB030E22BFB61A754640EA9C00B4
:100990005B084FEA3202B6EB020E75EB030E22BF84
:1009A000B61A754640EADC0055EA060E18D04FEA42
:1009B000051545EA16754FEA06164FEAC30343EAE2
:1009C00052734FEAC2025FEA1C1CC0D111F4801FAF
:1009D0000BD141EA00014FF000004FF0004CB6E7A8
:1009E00011F4801F04BF01430020B4F1FD0C88BF47
:1009F000BCF5E06F3FF6AFAEB5EB030C04BFB6EB52
:100A0000020C5FEA500C50F1000041EB045170BD44
:100A10000EF0004E4EEA113114EB5C04C2BFD4EB71
:100A20000C0541EA045170BD41F480114FF0000EF5
:100A3000013C90E645EA060E8DE60CEA135594EA71
:100A40000C0F08BF95EA0C0F3FF43BAF94EA0C0F74
:100A50000AD150EA01347FF434AF95EA0C0F7FF4E9
:100A600025AF104619462CE795EA0C0F06D152EA3D
:100A700003353FF4FDAE1046194622E750EA410621
:100A800018BF52EA43067FF4C5AE50EA41047FF432
:100A90000DAF52EA43057FF4EBAE12E74FF0FF3C97
:100AA00006E000BF4FF0010C02E000BF4FF0010C68
:100AB0004DF804CD4FEA410C7FEA6C5C4FEA430CE1
:100AC00018BF7FEA6C5C1BD001B050EA410C0CBF30
:100AD00052EA430C91EA030F02BF90EA020F002092
:100AE000704710F1000F91EA030F58BF994208BFF9
:100AF00090422CBFD8176FEAE37040F001007047B6
:100B00004FEA410C7FEA6C5C02D150EA013C07D10C
:100B10004FEA430C7FEA6C5CD6D152EA033CD3D057
:100B20005DF8040B704700BF8446104662468C4651
:100B30001946634600E000BF01B5FFF7B7FF002884
:100B400048BF10F1000F01BD4DF808EDFFF7F4FFAD
:100B50000CBF012000205DF808FB00BF4DF808ED38
:100B6000FFF7EAFF34BF012000205DF808FB00BF5B
:100B70004DF808EDFFF7E0FF94BF012000205DF87D
:100B800008FB00BF4DF808EDFFF7CEFF94BF012032
:100B900000205DF808FB00BF4DF808EDFFF7C4FF2B
:100BA00034BF012000205DF808FB00BF4FEA410C74
:100BB0007FEA6C5C02D150EA013C0AD14FEA430C57
:100BC0007FEA6C5C02D152EA033C02D14FF0000094
:100BD00070474FF0010070474FEA410212F50012D2
:100BE00015D211D56FF47873B3EB625212D94FEA74
:100BF000C12343F0004343EA505311F0004F23FA5E
:100C000002F018BF404270474FF00000704750EAB2
:100C1000013005D111F0004008BF6FF0004070476F
:100C20004FF00000704700BF4A0011D212F50012C9
:100C300011D20DD56FF47873B3EB62520ED44FEA34
:100C4000C12343F0004343EA505323FA02F07047B4
:100C50004FF00000704750EA013002D14FF0FF30F2
:100C600070474FF0000070474FEA4102B2F1E04395
:100C700024BFB3F5001CDCF1FE5C0DD901F0004C83
:100C80004FEAC0024CEA5070B2F1004F40EB8300D3
:100C900008BF20F00100704711F0804F21D113F1FF
:100CA0003872BCBF01F00040704741F480114FEA38
:100CB0005252C2F11802C2F1200C10FA0CF320FAC1
:100CC00002F018BF40F001004FEAC1234FEAD323DE
:100CD00003FA0CFC40EA0C0023FA02F34FEA430348
:100CE000CCE77FEA625307D150EA01331EBF4FF0D1
:100CF000FE4040F44000704701F0004040F0FE40EC
:100D000040F40000704700BF80F0004002E000BFE8
:100D100081F0004142001FBF5FEA410392EA030FE6
:100D20007FEA226C7FEA236C6AD04FEA1262D2EB30
:100D30001363C1BFD218414048404140B8BF5B4235
:100D4000192B88BF704710F0004F40F4000020F0CE
:100D50007F4018BF404211F0004F41F4000121F0E4
:100D60007F4118BF494292EA030F3FD0A2F101022E
:100D700041FA03FC10EB0C00C3F1200301FA03F16C
:100D800000F0004302D5494260EB4000B0F5000F8F
:100D900013D3B0F1807F06D340084FEA310102F14E
:100DA0000102FE2A51D2B1F1004F40EBC25008BF00
:100DB00020F0010040EA03007047490040EB0000CA
:100DC000013A28BFB0F5000FEDD2B0FA80FCACF1CB
:100DD000080CB2EB0C0200FA0CF0AABF00EBC250F8
:100DE00052421843BCBFD0401843704792F0000FE6
:100DF00081F4000106BF80F400000132013BB5E739
:100E00004FEA41037FEA226C18BF7FEA236C21D0AE
:100E100092EA030F04D092F0000F08BF0846704713
:100E200090EA010F1CBF0020704712F07F4F04D1E1
:100E3000400028BF40F00040704712F100723CBFF4
:100E400000F50000704700F0004343F0FE4040F41E
:100E5000000070477FEA226216BF08467FEA2363DC
:100E60000146420206BF5FEA412390EA010F40F4C7
:100E7000800070474FF0000304E000BF10F0004313
:100E800048BF40425FEA000C08BF704743F09643FA
:100E900001464FF000001CE050EA010208BF704715
:100EA0004FF000030AE000BF50EA010208BF70479C
:100EB00011F0004302D5404261EB41015FEA010CB1
:100EC00002BF84460146002043F0B64308BFA3F1A9
:100ED0008053A3F50003BCFA8CF2083AA3EBC2538B
:100EE00010DB01FA02FC634400FA02FCC2F12002AA
:100EF000BCF1004F20FA02F243EB020008BF20F0E1
:100F00000100704702F1200201FA02FCC2F1200246
:100F100050EA4C0021FA02F243EB020008BF20EA3B
:100F2000DC7070477BB972B90029BEBF00204FF05A
:100F3000004106E008BF00281CBF6FF000414FF0E1
:100F4000FF3000F0EBB9ADF1080C6DE904CE0029DB
:100F500009DB002B1ADB00F083F8DDF804E0DDE9A3
:100F6000022304B07047404261EB4101002B1BDBC0
:100F700000F076F8DDF804E0DDE9022304B0404239
:100F800061EB4101524263EB43037047524263EB12
:100F9000430300F065F8DDF804E0DDE9022304B066
:100FA000404261EB41017047524263EB430300F062
:100FB00057F8DDF804E0DDE9022304B0524263EBA8
:100FC0004303704753B94AB9002908BF00281CBF22
:100FD0004FF0FF314FF0FF3000F0A0B9ADF1080C39
:100FE0006DE904CE00F03CF8DDF804E0DDE9022311
:100FF00004B0704738B50022002304460D46FFF7C1
:10100000ADFD28B920462946BDE8384000F00AB8B1
:10101000204605F1004100F005F8404261EB410136
:1010200038BD00BFD0B50C4B002206460F46FFF777
:1010300023FBFFF7F9FD0446FFF7A4FA074B002254
:10104000FFF71AFB02460B4630463946FFF75CF9BC
:10105000FFF7EAFD2146D0BD0000F03D0000F04161
:101060002DE9F047089D0C46002B4ED194468C4547
:101070008646B2FA82F262D94AB1C2F120039140A7
:1010800020FA03F30CFA02FC194300FA02FE4FEABD
:101090001C471FFA8CF6B1FBF7F44FEA1E4307FB1F
:1010A000141143EA014304FB06F199420AD91CEBEF
:1010B000030304F1FF3080F01281994240F20F8166
:1010C000023C6344591A1FFA8EF3B1FBF7F007FB99
:1010D000101143EA014300FB06F69E420AD91CEBBD
:1010E000030300F1FF3180F0FC809E4240F2F98062
:1010F000634402389B1B40EA044000211DB1D340E9
:101100000022C5E90032BDE8F0878B4205D90DB158
:10111000C5E9000100210846F5E7B3FA83F100298B
:1011200046D1A34202D39042C0F0F080861A64EB0D
:1011300003030120002DE6D0C5E90063E3E7002AA0
:1011400040F09080A1EB0C044FEA1C481FFA8CF78A
:101150000121B4FBF8F64FEA1E4308FB164443EAAC
:10116000044307FB06F0984208D91CEB030306F181
:10117000FF3402D2984200F2CD8026461C1A1FFA94
:101180008EF3B4FBF8F008FB104443EA044300FB81
:1011900007F79F4208D91CEB030300F1FF3402D28A
:1011A0009F4200F2B0802046DB1B40EA0640A5E7E4
:1011B000C1F120068B4022FA06F71F4320FA06FCF5
:1011C00004FA01F343EA0C03F44000FA01F8380C86
:1011D0004FEA1349B4FBF0FE1FFA87FC00FB1E44E4
:1011E00049EA04440EFB0CF9A14502FA01F20AD9BE
:1011F0003C190EF1FF3A80F08480A14540F28180D5
:10120000AEF1020E3C44A4EB09041FFA83F9B4FBCF
:10121000F0F300FB134449EA044403FB0CFCA4452F
:1012200007D93C1903F1FF3067D2A44565D9023BC9
:101230003C4443EA0E40A0FB0293A4EB0C049C4206
:10124000CE469C4651D34ED055B1B8EB0E0364EB5D
:101250000C0404FA06F6CB401E43CC40C5E90064FA
:10126000002150E7C2F1200320FA03F10CFA02FC3E
:1012700024FA03F394400C434FEA1C4800FA02FEA0
:101280001FFA8CF7B3FBF8F008FB1031230C43EA8C
:10129000014300FB07F1994208D91CEB030300F15D
:1012A000FF362CD299422AD9023863445B1AA4B281
:1012B000B3FBF8F108FB113344EA034401FB07F3E5
:1012C000A34208D91CEB040401F1FF3613D2A34258
:1012D00011D902396444E41A41EA004139E704466D
:1012E000F0E6084606E7C845AED2B9EB020E63EB5E
:1012F000070C0138A8E73146EDE7034699E7304689
:10130000D4E7D6467FE7634402384DE706462346D6
:1013100008460FE7023E634430E700BF704700BF56
:101320000E484FF0FF3380F8F13080F8F23001467C
:101330004FF6FF7300F1F10C11F8012B82EA132232
:1013400082EA121242EA032383EA023383EA421357
:101350006145A0F8F1309BB2EED17047C019002072
:101360002DE9F04186B0002306460C4690460193D5
:1013700009F07CFA204B9A6942F040429A614CF2A3
:10138000FA321A6101230022CDE9022301A90123C7
:1013900002A8CDE9046309F053FB28BBC4EBC626C1
:1013A00006F1006605464FEAD808083E02E0A84567
:1013B00014D01D46F4E80223A7190020394609F08D
:1013C0009FFA6B1C0028F2D009F064FA39460B48EA
:1013D0000FF098F9012006B0BDE8F08109F05AFA43
:1013E000002006B0BDE8F08109F054FA3146044807
:1013F0000FF088F9F4E700BF002002407C3C0108B0
:10140000683C010870B5124EB6F8F140FFF788FF4E
:10141000B6F8F130A34201D1002070BD0425F322BB
:1014200031467E20FFF79CFF044608B1013DF6D10E
:10143000074E0425F32231467F20FFF791FF18B1B4
:10144000013DF7D12043C4B2601CC0B270BD00BFE3
:10145000C019002010B5144CEC22002120460FF0DA
:1014600019FBE31F114A44F8062C022104F8071C5B
:101470000C226FF01B01002059719A71F521E722AF
:10148000A0701A764124712283F82510142123209C
:10149000DC7383F832200F24012283F83B101C7286
:1014A000987283F83C2010BDC719002017D94E3D13
:1014B000F8B5394DC5F100646E1C05F1F30E2B46ED
:1014C00004F57C341A5D03F8012F9E45FAD13349A7
:1014D0004FF6FF7201F1F10C11F8013B83EA122380
:1014E00083EA131343EA022282EA033282EA4312B6
:1014F000614592B2F0D12A48B6F8F170264B801BB4
:10150000C15C03F8011F9E45FAD124484FF6FF73D2
:1015100010F8011B81EA132181EA111141EA03232A
:1015200083EA013383EA411360459BB2F0D1B6F8F8
:10153000F110994210F8F13C14D0022B14D19742CB
:1015400012D12B5D05F8013FAE45FAD1134D0424AD
:10155000F32229467F20FFF703FFD0B1013CF7D1EA
:101560000320F8BD022B07D0FFF774FFFFF74AFFF7
:101570000128F5D80220F8BD97420AD0074D04246F
:10158000F32229467E20FFF7EBFE10B1013CF7D194
:10159000E6E70020F8BD00BFBF190020C0190020F9
:1015A00001F8030870B5B24EB24CB34D30460FF09F
:1015B00011F92178B1480FF0A5F8D4F80100FFF730
:1015C00003F80B460246AE480FF09CF8B4F805103D
:1015D000AC480FF097F82189AB480FF093F894F8D6
:1015E0003B10AA480FF08EF894F83C10A84801F080
:1015F00003010FF087F804F14D01A6480FF082F8BF
:10160000B4F87D10A4480FF07DF804F17F01A348E1
:101610000FF078F8B4F8AF10A1480FF073F804F1A8
:10162000B101A0480FF06EF804F1C1019E480FF01F
:1016300069F82A78A17A9D48C2F3400201F00101BD
:101640000FF060F82A78A17A9948C2F38302C1F3B7
:1016500043010FF057F86A78A17A9648964D02F048
:101660000102C1F340110FF04DF8D4F80B00FEF762
:10167000ABFF0B46024691480FF044F8E17B2A7815
:101680008F4801F00101C2F340020FF03BF82A78C5
:10169000E17B8C48C2F38302C1F343010FF032F8BF
:1016A0006A78E17B884802F00102C1F340110FF033
:1016B00029F8AA7AE17B8548854D02F00102C1F341
:1016C00080110FF01FF82069FEF77EFF02460B46DF
:1016D00080480FF017F86069FEF776FF0B46024668
:1016E0007D480FF00FF8217E2A787C4801F0010137
:1016F000C2F340020FF006F82A78217E7848C2F340
:101700008302C1F343010EF0FDFF6A78217E754824
:1017100002F00102C1F340110EF0F4FFEA7C217ED9
:10172000714802F00102C9090EF0ECFFAA7A217E8D
:101730006E486F4D02F00102C1F380110EF0E2FF1E
:10174000D4F81900FEF740FF02460B4669480EF038
:10175000D9FFD4F82100FEF737FF02460B46664852
:101760000EF0D0FFD4F81D00FEF72EFF0B46024608
:1017700062480EF0C7FF94F825102A78604801F0FF
:101780000101C2F340020EF0BDFF6A7894F8251003
:101790005C4802F00102C1F340110EF0B3FFEA7C95
:1017A00094F82510584802F00102C9090EF0AAFF6A
:1017B000AA7A94F825105548554D02F00102C1F35C
:1017C00080110EF09FFFD4F82600FEF7FDFE0246C2
:1017D0000B4650480EF096FFD4F82E00FEF7F4FEAC
:1017E00002460B464C480EF08DFFD4F82A00FEF757
:1017F000EBFE0B46024649480EF084FF94F8321087
:101800002A78474801F00101C2F340020EF07AFF46
:101810006A7894F83210434802F00102C1F3401193
:101820000EF070FFAA7A94F832103F4802F00102DD
:10183000C1F380110EF066FFD4F83300FEF7C4FE4A
:1018400002460B4639480EF05DFFD4F83700FEF72C
:10185000BBFE02460B4636480EF054FFB4F8F110BA
:1018600034480EF04FFF3046BDE870400EF0B2BF76
:10187000983C0108C0190020601B0020BC3C0108F6
:10188000D43C0108EC3C0108043D01081C3D010862
:10189000303D0108443D0108583D01086C3D0108F8
:1018A0007C3D0108903D0108A43D0108B83D0108B8
:1018B000D43D0108EC3D0108481B0020083E01080A
:1018C000243E0108403E0108583E0108743E0108CC
:1018D000241B00208C3E0108A83E0108C03E0108E0
:1018E000DC3E0108F43E0108103F01082C3F0108CE
:1018F000001B0020483F0108643F0108803F0108A9
:101900009C3F0108B83F0108D43F0108F03F01089F
:10191000E81A00200C400108284001084440010852
:10192000604001087C40010898400108B44001086B
:10193000D0400108EC400108F0B593B00B4600928E
:1019400007460E4615461149024602A80EF07EFFD4
:101950000F4B009302A80F4B02224FF47A7100F054
:10196000A1FC012802D0002013B0F0BD0446394686
:1019700009480FF0B9F9314608480FF0B5F9294682
:1019800007480FF0B1F9204613B0F0BD1841010827
:101990000C41010808490108170A0020280A002004
:1019A000390A002000B583B0084A0092084B094864
:1019B000022242F2107100F075FCA0F10100B0FAB1
:1019C00080F0400903B05DF804FB00BF0C41010842
:1019D000344101084041010810B582B00F4A00921D
:1019E0000F4B0446022248B10E484FF47A7100F0C2
:1019F00059FC012809D0002002B010BD0A484FF45C
:101A00007A7100F04FFC0128F5D1084B93F8E627D6
:101A100064F3000283F8E62702B010BD0C41010810
:101A2000084901086C4101087C410108300200208E
:101A30002DE9F04182B01E4F009704460D461D4827
:101A40001646984602221C4B42F2107100F02AFC06
:101A5000012804D00024204602B0BDE8F0814046B1
:101A6000FFF7BAFF204632462946FFF765FF0446D6
:101A70000028EFD0114B124912480097022200F0C3
:101A800011FC01280546E5D10C4B009702224FF4CA
:101A90007A710D4800F006FC084B0C482A464FF4BA
:101AA000FA7100F0FFFB204602B0BDE8F08100BFF4
:101AB0000C4101084041010834410108084901086E
:101AC000084C010000410108504101088C41010807
:101AD00010B592B00C460346144A00944021144CB1
:101AE00002A80EF07FFE134B0094022242F2107106
:101AF00002A800F0D7FB012814D00E4B0E4800942A
:101B000002224FF47A7100F0CDFB0C4A92F82B3888
:101B1000022B07D013B9002012B010BD012382F8A8
:101B20002B38F8E7012012B010BD00BF9C4101081E
:101B30000C410108084901085C41010830020020FD
:101B400008B50948094B012241F2883100F0AAFB8F
:101B5000012801D0002008BD054B93F82B280AB1BD
:101B600083F82B08012008BDBC4101080849010881
:101B70003002002070B5154D154E164B84B0012271
:101B80000096044685F82C281348022240F2DC51C6
:101B900000F088FB012805D0032385F82C380020AD
:101BA00004B070BD204600F041FB0C491A2203A886
:101BB0000EF04CFE0A4B009602224FF4FA6103A885
:101BC00000F070FB0128E7D1EAE700BF30020020F7
:101BD0000C410108CC410108D4410108E44101084D
:101BE000E8410108F0B5144F144A89B0012387F881
:101BF0002C380D460B460646142103A80EF0F2FDC4
:101C00000F4B009303A80F4B022240F2DC5100F06F
:101C100049FB012805D00323002087F82C3809B0A0
:101C2000F0BD04462946304600F016FB1E200BF09E
:101C3000A3FD204609B0F0BD30020020F4410108A8
:101C40000C410108CC4101082DE9F04F264C274FEB
:101C5000DFF8A480DFF8A4A00FCC8FB008AE0FC6C9
:101C600094E80300224C86E80300224E07AD0DF1F4
:101C7000340900210097334684F8311B02224FF4C7
:101C8000FA71404600F00EFB012829D14FF0650B98
:101C900006E00BF071FD0BF1FF3313F0FF0B08D0E2
:101CA00094F8313B0820002BF3D001200FB0BDE8A1
:101CB000F08F94F8313B002BF7D14D4510D055F8FB
:101CC000043F5246142103A80EF08CFD00973346C2
:101CD00003A802224FF4FA7100F0E4FA0228C8D1F6
:101CE00000200FB0BDE8F08FE03B01080C41010877
:101CF00030020020084901089C420108AC4201085A
:101D000070B5664C94F830335A0782B030D578B944
:101D100094F8312B002A40F0958094F82B2852B388
:101D2000002384F84C3BA4F8313B012002B070BD85
:101D30006FF345135A4E84F8303364200BF01CFDCA
:101D4000584B5948009602224FF47A7100F0AAFAD3
:101D50000128054614D055480EF03CFD94F8313B5F
:101D6000002B40F091805248202200210EF092FE7C
:101D7000002002B070BD43F0200384F83033CFE779
:101D80002022002104F533600EF084FE4FF42F7002
:101D90000BF0F2FC434B4748009602224FF4967139
:101DA00000F080FA0228D6D04FF42F700BF0E4FC3C
:101DB000FFF74AFF0028CED064200BF0DDFC394B42
:101DC0003D482A464FF4FA7100F06CFA012809D018
:101DD00064200BF0D1FC334B37482A464FF4FA719C
:101DE00000F060FA14200BF0C7FC2E4B0096022284
:101DF0004FF49671314800F055FA14200BF0BCFCFA
:101E0000284B009602224FF496712D4800F04AFAB2
:101E100014200BF0B1FC234B009602224FF4967174
:101E2000284800F03FFA14200BF0A6FC1D4B00964A
:101E300002224FF49671244800F034FA32200BF05D
:101E40009BFC72E71648174B009002224FF47A7100
:101E50001E4800F027FA054632200BF08DFC94F85E
:101E60002B382BB994F8303343F0200384F8303307
:101E7000012D3FF455AF16480EF0ACFC002384F85A
:101E80004C3BA4F8313B73E7064B009602224FF41B
:101E90007A710E4800F006FA65E700BF30020020B4
:101EA0000C41010808490108BC420108F042010840
:101EB000600D00208C420108CC4201080442010858
:101EC0002C4201084C4201086C4201080C430108F5
:101ED0001C43010800B583B0094A0A4B009244F63E
:101EE00020610222084800F0DDF9012805BF074BF8
:101EF0000022002083F85A2603B05DF804FB00BFDF
:101F0000884301086C4301087C430108300200202B
:101F100000B583B00B4A00920B4B0C4802224FF4E1
:101F20007A7100F0BFF9012805D0022803D0002003
:101F300003B05DF804FB064B83F8D90703B05DF8E6
:101F400004FB00BFBC4301089C430108B0430108E7
:101F50003002002010B5012882B015D002280446B6
:101F600002D0002002B010BD0E4A00920E4B024675
:101F70004FF47A710D4800F095F90128F1D10C4B1E
:101F8000012083F8D947EDE70A4A00920A4B0B4833
:101F900002224FF47A7100F085F901280446E0D15D
:101FA000EDE700BF24440108044401081844010877
:101FB00030020020F0430108D0430108E443010847
:101FC00000B583B00B4A00920B4B0C4802224FF431
:101FD0007A7100F067F9012805D0A0F10200B0FA8B
:101FE00080F040094000064B83F8D80703B05DF845
:101FF00004FB00BF5C440108384401085044010858
:1020000030020020012810B5044603D0022810D069
:10201000002010BD02460C4B0C484FF47A7100F0C2
:1020200041F901280446F3D1094B83F8D847012030
:1020300010BD054B074801224FF47A7100F032F9C8
:102040000128E5D1F0E700BF74440108804401088D
:10205000300200209C44010810B50C4A0C4B0D4C7A
:102060000D480E4986B0CDE904320D4A0D4BCDE93D
:102070000021CDE9020407224FF47A710A4800F0EA
:1020800011F90A4B83F8D70706B010BDD8440108F0
:10209000EC440108004501081445010828450108E1
:1020A0003C450108B8440108CC4401083002002036
:1020B00030B51B4D87B004464FF48072002128468E
:1020C0000EF0E8FC22461749002402A805F80A4C45
:1020D00005F8014C45F8124C45F80E4C45F8234CD8
:1020E00045F81F4C45F81B4C45F8174C05F8134CA8
:1020F00045F8094C45F8054C0EF0A8FB0A4A009239
:102100000A4B02A8022241F2883100F0CBF80128E4
:102110000ABF15F88B0C2046C0F3400007B030BD55
:1021200007090020504501080C4101080849010831
:1021300030B593B0044602460E4902A80EF086FB65
:102140000CAD22460C4906A80EF080FB22460B4936
:1021500028460EF07BFB009506AB022246F2A81142
:1021600002A800F09FF8A0F10100B0FA80F0400949
:1021700013B030BD60450108704501088445010871
:1021800008B50948094B012241F2883100F08AF86C
:10219000012806D1064B93F89206003818BF01209B
:1021A00008BD002008BD00BFA84501089C450108E6
:1021B0003002002008B50122054B06484FF4FA71A1
:1021C00000F070F8A0F10100B0FA80F0400908BDFD
:1021D00008490108B4450108F0B595B0CDE90123DF
:1021E00004460D4616461F46009103460D4A20211F
:1021F00004A80EF0F7FA2346CDE901670A4A0095D4
:1022000020210CA80EF0EEFA0CAB01224FF4FA716B
:1022100004A800F047F8A0F10100B0FA80F04009EE
:1022200015B0F0BDC0450108D8450108037803B9D1
:10223000704710B50446FEF75BF802462146054894
:10224000642392B20BF00CF9BDE810400A200BF0A9
:1022500093BA00BF5016002008B584460A464FF4D2
:10226000C873044861460BF0FBF8BDE808400A203B
:102270000BF082BA5016002010B5044607F08EFB12
:10228000074B1A880021C3E9C201981840F2FE21C9
:102290008A4298BF0132C47098BF1A8010BD00BF37
:1022A000300200200CB42DE9F04F4E4E83B096F86A
:1022B000303300AF9A0797F8304082460D4606D576
:1022C00064200BF059FA96F830339B07F8D407F0E6
:1022D00065FB05F132031844C6F8400620214FF093
:1022E000904008F031FD00286DD196F830334FF062
:1022F000000843F0020386F8303386F8488607F07A
:102300004DFB4FEA8409C6F83C064FF4207236486C
:10231000C6F8445641460EF0BDFB09F1070303F42D
:10232000FF6307F13402ADEB030D7A60EB468CB12D
:10233000DFF8B4801446ABF1040B914421684BF8EC
:10234000041F0434404640227C6090440EF0C9FBD8
:102350004C45F3D12548782251460EF0C2FB96F841
:102360003C33A3B12148FDF7C3FF02461F49204873
:10237000642392B20BF074F80A200BF0FDF906E02A
:102380000A200BF0F9F996F848060A3DA8B9002D85
:10239000F6DC4FF42072002113480EF07BFB96F818
:1023A00030336FF3410386F8303307F0F7FA00F16A
:1023B000320396F84806C6F840360C37BD46BDE8ED
:1023C000F04F02B07047002220214FF0904008F0FB
:1023D000C1FC64200BF0D0F907F0E0FA6430C6F8D5
:1023E000400682E730020020EC0500206C0500204A
:1023F000501600202DE9F84F6448654CDFF8A8B16D
:102400000EF0E8F94FF000080127C14604F2E57527
:1024100094F83033590709D4B4F82E3833B964200E
:102420000BF0AAF994F830335907F5D507F0B6FA4E
:1024300041F28833A0EB080098427CD8B4F82E68AB
:10244000002E65D1534E4FF0000A01E0AE420DD090
:1024500016F8010F0028F9D0FFF72AFE00283FD117
:10246000FFF7AEFDAE4286F800A0F1D194F8DB375D
:10247000002B64D194F84C36DA073BD407F08EFA7F
:1024800094F830134AF6C87211F0010F42F210733B
:10249000A0EB090018BF1346984216D994F82B38C0
:1024A000032B12D00122C8215B463B48FFF7FAFEFE
:1024B0003A4B3B480122C821FFF7F4FEFFF780FDAD
:1024C00006F0A2F907F06AFA814620214FF0904009
:1024D00008F03AFC00283CD005200BF04DF997E7B6
:1024E00064200BF049F93078FFF722FE64200BF0EE
:1024F00043F9B5E708226FF300034FF4FA7084F84C
:102500005A2684F84C360BF037F9FFF7E3FCB5E7B1
:1025100030460CF00DFA3246824622490EF0ECFBB2
:10252000002350463146A4F82E3805F0C1FE50462F
:102530000CF006FA86E707F031FA80467EE7384667
:10254000FFF7B6FDB0B90137FFB2962F08BF0027DD
:1025500090E707F023FAD4F840369842BCD994F8B3
:1025600030339B06B8D5012220214FF0904008F06F
:10257000F1FBB1E764200BF0FFF83846FFF7D8FD18
:1025800064200BF0F9F8FFF71BFDDCE7F4450108C8
:10259000300200200B0A00200C46010818460108F2
:1025A00024460108600A00200446010830B5504B5B
:1025B000504883B00122C821FFF774FE4E4B4F48AC
:1025C0000122C821FFF76EFE4D4B4E480122C82163
:1025D000FFF768FE4C4B4D480122C821FFF762FE11
:1025E0004B4A00924B4B4C480222C821FFF75AFE3F
:1025F00001284ED0494B4A484A4C0122C821FFF7D6
:1026000051FE494B49480122C821FFF74BFE464B7A
:10261000474801224FF47A71FFF744FE0220FFF78A
:10262000F1FC0220FFF796FC00231A46A721112097
:10263000FFF7D2FDFFF710FDFFF76AFC94F8D937DA
:10264000022B22D1FFF79CFDFFF7B4FD94F8301365
:102650003848009041F0200184F83013324B36485E
:1026600002224FF4FA71FFF71DFE344B3448012269
:10267000C821FFF717FE2C4B324801224FF4FA71A4
:10268000FFF710FE012003B030BD0220FFF762FC0F
:10269000D8E7044602462C4B224D2C48C821FFF7B0
:1026A00001FE2B4B2B4822464FF47A71FFF7FAFDBF
:1026B00095F830C3284B29486FF3451C2246C821A2
:1026C00085F830C3FFF7EEFD012802D0002003B0EB
:1026D00030BD95F83043144B6FF3820402464FF43B
:1026E000FA611F4885F83043FFF7DCFDEEE700BFD5
:1026F000304601083C460108444601085846010896
:102700006446010878460108844601089846010895
:10271000C4460108A8460108B84601082C4701082C
:102720004047010830020020084901084C470108D1
:10273000BC4201080C4101085C4701081846010829
:10274000244601080C430108D4460108E846010864
:10275000F44601080047010808470108144701082A
:102760001C470108F8B5374D95F830336FF3451322
:1027700085F8303300283ED0D8B220F0060040F073
:10278000040085F83003304B30480122C821FFF7A0
:1027900089FD012847D0012211462D482A4F2B4E92
:1027A00008F0D8FA4FF496600AF0E6FF28480022B5
:1027B000012108F0CFFA40F6C4100AF0DDFF95F8C9
:1027C000303343F0040385F830330A243B460122BA
:1027D000C8213046FFF766FD012804F1FF332ED0F3
:1027E00013F0FF04F2D195F8303364F3820385F8D7
:1027F00030330120F8BD144B044601221348C82190
:10280000FFF750FD0128F4D195F83013114B64F314
:102810008201024685F830130F484FF4FA61FFF742
:1028200041FD0120E6E764200AF0A6FFFFF7BEFEA7
:1028300095F8303343F0040385F83033F8BDC820F1
:10284000F2E700BF300200200847010814470108E2
:1028500000040048084901081C4701080C4B93F884
:10286000300310F0040000D1704700B583B0094A6E
:102870000092094B094802224FF47A71FFF712FDCA
:10288000A0F10100B0FA80F0400903B05DF804FB4C
:102890003002002078470108084901086C47010808
:1028A00000B51B4A92F95616B2F84E360029ACBF55
:1028B0002B202D20002993B0B8BF4942C9B2069100
:1028C00092F85516CDE9041092F8540692F8531672
:1028D000CDE9021092F8520692F850160D4ACDE951
:1028E0000010A3F5FA63282108A80DF07BFF0A4A1F
:1028F00000920A4B02224FF4FA6108A8FFF7D2FCBB
:10290000A0F10100B0FA80F0400913B05DF804FBBB
:1029100030020020884701080C41010808490108DD
:10292000F0B5234C8DB04FF43562064600212046A9
:102930000EF0B0F800251F4B009329461E4B019363
:102940004FF400776846CDE90357ADF808600AF008
:10295000F7FE1A4B18600A200AF00EFF184B069378
:102960002946184B079306A80995ADF820600A97E9
:102970000AF0E6FE144B024601250A201A600AF00E
:10298000FBFE4FF4FD632846A4F84E3684F85056FB
:1029900084F85256FFF7E6FE18B1FFF703F80DB0C2
:1029A000F0BD2846FFF7DEFEFEF7FCFF0DB0F0BDE0
:1029B00030020020B8470108F52300082C0200204F
:1029C000C44701089132000828020020F0B52DED1F
:1029D000028BC04EC04989B030460EF095F80028F1
:1029E00000F0E3822C210EF05DF801300BF09BFF2C
:1029F00096F82D330128A6F103040CBF43F0010320
:102A00006FF3000384F83033B449B2480EF07CF819
:102A100028B194F8303343F0100384F83033B049D0
:102A2000AC480EF071F828B194F8303343F0080345
:102A300084F83033AB49A7480EF066F810B107238D
:102A400084F85A36A849A3480EF05EF890B12221C6
:102A50000EF028F8451C222128460EF023F82946BE
:102A6000421BA2480EF03DF894F84C3643F00103A7
:102A700084F84C369E4997480EF046F838B13A2112
:102A80000EF010F801300BF04EFF84F8380399492E
:102A900090480EF039F810B33A210EF003F8451CB7
:102AA00028460BF040FF2C2128460DF0FBFF451C6B
:102AB00028460BF038FF2C210346284684F8313392
:102AC0000DF0F0FF01300BF02BFF8B4B51EC100B96
:102AD0000022FDF7FBFEFEF7C7F8C4F83403874970
:102AE0007C480EF011F810B1052384F85A36844959
:102AF00078480EF009F810B1022384F85A3681495B
:102B000074480EF001F810B1032384F85A367E4958
:102B100070480DF0F9FF10B1042384F85A367B4950
:102B20006C480DF0F1FF20B194F830335B0700F1F1
:102B30002782774967480DF0E7FF28B194F84C36B3
:102B400043F0040384F84C36724962480DF0DCFF10
:102B5000B8B13A210DF0A6FF8378222B00F10205CF
:102B600000F0088228460BF0DEFE2C2103462846A2
:102B700084F8DB370DF096FF01300BF0D4FE84F8BB
:102B8000DA07654953480DF0BFFF054638B194F8A0
:102B9000D937022B00F04783012B00F022835F49D5
:102BA0004C480DF0B1FF60B12C210DF07BFF851C6E
:102BB000222128460DF076FF2946421B58480DF089
:102BC00090FF584943480DF09FFF002854D0222120
:102BD0000DF068FF02220546411C03A80DF081FF9D
:102BE000002703A88DF80E700BF09DFE00F5FA602B
:102BF0000222291DA4F84E0603A80DF072FF03A8B7
:102C00000BF091FE0222E91D84F8500603A80DF096
:102C100068FF03A80BF087FE022205F10A0184F881
:102C2000520603A80DF05DFF03A80BF07CFE022204
:102C300005F10D0184F8530603A80DF052FF03A817
:102C40000BF071FE022205F1100184F8540603A86E
:102C50000DF047FF03A80BF066FE05F1120184F8A2
:102C60005506032203A80DF03CFF03A80BF05BFE02
:102C7000A4F8587684F856062B4916480DF044FF00
:102C800048B12A4B002513F8012F002A00F09D823D
:102C900001350A2DF7D126490E480DF035FFA0B1B8
:102CA000244D00232221C6F88F366B60AB60EB60A9
:102CB0002B740DF0F7FE461C222130460DF0F2FE7B
:102CC0003146821B28460DF00CFF1B4901480DF0D0
:102CD0001BFF33E03302002018460108D4470108E7
:102CE000E4470108F4470108004801088B08002068
:102CF000044601080C48010800408F4014480108B0
:102D0000204801083048010840480108504801089F
:102D1000644801087444010870480108BC4801086F
:102D2000AD080020C8480108D44801080B0A00205B
:102D30009C450108C2080020E048010840B19C4AB7
:102D40000192531E00939B49931E033A0DF09EFD82
:102D500099499A480DF0D8FE48B1994A99490DF021
:102D600095FD9748FDF7C4FA052800F2FE809649C4
:102D700092480DF0C9FE18B1944A95490DF086FDB0
:102D800094498E480DF0C0FE18B1934A93490DF056
:102D90007DFD934989480DF0B7FE38B1914A009204
:102DA000A2F111039049223A0DF070FD8F4983483A
:102DB0000DF0AAFE18B18E4A8E490DF067FD8E49BE
:102DC0007E480DF0A1FE70B13A210DF06BFE01308E
:102DD0000BF0A9FD94F8E637002840F0C18060F3BD
:102DE000000384F8E637854974480DF08DFE10B174
:102DF000032384F82B38824970480DF085FE10B10A
:102E0000012384F82B387F496C480DF07DFE10B10A
:102E1000012384F82B387C4968480DF075FE10B109
:102E2000042384F82B38794964480DF06DFE10B105
:102E3000022384F82B38764960480DF065FE10B106
:102E4000022384F82B3873495C480DF05DFE10B105
:102E5000002384F82B38704958480DF055FE10B106
:102E6000002384F82B386D4954480DF04DFE10B105
:102E7000022384F82C386A4950480DF045FE10B101
:102E8000032384F82C3867494C480DF03DFEE0B12F
:102E90002C210DF007FE461C30460BF044FDB0F52A
:102EA000407F94BF87B24FF4407705464FF03A0118
:102EB000304688BF3D460DF0F5FD01462A465A488A
:102EC00001310DF019FFA4F82E7858493B480DF058
:102ED0001BFE002862D03A210DF0E4FD451C284677
:102EE0000BF021FDC0B284F8310B002840F0AA801D
:102EF000012384F8303B4E4930480DF005FE10B1F7
:102F0000022384F8313B4B4E0025F71C96F8BC3366
:102F100006F56F71384640364BB10DF0F5FD0135C1
:102F2000EDB2002840F05B810A2DEFD10346002569
:102F30004FF440722946214884F8483625800DF028
:102F4000A9FD94F8303365F3410384F8303306F07B
:102F500025FD3230C4F8400609B0BDEC028BF0BD4F
:102F600043F0010384F8E6373DE72044002380F86E
:102F7000D236FCE628462C210DF094FD451CF1E5E7
:102F80004FF4356200212B480DF084FD4FF4FA60B8
:102F90000AF0F2FB0120FFF7E5FBCAE526490748E6
:102FA0000DF0B2FD002896D1A5E7F41E2CE500BF78
:102FB000C1080020EC480108104901083302002034
:102FC000070900201C49010830490108400500207C
:102FD00038490108484901085005002054490108B2
:102FE00068490108390A0020744901089849010814
:102FF0004A0A0020A4490108B8490108C449010847
:10300000D4490108E4490108F0490108044A0108CB
:10301000184A010834410108304A0108E841010812
:10302000484A0108584A0108600A0020604A01081D
:10303000784A0108300200206C4A01088096184B3B
:103040000000C8422C2128460DF02CFD2C21013017
:103050000DF028FD471C05460422394603A80DF053
:1030600040FD002603A88DF810600BF05CFC691D84
:103070000222A4F8340B03A80DF033FD03A8ADF829
:103080000E600BF050FCE91D022284F8360B03A8F9
:103090000DF027FD03A80BF046FC05F10901022203
:1030A00084F8380B03A80DF01CFD03A80BF03BFCC3
:1030B00005F10B01022284F8390B03A80DF011FD74
:1030C00003A80BF030FC05F10D01022284F83A0B45
:1030D00003A80DF006FD03A80BF025FC032205F163
:1030E000100184F83B0B03A80DF0FBFC03A80BF0C8
:1030F0001AFC2C2103463846A4F83E3B84F83C6B6E
:103100000DF0D0FC451C28460BF00AFC51EC100BCE
:10311000FDF7AAFD1FED378A07EE900A67EE887A61
:103120002C21FDEEE77A284617EE903AC4F8403B92
:103130000DF0B8FC451C28460BF0F2FB51EC100BCF
:10314000FDF792FD07EE900A67EE887A2C21FDEEDE
:10315000E77A284617EE903AC4F8443B0DF0A2FCFB
:10316000451C28460BF0DCFB51EC100BFDF77CFDF9
:103170001FED4D7A07EE900A67EE877A0326FDEE83
:10318000E77A17EE903AC4F8483B28462C210DF018
:1031900089FC731E13F0FF0600F10105F5D12846E6
:1031A0000BF0C1FB072684F8320B28462C210DF0CA
:1031B00079FC731E13F0FF0600F10105F5D12846D6
:1031C0000BF0B1FB84F84C0B92E62C210DF06AFC5D
:1031D00001300BF0A8FB254485F8DC075BE52B46A6
:1031E000A5E64FF48072274800210DF053FC264AD3
:1031F0000023C4F8C536C4F8B4365360137242F8DD
:10320000053C02F8013C42F80D3CC4F8CE3642F8C9
:10321000093C5374C2F80D3094F84C3643F0020365
:1032200084F84C36BBE4174F4FF4807200213846C7
:103230000DF030FCA7F12302A7F112032846A7F1F5
:1032400009010025009101971049C6F8C25647F8B8
:10325000055C47F80E5CC6F8B1561D7207F8015CB4
:10326000D5601574C2E90155C6F8CB560DF00EFBBA
:10327000042894F84C36D1D065F3410384F84C36D9
:103280008DE400BF07090020F50800207C480108F4
:1032900008B50F480F4C0DF09DFA08E094F8303354
:1032A00013F0040F0CBF322003200AF065FA2388C4
:1032B000042BF3D906F072FBD4E9C223801A63EB26
:1032C0004303152873F10003E8D3FFF77FFBE5E71D
:1032D000804A01083002002010B5074C7F212046AB
:1032E00006F0D2FF0A2006F05FFB20460349BDE846
:1032F0001040052206F03ABFC0180020800D0020C3
:10330000234A9FED247A1188538890880B44D188F2
:10331000128903440B4413449BB207EE903AF8EE33
:10332000E77A70B567EE877A1B4EFCEEE77AB6F85F
:10333000A83007EE103A17EE903A9BB207EE903A9B
:10334000B8EEC77AF8EE677A77EE677A17EE900AEA
:10335000FDF73AF90CA3D3E90023FDF78DF90446F4
:10336000B6F8CA000D46FDF71DF902460B46204689
:103370002946FDF7ABFA094B0022FCF7C7FFFDF722
:1033800073FC00EE100A70BD333333333333114016
:10339000800D0020CDCC4C3E0075FF1F0000394051
:1033A00010B54FEA400C86B008461FFA8CF19C46D7
:1033B000022341F28834019305AB02940093012368
:1033C000644608F025F928B9BDF81430238001209F
:1033D00006B010BD002006B010BD00BF2DE9F043BF
:1033E000838CA3F17602012A87B004D900273846DE
:1033F00007B0BDE8F08341F2883202920D4600F139
:10340000320259000123CDE90023044689B2806AC3
:10341000D02208F0FDF80028E8D194F83230582B7B
:1034200001D0602BE2D1A18C012742F2107205AECF
:10343000B6230292B940019700968DF81430A06A25
:1034400089B23B46E02207F0BDFF0028CED141F211
:103450008838A18CA06A009649000123CDE9017843
:1034600089B2F32208F0D4F89DF8143003F0010378
:103470000343DBB2002BECD1A18CCDF808800227EE
:10348000490000960197A06A89B20123882208F0BA
:10349000BFF80028AAD1CDE901780096A18CBDF82B
:1034A000143023804900A06A89B201238A2208F0DF
:1034B000AFF800289AD1CDE901780096A18CBDF82B
:1034C000143063804900A06A89B201238C2208F07D
:1034D0009FF800288AD1CDE901780096A18CBDF82B
:1034E0001430A3804900A06A89B201238E2208F01B
:1034F0008FF800287FF47AAFCDE901780096A18C8F
:10350000BDF81430E3804900A06A89B201239022FB
:1035100008F07EF800287FF469AFCDE901780096C5
:10352000A18CBDF8143023814900A06A89B201231F
:10353000922208F06DF800287FF458AFCDE90178A9
:103540000096A18CBDF81400608101239940A06A07
:10355000942289B208F05CF800287FF447AFBDF8E8
:103560001430A381A16AA08C04F10E039622FFF708
:1035700017FF00283FF43AAFA16AA08C04F11003B2
:103580009822FFF70DFF00283FF430AFA16AA08C0E
:1035900004F112039A22FFF703FF00283FF426AF3D
:1035A000A16AA08C04F114039C22FFF7F9FE002805
:1035B0003FF41CAFA16AA08C04F116039E22FFF712
:1035C000EFFE074600283FF411AF94F83220A38C99
:1035D000A06A602A3DD05B00009699B26B786A7948
:1035E0009B0043EA42138DF8143042F2107201231B
:1035F000CDE90132F52207F0E5FE00287FF4F6AEB2
:1036000095F80080AB78EA78B8F1010F08BF287010
:103610004FEA830343EA421394F8322008BF8046FE
:1036200048EA0308602AA38CA06A5FFA88F87AD077
:103630005B0042F2107299B20123CDE9013200968B
:10364000F4228DF8148007F0BDFE00287FF4CEAE82
:10365000CDE65B004FF0010899B241F2883904F1E0
:1036600018030093CDE901894346A12207F0D0FF5A
:1036700000287FF4BBAECDF808900096A18C022301
:10368000019301FA08F1A06A89B24346E12207F0EA
:10369000BFFF00287FF4AAAECDE90189BDF8143040
:1036A000A18C638304F11C03009301FA08F1A06A62
:1036B00089B24346E32207F0ABFF00287FF496AEC1
:1036C000A16AA08C0DF11203E422FFF769FE002825
:1036D0003FF48CAEA16AA08C3346E522FFF760FE72
:1036E00000283FF483AECDE90189A18C04F12202C8
:1036F000434600929940A06A89B2E72207F088FF0A
:1037000000287FF473AEBDF81430BDF81220A06A13
:103710001B092384130103F47F63C2F303221343C1
:10372000E383A38C57E75B0099B22B798DF81430B3
:1037300042F210720123CDE901320096F22207F025
:1037400041FE00287FF452AEA06AA38C70E700BF50
:1037500030B541F2883287B00125818CCDE9015224
:103760000DF116030093A940044689B2806A2B46E6
:10377000F42207F04DFF10B1002007B030BD9DF8D6
:103780001620A18CA06A42F2107322F003022A4391
:10379000A94002930DF11703CDE900358DF81620ED
:1037A0008DF8172089B22B46F42207F00BFE002873
:1037B000E2D1284607B030BD10B5818C806A86B052
:1037C00001230DF1170241F2883499400092CDE9AE
:1037D000013489B2F32207F01BFF10B1002006B0BC
:1037E00010BD9DF81700C0F3C00006B010BD00BFAB
:1037F0002DE9F04F044690F832008FB060288846DB
:1038000005921E4600F053810BB10023336006235E
:10381000002601930CAB0093A18C41F28832012366
:1038200002929940A06A89B2F72207F0F1FE0028BF
:1038300040F039819DF834309DF833209DF83510E3
:10384000B4F90AC09DF8307006971B0143EA0233B1
:10385000228843EA1111C2EB131303FB03F5B4F9F9
:1038600004302D1303FB05F55200B4F90230C2EB0E
:10387000D10203FB02F2AD1305EBE22505EB85094E
:1038800009F180094FEA2929E188B4F90820C8F82C
:1038900000909DF83180CDF81C809DF83280CDF8E5
:1038A0002080B4F91080CDF82480B4F90E80CDF8D2
:1038B0002880A5F5FA3EB4F90C80CDF82C808EFB5B
:1038C0000E894FEAEC7B0CFB09FA82FB0E2308FB06
:1038D0000BAAACFB08CBD3441B034FEA1C2C43EAD6
:1038E00012534CEA0B6C12031CEB020C43EB2B2320
:1038F00003F50043ACFB01C201FB0321CB174A10C7
:1039000053EA610100F08A800899079F090941EA9A
:103910000711069F41EA07310A9F87FB0EEC099FBA
:103920004FEA4C4C07FB09F94FEAE77A4CEADE3CD8
:1039300008FB0A9A4FEA4E4EA7FB08981EEB090EA9
:10394000C1F58011C2444AEB0C0A0B9F10EB0E002C
:1039500001F0004E4EEA510EC907B1EB00080AEB28
:10396000C70A6EEB0A0E18EB080C4EEB0E011CEBAF
:10397000080C4EEB010188014FEA8C1940EA9C606B
:103980001CEB090C41EB0001890041EA9C714FEAF4
:103990008C0C1CEB080C4EEB01014FEA8C008900EB
:1039A00010EB080041EA9C714EEB0101FDF7BAFAF9
:1039B000B4F9162084464FEA5C3E48134EEAC14EE5
:1039C000D31702FB00F80EFB0389A2FB0E2802FBB3
:1039D00000F0C8440EFB0800A2FB0E2E8644520ED7
:1039E000B4F9143042EACE1212EB0C0041EB6E62D5
:1039F00003FB01F14FEAE37E0EFB0C11A3FB0C3C31
:103A00006144DB0C43EA4133C01842EBE142B4F9B4
:103A10001230000A40EA026000EB0310059B1860B8
:103A2000002E3CD0BDF83630B4F91E2094F9221097
:103A30005BBA9BB21205C2EB8332B4F92030A5F514
:103A4000963505FB1322237F05FB03F3DB1205FBF1
:103A500001F1891203F5004301FB03F39B12B4F952
:103A60001A1003F5001301FB03F302F5804203F57E
:103A70000053D2139B1302FB03F3DA13217E02FBE4
:103A800002F2D21101FB02F2A3EB221323EAE37349
:103A9000B3F1C85FA8BF4FF0C8531B1333600120B8
:103AA0000FB0BDE8F08F00200FB0BDE8F08F002B05
:103AB0003FF4ADAE0823ACE670B50D4684B01646B3
:103AC00013B31C4602AA03AB01A9FFF791FE10B97C
:103AD000002004B070BDDDED017A9FED177AF8EE9D
:103AE000E77AC7EE876A9DED027ADDED037AC5EDD0
:103AF000006ABBEECC7AFBEECB7A86ED007AC4EDA1
:103B0000007A012004B070BD02AA01A9FFF770FE7F
:103B10000028DDD0DDED017ADFED076AF8EEE77A07
:103B200087EEA67ADDED027A85ED007AFBEECC7A9F
:103B3000C6ED007AE5E700BF0000C84270B5154841
:103B4000154E0CF0DFFD052540F2DC530322D62193
:103B5000304607F07BFE0446322009F00DFE4FF49C
:103B6000FA7044B109F008FE013DEDD10B480CF0AC
:103B700031FE284670BD0A480CF02CFED623802268
:103B80002E21054805F0F8F9012009F0F5FD012086
:103B900070BD00BF944A010800180020AC4A01081B
:103BA000C060010800B583B0D6230DF106023B21A9
:103BB000044805F0CBF9BDF8060005F05BFA03B048
:103BC0005DF804FB0018002000B583B0D6230DF18A
:103BD00006023D21044805F0B9F9BDF8060005F0DC
:103BE00049FA03B05DF804FB0018002000B583B06B
:103BF000D6230DF106023721044805F0A7F9BDF8D8
:103C0000060005F037FA03B05DF804FB0018002049
:103C100000B583B0D6230DF106023921044805F022
:103C200095F9BDF8060005F025FA03B05DF804FB30
:103C30000018002000B583B0D6230DF10602312113
:103C4000044805F083F9BDF8060005F013FA03B047
:103C50005DF804FB0018002000B583B0D6230DF1F9
:103C600006023321044805F071F9BDF8060005F09D
:103C700001FA03B05DF804FB0018002000B587B01E
:103C800001230DF117024FF4FA71CDE901310092D1
:103C9000D6210022084807F0BBFC9DF8173003F03E
:103CA0003F03C3EB431203EB8200400000F6C41055
:103CB00080B207B05DF804FB0018002000B583B0A7
:103CC000D6230DF106020121064805F03FF9BDF8A3
:103CD000060005F0CFF900EB8000400080B203B091
:103CE0005DF804FB0018002000B583B0D6230DF169
:103CF00006020321064805F029F9BDF8060005F083
:103D0000B9F900EB8000400080B203B05DF804FB1D
:103D1000001800200246D623024802F03F0200218C
:103D200005F02AB900180020074B10B5A3FB00309E
:103D3000C00805F09FF9BDE810400246D6230348AD
:103D4000012105F02DB900BFCDCCCCCC001800204E
:103D5000074B10B5A3FB0030C00805F08BF9BDE898
:103D600010400246D6230348032105F019B900BFCD
:103D7000CDCCCCCC001800200246D623014805212A
:103D800005F0FAB80018002010B505F073F9BDE889
:103D900010400246D6230248062105F001B900BFB3
:103DA000001800200246D6230148102105F0E4B88F
:103DB000001800200246D6230148182105F0DCB87F
:103DC0000018002010B50C4C82B0D6230DF107026C
:103DD0001021204605F0A6F80DF10700012203216D
:103DE00005F0F4F89DF80720D6231021204605F0B1
:103DF000C3F802B010BD00BF0018002030B50C4D54
:103E000083B0D62304460DF107021521284605F09C
:103E100089F822460DF10700002105F0D7F89DF83A
:103E20000720D6231521284605F0A6F803B030BD9B
:103E30000018002038B50D4D0D4C2B882288934278
:103E400009D00C49114407D99A1A0B4892B208F0CC
:103E5000D3FE2B88238038BDC2F50062064892B29B
:103E600008F0CAFE0023238038BD00BFD20D002019
:103E7000D00D0020D40D0020D4160020024B834228
:103E800000D07047FFF7D6BFD4160020F0B5124B14
:103E9000124C1F882688101E83B00EDD0139104D8C
:103EA0000A18334611F801EF05F803E003F1010C9D
:103EB000CCF30A038A422380F4D1BE4201D003B07E
:103EC000F0BD084B9B6F212BF9D00190FFF7B2FF9B
:103ED000019803B0F0BD00BFD00D0020D20D00202E
:103EE000D40D0020D416002038B50D4B984204465E
:103EF00003D00C4B9C4207D038BD0B49402209F03F
:103F0000EFFB084B9C42F7D1084D2878FEF7B4F937
:103F1000294620460122BDE8384009F0E1BB00BF38
:103F2000D416002050160020D8150020D4150020EB
:103F300038B50D4B9842044603D00C4B9C4207D039
:103F400038BD0B49402209F0CBFB084B9C42F7D10E
:103F5000084D2878FEF790F9294620460122BDE851
:103F6000384009F0BDBB00BFD41600205016002019
:103F7000D8150020D4150020F0B5124E3378DBB1EF
:103F8000114C374645428446BE4605E09CF8013058
:103F9000A3B11EF8013F8C46E25C614602F00302C9
:103FA000012A11F8012B08BF20339A42EED017F8EE
:103FB000013F0135002BE6D11846F0BD65440135BF
:103FC0007019F0BD900D002059680108F8B5077808
:103FD000202F08BF4778064608BF0136F7B13D4697
:103FE000002404E016F8015F0CEB40043DB1A5F19C
:103FF000300C5FFA8CF0092804EB8400F2D92D2FE5
:1040000000D16442944201DB9C4204DD04480CF080
:10401000E1FB3046F8BD0C603046F8BD3C46F1E7A8
:10402000B84A010870B50478049E202C08BF0130FE
:10403000002B26DDC518844603E00A2C09D0AC45C8
:104040000ED01CF8014BACEB000E0D2C0EF1FF3E18
:10405000F3D17245F3DDBDE870400D480CF0BABBFA
:1040600001380C46CD1803E00A2B08D0AC4208D02A
:1040700010F8013F0D2B224604F8013BF4D1002338
:1040800013700A4603483146BDE870400CF03ABB55
:10409000C44A0108D04A010830B52DED028B0378DF
:1040A000202B83B00446B0EE408AF0EE608A0D46C5
:1040B00003D114F8013F202BFBD001A920460BF0BF
:1040C00009FBB4EEC80AF1EE10FA04DBB4EEE80A1C
:1040D000F1EE10FA07D907480CF07CFB204603B03C
:1040E000BDEC028B30BD204685ED000A03B0BDEC6F
:1040F000028B30BDB84A010800B59FED357B83B017
:10410000354B36488DED007B00220CF0FBFA34482D
:104110000CF0F8FA334B1B78032B06D8DFE803F0DA
:104120005450024C30480CF055FBFFF7E9F810EE04
:10413000100AFCF749FA02460B462C480CF0E2FA4A
:10414000FFF730FD01462A480CF0DCFAFFF74EFD80
:10415000014628480CF0D6FAFFF75AFD01462648DA
:104160000CF0D0FAFFF730FD014624480CF0CAFAF3
:10417000FFF760FD014622480CF0C4FAFFF76CFD22
:10418000014620480CF0BEFAFFF778FD01461E48B4
:104190000CF0B8FAFFF792FD01461C480CF0B2FA99
:1041A000FFF7A2FD01461A480CF0ACFA194803B01B
:1041B0005DF804EB0CF00EBB17480CF00BFBB4E7FA
:1041C00016480CF007FBB0E715480CF003FBACE712
:1041D000000000606666E63F0000F03FDC4A010830
:1041E000004B01086F1B00201C4B0108404B0108CD
:1041F0005C4B01086C4B01087C4B01088C4B01089F
:10420000A04B0108B04B0108C44B0108E84B010862
:104210000C4C010844600108304B0108A4660108F9
:10422000144B01080000000010B59FED3B7B82B0ED
:104230008DED007B3A4B3B483B4C00220CF062FA80
:104240003A480CF0C7FA3A480CF0C4FA39480CF076
:10425000C1FA39480CF0BEFA38480CF0BBFA3848BD
:104260000CF0B8FA37480CF0B5FA37480CF0B2FA4F
:1042700036480CF0AFFA20460CF0ACFA34480CF09B
:10428000A9FA34480CF0A6FA33480CF0A3FA3348E4
:104290000CF0A0FA32480CF09DFA20460CF09AFA85
:1042A00030480CF097FA30480CF094FA2F480CF094
:1042B00091FA20460CF08EFA2D480CF08BFA2D481E
:1042C0000CF088FA2C480CF085FA2C480CF082FA95
:1042D0002B480CF07FFA2B480CF07CFA2A480CF0A3
:1042E00079FA2A480CF076FA29480CF073FA294832
:1042F0000CF070FA28480CF06DFA28480CF06AFAB5
:1043000020460CF067FA26480CF064FA204602B00A
:10431000BDE810400CF05EBA000000606666E63F43
:104320000000F03FDC4A010844600108304C0108FD
:10433000404C01087C4C0108C84C01081C4D010888
:10434000704D0108BC4D01080C4E0108484E010893
:10435000804E0108944E0108B84E0108E44E010851
:10436000084F01082C4F01083C4F0108844F0108F9
:10437000C84F0108D84F0108E04F0108EC4F010871
:1043800020500108445001086C5001088C5001086D
:10439000A4500108DC5001080451010840510108F3
:1043A000A45101082DE9F047AC4C2DED028B236898
:1043B0003F2B90B003D8AA495A1CC85422600A283F
:1043C00004D010B0BDEC028BBDE8F0872368A44D8B
:1043D000581E00212A5C0D2A18BF1846C0F1400261
:1043E00028440CF057FB00239E482360FFF7C4FDD0
:1043F0006B1C834200F0DA809B48FFF7BDFD2E1D49
:10440000864200F0D3809948FFF7B6FD05F1060813
:10441000804500F0E3809648FFF7AEFD05F10709FF
:10442000814500F0E2809348FFF7A6FD05F10B04FB
:10443000844200F0C2809048FFF79EFD844200F065
:10444000E6808E48FFF798FD05F10A07874200F0E5
:10445000E5808B48FFF790FD874200F0EA808948AD
:10446000FFF78AFD05F10C0A824500F0E7808648D7
:10447000FFF782FD844200F047818448FFF77CFD0E
:10448000804508BF012000F0BB808148FFF774FD24
:10449000814500F0B4807F48FFF76EFD874200F051
:1044A00062827D487D4DFFF767FD854200F0768290
:1044B0007B48FFF761FD824500F077827948FFF77E
:1044C0005BFD874200F0F5827748FFF755FD854296
:1044D00000F00D837548FFF74FFD854277D0744893
:1044E000FFF74AFD814500F00E837248FFF744FD57
:1044F000824500F00F837048FFF73EFD6F4B83420B
:1045000000F02C836E48FFF737FD864200F02C81C7
:104510006C48FFF731FD6C4B984205467FF451AF74
:104520006A48FFF729FD00283FF44BAFA0427FF413
:1045300048AF67490CF0E8FA0646002840F07B8354
:10454000644920460CF0E0FA002840F0928362496A
:1045500020460CF0D9FA00283FF433AF0B355F4901
:1045600028460CF0D1FA0646002840F0C0835C498A
:1045700028460CF0C9FA00283FF423AF594C5A4A98
:10458000E3795A48022161F3430301211170E37179
:104590000CF020F9564B1E8003F052F8208910B021
:1045A000BDEC028BBDE8F04702F0A8BF10B0BDEC37
:1045B000028BBDE8F047FFF737BE4E480CF00AF912
:1045C00010B0BDEC028BBDE8F047FCF743BF10B064
:1045D000BDEC028BBDE8F04703F026BE10B0BDEC89
:1045E000028BBDE8F047FFF787BD4348A022382182
:1045F00010B0BDEC028BBDE8F04704F005BD002013
:1046000010B0BDEC028BBDE8F047FEF7ABB810B0C0
:10461000BDEC028BBDE8F047FCF7C4BFFCF748FFD8
:104620000146364810B0BDEC028BBDE8F0470CF0F7
:1046300069B8FCF7E7FE01463148F3E704A943F601
:10464000982300220AF10100FFF7C0FC049B254AD1
:104650002C48A2F8053099B2E4E700BF8C0D002089
:10466000900D0020C4510108C8510108D051010823
:10467000D8510108E05101080852010814520108FC
:104680004852010894520108B4520108D45201085A
:10469000DC520108E452010828530108990D00205A
:1046A000345301084453010850530108785301085A
:1046B000845301088C530108C4530108980D00204D
:1046C00004540108F45B0108950D0020FC5B01080F
:1046D000045C01082C5C0108545C01085C5C010866
:1046E0008C5C0108C0190020B6190020605C01082C
:1046F00018160020EC510108AC17002020520108C8
:1047000054520108A45201082B7BAD48202B03D141
:1047100010F8013F202BFBD004A90AF0DBFFFAEED2
:10472000047AB4EEE70AF1EE10FAB0EE408AC0F275
:104730002D81F2EE047AB4EEE70AF1EE10FA00F2FF
:10474000258110EE100AFBF73FFF02460B469D4CF9
:104750009D4818EE101AC4F8011010B0BDEC028B81
:10476000BDE8F0470BF0CEBF9848FFF705FC0028E6
:1047700040F0DB819648FFF7FFFB0546002840F03C
:1047800006829448FFF7F8FB0646002840F01182A5
:104790009148FFF7F1FB002840F027828F48FFF790
:1047A000EBFB0546002840F082828D48FFF7E4FBD2
:1047B000002840F085828B48FFF7DEFB002840F0A0
:1047C000BF828948FFF7D8FB002840F0A6828748BF
:1047D000FFF7D2FB002840F007838548FFF7CCFBAA
:1047E000002840F0B6828348FFF7C6FB10B1A04214
:1047F00000F007838048FFF7BFFB10B1B84200F01C
:10480000AC857E48FFF7B8FB002800F0C783A042C4
:104810007FF4D7AD7A48FFF7AFFB70B17949694CA7
:104820000B78227E784842F0010243F002032276A0
:104830000B700BF0CFFFFCF7E5FD7448FFF79CFB16
:1048400070B160496F4B0C7E1A7871486FF341026A
:104850006FF300040C761A700BF0BCFFFCF7D2FD6E
:104860006C48FFF789FBF0B10523002204A94FF043
:10487000FF3469480494FFF7A9FB5249614B049C3B
:10488000087E1A7804F00F0565F3440065F385028D
:104890000876E0B21A7002F027F821465F480BF064
:1048A00031FFFCF7AFFD5E48FFF766FB044618B129
:1048B0005C4B984200F080845B48FFF75DFB044648
:1048C00018B15A4B984200F001855948FFF754FB44
:1048D000044600283FF475AD564B98427FF471AD05
:1048E00055490CF011F9B8B1F2EE040ABAEE040A17
:1048F00004A9E01DFFF7D0FB424B32490498C3F8EE
:104900000F00C1F81D00FBF75FFE02460B464B4847
:104910000BF0F8FEFCF776FD494946480CF0F4F838
:1049200070B13849274C8B7A227E464842F04002CB
:1049300043F0010322768B720BF04CFFFCF762FD13
:1049400041493C480CF0E0F800283FF43AAD1D49DD
:104950002C4B0C7E9A7A3D486FF386146FF300025D
:104960000C769A72E4E23A4A3A4811460023FDF77F
:104970005FF8394A394B014600290CBF11461946E8
:1049800037480BF0BFFE374937484BE637489FEDB5
:10499000388A0BF01FFF00220023D8E610B0BDECD0
:1049A000028BBDE8F047FCF7FDBF002423462278C8
:1049B000202A0CBF01241C46601E01465FE000BF98
:1049C0009C0D0020C0190020C05201080C540108A1
:1049D000305401085454010898540108FC5401084B
:1049E00014550108385501084C550108685501084F
:1049F00084550108A05501089C560108C4570108B8
:104A0000A8550108241B0020CC570108C8550108EF
:104A1000E4570108E8550108A00D0020FC570108E3
:104A200010560108A70D00207C580108A10D002098
:104A30005C5701089F0D002020560108EC58010822
:104A40004C5601080C5901087456010830590108E8
:104A5000E44B0108F0520108BC510108B8510108AB
:104A6000FC5201084A0A00200C530108B84A010808
:104A7000000000000A2A06D00133302B20D011F8A4
:104A8000012F0D2AF6D1072BF6DCB6480BF0A2FE5B
:104A900004AE44F6A6713046FDF71AF8B24AB34B9D
:104AA000014600290CBF11461946B1480BF02AFEF9
:104AB00087E410B0BDEC028BBDE8F047FDF740B8CD
:104AC00004AE31462F3403E00A2B08D0844208D0CC
:104AD00010F8013F0D2B0D4601F8013BF4D10023E6
:104AE0002B7032460021A3480BF00CFED1E7A24800
:104AF000FDF740F89C4A9D4B014600290CBF11462A
:104B000019469B488EE510B0BDEC028BBDE8F0471E
:104B100003F04CBE99499A4891F84C4B01F5346129
:104B20000EC900940BF0EEFD4BE44FF4B4634FF06C
:104B3000FF340F2204A90494FFF748FA049B0E2BBC
:104B40007FF73FAC8F4A90480733A2FB0323DB0873
:104B50008E4AC3EB031399B2138163E5FDF77EFE22
:104B600086498B4891F9562691F8553691F8544666
:104B7000CDE9023291F8532691F85236CDE900245E
:104B800091F85026B1F84E160BF0BCFD19E4FA234B
:104B90004FF0FF34012204A90494FFF717FA049B95
:104BA000002B7FF70EAC794A7A4882F83B30D9B2B5
:104BB00038E54FF0FF3402232A4604A90494FFF796
:104BC00005FA049C002C40F38E80012C00F09B80A1
:104BD000022C00F09C80704B00221A806B4BDA791B
:104BE00064F34302DA71FFF7ECBB03234FF0FF34A9
:104BF000324604A90494FFF7E9F9049B002BFFF661
:104C0000E0AB624A92F83C1003F0030363F3010146
:104C1000022B82F83C1000F0F280032B00F0ED80B4
:104C2000012B14BF5D485E4810B0BDEC028BBDE89F
:104C3000F0470BF0CFBD554C4FF0FF3004A9049066
:104C40004FF4FA73012205F10A00FFF7BFF9E27988
:104C50000499544D54482980012363F34302E271BF
:104C6000524A036089B20023514813700BF04AFD89
:104C700094E44FF0FF3004A904904FF4FA7301223A
:104C800005F10A00FFF7A2F9484B464A3F4C049948
:104C90001E70454B118001221A60E37945480222BB
:104CA00062F3430389B2E3710BF02CFD72E4424BD3
:104CB0000093424930230122FFF7B4F9FFF781BB8B
:104CC0004FF6FF734FF0FF342A4604A90494FFF710
:104CD0007DF9049B002BFFF674AB2C4A3848A2F8F0
:104CE0007D3099B29EE437480BF074FD76E7274C8F
:104CF0002E49E3793448012262F343030A70E371D9
:104D00000BF068FD4AE431480BF064FD63E730487E
:104D10000BF0F8FC02F094FC5DE74FF6FF734FF0E8
:104D2000FF34002204A90494FFF750F9049B002BE0
:104D3000FFF647AB154A2748A2F8AF3099B271E4A5
:104D4000254B0093254930230122FFF76BF9FFF72C
:104D500038BB234B0093234910230122FFF762F94C
:104D6000FFF72FBBC44A0108BC510108B851010824
:104D7000FC520108D04A01085C53010830020020AF
:104D80009C5301088988888818540108C01900209C
:104D9000D05301083C54010818160020A8540108FB
:104DA000B4540108B819002090190020B619002049
:104DB0000C5C0108345C0108085501080D1A00203C
:104DC0002455010888540108605C010860540108FA
:104DD0007454010858550108445501083F1A002031
:104DE00090550108811A0020564B00935649102314
:104DF0000122FFF717F9FFF7E4BA544814E75448C3
:104E000012E75448FFF7B8F870B15349534A8B7A08
:104E1000534843F001038B72137843F0020313707D
:104E20000BF0D8FCFCF7EEFA4E48FFF7A5F870B18E
:104E3000494A4A4B917A4C486FF3000191721A78B3
:104E40006FF341021A700BF0C5FCFCF7DBFA474820
:104E5000FFF792F8F8B14FF0FF300323002204A9C6
:104E600004904348FFF7B2F83B493C4B049D8E7ACF
:104E70001A7805F00F0060F3850260F344061A709B
:104E80008E7204F0B3F93B4B294618803A480BF078
:104E900039FCFCF7B7FA3948FFF76EF805460028E9
:104EA0003FF4A8AC364B98427FF4A4AC35490BF0E4
:104EB0002BFEB8B1F2EE040ABAEE040A04A9E81D0A
:104EC000FFF7EAF8254B24490498C3F80600C1F817
:104ED0000B00FBF779FB02460B462B480BF012FC4C
:104EE000FCF790FA294926480BF00EFE70B11B49D9
:104EF000194C4B78A27A264842F0200243F0010375
:104F0000A2724B700BF066FCFCF77CFA21491C483E
:104F10000BF0FAFD00283FF454AA0F490F4B8C7A8E
:104F20005A781D486FF345146FF300028C725A7063
:104F30000BF050FC10B0BDEC028BBDE8F047FCF765
:104F400061BA00BF74550108711A0020E0540108CD
:104F5000CC540108A8550108C0190020601B00208E
:104F6000B0550108C8550108D0550108E855010899
:104F7000A00D0020B2190020F055010810560108BC
:104F8000A70D002020560108285601084C5601089C
:104F9000505601087456010878560108AA48FEF7D1
:104FA000EBFF10B1A04200F0AB82A848FEF7E4FF8F
:104FB00000283FF4ADAAA0427FF4AAAAA448FEF7B5
:104FC000DBFF80B1A348A44990F832200B7842F06F
:104FD000010243F0020380F83220A0480B700BF06E
:104FE000F9FBFCF70FFA9E48FEF7C6FF80B199491E
:104FF000994B91F832001A786FF300006FF3410279
:1050000081F8320097481A700BF0E4FBFCF7FAF9CC
:105010009548FEF7B1FF50B30823002204A94FF0D2
:10502000FF3592480495FEF7D1FF8A4A049D92F815
:105030003210894B05F00F0060F3440182F8321002
:105040001A7860F385021A7001F02AF8884A03463C
:10505000DBB21370874A00201070874A137000F08B
:10506000A5FE294685480BF04DFBFCF7CBF984489B
:10507000FEF782FF054610B1824B984251D082481C
:10508000FEF77AFF054600283FF442AA7F4B98427C
:105090007FF43EAA7E490BF037FDB8B1DFED7D0A03
:1050A0009FED7D0A04A9E81DFEF7F6FF6A4B6949EA
:1050B0000498C3F80F00C1F83700FBF785FA0246E1
:1050C0000B4676480BF01EFBFCF79CF974496F48C1
:1050D0000BF01AFD80B160495E4C8B7A94F8322057
:1050E000704842F0400243F0010384F832208B7292
:1050F0000BF070FBFCF786F96B4964480BF004FD7C
:1051000000283FF45EA95349534B91F832409A7AF4
:1051100066486FF386146FF3000281F832409A728A
:1051200006E75B490BF0F0FCB8B1F2EE040ABAEE08
:10513000040A04A9E81DFEF7AFFF464B4649049850
:10514000C3F83300C1F80600FBF73EFA02460B46EF
:1051500057480BF0D7FAFCF755F9514949480BF07D
:10516000D3FC80B13B483C4990F832204B7842F068
:10517000200243F0010380F832204E484B700BF0C0
:1051800029FBFCF73FF948493E480BF0BDFC0028DD
:105190003FF475AF2F49304B91F832005A786FF3D6
:1051A00045106FF3000281F8320043485A700BF04B
:1051B00011FBFCF727F962E735490BF0A5FCB8B104
:1051C000F2EE040ABAEE040A04A9E01DFEF764FF39
:1051D0003A4B20490498C3F80600C1F81900FBF7C0
:1051E000F3F902460B4636480BF08CFAFCF70AF945
:1051F0002B4924480BF088FC70B13049154C4B7892
:10520000227E304842F0200243F0010322764B70A8
:105210000BF0E0FAFCF7F6F823491A480BF074FC9F
:1052200000283FF449AB0B49244B0C7E5A782648A2
:105230006FF300026FF345140C765A700BF0CAFA44
:10524000FCF7E0F8FFF738BB54590108C85A0108C9
:10525000A8550108C0190020E81A0020D05A0108FA
:10526000C8550108E85A0108E8550108A00D0020BA
:10527000AE190020B1190020B0190020005B010810
:1052800010560108A70D00207C580108A10D002030
:10529000205601080000FA430000FAC38C5B0108A5
:1052A0004C560108AC5B010874560108D05B01083C
:1052B000205B0108445B0108685B0108241B002097
:1052C00010580108345801085858010871490BF06A
:1052D0001BFCB0B1DFED700A9FED700A04A9E01D60
:1052E000FEF7DAFE6E4B6F4904989861C1F8210011
:1052F000FBF76AF902460B466B480BF003FAFCF722
:1053000081F86A496A480BF0FFFB70B16449654C4B
:10531000CB7C227E674842F0800243F00103227674
:10532000CB740BF057FAFCF76DF8634960480BF04B
:10533000EBFB00283FF4C9AA5A49594B0C7EDA7C92
:105340005E486FF300026FF3C7140C76DA740BF04B
:1053500041FAFCF757F8FFF7B8BA5948FEF70CFEC8
:1053600070B150485749C27B0B7842F0010243F0BC
:105370000203C27354480B700BF02CFAFCF742F88E
:105380005248FEF7F9FD70B146494E4BC87B1A787A
:105390006FF300006FF34102C8734D481A700BF0B1
:1053A00019FAFCF72FF84B48FEF7E6FDE0B10123B0
:1053B000002204A94FF0FF3547480495FEF706FE8A
:1053C000384A0499D57B3F4B01F00F0060F3440548
:1053D000D5731A78414D60F3850241481A702970DF
:1053E0000BF090F9FCF70EF83E48FEF7C5FD0546B8
:1053F00018B13D4B984200F07B813C48FEF7BCFD64
:10540000054600283FF4FDA9394B98427FF4F9A9DD
:1054100020490BF079FBB0B1F2EE040ABAEE040AAF
:1054200004A9E81DFEF738FE264B1E490498C3F870
:105430000F004861FBF7C8F802460B462D480BF0F9
:1054400061F9FBF7DFFF194929480BF05DFB70B1EB
:105450001C49144C8B7AE27B274842F0400243F00F
:105460000103E2738B720BF0B5F9FBF7CBFF124926
:105470001F480BF049FB00283EF4A3AF0949114B2C
:10548000CC7B9A7A1D486FF386146FF30002CC73BD
:105490009A724DE5205601080000FA430000FAC355
:1054A000241B0020C0190020845801084C56010814
:1054B000A10D0020A458010874560108C85801081D
:1054C000A8550108481B0020A4560108C85501082A
:1054D000BC560108E85501089F0D0020AC190020BA
:1054E000D456010810560108A60D00205C5701088B
:1054F0009E0D00206457010884570108A457010835
:105500009E48FEF739FD80B19D489E4990F82520C0
:105510000B7842F0010243F0020380F825209A48FC
:105520000B700BF057F9FBF76DFF9848FEF724FD61
:1055300080B19349934B91F825001A786FF30000DE
:105540006FF3410281F8250091481A700BF042F97F
:10555000FBF758FF8F48FEF70FFDE0B10A2300224A
:1055600004A94FF0FF358C480495FEF72FFD844ABF
:10557000049892F82550834B00F00F0161F3440525
:1055800082F825501A78C0B261F385021A7004F0CF
:10559000E3F8FBF737FF8148FEF7EEFC054618B14C
:1055A0007F4B984200F026817E48FEF7E5FC0546D9
:1055B00010B17D4B984251D07C48FEF7DDFC05468A
:1055C00000283FF4F2AC7A4B98427FF4EEAC794974
:1055D0000BF09AFAB8B1F2EE040ABAEE040A04A982
:1055E000E81DFEF759FD674B65490498C3F80F00A5
:1055F000C1F82A00FAF7E8FF02460B466E480BF0A6
:1056000081F8FBF7FFFE6D4969480BF07DFA80B128
:105610005C495B4C8B7A94F82520694842F0400243
:1056200043F0010384F825208B720BF0D3F8FBF7CD
:10563000E9FE64495E480BF067FA00283EF4C1AE0B
:105640004F49504B91F825409A7A5F486FF3861482
:105650006FF3000281F825409A7269E455490BF016
:1056600053FAB0B1DFED590A9FED590A04A9E81DBC
:10567000FEF712FD424B43490498C3F82E0088619F
:10568000FAF7A2FF02460B4652480BF03BF8FBF735
:10569000B9FE4A4944480BF037FA80B138483949D5
:1056A00090F82520CB7C42F0800243F0010380F883
:1056B00025204948CB740BF08DF8FBF7A3FE414938
:1056C00039480BF021FA00283FF476AF2C492D4BD6
:1056D00091F82500DA7C6FF3C7106FF3000281F8B0
:1056E00025003E48DA740BF075F8FBF78BFE63E794
:1056F00030490BF009FAB0B1F2EE040ABAEE040A2E
:1057000004A9E81DFEF7C8FC1D4B35490498186133
:10571000C1F80600FAF758FF02460B4631480AF076
:10572000F1FFFBF76FFE25492F480BF0EDF970B143
:1057300013482B49C27B4B7842F0200243F001030F
:10574000C2732A484B700BF045F8FBF75BFE1D490E
:1057500025480BF0D9F900283FF44FAE0849204BFB
:10576000C87B5A786FF345106FF30002C873204866
:105770005A700BF02FF8FBF745FE3EE6A8550108DE
:10578000C0190020001B00205C590108C855010801
:1057900074590108E8550108A00D002010560108B1
:1057A000A70D00207C580108A10D00205C570108BE
:1057B0009F0D002020560108605A01084C56010830
:1057C000805A010874560108A45A01080000FA43DF
:1057D0000000FAC3F8590108185A01083C5A010898
:1057E000481B0020F4560108A60D0020145701089C
:1057F0003857010825490BF087F9B8B1F2EE040AD1
:10580000BAEE040A04A9E81DFEF746FC204B214924
:105810000498C3F82600C1F80600FAF7D5FE024640
:105820000B461D480AF06EFFFBF7ECFD1B491C48B8
:105830000BF06AF980B11648164990F825204B788C
:1058400042F0200243F0010380F8252015484B70F8
:105850000AF0C0FFFBF7D6FD134911480BF054F9CD
:1058600000283FF4A1AE0A490A4B91F825005A7866
:105870006FF345106FF3000281F825000B485A7052
:105880000AF0A8FFFBF7BEFD8EE600BF2056010818
:10589000C0190020001B00208C5901084C5601083B
:1058A000A70D0020B059010874560108D459010809
:1058B000154AB2F85A302DE9F041B2F85840134E6B
:1058C0009BB2E41A32884034A41A634203F03F03C7
:1058D00004F03F0458BF5C42A4B294B100250C4FC1
:1058E000A84600E03288B85C531C9BB23F2B05F100
:1058F0000105338088BFA6F80080FEF753FDA5425E
:10590000F0D1BDE8F08100BFD4160020D6150020EC
:10591000D8150020084B9A6A22F480529A629A6C39
:1059200042F480529A649B6C82B003F480530193DA
:10593000019B002002B070470010024010B582B0F9
:1059400003F09CFB124896230322EE2105F07EFF14
:105950000446642007F010FFB4B9EE230C480DF1A3
:1059600007020D2103F0DEFA9DF80730102B05D059
:1059700008480AF02FFF002002B010BD06480AF0C8
:1059800029FF012002B010BD04480AF023FFF2E70E
:10599000AC1700209C5C0108905C0108A85C010821
:1059A00000B58BB003F06AFB05ABFA211222CDE9FA
:1059B0000121009310220123EE21354805F028FE35
:1059C0009DF815209DF814309DF81600110941EA44
:1059D00003111202DB0902F470622E4B18BFA1F50D
:1059E000805110434908D20A9DF8182019600CBF55
:1059F0005860A0F580519DF8170018BF596012013A
:105A00009DF8191042EA003242EA1110D20C18BF78
:105A1000A0F580109860BDF81A20090452BA01F46C
:105A2000702192B20A43C90C18BFA2F58012DA6045
:105A3000BDF81C2052BA91B2120448BFA1F58031C2
:105A40001961BDF81E2052BA91B2100448BFA1F5E9
:105A500080315961BDF8202052BA91B2120448BF7A
:105A6000A1F580319961BDF8222052BA91B210049B
:105A700048BFA1F58031D961BDF8242052BA91B256
:105A8000120448BFA1F5803119620BB05DF804FB28
:105A9000AC170020241600202DE9F041134F86B0EA
:105AA00001240DF117054FF0FA08064603F0E6FA57
:105AB0002346CDE9014800950922EE21384605F03C
:105AC000A7FD32462146284603F080FA23460922E4
:105AD000EE21CDE901480095384605F073FC2046DB
