:020000040800F2
:1000000000000120F96B00080D5100081151000893
:1000100015510008195100081D510008000000008A
:1000200000000000000000000000000001B5000812
:10003000215100080000000091B50008F5B5000846
:10004000496C0008496C0008496C0008496C0008BC
:10005000496C0008496C0008496C0008496C0008AC
:10006000496C0008496C0008496C000825510008DB
:10007000496C0008496C0008496C0008496C00088C
:10008000496C0008496C0008496C0008496C00087C
:10009000496C0008496C0008496C0008496C00086C
:1000A000496C0008496C0008496C0008496C00085C
:1000B000496C00080000000000000000496C0008C6
:1000C000496C0008496C0008496C0008496C00083C
:1000D000496C0008315100083D510008496C000886
:1000E000496C0008496C0008000000000000000096
:1000F0000000000000000000000000000000000000
:1001000000000000496C000800000000496C000875
:100110000000000000000000496C00084951000880
:10012000496C0008496C0008496C0008496C0008DB
:10013000496C000800000000000000000000000002
:10014000496C0008496C0008496C00080000000078
:10015000496C0008496C0008496C0008496C0008AB
:10016000496C0008496C0008496C00080000000058
:10017000496C0008496C0008000000000000000005
:0C018000496C0008496C0008496C00083C
:1001900010B5054C237833B9044B13B10448AFF3C1
:1001A00000800123237010BD000200200000000029
:1001B000DC03010808B5034B1BB103490348AFF347
:1001C000008008BD0000000004020020DC030108DC
:1001D00001F0FF01102A2BDB10F0070F08D010F8F8
:1001E000013B013A8B422DD010F0070F42B3F6D1FC
:1001F000F0B441EA012141EA014122F007047FF015
:1002000000070023F0E80256083C85EA010586EA6B
:10021000010685FA47F5A3FA87F586FA47F6A5FAA7
:1002200087F68EB9EED1F0BC01F0FF0102F00702B3
:1002300032B110F8013B013A83EA010313B1F8D15E
:100240000020704701387047002D06BF354603383F
:10025000073815F0010F07D1013015F4807F02BF78
:10026000013015F4C03F0130F0BC0138704700BFC9
:10027000034613F8012B002AFBD1181A01387047E6
:1002800081F0004102E000BF83F0004330B54FEA47
:1002900041044FEA430594EA050F08BF90EA020FB4
:1002A0001FBF54EA000C55EA020C7FEA645C7FEA47
:1002B000655C00F0E2804FEA5454D4EB5555B8BF6A
:1002C0006D420CDD2C4480EA020281EA030382EADB
:1002D000000083EA010180EA020281EA0303362D6D
:1002E00088BF30BD11F0004F4FEA01314FF4801C40
:1002F0004CEA113102D0404261EB410113F0004F52
:100300004FEA03334CEA133302D0524263EB430308
:1003100094EA050F00F0A780A4F10104D5F1200EA6
:100320000DDB02FA0EFC22FA05F2801841F1000101
:1003300003FA0EF2801843FA05F359410EE0A5F1D5
:1003400020050EF1200E012A03FA0EFC28BF4CF006
:10035000020C43FA05F3C01851EBE37101F00045BC
:1003600007D54FF0000EDCF1000C7EEB00006EEBC9
:100370000101B1F5801F1BD3B1F5001F0CD3490853
:100380005FEA30004FEA3C0C04F101044FEA4452AA
:1003900012F5800F80F09A80BCF1004F08BF5FEA31
:1003A000500C50F1000041EB045141EA050130BD11
:1003B0005FEA4C0C404141EB0101013C28BFB1F523
:1003C000801FE9D291F0000F04BF01460020B1FA6E
:1003D00081F308BF2033A3F10B03B3F120020CDA41
:1003E0000C3208DD02F1140CC2F10C0201FA0CF01F
:1003F00021FA02F10CE002F11402D8BFC2F1200C84
:1004000001FA02F120FA0CFCDCBF41EA0C01904039
:10041000E41AA2BF01EB0451294330BD6FEA040482
:100420001F3C1CDA0C340EDC04F11404C4F120026D
:1004300020FA04F001FA02F340EA030021FA04F37F
:1004400045EA030130BDC4F10C04C4F1200220FAD6
:1004500002F001FA04F340EA0300294630BD21FA14
:1004600004F0294630BD94F0000F83F4801306BFDA
:1004700081F480110134013D4EE77FEA645C18BFCE
:100480007FEA655C29D094EA050F08BF90EA020F65
:1004900005D054EA000C04BF1946104630BD91EA5D
:1004A000030F1EBF0021002030BD5FEA545C05D160
:1004B0004000494128BF41F0004130BD14F580049F
:1004C0003CBF01F5801130BD01F0004545F0FE4113
:1004D00041F470014FF0000030BD7FEA645C1ABF48
:1004E000194610467FEA655C1CBF0B46024650EA7F
:1004F000013406BF52EA033591EA030F41F40021AB
:1005000030BD00BF90F0000F04BF0021704730B530
:100510004FF4806404F132044FF000054FF0000105
:1005200050E700BF90F0000F04BF0021704730B5C6
:100530004FF4806404F1320410F0004548BF40429B
:100540004FF000013EE700BF42004FEAE2014FEAF0
:1005500031014FEA02701FBF12F07F4393F07F4FCB
:1005600081F06051704732F07F4208BF704793F0CE
:100570007F4F04BF41F40021704730B54FF46074E1
:1005800001F0004521F000411CE700BF50EA0102E4
:1005900008BF704730B54FF000050AE050EA01028D
:1005A00008BF704730B511F0004502D5404261EBFD
:1005B00041014FF4806404F132045FEA915C3FF43E
:1005C000D8AE4FF003025FEADC0C18BF03325FEADB
:1005D000DC0C18BF033202EBDC02C2F1200300FA8C
:1005E00003FC20FA02F001FA03FE40EA0E0021FAB1
:1005F00002F11444BDE600BF70B54FF0FF0C4CF49F
:10060000E06C1CEA11541DBF1CEA135594EA0C0F50
:1006100095EA0C0F00F0DEF82C4481EA030621EA8B
:100620004C5123EA4C5350EA013518BF52EA0335C6
:1006300041F4801143F4801338D0A0FB02CE4FF078
:100640000005E1FB02E506F00042E0FB03E54FF0A8
:100650000006E1FB03569CF0000F18BF4EF0010EA0
:10066000A4F1FF04B6F5007F64F5407404D25FEA9C
:100670004E0E6D4146EB060642EAC62141EA55514F
:100680004FEAC52040EA5E504FEACE2EB4F1FD0C91
:1006900088BFBCF5E06F1ED8BEF1004F08BF5FEA0F
:1006A000500E50F1000041EB045170BD06F00046C1
:1006B00046EA010140EA020081EA0301B4EB5C046E
:1006C000C2BFD4EB0C0541EA045170BD41F4801166
:1006D0004FF0000E013C00F3AB8014F1360FDEBF8B
:1006E000002001F0004170BDC4F10004203C35DA67
:1006F0000C341BDC04F11404C4F1200500FA05F3EA
:1007000020FA04F001FA05F240EA020001F000428A
:1007100021F0004110EBD37021FA04F642EB060100
:100720005EEA430E08BF20EAD37070BDC4F10C042A
:10073000C4F1200500FA04F320FA05F001FA04F2EE
:1007400040EA020001F0004110EBD37041F10001DA
:100750005EEA430E08BF20EAD37070BDC4F12005E5
:1007600000FA05F24EEA020E20FA04F301FA05F24D
:1007700043EA020321FA04F001F0004121FA04F2F5
:1007800020EA020000EBD3705EEA430E08BF20EAC5
:10079000D37070BD94F0000F0FD101F000464000FF
:1007A00041EB010111F4801F08BF013CF7D041EA81
:1007B000060195F0000F18BF704703F00046520085
:1007C00043EB030313F4801F08BF013DF7D043EA56
:1007D0000603704794EA0C0F0CEA135518BF95EA0C
:1007E0000C0F0CD050EA410618BF52EA4306D1D193
:1007F00081EA030101F000414FF0000070BD50EAB2
:10080000410606BF1046194652EA430619D094EA3B
:100810000C0F02D150EA013613D195EA0C0F05D125
:1008200052EA03361CBF104619460AD181EA030179
:1008300001F0004141F0FE4141F470014FF0000031
:1008400070BD41F0FE4141F4780170BD70B54FF0CC
:10085000FF0C4CF4E06C1CEA11541DBF1CEA13554C
:1008600094EA0C0F95EA0C0F00F0A7F8A4EB05042E
:1008700081EA030E52EA03354FEA013100F0888025
:100880004FEA03334FF0805545EA131343EA1263EE
:100890004FEA022245EA111545EA10654FEA0026A3
:1008A0000EF000419D4208BF964244F1FD0404F55C
:1008B000407402D25B084FEA3202B61A65EB0305B8
:1008C0005B084FEA32024FF480104FF4002CB6EB75
:1008D000020E75EB030E22BFB61A754640EA0C00F5
:1008E0005B084FEA3202B6EB020E75EB030E22BF35
:1008F000B61A754640EA5C005B084FEA3202B6EB76
:10090000020E75EB030E22BFB61A754640EA9C0034
:100910005B084FEA3202B6EB020E75EB030E22BF04
:10092000B61A754640EADC0055EA060E18D04FEAC2
:10093000051545EA16754FEA06164FEAC30343EA62
:1009400052734FEAC2025FEA1C1CC0D111F4801F2F
:100950000BD141EA00014FF000004FF0004CB6E728
:1009600011F4801F04BF01430020B4F1FD0C88BFC7
:10097000BCF5E06F3FF6AFAEB5EB030C04BFB6EBD2
:10098000020C5FEA500C50F1000041EB045170BDC5
:100990000EF0004E4EEA113114EB5C04C2BFD4EBF2
:1009A0000C0541EA045170BD41F480114FF0000E76
:1009B000013C90E645EA060E8DE60CEA135594EAF2
:1009C0000C0F08BF95EA0C0F3FF43BAF94EA0C0FF5
:1009D0000AD150EA01347FF434AF95EA0C0F7FF46A
:1009E00025AF104619462CE795EA0C0F06D152EABE
:1009F00003353FF4FDAE1046194622E750EA4106A2
:100A000018BF52EA43067FF4C5AE50EA41047FF4B2
:100A10000DAF52EA43057FF4EBAE12E74FF0FF3C17
:100A200006E000BF4FF0010C02E000BF4FF0010CE8
:100A30004DF804CD4FEA410C7FEA6C5C4FEA430C61
:100A400018BF7FEA6C5C1BD001B050EA410C0CBFB0
:100A500052EA430C91EA030F02BF90EA020F002012
:100A6000704710F1000F91EA030F58BF994208BF79
:100A700090422CBFD8176FEAE37040F00100704736
:100A80004FEA410C7FEA6C5C02D150EA013C07D18D
:100A90004FEA430C7FEA6C5CD6D152EA033CD3D0D8
:100AA0005DF8040B704700BF8446104662468C46D2
:100AB0001946634600E000BF01B5FFF7B7FF002805
:100AC00048BF10F1000F01BD4DF808EDFFF7F4FF2E
:100AD0000CBF012000205DF808FB00BF4DF808EDB9
:100AE000FFF7EAFF34BF012000205DF808FB00BFDC
:100AF0004DF808EDFFF7E0FF94BF012000205DF8FE
:100B000008FB00BF4DF808EDFFF7CEFF94BF0120B2
:100B100000205DF808FB00BF4DF808EDFFF7C4FFAB
:100B200034BF012000205DF808FB00BF4FEA410CF4
:100B30007FEA6C5C02D150EA013C0AD14FEA430CD7
:100B40007FEA6C5C02D152EA033C02D14FF0000014
:100B500070474FF0010070474FEA410212F5001252
:100B600015D211D56FF47873B3EB625212D94FEAF4
:100B7000C12343F0004343EA505311F0004F23FADE
:100B800002F018BF404270474FF00000704750EA33
:100B9000013005D111F0004008BF6FF000407047F0
:100BA0004FF00000704700BF4A0011D212F500124A
:100BB00011D20DD56FF47873B3EB62520ED44FEAB5
:100BC000C12343F0004343EA505323FA02F0704735
:100BD0004FF00000704750EA013002D14FF0FF3073
:100BE00070474FF0000070474FEA4102B2F1E04316
:100BF00024BFB3F5001CDCF1FE5C0DD901F0004C04
:100C00004FEAC0024CEA5070B2F1004F40EB830053
:100C100008BF20F00100704711F0804F21D113F17F
:100C20003872BCBF01F00040704741F480114FEAB8
:100C30005252C2F11802C2F1200C10FA0CF320FA41
:100C400002F018BF40F001004FEAC1234FEAD3235E
:100C500003FA0CFC40EA0C0023FA02F34FEA4303C8
:100C6000CCE77FEA625307D150EA01331EBF4FF051
:100C7000FE4040F44000704701F0004040F0FE406C
:100C800040F40000704700BF80F0004002E000BF69
:100C900081F0004142001FBF5FEA410392EA030F67
:100CA0007FEA226C7FEA236C6AD04FEA1262D2EBB1
:100CB0001363C1BFD218414048404140B8BF5B42B6
:100CC000192B88BF704710F0004F40F4000020F04F
:100CD0007F4018BF404211F0004F41F4000121F065
:100CE0007F4118BF494292EA030F3FD0A2F10102AF
:100CF00041FA03FC10EB0C00C3F1200301FA03F1ED
:100D000000F0004302D5494260EB4000B0F5000F0F
:100D100013D3B0F1807F06D340084FEA310102F1CE
:100D20000102FE2A51D2B1F1004F40EBC25008BF80
:100D300020F0010040EA03007047490040EB00004A
:100D4000013A28BFB0F5000FEDD2B0FA80FCACF14B
:100D5000080CB2EB0C0200FA0CF0AABF00EBC25078
:100D600052421843BCBFD0401843704792F0000F66
:100D700081F4000106BF80F400000132013BB5E7B9
:100D80004FEA41037FEA226C18BF7FEA236C21D02F
:100D900092EA030F04D092F0000F08BF0846704794
:100DA00090EA010F1CBF0020704712F07F4F04D162
:100DB000400028BF40F00040704712F100723CBF75
:100DC00000F50000704700F0004343F0FE4040F49F
:100DD000000070477FEA226216BF08467FEA23635D
:100DE0000146420206BF5FEA412390EA010F40F448
:100DF000800070474FF0000304E000BF10F0004394
:100E000048BF40425FEA000C08BF704743F096437A
:100E100001464FF000001CE050EA010208BF704795
:100E20004FF000030AE000BF50EA010208BF70471C
:100E300011F0004302D5404261EB41015FEA010C31
:100E400002BF84460146002043F0B64308BFA3F129
:100E50008053A3F50003BCFA8CF2083AA3EBC2530B
:100E600010DB01FA02FC634400FA02FCC2F120022A
:100E7000BCF1004F20FA02F243EB020008BF20F061
:100E80000100704702F1200201FA02FCC2F12002C7
:100E900050EA4C0021FA02F243EB020008BF20EABC
:100EA000DC7070477BB972B90029BEBF00204FF0DB
:100EB000004106E008BF00281CBF6FF000414FF062
:100EC000FF3000F0EBB9ADF1080C6DE904CE00295C
:100ED00009DB002B1ADB00F083F8DDF804E0DDE924
:100EE000022304B07047404261EB4101002B1BDB41
:100EF00000F076F8DDF804E0DDE9022304B04042BA
:100F000061EB4101524263EB43037047524263EB92
:100F1000430300F065F8DDF804E0DDE9022304B0E6
:100F2000404261EB41017047524263EB430300F0E2
:100F300057F8DDF804E0DDE9022304B0524263EB28
:100F40004303704753B94AB9002908BF00281CBFA2
:100F50004FF0FF314FF0FF3000F0A0B9ADF1080CB9
:100F60006DE904CE00F03CF8DDF804E0DDE9022391
:100F700004B0704738B50022002304460D46FFF741
:100F8000ADFD28B920462946BDE8384000F00AB832
:100F9000204605F1004100F005F8404261EB4101B7
:100FA00038BD00BFD0B50C4B002206460F46FFF7F8
:100FB00023FBFFF7F9FD0446FFF7A4FA074B0022D5
:100FC000FFF71AFB02460B4630463946FFF75CF93D
:100FD000FFF7EAFD2146D0BD0000F03D0000F041E2
:100FE0002DE9F047089D0C46002B4ED194468C45C8
:100FF0008646B2FA82F262D94AB1C2F12003914028
:1010000020FA03F30CFA02FC194300FA02FE4FEA3D
:101010001C471FFA8CF6B1FBF7F44FEA1E4307FB9F
:10102000141143EA014304FB06F199420AD91CEB6F
:10103000030304F1FF3080F01281994240F20F81E6
:10104000023C6344591A1FFA8EF3B1FBF7F007FB19
:10105000101143EA014300FB06F69E420AD91CEB3D
:10106000030300F1FF3180F0FC809E4240F2F980E2
:10107000634402389B1B40EA044000211DB1D34069
:101080000022C5E90032BDE8F0878B4205D90DB1D9
:10109000C5E9000100210846F5E7B3FA83F100290C
:1010A00046D1A34202D39042C0F0F080861A64EB8E
:1010B00003030120002DE6D0C5E90063E3E7002A21
:1010C00040F09080A1EB0C044FEA1C481FFA8CF70B
:1010D0000121B4FBF8F64FEA1E4308FB164443EA2D
:1010E000044307FB06F0984208D91CEB030306F102
:1010F000FF3402D2984200F2CD8026461C1A1FFA15
:101100008EF3B4FBF8F008FB104443EA044300FB01
:1011100007F79F4208D91CEB030300F1FF3402D20A
:101120009F4200F2B0802046DB1B40EA0640A5E764
:10113000C1F120068B4022FA06F71F4320FA06FC75
:1011400004FA01F343EA0C03F44000FA01F8380C06
:101150004FEA1349B4FBF0FE1FFA87FC00FB1E4464
:1011600049EA04440EFB0CF9A14502FA01F20AD93E
:101170003C190EF1FF3A80F08480A14540F2818055
:10118000AEF1020E3C44A4EB09041FFA83F9B4FB50
:10119000F0F300FB134449EA044403FB0CFCA445B0
:1011A00007D93C1903F1FF3067D2A44565D9023B4A
:1011B0003C4443EA0E40A0FB0293A4EB0C049C4287
:1011C000CE469C4651D34ED055B1B8EB0E0364EBDE
:1011D0000C0404FA06F6CB401E43CC40C5E900647B
:1011E000002150E7C2F1200320FA03F10CFA02FCBF
:1011F00024FA03F394400C434FEA1C4800FA02FE21
:101200001FFA8CF7B3FBF8F008FB1031230C43EA0C
:10121000014300FB07F1994208D91CEB030300F1DD
:10122000FF362CD299422AD9023863445B1AA4B201
:10123000B3FBF8F108FB113344EA034401FB07F365
:10124000A34208D91CEB040401F1FF3613D2A342D8
:1012500011D902396444E41A41EA004139E70446ED
:10126000F0E6084606E7C845AED2B9EB020E63EBDE
:10127000070C0138A8E73146EDE7034699E7304609
:10128000D4E7D6467FE7634402384DE70646234657
:1012900008460FE7023E634430E700BF704700BFD7
:1012A0000E484FF0FF3380F83B3080F83C30014669
:1012B0004FF6FF7300F13B0C11F8012B82EA132269
:1012C00082EA121242EA032383EA023383EA4213D8
:1012D0006145A0F83B309BB2EED17047400600203C
:1012E0002DE9F04186B0002306460C469046019356
:1012F00006F080FC204B9A6942F040429A614CF221
:10130000FA321A6101230022CDE9022301A9012347
:1013100002A8CDE9046306F057FD28BBC4EBC6263E
:1013200006F1006605464FEAD808083E02E0A845E7
:1013300014D01D46F4E80223A7190020394606F010
:10134000A3FC6B1C0028F2D006F068FC39460B4861
:101350000CF0EEF9012006B0BDE8F08106F05EFC6D
:10136000002006B0BDE8F08106F058FC3146044884
:101370000CF0DEF9F4E700BF002002404804010849
:101380003404010870B5124EB6F83B40FFF788FFF1
:10139000B6F83B30A34201D1002070BD04253D22A8
:1013A00031467E20FFF79CFF044608B1013DF6D18F
:1013B000074E04253D2231467F20FFF791FF18B1EB
:1013C000013DF7D12043C4B2601CC0B270BD00BF64
:1013D0004006002010B5154C3622002120460CF0A6
:1013E0000FFB134A44F8062CE31F012100204FF0A5
:1013F0000002A07061F3430204F8071C6FF01B00A9
:101400000C2408214FF0230C9C715871DA7141248F
:10141000E72019727122F52183F80AC0DC7318766F
:1014200083F8251083F8322010BD00BF4706002046
:1014300017D94E3DF8B5394DC5F100646E1C05F164
:101440003D0E2B4604F57C341A5D03F8012F9E45B2
:10145000FAD133494FF6FF7201F13B0C11F8013B11
:1014600083EA122383EA131343EA022282EA033255
:1014700082EA4312614592B2F0D12A48B6F83B7035
:10148000264B801BC15C03F8011F9E45FAD12448FE
:101490004FF6FF7310F8011B81EA132181EA111145
:1014A00041EA032383EA013383EA411360459BB297
:1014B000F0D1B6F83B10994210F83B3C14D0012B08
:1014C00014D1974212D12B5D05F8013FAE45FAD1F8
:1014D000134D04243D2229467F20FFF701FFD0B1A0
:1014E000013CF7D10320F8BD012B07D0FFF772FFB5
:1014F000FFF748FF0128F5D80220F8BD97420AD02F
:10150000074D04243D2229467E20FFF7E9FE10B155
:10151000013CF7D1E6E70020F8BD00BF3F06002000
:101520004006002001F8030870B59D4E9D4C9E4D6D
:1015300030460CF065F921789C480CF0F9F8D4F8A5
:101540000100FFF701F80B46024699480CF0F0F84D
:10155000B4F8051097480CF0EBF8218996480CF088
:10156000E7F82A78A17A9548C2F3400201F0010118
:101570000CF0DEF82A78A17A9148C2F38302C1F315
:1015800043010CF0D5F86A78A17A8E488E4D02F0AE
:101590000102C1F340110CF0CBF8D4F80B00FEF7B8
:1015A000D3FF0B46024689480CF0C2F8E17B2A784B
:1015B000874801F00101C2F340020CF0B9F82A7823
:1015C000E17B8448C2F38302C1F343010CF0B0F81D
:1015D0006A78E17B804802F00102C1F340110CF00F
:1015E000A7F8AA7AE17B7D487D4D02F00102C1F3A4
:1015F00080110CF09DF82069FEF7A6FF02460B460D
:1016000078480CF095F86069FEF79EFF0B4602469D
:1016100075480CF08DF8217E2A78744801F001019C
:10162000C2F340020CF084F82A78217E7048C2F39D
:101630008302C1F343010CF07BF86A78217E6D4888
:1016400002F00102C1F340110CF072F8EA7C217E35
:10165000694802F00102C9090CF06AF8AA7A217EF1
:101660006648674D02F00102C1F380110CF060F88A
:10167000D4F81900FEF768FF02460B4661480CF0EB
:1016800057F8D4F82100FEF75FFF02460B465E488C
:101690000CF04EF8D4F81D00FEF756FF0B4602463C
:1016A0005A480CF045F894F825102A78584801F06B
:1016B0000101C2F340020CF03BF86A7894F825105F
:1016C000544802F00102C1F340110CF031F8EA7CF9
:1016D00094F82510504802F00102C9090CF028F8CE
:1016E000AA7A94F825104D484D4D02F00102C1F33D
:1016F00080110CF01DF8D4F82600FEF725FF0246F5
:101700000B4648480CF014F8D4F82E00FEF71CFFE6
:1017100002460B4644480CF00BF8D4F82A00FEF7BA
:1017200013FF0B46024641480CF002F894F83210C1
:101730002A783F4801F00101C2F340020BF0F8FFA4
:101740006A7894F832103B4802F00102C1F340116C
:101750000BF0EEFFAA7A94F83210374802F001023B
:10176000C1F380110BF0E4FFD4F83300FEF7ECFE78
:1017700002460B4631480BF0DBFFD4F83700FEF78A
:10178000E3FE02460B462E480BF0D2FFB4F83B10A6
:101790002C480BF0CDFF3046BDE870400CF030B85F
:1017A00064040108400600202C070020880401087A
:1017B000A0040108B8040108D0040108E8040108E5
:1017C000040501081C05010814070020380501085C
:1017D000540501087005010888050108A4050108E1
:1017E000F0060020BC050108D8050108F005010835
:1017F0000C06010824060108400601085C060108E1
:10180000CC0600207806010894060108B0060108FD
:10181000CC060108E80601080407010820070108B2
:10182000B40600203C0701085807010874070108A6
:1018300090070108AC070108C8070108E407010880
:10184000000801081C08010802480022012106F0D6
:1018500045BC00BF00040048704700BF704700BF90
:1018600010B5074C7F21204605F0D2FE0A2005F076
:101870005FFA20460349BDE81040052205F03ABE54
:10188000580500201C020020234A9FED247A11886D
:10189000538890880B44D188128903440B44134425
:1018A0009BB207EE903AF8EEE77A70B567EE877A6A
:1018B0001B4EFCEEE77AB6F8A83007EE103A17EEAA
:1018C000903A9BB207EE903AB8EEC77AF8EE677A94
:1018D00077EE677A17EE900AFEF736FE0CA3D3E98F
:1018E0000023FEF789FE0446B6F8CA000D46FEF74F
:1018F00019FE02460B4620462946FEF7A7FF094B74
:101900000022FEF7C3FCFFF76FF900EE100A70BD6E
:1019100033333333333311401C020020CDCC4C3EE3
:101920000075FF1F0000394010B54FEA400C86B02B
:1019300008461FFA8CF19C46022341F28834019339
:1019400005AB029400930123644607F025F828B9FB
:10195000BDF814302380012006B010BD002006B071
:1019600010BD00BF2DE9F043838CA3F17602012A5C
:1019700087B004D90027384607B0BDE8F08341F2AC
:10198000883202920D4600F1320259000123CDE95E
:101990000023044689B2806AD02206F0FDFF0028A9
:1019A000E8D194F83230582B01D0602BE2D1A18CD1
:1019B000012742F2107205AEB6230292B940019798
:1019C00000968DF81430A06A89B23B46E02206F0FA
:1019D000BDFE0028CED141F28838A18CA06A0096C5
:1019E00049000123CDE9017889B2F32206F0D4FF42
:1019F0009DF8143003F001030343DBB2002BECD15C
:101A0000A18CCDF808800227490000960197A06AB2
:101A100089B20123882206F0BFFF0028AAD1CDE9B0
:101A200001780096A18CBDF8143023804900A06A8B
:101A300089B201238A2206F0AFFF00289AD1CDE9AE
:101A400001780096A18CBDF8143063804900A06A2B
:101A500089B201238C2206F09FFF00288AD1CDE9AC
:101A600001780096A18CBDF81430A3804900A06ACB
:101A700089B201238E2206F08FFF00287FF47AAF0F
:101A8000CDE901780096A18CBDF81430E3804900BF
:101A9000A06A89B20123902206F07EFF00287FF41D
:101AA00069AFCDE901780096A18CBDF8143023818F
:101AB0004900A06A89B20123922206F06DFF002836
:101AC0007FF458AFCDE901780096A18CBDF81400E1
:101AD000608101239940A06A942289B206F05CFFDC
:101AE00000287FF447AFBDF81430A381A16AA08C11
:101AF00004F10E039622FFF717FF00283FF43AAFD8
:101B0000A16AA08C04F110039822FFF70DFF0028B2
:101B10003FF430AFA16AA08C04F112039A22FFF7C0
:101B200003FF00283FF426AFA16AA08C04F1140340
:101B30009C22FFF7F9FE00283FF41CAFA16AA08C9D
:101B400004F116039E22FFF7EFFE074600283FF43C
:101B500011AF94F83220A38CA06A602A3DD05B00BC
:101B6000009699B26B786A799B0043EA42138DF82C
:101B7000143042F210720123CDE90132F52206F051
:101B8000E5FD00287FF4F6AE95F80080AB78EA78A2
:101B9000B8F1010F08BF28704FEA830343EA4213EC
:101BA00094F8322008BF804648EA0308602AA38CD4
:101BB000A06A5FFA88F87AD05B0042F2107299B29C
:101BC0000123CDE901320096F4228DF8148006F04D
:101BD000BDFD00287FF4CEAECDE65B004FF00108DE
:101BE00099B241F2883904F118030093CDE90189D3
:101BF0004346A12206F0D0FE00287FF4BBAECDF80C
:101C000008900096A18C0223019301FA08F1A06AC2
:101C100089B24346E12206F0BFFE00287FF4AAAE57
:101C2000CDE90189BDF81430A18C638304F11C0354
:101C3000009301FA08F1A06A89B24346E32206F054
:101C4000ABFE00287FF496AEA16AA08C0DF11203C2
:101C5000E422FFF769FE00283FF48CAEA16AA08C55
:101C60003346E522FFF760FE00283FF483AECDE95E
:101C70000189A18C04F12202434600929940A06A96
:101C800089B2E72206F088FE00287FF473AEBDF823
:101C90001430BDF81220A06A1B092384130103F439
:101CA0007F63C2F303221343E383A38C57E75B00F4
:101CB00099B22B798DF8143042F210720123CDE9DC
:101CC00001320096F22206F041FD00287FF452AE68
:101CD000A06AA38C70E700BF30B541F2883287B0AC
:101CE0000125818CCDE901520DF116030093A94025
:101CF000044689B2806A2B46F42206F04DFE10B1EC
:101D0000002007B030BD9DF81620A18CA06A42F2D9
:101D1000107322F003022A43A94002930DF1170326
:101D2000CDE900358DF816208DF8172089B22B46A5
:101D3000F42206F00BFD0028E2D1284607B030BDA2
:101D400010B5818C806A86B001230DF1170241F233
:101D5000883499400092CDE9013489B2F32206F02B
:101D60001BFE10B1002006B010BD9DF81700C0F397
:101D7000C00006B010BD00BF2DE9F04F044690F83A
:101D800032008FB06028884605921E4600F05381CD
:101D90000BB1002333600623002601930CAB0093A4
:101DA000A18C41F28832012302929940A06A89B243
:101DB000F72206F0F1FD002840F039819DF834301B
:101DC0009DF833209DF83510B4F90AC09DF83070A5
:101DD00006971B0143EA0233228843EA1111C2EB42
:101DE000131303FB03F5B4F904302D1303FB05F5BE
:101DF0005200B4F90230C2EBD10203FB02F2AD1380
:101E000005EBE22505EB850909F180094FEA29294F
:101E1000E188B4F90820C8F800909DF83180CDF829
:101E20001C809DF83280CDF82080B4F91080CDF868
:101E30002480B4F90E80CDF82880A5F5FA3EB4F9D7
:101E40000C80CDF82C808EFB0E894FEAEC7B0CFBCE
:101E500009FA82FB0E2308FB0BAAACFB08CBD34488
:101E60001B034FEA1C2C43EA12534CEA0B6C12037F
:101E70001CEB020C43EB2B2303F50043ACFB01C22C
:101E800001FB0321CB174A1053EA610100F08A805D
:101E90000899079F090941EA0711069F41EA07319E
:101EA0000A9F87FB0EEC099F4FEA4C4C07FB09F990
:101EB0004FEAE77A4CEADE3C08FB0A9A4FEA4E4EBC
:101EC000A7FB08981EEB090EC1F58011C2444AEB2E
:101ED0000C0A0B9F10EB0E0001F0004E4EEA510E63
:101EE000C907B1EB00080AEBC70A6EEB0A0E18EB44
:101EF000080C4EEB0E011CEB080C4EEB01018801A7
:101F00004FEA8C1940EA9C601CEB090C41EB000184
:101F1000890041EA9C714FEA8C0C1CEB080C4EEBDB
:101F200001014FEA8C00890010EB080041EA9C7126
:101F30004EEB0101FEF7B6FFB4F9162084464FEAD6
:101F40005C3E48134EEAC14ED31702FB00F80EFB6D
:101F50000389A2FB0E2802FB00F0C8440EFB080018
:101F6000A2FB0E2E8644520EB4F9143042EACE1271
:101F700012EB0C0041EB6E6203FB01F14FEAE37ED2
:101F80000EFB0C11A3FB0C3C6144DB0C43EA413318
:101F9000C01842EBE142B4F91230000A40EA026094
:101FA00000EB0310059B1860002E3CD0BDF83630C6
:101FB000B4F91E2094F922105BBA9BB21205C2EB51
:101FC0008332B4F92030A5F5963505FB1322237F23
:101FD00005FB03F3DB1205FB01F1891203F5004356
:101FE00001FB03F39B12B4F91A1003F5001301FB74
:101FF00003F302F5804203F50053D2139B1302FB57
:1020000003F3DA13217E02FB02F2D21101FB02F28A
:10201000A3EB221323EAE373B3F1C85FA8BF4FF029
:10202000C8531B13336001200FB0BDE8F08F0020B0
:102030000FB0BDE8F08F002B3FF4ADAE0823ACE647
:1020400070B50D4684B0164613B31C4602AA03AB06
:1020500001A9FFF791FE10B9002004B070BDDDEDBD
:10206000017A9FED177AF8EEE77AC7EE876A9DED61
:10207000027ADDED037AC5ED006ABBEECC7AFBEEA9
:10208000CB7A86ED007AC4ED007A012004B070BDF1
:1020900002AA01A9FFF770FE0028DDD0DDED017A6C
:1020A000DFED076AF8EEE77A87EEA67ADDED027AD1
:1020B00085ED007AFBEECC7AC6ED007AE5E700BF4D
:1020C0000000C84270B51548154E0BF031FB0525D0
:1020D00040F2DC530322D621304606F07BFD044655
:1020E000322008F087FC4FF4FA7044B108F082FC0B
:1020F000013DEDD10B480BF083FB284670BD0A482B
:102100000BF07EFBD62380222E21054804F0F6F842
:10211000012008F06FFC012070BD00BF30080108ED
:1021200098040020500801084808010800B583B051
:10213000D6230DF106023B21044804F0C9F8BDF88E
:10214000060004F059F903B05DF804FB9804002080
:1021500000B583B0D6230DF106023D21044804F0FA
:10216000B7F8BDF8060004F047F903B05DF804FBCA
:102170009804002000B583B0D6230DF10602372164
:10218000044804F0A5F8BDF8060004F035F903B0E2
:102190005DF804FB9804002000B583B0D6230DF150
:1021A00006023921044804F093F8BDF8060004F053
:1021B00023F903B05DF804FB9804002000B583B058
:1021C000D6230DF106023121044804F081F8BDF850
:1021D000060004F011F903B05DF804FB9804002038
:1021E00000B583B0D6230DF106023321044804F074
:1021F0006FF8BDF8060004F0FFF803B05DF804FBCB
:102200009804002000B587B001230DF117024FF4A8
:10221000FA71CDE901310092D6210022084806F07A
:10222000BBFB9DF8173003F03F03C3EB431203EBF6
:102230008200400000F6C41080B207B05DF804FBD5
:102240009804002000B583B0D6230DF106020121C9
:10225000064804F03DF8BDF8060004F0CDF800EBA8
:102260008000400080B203B05DF804FB98040020B9
:1022700000B583B0D6230DF106020321064804F011
:1022800027F8BDF8060004F0B7F800EB8000400026
:1022900080B203B05DF804FB980400200246D62308
:1022A000024802F03F02002104F028B89804002000
:1022B000074B10B5A3FB0030C00804F09DF8BDE843
:1022C00010400246D6230348012104F02BB800BF7A
:1022D000CDCCCCCC98040020074B10B5A3FB00302C
:1022E000C00804F089F8BDE810400246D623034830
:1022F000032104F017B800BFCDCCCCCC980400204B
:102300000246D6230148052103F0F8BF98040020B7
:1023100010B504F071F8BDE810400246D62302481B
:10232000062103F0FFBF00BF980400200246D62319
:102330000148102103F0E2BF980400200246D62392
:102340000148182103F0DABF9804002010B50C4CA6
:1023500082B0D6230DF107021021204603F0A4FF1E
:102360000DF107000122032103F0F2FF9DF8072081
:10237000D6231021204603F0C1FF02B010BD00BFDC
:102380009804002030B50C4D83B0D62304460DF1DF
:1023900007021521284603F087FF22460DF10700AA
:1023A000002103F0D5FF9DF80720D62315212846EC
:1023B00003F0A4FF03B030BD9804002010B5531CF7
:1023C0001446034892B208F089F9204610BD00BFB8
:1023D0006C0300200B4B984210B5044603D00A4B07
:1023E0009C4207D010BD0949402208F0B7FA064BBD
:1023F0009C42F7D120460649BDE81040012208F072
:10240000ADBA00BF6C030020E8020020700200207B
:102410006C0200200B4B984210B5044603D00A4BC7
:102420009C4207D010BD0949402208F097FA064B9C
:102430009C42F7D120460649BDE81040012208F031
:102440008DBA00BF6C030020E8020020700200205B
:102450006C020020F0B5124E3378DBB1114C3746D8
:1024600045428446BE4605E09CF80130A3B11EF803
:10247000013F8C46E25C614602F00302012A11F83A
:10248000012B08BF20339A42EED017F8013F0135E7
:10249000002BE6D11846F0BD654401357019F0BD3A
:1024A0002C020020B11D0108F8B50778202F08BFC5
:1024B0004778064608BF0136F7B13D46002404E0E0
:1024C00016F8015F0CEB40043DB1A5F1300C5FFA4A
:1024D0008CF0092804EB8400F2D92D2F00D164423E
:1024E000944201DB9C4204DD04480BF089F930463C
:1024F000F8BD0C603046F8BD3C46F1E75C080108C9
:1025000030B52DED028B0378202B83B00446B0EE5E
:10251000408AF0EE608A0D4603D114F8013F202B6B
:10252000FBD001A920460AF071F9B4EEC80AF1EE19
:1025300010FA04DBB4EEE80AF1EE10FA07D9074806
:102540000BF05EF9204603B0BDEC028B30BD204697
:1025500085ED000A03B0BDEC028B30BD5C080108BC
:1025600000B59FED357B83B0354B36488DED007B54
:1025700000220BF0DDF834480BF0DAF8334B1B780F
:10258000032B06D8DFE803F05450024C30480BF020
:1025900037F9FFF779F910EE100AFDF7D5FF02467B
:1025A0000B462C480BF0C4F8FFF7C0FD01462A4843
:1025B0000BF0BEF8FFF7DEFD014628480BF0B8F837
:1025C000FFF7EAFD014626480BF0B2F8FFF7C0FD21
:1025D000014624480BF0ACF8FFF7F0FD0146224815
:1025E0000BF0A6F8FFF7FCFD014620480BF0A0F821
:1025F000FFF708FE01461E480BF09AF8FFF722FE8F
:1026000001461C480BF094F8FFF732FE01461A48C9
:102610000BF08EF8194803B05DF804EB0BF0F0B83E
:1026200017480BF0EDF8B4E716480BF0E9F8B0E7FF
:1026300015480BF0E5F8ACE7000000000000E03FB3
:102640000000F03F680801088C0801083B070020E3
:10265000A8080108CC080108E8080108F8080108E2
:1026600008090108180901082C0901083C0901089A
:10267000500901087409010898090108A8190108FE
:10268000BC080108FC1B0108A008010800000000AC
:1026900010B59FED297B82B08DED007B284B29483A
:1026A000294C00220BF044F828480BF0A9F82848E0
:1026B0000BF0A6F827480BF0A3F827480BF0A0F87A
:1026C00026480BF09DF826480BF09AF825480BF0A9
:1026D00097F825480BF094F824480BF091F8204621
:1026E0000BF08EF822480BF08BF822480BF088F89C
:1026F00021480BF085F821480BF082F820480BF0B8
:102700007FF820460BF07CF81E480BF079F81E4845
:102710000BF076F81D480BF073F820460BF070F8BC
:102720001B480BF06DF8204602B0BDE810400BF0DE
:1027300067B800BFAFF30080000000000000E03F7A
:102740000000F03F68080108A8190108BC09010849
:10275000CC090108040A0108500A0108A40A01086A
:10276000F80A0108440B0108940B0108D00B01087A
:10277000080C01081C0C0108400C01086C0C010835
:10278000900C0108B40C0108C40C01080C0D0108E0
:10279000500D01082DE9F043794C2DED028B236893
:1027A0003F2B83B003D877495A1CC85422600A28AB
:1027B00004D003B0BDEC028BBDE8F0832368714DFB
:1027C000581E00212A5C0D2A18BF1846C0F140028D
:1027D00028440BF015F900236B482360FFF73AFEFD
:1027E0006B1C834200F0AA806848FFF733FE2F1D60
:1027F000874200F0A3806648FFF72CFEAE1D86429C
:1028000000F0AD806348FFF725FE05F1070880451D
:1028100000F0AC806048FFF71DFE05F10B04844218
:1028200000F093805D48FFF715FE844200F0BD8103
:102830005B48FFF70FFE05F10A09814500F0BC81F6
:102840005848FFF707FE814500F0C1815648FFF761
:1028500001FE05F10C03834200F0BE815348FFF7EF
:10286000F9FD844200F0C7815148FFF7F3FD86422D
:1028700000F0EF814F48FFF7EDFD804500F0F38158
:102880004D48FFF7E7FD864200F0F0814B48FFF727
:10289000E1FD804500F00C824948FFF7DBFD8742EF
:1028A00000F0AE804748FFF7D5FD474B98420546FC
:1028B0007FF47FAF4548FFF7CDFD00283FF479AFA7
:1028C000A0427FF476AF42490BF0B4F806460028E8
:1028D00040F019833F4920460BF0ACF8002840F047
:1028E000A7843D4920460BF0A5F800283FF461AFCE
:1028F0000B353A4928460BF09DF80446002840F075
:102900000185374928460BF095F800283FF451AF70
:10291000344A354B35480121117002221A700AF0F1
:102920006FFF334B1C8002F073FE324B188803B0EC
:10293000BDEC028BBDE8F04302F0CEBD03B0BDECB0
:10294000028BBDE8F043FFF7A3BE2B480AF058FF07
:1029500003B0BDEC028BBDE8F043FEF73BBD03B016
:10296000BDEC028BBDE8F043FFF7FABD2348A0227F
:10297000382103B0BDEC028BBDE8F04303F006BD87
:10298000280200202C020020640D0108680D0108B7
:10299000700D0108780D0108800D0108A80D0108CF
:1029A000B40D0108E80D0108340E0108540E0108A9
:1029B000740E01087C0E0108840E01088C0E0108BB
:1029C000940E010858150108310200206015010815
:1029D0006815010890150108B8150108C01501080F
:1029E000F01501080800002039060020C415010870
:1029F000B00200203A0600208C0D0108440400209B
:102A0000AF48FFF727FD0546002840F03681AD4866
:102A1000FFF720FD002840F09B81AB48FFF71AFD2F
:102A200010B1A04200F06283A848FFF713FD10B177
:102A3000484500F0BF82A648FFF70CFD002800F0D3
:102A40009F81A0427FF4B5AEA248FFF703FD70B1AD
:102A5000A149A24C0B78227EA14842F0010243F02A
:102A6000020322760B700AF0CBFEFEF78BFC9D482A
:102A7000FFF7F0FC70B19949974B0C7E1A789A4891
:102A80006FF341026FF300040C761A700AF0B8FE7F
:102A9000FEF778FC9548FFF7DDFCF0B10523002236
:102AA00001A94FF0FF3492480194FFF7FDFC8B49D8
:102AB000894B019C087E1A7804F00F0565F34400E9
:102AC00065F385020876E0B21A7001F00BFF21462B
:102AD00088480AF02DFEFEF755FC8748FFF7BAFC40
:102AE000044618B1854B984200F01C848448FFF7D7
:102AF000B1FC044618B1834B984200F05B848248D5
:102B0000FFF7A8FC044600283FF453AE7F4B9842E1
:102B10007FF44FAE7E490AF08DFFB8B1F2EE040AA1
:102B2000BAEE040A01A9E01DFFF7EAFC6A4B6B4903
:102B30000198C3F80F00C1F81D00FDF705FD02461E
:102B40000B4674480AF0F4FDFEF71CFC72496F480E
:102B50000AF070FF70B16049604C8B7A227E6F483A
:102B600042F0400243F0010322768B720AF048FEE5
:102B7000FEF708FC6A4965480AF05CFF00283FF44C
:102B800018AE5649544B0C7E9A7A66486FF38614F9
:102B90006FF300020C769A720AF032FE03B0BDECBD
:102BA000028BBDE8F043FEF7EDBB03B0BDEC028B3A
:102BB000BDE8F043FEF7B8BCFEF73CFC01465A48BE
:102BC00003B0BDEC028BBDE8F0430AF0B1BDFEF7E7
:102BD000D9FB01465548F3E701A943F698230022A3
:102BE00005F10D00FFF760FC019B3C4A5048A2F83C
:102BF000053099B2E4E72B7B4E48202B03D110F827
:102C0000013F202BFBD001A909F000FEFAEE047A67
:102C1000B4EEE70AF1EE10FAB0EE408A40DBF2EED5
:102C2000047AB4EEE70AF1EE10FA39D810EE100A81
:102C3000FDF78AFC02460B46284C3F4818EE101A56
:102C4000C4F8011003B0BDEC028BBDE8F0430AF0FC
:102C50006FBD3A480122012103B0BDEC028BBDE8F3
:102C6000F04305F03BBA35480022F4E703B0BDEC71
:102C7000028BBDE8F043FEF7EFBD04224FF4616321
:102C80004FF0FF340DEB02010194FFF70DFC019BA7
:102C9000032B7FF78EAD2A4A2A48138099B28FE71B
:102CA00029489FED2A8A0AF0ABFD00220023C3E7E2
:102CB00003B0BDEC028BBDE8F043FEF7CFBD00BF13
:102CC0009C0E0108C00E0108040F01080010010845
:102CD000281101080C0F0108F00600204006002012
:102CE000301101082C0F0108481101084C0F010890
:102CF0003C02002060110108740F0108430200200B
:102D0000E01101083D020020C01001083B02002034
:102D1000840F010850120108B00F01087012010859
:102D2000D80F010894120108C00D0108F40D010824
:102D3000440E010838020020600E0108000400481B
:102D40003C060020A80E01085C08010800000000F5
:102D50004FF0FF3402232A4601A90194FFF7A4FB98
:102D6000019C002C40F35A82012C00F07C82022C42
:102D700000F0D282704A714B002111801C7018E55E
:102D80006F48FFF767FB10B1A04200F05A836D480F
:102D9000FFF760FB00283FF485ADA0427FF482ADD1
:102DA0006948FFF757FB80B16848694990F83220BD
:102DB0000B7842F0010243F0020380F832206548AC
:102DC0000B700AF01DFDFEF7DDFA6348FFF742FBCA
:102DD00080B15E495E4B91F832001A786FF30000C3
:102DE0006FF3410281F832005C481A700AF008FD66
:102DF000FEF7C8FA5A48FFF72DFB50B3082300220C
:102E000001A94FF0FF3557480195FFF74DFB4F4A99
:102E1000019D92F832104E4B05F00F0060F3440113
:102E200082F832101A7860F385021A7001F036F9D0
:102E30004D4A0346DBB213704C4A002010704C4AD6
:102E4000137000F0B1FF29464A480AF071FCFEF702
:102E500099FA4948FFF7FEFA054618B1474B9842E0
:102E600000F026844648FFF7F5FA054600283FF4AF
:102E700019AD444B98427FF415AD43490AF0DAFD91
:102E8000B8B1DFED420A9FED420A01A9E81DFFF744
:102E900037FB2F4B2D490198C3F80F00C1F83700BD
:102EA000FDF752FB02460B463A480AF041FCFEF79A
:102EB00069FA394933480AF0BDFD80B12449234CF1
:102EC0008B7A94F83220354842F0400243F00103F7
:102ED00084F832208B720AF093FCFEF753FA3049E3
:102EE00028480AF0A7FD00283FF463AC1749184BA7
:102EF00091F832409A7A2B486FF386146FF30002F0
:102F000081F8324047E601A94FF4FA7301224FF0ED
:102F1000FF3405F10A000194FFF7C6FA224C01992B
:102F2000224A064B21800025157089B201222048D3
:102F30001A700AF0FDFBF8E4B00200203906002008
:102F4000B81201082C1401080C0F010840060020DB
:102F5000B4060020341401082C0F01084C14010899
:102F60004C0F01083C0200203206002035060020EC
:102F70003406002064140108740F01084302002085
:102F8000E01101083D020020840F01080000FA430F
:102F90000000FAC3F0140108B00F01081015010871
:102FA000D80F0108341501080A000020080000208D
:102FB00070150108AE48FFF74DFA70B1AD48AE4943
:102FC000C27B0B7842F0010243F00203C273AB48AC
:102FD0000B700AF015FCFEF7D5F9A948FFF73AFA8D
:102FE00070B1A449A44BC87B1A786FF300006FF34B
:102FF0004102C873A3481A700AF002FCFEF7C2F936
:10300000A148FFF727FAE0B10123002201A94FF000
:10301000FF359E480195FFF747FA964A0199D57BFF
:10302000954B01F00F0060F34405D5731A78984D65
:1030300060F3850297481A7029700AF079FBFEF751
:10304000A1F99548FFF706FA054618B1934B984247
:1030500000F0E8829248FFF7FDF9054600283FF4AA
:10306000EAAC904B98427FF4E6AC8F490AF0E2FC60
:10307000B0B1F2EE040ABAEE040A01A9E81DFFF7A6
:103080003FFA7D4B7B490198C3F80F004861FDF77B
:103090005BFA02460B4685480AF04AFBFEF772F9D6
:1030A000834980480AF0C6FC70B17349714C8B7A31
:1030B000E27B804842F0400243F00103E2738B72EE
:1030C0000AF09EFBFEF75EF97B4976480AF0B2FCF7
:1030D00000283FF46EAB6749674BCC7B9A7A774800
:1030E0006FF386146FF30002CC7354E56048FFF76A
:1030F000B1F970B15F49724A8B7A724843F00103AB
:103100008B72137843F0020313700AF079FBFEF719
:1031100039F95B48FFF79EF970B1564A684B917ACE
:1031200069486FF3000191721A786FF341021A70C7
:103130000AF066FBFEF726F95348FFF78BF9F8B162
:103140004FF0FF300323002201A901905F48FFF7F1
:10315000ABF948495A4B019D8E7A1A7805F00F0059
:1031600060F3850260F344061A708E7203F000FA71
:10317000574B2946188057480AF0DAFAFEF702F949
:103180004548FFF767F9054600283FF44DAC524B20
:1031900098427FF449AC44490AF04CFCB8B1F2EED5
:1031A000040ABAEE040A01A9E81DFFF7A9F9444B85
:1031B00030490198C3F80600C1F80B00FDF7C4F9C7
:1031C00002460B4645480AF0B3FAFEF7DBF83849E9
:1031D00041480AF02FFC70B13949264C4B78A27A4D
:1031E0003F4842F0200243F00103A2724B700AF004
:1031F00007FBFEF7C7F8304937480AF01BFC0028E8
:103200003FF4D7AA1B492E4B8C7A5A7835486FF376
:1032100045146FF300028C725A70BDE4324B334890
:103220001C7003B0BDEC028BBDE8F0430AF0E8BAB5
:103230004FF0FF304FF4FA73012201A9019005F11C
:103240000A00FFF731F9019929482A4A264B0180E3
:1032500016702948022289B21A700AF069FA274BBF
:103260001E80FFF760BB26480AF0CAFA82E500BF5D
:103270000C0F010840060020140700200810010868
:103280002C0F0108201001084C0F01083B02002000
:103290003006002038100108740F01084202002097
:1032A000C01001083A020020840F0108C81001086C
:1032B000B00F0108E8100108D80F01080811010833
:1032C0002C070020140F0108340F01083C020020D5
:1032D00036060020540F0108430200208C0F01081D
:1032E000B40F0108DC0F010839060020F40E0108B4
:1032F0000A0000200800002098150108B0020020F4
:10330000CC0E0108A649A74AA74801230B701370E9
:103310000AF076FAFFF709BBA4480AF009FA02F0AE
:1033200077F927E5A2490AF085FBB8B1F2EE040A65
:10333000BAEE040A01A9E01DFFF7E2F89D4B9E4991
:103340000198C3F80600C1F81900FDF7FDF8024620
:103350000B469A480AF0ECF9FEF714F89849994898
:103360000AF068FB70B19349934C4B78227E9648E3
:1033700042F0200243F0010322764B700AF040FA3B
:10338000FEF700F891498F480AF054FB00283FF4FB
:10339000ADAB8949874B0C7E5A788D486FF300029C
:1033A0006FF345140C765A700AF02AFAFDF7EAFF1B
:1033B000FFF79CBB7E490AF03DFBB0B1DFED850A0B
:1033C0009FED850A01A9E01DFFF79AF8794B7A492C
:1033D00001989861C1F82100FDF7B6F802460B4646
:1033E0007E480AF0A5F9FDF7CDFF75497C480AF043
:1033F00021FB70B16F49704CCB7C227E794842F042
:10340000800243F001032276CB740AF0F9F9FDF74C
:10341000B9FF6E4972480AF00DFB00283FF46FAB0C
:103420006549644B0C7EDA7C6F486FF300026FF3E2
:10343000C7140C76DA740AF0E3F9FDF7A3FFFFF77F
:103440005EBB6A48FFF706F880B15B48684990F8B0
:1034500025200B7842F0010243F0020380F825207A
:1034600064480B700AF0CCF9FDF78CFF6248FEF758
:10347000F1FF80B150495E4B91F825001A786FF347
:1034800000006FF3410281F825005C481A700AF0D1
:10349000B7F9FDF777FF5A48FEF7DCFFE0B10A23E2
:1034A000002201A94FF0FF3556480195FEF7FCFFB9
:1034B000414A019892F825504D4B00F00F0161F3FD
:1034C000440582F825501A78C0B261F385021A705B
:1034D00003F004FBFDF756FF4B48FEF7BBFF054624
:1034E00018B1384B984200F02F814848FEF7B2FFE0
:1034F000054618B13A4B984200F071814448FEF7F6
:10350000A9FF054600283FF442AC424B98427FF4A5
:103510003EAC27490AF08EFAB8B1F2EE040ABAEED0
:10352000040A01A9E81DFEF7EBFF314B224901987F
:10353000C3F80F00C1F82A00FDF706F802460B4653
:1035400035480AF0F5F8FDF71DFF1D4931480AF02E
:1035500071FA80B12649184C8B7A94F825202F48AF
:1035600042F0400243F0010384F825208B720AF0F8
:1035700047F9FDF707FF154926480AF05BFA0028CE
:103580003FF417A90C491A4B91F825409A7A244820
:103590006FF386146FF3000281F82540FFF7FBBA42
:1035A0000800002039060020C4150108E00E0108BB
:1035B000840F0108F0060020400600207411010865
:1035C000B00F01084302002098110108D80F01082C
:1035D000BC1101080000FA430000FAC3E811010819
:1035E0003D020020081201082C1201080C0F0108EE
:1035F000CC060020C01201082C0F0108D8120108C7
:103600004C0F01083C020020740F0108E011010872
:10361000C01001083B020020C4130108E413010894
:103620000814010893490AF005FAB0B1F2EE040A51
:10363000BAEE040A01A9E81DFEF762FF8E4B8F491E
:1036400001981861C1F80600FCF77EFF02460B46A0
:103650008B480AF06DF8FDF795FE8A498A480AF012
:10366000E9F970B184488549C27B4B7842F0200269
:1036700043F00103C27385484B700AF0C1F8FDF7AF
:1036800081FE834980480AF0D5F900283FF4E2AC76
:1036900079497A4BC87B5A786FF345106FF3000273
:1036A000C8737C485A700AF0ABF8FDF76BFED1E4A2
:1036B00070490AF0BFF9B8B1F2EE040ABAEE040A92
:1036C00001A9E81DFEF71CFF6B4B73490198C3F875
:1036D0003300C1F80600FCF737FF02460B466F487F
:1036E0000AF026F8FDF74EFE66496D480AF0A2F989
:1036F00080B16148684990F832204B7842F020024E
:1037000043F0010380F8322066484B700AF078F8E5
:10371000FDF738FE5E4962480AF08CF900283FF454
:10372000A1AB55495C4B91F832005A786FF34510C4
:103730006FF3000281F832005B485A700AF060F8BB
:10374000FDF720FEFFF78EBB4A490AF073F9B8B1C6
:10375000F2EE040ABAEE040A01A9E81DFEF7D0FE53
:10376000454B52490198C3F82600C1F80600FCF702
:10377000EBFE02460B464E4809F0DAFFFDF702FE6B
:10378000404947480AF056F980B13B48474990F80C
:1037900025204B7842F0200243F0010380F82520D9
:1037A00044484B700AF02CF8FDF7ECFD38493C48D2
:1037B0000AF040F900283FF498AE2F493B4B91F8AE
:1037C00025005A786FF345106FF3000281F8250049
:1037D00039485A700AF014F8FDF7D4FD85E62549FA
:1037E0000AF028F9B0B1DFED350A9FED350A01A9DD
:1037F000E81DFEF785FE204B2C490198C3F82E00EA
:103800008861FCF7A1FE02460B462E4809F090FFA6
:10381000FDF7B8FD1B492C480AF00CF980B1164899
:10382000224990F82520CB7C42F0800243F001032E
:1038300080F825202548CB7409F0E2FFFDF7A2FDB2
:10384000134921480AF0F6F800283FF457AE0A4918
:10385000164B91F82500DA7C6FF3C7106FF3000266
:1038600081F825001A48DA7409F0CAFFFDF78AFDCD
:1038700044E600BF840F0108400600201407002022
:1038800058100108B00F010842020020781001080A
:10389000D80F01089C100108B40600208414010808
:1038A00043020020A8140108CC140108CC06002013
:1038B000F012010814130108381301080000FA433C
:1038C0000000FAC35C1301083D0200207C130108CC
:1038D000A0130108154AB2F85A302DE9F041B2F8A8
:1038E0005840134E9BB2E41A32884034A41A634203
:1038F00003F03F0304F03F0458BF5C42A4B294B10C
:1039000000250C4FA84600E03288B85C531C9BB2DF
:103910003F2B05F10105338088BFA6F80080FEF734
:1039200039FFA542F0D1BDE8F08100BF6C03002053
:103930006E0200207002002010B582B002F060FD1F
:10394000124896230322EE2105F044F90446642030
:1039500007F050F8B4B9EE230C480DF107020D2121
:1039600002F0A2FC9DF80730102B05D0084809F0A2
:1039700047FF002002B010BD064809F041FF0120BA
:1039800002B010BD044809F03BFFF2E744040020F8
:1039900000160108F41501080C16010800B58BB0DB
:1039A00002F02EFD05ABFA211222CDE90121009390
:1039B00010220123EE21354804F0EEFF9DF815207A
:1039C0009DF814309DF81600110941EA0311120206
:1039D000DB0902F470622E4B18BFA1F58051104331
:1039E0004908D20A9DF8182019600CBF5860A0F54C
:1039F00080519DF8170018BF596012019DF81910E9
:103A000042EA003242EA1110D20C18BFA0F5801031
:103A10009860BDF81A20090452BA01F4702192B2DC
:103A20000A43C90C18BFA2F58012DA60BDF81C2049
:103A300052BA91B2120448BFA1F580311961BDF8A4
:103A40001E2052BA91B2100448BFA1F580315961CD
:103A5000BDF8202052BA91B2120448BFA1F58031BE
:103A60009961BDF8222052BA91B2100448BFA1F565
:103A70008031D961BDF8242052BA91B2120448BFF6
:103A8000A1F5803119620BB05DF804FB44040020FD
:103A9000BC0200202DE9F041134F86B001240DF146
:103AA00017054FF0FA08064602F0AAFC2346CDE9B6
:103AB000014800950922EE21384604F06DFF324698
:103AC0002146284602F044FC23460922EE21CDE996
:103AD00001480095384604F039FE204606F08AFF7A
:103AE00006B0BDE8F08100BF440400202DE9F0419C
:103AF000134F86B001240DF117054FF0FA08064662
:103B000002F07EFC2346CDE901480095EE21092212
:103B1000384604F041FF32462846F02102F02EFCE0
:103B200023460922EE21CDE901480095384604F0EC
:103B30000DFE204606F05EFF06B0BDE8F08100BF36
:103B40004404002070B586B001240DF11705FA2653
:103B500002F056FC2346CDE9014607220095EE21EE
:103B6000114804F019FF0DF1160328220093CDE946
:103B700001462346EE210C4804F00EFF9DF9163055
:103B8000002BACBF002222462846072102F0E0FBB2
:103B90000123FA22CDE9013200950722EE210248E5
:103BA00004F0D4FD06B070BD4404002070B586B0AA
:103BB00004460D460DF1170602F022FC0123FA22FD
:103BC000CDE90132254400960722EE2135488DF8D3
:103BD000175004F0BBFD072C58D8DFE804F0253956
:103BE0003E43484D5204304B4FF4FF121A60FA2204
:103BF0000123CDE901322B4800960922EE2104F081
:103C0000CBFE01220321304602F0A2FB0123FA2160
:103C1000CDE901310922EE210096224804F096FDFB
:103C2000FFF790FF06B070BD1F4B4FF400221A60E3
:103C30000123FA22CDE9013200960922EE2119482A
:103C400004F0AAFE00220321304602F081FBDDE7EA
:103C5000154B4FF4C0121A60EAE7134B4FF4601291
:103C60001A60E5E7104B4FF4F0021A60E0E70E4BE4
:103C70004FF478321A60BAE70B4B4FF4FC221A600B
:103C8000B5E7094B4FF47E221A60B0E70123FA2210
:103C9000CDE9013200960922EE21024804F07CFEB3
:103CA000AFE700BF44040020B802002070B586B022
:103CB00004460D460DF1170602F0A2FB0123FA227D
:103CC000CDE90132254400960622EE2134488DF8D4
:103CD000175004F03BFD072C56D8DFE804F02337DB
:103CE0003C41464B50042F4B4FF4FF121A60FA220E
:103CF0000123CDE901322A4800960922EE2104F081
:103D00004BFE01220221304602F022FB0123FA225F
:103D1000CDE9013200960922EE21214804F016FD7A
:103D200006B070BD1F4B4FF400221A600123FA2227
:103D3000CDE9013200960922EE21194804F02CFE4B
:103D400000220221304602F003FBDFE7154B4FF45F
:103D5000C0121A60EAE7134B4FF460121A60E5E7ED
:103D6000104B4FF4F0021A60E0E70E4B4FF478323C
:103D70001A60BCE70B4B4FF4FC221A60B7E7094B03
:103D80004FF47E221A60B2E70123FA22CDE9013214
:103D900000960922EE21024804F0FEFDB1E700BFC3
:103DA00044040020B4020020F0B587B00124054689
:103DB000FA2702F025FB0DF11606A5238DF8163023
:103DC000CDE901472B48009623460E22EE2104F050
:103DD000BDFCC8B128460021FFF7E8FE02F010FB49
:103DE00001230DF11702FA21CDE9013102240092DD
:103DF000EE2108221F488DF8174004F0A7FC20464A
:103E000006F0F8FD07B0F0BD96238DF81630CDE929
:103E100001471848009623460F22EE2104F096FC35
:103E20000028D7D102238DF81630CDE9014711487B
:103E3000009623466222EE2104F088FC0028C9D1B6
:103E40008DF81600CDE901470A48009623460E2258
:103E5000EE2104F07BFC0028BCD18DF81600CDE9E2
:103E60000147009623460F22EE21024804F06EFC23
:103E7000B0E700BF44040020102303FA00F0143020
:103E8000704700BF30B50D4687B00446FFF786FD8A
:103E90002846FFF72BFE2046FFF7FCFD02F0B0FAA4
:103EA00001230DF11702FA21CDE901310092EE2133
:103EB0000822002404488DF8174004F047FC022033
:103EC00006F098FD07B030BD4404002010B5002175
:103ED00086B0FFF76BFE02F093FA01230DF1170293
:103EE000FA21CDE9013102240092EE210822054891
:103EF0008DF8174004F02AFC204606F07BFD06B042
:103F000010BD00BF44040020064B93ED017AD3EDB1
:103F1000007AB8EEC77AF8EEE77AE7EE007AB0EE0C
:103F2000670A7047BC02002000B5002187B0FFF788
:103F3000BDFE02F065FA01230DF11702FA21CDE969
:103F400001310092EE21082205488DF8173004F067
:103F5000FDFB022006F04EFD07B05DF804FB00BF3C
:103F60004404002000B587B002F04AFA032205ABF2
:103F7000FA21CDE901210093EE210123104804F03C
:103F80000BFDBDF815309DF814205BBA120412FA2F
:103F900083F3D20D0B4AD2ED007A18BF03F17F43B1
:103FA00007EE103AF8EEE77AF7EE006AB8EEC70AC5
:103FB00086EEA77A27EE000A07B05DF804FB00BF83
:103FC00044040020B802002000B52DED028B87B01C
:103FD000B0EE408A02F014FA05ABFA210322CDE9D3
:103FE0000121009300220123EE21294804F0D4FC92
:103FF000BDF815309DF814205BBA120412FA83F351
:10400000D20D244AD2ED006A234AF8EEE66AB7EEF2
:10401000006A86EE267A18BF03F17F43D2ED086A64
:1040200092ED045AD2ED074AB8EEE64AD2ED066A9E
:1040300007EE903AF8EEE65AD2ED036AF8EEE77A28
:10404000B8EEE66AD2ED026A67EE277AB8EEE60AC3
:10405000D2ED056AE4EE275AF8EEE66AB8EEC55AE4
:10406000B0EE667AF0EE466AE5EEA76AF8EEE44A4C
:10407000A6EEA70AA4EEA77AA5EE080A67EE884A7C
:10408000A4EE870A07B0BDEC028B5DF804FB00BF0D
:1040900044040020B4020020BC02002008B5072818
:1040A0004DD8DFE800F00D161F28313A43042848A8
:1040B00009F0A6FB0721BDE80840084602F05AB9FE
:1040C000244809F09DFB0021BDE80840084602F0A5
:1040D00051B9214809F094FB0121BDE80840084688
:1040E00002F048B91D4809F08BFB0221BDE80840E9
:1040F000084602F03FB91A4809F082FB0321BDE8E7
:104100000840084602F036B9164809F079FB042148
:10411000BDE80840084602F02DB9134809F070FBCD
:104120000521BDE80840084602F024B90F4809F00F
:1041300067FB0621BDE80840084602F01BB90C48A1
:1041400009F05EFBBDE808400221072002F012B929
:10415000341701081C160108441601086C160108E2
:1041600094160108BC160108E41601080C17010892
:1041700060170108704700BF704700BF08B50120F5
:1041800006F038FC30BFFAE730B599B04422002180
:1041900006A809F035FC00234FF40070CDE9013387
:1041A000CDE90333059304F025FE08B172B6FEE7AE
:1041B000022301244FF48035109316930A23CDE98E
:1041C000064513930722022306A803240125CDE9FF
:1041D0001423CDE9114504F0EDFE034608B172B693
:1041E000FEE70F2201922946802201A8CDE9024272
:1041F000CDE9043305F0E8F908B172B6FEE719B06D
:1042000030BD00BF80B5002490B002F06FFDFFF715
:10421000BBFFCDE90A44CDE90C44B14D0E94EB6CE3
:1042200043F00403EB64EB6C03F004030193019B84
:10423000EB6C43F08003EB64EB6C03F080030293C0
:10424000029BEB6C43F00103EB64EB6C03F00103A6
:104250000393039BEB6C43F00203EB64EB6C03F002
:1042600002032021049301224FF09040049B03F0AD
:1042700035FF22469B4848F2012103F02FFF2246DA
:104280004FF4C8514FF0904003F028FF01229548A9
:104290004FF4907103F022FF4FF002094FF40053E6
:1042A0009148CDF830900AA90327CDE90A3403F0EC
:1042B00015FE4FF440438C480C940AA9CDE90A3707
:1042C00003F00CFE48F202030AA94FF09040CDE93A
:1042D0000B740A9303F002FE10230AA94FF09040DA
:1042E0000126CDE90B440A9303F0F8FD4FF4C153C6
:1042F0000AA94FF09040CDE90C440A930B9603F0C5
:10430000EDFD40230AA94FF09040CDE90B460A93FA
:1043100003F0E4FD48F2211372480D940AA9CDE997
:104320000B640A9303F0DAFD41F202036D480A932D
:104330000AA9CDE90B4603F0D1FD40F60C436948CC
:104340000A930AA9CDE90B744FF4807803F0C6FDF7
:104350000AA94FF090400D94CDE90B66CDF8288066
:1043600003F0BCFD082361480A930AA9CDE90B7448
:1043700003F0B4FD4FF400735A480D940AA90A9350
:10438000CDE90B6903F0AAFDAB6C594F3343AB6425
:10439000AB6C584D33402246009305210B20009B07
:1043A00003F094F90B2003F0CDF90C23CDE90A4476
:1043B000CDE90C44CDE90E44C5E90244C5E90A44FF
:1043C000C5E910442C6185F820406C63EB6304243C
:1043D0004FF480232846C5E90073A5F81880EE61E4
:1043E00085F8306085F83860AE646C6102F0B2FC2C
:1043F00008B172B6FEE703463F4A0F930623CDE9A4
:104400000A230E947F2307240AA92846CDE90C43EA
:1044100002F0C8FD90B9394C394B3A4D2062C4E9DD
:104420000206C4E90400C4E906002046C4E90035D8
:1044300003F09EFF014618B172B6FEE772B6FEE7C2
:10444000204604F079FC014608B172B6FEE720462A
:1044500004F09CFC08B172B6FEE72B4C2B4BE061DC
:10446000C4E90150C4E90360C4E905004FF4003712
:1044700020462762236003F07BFF014608B172B635
:10448000FEE7204604F058FC014608B172B6FEE78C
:10449000204604F07BFC034608B172B6FEE71C4CD4
:1044A000C4E90150C4E90433C4E906332046194B7A
:1044B000E6602762236003F05BFF014608B172B635
:1044C000FEE7204604F038FC08B172B6FEE710485B
:1044D000002104F05BFC0346F0B172B6FEE700BFBA
:1044E000001002400004004800080048001C00487A
:1044F0000000045058050020000052C79804002016
:10450000005400404713300044040020005800408D
:10451000F0030020005C00403348344A03614FF44C
:10452000E1350C24C0E90233C0E90633C0E90833A1
:10453000C0E90025446106F073F9034608B172B67C
:10454000FEE72B48C0E90153C0E90333C0E9054346
:10455000C0E907334362274B036006F061F9034665
:1045600008B172B6FEE724482449016040F2011206
:10457000828031211022C0E90212FF210122C0E90C
:1045800004138361026203F04FF9064608B172B664
:10459000FEE702460521252003F098F8252003F0C8
:1045A000D1F8174C32460521262003F08FF826203B
:1045B00003F0C8F80FCC05AD0FC554F8043B2B60D1
:1045C000314605A806F0FAF90E4B18600FCC0AAD7B
:1045D0000FC523682B6031460AA806F0EFF90A4B95
:1045E000186006F0E5F9FEE76C0300200038014092
:1045F000E802002000440040EC04002000300240AB
:10460000F8030108E4020020E002002038B5074B5F
:1046100005689D4200D038BD044602F077FB236850
:10462000AB42F8D1BDE8384000F05EBF0014004056
:1046300072B6FEE7F0B5354A354C127887B00023E4
:1046400001A9ADF804308DF80630CDE90241314BB7
:1046500005466AB9E52204A88DF800200493CDF838
:1046600014D000F0F5FA01284AD0B8B102203DE09C
:10467000F52204A804938DF80020CDF814D000F0A2
:10468000D9FA0128034633D02349244A0868A2FBFB
:1046900000208009002B36D106F0ACF902A800F00A
:1046A000BBFA01282CD00028E0D1BDF804609DF8A9
:1046B00006701B4C1B4976BA1FFA86FC4FEA0C2C7D
:1046C00010224FF4000313EA0C0F1CBF04EA010E82
:1046D0008CEA0E0C013A4FEA53034FEA54044FEAB6
:1046E0005101F0D167450CBF2E80032007B0F0BD0B
:1046F000094A0A4B1068A3FB0030800906F07AF9DA
:10470000012007B0F0BD06F075F9AFE7CE05002037
:10471000800003008000010000000020D34D6210E3
:104720000080FF00008098002DE9F04387B0DFF89B
:10473000E080334E334D4FF0A00901AF002413E069
:1047400033BB00F069FA09F10209012801465FFA5A
:1047500089F919D0E0B9BDF804305ABA28F8022F07
:10476000B3B1B9F1AE0F17D004A8CDE902678DF847
:104770000090ADF804400495CDF814D000F05AFA3A
:104780000346012B02A8DBD1012007B0BDE8F0836E
:10479000022007B0BDE8F0831B4C2588E081C5F3FB
:1047A0000B032E0B23800246C80746BFDBB25A40DC
:1047B00082EA13220820530012F4004F83F440537E
:1047C00008BF52001BB200F1FF3014BF9AB292B280
:1047D00010F0FF00EFD10131C9B2102903D04B080E
:1047E00034F81330E0E7B6EB123F08BF074B2580E3
:1047F0000ABF012203201A7007B0BDE8F08300BF92
:10480000EC000200EC000100BC050020CC050020FB
:10481000BA050020F0B587B0044601A80023274A56
:104820000390274F8DF8004004A80E46ADF80430E1
:104830008DF8063002920497CDF814D000F0FAF902
:104840000128C4F3420428D01E4B054653F8240027
:104850001D4BA3FB003080095DBB06F0CBF804A81C
:104860008DF800500497CDF814D000F0E3F901283A
:104870001CD000BB02A800F0CFF9012816D0D0B997
:104880009DF805309DF804109DF806201B0243EAB0
:1048900001431343336007B0F0BD0A4A0A4B52F894
:1048A0002400A3FB0030800906F0A4F8012007B023
:1048B000F0BD06F09FF8022007B0F0BDEC00030049
:1048C000EC000100B0170108D34D62100349044BFE
:1048D0000020052208701A7000F09CB9CE05002057
:1048E000CD050020014B187000F094B9CD050020D3
:1048F00000B583B0802200236846CDE9002300F094
:1049000099F958B90346EC226846CDE9002300F036
:1049100091F918B9012003B05DF804FB002003B041
:104920005DF804FB10B582B004460DF10600FFF7F8
:1049300081FE88B9BDF806309FED087ADFED086A80
:1049400007EE903AF8EE677A67EE877AB9EE087A62
:10495000A7EEA67A84ED007A02B010BD0000FA42FC
:104960000000803710B5284B1B7882B0044613B97D
:10497000FFF7DAFEA8BB254B18784000C0B201A9AA
:1049800040F05000FFF746FF58BB019BCBB3204AD5
:1049900051899289A3EB012382FB0321D20D42EAC4
:1049A000412202F5FA62B2F5FA6F83FB03311ADA9B
:1049B00013EB030C41EB010E1CEB030C41EB0E015E
:1049C0004B1007EE103A07EE902AB8EEC77AF8EED1
:1049D000E77ADFED106A77EEC77A87EEA67A84ED84
:1049E000007A02B010BD4FEA810E4FEA830C4EEA06
:1049F000937E1CEB030C41EB0E018B1107EE103A7A
:104A0000E1E7022002B010BDCC050020CD0500205A
:104A1000BC0500200000C842FFF7A4BF2DE9F04FFD
:104A2000774B1B7883B005461BB9FFF77DFE044624
:104A300050B9744E33785B00DBB2694643F05000E6
:104A4000FFF7E8FE044618B1204603B0BDE8F08F3A
:104A500030784000C0B201A940F04000FFF7DAFE14
:104A600004460028F0D1009A002A00F0BE80019E82
:104A7000002E00F0BA8064494B89A2EB03228B8997
:104A800083FB0230DB0D43EA402303F5FA63B3F501
:104A9000FA6F80F2AF80B3F5FA6C4FEAE37969F10F
:104AA00000070CFB07F7ACFB0C0C0CEB470C4FEAB8
:104AB0000C174FEA001EBEEB000E47EA107767EBBB
:104AC0000C07BF0047EA9E774FEA8E0E1EEB000EE2
:104AD0004FEACC0A4FEAC0084CEB07074AEA507A83
:104AE000B8EB00086AEB0C0A4FEA8A0A4AEA987A9D
:104AF0004FEA880818EB000844484CEB0A0C4FEAD0
:104B00001E1E4FEA181883424EEA077E48EA0C78C8
:104B10004FEA27174FEA2C1C28DA40F2DC501B180A
:104B200049F1000903FB09F9A3FB03A303EB4903C4
:104B30004FEA03194FEA0A1010EB0A0049EA1A7902
:104B400043EB090910EB0E0047EB090786464FEAD5
:104B5000C3094FEACA0010EB0A0049EA5A7943EB4D
:104B6000090310EB08004CEB030C8046B1F808A0D9
:104B7000CB888888B1F802908AFB021A890983FBE6
:104B800002324FEA404B41EA8A61DB0911EB0B012B
:104B90004FEA094943EA42634FEAD03040EBAA109A
:104BA000D21113EB090342F10002B3EB080362EBED
:104BB0000C02B1EB0E0CA3FB063106FB02114FEA0F
:104BC000535343EAC12360EB07074915B3EB0C00CD
:104BD00061EB0701C00B40EA4140C913FCF724F91F
:104BE0002860204603B0BDE8F08F0224204603B0C1
:104BF000BDE8F08FA046A446A6462746B6E700BF0C
:104C0000CC050020CD050020BC05002024FAFFFFC4
:104C1000FFF704BF704700BF10B582B0322443884D
:104C2000426801880094024803F0C0FC02B010BD45
:104C30004404002010B582B03224438842680188C1
:104C40000094024803F0E8FB02B010BD44040020C9
:104C500010B582B03224438842680188009402482B
:104C600003F0DAFB02B010BD44040020114B10B574
:104C7000186E40F0010018661C6E82B004F001044A
:104C80000094009C9C6D44F080549C659B6D03F0E7
:104C90008053019300220F216FF00100019B02F06D
:104CA00015FD05210022084602B0BDE8104002F0C3
:104CB0000DBD00BF0010024030B504469BB05C2221
:104CC000002102A808F09CFE2B4B22689A4201D0DA
:104CD0001BB030BD9FED207B8DED027B9FED207BD7
:104CE0008DED047B9FED207B8DED067B9FED207B82
:104CF0004FF0805302A88DED087B169304F0EEFD73
:104D000018BB1E4A1E4DD16C41F40051D164D26CC7
:104D10001C49296002F40052019200238021019A6B
:104D20002B624FF48072C5E903316A614FF48061F0
:104D300020222846C5E90133C5E9061202F012FE19
:104D400030B9E564AC621BB030BDFFF771FCD8E749
:104D5000FFF76EFCF5E700BF004000000300000015
:104D60000100000008000000070000000200000031
:104D7000020000000000000100000450001002408A
:104D80001005002008000240094B02689A4200D03A
:104D90007047A3F5005382B09A6C42F480529A6433
:104DA0009B6C03F480530193019B02B0704700BFDA
:104DB00000300240F0B50446A5B000215C220DA8E9
:104DC000CDE90811CDE90A110C9108F019FE23680C
:104DD0005A4A934207D05A4A934234D0594A93428E
:104DE0005FD025B0F0BD40224FF480530DA80D9246
:104DF000199304F073FD002840F09680524CE36C48
:104E000043F00103E364E36C03F001030193042323
:104E1000019A0C93012203234FF4C066122708A9BC
:104E20004FF09040CDE90A23CDE9086703F056F82A
:104E3000A36D43F40013A365A36D03F40013029361
:104E4000029B25B0F0BD80224FF480430DA80D9247
:104E50001A9304F043FD002869D13B4C3B48E36CB6
:104E600043F00203E364E36C03F0020303934FF4A3
:104E7000C0421223CDE9082301220323CDE90A23EE
:104E800008A904230C93039A03F028F8A36D43F4B4
:104E90008003A365A36D03F480030493049B25B0F2
:104EA000F0BD4FF480724FF480330DA80D921B9328
:104EB00004F014FD00283DD1234CE36C43F00103C2
:104EC000E364E36C03F001030593059BE36C43F09B
:104ED0000203E364E36C03F00203069304258022DB
:104EE0000126032708A912234FF09040CDE908239B
:104EF000CDE90A67069B0C9502F0F0FF1022122301
:104F000012480C9508A9CDE90823CDE90A6702F0FB
:104F1000E5FFA36D43F40003A365A36D03F4000351
:104F20000793079B25B0F0BDFFF782FB66E7FFF70D
:104F30007FFB92E7FFF77CFBBEE700BF0054004019
:104F400000580040005C004000100240000400488F
:104F500010B50446A0B000215C2209A8CDE90411D7
:104F6000CDE90611089108F04BFD23683A4A9342B7
:104F700004D03A4A934239D020B010BD012309A889
:104F80000993119304F0AAFC00285FD1344B3548F3
:104F90001A6E42F480421A661A6E02F4804200923F
:104FA000009ADA6C42F00202DA64DB6C03F002036E
:104FB000019340220223CDE9042304A90022019B8E
:104FC00007240223CDE90623089402F087FF254831
:104FD0008022022304A9CDE9042301220223CDE982
:104FE0000623089402F07AFF20B010BD02220423A9
:104FF00009A80992129304F071FC50BB184B9A6DEA
:1050000042F400329A659A6D02F400320292029ADA
:10501000DA6C42F00102DA64DB6C03F00103039303
:1050200004220223CDE9042304A90022039B4FF0AC
:10503000904002230724CDE90623089402F04EFF96
:105040000822022304A94FF09040C4E7FFF7F0FACA
:105050009CE7FFF7EDFAD1E700380140004400403B
:105060000010024000040048234B70B59A6D42F0D6
:1050700020029A659B6D88B003F0200302930546D9
:1050800001A903A8029B04F079FB069BD3B904F0A5
:1050900051FB0346194A1A4C1A49A2FB03239B0CE5
:1050A000013B0022C4E90013204640F2E7332261AD
:1050B000A260A261E36004F0ADFE064630B1304666
:1050C00008B070BD04F036FB4300E3E7204604F06F
:1050D0006DFD06460028F2D1372002F033FB0F2D7C
:1050E00001D90126EBE732462946372002F0EEFAD5
:1050F000054B1D60E3E700BF0010024083DE1B4349
:10510000D00500200014004010000020FEE700BF82
:10511000FEE700BFFEE700BFFEE700BFFEE700BFFF
:10512000704700BF014802F017BD00BF1005002006
:10513000014804F0E5BE00BF6C030020014804F004
:10514000DFBE00BFE8020020014804F063BD00BFDD
:10515000D00500200120704708B508F031FD162366
:1051600003604FF0FF3008BD08B508F029FD162395
:105170000360FEE74FF0FF30704700BF4FF400536D
:105180004B600020704700BF01207047002070472F
:105190000C490D4A0B6810B50C4C121B2BB118446E
:1051A000904207D80860184610BD094B0B601844A0
:1051B0009042F7D908F004FD0C2303604FF0FF3351
:1051C000184610BD1C06002000000120000400004D
:1051D000004A0020034AD2F8883043F47003C2F832
:1051E0008830704700ED00E02DE9F04F2DED028B87
:1051F000A848DFF8D092A84CDFF8CC82A74EDFF8A1
:10520000CCA2DFF8CCB283B008F0FAFA1AE0237827
:1052100003F00303032B5DD098F8003003F0030381
:10522000032B6ED09AF8003003F00303032B00F039
:105230008280337803F00303032B00F09780984AB1
:1052400001231370002006F063F800224FF48071F0
:10525000584602F043FF99F8003003F00303032B94
:1052600000F0E8800025237803F00303032B00F00F
:10527000D48098F8003003F00303032B00F0BD80C6
:10528000337803F00303032B00F094800027854B51
:105290001B78012B00F0A78001224FF48071584643
:1052A00002F01CFF284605F0A5FB99F8003003F03A
:1052B0000303032BABD199F80130DD07A7D501F02B
:1052C000FBF810EE103AC9F80230237803F003031C
:1052D000032BA1D16378D80700F1CD80E37CD907F7
:1052E00000F1C480A37ADA0796D501F09BFB10EE9B
:1052F000103AC4F80B3098F8003003F00303032B86
:1053000090D1684601F018FA98F80130DB0700F1F7
:10531000B98098F80A30DD0784D5684601F056FA5E
:1053200010EE103AC8F80B309AF8003003F003037F
:10533000032B7FF47EAF9AF80130D80700F1868006
:105340009AF81330D90700F18C809AF80A30DA07FE
:105350007FF56FAF01F05AF910EE103ACAF80B3032
:10536000337803F00303032B7FF469AFFEF7FAFDF4
:105370007378DB07B0EE408A15D4002F3FF45FAF9F
:10538000494D2878FEF7D0FD2878FEF775FD0A30E4
:1053900005F030FBB0EE480AFEF716FE10EE103AAC
:1053A000C6F80B304BE7FEF7AFFD10EE103AC6F82B
:1053B0000230E2E77778B37A1F4317F001073FF432
:1053C00066AF3A4F3878FEF781FD3878FEF754FD26
:1053D000344BB77A1B78854238BF0546012B07F05E
:1053E00001077FF459AF324808F00AFA314B3248CE
:1053F000198889B208F09CF94EE798F8013098F8BE
:105400000A201343DF077FF53BAF2C4B642D187840
:1054100038BF642501F062F932E7E27C6378134318
:10542000A27A1343DB077FF524AF01F029FB4FF489
:10543000FA751EE799F8015015F001053FF413AF16
:105440001F4B187801F054F8C8250CE701F0CAF892
:1054500010EE103ACAF802309AF81330D9077FF5E7
:1054600074AF01F0C9F88AED050A6EE701F0ACFAF5
:1054700084ED050A36E701F079FA10EE103AC4F827
:1054800002302BE7684601F06BF910EE103AC8F8CD
:1054900002303EE710180108CC060020B4060020B8
:1054A000380600203906002034060020350600208A
:1054B0002C1801083A060020501801083006002078
:1054C000360600202C07002014070020F0060020DC
:1054D00000040048704700BF08B501F023FC014BF1
:1054E000186008BD24060020704700BF70B501F0A9
:1054F00019FC0F4E054605E001F014FC401BB0F509
:105500007A7F08D84FF40051304602F0E1FD0128BF
:105510000446F1D070BD01F005FC064822464FF468
:10552000007102F0DBFDBDE87040034808F068B987
:1055300000080048000400486418010838B52448F1
:105540004FF4005102F0C4FD60B1224C2248002209
:105550004FF4807102F0C2FD204A236801251570C6
:105560009BB938BD1D4C01F0DDFB1A4A2378106051
:1055700013B90023237038BD174801224FF48071FE
:1055800002F0ACFD00232370F5E701F0CBFB2368AC
:10559000C01AB0F5FA6FE4D9114808F031F92A467B
:1055A0000D484FF4807102F099FD2A460A482021E7
:1055B00002F094FD084800224FF4007102F08EFDC5
:1055C0004FF4FA6005F016FABDE8384002F0C8B8AA
:1055D000000800482C060020000400482006002097
:1055E0007018010870B5094C054620460E4602F0B9
:1055F0001BF92068836843F0010383603246294623
:10560000204602F04FF9C0B270BD00BFEC0400208C
:10561000F8B5624808F0F4F8614808F089F8614A82
:10562000137803F00303032B3AD05F4D2B7803F07C
:105630000303032B40D05D4E337803F00303032BA9
:1056400046D05B4C237803F00303032B4CD0594F17
:105650003B7803F00303032B52D02B7803F00303B2
:10566000032B58D0237803F00303032B5ED03B7841
:1056700003F00303032B64D02B7803F00303032B05
:105680006AD0337803F00303032B70D0237803F040
:105690000303032B76D0BDE8F840404808F0B0B8CB
:1056A0005378DF07C1D5404D434808F041F82B78C7
:1056B00003F00303032BBED16B78DE07BBD53B4E53
:1056C0003E4808F035F8337803F00303032BB8D1D4
:1056D0007378DC07B5D5364C394808F029F82378BB
:1056E00003F00303032BB2D16378D807AFD5314F52
:1056F000344808F01DF83B7803F00303032BACD1CA
:105700007B78D907A9D5304808F012F82B7803F038
:105710000303032BA6D1EB7CDA07A3D52B4808F0B3
:1057200007F8237803F00303032BA0D1E37CDB0706
:105730009DD5274807F0FCFF3B7803F00303032BBC
:105740009AD1BB7AD80797D5224807F0F1FF2B787A
:1057500003F00303032B94D1AB7AD90791D51E48EC
:1057600007F0E6FF337803F00303032B8ED1B37AFF
:10577000DA078BD5194807F0DBFF237803F0030322
:10578000032B88D1A37ADB0785D5154807F0D0FF16
:10579000BDE8F840014808F033B800BF28180108F8
:1057A0007C1801082C070020CC06002014070020DC
:1057B000F0060020B406002084180108941801089F
:1057C000A4180108B0180108C0180108D018010871
:1057D000E0180108F0180108001901080C19010867
:1057E000181901080128F8B502D002285ED0F8BDCA
:1057F000BC4808F005F8BC4808F002F8BB4A13782A
:1058000003F00303032B00F0A180B94D2B7803F0C4
:105810000303032B00F09C82B64E337803F003039E
:10582000032B00F07D82B44C237803F00303032B99
:1058300000F05E82B14F3B7803F00303032B00F0CE
:105840003F82AF4807F0DCFFAE4807F0D9FF2B7866
:1058500003F00303032B00F01F82237803F00303FC
:10586000032B00F005823B7803F00303032B00F0C9
:10587000E781A34807F0C4FFA34807F0C1FF2B78D6
:1058800003F00303032B00F0C381337803F0030319
:10589000032B00F0A581237803F00303032B00F012
:1058A0008781BDE8F840964807F0AABF974B984813
:1058B0001988013189B2198007F03AFF8B4A1378B1
:1058C00003F00303032B00F05B81894D2B7803F079
:1058D0000303032B00F03C81864E337803F003036F
:1058E000032B00F01D81844C237803F00303032B6A
:1058F00000F0E080814F3B7803F00303032B00F0BE
:10590000C1802B7803F00303032B00F0A7802378DA
:1059100003F00303032B00F08D803B7803F00303B7
:10592000032B70D02B7803F00303032B54D0337870
:1059300003F00303032B38D0237803F00303032B76
:105940001CD0BDE8F840734807F05ABF5378DF0712
:105950007FF55BAFD2F80200D2F8063007EE900A6E
:1059600007EE103A77EE877A17EE900AFAF7ECFD19
:1059700002460B46684807F0DBFE46E7A37ADB07E2
:10598000DFD5D4F80F30D4F80B0007EE103A07EE4D
:10599000900A77EE877A17EE900AFAF7D5FD02465D
:1059A0000B465E4807F0C4FECBE7B37ADA07C3D5EF
:1059B000D6F80F30D6F80B0007EE103A07EE900A33
:1059C00077EE877A17EE900AFAF7BEFD02460B468D
:1059D000524807F0ADFEAFE7AB7AD907A7D5D5F8A7
:1059E0000F30D5F80B0007EE103A07EE900A77EE6D
:1059F000877A17EE900AFAF7A7FD02460B4647484A
:105A000007F096FE93E7BB7AD8078BD5D7F80F300F
:105A1000D7F80B0007EE103A07EE900A77EE877A78
:105A200017EE900AFAF790FD02460B463B4807F046
:105A30007FFE77E7E37CDB077FF56FAF94ED057AB8
:105A4000D4ED067A77EE277A17EE900AFAF77CFD06
:105A500002460B46314807F06BFE5EE7EB7CDA0747
:105A60007FF555AF95ED057AD5ED067A77EE277A75
:105A700017EE900AFAF768FD02460B46274807F032
:105A800057FE44E77B78D9077FF53BAFD7F8063060
:105A9000D7F8020007EE103A07EE900A77EE877A01
:105AA00017EE900AFAF750FD02460B461B4807F026
:105AB0003FFE26E76378D8077FF51CAFD4F80630A1
:105AC000D4F8020007EE103A07EE900A77EE877AD4
:105AD00017EE900AFAF738FD02460B460F4807F01A
