:020000040800F2
:1000000000000120255F0008855200088B5200087F
:1000100091520008975200089D520008000000000D
:10002000000000000000000000000000A3520008D3
:10003000B152000800000000BF520008CD52000875
:10004000755F0008755F0008755F0008755F000840
:10005000755F0008755F0008755F0008755F000830
:10006000755F0008755F0008755F0008DD520008C5
:10007000755F0008755F0008755F0008755F000810
:10008000755F0008755F0008755F0008755F000800
:10009000755F0008755F0008755F0008755F0008F0
:1000A000755F0008755F0008755F0008755F0008E0
:1000B000755F00080000000000000000755F000888
:1000C000755F0008755F0008755F0008755F0008C0
:1000D000755F0008F152000805530008755F0008BD
:1000E000755F0008755F0008000000000000000058
:1000F0000000000000000000000000000000000000
:1001000000000000755F000800000000755F000837
:100110000000000000000000755F0008755F000827
:10012000755F0008755F0008755F0008755F00085F
:10013000755F0008000000000000000000000000E3
:10014000755F0008755F0008755F0008000000001B
:10015000755F0008755F0008755F0008755F00082F
:10016000755F0008755F0008755F000800000000FB
:10017000755F0008755F00080000000000000000C7
:0C018000755F0008755F0008755F0008DF
:1001900010B5054C237833B9044B13B10448AFF3C1
:1001A00000800123237010BDF0010020000000003A
:1001B00058F5000808B5034B1BB103490348AFF3DA
:1001C000008008BD00000000F401002058F5000880
:1001D00001F0FF01102A2BDB10F0070F08D010F8F8
:1001E000013B013A8B422DD010F0070F42B3F6D1FC
:1001F000F0B441EA012141EA014122F007047FF015
:1002000000070023F0E80256083C85EA010586EA6B
:10021000010685FA47F5A3FA87F586FA47F6A5FAA7
:1002200087F68EB9EED1F0BC01F0FF0102F00702B3
:1002300032B110F8013B013A83EA010313B1F8D15E
:100240000020704701387047002D06BF354603383F
:10025000073815F0010F07D1013015F4807F02BF78
:10026000013015F4C03F0130F0BC0138704700BFC9
:10027000034613F8012B002AFBD1181A01387047E6
:1002800081F0004102E000BF83F0004330B54FEA47
:1002900041044FEA430594EA050F08BF90EA020FB4
:1002A0001FBF54EA000C55EA020C7FEA645C7FEA47
:1002B000655C00F0E2804FEA5454D4EB5555B8BF6A
:1002C0006D420CDD2C4480EA020281EA030382EADB
:1002D000000083EA010180EA020281EA0303362D6D
:1002E00088BF30BD11F0004F4FEA01314FF4801C40
:1002F0004CEA113102D0404261EB410113F0004F52
:100300004FEA03334CEA133302D0524263EB430308
:1003100094EA050F00F0A780A4F10104D5F1200EA6
:100320000DDB02FA0EFC22FA05F2801841F1000101
:1003300003FA0EF2801843FA05F359410EE0A5F1D5
:1003400020050EF1200E012A03FA0EFC28BF4CF006
:10035000020C43FA05F3C01851EBE37101F00045BC
:1003600007D54FF0000EDCF1000C7EEB00006EEBC9
:100370000101B1F5801F1BD3B1F5001F0CD3490853
:100380005FEA30004FEA3C0C04F101044FEA4452AA
:1003900012F5800F80F09A80BCF1004F08BF5FEA31
:1003A000500C50F1000041EB045141EA050130BD11
:1003B0005FEA4C0C404141EB0101013C28BFB1F523
:1003C000801FE9D291F0000F04BF01460020B1FA6E
:1003D00081F308BF2033A3F10B03B3F120020CDA41
:1003E0000C3208DD02F1140CC2F10C0201FA0CF01F
:1003F00021FA02F10CE002F11402D8BFC2F1200C84
:1004000001FA02F120FA0CFCDCBF41EA0C01904039
:10041000E41AA2BF01EB0451294330BD6FEA040482
:100420001F3C1CDA0C340EDC04F11404C4F120026D
:1004300020FA04F001FA02F340EA030021FA04F37F
:1004400045EA030130BDC4F10C04C4F1200220FAD6
:1004500002F001FA04F340EA0300294630BD21FA14
:1004600004F0294630BD94F0000F83F4801306BFDA
:1004700081F480110134013D4EE77FEA645C18BFCE
:100480007FEA655C29D094EA050F08BF90EA020F65
:1004900005D054EA000C04BF1946104630BD91EA5D
:1004A000030F1EBF0021002030BD5FEA545C05D160
:1004B0004000494128BF41F0004130BD14F580049F
:1004C0003CBF01F5801130BD01F0004545F0FE4113
:1004D00041F470014FF0000030BD7FEA645C1ABF48
:1004E000194610467FEA655C1CBF0B46024650EA7F
:1004F000013406BF52EA033591EA030F41F40021AB
:1005000030BD00BF90F0000F04BF0021704730B530
:100510004FF4806404F132044FF000054FF0000105
:1005200050E700BF90F0000F04BF0021704730B5C6
:100530004FF4806404F1320410F0004548BF40429B
:100540004FF000013EE700BF42004FEAE2014FEAF0
:1005500031014FEA02701FBF12F07F4393F07F4FCB
:1005600081F06051704732F07F4208BF704793F0CE
:100570007F4F04BF41F40021704730B54FF46074E1
:1005800001F0004521F000411CE700BF50EA0102E4
:1005900008BF704730B54FF000050AE050EA01028D
:1005A00008BF704730B511F0004502D5404261EBFD
:1005B00041014FF4806404F132045FEA915C3FF43E
:1005C000D8AE4FF003025FEADC0C18BF03325FEADB
:1005D000DC0C18BF033202EBDC02C2F1200300FA8C
:1005E00003FC20FA02F001FA03FE40EA0E0021FAB1
:1005F00002F11444BDE600BF70B54FF0FF0C4CF49F
:10060000E06C1CEA11541DBF1CEA135594EA0C0F50
:1006100095EA0C0F00F0DEF82C4481EA030621EA8B
:100620004C5123EA4C5350EA013518BF52EA0335C6
:1006300041F4801143F4801338D0A0FB02CE4FF078
:100640000005E1FB02E506F00042E0FB03E54FF0A8
:100650000006E1FB03569CF0000F18BF4EF0010EA0
:10066000A4F1FF04B6F5007F64F5407404D25FEA9C
:100670004E0E6D4146EB060642EAC62141EA55514F
:100680004FEAC52040EA5E504FEACE2EB4F1FD0C91
:1006900088BFBCF5E06F1ED8BEF1004F08BF5FEA0F
:1006A000500E50F1000041EB045170BD06F00046C1
:1006B00046EA010140EA020081EA0301B4EB5C046E
:1006C000C2BFD4EB0C0541EA045170BD41F4801166
:1006D0004FF0000E013C00F3AB8014F1360FDEBF8B
:1006E000002001F0004170BDC4F10004203C35DA67
:1006F0000C341BDC04F11404C4F1200500FA05F3EA
:1007000020FA04F001FA05F240EA020001F000428A
:1007100021F0004110EBD37021FA04F642EB060100
:100720005EEA430E08BF20EAD37070BDC4F10C042A
:10073000C4F1200500FA04F320FA05F001FA04F2EE
:1007400040EA020001F0004110EBD37041F10001DA
:100750005EEA430E08BF20EAD37070BDC4F12005E5
:1007600000FA05F24EEA020E20FA04F301FA05F24D
:1007700043EA020321FA04F001F0004121FA04F2F5
:1007800020EA020000EBD3705EEA430E08BF20EAC5
:10079000D37070BD94F0000F0FD101F000464000FF
:1007A00041EB010111F4801F08BF013CF7D041EA81
:1007B000060195F0000F18BF704703F00046520085
:1007C00043EB030313F4801F08BF013DF7D043EA56
:1007D0000603704794EA0C0F0CEA135518BF95EA0C
:1007E0000C0F0CD050EA410618BF52EA4306D1D193
:1007F00081EA030101F000414FF0000070BD50EAB2
:10080000410606BF1046194652EA430619D094EA3B
:100810000C0F02D150EA013613D195EA0C0F05D125
:1008200052EA03361CBF104619460AD181EA030179
:1008300001F0004141F0FE4141F470014FF0000031
:1008400070BD41F0FE4141F4780170BD70B54FF0CC
:10085000FF0C4CF4E06C1CEA11541DBF1CEA13554C
:1008600094EA0C0F95EA0C0F00F0A7F8A4EB05042E
:1008700081EA030E52EA03354FEA013100F0888025
:100880004FEA03334FF0805545EA131343EA1263EE
:100890004FEA022245EA111545EA10654FEA0026A3
:1008A0000EF000419D4208BF964244F1FD0404F55C
:1008B000407402D25B084FEA3202B61A65EB0305B8
:1008C0005B084FEA32024FF480104FF4002CB6EB75
:1008D000020E75EB030E22BFB61A754640EA0C00F5
:1008E0005B084FEA3202B6EB020E75EB030E22BF35
:1008F000B61A754640EA5C005B084FEA3202B6EB76
:10090000020E75EB030E22BFB61A754640EA9C0034
:100910005B084FEA3202B6EB020E75EB030E22BF04
:10092000B61A754640EADC0055EA060E18D04FEAC2
:10093000051545EA16754FEA06164FEAC30343EA62
:1009400052734FEAC2025FEA1C1CC0D111F4801F2F
:100950000BD141EA00014FF000004FF0004CB6E728
:1009600011F4801F04BF01430020B4F1FD0C88BFC7
:10097000BCF5E06F3FF6AFAEB5EB030C04BFB6EBD2
:10098000020C5FEA500C50F1000041EB045170BDC5
:100990000EF0004E4EEA113114EB5C04C2BFD4EBF2
:1009A0000C0541EA045170BD41F480114FF0000E76
:1009B000013C90E645EA060E8DE60CEA135594EAF2
:1009C0000C0F08BF95EA0C0F3FF43BAF94EA0C0FF5
:1009D0000AD150EA01347FF434AF95EA0C0F7FF46A
:1009E00025AF104619462CE795EA0C0F06D152EABE
:1009F00003353FF4FDAE1046194622E750EA4106A2
:100A000018BF52EA43067FF4C5AE50EA41047FF4B2
:100A10000DAF52EA43057FF4EBAE12E74FF0FF3C17
:100A200006E000BF4FF0010C02E000BF4FF0010CE8
:100A30004DF804CD4FEA410C7FEA6C5C4FEA430C61
:100A400018BF7FEA6C5C1BD001B050EA410C0CBFB0
:100A500052EA430C91EA030F02BF90EA020F002012
:100A6000704710F1000F91EA030F58BF994208BF79
:100A700090422CBFD8176FEAE37040F00100704736
:100A80004FEA410C7FEA6C5C02D150EA013C07D18D
:100A90004FEA430C7FEA6C5CD6D152EA033CD3D0D8
:100AA0005DF8040B704700BF8446104662468C46D2
:100AB0001946634600E000BF01B5FFF7B7FF002805
:100AC00048BF10F1000F01BD4DF808EDFFF7F4FF2E
:100AD0000CBF012000205DF808FB00BF4DF808EDB9
:100AE000FFF7EAFF34BF012000205DF808FB00BFDC
:100AF0004DF808EDFFF7E0FF94BF012000205DF8FE
:100B000008FB00BF4DF808EDFFF7CEFF94BF0120B2
:100B100000205DF808FB00BF4DF808EDFFF7C4FFAB
:100B200034BF012000205DF808FB00BF4FEA410CF4
:100B30007FEA6C5C02D150EA013C0AD14FEA430CD7
:100B40007FEA6C5C02D152EA033C02D14FF0000014
:100B500070474FF0010070474FEA410212F5001252
:100B600015D211D56FF47873B3EB625212D94FEAF4
:100B7000C12343F0004343EA505311F0004F23FADE
:100B800002F018BF404270474FF00000704750EA33
:100B9000013005D111F0004008BF6FF000407047F0
:100BA0004FF00000704700BF4FEA4102B2F1E0434E
:100BB00024BFB3F5001CDCF1FE5C0DD901F0004C44
:100BC0004FEAC0024CEA5070B2F1004F40EB830094
:100BD00008BF20F00100704711F0804F21D113F1C0
:100BE0003872BCBF01F00040704741F480114FEAF9
:100BF0005252C2F11802C2F1200C10FA0CF320FA82
:100C000002F018BF40F001004FEAC1234FEAD3239E
:100C100003FA0CFC40EA0C0023FA02F34FEA430308
:100C2000CCE77FEA625307D150EA01331EBF4FF091
:100C3000FE4040F44000704701F0004040F0FE40AC
:100C400040F40000704700BF80F0004002E000BFA9
:100C500081F0004142001FBF5FEA410392EA030FA7
:100C60007FEA226C7FEA236C6AD04FEA1262D2EBF1
:100C70001363C1BFD218414048404140B8BF5B42F6
:100C8000192B88BF704710F0004F40F4000020F08F
:100C90007F4018BF404211F0004F41F4000121F0A5
:100CA0007F4118BF494292EA030F3FD0A2F10102EF
:100CB00041FA03FC10EB0C00C3F1200301FA03F12D
:100CC00000F0004302D5494260EB4000B0F5000F50
:100CD00013D3B0F1807F06D340084FEA310102F10F
:100CE0000102FE2A51D2B1F1004F40EBC25008BFC1
:100CF00020F0010040EA03007047490040EB00008B
:100D0000013A28BFB0F5000FEDD2B0FA80FCACF18B
:100D1000080CB2EB0C0200FA0CF0AABF00EBC250B8
:100D200052421843BCBFD0401843704792F0000FA6
:100D300081F4000106BF80F400000132013BB5E7F9
:100D40004FEA41037FEA226C18BF7FEA236C21D06F
:100D500092EA030F04D092F0000F08BF08467047D4
:100D600090EA010F1CBF0020704712F07F4F04D1A2
:100D7000400028BF40F00040704712F100723CBFB5
:100D800000F50000704700F0004343F0FE4040F4DF
:100D9000000070477FEA226216BF08467FEA23639D
:100DA0000146420206BF5FEA412390EA010F40F488
:100DB000800070474FF0000304E000BF10F00043D4
:100DC00048BF40425FEA000C08BF704743F09643BB
:100DD00001464FF000001CE050EA010208BF7047D6
:100DE0004FF000030AE000BF50EA010208BF70475D
:100DF00011F0004302D5404261EB41015FEA010C72
:100E000002BF84460146002043F0B64308BFA3F169
:100E10008053A3F50003BCFA8CF2083AA3EBC2534B
:100E200010DB01FA02FC634400FA02FCC2F120026A
:100E3000BCF1004F20FA02F243EB020008BF20F0A1
:100E40000100704702F1200201FA02FCC2F1200207
:100E500050EA4C0021FA02F243EB020008BF20EAFC
:100E6000DC7070477BB972B90029BEBF00204FF01B
:100E7000004106E008BF00281CBF6FF000414FF0A2
:100E8000FF3000F0BBB9ADF1080C6DE904CE0029CC
:100E900009DB002B1ADB00F04DF8DDF804E0DDE99A
:100EA000022304B07047404261EB4101002B1BDB81
:100EB00000F040F8DDF804E0DDE9022304B0404230
:100EC00061EB4101524263EB43037047524263EBD3
:100ED000430300F02FF8DDF804E0DDE9022304B05D
:100EE000404261EB41017047524263EB430300F023
:100EF00021F8DDF804E0DDE9022304B0524263EB9F
:100F00004303704753B94AB9002908BF00281CBFE2
:100F10004FF0FF314FF0FF3000F070B9ADF1080C29
:100F20006DE904CE00F006F8DDF804E0DDE9022307
:100F300004B070472DE9F047089E0D4604460F4661
:100F4000002B4AD18A42944665D9B2FA82F343B162
:100F500002FA03FCC3F120029F4020FA02F2174379
:100F60009C404FEA1C4E1FFA8CF5B7FBFEF1220C99
:100F70000EFB117742EA074201FB05F090420AD9C5
:100F80001CEB020201F1FF3780F01C81904240F21D
:100F9000198102396244121AA4B2B2FBFEF00EFBB0
:100FA000102244EA024400FB05F5A5420AD91CEBD5
:100FB000040400F1FF3280F00781A54240F2048171
:100FC0006444023840EA0140641B00211EB1DC4049
:100FD0000023C6E90043BDE8F0878B4208D9002E04
:100FE00000F0ED800021C6E900050846BDE8F08765
:100FF000B3FA83F1002949D1AB4202D3824200F215
:10100000F880841A65EB030201201746002EE2D017
:10101000C6E90047DFE702B9FFDEB2FA82F3002B30
:1010200040F090808A1A4FEA1C471FFA8CFE01217B
:10103000B2FBF7F507FB1520220C42EA00420EFB3B
:1010400005F0904208D91CEB020205F1FF3802D2EC
:10105000904200F2CB804546121AA4B2B2FBF7F0E0
:1010600007FB102244EA02440EFB00FEA64508D905
:101070001CEB040400F1FF3202D2A64500F2BB8053
:101080001046A4EB0E0440EA05409FE7C1F120079B
:101090008B4022FA07FC4CEA030C05FA01F420FA13
:1010A00007F3FD404FEA1C492343B5FBF9F81FFA4B
:1010B0008CFE09FB18551C0C44EA054408FB0EF590
:1010C000A54202FA01F200FA01F00BD91CEB04046C
:1010D00008F1FF3A80F08880A54240F28580A8F1AF
:1010E00002086444641B9DB2B4FBF9F309FB13448A
:1010F00045EA044403FB0EFEA64508D91CEB040494
:1011000003F1FF356CD2A6456AD9023B644443EA39
:101110000843A3FB0295A4EB0E04AC42C846AE46BE
:1011200056D353D056B1B0EB080264EB0E0404FA68
:1011300007F7CA40CC401743C6E90074184600219F
:10114000BDE8F087C3F1200102FA03FC20FA01F2A6
:1011500025FA01F19D402A434FEA1C471FFA8CFEF5
:10116000B1FBF7F007FB1015110C41EA054100FB3C
:101170000EF58D4204FA03F408D91CEB010100F1CD
:10118000FF382FD28D422DD902386144491B92B2CB
:10119000B1FBF7F507FB151142EA014205FB0EF121
:1011A000914208D91CEB020205F1FF3816D2914298
:1011B00014D9023D6244521A45EA004138E73146EB
:1011C000304608E73946E6E61046FBE64845A9D230
:1011D000B9EB020865EB0C0E013BA3E74546EAE7D5
:1011E0002B4694E74046D1E7D0467BE7023D624478
:1011F00032E708460AE76444023842E7704700BF16
:1012000080B500AF7F21064806F0ACF80A2004F054
:1012100027FF05220349024805F07CFA00BF80BD84
:101220008C0400200C020020B0B584B000AF002375
:10123000FB81334B1B887B81324B1B883B81002316
:101240007B730AE07B7B304A32F813309AB2FB8919
:101250001344FB817B7B01337B737B7B042BF1D9B4
:10126000FB8907EE903AF8EEE77A9FED287A67EE71
:10127000877AFCEEE77A17EE903AFB817B8907EEDE
:10128000903AB8EEE77AFB8907EE903AF8EE677A83
:1012900077EE677A17EE900AFFF756F916A3D3E9AF
:1012A0000023FFF7A9F902460B4614461D463B8969
:1012B0001846FFF737F902460B4620462946FFF746
:1012C000C5FA02460B46104619464FF00002104B75
:1012D000FEF7DCFF02460B4610461946FFF764FC9A
:1012E00003467B607B6807EE903AB0EE670A1037E2
:1012F000BD46B0BDAFF300803333333333331140D9
:10130000A875FF1FCA75FF1F0C020020CDCC4C3EF4
:101310000000394080B58AB004AFF8600B467A60AF
:10132000FB72FB689B8C5B00FB82FB68986AFB7A14
:101330009AB2F98A41F2883302930223019307F1AA
:1013400014030093012307F033FB0346002B0BD15A
:101350007B7D1B021AB23B7D1BB213431BB29AB2B8
:101360007B681A80012300E0002318461837BD4629
:1013700080BD90B58BB004AFF8607A601A460B461A
:10138000FB721346BB72FB689B8C5B00FB82FB68A5
:10139000986AFB7A9AB2BB7A9BB2F98A41F2883496
:1013A000029401937B680093012307F001FB03463D
:1013B000002B01D1002300E0012318461C37BD4655
:1013C00090BD80B582B000AF78607B681A468821F6
:1013D0007868FFF79FFF0346002B6FD07B680233CE
:1013E0001A468A217868FFF795FF0346002B65D0DF
:1013F0007B6804331A468C217868FFF78BFF03461D
:10140000002B5BD07B6806331A468E217868FFF785
:1014100081FF0346002B51D07B6808331A46902188
:101420007868FFF777FF0346002B47D07B680A33C5
:101430001A4692217868FFF76DFF0346002B3DD0D6
:101440007B680C331A4694217868FFF763FF0346E4
:10145000002B33D07B680E331A4696217868FFF74D
:1014600059FF0346002B29D07B6810331A46982178
:101470007868FFF74FFF0346002B1FD07B681233BD
:101480001A469A217868FFF745FF0346002B15D0CE
:101490007B6814331A469C217868FFF73BFF0346AC
:1014A000002B0BD07B6816331A469E217868FFF715
:1014B00031FF0346002B01D0012300E00023184632
:1014C0000837BD4680BD80B584B000AF78607B68CA
:1014D00003F118020123A1217868FFF74AFF0346B0
:1014E000002B4BD17B681A331A46E1217868FFF74D
:1014F00011FF0346002B41D07B6803F11C0201233E
:10150000E3217868FFF735FF0346002B36D107F15A
:101510000E031A46E4217868FFF7FCFE0346002B11
:101520002CD007F10C031A46E5217868FFF7F2FE8C
:101530000346002B22D07B6803F122020123E7211E
:101540007868FFF716FF0346002B17D1FB891B01B4
:101550001BB203F47F631AB2FB891B121BB203F0A8
:101560000F031BB213431AB27B68DA83BB891B09D2
:101570009BB21AB27B681A84012300E0002318464C
:101580001037BD4680BD80B588B004AF78600B468B
:10159000FB701346BB707B689B8C5B00FB817B6898
:1015A000986AFB789AB2F98942F210730293012388
:1015B0000193BB1C0093012307F0E6F80346002BC0
:1015C00001D1002300E0012318461037BD4680BD3D
:1015D00080B584B000AF786039607B689B8C762BD7
:1015E00005D07B689B8C772B01D0002399E07B682A
:1015F00003F132020123D0217868FFF7BAFE0346D7
:10160000002B01D000238CE07B6893F83230582BFC
:1016100006D07B6893F83230602B01D0002380E045
:10162000B622E0217868FFF7AEFF0346002B01D019
:10163000002376E007F10C020123F3217868FFF71D
:1016400098FE0346002BF5D13B7B03F00103002BF2
:10165000F0D17868FFF7B5FE034683F00103DBB2F3
:10166000002B00D101E000235BE07B6893F832306F
:10167000602B0AD17868FFF726FF034683F0010349
:10168000DBB2002B01D000234BE03B685B795B01B0
:101690005AB23B685B789B005BB213435BB2FB734F
:1016A000FB7B1A46F5217868FFF76DFF0346002B98
:1016B00001D0002335E03B681B78012B02D13B6849
:1016C00000221A703B68DB785B015AB23B689B785A
:1016D0009B005BB213435AB23B681B785BB2134367
:1016E0005BB2BB737B6893F83230602B0DD13B68E3
:1016F0001B797B737B7B1A46F2217868FFF743FFE7
:101700000346002B01D000230BE0BB7B1A46F421DB
:101710007868FFF738FF0346002B01D0002300E074
:10172000012318461037BD4680BD80B584B000AF98
:10173000786007F10F020123F4217868FFF719FEA2
:101740000346002B01D0002315E0FB7B23F00303AD
:10175000DBB2FB73FB7B43F00103DBB2FB73FB7B70
:101760001A46F4217868FFF70EFF0346002B01D0DC
:10177000002300E0012318461037BD4680BD80B528
:1017800084B000AF786007F10F020123F32178687D
:10179000FFF7EFFD0346002B01D0002307E0FB7BA2
:1017A00003F00803002B01D0012300E000231846BA
:1017B0001037BD4680BD80B487B000AFF860B96017
:1017C0007A60BB68DA10FB681B885B00D31AFA6882
:1017D000B2F9022002FB03F3DB127B61BB681B1131
:1017E000FA6812889B1ABA681211F9680988521AA5
:1017F00002FB03F31B13FA68B2F9042002FB03F3A4
:101800009B133B617A693B691A447B681A607B6869
:101810001A6813469B00134480331B1218461C376A
:10182000BD465DF8047B70472DE9B04FCCB000AFEA
:10183000C7F81401C7F81011C7F80C21D7F80C31FC
:10184000DA171C461546B4F5FA3A45F1FF3BC7E9ED
:101850004AABD7F82C21D7F8283103FB02F1D7F88F
:101860002C21D7F8283102FB03F3CA18D7F8283106
:10187000A3FB038902EB09039946D7F81431B3F9A6
:1018800010301BB2DA17C7F8B830C7F8BC20D7E958
:101890002E01034603FB09F20B4608FB03F3134436
:1018A0000246A8FB0212C7F8C4200A46C7F8C020A7
:1018B000D7F8C4201344C7F8C430D7E93034C7E997
:1018C0004834C7E94834D7F81431B3F90E301BB2A5
:1018D000DA17C7F8B030C7F8B420D7F82831D7E9FD
:1018E0002C452A4602FB03F2D7F82C31214601FB96
:1018F00003F31A44D7F828312146A3FB0113C7F894
:1019000004310B46C7F80031D7F80431D318C7F8B3
:1019100004314FF000004FF00001D7E940452B465D
:101920005904234641EAD33123465804D7E94823D2
:1019300014183C644B417B64D7E91034C7E9483440
:10194000D7F81431B3F90C301BB2DA17C7F8A83046
:10195000C7F8AC204FF000004FF00001D7F8A830D6
:10196000D9000020D7E948231418BC634B41FB631E
:10197000D7E90E34C7E94834D7F82C21D7F82831F5
:1019800003FB02F1D7F82C21D7F8283102FB03F32F
:10199000CA18D7F82831A3FB0313C7F8FC300B464D
:1019A000C7F8F830D7F8FC30D318C7F8FC30D7F8B0
:1019B0001431B3F90A301BB2DA17C7F8A030C7F8F0
:1019C000A420D7E93E452B46D7E92889424602FBA9
:1019D00003F24B46214601FB03F3134422464146E2
:1019E000A2FB0112C7F8F4200A46C7F8F020D7F886
:1019F000F4201344C7F8F4304FF000004FF000011A
:101A0000D7E93C452346180A2B4640EA03602B469B
:101A10001912D7F81431B3F908301BB2DA17C7F826
:101A20009830C7F89C20D7F82831D7E926894A464C
:101A300002FB03F2D7F82C31444604FB03F31A44AB
:101A4000D7F828314446A3FB0443C7F8EC302346BB
:101A5000C7F8E830D7F8EC30D318C7F8EC304FF0BF
:101A600000024FF00003D7E93A894C46230344466D
:101A700043EA14534446220384183C6341EB0303B6
:101A80007B63D7E90C34C7E94A34D7E94A2303F525
:101A90000041C7F89410C7F89020D7F81431DB88BC
:101AA0009BB20022C7F88830C7F88C20D7E92445BC
:101AB0002B46D7E92289424602FB03F24B462146D8
:101AC00001FB03F3134422464146A2FB0112C7F86F
:101AD000E4200A46C7F8E020D7F8E4201344C7F80A
:101AE000E4304FF000024FF00003D7E938452946B3
:101AF0004A102946CB17C7E94A23D7E94A2313439B
:101B000001D1002348E1D7F81031C3F58013DA176B
:101B1000BB62FA62D7E90A34C7E94634D7F818310C
:101B20005B10C7F88430D7F81831DB07C7F880306E
:101B3000D7E94823D7E920452146891AB9672946BC
:101B400061EB0303FB67D7E91E4522462B4691183C
:101B500039625B417B62D7E9082321465118B9619C
:101B600029464B41FB614FF000024FF00003D7E9DB
:101B7000068949468B01414643EA916341468A0101
:101B8000414689183961494643EB010179614FF0BB
:101B900000024FF00003D7E9048949468B00414613
:101BA00043EA917341468A0010461946034622468D
:101BB0009B18BB600B462A4642EB0303FB604FF0C9
:101BC00000024FF00003D7E9028949468B004146E5
:101BD00043EA917341468A0010461946034622465D
:101BE0009B183B672B460A4642EB03037B67D7E90A
:101BF0004A23D7E91C01FFF735F902460B46C7E92E
:101C00004623D7F81431B3F916301BB2DA17BB6686
:101C1000FA66D7E946234FF000004FF00001500B61
:101C200040EAC3405913D7E91A452B4600FB03F29B
:101C3000234603FB01F313442246A2FB0012C7F81C
:101C4000DC200A46C7F8D820D7F8DC201344C7F8B0
:101C5000DC30D7E946234FF000004FF00001500B75
:101C600040EAC3405913D7E936452B4600FB03F23F
:101C7000234603FB01F313442246A2FB0012C7F8DC
:101C8000D4200A46C7F8D020D7F8D4201344C7F888
:101C9000D4304FF000024FF00003D7E9344521461D
:101CA0004A0E294642EAC11229464B16C7E94A2381
:101CB000D7F81431B3F914301BB2DA173B667A66E1
:101CC000D7F81831D7E918452A4602FB03F2D7F8AE
:101CD0001C31214601FB03F31344D7F81821214698
:101CE000A2FB0112C7F8CC200A46C7F8C820D7F8D3
:101CF000CC201344C7F8CC304FF000024FF0000363
:101D0000D7E932452146CA0C294642EA41322946E2
:101D1000CB14C7E94823D7E94601D7E94A238418F9
:101D2000BC6541EB0303FB65D7E94823D7E91645BA
:101D3000214689183965294643EB010179654FF041
:101D400000004FF00001D7E914452346180A2B463E
:101D500040EA03602B461912D7F81431B3F9123058
:101D60001BB2DA17BB64FA644FF000024FF00003B5
:101D7000D7E912894C462301444643EA147344468A
:101D8000220184183C6041EB03037B60D7E90034F7
:101D9000C7E94634D7F81831184607F59877BD4695
:101DA000BDE8B08F80B487B000AFF860B9607A60EA
:101DB0007B68A3F596337B61BB689A03FB68B3F934
:101DC0001E301B05D21AFB68B3F9203019467B6917
:101DD00001FB03F3D31A03F58043DB13FA6892F98E
:101DE000222011467A6901FB02F29212F968097FFA
:101DF0000846796900FB01F1C91201F5004101FBB8
:101E000002F2921202F50012F968B1F91A1001FB00
:101E100002F202F50052921302FB03F37B617B692D
:101E2000DB137A69D21302FB03F3DB11FA68127E2B
:101E300002FB03F31B117A69D31A7B617B6923EAE6
:101E4000E3737B617B69B3F1C85FA8BF4FF0C853F0
:101E50007B617B691B1318461C37BD465DF8047B0C
:101E6000704780B58CB000AFF860B9607A603B60B5
:101E7000FB6893F83230602B07D03B68002B02D010
:101E80003B6800221A6000233B603B68002B01D0B6
:101E9000082300E00623FB62FB6ADBB207F11802AD
:101EA000F721F868FFF765FA0346002B01D00023FD
:101EB00038E03B7E1A037B7E1B011343BA7E120976
:101EC000D2B21343BB62FB7E1A033B7F1B01134359
:101ED0007A7F1209D2B213437B6207F114031A46C8
:101EE000796AF868FFF767FC0246BB681A607B698D
:101EF0001A46B96AF868FFF797FC02467B681A60D1
:101F00003B68002B0DD0BB7F1B02FA7F13433B6263
:101F10007B691A46396AF868FFF744FF02463B6856
:101F20001A60012318463037BD4680BD80B588B0A1
:101F300000AFF860B9607A603B603B68002B02D06C
:101F400007F1140300E0002307F1180207F11C0158
:101F5000F868FFF786FF0346002B28D0FB6907EEE1
:101F6000903AB8EEE77ADFED146AC7EE267ABB68DE
:101F7000C3ED007ABB6907EE903AB8EE677ADFED01
:101F80000F6AC7EE267A7B68C3ED007A3B68002BA8
:101F90000BD07B6907EE903AB8EE677ADFED086AFE
:101FA000C7EE267A3B68C3ED007A012300E00023E8
:101FB00018462037BD4680BD0000C842000080435F
:101FC0000000804480B584B000AF19480BF0C2FA1D
:101FD0000023BB601DE040F2DC5303226B21154857
:101FE00006F000FE0346FB71642004F039F8FB792B
:101FF000002B05D110480BF013FB0123FB730BE002
:102000000023FB734FF4FA7004F02AF8BB68013325
:10201000BB60BB68092BDEDDFB7B002B02D10748D0
:102020000BF0FEFAFB7B18461037BD4680BD00BFA3
:1020300070F500085C05002088F5000890F50008A0
:1020400080B584B000AFF860B9607A607B689AB2FE
:102050007B680133B968044809F0A2FA7B68184626
:102060001037BD4680BD00BFA406002080B582B0F9
:1020700000AF78607B680B4A934205D14FF4007241
:102080000949084809F020FB7B68084A934205D1BA
:102090004FF400720649054809F016FB00BF0837E7
:1020A000BD4680BDA406002018020020280700209D
:1020B0001C04002080B582B000AF78607868FFF71C
:1020C000D5FF00BF0837BD4680BD000080B400AF1B
:1020D0000D4BB3F858301A460B4BB3F85A309BB23D
:1020E000D31A03F50073094A12889B1A5A42C3F3A4
:1020F0000803C2F3080258BF53429BB21846BD46BC
:102100005DF8047B704700BFA4060020180400207F
:1021100080B483B000AF0C4B1B885A1C91B20A4AA2
:1021200011801A46094B9B5CFB71074B1B88B3F56A
:10213000007F02D3044B00221A80FB7918460C372B
:10214000BD465DF8047B704718040020180200208B
:1021500080B487B000AF786000237B6131E07B6999
:102160003B610023FB6011E0FB6801337A68134494
:102170001B78002B04D13B690133184A134427E034
:102180003B6901333B61FB680133FB60134A3B69E8
:1021900013441B78FB72FB7A0133114A13441B78FA
:1021A00003F00303012B02D1FB7A203300E0FB7A1A
:1021B000FA6879680A4412789342D5D07B69013372
:1021C0007B61064A7B6913441B78002BC7D100232F
:1021D00018461C37BD465DF8047B70473C04002060
:1021E000E8F9000880B582B000AFFFF76FFF034643
:1021F0003B603B68002B0FD000237B6008E0FFF7BB
:1022000087FF0346184600F00BF87B6801337B60BC
:102210007A683B689A42F2DB00BF0837BD4680BD52
:1022200080B582B000AF0346FB712F4B1B681F2B9C
:1022300007D82D4B1B685A1C2B490A602B49FA7989
:10224000CA54FB790A2B4BD1274B1B68013B274A09
:10225000D35C0D2B04D1244B1B68013B224A136035
:10226000214B1B681A46214B13441F4A1268C2F1C6
:102270002002002118460BF0B3FA1B4B00221A6013
:102280001B48FFF765FF03461A4A934206D01A48D7
:10229000FFF75EFF0346194A934202D100F03CF873
:1022A0001EE01748FFF754FF0346164A93420AD12F
:1022B000154B1B78002B0CBF01230023DBB21A4601
:1022C000114B1A700CE01148FFF742FF0346104A09
:1022D000934205D1A02238210E4803F043FA00BFF3
:1022E0000837BD4680BD00BF5C0400203C040020D0
:1022F000C0F500083D040020C4F50008400400209B
:10230000CCF500084204002000000020D4F50008AD
:1023100043040020B005002080B582B002AF3BA38B
:10232000D3E90023CDE900234FF00002284B2948D0
:102330000BF010F928480BF00DF9284B1B78032BF4
:102340001AD801A252F823F059230008612300088B
:10235000692300087123000821480BF061F90BE0A4
:1023600020480BF05DF907E01F480BF059F903E036
:102370001E480BF055F900BFFEF756FF10EE103A5D
:102380001846FEF7E1F802460B4619480BF0E2F852
:10239000184B1B78C3F30003DBB2194616480BF049
:1023A000D9F8164B1B78C3F30003DBB21946144867
:1023B0000BF0D0F8134B1B78C3F30003DBB21946C4
:1023C00011480BF0C7F800BFBD4680BDAFF30080D9
:1023D0000000F03FDCF5000800F60008AC07002024
:1023E00014F600081CF6000820F6000834F6000871
:1023F00044F60008B007002060F60008BC07002083
:1024000070F60008C807002084F60008000000A04D
:102410009999C93F80B582B000AF022003F0F8F966
:10242000012003F01DFE96230322EE21144806F03E
:10243000D9FB0346FB71642003F012FEFB79002BED
:1024400015D1BA1DEE230D210D4803F0D3F800205D
:1024500003F0DEF9BB79102B04D10A480BF0E0F849
:10246000012308E008480BF0DBF8002303E00748ED
:102470000BF0D6F8002318460837BD4680BD00BFD4
:10248000B00500209CF60008A8F60008B4F6000885
:1024900080B483B000AF78600B46FB707B681B682C
:1024A0001A46FB78013B22FA03F303F00103002BE9
:1024B0000AD07B681B681946FB78012202FA03F3F5
:1024C000CB1A1A467B681A6000BF0C37BD465DF810
:1024D000047B704780B58AB004AF03F0DDF9FA23BE
:1024E0000293122301933B1D009301231022EE213E
:1024F000414806F05DFA03F0D6F93B791A017B7981
:102500001B09DBB203F00F0313431A463B4B1A605F
:102510000C213A48FFF7BCFF384B1B685B081A4692
:10252000364B1A607B791B0203F47063BA7913434C
:102530001A46324B5A600C213148FFF7A9FFFB794C
:102540001A033B7A1B011A437B7A1B09DBB203F0A7
:102550000F0313431A46294B9A6014212948FFF7A9
:1025600097FF7B7A1B0403F47022BB7A1B02134390
:10257000FA7A13431A46214BDA6014212248FFF7F6
:1025800087FF3B7B1B027A7B13431A461B4B1A6166
:1025900010211E48FFF77CFFBB7B1B02FA7B134315
:1025A0001A46164B5A6110211948FFF771FF3B7C00
:1025B0001B027A7C13431A46104B9A61102115486E
:1025C000FFF766FFBB7C1B02FA7C13431A460B4BDA
:1025D000DA6110211048FFF75BFF3B7D1B027A7D1B
:1025E00013431A46054B1A6210210C48FFF750FF9F
:1025F00000BF1837BD4680BDB00500206004002034
:1026000064040020680400206C0400207004002092
:1026100074040020780400207C0400208004002042
:1026200080B588B004AF0346FB7103F035F9FA2397
:1026300002930123019307F10F0300930123092261
:10264000EE21104806F0B4F9FA7907F10F030121E1
:10265000184603F037F8FA2302930123019307F198
:102660000F03009301230922EE21064806F08CF89F
:10267000012003F0F5FC03F016F900BF1037BD464A
:1026800080BD00BFB005002080B588B004AF034610
:10269000FB7103F001F9FA2302930123019307F17F
:1026A0000F03009301230922EE21104806F080F960
:1026B000FA7907F10F03F021184603F032F8FA23F4
:1026C00002930123019307F10F03009301230922D1
:1026D000EE21064806F058F8012003F0C1FC03F093
:1026E000E2F800BF1037BD4680BD00BFB005002036
:1026F00080B586B004AF03F0CFF8FA23029301232C
:102700000193BB1D009301230722EE21184806F018
:102710004FF9FA23029301230193FB1D0093012338
:102720002822EE21124806F043F9FB795BB2002B18
:1027300006DBBB1D00220721184602F0C3FF05E09F
:10274000BB1D01220721184602F0BCFFFA230293A9
:1027500001230193BB1D009301230722EE210448AE
:1027600006F012F803F09FF800BF0837BD4680BDA1
:10277000B005002080B588B004AF03460A46FB715F
:102780001346BB7103F088F8FA79BB791344DBB2C6
:10279000FB73FA2302930123019307F10F030093C4
:1027A00001230722EE21354805F0EEFFFB79072BC8
:1027B0003AD801A252F823F0D9270008E3270008ED
:1027C000ED270008F7270008012800080B2800085B
:1027D000152800081F280008294B4FF400221A6012
:1027E00022E0274B4FF4C0121A601DE0244B4FF437
:1027F00060121A6018E0224B4FF4F0021A6013E0E6
:102800001F4B4FF478321A600EE01D4B4FF4FC2240
:102810001A6009E01A4B4FF47E221A6004E0184B4C
:102820004FF4FF121A6000BFFA23029301230193B1
:1028300007F10F03009301230922EE210F4806F050
:10284000B7F807F10F0300220321184602F03AFF00
:10285000FA2302930123019307F10F03009301234D
:102860000922EE21054805F08FFFFFF741FF03F035
:102870001AF800BF1037BD4680BD00BFB00500206C
:102880008404002080B588B004AF03460A46FB717B
:102890001346BB7103F000F8FA79BB791344DBB23D
:1028A000FB73FA2302930123019307F10F030093B3
:1028B00001230622EE21344805F066FFFB79072B41
:1028C0003AD801A252F823F0E9280008F3280008BA
:1028D000FD28000807290008112900081B29000805
:1028E000252900082F290008284B4FF400221A60E0
:1028F00022E0264B4FF4C0121A601DE0234B4FF428
:1029000060121A6018E0214B4FF4F0021A6013E0D5
:102910001E4B4FF478321A600EE01C4B4FF4FC2231
:102920001A6009E0194B4FF47E221A6004E0174B3D
:102930004FF4FF121A6000BFFA23029301230193A0
:1029400007F10F03009301230922EE210E4806F040
:102950002FF807F10F0300220221184602F0B2FE01
:10296000FA2302930123019307F10F03009301233C
:102970000922EE21044805F007FF02F094FF00BF92
:102980001037BD4680BD00BFB00500208804002080
:1029900080B586B004AF02F07FFFA523BB71FA2398
:1029A000029301230193BB1D009301230E22EE210C
:1029B0002E4805F0E9FE0346FB71FB79002B0FD191
:1029C0009623BB71FA23029301230193BB1D00934D
:1029D00001230F22EE21254805F0D6FE0346FB71A8
:1029E000FB79002B0FD10223BB71FA230293012341
:1029F0000193BB1D009301236222EE211B4805F0C9
:102A0000C3FE0346FB71FB79002B0FD10023BB7182
:102A1000FA23029301230193BB1D009301230E228D
:102A2000EE21124805F0B0FE0346FB71FB79002B46
:102A30000FD10023BB71FA23029301230193BB1D25
:102A4000009301230F22EE21084805F09DFE034666
:102A5000FB7100210020FFF78DFE022000F008F836
:102A600002F021FF00BF0837BD4680BDB005002041
:102A700080B588B004AF0346FB7102F00DFFFB790F
:102A8000FB73FA2302930123019307F10F030093D1
:102A900001230822EE21064805F076FE022003F00D
:102AA000DFFA02F000FF00BF1037BD4680BD00BF57
:102AB000B005002080B58CB004AF0346FB71FB79F4
:102AC00000211846FFF756FE0220FFF7D1FFFB79E1
:102AD000184600F0ABF90346184603F0C1FA01208E
:102AE00003F0BEFA02F0D8FEFA2302930323019307
:102AF00007F11003009301230322EE21254805F07E
:102B000057FF02F0D0FEBB7C1A467B7C1B021A44A6
:102B10003B7C1B041344FB6007F10C03182118468F
:102B2000FFF7B6FC1C4B1B6807EE903AB8EEE77A4D
:102B3000F7EE006AC6EE877AC7ED077AFB6819469A
:102B400016480AF007FDFB6807EE903AF8EEE77AC0
:102B500097ED077A67EE277AC7ED067A104B1B6868
:102B600007EE903AB8EEE77A0D4B5B6807EE903AC5
:102B7000F8EEE76AD7ED067A66EEA77A77EE277A5F
:102B8000C7ED057A7B6907EE903AB0EE670A203709
:102B9000BD4680BDB005002084040020E4F6000896
:102BA0006004002080B58EB004AF0346FB71FB7952
:102BB00000211846FFF7DEFD0220FFF759FFFB79E1
:102BC000184600F033F90346184603F049FA01208D
:102BD00003F046FA02F060FEFA2302930323019306
:102BE00007F11003009301230322EE21844805F02E
:102BF000DFFE02F058FEBB7C1A467B7C1B021A44A7
:102C00003B7C1B041344FB6007F10C03182118469E
:102C1000FFF73EFC7B4B1B6807EE903AB8EEE77A75
:102C2000F7EE006AC6EE877AC7ED097AFB681946A7
:102C300075480AF08FFC786AFDF786FC02460B4661
:102C400072480AF087FCFB6807EE903AF8EEE77AE4
:102C500097ED097A67EE277AC7ED087A386AFDF7AB
:102C600073FC02460B466A480AF074FCFB790021AB
:102C70001846FFF707FE0120FFF7FAFEFB7918461A
:102C800000F0D4F80346184603F0EAF9012003F0F7
:102C9000E7F902F001FEFA2302930323019307F1FF
:102CA0001003009301230022EE21554805F080FE19
:102CB00002F0F9FDBB7C1A467B7C1B021A443B7C6C
:102CC0001B041344BB6007F1080318211846FFF7E3
:102CD000DFFB504B1B6807EE903AB8EEE77AF7EE51
:102CE000006AC6EE877AC7ED077ABB6819464A487C
:102CF0000AF030FCF869FDF727FC02460B4647480E
:102D00000AF028FCBB6807EE903AF8EEE77A97EDF8
:102D1000077A67EE277AC7ED067AB869FDF714FCE3
:102D200002460B463E480AF015FC3E4B9B6807EEF8
:102D3000903AF8EEE77AC7ED057A3A4BDB6807EE92
:102D4000903AB8EEE77A374B9B6907EE903AF8EE87
:102D5000E76A344B1B6A07EE903AB8EEE76AD7EDA4
:102D6000067A66EE277A76EEA76AD7ED067A66EEE1
:102D7000A77A37EE277AD7ED067A67EE277A97EDAE
:102D8000057A77EE277AC7ED057A264B1B6907EEA1
:102D9000903AB8EEE77AD7ED087A67EE277A97EDA2
:102DA000057A77EE277AC7ED057A97ED087AD7EDA1
:102DB000067A27EE277A1B4B5B6907EE903AF8EE0E
:102DC000E76A184BDB6907EE903AB8EEE76AD7ED91
:102DD000067A66EE277A76EEA77A67EE277A97ED7F
:102DE000057A77EE277AC7ED057AD7ED057A9FED5C
:102DF0000E7A67EE877AB0EE670A2837BD4680BD47
:102E0000B005002084040020FCF6000818F7000834
:102E100038F700088804002058F7000874F7000805
:102E200098F70008600400200AD7233C80B483B0E0
:102E300000AF0346FB71FB79102202FA03F314334F
:102E400018460C37BD465DF8047B704780B582B0EC
:102E500000AF03460A46FB711346BB71FFF73AFB0E
:102E6000BB791846FFF710FCFB791846FFF7D8FB33
:102E70000020FFF7FDFDFFF78BFD00BF0837BD46C3
:102E800080BD000080B584B002AF03F074F800F09C
:102E900045FA00F0F9FC00F0D9FC00F0A3FA00F0CC
:102EA0003DFB00F07BFB00F0B9FB00F06FFC00F095
:102EB0009DFC00F007FB00F0F1FB00F07EFA002122
:102EC0005D4807F0ADFD5D48FFF7D0F85C48FFF7BF
:102ED000CDF85C480AF0A4FBFFF774F803461A46E5
:102EE000594B1A7000222021584805F0A1F9002002
:102EF00002F048FBFEF784F903F0A6F8786003F0CF
:102F0000A3F8386000224FF480714FF0904005F034
:102F10008FF902F0CFFC034603F00103D9B24C4A0B
:102F2000137861F30003137002F064FD034603F0AD
:102F30000103D9B2474A137861F300031370454B7C
:102F40001B7803F00103DBB2002B0AD0424A13784E
:102F500043F001031370414A137843F001031370E7
:102F600009E03D4A13786FF3000313703B4A13786E
:102F70006FF30003137002F0B3FD034603F0010387
:102F8000D9B2374A137861F300031370344B1B78BE
:102F900003F00103DBB2002B05D0324A137843F073
:102FA0000103137004E02F4A13786FF300031370CA
:102FB00002F0CAFE034603F00103D9B22A4A13788D
:102FC00061F300031370284B1B7803F00103DBB29D
:102FD000002B0AD0254A137843F001031370244ACA
:102FE000137843F00103137009E0204A13786FF35C
:102FF000000313701E4A13786FF300031370FFF77A
:1030000009FA034603F00103D9B21A4A137861F3AF
:1030100000031370174B1B7803F00103DBB2002B86
:103020002ED0154A137843F001031370134A137816
:1030300043F0010313702DE058060020A406002081
:1030400028070020B8F70008AC070020000400485B
:10305000B0070020BC070020EC070020100800206B
:10306000C80700201C080020D4070020F807002013
:1030700028080020E0070020040800203408002071
:103080008D4A13786FF3000313708C4A13786FF333
:103090000003137000230093032303220321012064
:1030A00002F090FE00210020FFF7D0FE02F07CFA33
:1030B00002F0CAFF02467B68D31A42F20F729342B3
:1030C00040F2E9807E4B1B78DBB2002B00F0E380FE
:1030D00002F0BAFF7860202002F034FCF0EE407A73
:1030E000784B17EE902AC3F8012002F09BFCF0EE1B
:1030F000407A754B17EE902AC3F8012002F0A1FC2C
:10310000F0EE407A714B17EE902AC3F801200020B0
:1031100002F046FDF0EE407A6D4B17EE902AC3F8B0
:103120000120002002F0A8FDF0EE407A694B17EE76
:10313000902AC3F8012002F09DFEF0EE407A664B23
:1031400017EE902AC3F8012002F0C0FEF0EE407A9C
:10315000624B17EE902AC3F8012061480AF060FA2A
:103160000320FFF7A7FCF0EE407A5E4B17EE902AA3
:10317000C3F801200320FFF715FDF0EE407A4E4B17
:1031800017EE902AC3F8012057480AF049FA4D4B30
:10319000D3F801301846FDF7D7F902460B465348DD
:1031A0000AF0D8F952480AF0D5F9474BD3F8013064
:1031B0001846FDF7C9F902460B464E480AF0CAF90F
:1031C0004B480AF0C7F9474BD3F801301846FDF7D2
:1031D000BBF902460B4648480AF0BCF947480AF0DA
:1031E0001FFA47480AF01CFA394BD3F80130184649
:1031F000FDF7AAF902460B4642480AF0ABF94248ED
:103200000AF0A8F9334BD3F801301846FDF79CF9C2
:1032100002460B463B480AF09DF93C480AF000FA8A
:103220003B480AF0FDF9294BD3F801301846FDF769
:103230008BF902460B462F480AF08CF92C480AF00D
:1032400089F9264BD3F801301846FDF77DF902467F
:103250000B4630480AF07EF925480AF07BF9164BF8
:10326000D3F801301846FDF76FF902460B462248A5
:103270000AF070F921480AF0D3F9174BD3F801305E
:103280001846FDF761F902460B4622480AF062F93A
:103290001E480AF0C5F902F0D7FE02463B68D31A71
:1032A0001D2B7FF603AF02F0CFFE386020211A48B5
:1032B00004F0D6FFFAE600BF04080020340800201E
:1032C00000000020B0070020BC070020EC07002011
:1032D000C80700201C080020D4070020F8070020A1
:1032E000CCF70008E0070020DCF70008F0F7000842
:1032F00000F8000808F8000818F8000828F8000886
:1033000030F8000840F800084CF8000854F80008AD
:1033100058F8000868F800080004004880B596B026
:1033200000AF07F114034422002118460AF058FAAE
:103330003B4600221A605A609A60DA601A614FF4C4
:10334000007006F01DF90346002B01D000F05EFB73
:1033500001237B614FF48033BB610223FB630323B2
:103360003B6401237B640A23BB640723FB640223C1
:103370003B6502237B6507F11403184606F056F9F6
:103380000346002B01D000F041FB0F233B600323D9
:103390007B600023BB600023FB6000233B613B4656
:1033A0000221184606F056FD0346002B01D000F01E
:1033B0002DFB00BF5837BD4680BD80B500AF002251
:1033C0000021252004F009F9252004F022F900222B
:1033D0000021262004F001F9262004F01AF900BF8C
:1033E00080BD000080B586B000AF3B4600221A6069
:1033F0005A609A60DA601A615A612F4B2F4A1A603C
:103400002D4B4FF480225A602B4B00229A602A4B9E
:103410000022DA60284B00221A61274B04225A61ED
:10342000254B00221A76244B01225A76224B012288
:10343000DA61214B002283F820201F4B00229A6280
:103440001D4B0022DA621C4B012283F830201A4BFC
:1034500000225A63184B012283F83820164B0C22A5
:10346000DA63154B00221A64134B00225A64124B84
:1034700001229A64104803F005F80346002B01D09E
:1034800000F0C4FA0E4B3B6006237B600723BB6051
:103490007F23FB6004233B6100237B613B4619468D
:1034A000054803F0D9F90346002B01D000F0AEFA2D
:1034B00000BF1837BD4680BD8C04002000000450BA
:1034C000000052C780B500AF124B134A1A60114B6F
:1034D00001221A710F4B01225A710E4B31229A6050
:1034E0000C4B1022DA600B4BFF221A61094B0022B1
:1034F0005A61084B00229A61064B01221A62054864
:1035000004F0A8F80346002B01D000F07FFA00BFBA
:1035100080BD00BF380500200030024080B500AFFC
:103520001B4B1C4A1A601A4B1B4A5A60184B00224C
:103530009A60174B0122DA60154B00221A61144B76
:1035400000225A61124B00229A61114B0022DA616B
:103550000F4B00221A620E4804F09CFE0346002B1B
:1035600001D000F053FA0021094805F063FF03463B
:10357000002B01D000F04AFA0021054805F0A5FF14
:103580000346002B01D000F041FA00BF80BD00BF10
:103590005C050020005400404713300080B500AFA8
:1035A0001B4B1C4A1A601A4B1B4A5A60184B0022CC
:1035B0009A60174B0122DA60154B00221A61144BF6
:1035C00000225A61124B00229A61114B0022DA61EB
:1035D0000F4B4FF400321A620D4804F05BFE0346B5
:1035E000002B01D000F012FA0021094805F022FF5B
:1035F0000346002B01D000F009FA0021044805F031
:1036000064FF0346002B01D000F000FA00BF80BD2C
:10361000B005002000580040EB9B900080B500AF43
:103620001B4B1C4A1A601A4B1B4A5A60184B00224B
:103630009A60174B0122DA60154B00221A61144B75
:1036400000225A61124B00229A61114B0022DA616A
:103650000F4B00221A620E4804F01CFE0346002B9A
:1036600001D000F0D3F90021094805F0E3FE03463C
:10367000002B01D000F0CAF90021054805F025FF14
:103680000346002B01D000F0C1F900BF80BD00BF90
:1036900004060020005C00404713300080B592B063
:1036A00000AF07F12C0300221A605A609A60DA60BA
:1036B0001A615A619A613B462C22002118460AF091
:1036C0008FF8304B304A1A602E4B4FF49C725A6080
:1036D0002C4B00229A602B4B4FF48072DA60294BFE
:1036E00000221A61274B00225A61264B00229A6160
:1036F000244807F0DDF80346002B01D000F086F9DE
:10370000204807F02CF90346002B01D000F07EF989
:103710006023FB6200233B6302237B630023BB63C4
:103720000423FB6300233B6400237B6407F12C0329
:1037300000221946134807F051FA0346002B01D026
:1037400000F064F900233B6000237B600023BB6032
:103750000023FB6000233B614FF400537B61002397
:10376000BB623B461946074807F054FE0346002B50
:1037700001D000F04BF9034801F0B0FC00BF48371E
:10378000BD4680BD580600200044014080B500AF12
:10379000144B154A1A60134B4FF4E1325A60114B27
:1037A00000229A600F4B0022DA600E4B00221A6151
:1037B0000C4B0C225A610B4B00229A61094B0022E0
:1037C000DA61084B00221A62064B00225A62054851
:1037D00007F098FE0346002B01D000F017F900BF58
:1037E00080BD00BFA40600200038014080B500AFB6
:1037F000144B154A1A60134B4FF4E1325A60114BC7
:1038000000229A600F4B0022DA600E4B00221A61F0
:103810000C4B0C225A610B4B00229A61094B00227F
:10382000DA61084B00221A62064B00225A620548F0
:1038300007F068FE0346002B01D000F0E7F800BF58
:1038400080BD00BF280700200044004080B582B042
:1038500000AF0C4B9B6C0B4A43F001039364094B84
:103860009B6C03F001037B607B68002200210B202E
:1038700003F0B3FE0B2003F0CCFE00BF0837BD46BB
:1038800080BD00BF0010024080B58AB000AF07F1D4
:10389000140300221A605A609A60DA601A61574B6A
:1038A000DB6C564A43F00403D364544BDB6C03F0E7
:1038B00004033B613B69514BDB6C504A43F080038E
:1038C000D3644E4BDB6C03F08003FB60FB684B4B17
:1038D000DB6C4A4A43F00103D364484BDB6C03F0D2
:1038E0000103BB60BB68454BDB6C444A43F00203F9
:1038F000D364424BDB6C03F002037B607B680022E5
:103900004FF4CB514FF0904004F092FC002248F26B
:1039100021213B4804F08CFC4FF440437B6103239E
:10392000BB610023FB6107F114031946354804F01D
:1039300005FB48F202037B610323BB610023FB61AB
:1039400007F1140319464FF0904004F0F7FA1023E2
:103950007B610023BB610023FB6107F1140319465F
:103960004FF0904004F0EAFA4FF4CB537B6101230F
:10397000BB610023FB6100233B6207F1140319467E
:103980004FF0904004F0DAFA48F221237B610123E2
:10399000BB610023FB6100233B6207F1140319465E
:1039A000174804F0CBFA41F202037B610023BB61AC
:1039B0000023FB6107F114031946114804F0BEFA15
:1039C00040F60C437B610323BB610023FB6107F1DD
:1039D000140319460A4804F0B1FA08237B61032353
:1039E000BB610023FB6107F114031946064804F08C
:1039F000A5FA00BF2837BD4680BD00BF00100240B9
:103A00000004004800080048001C004880B500AFD2
:103A100072B600BF01222021034804F009FC1F20D8
:103A200001F0B0FDFEE700BF0004004880B500AF24
:103A3000044B01221A70044B05221A7001F033F96D
:103A400000BF80BD740800207508002080B500AF5D
:103A500000F036F80346002B06D000F04AF8034683
:103A6000002B01D0012300E0002303F00103DBB2AF
:103A7000184680BD80B584B000AF7860786800F0EB
:103A800051F90346FB73FB7B002B01D0FB7B00E06D
:103A9000002318461037BD4680BD80B584B000AF06
:103AA0007860786800F04EFC0346FB73FB7B002BCC
:103AB00001D0FB7B00E0002318461037BD4680BDD7
:103AC00080B584B000AF8023BB800023FB8000233F
:103AD000BB603B1D184601F005F90346FB73FB7BF9
:103AE000002B01D0002300E0012318461037BD460B
:103AF00080BD80B584B000AFEC23BB800023FB8089
:103B00000023BB603B1D184601F0ECF80346FB7335
:103B1000FB7B002B01D0002300E001231846103767
:103B2000BD4680BD80B586B000AF0346FB71FB7912
:103B30003B75EC23BB810123FB8107F114033B613F
:103B400007F10C03184601F0CDF80346FB75FB7D29
:103B5000012B01D1012305E0FB7D002B01D00223C5
:103B600000E0002318461837BD4680BD80B586B0FA
:103B700000AF03463960FB7100233B7500237B7562
:103B8000EC23BB810223FB8107F114033B61FB792A
:103B90001846FFF7C7FF0346FB75FB7D002B01D0DE
:103BA000FB7D21E007F10C03184601F083F8034682
:103BB000BB75BB7D012B01D1012315E0BB7D002B23
:103BC00001D0022310E03B7D1B021AB27B7D1BB2A9
:103BD00013431BB29AB23B681A803B681B88002BC8
:103BE00001D1022300E0002318461837BD4680BDEE
:103BF00080B582B000AF0023FB7116E0FB79503333
:103C0000DBB25B00DAB2FB795B0016490B44194664
:103C10001046FFF7ABFF0346BB71BB79002B01D009
:103C2000BB791AE0FB790133FB71FB79062BE5D9EF
:103C30000C4B1B881B0B9BB2DBB21946094800F0EA
:103C4000C5FF034683F00103DBB2002B01D0032341
:103C500003E0054B01221A70002318460837BD46C1
:103C600080BD00BF780800207608002080B586B0AF
:103C700000AF03463960FB7100233B7400237B7463
:103C80000023BB74EC233B8103237B8107F11003EA
:103C9000FB60FB791846FFF745FF0346FB75FB7990
:103CA00003F00F03DA0F13445B101A461B4B53F853
:103CB00022301B4AA2FB03239B09184602F0D0F9CD
:103CC000FB7D002B01D0FB7D24E00020FFF72AFFC5
:103CD0000346FB75FB7D002B01D0FB7D1AE007F14D
:103CE0000803184600F0E6FF0346BB75BB7D012BB9
:103CF00001D101230EE0BB7D002B01D0022309E09E
:103D00003B7C1A047B7C1B021343BA7C1A433B683E
:103D10001A60FB7D18461837BD4680BD04000020A0
:103D2000D34D62102DE9B04F2DED028BDEB000AF08
:103D3000C7F83C01002387F877311B4B1B7883F0D1
:103D40000103DBB2002B04D0FFF752FF034687F8D4
:103D5000773197F87731002B02D097F87731E9E285
:103D6000124B1B785B0087F8673197F8673143F097
:103D7000500387F8673107F5A27297F8673111464B
:103D80001846FFF773FF034687F8773197F87731C6
:103D9000002B02D097F87731CCE2D7F84431002BD2
:103DA00006D10223C6E200BF760800207508002075
:103DB000D7F844311A46CB4B5B891B02D31AC7F89C
:103DC0006031D7F86031DA17C7F83031C7F83421DD
:103DD000C44B9B899BB20022C7F82831C7F82C211D
:103DE000D7E94C010B46D7F8282102FB03F2D7F89C
:103DF0002C31C7E94C01014601FB03F31344D7F80A
:103E00003021D7F82811A2FB01894B4499464FF085
:103E100000024FF000034FEAD85242EA49224FEA2B
:103E2000E953134603F5FA63C7F85C31D7F85C3100
:103E3000B3F5FA6F80F22182D7F86031DA17C7F84C
:103E4000F830C7F8FC20D7F86031DA17C7F8F0303F
:103E5000C7F8F420D7E93E452B46D7E93C894246CE
:103E600002FB03F24B46214601FB03F313442246B7
:103E70004146A2FB0112C7F824210A46C7F82021B7
:103E8000D7F824211344C7F82431D7E948452246FE
:103E90002B469118B9625B41FB62D7E90A232146A0
:103EA0005118C7F8E810294643EB0101C7F8EC1098
:103EB0004FF000024FF00003D7E93A4529464A1077
:103EC0002946CB17C7E95A23D7F85C31DA17C7F868
:103ED000E030C7F8E420D7E938120B46B3F5FA63AF
:103EE000C7F8D830134643F1FF33C7F8DC30D7F8B2
:103EF0005C31DA17C7F8D030C7F8D420D7E93412CC
:103F00000B46B3F5FA63C7F8C830134643F1FF33E5
:103F1000C7F8CC30D7E936452B46D7E93289424637
:103F200002FB03F24B46214601FB03F313442246F6
:103F30004146A2FB0112C7F81C210A46C7F8182106
:103F4000D7F81C211344C7F81C31D7E9464522464F
:103F50002B464FF000004FF00001190141EA1271A9
:103F6000100102460B462146B2EB010A294663EBDB
:103F7000010B4FF000024FF000034FEA8B0343EABE
:103F80009A734FEA8A0292469B4623461AEB030332
:103F9000C7F8C0302B464BEB0303C7F8C430D7E952
:103FA0003023002B07DA12F10F01396243F10003CD
:103FB0007B62D7E908234FF000004FF000011009A1
:103FC00040EA03701911C7E95401D7F85C31DA17D8
:103FD000C7F8B830C7F8BC20D7E92E120B46B3F5A6
:103FE000FA63C7F8B030134643F1FF33C7F8B43073
:103FF000D7F85C31DA17C7F8A830C7F8AC20D7E992
:104000002A120B46B3F5FA63C7F8A030134643F102
:10401000FF33C7F8A430D7E92C452B46D7E92889C8
:10402000424602FB03F24B46214601FB03F31344D5
:1040300022464146A2FB0112C7F814210A46C7F8DE
:104040001021D7F814211344C7F81431D7E9444597
:1040500022462B464FF000004FF00001D90041EA04
:104060005271D00002460B462146511AB9612946C9
:1040700063EB0103FB614FF000024FF00003D7E94F
:10408000068949468B00414643EA917341468A00BE
:1040900010461946034622469B18C7F898302B460F
:1040A0000A4642EB0303C7F89C30D7E92623002BCE
:1040B00007DA12F10F01396143F100037B61D7E99F
:1040C00004234FF000004FF00001100940EA037094
:1040D0001911C7E95201D7F85C21034B9A4280F2CB
:1040E000118105E07808002024FAFFFF0000C84293
:1040F000D7F85C31DA17C7F89030C7F8942040F24F
:10410000DC53D7E924010246D318C7F888300B46A0
:1041100043F10003C7F88C30D7F85C31DA17C7F8E1
:104120008030C7F8842040F2DC53D7E920010246F2
:10413000D318BB670B4643F10003FB67D7E9224561
:104140002B46D7E91E89424602FB03F24B46214625
:1041500001FB03F3134422464146A2FB0112C7F8B8
:104160000C210A46C7F80821D7F80C211344C7F8D8
:104170000C31D7E9424522462B464FF000004FF064
:104180000001190141EA1271100102460B46214655
:1041900051183967294643EB01017967D7E9542360
:1041A000D7E91C4521465118B960294643EB010166
:1041B000F960D7E90234C7E95434D7F85C31DA172B
:1041C000BB66FA6640F2DC53D7E91A010246D318FF
:1041D0003B660B4643F100037B66D7F85C31DA1788
:1041E000BB65FA6540F2DC53D7E916010246D318E5
:1041F0003B650B4643F100037B65D7E918452B4629
:10420000D7E91489424602FB03F24B46214601FBE3
:1042100003F3134422464146A2FB0112C7F80421CE
:104220000A46C7F80021D7F804211344C7F804311F
:10423000D7E9404522462B464FF000004FF00001E1
:10424000D90041EA5271D00002460B46214651186E
:10425000B964294643EB0101F964D7E95223D7E950
:104260001245214651183960294643EB0101796016
:10427000D7E90034C7E9523444E0D7F86031DA179F
:104280003B647A64D7F86031DA17BB63FA63D7E925
:1042900010894B46D7E90EAB524602FB03F25B4650
:1042A000414601FB03F3134442465146A2FB01453C
:1042B0002B441D4622462B464FF000004FF00001D4
:1042C000990041EA9271900002460B461119396338
:1042D0006B417B634FF000024FF00003D7E90C45C0
:1042E00029468A112946CB17C7E95A234FF0000205
:1042F0004FF00003C7E954234FF000024FF00003D2
:10430000C7E95223D7F85C3107EE903AB8EEE78A56
:10431000D7E95A01FCF768FD07EE900A38EE677A94
:104320005FED8E6AC7EE267AD7F83C31C3ED007A8E
:1043300097F87731184607F5BC77BD46BDEC028B80
:10434000BDE8B08F2DE9B04FADF5067D00AFC7F8E1
:10435000C401002387F817322B4B1B7883F001032D
:10436000DBB2002B04D0FFF743FC034687F817327B
:1043700097F81732002B03D097F8173200F01BBCC8
:10438000224B1B785B0087F8FF3197F8FF3143F031
:10439000500387F8FF3107F5E67297F8FF311146B1
:1043A0001846FFF763FC034687F8173297F8173271
:1043B000002B02D097F81732FDE3144B1B785B00FB
:1043C00087F8FF3197F8FF3143F0400387F8FF315A
:1043D00007F5E47297F8FF3111461846FFF746FCDF
:1043E000034687F8173297F81732002B02D097F858
:1043F0001732E0E3D7F8CC31002B03D0D7F8C8311F
:10440000002B05D10223D6E3760800207508002092
:10441000D7F8CC311A46C74B5B891B02D31AC7F8B1
:10442000F831D7F8F831DA17C7F8B831C7F8BC2136
:10443000C04B9B899BB20022C7F8B031C7F8B421AA
:10444000D7E96E010B46D7F8B02102FB03F2D7F88B
:10445000B431C7E96E01014601FB03F31344D7F8F9
:10446000B821D7F8B011A2FB01452B441D464FF0EF
:1044700000024FF00003E20D42EA4522EB1513461D
:1044800003F5FA63C7F8F431D7F8F431B3F5FA6FEE
:1044900080F22782D7F8F831DA17C7F86031C7F809
:1044A0006421D7F8F831DA17C7F8A831C7F8AC217A
:1044B000D7E958010B46D7E96A45224602FB03F2C9
:1044C000C7E96A452B4604460D46214601FB03F326
:1044D00013442246D7F8A811A2FB01AB5B449B46CC
:1044E00052465B469118B9645B41FB64D7E91223DD
:1044F00012EB0A01C7F8581143EB0B03C7F85C3104
:104500004FF000024FF00003D7E9564529464A1004
:104510002946CB17C7E97A23D7F8F431DA17C7F859
:104520005031C7F85421D7E954120B46B3F5FA635A
:10453000C7F84831134643F1FF33C7F84C31D7F879
:10454000F431DA17C7F84031C7F84421D7E95012DF
:104550000B46B3F5FA63C7F83831134643F1FF331E
:10456000C7F83C31D7E952452B46D7E94EAB524606
:1045700002FB03F25B46214601FB03F31344224690
:104580005146A2FB0112C7F8A4210A46C7F8A02190
:10459000D7F8A4211344C7F8A431D7E968452246C7
:1045A0002B464FF000004FF00001190141EA127153
:1045B000100102460B462146B2EB0108294663EB87
:1045C00001094FF000024FF000034FEA890343EA6C
:1045D00098734FEA880290469946234618EB0303E6
:1045E000C7F830312B4649EB0303C7F83431D7E91C
:1045F0004C23002B07DA12F10F01396443F1000359
:104600007B64D7E910234FF000004FF00001100940
:1046100040EA03701911C7E98201D7F8F431DA17BB
:10462000C7F82831C7F82C21D7E94A120B46B3F551
:10463000FA63C7F82031134643F1FF33C7F824313A
:10464000D7F8F431DA17C7F81831C7F81C21D7E9C1
:1046500046120B46B3F5FA63C7F81031134643F11F
:10466000FF33C7F81431D7E948452B46D7E94489C9
:10467000424602FB03F24B46214601FB03F313447F
:1046800022464146A2FB0112C7F89C210A46C7F800
:104690009821D7F89C211344C7F89C31D7E9664587
:1046A00022462B464FF000004FF00001D90041EAAE
:1046B0005271D00002460B462146511AB963294671
:1046C00063EB0103FB634FF000024FF00003D7E9F7
:1046D0000E8949468B00414643EA917341468A0060
:1046E00010461946034622469B18C7F808312B4648
:1046F0000A4642EB0303C7F80C31D7E94223002BEB
:1047000007DA12F10F01396343F100037B63D7E944
:104710000C234FF000004FF00001100940EA037035
:104720001911C7E98001D7F8F421034B9A4280F2AE
:10473000308103E07808002024FAFFFFD7F8F43135
:10474000DA17C7F80031C7F8042140F2DC53D7E983
:1047500040010246D318C7F8F8300B4643F1000376
:10476000C7F8FC30D7F8F431DA17C7F8F030C7F8DB
:10477000F42040F2DC53D7E93C010246D318C7F8D5
:10478000E8300B4643F10003C7F8EC30D7E93E456B
:104790002B46D7E93A89424602FB03F24B462146B3
:1047A00001FB03F3134422464146A2FB0112C7F862
:1047B00094210A46C7F89021D7F894211344C7F8EA
:1047C0009431D7E9644522462B464FF000004FF064
:1047D0000001190141EA1271100102460B462146FF
:1047E0005118C7F8E010294643EB0101C7F8E4105F
:1047F000D7E98223D7E9384521465118B9622946BD
:1048000043EB0101F962D7E90A34C7E98234D7F8EA
:10481000F431DA17C7F8D830C7F8DC2040F2DC539F
:10482000D7E936010246D318C7F8D0300B4643F11A
:104830000003C7F8D430D7F8F431DA17C7F8C83016
:10484000C7F8CC2040F2DC53D7E932010246D31836
:10485000C7F8C0300B4643F10003C7F8C430D7E9AE
:1048600034452B46D7E93089424602FB03F24B46DA
:10487000214601FB03F3134422464146A2FB0112E9
:10488000C7F88C210A46C7F88821D7F88C21134431
:10489000C7F88C31D7E9624522462B464FF000001D
:1048A0004FF00001D90041EA5271D00002460B4698
:1048B00021465118C7F8B810294643EB0101C7F843
:1048C000BC10D7E98023D7E92E452146511839621B
:1048D000294643EB01017962D7E90834C7E98034FE
:1048E00057E0D7F8F831DA17C7F8B030C7F8B42076
:1048F000D7F8F831DA17C7F8A830C7F8AC20D7E9ED
:104900002C452B46D7E92A89424602FB03F24B4647
:10491000214601FB03F3134422464146A2FB011248
:10492000C7F884210A46C7F88021D7F884211344A8
:10493000C7F88431D7E9604522462B464FF0000086
:104940004FF00001990041EA9271900002460B4637
:1049500021465118C7F8A010294643EB0101C7F8BA
:10496000A4104FF000024FF00003D7E92845294674
:104970008A112946CB17C7E97A234FF000024FF07E
:104980000003C7E982234FF000024FF00003C7E99C
:1049900080238C4B9B889BB20022C7F89830C7F8C5
:1049A0009C20D7E926120B46DB0BC7F894300B4648
:1049B0005B04C7F89030834B1B899BB20022C7F879
:1049C0008830C7F88C20D7F8F831DA17C7F880306C
:1049D000C7F88420D7E922452B46D7E920894246EB
:1049E00002FB03F24B46214601FB03F3134422462C
:1049F0004146A2FB0112C7F87C210A46C7F878217C
:104A0000D7F87C211344C7F87C314FF000024FF0F7
:104A10000003D7E95E4521468A09294642EA8162B8
:104A200029468B11D7E9244521468918B9612946C1
:104A300043EB0101F961D7E90634C7E97834D7E9D6
:104A40007801D7E98223841A3C6161EB03037B611F
:104A5000D7E90434C7E978345A4B5B889BB200220B
:104A6000BB67FA67D7E91E120B461B0C7B670B4628
:104A70001B043B67534BDB889BB20022BB66FA6684
:104A8000D7F8F831DA173B667A66D7E91A452B462C
:104A9000D7E91889424602FB03F24B46214601FB47
:104AA00003F3134422464146A2FB0112C7F87421C6
:104AB0000A46C7F87021D7F874211344C7F8743137
:104AC0004FF000024FF00003D7E95C452146CA09C8
:104AD000294642EA41622946CB11D7E91C452146C5
:104AE0008918B960294643EB0101F960D7E902341E
:104AF000C7E97634D7E97601D7E98023841A3C6088
:104B000061EB03037B60D7E90034C7E97634D7F85B
:104B1000C8310022BB65FA65D7F8D831D7E9164508
:104B20002A4602FB03F2D7F8DC31214601FB03F3EE
:104B30001344D7F8D8212146A2FB0112C7F86C21F3
:104B40000A46C7F86821D7F86C211344C7F86C31BE
:104B50004FF000024FF00003D7E95A4521464A0DB5
:104B6000294642EAC12229464B15D7E97801141A91
:104B70003C6563EB01037B654FF000024FF00003DF
:104B8000D7E914452146CA0B294642EA4142294643
:104B9000CB13C7E97423D7E97401FCF725F906EEB6
:104BA000900A9FED097AC6EE877AD7F8C431C3ED33
:104BB000007A97F81732184607F50677BD46BDE824
:104BC000B08F00BF780800200000C84280B485B0D4
:104BD00000AF78600B46FB700023BB817B681B88AD
:104BE0007B817B680E3300221A807B681B88C3F3AD
:104BF0000B039AB27B681A800023FB733CE0FB7BBB
:104C000003F00103DBB2002B0FD0FB7B5B08DBB2B0
:104C10005B007A6813441B881BB2DBB21AB2B7F987
:104C20000C3053401BB2BB810BE0FB7B5B08DBB25B
:104C30005B007A6813441B881B0A9AB2BB895340F5
:104C4000BB810823BB7311E0B7F90C30002B07DAE6
:104C5000BB895B001BB283F440531BB2BB8102E0F3
:104C6000BB895B00BB81BB7B013BBB73BB7B002B68
:104C7000EAD1FB7B0133FB73FB7B0F2BBFD9BB89D5
:104C80001B0BBB817B687A891A80FB789BB2BA893F
:104C90009A420CBF01230023DBB218461437BD46ED
:104CA0005DF8047B704780B400AF00BFBD465DF87F
:104CB000047B704780B586B002AF78607B68198846
:104CC0007B685A687B685B8814200090044803F076
:104CD00065FC0346FB73FB7B18461037BD4680BD61
:104CE000B005002080B586B002AF78607B68198877
:104CF0007B685A687B685B8814200090044803F046
:104D000059FB0346FB73FB7B18461037BD4680BD3D
:104D1000B005002080B582B000AF104B1B6E0F4A6B
:104D200043F0010313660D4B1B6E03F001037B6020
:104D30007B680A4B9B6D094A43F080539365074B90
:104D40009B6D03F080533B603B68002200210520EF
:104D500002F043FC00BF0837BD4680BD0010024092
:104D600080B59AB000AF786007F10C035C22002197
:104D7000184608F035FD7B681B682E4A934255D1D2
:104D80004FF48043FB604FF08053FB6503233B618E
:104D900001237B610823BB610723FB6102233B6284
:104DA00002237B624FF08073BB6207F10C0318464D
:104DB00005F074FA0346002B01D0FEF727FE1E4BC8
:104DC000DB6C1D4A43F40053D3641B4BDB6C03F4D0
:104DD0000053BB60BB68194B194A1A60174B00227D
:104DE0005A60164B00229A60144B0022DA60134B73
:104DF00080221A61114B4FF480725A610F4B4FF4AD
:104E000080629A610D4B2022DA610C4B00221A62FB
:104E10000A4802F01DFE0346002B01D0FEF7F6FD06
:104E20007B68064ADA64054A7B68936200BF68378C
:104E3000BD4680BD0000045000100240F004002078
:104E40000800024080B485B000AF78607B681B68C2
:104E50000A4A93420BD10A4B9B6C094A43F4805394
:104E60009364074B9B6C03F48053FB60FB6800BFAB
:104E70001437BD465DF8047B704700BF0030024028
:104E80000010024080B5A6B000AF786007F184033F
:104E900000221A605A609A60DA601A6107F12803EA
:104EA0005C220021184608F09BFC7B681B68764A50
:104EB00093423ED14023BB624FF48053BB6507F160
:104EC0002803184605F0EAF90346002B01D0FEF747
:104ED0009DFD6E4BDB6C6D4A43F00103D3646B4B5D
:104EE000DB6C03F001037B627B6A4FF4C063C7F89D
:104EF00084301223C7F888300023C7F88C3003238E
:104F0000C7F890300423C7F8943007F1840319469A
:104F10004FF0904003F012F85C4B9B6D5B4A43F4FA
:104F200000139365594B9B6D03F400133B623B6A7E
:104F3000A6E07B681B68564A93423DD18023BB6242
:104F40004FF48043FB6507F12803184605F0A6F9E6
:104F50000346002B01D0FEF759FD4C4BDB6C4B4A4E
:104F600043F00203D364494BDB6C03F00203FB61A3
:104F7000FB694FF4C043C7F884301223C7F8883068
:104F80000023C7F88C300323C7F890300423C7F8F8
:104F9000943007F1840319463E4802F0CFFF3B4BA3
:104FA0009B6D3A4A43F480039365384B9B6D03F441
:104FB0008003BB61BB6963E07B681B68364A934230
:104FC0005ED14FF48073BB624FF480333B6607F1D0
:104FD0002803184605F062F90346002B01D0FEF7BE
:104FE00015FD2A4BDB6C294A43F00103D364274BA0
:104FF000DB6C03F001037B617B69244BDB6C234A90
:1050000043F00203D364214BDB6C03F002033B61EA
:105010003B698023C7F884301223C7F88830002307
:10502000C7F88C300323C7F890300423C7F89430B6
:1050300007F1840319464FF0904002F07FFF1023E0
:10504000C7F884301223C7F888300023C7F88C30A3
:105050000323C7F890300423C7F8943007F1840382
:1050600019460C4802F06AFF084B9B6D074A43F44F
:1050700000039365054B9B6D03F40003FB60FB6825
:1050800000BF9837BD4680BD00540040001002406C
:105090000058004000040048005C004080B485B027
:1050A00000AF78607B681B680A4A93420BD10A4BB9
:1050B0001B6E094A43F400331366074B1B6E03F45F
:1050C0000033FB60FB6800BF1437BD465DF8047B0E
:1050D000704700BF004401400010024080B588B016
:1050E00000AF786007F10C0300221A605A609A60E2
:1050F000DA601A617B681B68114A93421CD1114B1C
:10510000DB6C104A43F00203D3640E4BDB6C03F0FC
:105110000203BB60BB684FF48073FB6002233B61FA
:1051200000237B610023BB610E23FB6107F10C03AD
:105130001946054802F002FF00BF2037BD4680BD7A
:1051400000440140001002400004004880B5A2B0B5
:1051500000AF786007F1740300221A605A609A6009
:10516000DA601A6107F118035C220021184608F082
:1051700037FB7B681B683F4A934238D10123BB61F0
:105180000123BB6307F11803184605F087F80346AF
:10519000002B01D0FEF73AFC374B1B6E364A43F426
:1051A00080431366344B1B6E03F480437B617B6941
:1051B000314BDB6C304A43F00203D3642E4BDB6C83
:1051C00003F002033B613B69C0237B670223BB679B
:1051D0000023FB670323C7F880300723C7F8843018
:1051E00007F174031946254802F0A8FE3DE07B68EC
:1051F0001B68234A934238D10223BB610423FB631B
:1052000007F11803184605F049F80346002B01D0B2
:10521000FEF7FCFB184B9B6D174A43F40033936574
:10522000154B9B6D03F40033FB60FB68124BDB6C8A
:10523000114A43F00103D3640F4BDB6C03F001030D
:10524000BB60BB680C237B670223BB670023FB6743
:105250000323C7F880300723C7F8843007F17403AD
:1052600019464FF0904002F069FE00BF8837BD46F6
:1052700080BD00BF0038014000100240000400481B
:105280000044004080B400AFFEE780B400AFFEE70A
:1052900080B400AFFEE780B400AFFEE780B400AF9B
:1052A000FEE780B400AF00BFBD465DF8047B7047E9
:1052B00080B400AF00BFBD465DF8047B704780B48A
:1052C00000AF00BFBD465DF8047B704780B500AFFE
:1052D00000F0A6FE02F0B7F900BF80BD80B500AFB8
:1052E000024802F04CFD00BF80BD00BFF00400206A
:1052F00080B500AF024806F03DFA00BF80BD00BF98
:10530000A406002080B500AF024806F033FA00BFC3
:1053100080BD00BF2807002080B400AF01231846DD
:10532000BD465DF8047B704780B582B000AF786001
:10533000396008F0A7FA034616221A604FF0FF33CF
:1053400018460837BD4680BD80B582B000AF786092
:105350004FF0FF317868FFF7E7FFFEE780B586B0D2
:1053600000AFF860B9607A6000237B610AE0AFF3B8
:1053700000800146BB685A1CBA60CAB21A707B69C9
:1053800001337B617A697B689A42F0DB7B6818465F
:105390001837BD4680BD80B483B000AF78604FF051
:1053A000FF3318460C37BD465DF8047B704780B468
:1053B00083B000AF786039603B684FF400525A60A8
:1053C000002318460C37BD465DF8047B704780B457
:1053D00083B000AF7860012318460C37BD465DF8F6
:1053E000047B704780B485B000AFF860B9607A6024
:1053F000002318461437BD465DF8047B7047000053
:1054000080B586B000AF7860144A154BD31A7B6123
:105410007B693B61134B1B68002B02D1114B124A75
:105420001A60104B1A687B6813443A699A4207D293
:1054300008F028FA03460C221A604FF0FF3309E007
:10544000084B1B68FB60074B1A687B681344054ACE
:105450001360FB6818461837BD4680BD0000012068
:105460000004000088080020F009002080B400AF8C
:10547000064BD3F88830054A43F47003C2F88830ED
:1054800000BFBD465DF8047B704700BF00ED00E043
:1054900080B500AF2E4B1B88002B4BD02D4B1B68CB
:1054A00001332C4A13602B4B1B68294A1288934204
:1054B00040D3284B00221A60274B1B680133264A31
:1054C0001360254B1A68254B1B681B0C40339A420E
:1054D00016D3214B00221A60204B1B689BB24FF65B
:1054E000FF72934204D01D4B1B68013B1B4A1360A3
:1054F0001A4B1B689BB2002B02D1154B00221A805D
:10550000154B1B683F2B03D9002000F03BF81CE033
:10551000114B1B681F2B06D90F4B1B68DBB2C3F165
:105520003F03DBB202E00C4B1B68DBB2184600F015
:1055300029F80AE0064B1B88002B06D1054B0022F8
:105540001A60054B00221A60FFE700BF80BD00BF54
:105550008C08002094080020980800209008002063
:1055600080B483B000AF0346FB71054B1B68FA792A
:105570005A6300BF0C37BD465DF8047B704700BF1F
:105580005806002080B582B000AF0346FB71FB795E
:10559000044AD35C1846FFF7E3FF00BF0837BD4657
:1055A00080BD00BFC8F9000880B500AFFCF71AFE47
:1055B00000BF80BD80B584B000AF78600B46FB7043
:1055C0000B4802F047F80A4B1B689A68084B1B68A7
:1055D00042F001029A60FB781A467968044802F0AA
:1055E0009DF8F860FB68DBB218461037BD4680BDF9
:1055F0003805002080B58AB004AFF8607A601A469A
:105600000B467B8113467B727B7A99B27A89082399
:1056100002930123019307F1160300930123F86815
:1056200003F0C6F90346FB75BA7D7B681A70FB7DF3
:1056300018461837BD4680BD80B58AB004AFF86003
:105640007A601A460B467B8113467B727B7A99B24D
:105650007A89082302930223019307F1140300932C
:105660000123F86803F0A4F90346FB75BA8A7B6846
:105670001A80FB7D18461837BD4680BD80B58AB0BC
:1056800004AFF860084611461A4603467B810B4674
:105690003B811346FB713B89BB82FB7999B27A89C6
:1056A000082302930223019307F1140300930123BB
:1056B000F86803F069F80346FB75FB7D1846183758
:1056C000BD4680BD80B485B000AFF860B9607A6037
:1056D0007B68002B0FD1FB681B785AB20121BB6895
:1056E00001FA03F35BB2DB435BB213405BB2DAB2A5
:1056F000FB681A700FE07B68012B0CD1FB681B78EC
:105700005AB20121BB6801FA03F35BB213435BB2E7
:10571000DAB2FB681A7000BF1437BD465DF8047B2F
:10572000704780B483B000AF78600B46FB701346BF
:10573000BB707B681B785AB297F90330DB435BB2CE
:1057400013405AB2B978FB780B40DBB25BB213431B
:105750005BB2DAB27B681A7000BF0C37BD465DF8E9
:10576000047B704780B584B000AF78600B46FB7057
:105770001346BB70184807F053FFFB78FB7322E019
:10578000FB7B9BB25B0099B24FF4FA7303227868FB
:1057900003F028FA0346BB73642000F061FCBB7B76
:1057A000002B05D1FB7B19460C4807F0D3FE07E020
:1057B000FB7B19460A4807F0CDFE642000F050FC40
:1057C000FB7B0133FB73FA7BBB789A42D8D900BFCD
:1057D00000BF1037BD4680BD78F8000894F8000877
:1057E000ACF8000880B483B000AF0346FB80FB88B0
:1057F0001B021AB2FB881B0A9BB21BB213431BB2DB
:105800009BB218460C37BD465DF8047B704700001C
:1058100080B586B002AF0346FB71FB79012B02D045
:10582000FB79022B1FD101224FF480714FF0904081
:1058300002F0FEFC012000F013FCFB79013B012289
:1058400002FA03F3DBB2FB7307F10F024FF0FF33F1
:1058500000930123E4210E4802F0ACFD012000F08A
:10586000FFFB00BF10E0FB79002B0AD100224FF4B0
:1058700080714FF0904002F0DBFC012000F0F0FB63
:1058800002E0044807F0CCFE00BF1037BD4680BDE3
:10589000B0050020CCF8000880B500AF0220FFF76B
:1058A000B7FF00BF80BD80B500AF0020FFF7B0FF9D
:1058B00000BF80BD80B582B000AF4FF4FA73032201
:1058C0009221144803F08EF90346FB71642000F026
:1058D000C7FBFB79002B14D13A1D92230F210D48F1
:1058E000FFF7AAFEBB8841F20172934204D10A4835
:1058F00007F096FE012308E0084807F091FE002318
:1059000003E0074807F08CFE002318460837BD4621
:1059100080BD00BFB0050020E0F80008ECF80008EA
:10592000F8F8000880B500AF92234FF40872012107
:105930000348FFF7A3FE012000F092FB00BF80BDEB
:10594000B005002080B584B000AF0346FB71FFF7BF
:10595000E9FF07F10C02922301212448FFF76CFEB6
:10596000BB891846FFF73EFF0346FB81FB799AB2DD
:10597000FB891343FB81FB8943F44063FB81FB8973
:105980001846FFF72FFF0346BB81BA8992230121F6
:105990001648FFF773FE022000F062FBFB79002B34
:1059A00002D0FB79202B03D1C82000F059FB03E083
:1059B0004FF4966000F054FB07F10A029223002195
:1059C0000A48FFF739FE7B891846FFF70BFF0346AD
:1059D00007EE903AF8EE677A9FED057A67EE877AE0
:1059E000B0EE670A1037BD4680BD00BFB00500208D
:1059F0000000003C80B500AFFEF718F8FEF726F86F
:105A00000346002B04D0054807F00AFE012303E0FB
:105A1000034807F005FE0023184680BD08F900087A
:105A200014F9000880B582B000AF3B1D1846FEF7A0
:105A300021F87B6807EE903AB0EE670A0837BD465A
:105A400080BD80B582B000AF3B1D1846FEF725F83B
:105A50007B6807EE903AB0EE670A0837BD4680BD16
:105A600080B584B002AF41F23573BB803A1D9623F6
:105A700000930323E021094802F09CFC0346FB71DC
:105A80000D2000F0EDFAFB79002B01D1012300E09D
:105A9000002318460837BD4680BD00BFB005002072
:105AA00080B584B002AF49F6B003BB803A1D96239F
:105AB00000930323E021094802F07CFC0346FB71BC
:105AC000022000F0CDFAFB79002B01D1012300E088
:105AD000002318460837BD4680BD00BFB005002032
