:020000040800F2
:10000000000001206D8400085D6800086168000838
:1000100065680008696800086D6800080000000055
:1000200000000000000000000000000071D3000884
:10003000716800080000000001D4000865D40008C1
:10004000BD840008BD840008BD840008BD8400088C
:10005000BD840008BD840008BD840008BD8400087C
:10006000BD840008BD840008BD84000875680008D0
:10007000BD840008BD840008BD840008BD8400085C
:10008000BD840008BD840008BD840008BD8400084C
:10009000BD840008BD840008BD840008BD8400083C
:1000A000BD840008BD840008BD840008BD8400082C
:1000B000BD8400080000000000000000BD840008AE
:1000C000BD840008BD840008BD840008BD8400080C
:1000D000BD840008816800088D680008BD840008A0
:1000E000BD840008BD84000800000000000000007E
:1000F0000000000000000000000000000000000000
:1001000000000000BD84000800000000BD8400085D
:100110000000000000000000BD840008996800088D
:10012000BD840008BD840008BD840008BD840008AB
:10013000BD84000800000000000000000000000076
:10014000BD840008BD840008BD84000800000000D4
:10015000BD840008BD840008BD840008BD8400087B
:10016000BD840008BD840008BD84000800000000B4
:10017000BD840008BD8400080000000000000000ED
:0C018000BD840008BD840008BD84000898
:1001900010B5054C237833B9044B13B10448AFF3C1
:1001A00000800123237010BD000200200000000029
:1001B000C82C010808B5034B1BB103490348AFF332
:1001C000008008BD0000000004020020C82C0108C7
:1001D00010F8012B11F8013B012A28BF9A42F7D0F1
:1001E000D01A70470000000000000000000000006E
:1001F00001F0FF01102A2BDB10F0070F08D010F8D8
:10020000013B013A8B422DD010F0070F42B3F6D1DB
:10021000F0B441EA012141EA014122F007047FF0F4
:1002200000070023F0E80256083C85EA010586EA4B
:10023000010685FA47F5A3FA87F586FA47F6A5FA87
:1002400087F68EB9EED1F0BC01F0FF0102F0070293
:1002500032B110F8013B013A83EA010313B1F8D13E
:100260000020704701387047002D06BF354603381F
:10027000073815F0010F07D1013015F4807F02BF58
:10028000013015F4C03F0130F0BC0138704700BFA9
:10029000034613F8012B002AFBD1181A01387047C6
:1002A00081F0004102E000BF83F0004330B54FEA27
:1002B00041044FEA430594EA050F08BF90EA020F94
:1002C0001FBF54EA000C55EA020C7FEA645C7FEA27
:1002D000655C00F0E2804FEA5454D4EB5555B8BF4A
:1002E0006D420CDD2C4480EA020281EA030382EABB
:1002F000000083EA010180EA020281EA0303362D4D
:1003000088BF30BD11F0004F4FEA01314FF4801C1F
:100310004CEA113102D0404261EB410113F0004F31
:100320004FEA03334CEA133302D0524263EB4303E8
:1003300094EA050F00F0A780A4F10104D5F1200E86
:100340000DDB02FA0EFC22FA05F2801841F10001E1
:1003500003FA0EF2801843FA05F359410EE0A5F1B5
:1003600020050EF1200E012A03FA0EFC28BF4CF0E6
:10037000020C43FA05F3C01851EBE37101F000459C
:1003800007D54FF0000EDCF1000C7EEB00006EEBA9
:100390000101B1F5801F1BD3B1F5001F0CD3490833
:1003A0005FEA30004FEA3C0C04F101044FEA44528A
:1003B00012F5800F80F09A80BCF1004F08BF5FEA11
:1003C000500C50F1000041EB045141EA050130BDF1
:1003D0005FEA4C0C404141EB0101013C28BFB1F503
:1003E000801FE9D291F0000F04BF01460020B1FA4E
:1003F00081F308BF2033A3F10B03B3F120020CDA21
:100400000C3208DD02F1140CC2F10C0201FA0CF0FE
:1004100021FA02F10CE002F11402D8BFC2F1200C63
:1004200001FA02F120FA0CFCDCBF41EA0C01904019
:10043000E41AA2BF01EB0451294330BD6FEA040462
:100440001F3C1CDA0C340EDC04F11404C4F120024D
:1004500020FA04F001FA02F340EA030021FA04F35F
:1004600045EA030130BDC4F10C04C4F1200220FAB6
:1004700002F001FA04F340EA0300294630BD21FAF4
:1004800004F0294630BD94F0000F83F4801306BFBA
:1004900081F480110134013D4EE77FEA645C18BFAE
:1004A0007FEA655C29D094EA050F08BF90EA020F45
:1004B00005D054EA000C04BF1946104630BD91EA3D
:1004C000030F1EBF0021002030BD5FEA545C05D140
:1004D0004000494128BF41F0004130BD14F580047F
:1004E0003CBF01F5801130BD01F0004545F0FE41F3
:1004F00041F470014FF0000030BD7FEA645C1ABF28
:10050000194610467FEA655C1CBF0B46024650EA5E
:10051000013406BF52EA033591EA030F41F400218A
:1005200030BD00BF90F0000F04BF0021704730B510
:100530004FF4806404F132044FF000054FF00001E5
:1005400050E700BF90F0000F04BF0021704730B5A6
:100550004FF4806404F1320410F0004548BF40427B
:100560004FF000013EE700BF42004FEAE2014FEAD0
:1005700031014FEA02701FBF12F07F4393F07F4FAB
:1005800081F06051704732F07F4208BF704793F0AE
:100590007F4F04BF41F40021704730B54FF46074C1
:1005A00001F0004521F000411CE700BF50EA0102C4
:1005B00008BF704730B54FF000050AE050EA01026D
:1005C00008BF704730B511F0004502D5404261EBDD
:1005D00041014FF4806404F132045FEA915C3FF41E
:1005E000D8AE4FF003025FEADC0C18BF03325FEABB
:1005F000DC0C18BF033202EBDC02C2F1200300FA6C
:1006000003FC20FA02F001FA03FE40EA0E0021FA90
:1006100002F11444BDE600BF70B54FF0FF0C4CF47E
:10062000E06C1CEA11541DBF1CEA135594EA0C0F30
:1006300095EA0C0F00F0DEF82C4481EA030621EA6B
:100640004C5123EA4C5350EA013518BF52EA0335A6
:1006500041F4801143F4801338D0A0FB02CE4FF058
:100660000005E1FB02E506F00042E0FB03E54FF088
:100670000006E1FB03569CF0000F18BF4EF0010E80
:10068000A4F1FF04B6F5007F64F5407404D25FEA7C
:100690004E0E6D4146EB060642EAC62141EA55512F
:1006A0004FEAC52040EA5E504FEACE2EB4F1FD0C71
:1006B00088BFBCF5E06F1ED8BEF1004F08BF5FEAEF
:1006C000500E50F1000041EB045170BD06F00046A1
:1006D00046EA010140EA020081EA0301B4EB5C044E
:1006E000C2BFD4EB0C0541EA045170BD41F4801146
:1006F0004FF0000E013C00F3AB8014F1360FDEBF6B
:10070000002001F0004170BDC4F10004203C35DA46
:100710000C341BDC04F11404C4F1200500FA05F3C9
:1007200020FA04F001FA05F240EA020001F000426A
:1007300021F0004110EBD37021FA04F642EB0601E0
:100740005EEA430E08BF20EAD37070BDC4F10C040A
:10075000C4F1200500FA04F320FA05F001FA04F2CE
:1007600040EA020001F0004110EBD37041F10001BA
:100770005EEA430E08BF20EAD37070BDC4F12005C5
:1007800000FA05F24EEA020E20FA04F301FA05F22D
:1007900043EA020321FA04F001F0004121FA04F2D5
:1007A00020EA020000EBD3705EEA430E08BF20EAA5
:1007B000D37070BD94F0000F0FD101F000464000DF
:1007C00041EB010111F4801F08BF013CF7D041EA61
:1007D000060195F0000F18BF704703F00046520065
:1007E00043EB030313F4801F08BF013DF7D043EA36
:1007F0000603704794EA0C0F0CEA135518BF95EAEC
:100800000C0F0CD050EA410618BF52EA4306D1D172
:1008100081EA030101F000414FF0000070BD50EA91
:10082000410606BF1046194652EA430619D094EA1B
:100830000C0F02D150EA013613D195EA0C0F05D105
:1008400052EA03361CBF104619460AD181EA030159
:1008500001F0004141F0FE4141F470014FF0000011
:1008600070BD41F0FE4141F4780170BD70B54FF0AC
:10087000FF0C4CF4E06C1CEA11541DBF1CEA13552C
:1008800094EA0C0F95EA0C0F00F0A7F8A4EB05040E
:1008900081EA030E52EA03354FEA013100F0888005
:1008A0004FEA03334FF0805545EA131343EA1263CE
:1008B0004FEA022245EA111545EA10654FEA002683
:1008C0000EF000419D4208BF964244F1FD0404F53C
:1008D000407402D25B084FEA3202B61A65EB030598
:1008E0005B084FEA32024FF480104FF4002CB6EB55
:1008F000020E75EB030E22BFB61A754640EA0C00D5
:100900005B084FEA3202B6EB020E75EB030E22BF14
:10091000B61A754640EA5C005B084FEA3202B6EB55
:10092000020E75EB030E22BFB61A754640EA9C0014
:100930005B084FEA3202B6EB020E75EB030E22BFE4
:10094000B61A754640EADC0055EA060E18D04FEAA2
:10095000051545EA16754FEA06164FEAC30343EA42
:1009600052734FEAC2025FEA1C1CC0D111F4801F0F
:100970000BD141EA00014FF000004FF0004CB6E708
:1009800011F4801F04BF01430020B4F1FD0C88BFA7
:10099000BCF5E06F3FF6AFAEB5EB030C04BFB6EBB2
:1009A000020C5FEA500C50F1000041EB045170BDA5
:1009B0000EF0004E4EEA113114EB5C04C2BFD4EBD2
:1009C0000C0541EA045170BD41F480114FF0000E56
:1009D000013C90E645EA060E8DE60CEA135594EAD2
:1009E0000C0F08BF95EA0C0F3FF43BAF94EA0C0FD5
:1009F0000AD150EA01347FF434AF95EA0C0F7FF44A
:100A000025AF104619462CE795EA0C0F06D152EA9D
:100A100003353FF4FDAE1046194622E750EA410681
:100A200018BF52EA43067FF4C5AE50EA41047FF492
:100A30000DAF52EA43057FF4EBAE12E74FF0FF3CF7
:100A400006E000BF4FF0010C02E000BF4FF0010CC8
:100A50004DF804CD4FEA410C7FEA6C5C4FEA430C41
:100A600018BF7FEA6C5C1BD001B050EA410C0CBF90
:100A700052EA430C91EA030F02BF90EA020F0020F2
:100A8000704710F1000F91EA030F58BF994208BF59
:100A900090422CBFD8176FEAE37040F00100704716
:100AA0004FEA410C7FEA6C5C02D150EA013C07D16D
:100AB0004FEA430C7FEA6C5CD6D152EA033CD3D0B8
:100AC0005DF8040B704700BF8446104662468C46B2
:100AD0001946634600E000BF01B5FFF7B7FF0028E5
:100AE00048BF10F1000F01BD4DF808EDFFF7F4FF0E
:100AF0000CBF012000205DF808FB00BF4DF808ED99
:100B0000FFF7EAFF34BF012000205DF808FB00BFBB
:100B10004DF808EDFFF7E0FF94BF012000205DF8DD
:100B200008FB00BF4DF808EDFFF7CEFF94BF012092
:100B300000205DF808FB00BF4DF808EDFFF7C4FF8B
:100B400034BF012000205DF808FB00BF4FEA410CD4
:100B50007FEA6C5C02D150EA013C0AD14FEA430CB7
:100B60007FEA6C5C02D152EA033C02D14FF00000F4
:100B700070474FF0010070474FEA410212F5001232
:100B800015D211D56FF47873B3EB625212D94FEAD4
:100B9000C12343F0004343EA505311F0004F23FABE
:100BA00002F018BF404270474FF00000704750EA13
:100BB000013005D111F0004008BF6FF000407047D0
:100BC0004FF00000704700BF4A0011D212F500122A
:100BD00011D20DD56FF47873B3EB62520ED44FEA95
:100BE000C12343F0004343EA505323FA02F0704715
:100BF0004FF00000704750EA013002D14FF0FF3053
:100C000070474FF0000070474FEA4102B2F1E043F5
:100C100024BFB3F5001CDCF1FE5C0DD901F0004CE3
:100C20004FEAC0024CEA5070B2F1004F40EB830033
:100C300008BF20F00100704711F0804F21D113F15F
:100C40003872BCBF01F00040704741F480114FEA98
:100C50005252C2F11802C2F1200C10FA0CF320FA21
:100C600002F018BF40F001004FEAC1234FEAD3233E
:100C700003FA0CFC40EA0C0023FA02F34FEA4303A8
:100C8000CCE77FEA625307D150EA01331EBF4FF031
:100C9000FE4040F44000704701F0004040F0FE404C
:100CA00040F40000704700BF80F0004002E000BF49
:100CB00081F0004142001FBF5FEA410392EA030F47
:100CC0007FEA226C7FEA236C6AD04FEA1262D2EB91
:100CD0001363C1BFD218414048404140B8BF5B4296
:100CE000192B88BF704710F0004F40F4000020F02F
:100CF0007F4018BF404211F0004F41F4000121F045
:100D00007F4118BF494292EA030F3FD0A2F101028E
:100D100041FA03FC10EB0C00C3F1200301FA03F1CC
:100D200000F0004302D5494260EB4000B0F5000FEF
:100D300013D3B0F1807F06D340084FEA310102F1AE
:100D40000102FE2A51D2B1F1004F40EBC25008BF60
:100D500020F0010040EA03007047490040EB00002A
:100D6000013A28BFB0F5000FEDD2B0FA80FCACF12B
:100D7000080CB2EB0C0200FA0CF0AABF00EBC25058
:100D800052421843BCBFD0401843704792F0000F46
:100D900081F4000106BF80F400000132013BB5E799
:100DA0004FEA41037FEA226C18BF7FEA236C21D00F
:100DB00092EA030F04D092F0000F08BF0846704774
:100DC00090EA010F1CBF0020704712F07F4F04D142
:100DD000400028BF40F00040704712F100723CBF55
:100DE00000F50000704700F0004343F0FE4040F47F
:100DF000000070477FEA226216BF08467FEA23633D
:100E00000146420206BF5FEA412390EA010F40F427
:100E1000800070474FF0000304E000BF10F0004373
:100E200048BF40425FEA000C08BF704743F096435A
:100E300001464FF000001CE050EA010208BF704775
:100E40004FF000030AE000BF50EA010208BF7047FC
:100E500011F0004302D5404261EB41015FEA010C11
:100E600002BF84460146002043F0B64308BFA3F109
:100E70008053A3F50003BCFA8CF2083AA3EBC253EB
:100E800010DB01FA02FC634400FA02FCC2F120020A
:100E9000BCF1004F20FA02F243EB020008BF20F041
:100EA0000100704702F1200201FA02FCC2F12002A7
:100EB00050EA4C0021FA02F243EB020008BF20EA9C
:100EC000DC7070477BB972B90029BEBF00204FF0BB
:100ED000004106E008BF00281CBF6FF000414FF042
:100EE000FF3000F0F1B9ADF1080C6DE904CE002936
:100EF00009DB002B1ADB00F083F8DDF804E0DDE904
:100F0000022304B07047404261EB4101002B1BDB20
:100F100000F076F8DDF804E0DDE9022304B0404299
:100F200061EB4101524263EB43037047524263EB72
:100F3000430300F065F8DDF804E0DDE9022304B0C6
:100F4000404261EB41017047524263EB430300F0C2
:100F500057F8DDF804E0DDE9022304B0524263EB08
:100F60004303704753B94AB9002908BF00281CBF82
:100F70004FF0FF314FF0FF3000F0A6B9ADF1080C93
:100F80006DE904CE00F03CF8DDF804E0DDE9022371
:100F900004B0704738B50022002304460D46FFF721
:100FA000ADFD28B920462946BDE8384000F00AB812
:100FB000204605F1004100F005F8404261EB410197
:100FC00038BD00BFD0B50C4B002206460F46FFF7D8
:100FD00023FBFFF7F9FD0446FFF7A4FA074B0022B5
:100FE000FFF71AFB02460B4630463946FFF75CF91D
:100FF000FFF7EAFD2146D0BD0000F03D0000F041C2
:101000002DE9F047089E0D4604460F46002B4AD1B5
:101010008A42944665D9B2FA82F343B102FA03FCDC
:10102000C3F120029F4020FA02F217439C404FEA8E
:101030001C4E1FFA8CF5B7FBFEF1220C0EFB11774C
:1010400042EA074201FB05F090420AD91CEB02027A
:1010500001F1FF3780F01C81904240F21981023982
:101060006244121AA4B2B2FBFEF00EFB102244EA54
:10107000024400FB05F5A5420AD91CEB040400F16B
:10108000FF3280F00781A54240F2048164440238B7
:1010900040EA0140641B00211EB1DC400023C6E988
:1010A0000043BDE8F0878B4208D9002E00F0ED80A8
:1010B0000021C6E900050846BDE8F087B3FA83F1D0
:1010C000002949D1AB4202D3824200F2F880841A4F
:1010D00065EB030201201746002EE2D0C6E9004767
:1010E000DFE702B9FFDEB2FA82F3002B40F0908016
:1010F0008A1A4FEA1C471FFA8CFE0121B2FBF7F552
:1011000007FB1520220C42EA00420EFB05F090423C
:1011100008D91CEB020205F1FF3802D2904200F21E
:10112000CB804546121AA4B2B2FBF7F007FB10229F
:1011300044EA02440EFB00FEA64508D91CEB040459
:1011400000F1FF3202D2A64500F2BB801046A4EBAC
:101150000E0440EA05409FE7C1F120078B4022FAC8
:1011600007FC4CEA030C05FA01F420FA07F3FD40F2
:101170004FEA1C492343B5FBF9F81FFA8CFE09FB23
:1011800018551C0C44EA054408FB0EF5A54202FA6A
:1011900001F200FA01F00BD91CEB040408F1FF3A4C
:1011A00080F08880A54240F28580A8F1020864445E
:1011B000641B9DB2B4FBF9F309FB134445EA0444F4
:1011C00003FB0EFEA64508D91CEB040403F1FF3512
:1011D0006CD2A6456AD9023B644443EA0843A3FBA8
:1011E0000295A4EB0E04AC42C846AE4656D353D08B
:1011F00056B1B0EB080264EB0E0404FA07F7CA40DC
:10120000CC401743C6E9007418460021BDE8F087BA
:10121000C3F1200102FA03FC20FA01F225FA01F1E0
:101220009D402A434FEA1C471FFA8CFEB1FBF7F0A2
:1012300007FB1015110C41EA054100FB0EF58D422C
:1012400004FA03F408D91CEB010100F1FF382FD296
:101250008D422DD902386144491B92B2B1FBF7F59A
:1012600007FB151142EA014205FB0EF1914208D934
:101270001CEB020205F1FF3816D2914214D9023D4F
:101280006244521A45EA004138E73146304608E7E1
:101290003946E6E61046FBE64845A9D2B9EB020816
:1012A00065EB0C0E013BA3E74546EAE72B4694E7C6
:1012B0004046D1E7D0467BE7023D624432E708462C
:1012C0000AE76444023842E7704700BF10B50F4C8C
:1012D0004FF0FF3384F83B3084F83C304FF6FF701A
:1012E000214604F13B0E11F8013B83EA102383EA07
:1012F000131C4FEA4C124CEA002382EA0C32534092
:101300007145A4F83B3098B2EDD110BD54130020C4
:101310002DE9F04387B0002407460D46914601941D
:1013200008F0C6F8224B9A694CF2FA3142F040427A
:101330009A6102A81961012301A9CDE90243CDE90F
:10134000047308F09BF940BBC5EBC72707F10067A2
:101350004FEAD9090646083F02E0B14517D01E46BC
:10136000F5E8022305EB07080020414608F0EAF8FB
:10137000731C04460028F0D008F0AEF841460D4832
:101380000EF0C0F90124204607B0BDE8F08308F054
:10139000A3F8204607B0BDE8F08308F09DF8394671
:1013A00005480EF0AFF9204607B0BDE8F08300BF56
:1013B00000200240502D01083C2D010870B5124E4E
:1013C000B6F83B40FFF782FFB6F83B30A34201D1AD
:1013D000002070BD04253D2231467E20FFF798FF96
:1013E000044608B1013DF6D1074E04253D223146A1
:1013F0007F20FFF78DFF18B1013DF7D12043C4B224
:10140000601CC0B270BD00BF5413002010B5154C55
:101410003922002120460EF009FB134A44F8032C20
:10142000231F012100204FF00002607161F343028D
:1014300004F8041C6FF01B000C2408214FF0230C4F
:101440009C715871DA714124E72019727122F521DB
:1014500083F80AC0DC73187683F8251083F83220ED
:1014600010BD00BF5813002017D94E3D2DE9F0479D
:10147000424CC4F1006004F1010C04F13D0123462B
:1014800000F57C301A5C03F8012F9942FAD13C4EEA
:101490004FF6FF7E06F13B0216F8013B83EA1E235E
:1014A00083EA13177D0147EA0E2385EA07356B406F
:1014B00096421FFA83FEEFD1BCF83B60DFF8C48090
:1014C0002E4BA6EB0E07B7FA87F7A8EB0C087F099F
:1014D00018F8035003F8015F9942F9D1284D4FF6EF
:1014E000FF7915F8013B83EA192383EA131A4FEABF
:1014F0004A184AEA092388EA0A3888EA0303954227
:101500001FFA83F9EDD1BCF83B304B4515F83B3C55
:101510001FD0012B01D1764508D0FFF777FFFFF7E9
:101520004DFF012812D90320BDE8F087035D04F8C0
:10153000013FA142FAD1124D04243D2229467F20C9
:10154000FFF7E6FEB0B1013CF7D1ECE70220BDE8C1
:10155000F087012B47F00207DFD1022F0AD1084D97
:1015600004243D2229467E20FFF7D2FE10B1013C23
:10157000F7D1D8E70020BDE8F08700BF5313002063
:101580005413002001F8030870B59D4E9D4C9E4DEC
:1015900030460EF01DF921789C480EF0B3F8D4F8CF
:1015A0000100FEF7E1FF0B46024699480EF0AAF84B
:1015B000B4F8051097480EF0A5F8218996480EF06A
:1015C000A1F82A78A17A9548C2F3400201F00101FE
:1015D0000EF098F82A78A17A9148C2F38302C1F3F9
:1015E00043010EF08FF86A78A17A8E488E4D02F092
:1015F0000102C1F340110EF085F8D4F80B00FEF79C
:10160000B3FF0B46024689480EF07CF8E17B2A784E
:10161000874801F00101C2F340020EF073F82A7806
:10162000E17B8448C2F38302C1F343010EF06AF800
:101630006A78E17B804802F00102C1F340110EF0AC
:1016400061F8AA7AE17B7D487D4D02F00102C1F389
:1016500080110EF057F82069FEF786FF02460B4610
:1016600078480EF04FF86069FEF77EFF0B460246A1
:1016700075480EF047F8217E2A78744801F0010180
:10168000C2F340020EF03EF82A78217E7048C2F381
:101690008302C1F343010EF035F86A78217E6D486C
:1016A00002F00102C1F340110EF02CF8EA7C217E19
:1016B000694802F00102C9090EF024F8AA7A217ED5
:1016C0006648674D02F00102C1F380110EF01AF86E
:1016D000D4F81900FEF748FF02460B4661480EF0A9
:1016E00011F8D4F82100FEF73FFF02460B465E4892
:1016F0000EF008F8D4F81D00FEF736FF0B46024640
:101700005A480DF0FFFF94F825102A78584801F048
:101710000101C2F340020DF0F5FF6A7894F825103C
:10172000544802F00102C1F340110DF0EBFFEA7CD6
:1017300094F82510504802F00102C9090DF0E2FFAB
:10174000AA7A94F825104D484D4D02F00102C1F3DC
:1017500080110DF0D7FFD4F82600FEF705FF0246F2
:101760000B4648480DF0CEFFD4F82E00FEF7FCFEE5
:1017700002460B4644480DF0C5FFD4F82A00FEF798
:10178000F3FE0B46024641480DF0BCFF94F83210C0
:101790002A783F4801F00101C2F340020DF0B2FF88
:1017A0006A7894F832103B4802F00102C1F340110C
:1017B0000DF0A8FFAA7A94F83210374802F001021F
:1017C000C1F380110DF09EFFD4F83300FEF7CCFE7C
:1017D00002460B4631480DF095FFD4F83700FEF76E
:1017E000C3FE02460B462E480DF08CFFB4F83B10AA
:1017F0002C480DF087FF3046BDE870400DF0E8BF83
:101800006C2D0108541300200C130020902D0108AA
:10181000A82D0108C02D0108D82D0108F02D0108C0
:101820000C2E0108242E0108F4120020402E01087D
:101830005C2E0108782E0108902E0108AC2E0108BC
:10184000D0120020C42E0108E02E0108F82E010855
:10185000142F01082C2F0108482F0108642F0108BC
:1018600090120020802F01089C2F0108B82F01083A
:10187000D42F0108F02F01080C300108283001088E
:10188000B412002044300108603001087C300108A7
:1018900098300108B4300108D0300108EC3001085C
:1018A000083101082431010802480022012108F012
:1018B0005DB800BF00040048704700BF704700BF1C
:1018C00010B5074C7F21204607F0EEFA0A2006F0FB
:1018D00061FE20460349BDE81040052207F056BAD4
:1018E000DC0F00201C020020234A9FED247A11887F
:1018F000538890880B44D188128903440B441344C5
:101900009BB207EE903AF8EEE77A70B567EE877A09
:101910001B4EFCEEE77AB6F8A83007EE103A17EE49
:10192000903A9BB207EE903AB8EEC77AF8EE677A33
:1019300077EE677A17EE900AFEF716FE0CA3D3E94E
:101940000023FEF769FE0446B6F8CA000D46FEF70E
:10195000F9FD02460B4620462946FEF787FF094B54
:101960000022FEF7A3FCFFF74FF900EE100A70BD4E
:1019700033333333333311401C020020CDCC4C3E83
:101980000075FF1F00003940F8B50F46017801B11E
:10199000F8BD054614464FF4C7621E460EF046F8E1
:1019A0000722394605F225600EF067F8C5F8304683
:1019B000C5F8346654E8003F43F0200344E80032A1
:1019C000002AF7D101232B70F8BD00BF70B5064681
:1019D00012B3013AD0F830364C1E11FA82F504E009
:1019E00014F8012F1A85AC420FD0DA691206F7D429
:1019F00001200AF019FFD6F83036DA691106F7D55A
:101A000014F8012F1A85AC42EFD1DB695B0600D5D3
:101A100070BD01200AF008FFD6F83036F5E700BFA8
:101A2000D0F83036DA69920613D59A8CB0F8DE35E4
:101A300040F2DA518B4210B592B2044604D8C11874
:101A400001334A70A0F8DE3506F09EFDC4F8E005CB
:101A500010BD7047F8B5054600F2E45400F20C677B
:101A6000461C54F8041F304631B10EF075F818B119
:101A7000D5F8343603B19847A742F2D1F8BD00BF7C
:101A800070B590F824660A2E2DD0044608460D46FF
:101A9000FEF7FEFB01300BF067FE06F5BD7644F85D
:101AA000260094F8243603F5BD7354F82360D6B1AC
:101AB0002846FEF7EDFB2946024630460DF0DDFFD5
:101AC0002846FEF7E5FB94F8242602F5BD7203468E
:101AD00054F822200021D15494F8243601200344E4
:101AE00084F8243670BD002070BD00BF2DE9F04F92
:101AF00085B00446BDF838000F9FCDE9003023784B
:101B0000002B00F0B58094F82D3689461546002B41
:101B100040F09B80012384F82D36009B23B1019A6D
:101B2000009800210DF082FF10AE002F039623DDF8
:101B300004F20C6B4FF00108A246346804362046CC
:101B40000396FEF7A5FB01300BF00EFE21464BF885
:101B5000040F48B10EF0F0F82046FEF799FBDBF8D1
:101B600000304FF000021A54474508F1010802D036
:101B7000B8F1060FE1D154464846FEF789FB4946C5
:101B800082B22046FFF722FF06F0FEFC5FFA87F9DB
:101B9000064606F0F9FC801BA8423BD201200AF061
:101BA00043FEB4F8DE35002BF3D006F0EDFCD4F89C
:101BB000E035C01A3228ECD92046FFF74BFF04F17C
:101BC000010BB9F1000F16D004F20C6A4FF00008B7
:101BD00004F1010B5AF8041F584661B10DF0BCFF27
:101BE00008F10103002849D15FFA83F8C14502D00A
:101BF000B8F1050FEED140F2DC52002158460DF04D
:101C000015FF4FF00003A4F8DE3506F0BDFC801B85
:101C1000A842C3D34FF00009002F0FDD00252E4648
:101C2000A84604EB86060135D6F81006EDB20BF097
:101C300031FEBD42C6F810862E46F2DB0023484630
:101C400084F82D3605B0BDE8F08F06F09DFC064601
:101C500006E00AF0E9FD94F82D36002B3FF45AAF68
:101C600006F092FC03469B1B9D424FF00100F0D80A
:101C70004FF0FF39484605B0BDE8F08F009B23B117
:101C80000146019A00980DF0F8FE40F2DC525846E9
:101C900000210DF0CBFE08F101080023A4F8DE3589
:101CA0004FFA88F9B8E700BF38B5037803B30446A4
:101CB00006F06AFCD4F8E435C01A312818D906F0C9
:101CC00063FC94F82D36C4F8E405B3B106F05CFC6F
:101CD000054604E00AF0A8FD94F82D366BB106F035
:101CE00053FC03465B1B092B4FF00100F2D938BDB2
:101CF000BDE8384001200AF097BDB4F8DE35012276
:101D000084F82D261BB9002384F82D3638BD06F043
:101D10003BFCD4F8E035C01A3228F4D92046FFF74E
:101D200099FE40F2DC520021601C0DF07FFE002382
:101D3000A4F8DE35E7E700BF10B54FEA400C86B0E7
:101D400008461FFA8CF19C46022341F28834019325
:101D500005AB029400930123644608F099FA28B970
:101D6000BDF814302380012006B010BD002006B05D
:101D700010BD00BF2DE9F04F838CA3F17602012A3C
:101D800087B004D90027384607B0BDE8F08F41F28C
:101D9000883202920D4600F1320259000123CDE94A
:101DA0000023044689B2806AD02208F071FA002824
:101DB000E8D194F83230582B01D0602BE2D1A18CBD
:101DC000012742F2107205AEB6230292B940019784
:101DD00000968DF81430A06A89B23B46E02208F0E4
:101DE0002BF90028CED141F28838A38CA06A009646
:101DF0005B0099B2CDE901780123F32208F048FA9B
:101E00009DF8143003F00103184310F0FF09ECD1E2
:101E1000CDF808800096A18C4FF0020ACDF804A0FE
:101E20004900A06A89B20123882208F031FA0746E6
:101E30000028A7D1CDE901A80096A18CBDF81430E7
:101E400023804900A06A89B201238A2208F020FA7F
:101E5000002898D1CDE901A80096A18CBDF81430D6
:101E600063804900A06A89B201238C2208F010FA2D
:101E70000746002886D1CDE901A80096A18CBDF8BF
:101E80001430A3804900A06A89B201238E2208F091
:101E9000FFF900287FF477AFCDE901A80096A18C67
:101EA000BDF81430E3804900A06A89B20123902272
:101EB00008F0EEF900287FF465AFCDE901A800969F
:101EC000A18CBDF8143023814900A06A89B2012396
:101ED000922208F0DDF9074600287FF453AFCDE9E0
:101EE00001A80096A18CBDF81420628101239940BD
:101EF000A06A89B2942208F0CBF900287FF443AF9E
:101F0000BDF81430A381A16AA08C04F10E039622BF
:101F1000FFF712FF00283FF435AFA16AA08C04F14F
:101F200010039822FFF708FF00283FF42BAFA16AA7
:101F3000A08C04F112039A22FFF7FEFE00283FF462
:101F400021AFA16AA08C04F114039C22FFF7F4FED8
:101F500000283FF417AFA16AA08C04F116039E225B
:101F6000FFF7EAFE074600283FF40CAF94F8323042
:101F7000602B3BD0A18C00966B786A799B0043EA7A
:101F800042138DF8143042F210720123CDE9013270
:101F90004900A06A89B2F52208F04EF800287FF4C3
:101FA000F1AE2A78AB78E978012A4FEA830304BFBF
:101FB0002870024643EA41131A4394F83230602BEA
:101FC0005FFA82F87AD0A18CA06A0096012342F2CF
:101FD00010724900CDE9013289B2F4228DF81480E3
:101FE00008F02AF8002818BF0027CCE64FF00109B6
:101FF00041F2883AA18CCDE9019A04F118030093CB
:102000004900A06A89B24B46A12208F041F9002894
:102010007FF4B8AECDF808A00096A18C02230193FE
:102020004900A06A89B24B46E12208F031F9002844
:102030007FF4A8AECDE9019ABDF81430A18C63837A
:1020400004F11C0300934900A06A89B24B46E322C5
:1020500008F01EF900287FF495AEA16AA08C0DF15E
:102060001203E422FFF768FE00283FF48BAEA16A5A
:10207000A08C3346E522FFF75FFE00283FF482AED6
:10208000CDE9019AA18C04F1220200924900A06AD4
:102090004B4689B2E72208F0FBF800287FF472AEC5
:1020A000BDF81430BDF812201B092384130103F47A
:1020B0007F63C2F303221343E3835BE72B798DF83D
:1020C0001430009642F210720123A18CCDE9013246
:1020D0004900A06A89B2F22207F0AEFF00283FF45F
:1020E00072AF4FE630B541F2883287B00125818C5E
:1020F000CDE901520DF116030093A940044689B2BF
:10210000806A2B46F42208F0C3F8E8B9A18C9DF848
:1021100016C0A06A42F210730293A9400DF1170392
:102120002CF0030C4CEA050CCDE9003589B22B46A6
:10213000F4228DF816C08DF817C007F07DFFB0FAB5
:1021400080F0400907B030BD002007B030BD00BFAF
:1021500010B5818C806A86B001230DF1170241F21F
:10216000883499400092CDE9013489B2F32208F015
:102170008FF810B1002006B010BD9DF81700C0F315
:10218000C00006B010BD00BF2DE9F04F044690F826
:1021900032008FB06028884605921E4600F05481B8
:1021A000002B00F0568100221A6016460623019388
:1021B0000CAB0093A18C41F288320123029299402A
:1021C000A06A89B2F72208F063F8002840F038814D
:1021D0009DF834309DF833209DF83510B4F90AC0CD
:1021E0009DF8307006971B0143EA0233228843EAC8
:1021F0001111C2EB131303FB03F5B4F904302D13D3
:1022000003FB05F55200B4F90230C2EBD10203FB27
:1022100002F2AD1305EBE22505EB850909F1800912
:102220004FEA2929E188B4F90820C8F800909DF800
:102230003180CDF81C809DF83280CDF82080B4F933
:102240001080CDF82480B4F90E80CDF82880A5F553
:10225000FA3EB4F90C80CDF82C808EFB0E894FEA43
:10226000EC7B0CFB09FA82FB0E2308FB0BAAACFBF0
:1022700008CBD3441B034FEA1C2C43EA12534CEA0D
:102280000B6C12031CEB020C43EB2B2303F50043F6
:10229000ACFB01C201FB0321CB174A1053EA6101D9
:1022A00000F089800899079F090941EA0711069FF4
:1022B00041EA07310A9F87FB0EEC099F4FEA4C4C1D
:1022C00007FB09F94FEAE77A4CEADE3C08FB0A9A79
:1022D0004FEA4E4EA7FB08981EEB090EC1F5801180
:1022E000C2444AEB0C0A0B9F10EB0E0001F0004EAB
:1022F0004EEA510EC907B1EB00080AEBC70A6EEBB4
:102300000A0E18EB080C4EEB0E011CEB080C4EEB02
:10231000010188014FEA8C1940EA9C601CEB090C12
:1023200041EB0001890041EA9C714FEA8C0C1CEBE7
:10233000080C4EEB01014FEA8C00890010EB0800FD
:1023400041EA9C714EEB0101FEF7BCFDB4F9162089
:102350004FEA613E4FEA503C4CEAC14CD31702FBB6
:102360000EF80CFB0389A2FB0C2802FB0EFEC844EE
:102370000CFB08EEA2FB0C2CF444520EB4F9143002
:1023800042EACC12121841EB6C6C4FEAE37E03FB7D
:1023900001F10EFB0011A3FB00300144DB0C43EA0A
:1023A0004133D0184CEBE14CB4F91230000A40EA4A
:1023B0000C6000EB0310059B1860002E4BD0BDF89D
:1023C0003630B4F91E2094F922105BBA9BB2120584
:1023D000C2EB8332B4F92030A5F5963505FB132204
:1023E000237F05FB03F305FB01F1DB12891203F5E3
:1023F000004301FB03F39B12B4F91A1003F5001319
:1024000001FB03F302F5804203F50053D2139B1343
:1024100002FB03F3DA13217E02FB02F2D21101FB6D
:1024200002F2A3EB221323EAE373B3F1C85FA8BF60
:102430004FF0C8531B13012033600FB0BDE8F08F7D
:1024400000200FB0BDE8F08F002B14BF0823062337
:10245000ADE60623ABE601200FB0BDE8F08F00BF6C
:1024600070B50D4684B016460BB31C4602AA03ABEA
:1024700001A9FFF789FE10B9002004B070BDDDEDA1
:10248000017A9FED177AF8EEE77AC7EE876A9DED3D
:10249000027ADDED037AC5ED006ABBEECC7AFBEE85
:1024A000CB7A86ED007AC4ED007A04B070BD02AA42
:1024B00001A9FFF769FE0028DED0DDED017ADFED2E
:1024C000086AF8EEE77A87EEA67ADDED027A85ED06
:1024D000007AFBEECC7AC6ED007A04B070BD00BF86
:1024E0000000C84270B51548154E0DF00BF90525D2
:1024F00040F2DC530322D621304607F0F1FF0446B8
:1025000032200AF091F94FF4FA7044B10AF08CF9D4
:10251000013DEDD10B480DF05BF9284670BD0A482E
:102520000DF056F9D62380222E21054805F01CFB1C
:1025300001200AF079F9012070BD00BF383101088F
:10254000AC100020583101085031010800B583B0AB
:10255000D6230DF106023B21044805F0EFFABDF841
:10256000060005F07FFB03B05DF804FBAC10002013
:1025700000B583B0D6230DF106023D21044805F0D5
:10258000DDFABDF8060005F06DFB03B05DF804FB55
:10259000AC10002000B583B0D6230DF10602372120
:1025A000044805F0CBFABDF8060005F05BFB03B06C
:1025B0005DF804FBAC10002000B583B0D6230DF10C
:1025C00006023921044805F0B9FABDF8060005F005
:1025D00049FB03B05DF804FBAC10002000B583B0EC
:1025E000D6230DF106023121044805F0A7FABDF803
:1025F000060005F037FB03B05DF804FBAC100020CB
:1026000000B583B0D6230DF106023321044805F04E
:1026100095FABDF8060005F025FB03B05DF804FB54
:10262000AC10002000B587B001230DF117024FF464
:10263000FA71CDE901310092D6210022084807F055
:1026400027FE9DF8173003F03F03C3EB431203EB63
:102650008200400000F6C41080B207B05DF804FBB1
:10266000AC10002000B583B0D6230DF10602012185
:10267000064805F063FABDF8060005F0F3FA00EB32
:102680008000400080B203B05DF804FBAC10002075
:1026900000B583B0D6230DF106020321064805F0EC
:1026A0004DFABDF8060005F0DDFA00EB80004000B1
:1026B00080B203B05DF804FBAC1000200246D623C4
:1026C000024802F03F02002105F04EBAAC10002093
:1026D000074B10B5A3FB0030C00805F0C3FABDE8F6
:1026E00010400246D6230348012105F051BA00BF2D
:1026F000CDCCCCCCAC100020074B10B5A3FB0030E8
:10270000C00805F0AFFABDE810400246D6230348E2
:10271000032105F03DBA00BFCDCCCCCCAC100020DD
:102720000246D6230148052105F01EBAAC10002050
:1027300010B505F097FABDE810400246D6230248CE
:10274000062105F025BA00BFAC1000200246D623B2
:102750000148102105F008BAAC1000200246D6232B
:102760000148182105F000BAAC10002010B50C4C3F
:1027700082B0D6230DF107021021204605F0CAF9D8
:102780000DF107000122032105F018FA9DF807203A
:10279000D6231021204605F0E7F902B010BD00BF96
:1027A000AC10002030B50C4D83B0D62304460DF19B
:1027B00007021521284605F0ADF922460DF1070064
:1027C000002105F0FBF99DF80720D62315212846A6
:1027D00005F0CAF903B030BDAC10002010B5531C91
:1027E0001446034892B209F025FC204610BD00BFF4
:1027F000A8110020034B834200D0704702494022B9
:1028000009F05ABDA811002070020020034B83423A
:1028100000D070470249402209F04EBDA8110020A7
:1028200070020020F0B5124E3378E3B1114D3746F7
:10283000C0F1000E0246BC4603E01378ABB11CF8B1
:10284000013FE95C01F0030101290EEB020412F8DB
:10285000011B08BF20339942EFD017F8013F0EF15A
:10286000010E002BE6D11846F0BD01343019F0BD41
:1028700028020020314C0108F8B50778202F08BF46
:102880004778064608BF0136F7B13D46002404E00C
:1028900016F8015F0CEB40043DB1A5F1300C5FFA76
:1028A0008CF0092804EB8400F2D92D2F00D164426A
:1028B000944201DB9C4204DD04480CF089FF304661
:1028C000F8BD0C603046F8BD3C46F1E764310108C4
:1028D00030B52DED028B0378202B83B00446B0EE8B
:1028E000408AF0EE608A0D4603D114F8013F202B98
:1028F000FBD001A920460BF0D9FEB4EEC80AF1EED8
:1029000010FA04DBB4EEE80AF1EE10FA07D9074832
:102910000CF05EFF204603B0BDEC028B30BD2046BC
:1029200085ED000A03B0BDEC028B30BD64310108B7
:1029300000B59FED357B83B0354B36488DED007B80
:1029400000220CF0DFFE34480CF0DCFE334B1B7829
:10295000032B06D8DFE803F05450024C30480CF04B
:1029600037FFFEF7C1FF10EE100AFDF7FDFD02462E
:102970000B462C480CF0C6FEFFF7E8FD01462A483E
:102980000CF0C0FEFFF706FE014628480CF0BAFE28
:10299000FFF712FE014626480CF0B4FEFFF7E8FDF3
:1029A000014624480CF0AEFEFFF718FE014622480F
:1029B0000CF0A8FEFFF724FE014620480CF0A2FE12
:1029C000FFF730FE01461E480CF09CFEFFF74AFE62
:1029D00001461C480CF096FEFFF75AFE01461A48C5
:1029E0000CF090FE194803B05DF804EB0CF0F0BE5B
:1029F00017480CF0EDFEB4E716480CF0E9FEB0E71E
:102A000015480CF0E5FEACE7000000000000E03FD8
:102A10000000F03F7031010894310108501300208C
:102A2000B0310108D4310108F03101080032010849
:102A30001032010820320108343201084432010802
:102A4000583201087C320108A0320108EC47010825
:102A5000C4310108684A0108A831010800000000DB
:102A600010B59FED297B82B08DED007B284B294866
:102A7000294C00220CF046FE28480CF0A9FE2848FC
:102A80000CF0A6FE27480CF0A3FE27480CF0A0FE91
:102A900026480CF09DFE26480CF09AFE25480CF0C6
:102AA00097FE25480CF094FE24480CF091FE204639
:102AB0000CF08EFE22480CF08BFE22480CF088FEB3
:102AC00021480CF085FE21480CF082FE20480CF0D5
:102AD0007FFE20460CF07CFE1E480CF079FE1E485E
:102AE0000CF076FE1D480CF073FE20460CF070FED4
:102AF0001B480CF06DFE204602B0BDE810400CF003
:102B000067BE00BFAFF30080000000000000E03FA0
:102B10000000F03F70310108EC470108C4320108A1
:102B2000D43201080C33010858330108AC330108D2
:102B3000003401084C3401089C340108D8340108E1
:102B4000103501082435010848350108743501089D
:102B500098350108BC350108CC3501081436010848
:102B6000583601082DE9F0437A4C2DED028B23688D
:102B70003F2B83B003D878495A1CC85422600A28D6
:102B800004D003B0BDEC028BBDE8F0832368724D26
:102B9000581E00212A5C0D2A18BF1846C0F14002B9
:102BA00028440CF043FF00236C482360FFF73AFEF3
:102BB0006B1C834200F0AB806948FFF733FE2F1D8A
:102BC000874200F0A4806748FFF72CFEAE1D8642C6
:102BD00000F0AE806448FFF725FE05F10708804548
:102BE00000F0AD806148FFF71DFE05F10B04844243
:102BF00000F094805E48FFF715FE844200F0BF812C
:102C00005C48FFF70FFE05F10A09814500F0BE811F
:102C10005948FFF707FE814500F0C3815748FFF789
:102C200001FE05F10C03834200F0C0815448FFF718
:102C3000F9FD844200F0C9815248FFF7F3FD864256
:102C400000F0F1815048FFF7EDFD804500F0F5817F
:102C50004E48FFF7E7FD864200F0F2814C48FFF74F
:102C6000E1FD804500F00E824A48FFF7DBFD874218
:102C700000F0B0804848FFF7D5FD484B9842054624
:102C80007FF47FAF4648FFF7CDFD00283FF479AFD2
:102C9000A0427FF476AF43490CF05EFF0646002861
:102CA00040F01B83404920460CF056FF002840F0BE
:102CB000A9843E4920460CF04FFF00283FF461AF45
:102CC0003B4905F10B000CF047FF0446002840F09B
:102CD0000385384905F10B000CF03EFF00283FF456
:102CE00050AF354A354B36480121117002221A7017
:102CF0000CF06EFD334B1C8004F082F8324B1888C8
:102D000003B0BDEC028BBDE8F04303F0DBBF03B0C2
:102D1000BDEC028BBDE8F043FFF7A2BE2B480CF0E0
:102D200057FD03B0BDEC028BBDE8F043FEF76EBB70
:102D300003B0BDEC028BBDE8F043FFF7F9BD2448BA
:102D4000A022382103B0BDEC028BBDE8F04304F0B3
:102D500053BF00BF68020020280200206C36010823
:102D60007036010878360108803601088836010877
:102D7000B0360108BC360108F03601083C370108BE
:102D80005C3701087C370108843701088C3701085B
:102D9000943701089C370108603E01082D0200208D
:102DA000683E0108703E0108983E0108C03E0108D7
:102DB000C83E0108F83E01080800002091130020D9
:102DC000CC3E01086C020020AC13002094360108B0
:102DD00000110020AF48FFF725FD0546002840F010
:102DE0003681AD48FFF71EFD002840F09B81AB48BF
:102DF000FFF718FD10B1A04200F06283A848FFF76A
:102E000011FD10B1484500F0BF82A648FFF70AFD4A
:102E1000002800F09F81A0427FF4B3AEA248FFF7E4
:102E200001FD70B1A149A24C0B78227EA14842F06D
:102E3000010243F0020322760B700CF0C9FCFEF78E
:102E4000BDFA9D48FFF7EEFC70B19949974B0C7E97
:102E50001A789A486FF341026FF300040C761A70E7
:102E60000CF0B6FCFEF7AAFA9548FFF7DBFCF0B1D0
:102E70000523002201A94FF0FF3492480194FFF787
:102E8000FBFC8B49894B019C087E1A7804F00F05E6
:102E900065F3440065F385020876E0B21A7002F02B
:102EA000F5FD214688480CF02DFCFEF787FA87488F
:102EB000FFF7B8FC044618B1854B984200F01C841B
:102EC0008448FFF7AFFC044618B1834B984200F0EA
:102ED0005B848248FFF7A6FC044600283FF451AE0D
:102EE0007F4B98427FF44DAE7E490CF035FEB8B171
:102EF000F2EE040ABAEE040A01A9E01DFFF7E8FCAD
:102F00006A4B6B490198C3F80F00C1F81D00FDF72B
:102F10002BFB02460B4674480CF0F4FBFEF74EFA0E
:102F200072496F480CF018FE70B16049604C8B7AA2
:102F3000227E6F4842F0400243F0010322768B72FA
:102F40000CF046FCFEF73AFA6A4965480CF004FEBC
:102F500000283FF416AE5649544B0C7E9A7A6648C8
:102F60006FF386146FF300020C769A720CF030FC4B
:102F700003B0BDEC028BBDE8F043FEF71FBA03B00F
:102F8000BDEC028BBDE8F043FEF7FEBAFEF76EFA29
:102F900001465A4803B0BDEC028BBDE8F0430CF08B
:102FA000B1BBFEF70BFA01465548F3E701A943F61A
:102FB0009823002205F10D00FFF75EFC019B3C4ABF
:102FC0005048A2F8053099B2E4E72B7B4E48202BFD
:102FD00003D110F8013F202BFBD001A90BF066FBB9
:102FE000FAEE047AB4EEE70AF1EE10FAB0EE408A97
:102FF00040DBF2EE047AB4EEE70AF1EE10FA39D8CB
:1030000010EE100AFDF7B0FA02460B46284C3F4876
:1030100018EE101AC4F8011003B0BDEC028BBDE825
:10302000F0430CF06FBB3A480122012103B0BDEC24
:10303000028BBDE8F04306F099BC35480022F4E766
:1030400003B0BDEC028BBDE8F043FEF735BC0422B3
:103050004FF461634FF0FF340DEB02010194FFF771
:103060000BFC019B032B7FF78CAD2A4A2A48138067
:1030700099B28FE729489FED2A8A0CF0A9FB00221C
:103080000023C3E703B0BDEC028BBDE8F043FEF7BD
:1030900015BC00BFA4370108C83701080C38010867
:1030A00008390108303A010814380108D01200200C
:1030B00054130020383A010834380108503A010806
:1030C0005438010838020020683A01087C380108A9
:1030D0003F020020E83A010839020020C8390108FF
:1030E000370200208C380108583B0108B838010825
:1030F000783B0108E03801089C3B0108C83601080C
:10310000FC3601084C3701083402002068370108FA
:10311000000400489C130020B03701086431010806
:10312000000000004FF0FF3402232A4601A9019459
:10313000FFF7A2FB019C002C40F35A82012C00F007
:103140007C82022C00F0D282704A714B00211180E7
:103150001C7016E56F48FFF765FB10B1A04200F048
:103160005A836D48FFF75EFB00283FF483ADA04211
:103170007FF480AD6948FFF755FB80B16848694925
:1031800090F832200B7842F0010243F0020380F8FD
:10319000322065480B700CF01BFBFEF70FF96348FB
:1031A000FFF740FB80B15E495E4B91F832001A7820
:1031B0006FF300006FF3410281F832005C481A702F
:1031C0000CF006FBFEF7FAF85A48FFF72BFB50B35A
:1031D0000823002201A94FF0FF3557480195FFF75A
:1031E0004BFB4F4A019D92F832104E4B05F00F00F9
:1031F00060F3440182F832101A7860F385021A7085
:1032000001F02CF94D4A0346DBB213704C4A002002
:1032100010704C4A137000F0A1FF29464A480CF088
:1032200071FAFEF7CBF84948FFF7FCFA054618B1EA
:10323000474B984200F026844648FFF7F3FA0546CC
:1032400000283FF417AD444B98427FF413AD434937
:103250000CF082FCB8B1DFED420A9FED420A01A9F1
:10326000E81DFFF735FB2F4B2D490198C3F80F00E0
:10327000C1F83700FDF778F902460B463A480CF0E2
:1032800041FAFEF79BF8394933480CF065FC80B1F0
:103290002449234C8B7A94F83220354842F040027E
:1032A00043F0010384F832208B720CF091FAFEF7A0
:1032B00085F8304928480CF04FFC00283FF461ACF9
:1032C0001749184B91F832409A7A2B486FF38614BD
:1032D0006FF3000281F8324047E601A94FF4FA7318
:1032E00001224FF0FF3405F10A000194FFF7C4FA00
:1032F000224C0199224A064B21800025157089B283
:10330000012220481A700CF0FDF9F7E46C0200204D
:1033100091130020C03B0108343D01081438010816
:1033200054130020B41200203C3D01083438010839
:10333000543D01085438010838020020921300203F
:1033400095130020941300206C3D01087C3801087F
:103350003F020020E83A0108390200208C380108B9
:103360000000FA430000FAC3F83D0108B83801082C
:10337000183E0108E03801083C3E01080A00002020
:1033800008000020783E0108AE48FFF74BFA70B104
:10339000AD48AE49C27B0B7842F0010243F0020314
:1033A000C273AB480B700CF013FAFEF707F8A9488C
:1033B000FFF738FA70B1A449A44BC87B1A786FF3B1
:1033C00000006FF34102C873A3481A700CF000FAB2
:1033D000FDF7F4FFA148FFF725FAE0B10123002231
:1033E00001A94FF0FF359E480195FFF745FA964A2F
:1033F0000199D57B954B01F00F0060F34405D5731F
:103400001A78984D60F3850297481A7029700CF06D
:1034100079F9FDF7D3FF9548FFF704FA054618B18F
:10342000934B984200F0E8829248FFF7FBF905467B
:1034300000283FF4EAAC904B98427FF4E6AC8F4909
:103440000CF08AFBB0B1F2EE040ABAEE040A01A94C
:10345000E81DFFF73DFA7D4B7B490198C3F80F004B
:103460004861FDF781F802460B4685480CF04AF9A1
:10347000FDF7A4FF834980480CF06EFB70B17349DF
:10348000714C8B7AE27B804842F0400243F00103AA
:10349000E2738B720CF09CF9FDF790FF7B49764844
:1034A0000CF05AFB00283FF46CAB6749674BCC7BB0
:1034B0009A7A77486FF386146FF30002CC7354E561
:1034C0006048FFF7AFF970B15F49724A8B7A724872
:1034D00043F001038B72137843F0020313700CF076
:1034E00077F9FDF76BFF5B48FFF79CF970B1564A1F
:1034F000684B917A69486FF3000191721A786FF303
:1035000041021A700CF064F9FDF758FF5348FFF7B9
:1035100089F9F8B14FF0FF300323002201A901908F
:103520005F48FFF7A9F948495A4B019D8E7A1A78EE
:1035300005F00F0060F3850260F344061A708E7286
:1035400004F050FC574B2946188057480CF0DAF825
:10355000FDF734FF4548FFF765F9054600283FF4BD
:103560004DAC524B98427FF449AC44490CF0F4FA0C
:10357000B8B1F2EE040ABAEE040A01A9E81DFFF799
:10358000A7F9444B30490198C3F80600C1F80B0075
:10359000FCF7EAFF02460B4645480CF0B3F8FDF78E
:1035A0000DFF384941480CF0D7FA70B13949264C23
:1035B0004B78A27A3F4842F0200243F00103A27206
:1035C0004B700CF005F9FDF7F9FE304937480CF067
:1035D000C3FA00283FF4D5AA1B492E4B8C7A5A789F
:1035E00035486FF345146FF300028C725A70BDE4D6
:1035F000324B33481C7003B0BDEC028BBDE8F04386
:103600000CF0E6B84FF0FF304FF4FA73012201A935
:10361000019005F10A00FFF72FF9019929482A4A7C
:10362000264B018016702948022289B21A700CF0CC
:1036300069F8274B1E80FFF75FBB26480CF0C8F8DF
:1036400082E500BF1438010854130020F412002052
:1036500010390108343801082839010854380108A4
:1036600037020020A5130020403901087C380108EA
:103670003E020020C8390108360200208C380108BB
:10368000D0390108B8380108F0390108E0380108DC
:10369000103A01080C1300201C3801083C380108BE
:1036A00038020020AE1300205C3801083F020020E1
:1036B00094380108BC380108E4380108911300204F
:1036C000FC3701080A00002008000020A03E010885
:1036D0006C020020D4370108A649A74AA748012355
:1036E0000B7013700CF074F8FFF708BBA4480CF0D3
:1036F00009F803F085FB27E5A2490CF02DFAB8B1D3
:10370000F2EE040ABAEE040A01A9E01DFFF7E0F8A0
:103710009D4B9E490198C3F80600C1F81900FCF7BB
:1037200023FF02460B469A480BF0ECFFFDF746FEDE
:10373000984999480CF010FA70B19349934C4B7822
:10374000227E964842F0200243F0010322764B701D
:103750000CF03EF8FDF732FE91498F480CF0FCF971
:1037600000283FF4ADAB8949874B0C7E5A788D48D1
:103770006FF300026FF345140C765A700CF028F8C2
:10378000FDF71CFEFFF79CBB7E490CF0E5F9B0B1DC
:10379000DFED850A9FED850A01A9E01DFFF798F886
:1037A000794B7A4901989861C1F82100FCF7DCFE59
:1037B00002460B467E480BF0A5FFFDF7FFFD75495D
:1037C0007C480CF0C9F970B16F49704CCB7C227EFB
:1037D000794842F0800243F001032276CB740BF06B
:1037E000F7FFFDF7EBFD6E4972480CF0B5F90028C4
:1037F0003FF46FAB6549644B0C7EDA7C6F486FF326
:1038000000026FF3C7140C76DA740BF0E1FFFDF7DA
:10381000D5FDFFF75EBB6A48FFF704F880B15B484F
:10382000684990F825200B7842F0010243F002032A
:1038300080F8252064480B700BF0CAFFFDF7BEFD31
:103840006248FEF7EFFF80B150495E4B91F82500CA
:103850001A786FF300006FF3410281F825005C488D
:103860001A700BF0B5FFFDF7A9FD5A48FEF7DAFF15
:10387000E0B10A23002201A94FF0FF355648019517
:10388000FEF7FAFF414A019892F825504D4B00F09F
:103890000F0161F3440582F825501A78C0B261F334
:1038A00085021A7004F054FDFDF788FD4B48FEF7C1
:1038B000B9FF054618B1384B984200F02F814848AF
:1038C000FEF7B0FF054618B13A4B984200F07181FF
:1038D0004448FEF7A7FF054600283FF442AC424BA0
:1038E00098427FF43EAC27490CF036F9B8B1F2EEBD
:1038F000040ABAEE040A01A9E81DFEF7E9FF314BFC
:1039000022490198C3F80F00C1F82A00FCF72CFEE9
:1039100002460B4635480BF0F5FEFDF74FFD1D49FD
:1039200031480CF019F980B12649184C8B7A94F87B
:1039300025202F4842F0400243F0010384F825205F
:103940008B720BF045FFFDF739FD154926480CF049
:1039500003F900283FF415A90C491A4B91F82540AA
:103960009A7A24486FF386146FF3000281F8254099
:10397000FFF7FBBA0800002091130020CC3E01089D
:10398000E83701088C380108D012002054130020B9
:103990007C3A0108B83801083F020020A03A01082B
:1039A000E0380108C43A01080000FA430000FAC3F5
:1039B000F03A010839020020103B0108343B0108AD
:1039C0001438010890120020C83B0108343801085F
:1039D000E03B010854380108380200207C38010817
:1039E000E83A0108C839010837020020CC3C010838
:1039F000EC3C0108103D010893490CF0ADF8B0B162
:103A0000F2EE040ABAEE040A01A9E81DFEF760FF0F
:103A10008E4B8F4901981861C1F80600FCF7A4FD90
:103A200002460B468B480BF06DFEFDF7C7FC8A493A
:103A30008A480CF091F870B184488549C27B4B7874
:103A400042F0200243F00103C27385484B700BF033
:103A5000BFFEFDF7B3FC834980480CF07DF80028D9
:103A60003FF4E2AC79497A4BC87B5A786FF3451042
:103A70006FF30002C8737C485A700BF0A9FEFDF783
:103A80009DFCD1E470490CF067F8B8B1F2EE040A7D
:103A9000BAEE040A01A9E81DFEF71AFF6B4B734941
:103AA0000198C3F83300C1F80600FCF75DFD02463B
:103AB0000B466F480BF026FEFDF780FC66496D480B
:103AC0000CF04AF880B16148684990F832204B7890
:103AD00042F0200243F0010380F8322066484B7028
:103AE0000BF076FEFDF76AFC5E4962480CF034F894
:103AF00000283FF4A1AB55495C4B91F832005A784D
:103B00006FF345106FF3000281F832005B485A7082
:103B10000BF05EFEFDF752FCFFF78EBB4A490CF03E
:103B20001BF8B8B1F2EE040ABAEE040A01A9E81DC6
:103B3000FEF7CEFE454B52490198C3F82600C1F866
:103B40000600FCF711FD02460B464E480BF0DAFD6D
:103B5000FDF734FC404947480BF0FEFF80B13B487D
:103B6000474990F825204B7842F0200243F00103AA
:103B700080F8252044484B700BF02AFEFDF71EFC10
:103B800038493C480BF0E8FF00283FF498AE2F4935
:103B90003B4B91F825005A786FF345106FF3000204
:103BA00081F8250039485A700BF012FEFDF706FC2B
:103BB00085E625490BF0D0FFB0B1DFED350A9FED6A
:103BC000350A01A9E81DFEF783FE204B2C49019818
:103BD000C3F82E008861FCF7C7FC02460B462E484E
:103BE0000BF090FDFDF7EAFB1B492C480BF0B4FFEE
:103BF00080B11648224990F82520CB7C42F0800203
:103C000043F0010380F825202548CB740BF0E0FD3C
:103C1000FDF7D4FB134921480BF09EFF00283FF429
:103C200057AE0A49164B91F82500DA7C6FF3C7109E
:103C30006FF3000281F825001A48DA740BF0C8FD12
:103C4000FDF7BCFB44E600BF8C380108541300208C
:103C5000F412002060390108B83801083E02002043
:103C600080390108E0380108A4390108B4120020A5
:103C70008C3D01083F020020B03D0108D43D010801
:103C800090120020F83B01081C3C0108403C010850
:103C90000000FA430000FAC3643C01083902002026
:103CA000843C0108A83C0108154AB2F85A302DE9B5
:103CB000F041B2F85840134E9BB2E41A32884034B7
:103CC000A41A634203F03F0304F03F0458BF5C4270
:103CD000A4B294B100250C4FA84600E03288B85C2D
:103CE000531C9BB23F2B05F10105338088BFA6F81A
:103CF0000080FEF737FFA542F0D1BDE8F08100BF9C
:103D0000A8110020B00200207002002010B582B07F
:103D100003F0ACFF144896230322EE2106F0E0FBEB
:103D20000446642008F080FDBCB9EE230E480DF176
:103D300007020D2103F0EEFE9DF80730102B05D091
:103D40000A480BF045FD204602B010BD08480BF0B4
:103D50003FFD0124204602B010BD06480BF038FD9F
:103D60000024204602B010BD00110020083F0108C9
:103D7000FC3E0108143F010800B58BB003F076FF4C
:103D800005ABFA211222CDE9012100931022012373
:103D9000EE21354806F07CFA9DF815209DF8143088
:103DA0009DF81600110941EA03111202DB0902F421
:103DB00070622E4B18BFA1F5805110434908D20AFA
:103DC0009DF8182019600CBF5860A0F580519DF82F
:103DD000170018BF596012019DF8191042EA00320D
:103DE00042EA1110D20C18BFA0F580109860BDF8FF
:103DF0001A20090452BA01F4702192B20A43C90C84
:103E000018BFA2F58012DA60BDF81C2052BA91B238
:103E1000120448BFA1F580311961BDF81E2052BAC5
:103E200091B2100448BFA1F580315961BDF820203E
:103E300052BA91B2120448BFA1F580319961BDF820
:103E4000222052BA91B2100448BFA1F58031D96145
:103E5000BDF8242052BA91B2120448BFA1F58031B6
:103E600019620BB05DF804FB00110020B4020020C1
:103E70002DE9F041134F86B001240DF117054FF0E5
:103E8000FA08064603F0F2FE2346CDE90148009504
:103E90000922EE21384606F0FBF932462146284633
:103EA00003F08CFE23460922EE21CDE9014800955E
:103EB000384606F0C1F8204608F0B6FC06B0BDE86A
:103EC000F08100BF001100202DE9F041134F86B0B2
:103ED00001240DF117054FF0FA08064603F0C6FE5F
:103EE0002346CDE901480095EE210922384606F027
:103EF000CFF932462846F02103F076FE2346092208
:103F0000EE21CDE901480095384606F095F82046A7
:103F100008F08AFC06B0BDE8F08100BF0011002067
:103F200070B586B001240DF11705FA2603F09EFE48
:103F30002346CDE9014607220095EE21114806F0FF
:103F4000A7F90DF1160328220093CDE90146234677
:103F5000EE210C4806F09CF99DF91630002BACBF01
:103F6000002222462846072103F028FE0123FA22D8
:103F7000CDE9013200950722EE21024806F05CF8F7
:103F800006B070BD0011002070B586B004460D4625
:103F90000DF1170603F06AFE0123FA22CDE9013282
:103FA000254400960722EE2130488DF8175006F080
:103FB00043F8072C09D8DFE804F02B3F44494E535F
:103FC00004262B4B4FF47E221A600124FA23CDE9FC
:103FD0000143EE21092225480096234606F058F9B0
:103FE00022460321304603F0E9FD0123FA21CDE901
:103FF00001310922EE2100961C4806F01DF8FFF75A
:104000008FFF06B070BD1A4B4FF4FF121A60DCE749
:10401000174B4FF400221A600123FA22CDE9013236
:1040200000960922EE21114806F032F90022032100
:10403000304603F0C3FDD8E70D4B4FF4C0121A60B1
:10404000EAE70B4B4FF460121A60E5E7084B4FF4B8
:10405000F0021A60E0E7064B4FF478321A60B4E7DA
:10406000034B4FF4FC221A60AFE700BF00110020A1
:10407000DC02002070B586B004460D460DF117062F
:1040800003F0F4FD0123FA22CDE901322544009624
:104090000622EE212F488DF8175005F0CDFF072C92
:1040A00009D8DFE804F0293D42474C5104242A4B4B
:1040B0004FF47E221A600124FA23CDE90143EE2158
:1040C000092224480096234606F0E2F822460221FF
:1040D000304603F073FD0123FA22CDE90132009648
:1040E0000922EE211B4805F0A7FF06B070BD1A4B50
:1040F0004FF4FF121A60DEE7174B4FF400221A60EC
:104100000123FA22CDE9013200960922EE2111485D
:1041100006F0BEF800220221304603F04FFDDAE738
:104120000D4B4FF4C0121A60EAE70B4B4FF46012CC
:104130001A60E5E7084B4FF4F0021A60E0E7064B1F
:104140004FF478321A60B6E7034B4FF4FC221A6042
:10415000B1E700BF00110020D8020020F0B587B001
:1041600001240546FA2703F081FD0DF11606A5236B
:104170008DF81630CDE901472B48009623460E22D4
:10418000EE2105F059FFC8B128460021FFF7FCFEDB
:1041900003F06CFD01230DF11702FA21CDE9013185
:1041A00002240092EE2108221F488DF8174005F0E6
:1041B00043FF204608F038FB07B0F0BD96238DF88A
:1041C0001630CDE901471848009623460F22EE210C
:1041D00005F032FF0028D7D102238DF81630CDE943
:1041E00001471148009623466222EE2105F024FF84
:1041F0000028C9D18DF81600CDE901470A4800967C
:1042000023460E22EE2105F017FF0028BCD18DF8C1
:104210001600CDE90147009623460F22EE21024801
:1042200005F00AFFB0E700BF00110020102303FAD9
:1042300000F01430704700BF10B588B004460591F7
:10424000FFF79AFD0598FFF73FFE2046FFF710FEA7
:1042500003F00CFD01230DF11F02FA21CDE901311C
:104260000092EE210822002404488DF81F4005F03A
:10427000E3FE022008F0D8FA08B010BD00110020BB
:1042800010B5002186B0FFF77FFE03F0EFFC01239D
:104290000DF11702FA21CDE9013102240092EE213D
:1042A000082205488DF8174005F0C6FE204608F0A4
:1042B000BBFA06B010BD00BF00110020064B93ED05
:1042C000017AD3ED007AB8EEC77AF8EEE77AE7EE36
:1042D000007AB0EE670A7047B402002000B50021F2
:1042E00087B0FFF7C7FE03F0C1FC01230DF11702F1
:1042F000FA21CDE901310092EE21082205488DF81E
:10430000173005F099FE022008F08EFA07B05DF82C
:1043100004FB00BF0011002000B587B003F0A6FC2D
:10432000032205ABFA21CDE901210093EE210123FF
:10433000114805F0ADFF9DF815109DF816309DF859
:10434000142003EB012303EB0243DA0D0B4A92ED39
:10435000007AB8EEC77AF7EE006A86EE870A18BFD1
:1043600003F17F4307EE903AF8EEE77A20EE270A52
:1043700007B05DF804FB00BF00110020DC02002044
:1043800000B52DED028B87B0B0EE408A03F06EFCD5
:1043900005ABFA210322CDE901210093002201237C
:1043A000EE212B4805F074FF9DF815109DF816308E
:1043B0009DF8142003EB012303EB0243DA0D254A99
:1043C00092ED007A244AB8EEC77AB7EE006AC6EEDC
:1043D000076A18BF03F17F4392ED087AD2ED044AD1
:1043E00092ED074A92ED056A07EE903AF8EEC73A69
:1043F00092ED067AF8EEE77AB8EEC75A66EEA76A4B
:10440000F0EE457AE3EEA67A92ED037AF8EEC75A1B
:1044100092ED027AE7EEA65AB8EEC77AF8EEE44AD1
:10442000F0EE477AE5EEA67AB8EEC44AB8EEC66A70
:10443000E4EE887AA4EE266A26EE885AE5EE067A3D
:10444000B0EE670A07B0BDEC028B5DF804FB00BF5D
:1044500000110020D8020020B402002008B507286F
:104460004DD8DFE800F00D161F28313A43042848E4
:104470000BF0AEF90721BDE80840084603F0B0BBD9
:1044800024480BF0A5F90021BDE80840084603F0D8
:10449000A7BB21480BF09CF90121BDE80840084664
:1044A00003F09EBB1D480BF093F90221BDE80840C4
:1044B000084603F095BB1A480BF08AF90321BDE8C2
:1044C0000840084603F08CBB16480BF081F9042124
:1044D000BDE80840084603F083BB13480BF078F9A9
:1044E0000521BDE80840084603F07ABB0F480BF0F1
:1044F0006FF90621BDE80840084603F071BB0C487F
:104500000BF066F9BDE808400221072003F068BB04
:104510003C400108243F01084C3F0108743F01085A
:104520009C3F0108C43F0108EC3F0108144001080A
:1045300068400108704700BF704700BF2DE9F04395
:1045400085B030B1054642F2107000F0ABFA044677
:1045500020B90024204605B0BDE8F083DFF868905C
:10456000DFF868801449154800260227CDE9028942
:104570000197009633464FF47A72FDF7B7FA012897
:1045800002D000F0A9FAE4E70D490E482A460BF0E4
:1045900027F90C49CDF80C90CDE901780096334607
:1045A0004FF47A72A1F5C760FDF7A0FA0128E8D1AF
:1045B00000F092FACEE700BFA0400108E802002018
:1045C000D440010820090020C0400108CC40010867
:1045D0002DE9F04342F2107085B000F063FA044612
:1045E00018B9204605B0BDE8F083DFF8D8902C4E0E
:1045F0002C4F2D494FF000080225434641F28832E6
:10460000CDE902760195CDF800804846FDF76EFAB7
:104610004FF4FA6008F008F9CDE90276CDE900859B
:10462000224A234943464846FDF760FA012814D13F
:104630004FF4FA6008F0F8F81E4B029340F2CC53A6
:10464000CDE900351C49039609F5C7634FF47A722A
:104650004846FDF74BFA012809D0184B0024A3F86F
:104660003C4C00F039FA204605B0BDE8F08309F66D
:1046700036421349C9F8368CA2F2FE50C9F83A8C7A
:10468000C9F83E8CC9F8428C0BF0CAF840F201130D
:10469000A9F8343C00F020FA204605B0BDE8F083CC
:1046A000C0400108CC400108F0400108905F0100C3
:1046B000004101082041010810410108E0020020EA
:1046C00030410108E8020020F0B51B4F97F83C3C50
:1046D00085B01BB90024204605B0F0BD054642F266
:1046E00010700E4600F0DEF904460028F2D02A468B
:1046F0001249334607F5C8600BF072F8104A114BA7
:104700000025CDE902320223CDE9005342F21072B6
:104710002B4607F5C86107F10800FDF7E7F9012806
:1047200005D000F0D9F92C46204605B0F0BD00F0C8
:10473000D3F9204605B0F0BDE00200204841010851
:10474000C0400108CC40010870B5164D95F83C3CBE
:1047500084B01BB90024204604B070BD42F2107032
:1047600000F0A0F904460028F4D00F4A0F4B10497E
:10477000CDE9023200260223CDE9006342F2107235
:10478000334605F10800FDF7B1F9012805D000F026
:10479000A3F93446204604B070BD00F09DF92046D0
:1047A00004B070BDE0020020C0400108684101086B
:1047B0005C41010830B585B030B1054642F2107059
:1047C00000F070F9044618B90024204605B030BD49
:1047D0000F49104A104BCDE9022140F2CC52022180
:1047E000CDE90021A3F5C7600C4942F21072FDF734
:1047F0007DF9012802D000F06FF9E5E70849064885
:104800002A460BF00DF800F067F9204605B030BDE0
:10481000C0400108844101082009002078410108B6
:104820009041010870B55A4982B004460BF094F9E2
:1048300030B1584B1A796FF300021A7102B070BD93
:10484000554920460BF088F9E8B14FF6FF740DF199
:10485000060301AA5149ADF80440ADF806400AF03C
:10486000DFFFBDF906304B49A3F10103B3FA83F32F
:104870000A795B099B0022F00C0243F00803134302
:104880000B7102B070BD464920460BF065F918B1B6
:104890002C210BF0D3F8A0B9424920460BF05CF96B
:1048A00020B13C4B002283F85A2CC7E73E492046F2
:1048B0000BF052F9054658B1364B012283F85B2CB8
:1048C000BCE7013009F026F8324BA3F81A0CB5E723
:1048D000364920460BF040F9064618B12D4B83F8B7
:1048E000E15CABE7204632490BF036F9044600287C
:1048F000A4D0402231462F480BF098F84022314690
:104900002D480BF093F82D4920460BF0C9F82B49A0
:1049100030460BF0C5F8044600288FD027493046B2
:104920000BF0BEF8002889D0031BDBB2402B2AD83D
:10493000022B8ABF03F1FF331A46DAB221461E4822
:104940000BF09BF81D4900200BF0AAF80446002844
:104950003FF474AF194900200BF0A2F800283FF48F
:104960006DAF031BDAB2402A0FD8022A01D9013AEF
:10497000D2B2084D214605F54A600BF07EF80123BE
:1049800085F8E03C5AE73F22D8E74022EFE700BF36
:10499000A4410108E0020020B4410108C04101081F
:1049A000D4410108E0410108EC410108004201083E
:1049B00010420108800F0020400F00202042010813
:1049C000F0B52D4D2D4F2E4985B0002401262346EC
:1049D000CDE90167009441F288322846FDF786F858
:1049E0002346CDE90167274900944FF47A7228469F
:1049F000FDF77CF82346CDE90167234900944FF485
:104A00007A722846FDF772F823464FF47A72CDE9A0
:104A100001671E4900942846FDF768F82146304694
:104A200001F070FA022001F04FFB032001F0B6FB09
:104A3000174B0393174B02930223019316490094DB
:104A4000234641F288322846FDF750F82346CDE947
:104A50000167124900944FF47A722846FDF746F830
:104A6000CDE901670E49009423464FF47A72284637
:104A7000FDF73CF805B0F0BDE8020020CC4001088D
:104A8000244201082C420108344201084042010836
:104A9000C040010860420108504201086C42010810
:104AA0007C42010870B5054603F06EFD094E0446D0
:104AB00003E0737853B107F0B7FE03F065FD031B05
:104AC000AB424FF00100F4D3002070BD01207070A4
:104AD00070BD00BFE0020020014B00225A707047F9
:104AE000E002002038B52E4C2078012854D0012255
:104AF00080212C4804F03AFF40F6B83007F094FECD
:104B000040F6E442002120460AF090FF2649274B58
:104B1000274A04F10800FCF737FF264904F1080092
:104B2000FCF7AEFF10B90025284638BD224904F134
:104B30000800FCF7A5FF0028F5D0204904F1080083
:104B4000FCF79EFF0028EED04FF6FF731C49A4F837
:104B50001A3C04F10800FCF793FF0028E3D0194940
:104B600004F10800FCF78CFF0028DCD0164904F1A2
:104B70000800FCF785FF0028D5D0144904F108008F
:104B8000FCF77EFF05460028CDD04FF47A7007F081
:104B90004BFE01232370C7E70546284638BD00BFFA
:104BA000E0020020000C00488C4201082548000863
:104BB00000440040A441010894420108D441010886
:104BC000E0410108EC410108A0420108104201083F
:104BD0002DE9F047044684B000283DD03E4D2A79A7
:104BE00012F0010335D122F0600242F040024FF092
:104BF00001083A4F0297009339492A7105F10800DC
:104C0000CDF804804FF47A72FCF770FF404542D033
:104C1000402340F2DC502B7107F006FE40F6B8301E
:104C200007F002FEDFF8B8A0052605F10809002309
:104C30000093CDE901874FF47A7251464846FCF75C
:104C400055FF012806F1FF3339D013F0FF06EED1EE
:104C5000304604B0BDE8F0871F4E204A3379204922
:104C6000009023F06003012743F02003CDE9017297
:104C700006F1080033714FF47A722346FCF736FFD1
:104C8000B84205460DD03379384664F300033371DA
:104C900004B0BDE8F08741232B71FFF791FE204659
:104CA000D7E740F2DC5007F0BFFD40F6B83007F020
:104CB000BBFD337964F3000328463371C9E741F241
:104CC000883007F0B1FDFFF77BFE2B7943F001033D
:104CD00020462B71BDE700BFE0020020CC40010858
:104CE000B042010870B58EB003F04EFC234E05466D
:104CF00003E074786CB107F097FD03F045FC401BAE
:104D0000B0F5FA6F4FF00100F3D3002420460EB047
:104D100070BD1B4B1B49029301227270202302229B
:104D2000CDE9003203911848184906AB4FF47A7266
:104D3000FCF7DCFE012804D00023204673700EB07F
:104D400070BD13490DF1160305AA06A80AF068FD07
:104D50000228F1D1BDF91430632B0CD003EB83038F
:104D60000C4A03EB83039B0082FB03121A44DB17FC
:104D7000C3EB2213DCB2F470DEE700BFE0020020D8
:104D8000C4420108C0400108E8020020B8420108FE
:104D9000CC42010843082184F0B5A54EA54C99B03A
:104DA00006F10800FCF780FF03F0EEFB2368C01A51
:104DB000B0F57A7F1AD8A04C03F0E6FB226842F2E5
:104DC0001073801A984202D93379DD0764D49B4C62
:104DD00003F0DAFB22684EF66023801A984203D96A
:104DE0003379DA0700F19C8019B0F0BD944D03F0DF
:104DF000CBFB2978327920600131C9B25006297085
:104E00002FD574786CBB0A2900F03A8102F01103A7
:104E1000012B00F0AA8002F00903092B00F08A8020
:104E2000D307C8D5B6F91A0C002880F2908096F8FE
:104E3000E03C012B00F04C81D6F8E03C23F07F43AE
:104E400023F0FF03B3F5807F00F0A480B3F5803F2B
:104E5000B1D1002386F8E23C00F0D4F9ABE7327917
:104E6000B4709106D2D52B780A2BCFD1754A764BE8
:104E700076497748CDE9023200240223CDE9004388
:104E80004FF47A7223462C70B470FCF72FFE012881
:104E900000F027813279B9E703F076FB337920609F
:104EA000D80710D57378002B91D1FFF71BFF33790A
:104EB00013F0040307D1CDE90033664964484FF489
:104EC0007A72FCF713FE7478002C80D1B6F8123C8D
:104ED000002B6AD13379DB077FF579AF96F83C3C3C
:104EE000002B3FF474AF57495B4B5948CDE9023171
:104EF00002224023CDE90032584908AB4FF47A72C0
:104F0000FCF7F4FD012800F0FD8096F83D3C002BF5
:104F10003FF45DAF0023A6F83C3C00F06FF956E784
:104F200003F032FB73782060002B7FF45DAF00F05C
:104F3000DDFF59E7337903F0F70213F004032DD0B6
:104F400042F00202327100F04DF9327968E780B226
:104F500001F098F900285ED133794FF6FF72DF0730
:104F6000A6F81A2C3FF563AF25E736493C4B384885
:104F7000CDE9023102224023CDE90032394908ABA4
:104F80004FF47A72FCF7B2FD012825D000F028F921
:104F9000327940E7012386F8E23C0CE763F34102F3
:104FA000327100F021F932793AE72F4F02E0962C66
:104FB00000F08180A5B22846013401F063F9002891
:104FC000F5D0284601F04AF828483B4690E806000C
:104FD000183000F00BF9EAE7254904AA08A80AF0FE
:104FE0001FFC0128D4D1234B049A9A4200F0AB80D5
:104FF000214A049B934200F099801F4A9342C7D1F3
:105000001E4B059A9A42C3D100F0E8F8327942F07B
:1050100010023271FFE6B6F81A0C01F01FF8124BBD
:1050200003F2D45206CA03F2EC5000F0DFF893E723
:10503000E0020020CC0F0020C40F0020D00F002081
:10504000C80F0020C0400108CC400108B042010850
:10505000E8020020204301082C4301081041010808
:10506000EC420108E042010820090020F40E002073
:10507000F84201085245414453494D2050554B00D8
:10508000374A384B3849CDE902320223CDE9004393
:105090004FF47A7223462C7006F10800FCF726FDC7
:1050A00001283FF4DCAEB3780133DBB2092BB370D7
:1050B0001BD83279D5E600F091FF00F017FF337965
:1050C000D9077FF584AE7378002B3FF407AF7EE6F7
:1050D00026490023A1F1400086F8E03C00F090F85A
:1050E000AAE62046FFF774FDD4E63379012064F385
:1050F00000033371FFF76CFD327900283FF4B1AE45
:10510000B470AEE61A4A1B4908A80AF089FB0128C8
:1051100096F83D3C7FF4FBAE002B7FF458AE40F296
:105120000113A6F83C3C00F067F850E6124A0599D6
:1051300091427FF462AF00F04FF83279049B42F065
:105140001002327159E7BDF81430592B7FF450AF7B
:1051500000F040F8337943F01003337148E700BFA3
:10516000C0400108CC400108B0420108800F002077
:105170001E0F00203041010850494E0070B5044612
:1051800003F002FA4FF47A73114E054603FB04F460
:1051900006E007F049FBFFF7FFFD33799B0709D4D1
:1051A00003F0F2F903465B1BA3424FF06400F0D317
:1051B000002070BD0A24FFF7EFFD4FF4FA7007F0EE
:1051C00033FB631E13F0FF04F5D1012070BD00BF57
:1051D000E0020020704700BF704700BF704700BF6B
:1051E000704700BF704700BF704700BF82B002AB7E
:1051F00003E9060002B07047704700BF704700BF68
:10520000704700BF704700BF08B5012007F00CFBD6
:1052100030BFFAE730B597B04422002105A80AF064
:1052200005FC00234FF40070CDE90033CDE90233D3
:10523000049305F06BFA08B172B6FEE7022301246D
:105240004FF480320325CDE90542CDE90F35CDE994
:1052500014330A22072305A8CDE91223119405F07F
:1052600037FB034608B172B6FEE70F2200922146D3
:1052700080226846CDE90152CDE9033305F038FEBE
:1052800008B172B6FEE717B030BD00BF80B500248C
:10529000ACB003F05DF9FFF7BDFFCDE91544CDE9F2
:1052A0001744B04D1994EB6C43F00403EB64EB6CC2
:1052B00003F004030493049BEB6C43F08003EB6462
:1052C000EB6C03F080030593059BEB6C43F001034B
:1052D000EB64EB6C03F001030693069BEB6C43F06D
:1052E0000203EB64EB6C03F002032021079301221D
:1052F0004FF09040079B04F039FB22469A4848F251
:10530000012104F033FB22464FF4C8514FF0904086
:1053100004F02CFB012294484FF4907104F026FB1A
:105320004FF002094FF400539048CDF85C9015A956
:105330000327CDE9153404F02BFA4FF440438B4892
:10534000179415A9CDE9153704F022FA48F20203A3
:1053500015A94FF09040CDE91674159304F018FA92
:10536000102315A94FF090400126CDE9164415935E
:1053700004F00EFA4FF4C15315A94FF09040CDE957
:1053800017441593169604F003FA402315A94FF01D
:105390009040CDE91646159304F0FAF948F221132E
:1053A0007148189415A9CDE91664159304F0F0F925
:1053B00041F202036C48159315A9CDE9164604F095
:1053C000E7F940F60C436848159315A9CDE9167422
:1053D0004FF4807804F0DCF915A94FF09040189450
:1053E000CDE91666CDF8548004F0D2F90823604860
:1053F000159315A9CDE9167404F0CAF94FF400739A
:105400005948189415A91593CDE9166904F0C0F907
:10541000AB6C584F3343AB64AB6C574D33402246B3
:10542000039305210B20039B03F09CFD0B2003F04D
:10543000D7FD0C23CDE91544CDE91744CDE9194436
:10544000C5E90244C5E90A44C5E910442C6185F860
:1054500020406C63EB6304244FF48023A5F818808C
:105460002846C5E90073EE6185F8306085F838603C
:10547000AE646C6103F0A0F808B172B6FEE70346B3
:1054800019943E4C1A930623CDE9154328467F23F1
:10549000072515A9CDE9175303F0BCF988B9384C95
:1054A000384B394D2062C4E90206C4E90400C4E95E
:1054B00006002046C4E9003504F0B0FB18B172B60E
:1054C000FEE772B6FEE70146204605F0C1F8014648
:1054D00008B172B6FEE7204605F0E4F808B172B6EE
:1054E000FEE72A4C2A4BE061C4E90150C4E903609D
:1054F000C4E905004FF4003720462762236004F01A
:105500008DFB014608B172B6FEE7204605F0A0F813
:10551000014608B172B6FEE7204605F0C3F803461F
:1055200008B172B6FEE71B4CC4E90150C4E904336C
:10553000C4E906332046184BE6602762236004F076
:105540006DFB014608B172B6FEE7204605F080F813
:1055500008B172B6FEE70F48002105F0A3F8E8B1E4
:1055600072B6FEE700100240000400480008004840
:10557000001C004800000450DC0F0020000052C74F
:10558000AC100020005400404713300000110020F0
:105590000058004054110020005C00406A4B6B4AE8
:1055A0001861C3E90200C3E90600C3E908004FF42B
:1055B000E13618460C27C3E900265F6106F0DEFDE0
:1055C000014608B172B6FEE75822CDE90F00CDE9D9
:1055D0001100CDE91300CDE90900CDE90B000E90D3
:1055E00008900D900DEB02000AF020FA4FF002082F
:1055F0004FF0040915A8CDF85480CDF8789005F047
:1056000003FE044608B172B6FEE7514B514D9A6D48
:1056100042F400329A659A6D02F400320192019AC6
:10562000DA6C42F00102DA64DB6CCDF8209003F012
:105630000103CDE90B0002934FF0070908A94FF0D1
:105640009040CDE90988029BCDF8349006F05EFECB
:105650000823CDE9098808A94FF001084FF09040D0
:1056600008930B94CDF83490CDF8308006F04EFEC0
:105670000EA92846CDE90F44CDE9134411940E96A6
:10568000129707F053F86B68334823F490436B602C
:10569000AB6823F02A03AB602B6843EA08032B6056
:1056A0002E4B036040F20113838031221023C0E9A6
:1056B0000223FF23C0E90544C0F82080036103F002
:1056C00009FD044608B172B6FEE702460521252011
:1056D00003F048FC252003F083FC214BDB68C3F377
:1056E0000223C3F10702042A03F1040128BF0422A4
:1056F000062988BFDC1E4FF0FF339340DB4303F0E5
:105700000503A340174A1B01DBB282F8263340236E
:105710005360154C0FCC0EAD0FC554F8043B2B60F5
:1057200000210EA807F064F8104B18600FCC15ADDF
:105730000FC523682B60002115A807F059F80C4B02
:10574000186007F04FF8FEE7A8110020003801406C
:105750000010024000440040401000200030024091
:1057600000ED00E000E100E0E02C0108D80F00208F
:10577000D40F002038B5074B04689C4200D038BDD8
:10578000054602F0F5FE2B68A342F8D1BDE838408B
:1057900001F0A0BA0014004072B6FEE7F0B53B4A33
:1057A0003B4C127887B0002301A9ADF804308DF886
:1057B0000630CDE90241374B064682B9E52204A8FE
:1057C0008DF800200493CDF814D000F015FB0128CB
:1057D000054601D0C8B10225284607B0F0BDF52224
:1057E00004A88DF800200493CDF814D000F0F6FA48
:1057F000294A2A4B0546012D106837D0002D3DD18E
:10580000A3FB0030800907F00FF802A800F0D8FAD7
:1058100001280546E0D00028DDD1BDF804E09DF860
:1058200006701F4C1F499EFA9EFE1FFA8EFC4FEA1F
:105830000C2C10224FF4000313EA0C0F1CBF04EAD7
:1058400001008CEA000C013A4FEA53034FEA54047A
:105850004FEA5101F0D1674503D00325284607B030
:10586000F0BD2846A6F800E007B0F0BDA3FB00306D
:10587000800906F0D9FF284607B0F0BDA3FB003031
:105880008009022506F0D0FFA6E700BF3C120020E9
:10589000800003008000010000000020D34D621052
:1058A0000080FF00008098002DE9F04387B0DFF80A
:1058B000E090334F334EA0240DF10408002510E092
:1058C00019BB00F07DFA02340128E4B256D0E0B9E9
:1058D000BDF804305BBA29F8023F9BB2ABB1AE2CE5
:1058E00018D004A8CDE902788DF80040ADF8045036
:1058F0000496CDF814D000F071FA0146012902A8EF
:10590000DED1084607B0BDE8F0830221084607B0A3
:10591000BDE8F0831C4CB4F800C0E081CCF30B036D
:105920004FEA1C3E23800246C10746BFDBB25A4005
:1059300082EA13220821530083F4405312F4004FEB
:105940001BB214BF9AB2520001F1FF3308BF92B2EA
:1059500013F0FF01EFD10130C0B2102803D043088B
:1059600034F81330E0E7BEEB123F08BF074BA4F852
:1059700000C006BF01221A700321C2E70146C0E73A
:10598000EC000200EC0001002C1200203D1200206F
:105990002A120020F0B587B0054601A80023314A3D
:1059A0000390314FADF8043004A80E468DF8063050
:1059B00002928DF800500497CDF814D000F00EFA42
:1059C000012804462DD000283DD1284BC5F34205BF
:1059D00053F82500264BA3FB0030800906F024FF76
:1059E00004A88DF800400497CDF814D000F0F6F923
:1059F0000128044612D010BB02A800F0E1F90128EA
:105A000004460BD0D8B99DF805309DF804109DF8D8
:105A100006201B0243EA014313433360204607B0CC
:105A2000F0BD124A124BC5F3420552F82500A3FB04
:105A30000030800906F0F8FE204607B0F0BD0224D1
:105A4000204607B0F0BD094A094BC5F342050224C0
:105A500052F82500A3FB0030800906F0E5FE204641
:105A600007B0F0BDEC000300EC0001005443010856
:105A7000D34D62100349044B0020052208701A70B0
:105A800000F09CB93C1200203E120020014B18701F
:105A900000F094B93E12002010B582B0802300249B
:105AA0006846CDE9003400F099F958B90346EC2274
:105AB0006846CDE9002300F091F9B0FA80F0400982
:105AC00002B010BD204602B010BD00BF10B582B0BC
:105AD00004460DF10600FFF761FE88B9BDF80630F7
