:020000040800F2
:1000000000000120D93B0008093000080F3000082B
:10001000153000081B3000082130000800000000E7
:100020000000000000000000000000002730000871
:10003000353000080000000043300008513000084F
:10004000293C0008293C0008293C0008293C0008FC
:10005000293C0008293C0008293C0008293C0008EC
:10006000293C0008293C0008293C000861300008B0
:10007000293C0008293C0008293C0008293C0008CC
:10008000293C0008293C0008293C0008293C0008BC
:10009000293C0008293C0008293C0008293C0008AC
:1000A000293C0008293C0008293C0008293C00089C
:1000B000293C00080000000000000000293C000866
:1000C000293C0008293C0008293C0008293C00087C
:1000D000293C00087530000889300008293C0008D8
:1000E000293C0008293C0008000000000000000036
:1000F0000000000000000000000000000000000000
:1001000000000000293C000800000000293C000815
:100110000000000000000000293C0008293C000805
:10012000293C0008293C0008293C0008293C00081B
:10013000293C000800000000000000000000000052
:10014000293C0008293C0008293C00080000000068
:10015000293C0008293C0008293C0008293C0008EB
:10016000293C0008293C0008293C00080000000048
:10017000293C0008293C00080000000000000000A5
:0C018000293C0008293C0008293C00082C
:1001900010B5054C237833B9044B13B10448AFF3C1
:1001A00000800123237010BDD80100200000000052
:1001B00038D2000808B5034B1BB103490348AFF31D
:1001C000008008BD00000000DC01002038D20008DB
:1001D00001F0FF01102A2BDB10F0070F08D010F8F8
:1001E000013B013A8B422DD010F0070F42B3F6D1FC
:1001F000F0B441EA012141EA014122F007047FF015
:1002000000070023F0E80256083C85EA010586EA6B
:10021000010685FA47F5A3FA87F586FA47F6A5FAA7
:1002200087F68EB9EED1F0BC01F0FF0102F00702B3
:1002300032B110F8013B013A83EA010313B1F8D15E
:100240000020704701387047002D06BF354603383F
:10025000073815F0010F07D1013015F4807F02BF78
:10026000013015F4C03F0130F0BC0138704700BFC9
:10027000034613F8012B002AFBD1181A01387047E6
:1002800081F0004102E000BF83F0004330B54FEA47
:1002900041044FEA430594EA050F08BF90EA020FB4
:1002A0001FBF54EA000C55EA020C7FEA645C7FEA47
:1002B000655C00F0E2804FEA5454D4EB5555B8BF6A
:1002C0006D420CDD2C4480EA020281EA030382EADB
:1002D000000083EA010180EA020281EA0303362D6D
:1002E00088BF30BD11F0004F4FEA01314FF4801C40
:1002F0004CEA113102D0404261EB410113F0004F52
:100300004FEA03334CEA133302D0524263EB430308
:1003100094EA050F00F0A780A4F10104D5F1200EA6
:100320000DDB02FA0EFC22FA05F2801841F1000101
:1003300003FA0EF2801843FA05F359410EE0A5F1D5
:1003400020050EF1200E012A03FA0EFC28BF4CF006
:10035000020C43FA05F3C01851EBE37101F00045BC
:1003600007D54FF0000EDCF1000C7EEB00006EEBC9
:100370000101B1F5801F1BD3B1F5001F0CD3490853
:100380005FEA30004FEA3C0C04F101044FEA4452AA
:1003900012F5800F80F09A80BCF1004F08BF5FEA31
:1003A000500C50F1000041EB045141EA050130BD11
:1003B0005FEA4C0C404141EB0101013C28BFB1F523
:1003C000801FE9D291F0000F04BF01460020B1FA6E
:1003D00081F308BF2033A3F10B03B3F120020CDA41
:1003E0000C3208DD02F1140CC2F10C0201FA0CF01F
:1003F00021FA02F10CE002F11402D8BFC2F1200C84
:1004000001FA02F120FA0CFCDCBF41EA0C01904039
:10041000E41AA2BF01EB0451294330BD6FEA040482
:100420001F3C1CDA0C340EDC04F11404C4F120026D
:1004300020FA04F001FA02F340EA030021FA04F37F
:1004400045EA030130BDC4F10C04C4F1200220FAD6
:1004500002F001FA04F340EA0300294630BD21FA14
:1004600004F0294630BD94F0000F83F4801306BFDA
:1004700081F480110134013D4EE77FEA645C18BFCE
:100480007FEA655C29D094EA050F08BF90EA020F65
:1004900005D054EA000C04BF1946104630BD91EA5D
:1004A000030F1EBF0021002030BD5FEA545C05D160
:1004B0004000494128BF41F0004130BD14F580049F
:1004C0003CBF01F5801130BD01F0004545F0FE4113
:1004D00041F470014FF0000030BD7FEA645C1ABF48
:1004E000194610467FEA655C1CBF0B46024650EA7F
:1004F000013406BF52EA033591EA030F41F40021AB
:1005000030BD00BF90F0000F04BF0021704730B530
:100510004FF4806404F132044FF000054FF0000105
:1005200050E700BF90F0000F04BF0021704730B5C6
:100530004FF4806404F1320410F0004548BF40429B
:100540004FF000013EE700BF42004FEAE2014FEAF0
:1005500031014FEA02701FBF12F07F4393F07F4FCB
:1005600081F06051704732F07F4208BF704793F0CE
:100570007F4F04BF41F40021704730B54FF46074E1
:1005800001F0004521F000411CE700BF50EA0102E4
:1005900008BF704730B54FF000050AE050EA01028D
:1005A00008BF704730B511F0004502D5404261EBFD
:1005B00041014FF4806404F132045FEA915C3FF43E
:1005C000D8AE4FF003025FEADC0C18BF03325FEADB
:1005D000DC0C18BF033202EBDC02C2F1200300FA8C
:1005E00003FC20FA02F001FA03FE40EA0E0021FAB1
:1005F00002F11444BDE600BF70B54FF0FF0C4CF49F
:10060000E06C1CEA11541DBF1CEA135594EA0C0F50
:1006100095EA0C0F00F0DEF82C4481EA030621EA8B
:100620004C5123EA4C5350EA013518BF52EA0335C6
:1006300041F4801143F4801338D0A0FB02CE4FF078
:100640000005E1FB02E506F00042E0FB03E54FF0A8
:100650000006E1FB03569CF0000F18BF4EF0010EA0
:10066000A4F1FF04B6F5007F64F5407404D25FEA9C
:100670004E0E6D4146EB060642EAC62141EA55514F
:100680004FEAC52040EA5E504FEACE2EB4F1FD0C91
:1006900088BFBCF5E06F1ED8BEF1004F08BF5FEA0F
:1006A000500E50F1000041EB045170BD06F00046C1
:1006B00046EA010140EA020081EA0301B4EB5C046E
:1006C000C2BFD4EB0C0541EA045170BD41F4801166
:1006D0004FF0000E013C00F3AB8014F1360FDEBF8B
:1006E000002001F0004170BDC4F10004203C35DA67
:1006F0000C341BDC04F11404C4F1200500FA05F3EA
:1007000020FA04F001FA05F240EA020001F000428A
:1007100021F0004110EBD37021FA04F642EB060100
:100720005EEA430E08BF20EAD37070BDC4F10C042A
:10073000C4F1200500FA04F320FA05F001FA04F2EE
:1007400040EA020001F0004110EBD37041F10001DA
:100750005EEA430E08BF20EAD37070BDC4F12005E5
:1007600000FA05F24EEA020E20FA04F301FA05F24D
:1007700043EA020321FA04F001F0004121FA04F2F5
:1007800020EA020000EBD3705EEA430E08BF20EAC5
:10079000D37070BD94F0000F0FD101F000464000FF
:1007A00041EB010111F4801F08BF013CF7D041EA81
:1007B000060195F0000F18BF704703F00046520085
:1007C00043EB030313F4801F08BF013DF7D043EA56
:1007D0000603704794EA0C0F0CEA135518BF95EA0C
:1007E0000C0F0CD050EA410618BF52EA4306D1D193
:1007F00081EA030101F000414FF0000070BD50EAB2
:10080000410606BF1046194652EA430619D094EA3B
:100810000C0F02D150EA013613D195EA0C0F05D125
:1008200052EA03361CBF104619460AD181EA030179
:1008300001F0004141F0FE4141F470014FF0000031
:1008400070BD41F0FE4141F4780170BD70B54FF0CC
:10085000FF0C4CF4E06C1CEA11541DBF1CEA13554C
:1008600094EA0C0F95EA0C0F00F0A7F8A4EB05042E
:1008700081EA030E52EA03354FEA013100F0888025
:100880004FEA03334FF0805545EA131343EA1263EE
:100890004FEA022245EA111545EA10654FEA0026A3
:1008A0000EF000419D4208BF964244F1FD0404F55C
:1008B000407402D25B084FEA3202B61A65EB0305B8
:1008C0005B084FEA32024FF480104FF4002CB6EB75
:1008D000020E75EB030E22BFB61A754640EA0C00F5
:1008E0005B084FEA3202B6EB020E75EB030E22BF35
:1008F000B61A754640EA5C005B084FEA3202B6EB76
:10090000020E75EB030E22BFB61A754640EA9C0034
:100910005B084FEA3202B6EB020E75EB030E22BF04
:10092000B61A754640EADC0055EA060E18D04FEAC2
:10093000051545EA16754FEA06164FEAC30343EA62
:1009400052734FEAC2025FEA1C1CC0D111F4801F2F
:100950000BD141EA00014FF000004FF0004CB6E728
:1009600011F4801F04BF01430020B4F1FD0C88BFC7
:10097000BCF5E06F3FF6AFAEB5EB030C04BFB6EBD2
:10098000020C5FEA500C50F1000041EB045170BDC5
:100990000EF0004E4EEA113114EB5C04C2BFD4EBF2
:1009A0000C0541EA045170BD41F480114FF0000E76
:1009B000013C90E645EA060E8DE60CEA135594EAF2
:1009C0000C0F08BF95EA0C0F3FF43BAF94EA0C0FF5
:1009D0000AD150EA01347FF434AF95EA0C0F7FF46A
:1009E00025AF104619462CE795EA0C0F06D152EABE
:1009F00003353FF4FDAE1046194622E750EA4106A2
:100A000018BF52EA43067FF4C5AE50EA41047FF4B2
:100A10000DAF52EA43057FF4EBAE12E74FF0FF3C17
:100A200006E000BF4FF0010C02E000BF4FF0010CE8
:100A30004DF804CD4FEA410C7FEA6C5C4FEA430C61
:100A400018BF7FEA6C5C1BD001B050EA410C0CBFB0
:100A500052EA430C91EA030F02BF90EA020F002012
:100A6000704710F1000F91EA030F58BF994208BF79
:100A700090422CBFD8176FEAE37040F00100704736
:100A80004FEA410C7FEA6C5C02D150EA013C07D18D
:100A90004FEA430C7FEA6C5CD6D152EA033CD3D0D8
:100AA0005DF8040B704700BF8446104662468C46D2
:100AB0001946634600E000BF01B5FFF7B7FF002805
:100AC00048BF10F1000F01BD4DF808EDFFF7F4FF2E
:100AD0000CBF012000205DF808FB00BF4DF808EDB9
:100AE000FFF7EAFF34BF012000205DF808FB00BFDC
:100AF0004DF808EDFFF7E0FF94BF012000205DF8FE
:100B000008FB00BF4DF808EDFFF7CEFF94BF0120B2
:100B100000205DF808FB00BF4DF808EDFFF7C4FFAB
:100B200034BF012000205DF808FB00BF4FEA410CF4
:100B30007FEA6C5C02D150EA013C0AD14FEA430CD7
:100B40007FEA6C5C02D152EA033C02D14FF0000014
:100B500070474FF0010070474FEA410212F5001252
:100B600015D211D56FF47873B3EB625212D94FEAF4
:100B7000C12343F0004343EA505311F0004F23FADE
:100B800002F018BF404270474FF00000704750EA33
:100B9000013005D111F0004008BF6FF000407047F0
:100BA0004FF00000704700BF4FEA4102B2F1E0434E
:100BB00024BFB3F5001CDCF1FE5C0DD901F0004C44
:100BC0004FEAC0024CEA5070B2F1004F40EB830094
:100BD00008BF20F00100704711F0804F21D113F1C0
:100BE0003872BCBF01F00040704741F480114FEAF9
:100BF0005252C2F11802C2F1200C10FA0CF320FA82
:100C000002F018BF40F001004FEAC1234FEAD3239E
:100C100003FA0CFC40EA0C0023FA02F34FEA430308
:100C2000CCE77FEA625307D150EA01331EBF4FF091
:100C3000FE4040F44000704701F0004040F0FE40AC
:100C400040F40000704700BF53B94AB9002908BFFB
:100C500000281CBF4FF0FF314FF0FF3000F070B99B
:100C6000ADF1080C6DE904CE00F006F8DDF804E003
:100C7000DDE9022304B070472DE9F047089E0D46D8
:100C800004460F46002B4AD18A42944665D9B2FAEF
:100C900082F343B102FA03FCC3F120029F4020FA21
:100CA00002F217439C404FEA1C4E1FFA8CF5B7FB2B
:100CB000FEF1220C0EFB117742EA074201FB05F020
:100CC00090420AD91CEB020201F1FF3780F01C812F
:100CD000904240F2198102396244121AA4B2B2FB66
:100CE000FEF00EFB102244EA024400FB05F5A5428B
:100CF0000AD91CEB040400F1FF3280F00781A54201
:100D000040F204816444023840EA0140641B00213F
:100D10001EB1DC400023C6E90043BDE8F0878B42EA
:100D200008D9002E00F0ED800021C6E90005084634
:100D3000BDE8F087B3FA83F1002949D1AB4202D371
:100D4000824200F2F880841A65EB03020120174604
:100D5000002EE2D0C6E90047DFE702B9FFDEB2FAB3
:100D600082F3002B40F090808A1A4FEA1C471FFA4A
:100D70008CFE0121B2FBF7F507FB1520220C42EA9D
:100D800000420EFB05F0904208D91CEB020205F16F
:100D9000FF3802D2904200F2CB804546121AA4B22C
:100DA000B2FBF7F007FB102244EA02440EFB00FE00
:100DB000A64508D91CEB040400F1FF3202D2A64577
:100DC00000F2BB801046A4EB0E0440EA05409FE70A
:100DD000C1F120078B4022FA07FC4CEA030C05FA0C
:100DE00001F420FA07F3FD404FEA1C492343B5FB09
:100DF000F9F81FFA8CFE09FB18551C0C44EA05444F
:100E000008FB0EF5A54202FA01F200FA01F00BD937
:100E10001CEB040408F1FF3A80F08880A54240F200
:100E20008580A8F102086444641B9DB2B4FBF9F309
:100E300009FB134445EA044403FB0EFEA64508D90A
:100E40001CEB040403F1FF356CD2A6456AD9023BC2
:100E5000644443EA0843A3FB0295A4EB0E04AC42AE
:100E6000C846AE4656D353D056B1B0EB080264EB39
:100E70000E0404FA07F7CA40CC401743C6E90074D1
:100E800018460021BDE8F087C3F1200102FA03FCF7
:100E900020FA01F225FA01F19D402A434FEA1C474E
:100EA0001FFA8CFEB1FBF7F007FB1015110C41EA9D
:100EB000054100FB0EF58D4204FA03F408D91CEB42
:100EC000010100F1FF382FD28D422DD90238614443
:100ED000491B92B2B1FBF7F507FB151142EA01423B
:100EE00005FB0EF1914208D91CEB020205F1FF3817
:100EF00016D2914214D9023D6244521A45EA004189
:100F000038E73146304608E73946E6E61046FBE664
:100F10004845A9D2B9EB020865EB0C0E013BA3E7EB
:100F20004546EAE72B4694E74046D1E7D0467BE7C3
:100F3000023D624432E708460AE76444023842E769
:100F4000704700BF80B500AF7F21064804F064F809
:100F50000A2002F0DFFE05220349024803F034FABA
:100F600000BF80BD70040020F401002000000000DC
:100F7000B0B584B000AF0023FB81334B1B887B816D
:100F8000324B1B883B8100237B730AE07B7B304A1A
:100F900032F813309AB2FB891344FB817B7B013317
:100FA0007B737B7B042BF1D9FB8907EE903AF8EE3B
:100FB000E77A9FED287A67EE877AFCEEE77A17EEFC
:100FC000903AFB817B8907EE903AB8EEE77AFB898D
:100FD00007EE903AF8EE677A77EE677A17EE900AA6
:100FE000FFF7B2FA16A3D3E90023FFF705FB024689
:100FF0000B4614461D463B891846FFF793FA0246F6
:101000000B4620462946FFF721FC02460B461046B8
:1010100019464FF00002104BFFF738F902460B4615
:1010200010461946FFF7C0FD03467B607B6807EE5C
:10103000903AB0EE670A1037BD46B0BDAFF30080FE
:101040003333333333331140A875FF1FCA75FF1F85
:10105000F4010020CDCC4C3E0000394080B58AB070
:1010600004AFF8600B467A60FB72FB689B8C5B00F8
:10107000FB82FB68986AFB7A9AB2F98A41F288335C
:1010800002930223019307F114030093012305F057
:1010900001FB0346002B0BD17B7D1B021AB23B7D6B
:1010A0001BB213431BB29AB27B681A80012300E083
:1010B000002318461837BD4680BD90B58BB004AFED
:1010C000F8607A601A460B46FB721346BB72FB68E7
:1010D0009B8C5B00FB82FB68986AFB7A9AB2BB7AB6
:1010E0009BB2F98A41F28834029401937B680093A1
:1010F000012305F0CFFA0346002B01D1002300E0C5
:10110000012318461C37BD4690BD80B582B000AFA4
:1011100078607B681A4688217868FFF79FFF03464E
:10112000002B6FD07B6802331A468A217868FFF75C
:1011300095FF0346002B65D07B6804331A468C214B
:101140007868FFF78BFF0346002B5BD07B68063384
:101150001A468E217868FFF781FF0346002B51D095
:101160007B6808331A4690217868FFF777FF0346BB
:10117000002B47D07B680A331A4692217868FFF724
:101180006DFF0346002B3DD07B680C331A4694213B
:101190007868FFF763FF0346002B33D07B680E337C
:1011A0001A4696217868FFF759FF0346002B29D08D
:1011B0007B6810331A4698217868FFF74FFF034683
:1011C000002B1FD07B6812331A469A217868FFF7EC
:1011D00045FF0346002B15D07B6814331A469C212B
:1011E0007868FFF73BFF0346002B0BD07B68163374
:1011F0001A469E217868FFF731FF0346002B01D085
:10120000012300E0002318460837BD4680BD80B5A5
:1012100084B000AF78607B6803F118020123A1213C
:101220007868FFF74AFF0346002B4BD17B681A33DF
:101230001A46E1217868FFF711FF0346002B41D0E1
:101240007B6803F11C020123E3217868FFF735FF77
:101250000346002B36D107F10E031A46E4217868C5
:10126000FFF7FCFE0346002B2CD007F10C031A46B7
:10127000E5217868FFF7F2FE0346002B22D07B6859
:1012800003F122020123E7217868FFF716FF0346E6
:10129000002B17D1FB891B011BB203F47F631AB229
:1012A000FB891B121BB203F00F031BB213431AB2CC
:1012B0007B68DA83BB891B099BB21AB27B681A84EC
:1012C000012300E0002318461037BD4680BD80B5DD
:1012D00088B004AF78600B46FB701346BB707B6828
:1012E0009B8C5B00FB817B68986AFB789AB2F989DA
:1012F00042F21073029301230193BB1C009301235C
:1013000005F0B4F80346002B01D1002300E00123CF
:1013100018461037BD4680BD80B584B000AF7860F8
:1013200039607B689B8C762B05D07B689B8C772BF8
:1013300001D0002399E07B6803F132020123D02120
:101340007868FFF7BAFE0346002B01D000238CE03B
:101350007B6893F83230582B06D07B6893F8323094
:10136000602B01D0002380E0B622E0217868FFF7EF
:10137000AEFF0346002B01D0002376E007F10C02FC
:101380000123F3217868FFF798FE0346002BF5D17F
:101390003B7B03F00103002BF0D17868FFF7B5FE2B
:1013A000034683F00103DBB2002B00D101E00023F0
:1013B0005BE07B6893F83230602B0AD17868FFF7E6
:1013C00026FF034683F00103DBB2002B01D000238C
:1013D0004BE03B685B795B015AB23B685B789B00F2
:1013E0005BB213435BB2FB73FB7B1A46F521786853
:1013F000FFF76DFF0346002B01D0002335E03B686B
:101400001B78012B02D13B6800221A703B68DB7805
:101410005B015AB23B689B789B005BB213435AB2A4
:101420003B681B785BB213435BB2BB737B6893F87A
:101430003230602B0DD13B681B797B737B7B1A4666
:10144000F2217868FFF743FF0346002B01D0002309
:101450000BE0BB7B1A46F4217868FFF738FF0346A0
:10146000002B01D0002300E0012318461037BD46B1
:1014700080BD000080B584B000AF1A4809F0DCFEE2
:101480000023BB601FE040F2DC530322D621164844
:1014900005F01AFA0346FB71642002F03BFCFB796D
:1014A000002B07D1114809F02DFF00F023F801238C
:1014B000FB730BE00023FB734FF4FA7002F02AFC7D
:1014C000BB680133BB60BB68092BDCDDFB7B002BF9
:1014D00002D1074809F016FFFB7B18461037BD46BE
:1014E00080BD00BF50D200084005002068D200082F
:1014F00070D2000880B582B000AF8023FB71FA790A
:10150000D6232E21044801F0F1FF012002F002FC55
:1015100000BF0837BD4680BD4005002080B582B0C1
:1015200000AFBA1DD6233B21054801F0BDFFFB8863
:10153000184602F08FF8034618460837BD4680BDAE
:101540004005002080B582B000AFBA1DD6233D21F2
:10155000054801F0A9FFFB88184602F07BF8034616
:1015600018460837BD4680BD4005002080B584B0D0
:1015700000AFF860B9607A607B689AB27B6801332B
:10158000B968044807F07EFE7B6818461037BD46F0
:1015900080BD00BF8806002080B582B000AF7860B3
:1015A0007B680B4A934205D14FF400720949084801
:1015B00007F0FCFE7B68084A934205D14FF40072A5
:1015C0000649054807F0F2FE00BF0837BD4680BD5A
:1015D00088060020000200200C07002004040020E0
:1015E00080B582B000AF78607868FFF7D5FF00BFA4
:1015F0000837BD4680BD000080B400AF0D4BB3F886
:1016000058301A460B4BB3F85A309BB2D31A03F535
:101610000073094A12889B1A5A42C3F30803C2F3A3
:10162000080258BF53429BB21846BD465DF8047B82
:10163000704700BF880600200004002080B483B0FB
:1016400000AF0C4B1B885A1C91B20A4A11801A46F3
:10165000094B9B5CFB71074B1B88B3F5007F02D3E2
:10166000044B00221A80FB7918460C37BD465DF802
:10167000047B7047000400200002002080B487B083
:1016800000AF786000237B6131E07B693B61002320
:10169000FB6011E0FB6801337A6813441B78002B70
:1016A00004D13B690133184A134427E03B690133F5
:1016B0003B61FB680133FB60134A3B6913441B78B1
:1016C000FB72FB7A0133114A13441B7803F00303C6
:1016D000012B02D1FB7A203300E0FB7AFA687968AB
:1016E0000A4412789342D5D07B6901337B61064A64
:1016F0007B6913441B78002BC7D1002318461C3785
:10170000BD465DF8047B7047240400206CD60008B9
:1017100080B582B000AFFFF76FFF03463B603B68C8
:10172000002B0FD000237B6008E0FFF787FF034604
:10173000184600F00BF87B6801337B607A683B68E1
:101740009A42F2DB00BF0837BD4680BD80B582B04B
:1017500000AF0346FB712F4B1B681F2B07D82D4B87
:101760001B685A1C2B490A602B49FA79CA54FB7929
:101770000A2B4BD1274B1B68013B274AD35C0D2B0F
:1017800004D1244B1B68013B224A1360214B1B6888
:101790001A46214B13441F4A1268C2F1200200214D
:1017A000184609F08FFE1B4B00221A601B48FFF7FA
:1017B00065FF03461A4A934206D01A48FFF75EFFB8
:1017C0000346194A934202D100F03EF81EE0174842
:1017D000FFF754FF0346164A93420AD1154B1B7874
:1017E000002B0CBF01230023DBB21A46114B1A70E9
:1017F0000CE01148FFF742FF0346104A934205D11F
:10180000A02238210E4801F0E5FE00BF0837BD4692
:1018100080BD00BF4404002024040020A0D20008A2
:1018200025040020A4D2000828040020ACD200081F
:101830002A04002000000020B4D200082B0400205D
:10184000940500200000000080B582B002AF31A3F3
:10185000D3E90023CDE900234FF00002224B2348B7
:1018600009F0EAFC224809F0E7FC224B1B78032B25
:101870001AD801A252F823F089180008911800081C
:1018800099180008A11800081B4809F03BFD0BE05F
:101890001A4809F037FD07E0194809F033FD03E065
:1018A000184809F02FFD00BFFFF762FB10EE103A59
:1018B0001846FEF749FE02460B46134809F0BCFCE9
:1018C000FFF72CFE03461946104809F0B5FCFFF758
:1018D00039FE034619460E4809F0AEFC00BFBD466E
:1018E00080BD00BFAFF300800000F03FBCD2000815
:1018F000E0D2000890070020F4D20008FCD20008D3
:1019000000D3000814D3000824D3000840D30008F3
:1019100050D30008000000A09999C93F80B582B05B
:1019200000AF022001F0ACFE012002F0F3F9962393
:101930000322EE21144804F0C7FF0346FB71642024
:1019400002F0E8F9FB79002B15D1BA1DEE230D2129
:101950000D4801F087FD002001F092FEBB79102BAD
:1019600004D10A4809F0CEFC012308E0084809F038
:10197000C9FC002303E0074809F0C4FC0023184613
:101980000837BD4680BD00BF9405002064D3000821
:1019900070D300087CD3000880B483B000AF7860B7
:1019A0000B46FB707B681B681A46FB78013B22FAEA
:1019B00003F303F00103002B0AD07B681B68194670
:1019C000FB78012202FA03F3CB1A1A467B681A60ED
:1019D00000BF0C37BD465DF8047B704780B58AB008
:1019E00004AF01F091FEFA230293122301933B1DF1
:1019F000009301231022EE21414804F04BFE01F038
:101A00008AFE3B791A017B791B09DBB203F00F03D5
:101A100013431A463B4B1A600C213A48FFF7BCFFB0
:101A2000384B1B685B081A46364B1A607B791B02E1
:101A300003F47063BA7913431A46324B5A600C218F
:101A40003148FFF7A9FFFB791A033B7A1B011A43C0
:101A50007B7A1B09DBB203F00F0313431A46294BB1
:101A60009A6014212948FFF797FF7B7A1B0403F43F
:101A70007022BB7A1B021343FA7A13431A46214B96
:101A8000DA6014212248FFF787FF3B7B1B027A7B39
:101A900013431A461B4B1A6110211E48FFF77CFFA7
:101AA000BB7B1B02FA7B13431A46164B5A6110216B
:101AB0001948FFF771FF3B7C1B027A7C13431A46DF
:101AC000104B9A6110211548FFF766FFBB7C1B0283
:101AD000FA7C13431A460B4BDA6110211048FFF7CA
:101AE0005BFF3B7D1B027A7D13431A46054B1A624E
:101AF00010210C48FFF750FF00BF1837BD4680BDCE
:101B000094050020480400204C04002050040020CC
:101B100054040020580400205C04002060040020CD
:101B2000640400206804002080B588B004AF034638
:101B3000FB7101F0E9FDFA2302930123019307F100
:101B40000F03009301230922EE21104804F0A2FDA7
:101B5000FA7907F10F030121184601F0EBFCFA2393
:101B600002930123019307F10F030093012309223C
:101B7000EE21064804F07AFC012002F0CBF801F0D7
:101B8000CAFD00BF1037BD4680BD00BF94050020D0
:101B900080B588B004AF0346FB7101F0B5FDFA23B0
:101BA00002930123019307F10F03009301230922FC
:101BB000EE21104804F06EFDFA7907F10F03F021D1
:101BC000184601F0E6FCFA2302930123019307F182
:101BD0000F03009301230922EE21064804F046FC7E
:101BE000012002F097F801F096FD00BF1037BD46C6
:101BF00080BD00BF9405002080B586B004AF01F021
:101C000083FDFA23029301230193BB1D009301235B
:101C10000722EE21184804F03DFDFA230293012328
:101C20000193FB1D009301232822EE21124804F0AA
:101C300031FDFB795BB2002B06DBBB1D00220721C7
:101C4000184601F077FC05E0BB1D0122072118466C
:101C500001F070FCFA23029301230193BB1D009352
:101C600001230722EE21044804F000FC01F053FD9B
:101C700000BF0837BD4680BD9405002080B588B000
:101C800004AF03460A46FB711346BB7101F03CFDED
:101C9000FA79BB791344DBB2FB73FA230293012375
:101CA000019307F10F03009301230722EE2135482A
:101CB00004F0DCFBFB79072B3AD801A252F823F0A1
:101CC000E11C0008EB1C0008F51C0008FF1C0008C4
:101CD000091D0008131D00081D1D0008271D000810
:101CE000294B4FF400221A6022E0274B4FF4C01218
:101CF0001A601DE0244B4FF460121A6018E0224B6A
:101D00004FF4F0021A6013E01F4B4FF478321A6060
:101D10000EE01D4B4FF4FC221A6009E01A4B4FF401
:101D20007E221A6004E0184B4FF4FF121A6000BFC5
:101D3000FA2302930123019307F10F030093012378
:101D40000922EE210F4804F0A5FC07F10F03002241
:101D50000321184601F0EEFBFA23029301230193BD
:101D600007F10F03009301230922EE21054804F037
:101D70007DFBFFF741FF01F0CEFC00BF1037BD46F1
:101D800080BD00BF940500206C04002080B586B0A3
:101D900004AF01F0B9FCA523BB71FA230293012320
:101DA0000193BB1D009301230E22EE212E4804F067
:101DB0005DFB0346FB71FB79002B0FD19623BB71B2
:101DC000FA23029301230193BB1D009301230F22E9
:101DD000EE21254804F04AFB0346FB71FB79002BFA
:101DE0000FD10223BB71FA23029301230193BB1D80
:101DF000009301236222EE211B4804F037FB0346C7
:101E0000FB71FB79002B0FD10023BB71FA230293E6
:101E100001230193BB1D009301230E22EE211248E2
:101E200004F024FB0346FB71FB79002B0FD1002348
:101E3000BB71FA23029301230193BB1D009301237D
:101E40000F22EE21084804F011FB0346FB7100212C
:101E50000020FFF713FF022000F008F801F05BFC00
:101E600000BF0837BD4680BD9405002080B588B00E
:101E700004AF0346FB7101F047FCFB79FB73FA23C7
:101E800002930123019307F10F030093012308221A
:101E9000EE21064804F0EAFA022001F03BFF01F0CF
:101EA0003AFC00BF1037BD4680BD00BF940500203E
:101EB00080B582B000AF03460A46FB711346BB7182
:101EC000FFF78CFDBB791846FFF762FEFB791846D9
:101ED000FFF72AFE0020FFF7C9FFFFF757FF00BFFB
:101EE0000837BD4680BD000080B584B002AF01F068
:101EF0009CFE00F0A7F900F05BFC00F03BFC00F05A
:101F000005FA00F09FFA00F0DDFA00F01BFB00F08C
:101F1000D1FB00F0FFFB00F069FA00F053FB00F08A
:101F2000E0F90021AF4806F0EDFBAF48FFF734FBC6
:101F3000AE48FFF731FB01F0F9F9AD4809F0E2F9DD
:101F4000FFF798FA03461A46AA4B1A70002220217E
:101F5000A94803F0DFFF002001F0D6F9FEF7F2FFF9
:101F600001F0CCFE786001F0C9FE386000224FF429
:101F700080714FF0904003F0CDFF01F0D3FB03469A
:101F800003F00103D9B29D4A137861F30003137083
:101F900001F000FC034603F00103D9B2984A13781C
:101FA00061F300031370964B1B7803F00103DBB25F
:101FB000002B0AD0934A137843F001031370924A1E
:101FC000137843F00103137009E08E4A13786FF31E
:101FD000000313708C4A13786FF30003137001F041
:101FE00031FC034603F00103D9B2884A137861F348
:101FF00000031370854B1B7803F00103DBB2002B49
:1020000005D0834A137843F00103137004E0804A3B
:1020100013786FF30003137001F048FD034603F0DB
:102020000103D9B27B4A137861F300031370794B33
:102030001B7803F00103DBB2002B0AD0764A137839
:1020400043F001031370754A137843F001031370D2
:1020500009E0714A13786FF3000313706F4A137825
:102060006FF300031370FFF759FC034603F00103FD
:10207000D9B26B4A137861F300031370684B1B7875
:1020800003F00103DBB2002B0AD0664A137843F059
:1020900001031370644A137843F00103137009E0DD
:1020A000604A13786FF3000313705F4A13786FF37D
:1020B0000003137000230093032303220321012054
:1020C00001F032FD00210020FFF7F2FE01F0A4F93B
:1020D00001F014FE02467B68D31A42F20F7293425B
:1020E0006DD9524B1B78DBB2002B68D001F006FE95
:1020F0007860002001F006FCF0EE407A434B17EECA
:10210000902AC3F80120002001F068FCF0EE407A2C
:102110003F4B17EE902AC3F80120454809F0F2F82A
:102120003A4BD3F801301846FEF70EFA02460B463A
:10213000404809F081F8404809F07EF8344BD3F864
:1021400001301846FEF700FA02460B46394809F0FE
:1021500073F83A4809F0D6F8012001F0D3FBF0EE0D
:10216000407A2A4B17EE902AC3F80120012001F093
:1021700035FCF0EE407A264B17EE902AC3F801208A
:102180002F4809F0BFF8214BD3F801301846FEF76D
:10219000DBF902460B46274809F04EF8264809F0BD
:1021A0004BF81B4BD3F801301846FEF7CDF9024629
:1021B0000B46204809F040F8204809F0A3F801F048
:1021C0009DFD02463B68D31A1D2B7FF67FAF01F0C1
:1021D00095FD38602021084803F0B4FE01F0E0F8D6
:1021E00074E700BF3C060020880600200C07002092
:1021F00080D40008900700200004004894070020C5
:10220000A0070020D0070020F4070020AC07002022
:1022100000080020B8070020DC0700200C08002080
:10222000C4070020E8070020180800200000002054
:1022300094D40008A4D40008B0D40008B8D400088E
:10224000BCD4000880B596B000AF07F11403442257
:102250000021184609F036F93B4600221A605A6000
:102260009A60DA601A614FF4007004F0FBFF0346D5
:10227000002B01D000F08AFB01237B614FF48033F7
:10228000BB610223FB6303233B6401237B640A23BA
:10229000BB640723FB6402233B6502237B6507F1D4
:1022A0001403184605F034F80346002B01D000F063
:1022B0006DFB0F233B6003237B600023BB60002387
:1022C000FB6000233B613B460221184605F034FCCD
:1022D0000346002B01D000F059FB00BF5837BD4624
:1022E00080BD80B500AF00220021252002F0CFFF85
:1022F000252002F0E8FF00220021262002F0C7FF7F
:10230000262002F0E0FF00BF80BD000080B586B04F
:1023100000AF3B4600221A605A609A60DA601A6188
:102320005A612F4B2F4A1A602D4B4FF480225A606E
:102330002B4B00229A602A4B0022DA60284B0022A5
:102340001A61274B04225A61254B00221A76244B2E
:1023500001225A76224B0122DA61214B002283F8B6
:1023600020201F4B00229A621D4B0022DA621C4B78
:10237000012283F830201A4B00225A63184B0122A5
:1023800083F83820164B0C22DA63154B00221A64AE
:10239000134B00225A64124B01229A64104801F038
:1023A000CBFE0346002B01D000F0F0FA0E4B3B6051
:1023B00006237B600723BB607F23FB6004233B6114
:1023C00000237B613B461946054802F09FF803460F
:1023D000002B01D000F0DAFA00BF1837BD4680BDEF
:1023E0007004002000000450000052C780B500AF08
:1023F000124B134A1A60114B01221A710F4B012222
:102400005A710E4B31229A600C4B1022DA600B4B42
:10241000FF221A61094B00225A61084B00229A617F
:10242000064B01221A62054802F06EFF0346002B9C
:1024300001D000F0ABFA00BF80BD00BF1C0500203A
:102440000030024080B500AF1B4B1C4A1A601A4B8B
:102450001B4A5A60184B00229A60174B0122DA601F
:10246000154B00221A61144B00225A61124B0022B4
:102470009A61114B0022DA610F4B00221A620E485A
:1024800003F07AFD0346002B01D000F07FFA002113
:10249000094804F041FE0346002B01D000F076FA13
:1024A0000021054804F083FE0346002B01D000F014
:1024B0006DFA00BF80BD00BF400500200054004001
:1024C0004713300080B500AF1B4B1C4A1A601A4BF3
:1024D0001B4A5A60184B00229A60174B0122DA609F
:1024E000154B00221A61144B00225A61124B002234
:1024F0009A61114B0022DA610F4B4FF400321A62DD
:102500000D4803F039FD0346002B01D000F03EFAE0
:102510000021094804F000FE0346002B01D000F022
:1025200035FA0021044804F042FE0346002B01D096
:1025300000F02CFA00BF80BD940500200058004038
:102540004713300080B500AF1B4B1C4A1A601A4B72
:102550001B4A5A60184B00229A60174B0122DA601E
:10256000154B00221A61144B00225A61124B0022B3
:102570009A61114B0022DA610F4B4FF400321A625C
:102580000D4803F0F9FC0346002B01D000F0FEF9E2
:102590000021094804F0C0FD0346002B01D000F0E3
:1025A000F5F90021044804F002FE0346002B01D097
:1025B00000F0ECF900BF80BDE8050020005C0040A1
:1025C0004713300080B592B000AF07F12C03002212
:1025D0001A605A609A60DA601A615A619A613B46E1
:1025E0002C220021184608F06DFF304B304A1A604B
:1025F0002E4B4FF49C725A602C4B00229A602B4B4E
:102600004FF48072DA60294B00221A61274B0022B6
:102610005A61264B00229A61244805F0BBFF03460D
:10262000002B01D000F0B2F9204806F00AF803466A
:10263000002B01D000F0AAF96023FB6200233B636A
:1026400002237B630023BB630423FB6300233B64FF
:1026500000237B6407F12C0300221946134806F07F
:102660002FF90346002B01D000F090F900233B60C6
:1026700000237B600023BB600023FB6000233B61E1
:102680004FF400537B610023BB623B461946074869
:1026900006F032FD0346002B01D000F077F9034825
:1026A00000F0DEFB00BF4837BD4680BD3C06002081
:1026B0000044014080B500AF144B154A1A60134B1B
:1026C0004FF4E1325A60114B00229A600F4B002206
:1026D000DA600E4B00221A610C4B0C225A610B4B34
:1026E00000229A61094B0022DA61084B00221A622B
:1026F000064B00225A62054806F076FD0346002B81
:1027000001D000F043F900BF80BD00BF8806002063
:102710000038014080B500AF144B154A1A60134BC6
:102720004FF4E1325A60114B00229A600F4B0022A5
:10273000DA600E4B00221A610C4B0C225A610B4BD3
:1027400000229A61094B0022DA61084B00221A62CA
:10275000064B00225A62054806F046FD0346002B50
:1027600001D000F013F900BF80BD00BF0C070020AE
:102770000044004080B582B000AF0C4B9B6C0B4A0C
:1027800043F001039364094B9B6C03F001037B60EE
:102790007B68002200210B2002F079FD0B2002F063
:1027A00092FD00BF0837BD4680BD00BF001002404B
:1027B00080B58AB000AF07F1140300221A605A6096
:1027C0009A60DA601A616D4BDB6C6C4A43F004036B
:1027D000D3646A4BDB6C03F004033B613B69674BDA
:1027E000DB6C664A43F08003D364644BDB6C03F01C
:1027F0008003FB60FB68614BDB6C604A43F00103C4
:10280000D3645E4BDB6C03F00103BB60BB685B4BC6
:10281000DB6C5A4A43F00203D364584BDB6C03F081
:1028200002037B607B6800224FF4CB514FF0904055
:1028300003F070FB002248F22121514803F06AFBAB
:102840004FF400537B610023BB610023FB6107F160
:10285000140319464B4803F0CBF94FF440437B6116
:102860000323BB610023FB6107F1140319464548AC
:1028700003F0BEF948F202037B610323BB6100232E
:10288000FB6107F1140319464FF0904003F0B0F9D3
:1028900010237B610023BB610023FB6107F114035C
:1028A00019464FF0904003F0A3F94FF4C3537B61F6
:1028B0000123BB610023FB6100233B6207F114038A
:1028C00019464FF0904003F093F940F221237B61C9
:1028D0000123BB610023FB6100233B6207F114036A
:1028E0001946274803F084F941F202037B61002373
:1028F000BB610023FB6107F114031946204803F074
:1029000077F940F60C437B610323BB610023FB6135
:1029100007F1140319461A4803F06AF94FF400430B
:102920007B610123BB610123FB6100233B6207F153
:1029300014031946124803F05BF94FF480737B616E
:102940000123BB610123FB6100233B6207F11403F8
:1029500019464FF0904003F04BF908237B610323A5
:10296000BB610023FB6107F114031946064803F01D
:102970003FF900BF2837BD4680BD00BF00100240B0
:102980000004004800080048001C004880B500AF63
:1029900072B600BF01222021034803F0BBFA1F20BA
:1029A00000F0B2FCFEE700BF0004004880B500AFB5
:1029B000044B01221A70044B05221A7000F04CF8E7
:1029C00000BF80BD580800205908002080B500AF26
:1029D00000F010F80346002B06D000F024F8034660
:1029E000002B01D0012300E0002303F00103DBB240
:1029F000184680BD80B584B000AF8023BB80002323
:102A0000FB800023BB603B1D184600F02DF80346F9
:102A1000FB73FB7B002B01D0002300E00123184651
:102A20001037BD4680BD80B584B000AFEC23BB80BD
:102A30000023FB800023BB603B1D184600F014F808
:102A40000346FB73FB7B002B01D0002300E0012336
:102A500018461037BD4680BD80B400AF00BFBD46EC
:102A60005DF8047B7047000080B586B002AF7860E7
:102A70007B6819887B685A687B685B8814200090A3
:102A8000044803F009FB0346FB73FB7B1846103731
:102A9000BD4680BD9405002080B582B000AF104BCC
:102AA0001B6E0F4A43F0010313660D4B1B6E03F0C0
:102AB00001037B607B680A4B9B6D094A43F080539E
:102AC0009365074B9B6D03F080533B603B6800228E
:102AD0000021052002F0DBFB00BF0837BD4680BDAA
:102AE0000010024080B59AB000AF786007F10C0387
:102AF0005C220021184608F0E5FC7B681B682E4A22
:102B0000934255D14FF48043FB604FF08053FB65F7
:102B100003233B6101237B610823BB610723FB6126
:102B200002233B6202237B624FF08073BB6207F19A
:102B30000C03184605F024FA0346002B01D0FFF7DA
:102B400025FF1E4BDB6C1D4A43F40053D3641B4B23
:102B5000DB6C03F40053BB60BB68194B194A1A6065
:102B6000174B00225A60164B00229A60144B002229
:102B7000DA60134B80221A61114B4FF480725A6154
:102B80000F4B4FF480629A610D4B2022DA610C4B9F
:102B900000221A620A4802F0B5FD0346002B01D05C
:102BA000FFF7F4FE7B68064ADA64054A7B689362A5
:102BB00000BF6837BD4680BD0000045000100240D1
:102BC000D40400200800024080B485B000AF7860D3
:102BD0007B681B680A4A93420BD10A4B9B6C094ADB
:102BE00043F480539364074B9B6C03F48053FB6066
:102BF000FB6800BF1437BD465DF8047B704700BF1B
:102C0000003002400010024080B5A6B000AF7860EE
:102C100007F1840300221A605A609A60DA601A6130
:102C200007F128035C220021184608F04BFC7B6862
:102C30001B68764A93423ED14023BB624FF48053D7
:102C4000BB6507F12803184605F09AF90346002BE7
:102C500001D0FFF79BFE6E4BDB6C6D4A43F0010326
:102C6000D3646B4BDB6C03F001037B627B6A4FF434
:102C7000C063C7F884301223C7F888300023C7F830
:102C80008C300323C7F890300423C7F8943007F141
:102C9000840319464FF0904002F0AAFF5C4B9B6DF5
:102CA0005B4A43F400139365594B9B6D03F4001387
:102CB0003B623B6AA6E07B681B68564A93423DD163
:102CC0008023BB624FF48043FB6507F1280318465D
:102CD00005F056F90346002B01D0FFF757FE4C4B89
:102CE000DB6C4B4A43F00203D364494BDB6C03F0CB
:102CF0000203FB61FB694FF4C043C7F88430122321
:102D0000C7F888300023C7F88C300323C7F8903009
:102D10000423C7F8943007F1840319463E4802F0B3
:102D200067FF3B4B9B6D3A4A43F480039365384BF6
:102D30009B6D03F48003BB61BB6963E07B681B6828
:102D4000364A93425ED14FF48073BB624FF48033B6
:102D50003B6607F12803184605F012F90346002BDD
:102D600001D0FFF713FE2A4BDB6C294A43F0010325
:102D7000D364274BDB6C03F001037B617B69244B3D
:102D8000DB6C234A43F00203D364214BDB6C03F07A
:102D900002033B613B698023C7F884301223C7F8E4
:102DA00088300023C7F88C300323C7F89030042301
:102DB000C7F8943007F1840319464FF0904002F0B1
:102DC00017FF1023C7F884301223C7F88830002378
:102DD000C7F88C300323C7F890300423C7F8943029
:102DE00007F1840319460C4802F002FF084B9B6D63
:102DF000074A43F400039365054B9B6D03F40003FE
:102E0000FB60FB6800BF9837BD4680BD00540040A2
:102E1000001002400058004000040048005C0040E0
:102E200080B485B000AF78607B681B680A4A934223
:102E30000BD10A4B1B6E094A43F400331366074B50
:102E40001B6E03F40033FB60FB6800BF1437BD4604
:102E50005DF8047B704700BF004401400010024051
:102E600080B588B000AF786007F10C0300221A60CB
:102E70005A609A60DA601A617B681B68114A934253
:102E80001CD1114BDB6C104A43F00203D3640E4B90
:102E9000DB6C03F00203BB60BB684FF48073FB6024
:102EA00002233B6100237B610023BB610E23FB6196
:102EB00007F10C031946054802F09AFE00BF2037BF
:102EC000BD4680BD0044014000100240000400489F
:102ED00080B5A2B000AF786007F1740300221A60D9
:102EE0005A609A60DA601A6107F118035C220021C7
:102EF000184608F0E7FA7B681B683F4A934238D1CE
:102F00000123BB610123BB6307F11803184605F0D9
:102F100037F80346002B01D0FFF738FD374B1B6E07
:102F2000364A43F480431366344B1B6E03F48043EC
:102F30007B617B69314BDB6C304A43F00203D36425
:102F40002E4BDB6C03F002033B613B69C0237B67C4
:102F50000223BB670023FB670323C7F880300723E6
:102F6000C7F8843007F174031946254802F040FE83
:102F70003DE07B681B68234A934238D10223BB6142
:102F80000423FB6307F11803184604F0F9FF034616
:102F9000002B01D0FFF7FAFC184B9B6D174A43F446
:102FA00000339365154B9B6D03F40033FB60FB68A6
:102FB000124BDB6C114A43F00103D3640F4BDB6C03
:102FC00003F00103BB60BB680C237B670223BB6774
:102FD0000023FB670323C7F880300723C7F884303A
:102FE00007F1740319464FF0904002F001FE00BF54
:102FF0008837BD4680BD00BF003801400010024048
:10300000000400480044004080B400AFFEE780B4F4
:1030100000AFFEE780B400AFFEE780B400AFFEE78C
:1030200080B400AFFEE780B400AF00BFBD465DF8DE
:10303000047B704780B400AF00BFBD465DF8047BE1
:10304000704780B400AF00BFBD465DF8047B704799
:1030500080B500AF00F03EFE02F04FF900BF80BD2A
:1030600080B500AF024802F0E4FC00BF80BD00BFA5
:10307000D404002080B500AF024806F0EDF900BF8F
:1030800080BD00BF8806002080B500AF024806F072
:10309000E3F900BF80BD00BF0C07002080B400AF83
:1030A00001231846BD465DF8047B704780B582B0A9
:1030B00000AF7860396008F057FA034616221A60AC
:1030C0004FF0FF3318460837BD4680BD80B582B04B
:1030D00000AF78604FF0FF317868FFF7E7FFFEE759
:1030E00080B586B000AFF860B9607A6000237B617C
:1030F0000AE0AFF300800146BB685A1CBA60CAB24E
:103100001A707B6901337B617A697B689A42F0DBD4
:103110007B6818461837BD4680BD80B483B000AFC9
:1031200078604FF0FF3318460C37BD465DF8047BDE
:10313000704780B483B000AF786039603B684FF46B
:1031400000525A60002318460C37BD465DF8047BD8
:10315000704780B483B000AF7860012318460C3705
:10316000BD465DF8047B704780B485B000AFF86061
:10317000B9607A60002318461437BD465DF8047BB9
:103180007047000080B586B000AF7860144A154BD8
:10319000D31A7B617B693B61134B1B68002B02D107
:1031A000114B124A1A60104B1A687B6813443A6933
:1031B0009A4207D208F0D8F903460C221A604FF061
:1031C000FF3309E0084B1B68FB60074B1A687B68FC
:1031D0001344054A1360FB6818461837BD4680BD86
:1031E00000000120000400005C080020C809002045
:1031F00080B400AF064BD3F88830054A43F470031F
:10320000C2F8883000BFBD465DF8047B704700BF40
:1032100000ED00E080B500AF2E4B1B88002B4BD09B
:103220002D4B1B6801332C4A13602B4B1B68294A1A
:103230001288934240D3284B00221A60274B1B6808
:103240000133264A1360254B1A68254B1B681B0C5B
:1032500040339A4216D3214B00221A60204B1B6840
:103260009BB24FF6FF72934204D01D4B1B68013B8B
:103270001B4A13601A4B1B689BB2002B02D1154BE3
:1032800000221A80154B1B683F2B03D9002000F049
:103290003BF81CE0114B1B681F2B06D90F4B1B681A
:1032A000DBB2C3F13F03DBB202E00C4B1B68DBB2C5
:1032B000184600F029F80AE0064B1B88002B06D1BF
:1032C000054B00221A60054B00221A60FFE700BF81
:1032D00080BD00BF600800206C080020700800203E
:1032E0006408002080B483B000AF0346FB71054B37
:1032F0001B68FA795A6300BF0C37BD465DF8047B42
:10330000704700BF3C06002080B582B000AF034686
:10331000FB71FB79044AD35C1846FFF7E3FF00BF5B
:103320000837BD4680BD00BF4CD6000880B582B0CE
:1033300000AF00224FF40071154802F0EBFD154874
:1033400007F0E0FF00F0DAFC786014E000F0D6FC53
:1033500002467B68D31AB3F57A7F0CD900F0CEFC15
:10336000786001224FF40071094802F0D3FD0A4849
:1033700007F0C8FF08E04FF40051084802F0B2FD22
:103380000346012BE2D000BF00BF0837BD4680BD19
:1033900000040048C8D40008DCD400080008004835
:1033A00080B500AF4FF40051174802F09BFD034673
:1033B000002B22D0154B1B68002B23D000F09EFC65
:1033C0000246124B1B68D31AB3F5FA6F1AD910488C
:1033D00007F098FF00224FF400710E4802F09AFDAA
:1033E00040F6B83000F096FC01222021094802F096
:1033F00091FD0020FFF788FF04E000F07FFC03460A
:10340000024A136000BF80BD000800486808002021
:10341000E8D400080004004880B500AFFEF778F952
:1034200000BF80BD80B584B000AF78600B46FB70F4
:103430000B4801F069FF0A4B1B689A68084B1B6830
:1034400042F001029A60FB781A467968044801F05C
:10345000BFFFF860FB68DBB218461037BD4680BD81
:103460001C05002080B58AB004AFF8607A601A4667
:103470000B467B8113467B727B7A99B27A8908234B
:1034800002930123019307F1160300930123F868C7
:1034900003F000F90346FB75BA7D7B681A70FB7D6B
:1034A00018461837BD4680BD80B58AB004AFF860B5
:1034B0007A601A460B467B8113467B727B7A99B2FF
:1034C0007A89082302930223019307F114030093DE
:1034D0000123F86803F0DEF80346FB75BA8A7B68BF
:1034E0001A80FB7D18461837BD4680BD80B588B070
:1034F00004AF7860084611461A4603467B800B46A7
:103500007B7013463B707B78BB733B7899B27A88AB
:10351000082302930123019307F10E030093012373
:10352000786802F0A3FF0346FB73FB7B1846103755
:10353000BD4680BD80B485B000AFF860B9607A60E8
:103540007B68002B0FD1FB681B785AB20121BB6846
:1035500001FA03F35BB2DB435BB213405BB2DAB256
:10356000FB681A700FE07B68012B0CD1FB681B789D
:103570005AB20121BB6801FA03F35BB213435BB299
:10358000DAB2FB681A7000BF1437BD465DF8047BE1
:10359000704780B483B000AF78600B46FB70134671
:1035A000BB707B681B785AB297F90330DB435BB280
:1035B00013405AB2B978FB780B40DBB25BB21343CD
:1035C0005BB2DAB27B681A7000BF0C37BD465DF89B
:1035D000047B704780B584B000AF78600B46FB7009
:1035E0001346BB70184807F08DFEFB78FB7322E092
:1035F000FB7B9BB25B0099B24FF4FA7303227868AD
:1036000003F062F90346BB73642000F083FBBB7BCD
:10361000002B05D1FB7B19460C4807F00DFE07E097
:10362000FB7B19460A4807F007FE642000F072FB96
:10363000FB7B0133FB73FA7BBB789A42D8D900BF7E
:1036400000BF1037BD4680BDFCD4000818D5000867
:1036500030D5000880B483B000AF0346FB80FB8800
:103660001B021AB2FB881B0A9BB21BB213431BB28C
:103670009BB218460C37BD465DF8047B70470000CE
:1036800080B586B002AF0346FB71FB79012B02D0F7
:10369000FB79022B1FD101224FF480714FF0904033
:1036A00002F038FC012000F035FBFB79013B0122E0
:1036B00002FA03F3DBB2FB7307F10F024FF0FF33A3
:1036C00000930123E4210E4802F0E6FC012000F003
:1036D00021FB00BF10E0FB79002B0AD100224FF440
:1036E00080714FF0904002F015FC012000F012FBB9
:1036F00002E0044807F006FE00BF1037BD4680BD5B
:103700009405002050D5000880B500AF0220FFF7D7
:10371000B7FF00BF80BD80B500AF0020FFF7B0FF4E
:1037200000BF80BD80B582B000AF4FF4FA730322B2
:103730009221144803F0C8F80346FB71642000F09E
:10374000E9FAFB79002B14D13A1D92230F210D4881
:10375000FFF7AAFEBB8841F20172934204D10A48E6
:1037600007F0D0FD012308E0084807F0CBFD002357
:1037700003E0074807F0C6FD002318460837BD469A
:1037800080BD00BF9405002064D5000870D50008F6
:103790007CD5000880B500AFFFF708F9FFF716F9F0
:1037A0000346002B04D0054807F0ACFD012303E0DD
:1037B000034807F0A7FD0023184680BD8CD50008FC
:1037C00098D5000880B584B002AF41F23573BB8054
:1037D0003A1D962300930323E021094802F05CFC84
:1037E0000346FB710D2000F095FAFB79002B01D107
:1037F000012300E0002318460837BD4680BD00BF06
:103800009405002080B584B002AF49F6B003BB80B8
:103810003A1D962300930323E021094802F03CFC63
:103820000346FB71022000F075FAFB79002B01D1F1
:10383000012300E0002318460837BD4680BD00BFC5
:103840009405002080B586B002AF4FF4FA730322CE
:10385000E021284803F038F80346FB73022000F00B
:1038600059FAFB7B002B3BD1FFF7ACFF4CF6EF0383
:10387000FB80BA1D962300930223E0211D4802F02D
:103880000BFC0346BB7307F1080296230093022347
:10389000E121184802F0F4FC0346BB73BB7B002B0C
:1038A00019D13B7A1B021AB27B7A1BB213431BB2AB
:1038B000BB81BB8923F4F8631B051B0D7B817B89CE
:1038C00040F60702934210D10B4807F01BFDFFF7AB
:1038D00099FF01230AE0094807F014FD002305E0E1
:1038E000074807F00FFD002300E0002318461037BB
:1038F000BD4680BD94050020A8D50008B4D50008B9
:10390000C0D5000880B588B002AF0346FB71FFF751
:1039100059FFFB79002B03D14AF27C23FB8102E0A3
:1039200045F66403FB8107F10E0296230093022300
:10393000E021244802F0B0FB0346FB75142000F0A0
:10394000E9F907F11002962300930323E1211D48B2
:1039500002F096FC0346FB75FB7D002B27D13B7CD8
:103960001B021AB27B7C1BB213431BB2BB8207F152
:10397000100302211846FFF755FD0346FB74BB7C7C
:10398000FA7C9A4216D1FFF73DFFBB8A07EE903AC8
:10399000F8EEE77A9FED0C7A27EE877ADFED0B6A77
:1039A000C7EE267A9FED0A7A77EEC77A04E00948D7
:1039B00007F0A8FCDFED087AB0EE670A1837BD46BD
:1039C00080BD00BF9405002000002F4300FF7F470B
:1039D00000003442D0D5000800007AC480B588B019
:1039E00002AF0346FB71FFF7EDFEFB79002B03D11D
:1039F00042F25C43FB8102E04DF64463FB8107F138
:103A00000E02962300930223E021234802F044FB98
:103A10000346FB75142000F07DF907F11002962390
:103A200000930323E1211C4802F02AFC0346FB75A6
:103A3000FB7D002B23D13B7C1B021AB27B7C1BB28B
:103A400013431BB2BB8207F1100302211846FFF794
:103A5000E9FC0346FB74BB7CFA7C9A4212D1FFF767
:103A6000D1FEBB8A07EE903AF8EEE77A9FED0B7A2B
:103A700067EE877ADFED0A6A87EEA67A04E00948E6
:103A800007F040FC9FED087AF0EE477AB0EE670A47
:103A90001837BD4680BD00BF940500200000C84215
:103AA00000FF7F47D0D5000800007AC480B582B0FF
:103AB00000AF0120FFF7E4FD012000F02BF9962371
:103AC0000322EE21144802F0FFFE0346FB7164203E
:103AD00000F020F9FB79002B15D1BA1DEE23D0217F
:103AE0000D48FFF7BFFC0020FFF7CAFDBB79602B34
:103AF00004D10A4807F006FC012308E0084807F053
:103B000001FC002303E0074807F0FCFB00231846F4
:103B10000837BD4680BD00BF94050020DCD50008F5
:103B2000E8D50008F4D5000890B583B000AF04468E
:103B3000084611461A462346FB710346BB710B46E5
:103B40007B7113463B710120FFF79AFD012000F0C5
:103B5000E1F81E4A3B7E82F82D301C4A7B7982F8C0
:103B60002E301A4ABB7982F82F30184A3B7982F8F6
:103B70003030164B032283F83120144B77229A847D
:103B8000124B134A9A62FB79012B02D0022B05D00B
:103B900009E00E4B012283F82C2008E00B4B032296
:103BA00083F82C2003E0094B032283F82C200949D9
:103BB0000648FDF7B1FB012000F0ACF80020FFF74C
:103BC0005FFD00BF0C37BD4690BD00BF240800203C
:103BD0009405002050080020DFF834D0FFF708FBE0
:103BE0000C480D490D4A002302E0D458C450043358
:103BF000C4188C42F9D30A4A0A4C002301E013602E
:103C00000432A242FBD307F0B5FCFEF76DF9FEE7E4
:103C10000000012000000020D8010020ECD900089D
:103C2000D8010020C4090020FEE780B582B000AFB3
:103C30000023FB71032001F01FFB0F2000F00EF8A2
:103C40000346002B02D00123FB7101E0FEF724FFA5
:103C5000FB7918460837BD4680BD000080B584B0AA
:103C600000AF78600023FB73174B1B78002B23D029
:103C7000164B1A68144B1B7819464FF47A73B3FB32
:103C8000F1F3B2FBF3F3184601F02BFB0346002BD4
:103C90000FD17B680F2B09D8002279684FF0FF30D5
:103CA00001F0F5FA0A4A7B68136007E00123FB7311
:103CB00004E00123FB7301E00123FB73FB7B184647
:103CC0001037BD4680BD00BF0C000020040000205E
:103CD0000800002080B400AF064B1B781A46064B44
:103CE0001B681344044A136000BFBD465DF8047BA3
:103CF000704700BF0C0000207408002080B400AFA3
:103D0000034B1B681846BD465DF8047B704700BF37
:103D10007408002080B584B000AF7860FFF7EEFF34
:103D2000B8607B68FB60FB68B3F1FF3F05D00A4BCE
:103D30001B781A46FB681344FB6000BFFFF7DEFFE9
:103D40000246BB68D31AFA689A42F7D800BF00BF90
:103D50001037BD4680BD00BF0C00002080B483B08A
:103D600000AF786039607B689B6823F47C123B6805
:103D70001A437B689A6000BF0C37BD465DF8047B30
:103D8000704780B483B000AF786039607B689B680F
:103D900023F0E0723B681A437B689A6000BF0C37DF
:103DA000BD465DF8047B704780B483B000AF786097
:103DB0007B689B6803F0E07318460C37BD465DF8DE
:103DC000047B704780B487B000AFF860B9607A6058
:103DD0003B60FB6860331A46BB689B0013447B6101
:103DE0007B691A68084B13407A6802F0F8413A6818
:103DF0000A43134343F000427B691A6000BF1C373B
:103E0000BD465DF8047B704700F0FF0380B485B0C9
:103E100000AF786039607B6860331A463B689B006E
:103E20001344FB60FB681B6803F0F8431846143723
:103E3000BD465DF8047B704780B487B000AFF86082
:103E4000B9607A60FB6860331A46BB689B00134414
:103E50007B617B691B6823F000427B681A437B69A6
:103E60001A6000BF1C37BD465DF8047B704780B404
:103E700083B000AF78607B68DB6803F44063002B9D
:103E800001D1012300E0002318460C37BD465DF840
:103E9000047B704780B487B000AFF860B9607A6087
:103EA000FB6830331A46BB681B0A9B0003F00C0307
:103EB00013447B617B691A68BB6803F01F031F21F1
:103EC00001FA03F3DB431A407B689B0E03F01F01EA
:103ED000BB6803F01F0301FA03F31A437B691A60FE
:103EE00000BF1C37BD465DF8047B704780B487B0C7
:103EF00000AFF860B9607A60FB6814331A46BB689B
:103F00005B0E9B0003F0040313447B617B691A681A
:103F1000BB681B0D03F01F03072101FA03F3DB430A
:103F20001A40BB681B0D03F01F03796801FA03F305
:103F30001A437B691A6000BF1C37BD465DF8047BDD
:103F40007047000080B485B000AFF860B9607A6057
:103F5000FB68D3F8B020BB68C3F31203DB431A40FD
:103F60007B6803F018030849D940BB680B40C3F3D2
:103F700012031A43FB68C3F8B02000BF1437BD46D4
:103F80005DF8047B704700BFFFFF070080B483B07B
:103F900000AF78607B689B6823F0204323F03F03E9
:103FA0007A68936000BF0C37BD465DF8047B7047AC
:103FB00080B483B000AF78607B689B6803F00053E7
:103FC000B3F1005F01D1012300E0002318460C3754
:103FD000BD465DF8047B704780B483B000AF786065
:103FE0007B689B6823F0104323F03F0343F080522B
:103FF0007B689A6000BF0C37BD465DF8047B704754
:1040000080B483B000AF78607B689B6803F0805316
:10401000B3F1805F01D1012300E0002318460C3783
:10402000BD465DF8047B704780B483B000AF786014
:104030007B689B6823F0004323F03F0343F00102B9
:104040007B689A6000BF0C37BD465DF8047B704703
:1040500080B483B000AF78607B689B6823F0004336
:1040600023F03F0343F002027B689A6000BF0C37E5
:10407000BD465DF8047B704780B483B000AF7860C4
:104080007B689B6803F00103012B01D1012300E051
:10409000002318460C37BD465DF8047B704780B49A
:1040A00083B000AF78607B689B6803F00203022B4B
:1040B00001D1012300E0002318460C37BD465DF80E
:1040C000047B704780B483B000AF78607B689B68E6
:1040D00023F0004323F03F0343F004027B689A601F
:1040E00000BF0C37BD465DF8047B704780B483B0D9
:1040F00000AF78607B689B6803F00403042B01D158
:10410000012300E0002318460C37BD465DF8047B10
:10411000704780B483B000AF78607B689B6803F021
:104120000803082B01D1012300E0002318460C37B7
:10413000BD465DF8047B704780B588B000AF7860FD
:104140000023FB770023BB607B68002B01D1012398
:104150002CE17B681B69002B7B685B6D002B09D110
:104160007868FEF7BFFC7B6800229A657B680022B6
:1041700083F850207B681B681846FFF719FF034639
:10418000002B04D07B681B681846FFF7FFFE7B6896
:104190001B681846FFF734FF0346002B15D17B68D8
:1041A0001B681846FFF718FF824B1B689B09824A61
:1041B000A2FB03239B0901335B00BB6002E0BB68E9
:1041C000013BBB60BB68002BF9D17B681B681846BC
:1041D000FFF716FF0346002B0DD17B685B6D43F0A4
:1041E00010027B685A657B689B6D43F001027B6817
:1041F0009A650123FB777B681B681846FFF776FFFB
:1042000078617B685B6D03F01003002B40F0C58084
:104210007B69002B40F0C1807B685B6D23F4817368
:1042200043F002027B685A657B681B681846FFF7FB
:1042300023FF0346002B0BD16048FFF71DFF034609
:10424000002B05D17B685B6819465D48FFF786FD4A
:104250007B685B7E5A037B685B6B1A437B68DB6819
:104260001A437B689B681A437B6893F820301B04D1
:104270001343BB617B6893F82030012B06D17B6828
:104280005B6A013B5B04BA691343BB617B689B6A51
:10429000002B09D07B689B6A03F470727B68DB6A31
:1042A0001343BA691343BB617B681B68DA68454BEB
:1042B00013407A681268B9690B43D3607B681B6846
:1042C0001846FFF713FF38617B681B681846FFF735
:1042D00020FFF8603B69002B3DD1FB68002B3AD1F1
:1042E0007B681B7E9A037B6893F830305B00134336
:1042F000BB617B681B68DB6823F4804323F0020307
:104300007A681268B9690B43D3607B6893F83830D8
:10431000012B18D17B681B681B6923F4FF6323F012
:1043200004037A68D16B7A68126C11437A68526C14
:1043300011437A68926C0A431A437B681B6842F007
:1043400001021A6107E07B681B681A697B681B68B9
:1043500022F001021A617B681B69012B0CD17B687A
:104360001B681B6B23F00F017B68DB695A1E7B689F
:104370001B680A431A6307E07B681B681A6B7B683B
:104380001B6822F00F021A637B685B6D23F0030346
:1043900043F001027B685A6507E07B685B6D43F080
:1043A00010027B685A650123FB77FB7F1846203794
:1043B000BD4680BD04000020632D3E050000045072
:1043C0000003045007C0F0FF80B586B000AFF8606E
:1043D000B9607A60FB681B681846FFF787FE0346E2
:1043E000002B67D1FB6893F85030012B01D10223D9
:1043F00063E0FB68012283F85020F86800F066FC57
:104400000346FB75FB7D002B4FD1FB685B6D23F4EE
:10441000706323F0010343F48072FB685A65FB6804
:104420005B6D03F48053002B06D0FB689B6D23F07B
:104430000602FB689A6502E0FB6800229A65FB6849
:10444000DB6C204ADA62FB68DB6C1F4A1A63FB688C
:10445000DB6C1E4A5A63FB681B681C221A60FB68EF
:10446000002283F85020FB681B685A68FB681B68B1
:1044700042F010025A60FB681B68DA68FB681B6830
:1044800042F00102DA60FB68D86CFB681B684033BD
:104490001946BA687B6801F0EDF90346FB75FB68C5
:1044A0001B681846FFF70EFE06E0FB68002283F843
:1044B000502001E00223FB75FB7D18461837BD46EE
:1044C00080BD00BF974E00086F4F00088B4F00085B
:1044D00080B483B000AF786000BF0C37BD465DF894
:1044E000047B704780B483B000AF786000BF0C37A6
:1044F000BD465DF8047B704780B483B000AF786040
:1045000000BF0C37BD465DF8047B704780B5B6B080
:1045100000AF78603960002387F8D7300023FB6054
:104520007B6893F85030012B01D10223B9E37B68FB
:10453000012283F850207B681B681846FFF7D6FDE0
:104540000346002B40F09E833B685B68052B24D814
:104550003B685B68023B032B1BD801A252F823F097
:104560007145000879450008814500088945000823
:104570003B680C225A6010E03B6812225A600CE043
:104580003B6818225A6008E03B684FF480725A601A
:1045900003E03B6806225A6000BF7B6818683B68EE
:1045A00059683B681B681A46FFF774FC7B681B68F8
:1045B0001846FFF79BFDC7F8D0007B681B681846BC
:1045C000FFF7A7FDC7F8CC00D7F8D030002B40F09C
:1045D000A681D7F8CC30002B40F0A1817B68186809
:1045E0003B6819683B689B681A46FFF77FFC3B688D
:1045F0005A697B681B68DB68DB0803F003035B0018
:1046000002FA03F3C7F8C8303B681B69042B0AD0D1
:104610007B6818683B6819693B681A68D7F8C83026
:10462000FFF7D0FB7BE17B681B6800211846FFF792
:10463000EDFB0346C3F31203002B0AD17B681B6812
:1046400000211846FFF7E2FB03469B0E03F01F0212
:104650001EE07B681B6800211846FFF7D7FB034666
:10466000C7F8BC30D7F8BC3093FAA3F3C7F8B8301A
:10467000D7F8B830C7F8C030D7F8C030002B01D118
:10468000202304E0D7F8C030B3FA83F3DBB21A4634
:104690003B681B68C3F31203002B05D13B681B6802
:1046A0009B0E03F01F0318E03B681B68C7F8B0308F
:1046B000D7F8B03093FAA3F3C7F8AC30D7F8AC30E2
:1046C000C7F8B430D7F8B430002B01D1202304E070
:1046D000D7F8B430B3FA83F3DBB29A4206D17B68E1
:1046E0001B68002200211846FFF7A6FB7B681B68A9
:1046F00001211846FFF78AFB0346C3F31203002B80
:104700000AD17B681B6801211846FFF77FFB03462F
:104710009B0E03F01F021EE07B681B6801211846F8
:10472000FFF774FB0346C7F8A430D7F8A43093FA18
:10473000A3F3C7F8A030D7F8A030C7F8A830D7F84F
:10474000A830002B01D1202304E0D7F8A830B3FA19
:1047500083F3DBB21A463B681B68C3F31203002BDA
:1047600005D13B681B689B0E03F01F0318E03B68F4
:104770001B68C7F89830D7F8983093FAA3F3C7F8B6
:104780009430D7F89430C7F89C30D7F89C30002B81
:1047900001D1202304E0D7F89C30B3FA83F3DBB2D5
:1047A0009A4206D17B681B68002201211846FFF758
:1047B00043FB7B681B6802211846FFF727FB034673
:1047C000C3F31203002B0AD17B681B680221184631
:1047D000FFF71CFB03469B0E03F01F021EE07B68E5
:1047E0001B6802211846FFF711FB0346C7F88C30FF
:1047F000D7F88C3093FAA3F3C7F88830D7F888300D
:10480000C7F89030D7F89030002B01D1202304E076
:10481000D7F89030B3FA83F3DBB21A463B681B68D3
:10482000C3F31203002B05D13B681B689B0E03F0FA
:104830001F0316E03B681B68C7F88030D7F880304C
:1048400093FAA3F3FB67FB6FC7F88430D7F8843083
:10485000002B01D1202304E0D7F88430B3FA83F38E
:10486000DBB29A4206D17B681B68002202211846FF
:10487000FFF7E2FA7B681B6803211846FFF7C6FAC8
:104880000346C3F31203002B0AD17B681B68032184
:104890001846FFF7BBFA03469B0E03F01F0217E012
:1048A0007B681B6803211846FFF7B0FA03467B6755
:1048B0007B6F93FAA3F33B673B6FBB67BB6F002B28
:1048C00001D1202303E0BB6FB3FA83F3DBB21A46B6
:1048D0003B681B68C3F31203002B05D13B681B68C0
:1048E0009B0E03F01F0311E03B681B68BB66BB6EA9
:1048F00093FAA3F37B667B6EFB66FB6E002B01D104
:10490000202303E0FB6EB3FA83F3DBB29A4206D1B5
:104910007B681B68002203211846FFF78DFA7B682D
:104920001B681846FFF7A8FB0346002B40F04081A8
:104930007B6818683B6819683B68DB681A46FFF7B4
:1049400001FB3B68DB688F4A934240F031817B6812
:1049500018683B681B68C3F31203002B0BD13B683C
:104960001B689B0E013303F01F03092B94BF012327
:104970000023DBB219E03B681B68FB65FB6D93FA13
:10498000A3F3BB65BB6D3B663B6E002B01D12023BF
:1049900003E03B6EB3FA83F3DBB2013303F01F0392
:1049A000092B94BF01230023DBB2002B79D03B6895
:1049B0001B68C3F31203002B07D13B681B689B0ED7
:1049C00001339B0603F0F84215E03B681B683B652A
:1049D0003B6D93FAA3F3FB64FB6C7B657B6D002B53
:1049E00001D1202303E07B6DB3FA83F3DBB2013303
:1049F0009B0603F0F8423B681B68C3F31203002BCD
:104A000009D13B681B689B0E013303F01F03012192
:104A100001FA03F317E03B681B687B647B6C93FA35
:104A2000A3F33B643B6CBB64BB6C002B01D1202324
:104A300003E0BB6CB3FA83F3DBB2013303F01F0373
:104A4000012101FA03F342EA03013B681B68C3F347
:104A50001203002B0AD13B681B689B0E013303F045
:104A60001F0213465B0013441B0518E03B681B68DC
:104A7000BB63BB6B93FAA3F37B637B6BFB63FB6B47
:104A8000002B01D1202303E0FB6BB3FA83F3DBB2ED
:104A9000013303F01F0213465B0013441B050B4355
:104AA00081E03B681B68C3F31203002B07D13B680E
:104AB0001B689B0E01339B0603F0F84215E03B6830
:104AC0001B68FB62FB6A93FAA3F3BB62BB6A3B639E
:104AD0003B6B002B01D1202303E03B6BB3FA83F344
:104AE000DBB201339B0603F0F8423B681B68C3F35B
:104AF0001203002B09D13B681B689B0E013303F0A6
:104B00001F03012101FA03F317E03B681B683B62B6
:104B10003B6A93FAA3F3FB61FB697B627B6A002B20
:104B200001D1202303E07B6AB3FA83F3DBB20133C4
:104B300003F01F03012101FA03F342EA03013B687A
:104B40001B68C3F31203002B0DD13B681B689B0E3F
:104B5000013303F01F0213465B0013441E3B1B0589
:104B600043F000731EE03B681B687B617B6993FA2E
:104B7000A3F33B613B69BB61BB69002B04D12023DC
:104B800006E000BF00007F40BB69B3FA83F3DBB2ED
:104B9000013303F01F0213465B0013441E3B1B0549
:104BA00043F000730B433A6892681946FFF79EF989
:104BB0003B681A683D4B1340002B6CD03C48FFF714
:104BC000F3F8C7F8C4003B681B683A4A934227D100
:104BD000D7F8C43003F40003002B21D17B681B6895
:104BE000354A934257D1D7F8C43043F400031946ED
:104BF0002F48FFF7C6F8314B1B689B09304AA2FBD0
:104C000003239B095A1C13465B0013449B00FB6063
:104C100002E0FB68013BFB60FB68002BF9D13AE046
:104C20003B681B68274A934213D1D7F8C43003F07E
:104C30008073002B0DD17B681B681F4A93422AD1D9
:104C4000D7F8C43043F0807319461948FFF799F834
:104C500021E03B681B681C4A93421CD1D7F8C43042
:104C600003F48003002B16D17B681B68124A934221
:104C700011D1D7F8C43043F4800319460C48FFF72C
:104C800080F808E07B685B6D43F020027B685A6522
:104C9000012387F8D7307B68002283F8502097F8EB
:104CA000D7301846D837BD4680BD00BF0000088009
:104CB00000030450000052C700000450040000200C
:104CC000632D3E05000084CB0100008080B584B0D8
:104CD00000AF78600023BB607B681B681846FFF755
:104CE000CBF90346002B69D17B681B689A68364B69
:104CF0001340002B0DD07B685B6D43F010027B6886
:104D00005A657B689B6D43F001027B689A650123BD
:104D100055E07B681B681846FFF786F92B48FFF7BC
:104D200043F8034603F40003002B13D0284B1B6801
:104D30009B09284AA2FB03239B095A1C13465B00CC
:104D400013449B00BB6002E0BB68013BBB60BB68D7
:104D5000002BF9D1FEF7D2FFF86028E07B681B68D2
:104D60001846FFF789F90346002B04D17B681B68BE
:104D70001846FFF759F9FEF7C1FF0246FB68D31A40
:104D8000022B14D97B681B681B6803F00103012BFD
:104D90000DD07B685B6D43F010027B685A657B68C1
:104DA0009B6D43F001027B689A65012307E07B68F5
:104DB0001B681B6803F00103012BCFD100231846A9
:104DC0001037BD4680BD00BF3F0000800003045087
:104DD00004000020632D3E0580B584B000AF7860EC
:104DE0007B681B681846FFF75AF9F8607B681B68F8
:104DF0001846FFF741F90346002B47D0FB68002B0C
:104E000044D17B681B689B6803F00D03012B0CD118
:104E10007B681B681846FFF71BF97B681B68032239
:104E20001A60FEF76BFFB86029E07B685B6D43F0AA
:104E300010027B685A657B689B6D43F001027B68BA
:104E40009A65012323E0FEF759FF0246BB68D31A97
:104E5000022B14D97B681B689B6803F00103002BAD
:104E60000DD07B685B6D43F010027B685A657B68F0
:104E70009B6D43F001027B689A65012307E07B6824
:104E80001B689B6803F00103002BDCD1002318464C
:104E90001037BD4680BD80B584B000AF78607B68B8
:104EA0009B6AFB60FB685B6D03F05003002B4BD1EA
:104EB000FB685B6D43F40072FB685A65FB681B6816
:104EC0001B6803F00803002B21D0FB681B68184601
:104ED000FEF7CDFF0346002B32D0FB681B68DB6872
:104EE00003F40053002B2BD1FB685B6D23F480721D
:104EF000FB685A65FB685B6D03F48053002B1FD180
:104F0000FB685B6D43F00102FB685A6518E0FB68C3
:104F10001B68DB6803F00203002B11D1FB685B6D9B
:104F200023F48072FB685A65FB685B6D03F4805361
:104F3000002B05D1FB685B6D43F00102FB685A65ED
:104F4000F868FFF7C5FA0EE0FB685B6D03F010032D
:104F5000002B03D0F868FFF7CFFA04E0FB68DB6CA6
:104F60005B6B7868984700BF1037BD4680BD80B541
:104F700084B000AF78607B689B6AFB60F868FFF7DD
:104F8000B1FA00BF1037BD4680BD80B584B000AF18
:104F900078607B689B6AFB60FB685B6D43F0400256
:104FA000FB685A65FB689B6D43F00402FB689A65D9
:104FB000F868FFF7A1FA00BF1037BD4680BD80B486
:104FC00083B000AF786039607B689B6823F0404312
:104FD00023F03F033A6802F08042134343F000425B
:104FE0007B689A6000BF0C37BD465DF8047B704754
:104FF00080B483B000AF78607B689B6803F00043A7
:10500000B3F1004F01D1012300E0002318460C3713
:10501000BD465DF8047B704780B584B000AF786012
:1050200039600023BB607B6893F85030012B01D1BD
:1050300002234DE07B68012283F850207868FFF757
:10504000CBFE0346FB73FB7B002B36D17B685B6D8D
:1050500023F4885323F0020343F002027B685A656D
:105060007B681B6839681846FFF7A9FF14E0BB6826
:105070000133BB60BB68B3F5912F0DD37B685B6DCB
:1050800023F0120343F010027B685A657B6800220C
:1050900083F8502001231BE07B681B681846FFF74C
:1050A000A7FF0346002BE2D17B685B6D23F003036F
:1050B00043F001027B685A6505E07B685B6D43F055
:1050C00010027B685A657B68002283F85020FB7BC6
:1050D00018461037BD4680BD80B485B000AF7860FB
:1050E0007B6803F00703FB600C4BDB68BB60BA68AE
:1050F0004FF6FF031340BB60FB681A02BB68134303
:1051000043F0BF6343F40033BB60044ABB68D36021
:1051100000BF1437BD465DF8047B704700ED00E02A
:1051200080B400AF044BDB681B0A03F0070318468A
:10513000BD465DF8047B704700ED00E080B483B0AD
:1051400000AF0346FB7197F90730002B0BDBFB79AF
:1051500003F01F02074997F907305B09012000FAA5
:1051600002F241F8232000BF0C37BD465DF8047BF6
:10517000704700BF00E100E080B483B000AF034699
:105180003960FB7197F90730002B0ADB3B68DAB214
:105190000C4997F907301201D2B20B4483F800236F
:1051A0000AE03B68DAB20849FB7903F00F03043BDD
:1051B0001201D2B20B441A7600BF0C37BD465DF81F
:1051C000047B704700E100E000ED00E080B489B0AE
:1051D00000AFF860B9607A60FB6803F00703FB6119
:1051E000FB69C3F10703042B28BF0423BB61FB69E0
:1051F0000433062B02D9FB69033B00E000237B61EB
:105200004FF0FF32BB6902FA03F3DA43BB681A407E
:105210007B699A404FF0FF317B6901FA03F3D94370
:105220007B680B40134318462437BD465DF8047B6A
:105230007047000080B582B000AF78607B68013BAA
:10524000B3F1807F01D301230FE00A4A7B68013B61
:1052500053600F214FF0FF30FFF78EFF054B002208
:105260009A60044B07221A60002318460837BD468F
:1052700080BD00BF10E000E080B582B000AF786074
:105280007868FFF729FF00BF0837BD4680BD80B5AD
:1052900086B000AF0346B9607A60FB7300237B6180
:1052A000FFF73EFF78617A68B9687869FFF78EFF8B
:1052B000024697F90F3011461846FFF75DFF00BF11
:1052C0001837BD4680BD80B582B000AF0346FB7184
:1052D00097F907301846FFF731FF00BF0837BD4682
:1052E00080BD80B582B000AF78607868FFF7A2FF1C
:1052F000034618460837BD4680BD80B500AFFDF7B0
:1053000089FF00BF80BD000080B582B000AF78602B
:105310007B68002B01D1012354E07B685B7FDBB20B
:10532000002B05D17B6800221A777868FDF74CFCCA
:105330007B6802225A777B681B79002B0CD17B6833
:105340001B68224A5A617B681B689A687B681B68E5
:1053500022F018029A600CE07B6899687B68DB6831
:105360001A46786800F048F90346002B01D0012363
:1053700028E07B685B79002B05D17B681B684FF0C8
:10538000FF321A6104E07B681B687A6812691A614F
:105390007B681B689B6823F060017B685A697B68A7
:1053A0001B680A439A607B681B689B6823F0800136
:1053B0007B689A697B681B680A439A607B68012254
:1053C0005A77002318460837BD4680BDB71DC10473
:1053D00080B586B000AFF860B9607A6000233B61A9
:1053E000FB6802225A77FB681B689A68FB681B6897
:1053F00042F001029A60FB681B6A032B06D0032B64
:1054000029D8012B19D0022B1ED024E000237B6168
:105410000AE07B699B00BA681A44FB681B68126843
:105420001A607B6901337B617A697B689A42F0D3A9
:10543000FB681B681B683B610EE07A68B968F86816
:1054400000F012F8386107E07A68B968F86800F08F
:1054500099F8386100E000BFFB6801225A773B6988
:1054600018461837BD4680BD80B489B000AFF860DB
:10547000B9607A600023FB6123E0FB699B00BA6896
:1054800013441B781A06FB699B000133B9680B446F
:105490001B781B041A43FB699B000233B9680B4459
:1054A0001B781B021A43FB699B000333B9680B444A
:1054B0001B781946FB681B680A431A60FB690133B5
:1054C000FB617B689B08FA699A42D6D37B6803F03C
:1054D0000303002B4DD07B6803F00303012B07D19E
:1054E000FB699B00BA681344FA6812681B78137052
:1054F0007B6803F00303022B16D1FB699B00BA689B
:1055000013441B781B021AB2FB699B000133B96874
:105510000B441B781BB213431BB27B83FB681B68D5
:105520007B617B697A8B1A807B6803F00303032B12
:105530001FD1FB699B00BA6813441B781B021AB287
:10554000FB699B000133B9680B441B781BB2134302
:105550001BB27B83FB681B687B617B697A8B1A803B
:10556000FB699B000233BA681344FA6812681B781F
:105570001370FB681B681B6818462437BD465DF82E
:10558000047B704780B487B000AFF860B9607A6080
:1055900000237B6113E07B699B00BA6813441B887E
:1055A0001A047B699B000233B9680B441B881946B7
:1055B000FB681B680A431A607B6901337B617B6867
:1055C0005B087A699A42E6D37B6803F00103002BFB
:1055D00009D0FB681B683B617B699B00BA68134478
:1055E0001A883B691A80FB681B681B6818461C37C1
:1055F000BD465DF8047B704780B487B000AFF860AB
:10560000B9607A600023FB751F233B6100BF3B69D3
:105610005A1E3A61002B09D03B6903F01F03BA6898
:1056200022FA03F303F00103002BF0D07B68182B60
:1056300046D801A252F823F0C7560008C156000808
:10564000C1560008C1560008C1560008C1560008DE
:10565000C1560008C1560008B5560008C1560008DA
:10566000C1560008C1560008C1560008C1560008BE
:10567000C1560008C1560008A9560008C1560008C6
:10568000C1560008C1560008C1560008C15600089E
:10569000C1560008C15600089D5600083B69062BFC
:1056A00013D90123FB7510E03B69072B0FD90123A8
:1056B000FB750CE03B690F2B0BD90123FB7508E050
:1056C0000123FB7506E000BF04E000BF02E000BF5D
:1056D00000E000BFFB7D002B0DD1FB681B68BA68A2
:1056E0005A61FB681B689B6823F01801FB681B6804
:1056F0007A680A439A60FB7D18461C37BD465DF800
:10570000047B704780B485B000AF78607B68002B65
:1057100001D1012398E07B681B681A464D4B9A42E1
:105720000FD87B681B681A464B4B13444B4AA2FBAD
:1057300003231B099A007B685A647B68484A1A64F1
:105740000EE07B681B681A46464B1344434AA2FB93
:1057500003231B099A007B685A647B68424A1A64D7
:105760007B68022283F825207B681B681B68FB602E
:10577000FB6823F4FF4323F07003FB607B689A68A7
:105780007B68DB681A437B681B691A437B685B692B
:105790001A437B689B691A437B68DB691A437B6801
:1057A0001B6A1343FA681343FB607B681B68FA6843
:1057B0001A607B689B68B3F5804F39D07B681B6C9F
:1057C000274A93421AD1294B1A687B685B6C03F015
:1057D0001C030F2101FA03F3DB43244913400B6040
:1057E000224B1A687B6859687B685B6C03F01C036A
:1057F00001FA03F31D4913430B6019E01C4B1A68AF
:105800007B685B6C03F01C030F2101FA03F3DB439D
:10581000174913400B60164B1A687B6859687B6800
:105820005B6C03F01C0301FA03F3114913430B6093
:105830007B680022DA637B68012283F825207B687D
:10584000002283F82420002318461437BD465DF853
:10585000047B704707040240F8FFFDBFCDCCCCCCE1
:1058600000000240F8FBFDBF00040240A800024017
:10587000A804024080B586B000AFF860B9607A60D5
:105880003B600023FB75FB6893F82430012B01D1AA
:1058900002234BE0FB68012283F82420FB6893F885
:1058A0002530DBB2012B3AD1FB68022283F8252098
:1058B000FB680022DA63FB681B681A68FB681B68D8
:1058C00022F001021A603B687A68B968F86800F053
:1058D0005FF9FB681B6B002B08D0FB681B681A681C
:1058E000FB681B6842F00E021A600FE0FB681B6841
:1058F0001A68FB681B6822F004021A60FB681B68C8
:105900001A68FB681B6842F00A021A60FB681B6891
:105910001A68FB681B6842F001021A6005E0FB6828
:10592000002283F824200223FB75FB7D18461837DC
:10593000BD4680BD80B485B000AF78600023FB73A6
:105940007B6893F82530DBB2022B08D07B680422F9
:10595000DA637B68002283F82420012322E07B683D
:105960001B681A687B681B6822F00E021A607B684D
:105970001B681A687B681B6822F001021A607B684A
:105980005B6C03F01C027B681B6C012101FA02F2C4
:105990005A607B68012283F825207B68002283F807
:1059A0002420FB7B18461437BD465DF8047B704706
:1059B00080B584B000AF78600023FB737B6893F8F8
:1059C0002530DBB2022B05D07B680422DA63012389
:1059D000FB7329E07B681B681A687B681B6822F0F0
:1059E0000E021A607B681B681A687B681B6822F0CD
:1059F00001021A607B685B6C03F01C027B681B6C05
:105A0000012101FA02F25A607B68012283F8252005
:105A10007B68002283F824207B689B6B002B03D0DB
:105A20007B689B6B78689847FB7B18461037BD46B0
:105A300080BD80B584B000AF78607B681B6C1B684C
:105A4000FB607B681B681B68BB607B685B6C03F05A
:105A50001C0304229A40FB681340002B26D0BB682D
:105A600003F00403002B21D07B681B681B6803F044
:105A70002003002B07D17B681B681A687B681B68B2
:105A800022F004021A607B685B6C03F01C027B68E6
:105A90001B6C042101FA02F25A607B681B6B002B1D
:105AA00071D07B681B6B786898476CE07B685B6C97
:105AB00003F01C0302229A40FB681340002B2ED0F7
:105AC000BB6803F00203002B29D07B681B681B68AE
:105AD00003F02003002B0BD17B681B681A687B68DE
