:020000040800F2
:1000000000000120699E0008E5710008E971000800
:10001000ED710008F1710008F571000800000000A2
:10002000000000000000000000000000B1E900082E
:10003000F97100080000000041EA0008A5EA000884
:10004000B99E0008B99E0008B99E0008B99E000834
:10005000B99E0008B99E0008B99E0008B99E000824
:10006000B99E0008B99E0008B99E0008FD710008FD
:10007000B99E0008B99E0008B99E0008B99E000804
:10008000B99E0008B99E0008B99E0008B99E0008F4
:10009000B99E0008B99E0008B99E0008B99E0008E4
:1000A000B99E0008B99E0008B99E0008B99E0008D4
:1000B000B99E00080000000000000000B99E000882
:1000C000B99E0008B99E0008B99E0008B99E0008B4
:1000D000B99E00080972000815720008B99E000850
:1000E000B99E0008B99E0008000000000000000052
:1000F0000000000000000000000000000000000000
:1001000000000000B99E000800000000B99E000831
:100110000000000000000000B99E000821720008E5
:10012000B99E0008B99E0008B99E0008B99E000853
:10013000B99E000800000000000000000000000060
:10014000B99E0008B99E0008B99E00080000000092
:10015000B99E0008B99E0008B99E0008B99E000823
:10016000B99E0008B99E0008B99E00080000000072
:10017000B99E0008B99E00080000000000000000C1
:0C018000B99E0008B99E0008B99E000856
:1001900010B5054C237833B9044B13B10448AFF3C1
:1001A00000800123237010BD080200200000000021
:1001B000E841010808B5034B1BB103490348AFF3FD
:1001C000008008BD000000000C020020E84101088A
:1001D00038B500281CBF01680029184A23D1184BE4
:1001E0001C684FF6F0710C404CF24025AC421FBF2A
:1001F0001B6819404CF27024A14212D1114D29689C
:1002000079B911490B68C3F30B03B3F58A6F1FBFAC
:100210000968C1F30B0140F28343994204BF0121F5
:10022000117028B905E0094B994204BF01211170F2
:100230004068BDE8324005F0D7BB00BF2402002073
:1002400000ED00E0002004E00010005C00003748F2
:1002500001F0FF01102A2BDB10F0070F08D010F877
:10026000013B013A8B422DD010F0070F42B3F6D17B
:10027000F0B441EA012141EA014122F007047FF094
:1002800000070023F0E80256083C85EA010586EAEB
:10029000010685FA47F5A3FA87F586FA47F6A5FA27
:1002A00087F68EB9EED1F0BC01F0FF0102F0070233
:1002B00032B110F8013B013A83EA010313B1F8D1DE
:1002C0000020704701387047002D06BF35460338BF
:1002D000073815F0010F07D1013015F4807F02BFF8
:1002E000013015F4C03F0130F0BC0138704700BF49
:1002F000034613F8012B002AFBD1181A0138704766
:1003000081F0004102E000BF83F0004330B54FEAC6
:1003100041044FEA430594EA050F08BF90EA020F33
:100320001FBF54EA000C55EA020C7FEA645C7FEAC6
:10033000655C00F0E2804FEA5454D4EB5555B8BFE9
:100340006D420CDD2C4480EA020281EA030382EA5A
:10035000000083EA010180EA020281EA0303362DEC
:1003600088BF30BD11F0004F4FEA01314FF4801CBF
:100370004CEA113102D0404261EB410113F0004FD1
:100380004FEA03334CEA133302D0524263EB430388
:1003900094EA050F00F0A780A4F10104D5F1200E26
:1003A0000DDB02FA0EFC22FA05F2801841F1000181
:1003B00003FA0EF2801843FA05F359410EE0A5F155
:1003C00020050EF1200E012A03FA0EFC28BF4CF086
:1003D000020C43FA05F3C01851EBE37101F000453C
:1003E00007D54FF0000EDCF1000C7EEB00006EEB49
:1003F0000101B1F5801F1BD3B1F5001F0CD34908D3
:100400005FEA30004FEA3C0C04F101044FEA445229
:1004100012F5800F80F09A80BCF1004F08BF5FEAB0
:10042000500C50F1000041EB045141EA050130BD90
:100430005FEA4C0C404141EB0101013C28BFB1F5A2
:10044000801FE9D291F0000F04BF01460020B1FAED
:1004500081F308BF2033A3F10B03B3F120020CDAC0
:100460000C3208DD02F1140CC2F10C0201FA0CF09E
:1004700021FA02F10CE002F11402D8BFC2F1200C03
:1004800001FA02F120FA0CFCDCBF41EA0C019040B9
:10049000E41AA2BF01EB0451294330BD6FEA040402
:1004A0001F3C1CDA0C340EDC04F11404C4F12002ED
:1004B00020FA04F001FA02F340EA030021FA04F3FF
:1004C00045EA030130BDC4F10C04C4F1200220FA56
:1004D00002F001FA04F340EA0300294630BD21FA94
:1004E00004F0294630BD94F0000F83F4801306BF5A
:1004F00081F480110134013D4EE77FEA645C18BF4E
:100500007FEA655C29D094EA050F08BF90EA020FE4
:1005100005D054EA000C04BF1946104630BD91EADC
:10052000030F1EBF0021002030BD5FEA545C05D1DF
:100530004000494128BF41F0004130BD14F580041E
:100540003CBF01F5801130BD01F0004545F0FE4192
:1005500041F470014FF0000030BD7FEA645C1ABFC7
:10056000194610467FEA655C1CBF0B46024650EAFE
:10057000013406BF52EA033591EA030F41F400212A
:1005800030BD00BF90F0000F04BF0021704730B5B0
:100590004FF4806404F132044FF000054FF0000185
:1005A00050E700BF90F0000F04BF0021704730B546
:1005B0004FF4806404F1320410F0004548BF40421B
:1005C0004FF000013EE700BF42004FEAE2014FEA70
:1005D00031014FEA02701FBF12F07F4393F07F4F4B
:1005E00081F06051704732F07F4208BF704793F04E
:1005F0007F4F04BF41F40021704730B54FF4607461
:1006000001F0004521F000411CE700BF50EA010263
:1006100008BF704730B54FF000050AE050EA01020C
:1006200008BF704730B511F0004502D5404261EB7C
:1006300041014FF4806404F132045FEA915C3FF4BD
:10064000D8AE4FF003025FEADC0C18BF03325FEA5A
:10065000DC0C18BF033202EBDC02C2F1200300FA0B
:1006600003FC20FA02F001FA03FE40EA0E0021FA30
:1006700002F11444BDE600BF70B54FF0FF0C4CF41E
:10068000E06C1CEA11541DBF1CEA135594EA0C0FD0
:1006900095EA0C0F00F0DEF82C4481EA030621EA0B
:1006A0004C5123EA4C5350EA013518BF52EA033546
:1006B00041F4801143F4801338D0A0FB02CE4FF0F8
:1006C0000005E1FB02E506F00042E0FB03E54FF028
:1006D0000006E1FB03569CF0000F18BF4EF0010E20
:1006E000A4F1FF04B6F5007F64F5407404D25FEA1C
:1006F0004E0E6D4146EB060642EAC62141EA5551CF
:100700004FEAC52040EA5E504FEACE2EB4F1FD0C10
:1007100088BFBCF5E06F1ED8BEF1004F08BF5FEA8E
:10072000500E50F1000041EB045170BD06F0004640
:1007300046EA010140EA020081EA0301B4EB5C04ED
:10074000C2BFD4EB0C0541EA045170BD41F48011E5
:100750004FF0000E013C00F3AB8014F1360FDEBF0A
:10076000002001F0004170BDC4F10004203C35DAE6
:100770000C341BDC04F11404C4F1200500FA05F369
:1007800020FA04F001FA05F240EA020001F000420A
:1007900021F0004110EBD37021FA04F642EB060180
:1007A0005EEA430E08BF20EAD37070BDC4F10C04AA
:1007B000C4F1200500FA04F320FA05F001FA04F26E
:1007C00040EA020001F0004110EBD37041F100015A
:1007D0005EEA430E08BF20EAD37070BDC4F1200565
:1007E00000FA05F24EEA020E20FA04F301FA05F2CD
:1007F00043EA020321FA04F001F0004121FA04F275
:1008000020EA020000EBD3705EEA430E08BF20EA44
:10081000D37070BD94F0000F0FD101F0004640007E
:1008200041EB010111F4801F08BF013CF7D041EA00
:10083000060195F0000F18BF704703F00046520004
:1008400043EB030313F4801F08BF013DF7D043EAD5
:100850000603704794EA0C0F0CEA135518BF95EA8B
:100860000C0F0CD050EA410618BF52EA4306D1D112
:1008700081EA030101F000414FF0000070BD50EA31
:10088000410606BF1046194652EA430619D094EABB
:100890000C0F02D150EA013613D195EA0C0F05D1A5
:1008A00052EA03361CBF104619460AD181EA0301F9
:1008B00001F0004141F0FE4141F470014FF00000B1
:1008C00070BD41F0FE4141F4780170BD70B54FF04C
:1008D000FF0C4CF4E06C1CEA11541DBF1CEA1355CC
:1008E00094EA0C0F95EA0C0F00F0A7F8A4EB0504AE
:1008F00081EA030E52EA03354FEA013100F08880A5
:100900004FEA03334FF0805545EA131343EA12636D
:100910004FEA022245EA111545EA10654FEA002622
:100920000EF000419D4208BF964244F1FD0404F5DB
:10093000407402D25B084FEA3202B61A65EB030537
:100940005B084FEA32024FF480104FF4002CB6EBF4
:10095000020E75EB030E22BFB61A754640EA0C0074
:100960005B084FEA3202B6EB020E75EB030E22BFB4
:10097000B61A754640EA5C005B084FEA3202B6EBF5
:10098000020E75EB030E22BFB61A754640EA9C00B4
:100990005B084FEA3202B6EB020E75EB030E22BF84
:1009A000B61A754640EADC0055EA060E18D04FEA42
:1009B000051545EA16754FEA06164FEAC30343EAE2
:1009C00052734FEAC2025FEA1C1CC0D111F4801FAF
:1009D0000BD141EA00014FF000004FF0004CB6E7A8
:1009E00011F4801F04BF01430020B4F1FD0C88BF47
:1009F000BCF5E06F3FF6AFAEB5EB030C04BFB6EB52
:100A0000020C5FEA500C50F1000041EB045170BD44
:100A10000EF0004E4EEA113114EB5C04C2BFD4EB71
:100A20000C0541EA045170BD41F480114FF0000EF5
:100A3000013C90E645EA060E8DE60CEA135594EA71
:100A40000C0F08BF95EA0C0F3FF43BAF94EA0C0F74
:100A50000AD150EA01347FF434AF95EA0C0F7FF4E9
:100A600025AF104619462CE795EA0C0F06D152EA3D
:100A700003353FF4FDAE1046194622E750EA410621
:100A800018BF52EA43067FF4C5AE50EA41047FF432
:100A90000DAF52EA43057FF4EBAE12E74FF0FF3C97
:100AA00006E000BF4FF0010C02E000BF4FF0010C68
:100AB0004DF804CD4FEA410C7FEA6C5C4FEA430CE1
:100AC00018BF7FEA6C5C1BD001B050EA410C0CBF30
:100AD00052EA430C91EA030F02BF90EA020F002092
:100AE000704710F1000F91EA030F58BF994208BFF9
:100AF00090422CBFD8176FEAE37040F001007047B6
:100B00004FEA410C7FEA6C5C02D150EA013C07D10C
:100B10004FEA430C7FEA6C5CD6D152EA033CD3D057
:100B20005DF8040B704700BF8446104662468C4651
:100B30001946634600E000BF01B5FFF7B7FF002884
:100B400048BF10F1000F01BD4DF808EDFFF7F4FFAD
:100B50000CBF012000205DF808FB00BF4DF808ED38
:100B6000FFF7EAFF34BF012000205DF808FB00BF5B
:100B70004DF808EDFFF7E0FF94BF012000205DF87D
:100B800008FB00BF4DF808EDFFF7CEFF94BF012032
:100B900000205DF808FB00BF4DF808EDFFF7C4FF2B
:100BA00034BF012000205DF808FB00BF4FEA410C74
:100BB0007FEA6C5C02D150EA013C0AD14FEA430C57
:100BC0007FEA6C5C02D152EA033C02D14FF0000094
:100BD00070474FF0010070474FEA410212F50012D2
:100BE00015D211D56FF47873B3EB625212D94FEA74
:100BF000C12343F0004343EA505311F0004F23FA5E
:100C000002F018BF404270474FF00000704750EAB2
:100C1000013005D111F0004008BF6FF0004070476F
:100C20004FF00000704700BF4A0011D212F50012C9
:100C300011D20DD56FF47873B3EB62520ED44FEA34
:100C4000C12343F0004343EA505323FA02F07047B4
:100C50004FF00000704750EA013002D14FF0FF30F2
:100C600070474FF0000070474FEA4102B2F1E04395
:100C700024BFB3F5001CDCF1FE5C0DD901F0004C83
:100C80004FEAC0024CEA5070B2F1004F40EB8300D3
:100C900008BF20F00100704711F0804F21D113F1FF
:100CA0003872BCBF01F00040704741F480114FEA38
:100CB0005252C2F11802C2F1200C10FA0CF320FAC1
:100CC00002F018BF40F001004FEAC1234FEAD323DE
:100CD00003FA0CFC40EA0C0023FA02F34FEA430348
:100CE000CCE77FEA625307D150EA01331EBF4FF0D1
:100CF000FE4040F44000704701F0004040F0FE40EC
:100D000040F40000704700BF80F0004002E000BFE8
:100D100081F0004142001FBF5FEA410392EA030FE6
:100D20007FEA226C7FEA236C6AD04FEA1262D2EB30
:100D30001363C1BFD218414048404140B8BF5B4235
:100D4000192B88BF704710F0004F40F4000020F0CE
:100D50007F4018BF404211F0004F41F4000121F0E4
:100D60007F4118BF494292EA030F3FD0A2F101022E
:100D700041FA03FC10EB0C00C3F1200301FA03F16C
:100D800000F0004302D5494260EB4000B0F5000F8F
:100D900013D3B0F1807F06D340084FEA310102F14E
:100DA0000102FE2A51D2B1F1004F40EBC25008BF00
:100DB00020F0010040EA03007047490040EB0000CA
:100DC000013A28BFB0F5000FEDD2B0FA80FCACF1CB
:100DD000080CB2EB0C0200FA0CF0AABF00EBC250F8
:100DE00052421843BCBFD0401843704792F0000FE6
:100DF00081F4000106BF80F400000132013BB5E739
:100E00004FEA41037FEA226C18BF7FEA236C21D0AE
:100E100092EA030F04D092F0000F08BF0846704713
:100E200090EA010F1CBF0020704712F07F4F04D1E1
:100E3000400028BF40F00040704712F100723CBFF4
:100E400000F50000704700F0004343F0FE4040F41E
:100E5000000070477FEA226216BF08467FEA2363DC
:100E60000146420206BF5FEA412390EA010F40F4C7
:100E7000800070474FF0000304E000BF10F0004313
:100E800048BF40425FEA000C08BF704743F09643FA
:100E900001464FF000001CE050EA010208BF704715
:100EA0004FF000030AE000BF50EA010208BF70479C
:100EB00011F0004302D5404261EB41015FEA010CB1
:100EC00002BF84460146002043F0B64308BFA3F1A9
:100ED0008053A3F50003BCFA8CF2083AA3EBC2538B
:100EE00010DB01FA02FC634400FA02FCC2F12002AA
:100EF000BCF1004F20FA02F243EB020008BF20F0E1
:100F00000100704702F1200201FA02FCC2F1200246
:100F100050EA4C0021FA02F243EB020008BF20EA3B
:100F2000DC7070477BB972B90029BEBF00204FF05A
:100F3000004106E008BF00281CBF6FF000414FF0E1
:100F4000FF3000F0EBB9ADF1080C6DE904CE0029DB
:100F500009DB002B1ADB00F083F8DDF804E0DDE9A3
:100F6000022304B07047404261EB4101002B1BDBC0
:100F700000F076F8DDF804E0DDE9022304B0404239
:100F800061EB4101524263EB43037047524263EB12
:100F9000430300F065F8DDF804E0DDE9022304B066
:100FA000404261EB41017047524263EB430300F062
:100FB00057F8DDF804E0DDE9022304B0524263EBA8
:100FC0004303704753B94AB9002908BF00281CBF22
:100FD0004FF0FF314FF0FF3000F0A0B9ADF1080C39
:100FE0006DE904CE00F03CF8DDF804E0DDE9022311
:100FF00004B0704738B50022002304460D46FFF7C1
:10100000ADFD28B920462946BDE8384000F00AB8B1
:10101000204605F1004100F005F8404261EB410136
:1010200038BD00BFD0B50C4B002206460F46FFF777
:1010300023FBFFF7F9FD0446FFF7A4FA074B002254
:10104000FFF71AFB02460B4630463946FFF75CF9BC
:10105000FFF7EAFD2146D0BD0000F03D0000F04161
:101060002DE9F047089D0C46002B4ED194468C4547
:101070008646B2FA82F262D94AB1C2F120039140A7
:1010800020FA03F30CFA02FC194300FA02FE4FEABD
:101090001C471FFA8CF6B1FBF7F44FEA1E4307FB1F
:1010A000141143EA014304FB06F199420AD91CEBEF
:1010B000030304F1FF3080F01281994240F20F8166
:1010C000023C6344591A1FFA8EF3B1FBF7F007FB99
:1010D000101143EA014300FB06F69E420AD91CEBBD
:1010E000030300F1FF3180F0FC809E4240F2F98062
:1010F000634402389B1B40EA044000211DB1D340E9
:101100000022C5E90032BDE8F0878B4205D90DB158
:10111000C5E9000100210846F5E7B3FA83F100298B
:1011200046D1A34202D39042C0F0F080861A64EB0D
:1011300003030120002DE6D0C5E90063E3E7002AA0
:1011400040F09080A1EB0C044FEA1C481FFA8CF78A
:101150000121B4FBF8F64FEA1E4308FB164443EAAC
:10116000044307FB06F0984208D91CEB030306F181
:10117000FF3402D2984200F2CD8026461C1A1FFA94
:101180008EF3B4FBF8F008FB104443EA044300FB81
:1011900007F79F4208D91CEB030300F1FF3402D28A
:1011A0009F4200F2B0802046DB1B40EA0640A5E7E4
:1011B000C1F120068B4022FA06F71F4320FA06FCF5
:1011C00004FA01F343EA0C03F44000FA01F8380C86
:1011D0004FEA1349B4FBF0FE1FFA87FC00FB1E44E4
:1011E00049EA04440EFB0CF9A14502FA01F20AD9BE
:1011F0003C190EF1FF3A80F08480A14540F28180D5
:10120000AEF1020E3C44A4EB09041FFA83F9B4FBCF
:10121000F0F300FB134449EA044403FB0CFCA4452F
:1012200007D93C1903F1FF3067D2A44565D9023BC9
:101230003C4443EA0E40A0FB0293A4EB0C049C4206
:10124000CE469C4651D34ED055B1B8EB0E0364EB5D
:101250000C0404FA06F6CB401E43CC40C5E90064FA
:10126000002150E7C2F1200320FA03F10CFA02FC3E
:1012700024FA03F394400C434FEA1C4800FA02FEA0
:101280001FFA8CF7B3FBF8F008FB1031230C43EA8C
:10129000014300FB07F1994208D91CEB030300F15D
:1012A000FF362CD299422AD9023863445B1AA4B281
:1012B000B3FBF8F108FB113344EA034401FB07F3E5
:1012C000A34208D91CEB040401F1FF3613D2A34258
:1012D00011D902396444E41A41EA004139E704466D
:1012E000F0E6084606E7C845AED2B9EB020E63EB5E
:1012F000070C0138A8E73146EDE7034699E7304689
:10130000D4E7D6467FE7634402384DE706462346D6
:1013100008460FE7023E634430E700BF704700BF56
:101320000E484FF0FF3380F8F13080F8F23001467C
:101330004FF6FF7300F1F10C11F8012B82EA132232
:1013400082EA121242EA032383EA023383EA421357
:101350006145A0F8F1309BB2EED17047C019002072
:101360002DE9F04186B0002306460C4690460193D5
:1013700009F08AFD204B9A6942F040429A614CF292
:10138000FA321A6101230022CDE9022301A90123C7
:1013900002A8CDE9046309F061FE28BBC4EBC626B0
:1013A00006F1006605464FEAD808083E02E0A84567
:1013B00014D01D46F4E80223A7190020394609F08D
:1013C000ADFD6B1C0028F2D009F072FD39460B48C8
:1013D0000FF0A8FC012006B0BDE8F08109F068FD1F
:1013E000002006B0BDE8F08109F062FD31460448F6
:1013F0000FF098FCF4E700BF002002409C42010877
:101400008842010870B5124EB6F8F140FFF788FF28
:10141000B6F8F130A34201D1002070BD0425F322BB
:1014200031467E20FFF79CFF044608B1013DF6D10E
:10143000074E0425F32231467F20FFF791FF18B1B4
:10144000013DF7D12043C4B2601CC0B270BD00BFE3
:10145000C019002010B5144CEC22002120460FF0DA
:1014600029FEE31F114A44F8062C022104F8071C48
:101470000C226FF01B01002059719A71F521E722AF
:10148000A0701A764124712283F82510142123209C
:10149000DC7383F832200F24012283F83B101C7286
:1014A000987283F83C2010BDC719002017D94E3D13
:1014B000F8B5394DC5F100646E1C05F1F30E2B46ED
:1014C00004F57C341A5D03F8012F9E45FAD13349A7
:1014D0004FF6FF7201F1F10C11F8013B83EA122380
:1014E00083EA131343EA022282EA033282EA4312B6
:1014F000614592B2F0D12A48B6F8F170264B801BB4
:10150000C15C03F8011F9E45FAD124484FF6FF73D2
:1015100010F8011B81EA132181EA111141EA03232A
:1015200083EA013383EA411360459BB2F0D1B6F8F8
:10153000F110994210F8F13C14D0022B14D19742CB
:1015400012D12B5D05F8013FAE45FAD1134D0424AD
:10155000F32229467F20FFF703FFD0B1013CF7D1EA
:101560000320F8BD022B07D0FFF774FFFFF74AFFF7
:101570000128F5D80220F8BD97420AD0074D04246F
:10158000F32229467E20FFF7EBFE10B1013CF7D194
:10159000E6E70020F8BD00BFBF190020C0190020F9
:1015A00001F8030870B5B24EB24CB34D30460FF09F
:1015B00021FC2178B1480FF0B5FBD4F80100FFF70A
:1015C00003F80B460246AE480FF0ACFBB4F805102A
:1015D000AC480FF0A7FB2189AB480FF0A3FB94F8B0
:1015E0003B10AA480FF09EFB94F83C10A84801F06D
:1015F00003010FF097FB04F14D01A6480FF092FB99
:10160000B4F87D10A4480FF08DFB04F17F01A348CE
:101610000FF088FBB4F8AF10A1480FF083FB04F182
:10162000B101A0480FF07EFB04F1C1019E480FF00C
:1016300079FB2A78A17A9D48C2F3400201F00101AA
:101640000FF070FB2A78A17A9948C2F38302C1F3A4
:1016500043010FF067FB6A78A17A9648964D02F035
:101660000102C1F340110FF05DFBD4F80B00FEF74F
:10167000ABFF0B46024691480FF054FBE17B2A7802
:101680008F4801F00101C2F340020FF04BFB2A78B2
:10169000E17B8C48C2F38302C1F343010FF042FBAC
:1016A0006A78E17B884802F00102C1F340110FF033
:1016B00039FBAA7AE17B8548854D02F00102C1F32E
:1016C00080110FF02FFB2069FEF77EFF02460B46CC
:1016D00080480FF027FB6069FEF776FF0B46024655
:1016E0007D480FF01FFB217E2A787C4801F0010124
:1016F000C2F340020FF016FB2A78217E7848C2F32D
:101700008302C1F343010FF00DFB6A78217E754817
:1017100002F00102C1F340110FF004FBEA7C217ECC
:10172000714802F00102C9090FF0FCFAAA7A217E81
:101730006E486F4D02F00102C1F380110FF0F2FA12
:10174000D4F81900FEF740FF02460B4669480FF037
:10175000E9FAD4F82100FEF737FF02460B46664847
:101760000FF0E0FAD4F81D00FEF72EFF0B460246FC
:1017700062480FF0D7FA94F825102A78604801F0F3
:101780000101C2F340020FF0CDFA6A7894F82510F7
:101790005C4802F00102C1F340110FF0C3FAEA7C89
:1017A00094F82510584802F00102C9090FF0BAFA5E
:1017B000AA7A94F825105548554D02F00102C1F35C
:1017C00080110FF0AFFAD4F82600FEF7FDFE0246B6
:1017D0000B4650480FF0A6FAD4F82E00FEF7F4FEA0
:1017E00002460B464C480FF09DFAD4F82A00FEF74B
:1017F000EBFE0B46024649480FF094FA94F832107B
:101800002A78474801F00101C2F340020FF08AFA3A
:101810006A7894F83210434802F00102C1F3401193
:101820000FF080FAAA7A94F832103F4802F00102D1
:10183000C1F380110FF076FAD4F83300FEF7C4FE3E
:1018400002460B4639480FF06DFAD4F83700FEF720
:10185000BBFE02460B4636480FF064FAB4F8F110AE
:1018600034480FF05FFA3046BDE870400FF0C2BA5E
:10187000B8420108C0190020C01B0020DC4201084A
:10188000F44201080C430108244301083C430108C9
:101890005043010864430108784301088C43010860
:1018A0009C430108B0430108C4430108D843010820
:1018B000F44301080C440108A81B00202844010837
:1018C0004444010860440108784401089444010834
:1018D000841B0020AC440108C8440108E04401080E
:1018E000FC44010814450108304501084C45010835
:1018F000601B00206845010884450108A0450108D7
:10190000BC450108D8450108F44501081046010806
:10191000481B00202C46010848460108644601087F
:10192000804601089C460108B8460108D4460108D3
:10193000F04601080C470108F0B593B00B46009241
:1019400005460E4617461749024602A80FF08EFAC2
:10195000154B009302A8154B02224FF47A7100F048
:1019600053FD012808D03B463246294610480FF067
:10197000D9F9002013B0F0BD044629460D480FF0F8
:10198000C3FC31460C480FF0BFFC39460B480FF042
:10199000BBFC3B463246294609480FF0C3F92046B6
:1019A00013B0F0BD784701082C470108CC5301085B
:1019B000BC470108170A0020280A0020390A002025
:1019C0009447010810B582B00B4A00920B4B0C48AB
:1019D000022242F2107100F017FD012805D00948DB
:1019E0000FF008FA002002B010BD044606480FF0C0
:1019F00001FA204602B010BD2C470108E847010853
:101A0000F44701082C4801080448010830B583B0A8
:101A1000154A0092154B0546022270B114484FF446
:101A20007A7100F0F1FC0446012C0ED029461148D1
:101A30000FF078F9002003B030BD0F484FF47A71F1
:101A400000F0E2FC0446012CF0D129460B480FF0CF
:101A500069F90B4B93F8E627204665F3000283F8FB
:101A6000E62703B030BD00BF2C470108CC53010866
:101A7000C44801080C490108D4480108E448010899
:101A8000300200202DE9F04182B02C4F009704462F
:101A90000D462B481646984602222A4B42F21071F8
:101AA00000F0B2FC01280AD027480FF0A3F927481C
:101AB0000FF0A0F90024204602B0BDE8F0812448D0
:101AC0000FF098F94046FFF7A1FF2046324629461D
:101AD000FFF732FF044680B11E4B1F491F48009795
:101AE000022200F091FC012805460AD01C480FF0A4
:101AF00081F91C480FF07EF9DCE71B480FF07AF9FA
:101B0000D8E71A480FF076F9124B009702224FF4EB
:101B10007A71174800F078FC164917480FF002F95F
:101B200016480FF067F90B4B15482A464FF4FA7127
:101B300000F06AFC204602B0BDE8F0812C470108A5
:101B4000F4470108E84701082C4801083849010812
:101B500004480108CC530108084C01002047010843
:101B600058470108C0490108604901083847010881
:101B7000584801084A0A0020644801088C490108B5
:101B8000B049010810B592B00C460346154A0094BE
:101B90004021154C02A80FF035F9144B0094022295
:101BA00042F2107102A800F02FFC012817D00F4B51
:101BB0000F48009402224FF47A7100F025FC0D4882
:101BC0000FF018F90C4A92F82B38022B07D013B9F2
:101BD000002012B010BD012382F82B38F8E7012055
:101BE00012B010BDF04901082C470108CC53010880
:101BF00084480108944801083002002008B50948CB
:101C0000094B012241F2883100F0FEFB012801D08E
:101C1000002008BD054B93F82B280AB183F82B0848
:101C2000012008BD104A0108CC53010830020020F1
:101C300070B5154D154E164B84B001220096044622
:101C400085F82C281348022240F2DC5100F0DCFB1E
:101C5000012805D0032385F82C38002004B070BD7E
:101C6000204600F095FB0C491A2203A80FF0FEF85D
:101C70000A4B009602224FF4FA6103A800F0C4FB5D
:101C80000128E7D1EAE700BF300200202C47010815
:101C9000204A0108284A0108384A01083C4A01083C
:101CA000F0B5144F144A89B0012387F82C380D463B
:101CB0000B460646142103A80FF0A4F80F4B00931F
:101CC00003A80F4B022240F2DC5100F09DFB0128DB
:101CD00005D00323002087F82C3809B0F0BD044656
:101CE0002946304600F06AFB1E200CF053F82046CF
:101CF00009B0F0BD30020020484A01082C47010815
:101D0000204A01082DE9F04F314C324F324EDFF8B6
:101D1000DC90DFF8DCA00FCC8FB008AD0FC594E8E5
:101D200003002E4C85E803000DF11C08FF2500215F
:101D30000097334684F8311B02224FF4FA7148466B
:101D400000F062FB01283BD14FF0650B06E00CF080
:101D500021F80BF1FF3313F0FF0B13D094F8313B54
:101D60000820002BF3D0FF2D08BF00250EAB03EB9E
:101D700085051B4855F8181C0EF0D4FF01200FB044
:101D8000BDE8F08F94F8313B002BECD10135EDB27A
:101D9000062D15D058F804BF504659460EF0C2FF24
:101DA000104A5B46142103A80FF02CF80097334625
:101DB00003A802224FF4FA7100F026FB0228B6D1E4
:101DC00009480FF017F800200FB0BDE8F08F00BFF2
:101DD000004201082C470108CC53010830020020C2
:101DE000E04B0108D04B0108004C01089C4B010856
:101DF000AC4B010870B57A4C94F830335A0782B076
:101E000040F19F80A0B994F8312B002A40F0A280C5
:101E100094F82B28002A00F0988072480EF0EAFF10
:101E2000002384F84C3BA4F8313B012002B070BD84
:101E30006FF345136C4E84F8303364200BF0AAFF27
:101E40006A4B6B48009602224FF47A7100F0DCFA7C
:101E50000128054667D12022002104F533600FF0E8
:101E600029F94FF42F700BF095FF604B61480096F5
:101E700002224FF4967100F0C7FA022850D04FF4B6
:101E80002F700BF087FFFFF73DFF00284BD0642039
:101E90000BF080FF554B58482A464FF4FA7100F07A
:101EA000B3FA012840F0818014200BF073FF4F4BF0
:101EB0005248009602224FF4967100F0A5FA0228CB
:101EC00000F08A8014200BF065FF484B4C480096C8
:101ED00002224FF4967100F097FA022878D014206D
:101EE0000BF058FF414B4748009602224FF4967181
:101EF00000F08AFA022867D014200BF04BFF3B4B0E
:101F00004148009602224FF4967100F07DFA0228B3
:101F100056D032200BF03EFF3C480EF06BFF84E7BA
:101F20003B480EF067FF3B480EF064FF94F8313BEE
:101F300093BB3948202200210FF0BCF8002002B0EA
:101F400070BD36480EF056FFF8E743F0200384F8E2
:101F5000303362E72448254B009002224FF47A7117
:101F60002F4800F051FA054632200BF013FF94F889
:101F70002B382BB994F8303343F0200384F83033F6
:101F8000012D3FF44AAF27480EF034FF002384F8B8
:101F90004C3BA4F8313BD1E7144B009602224FF49E
:101FA0007A711F4800F030FAC3E764200BF0F2FEAC
:101FB0000E4B11482A464FF4FA7100F025FA73E7E8
:101FC00019480EF017FFA4E718480EF013FF93E727
:101FD00017480EF00FFF82E716480EF00BFF71E76F
:101FE00030020020CC4C01082C470108CC530108DA
:101FF000504C01086C4B0108604C0108584A01081C
:10200000A44A0108E44A0108244B0108844C010851
:102010007C4B0108A04C0108600D0020284C0108F1
:10202000BC4C0108E84C0108444B0108044B010872
:10203000C44A0108804A010800B583B0094A0A4B26
:10204000009244F620610222084800F0DDF90128E0
:1020500005BF074B0022002083F85A2603B05DF825
:1020600004FB00BF544D0108384D0108484D0108DC
:102070003002002000B583B00B4A00920B4B0C4895
:1020800002224FF47A7100F0BFF9012805D002282E
:1020900003D0002003B05DF804FB064B83F8D9079A
:1020A00003B05DF804FB00BF884D0108684D0108CE
:1020B0007C4D01083002002010B5012882B015D0F7
:1020C0000228044602D0002002B010BD0E4A009241
:1020D0000E4B02464FF47A710D4800F095F9012835
:1020E000F1D10C4B012083F8D947EDE70A4A009261
:1020F0000A4B0B4802224FF47A7100F085F901284F
:102100000446E0D1EDE700BFF04D0108D04D0108D5
:10211000E44D010830020020BC4D01089C4D01082F
:10212000B04D010800B583B00B4A00920B4B0C4830
:1021300002224FF47A7100F067F9012805D0A0F16E
:102140000200B0FA80F040094000064B83F8D8073F
:1021500003B05DF804FB00BF284E0108044E0108DF
:102160001C4E010830020020012810B5044603D09F
:10217000022810D0002010BD02460C4B0C484FF432
:102180007A7100F041F901280446F3D1094B83F834
:10219000D847012010BD054B074801224FF47A7142
:1021A00000F032F90128E5D1F0E700BF404E010808
:1021B0004C4E010830020020684E010810B50C4A50
:1021C0000C4B0D4C0D480E4986B0CDE904320D4A3A
:1021D0000D4BCDE90021CDE9020407224FF47A71BD
:1021E0000A4800F011F90A4B83F8D70706B010BD72
:1021F000A44E0108B84E0108CC4E0108E04E01087B
:10220000F44E0108084F0108844E0108984E010859
:102210003002002030B51B4D87B004464FF4807269
:10222000002128460EF046FF22461749002402A846
:1022300005F80A4C05F8014C45F8124C45F80E4CCF
:1022400045F8234C45F81F4C45F81B4C45F8174CF6
:1022500005F8134C45F8094C45F8054C0EF006FE00
:102260000A4A00920A4B02A8022241F2883100F089
:10227000CBF801280ABF15F88B0C2046C0F34000AC
:1022800007B030BD070900201C4F01082C4701088A
:10229000CC53010830B593B0044602460E4902A85B
:1022A0000EF0E4FD0CAD22460C4906A80EF0DEFD52
:1022B00022460B4928460EF0D9FD009506AB0222B6
:1022C00046F2A81102A800F09FF8A0F10100B0FAB0
:1022D00080F0400913B030BD2C4F01083C4F01087D
:1022E000504F010808B50948094B012241F28831D5
:1022F00000F08AF8012806D1064B93F892060038C0
:1023000018BF012008BD002008BD00BF744F0108A0
:10231000684F01083002002008B50122054B06482D
:102320004FF4FA7100F070F8A0F10100B0FA80F0FB
:10233000400908BDCC530108804F0108F0B595B0A5
:10234000CDE9012304460D4616461F46009103467B
:102350000D4A202104A80EF055FD2346CDE9016762
:102360000A4A009520210CA80EF04CFD0CAB01226E
:102370004FF4FA7104A800F047F8A0F10100B0FA98
:1023800080F0400915B0F0BD8C4F0108A44F010842
:10239000037803B9704710B50446FDF7A9FF02465C
:1023A00021460548642392B20BF068FBBDE810405B
:1023B0000A200BF0EFBC00BF5016002008B5844681
:1023C0000A464FF4C873044861460BF057FBBDE85A
:1023D00008400A200BF0DEBC5016002010B5044661
:1023E00007F0D8FD074B1A880021C3E9C2019818ED
:1023F00040F2FE218A4298BF0132C47098BF1A8011
:1024000010BD00BF300200200CB42DE9F04F4E4E3D
:1024100083B096F8303300AF9A0797F83040824681
:102420000D4606D564200BF0B5FC96F830339B07BB
:10243000F8D407F0AFFD05F132031844C6F84006A2
:1024400020214FF0904008F08DFF00286DD196F8C4
:1024500030334FF0000843F0020386F8303386F83B
:10246000488607F097FD4FEA8409C6F83C064FF40A
:1024700020723648C6F8445641460EF01BFE09F15C
:10248000070303F4FF6307F13402ADEB030D7A6039
:10249000EB468CB1DFF8B4801446ABF1040B9144E9
:1024A00021684BF8041F0434404640227C6090446D
:1024B0000EF027FE4C45F3D12548782251460EF008
:1024C00020FE96F83C33A3B12148FDF711FF0246E8
:1024D0001F492048642392B20BF0D0FA0A200BF077
:1024E00059FC06E00A200BF055FC96F848060A3D18
:1024F000A8B9002DF6DC4FF42072002113480EF02D
:10250000D9FD96F830336FF3410386F8303307F086
:1025100041FD00F1320396F84806C6F840360C3704
:10252000BD46BDE8F04F02B07047002220214FF0B9
:10253000904008F01DFF64200BF02CFC07F02AFDF2
:102540006430C6F8400682E730020020EC05002027
:102550006C050020501600202DE9F84F6648674CA6
:10256000DFF8B4B10EF046FC4FF000080127C14679
:1025700004F2E57594F83033590709D4B4F82E38CD
:1025800033B964200BF006FC94F830335907F5D5C5
:1025900007F000FD41F28833A0EB080098427FD895
:1025A000B4F82E68002E65D1554E4FF0000A01E0B8
:1025B000AE420DD016F8010F0028F9D0FFF72AFE21
:1025C00000283FD1FFF7AEFDAE4286F800A0F1D162
:1025D00094F8DB37002B67D194F84C36DA073BD4FC
:1025E00007F0D8FC94F830134AF6C87211F0010FC6
:1025F00042F21073A0EB090018BF1346984216D997
:1026000094F82B38032B12D00122C8215B463D4899
:10261000FFF7FAFE3C4B3D480122C821FFF7F4FECC
:10262000FFF780FD06F0D4FB07F0B4FC81462021C3
:102630004FF0904008F096FE00283FD005200BF0A8
:10264000A9FB97E764200BF0A5FB3078FFF722FE8B
:1026500064200BF09FFBB5E708226FF300034FF4F3
:10266000FA7084F85A2684F84C360BF093FBFFF787
:10267000E3FCB5E730460CF06BFC32462449824659
:102680000EF04AFE00232348A4F82E380EF0B2FBC9
:102690005046314606F0F0F850460CF061FC83E7F6
:1026A00007F078FC80467BE73846FFF7B3FDB0B90A
:1026B0000137FFB2962F08BF00278DE707F06AFCAD
:1026C000D4F840369842B9D994F830339B06B5D542
:1026D000012220214FF0904008F04AFEAEE764202E
:1026E0000BF058FB3846FFF7D5FD64200BF052FB8A
:1026F000FFF718FDDCE700BFC04F010830020020E3
:102700000B0A0020F44F0108005001080C5001088A
:10271000600A0020D04F0108EC4F0108F8B53A4D8F
:1027200095F830336FF3451385F8303300283ED0E9
:10273000D8B220F0060040F0040085F83003334B97
:1027400033480122C821FFF75FFE01284BD0012248
:10275000114630482D4F2E4E08F00AFE4FF4966079
:102760000BF018FB2B480022012108F001FE40F677
:10277000C4100BF00FFB95F8303343F0040385F8D9
:1027800030330A243B460122C8213046FFF73CFE85
:10279000012804F1FF3335D013F0FF04F2D195F88E
:1027A000303364F3820385F830330120F8BD174BD2
:1027B000044601221648C821FFF726FE01280646D6
:1027C000F3D115480EF016FB95F83013134B14484F
:1027D00064F3820185F8301332464FF4FA61FFF753
:1027E00013FE0120E2E764200BF0D4FA0D480EF04E
:1027F00001FB00F019F895F8303343F0040385F835
:102800003033F8BDC820EFE73002002050500108F7
:102810005C5001080004004884500108CC530108B2
:10282000A45001086450010810B5444B444882B0DC
:102830000122C821FFF7E8FD424B43480122C8218D
:10284000FFF7E2FD414B42480122C821FFF7DCFDC2
:10285000404B41480122C821FFF7D6FD3F4A009274
:102860003F4B40480222C821FFF7CEFD01284ED041
:102870003D4B3E483E4C0122C821FFF7C5FD3D4B74
:102880003D480122C821FFF7BFFD3A4B3B480122DA
:102890004FF47A71FFF7B8FD0220FFF765FC0220C4
:1028A000FFF70AFC00231A46A7211120FFF746FD77
:1028B000FFF784FCFFF7DEFB94F8D937022B22D117
:1028C000FFF710FDFFF728FD94F830132C48009017
:1028D00041F0200184F83013264B2A4802224FF49D
:1028E000FA71FFF791FD284B28480122C821FFF714
:1028F0008BFD204B264801224FF4FA71FFF784FD2F
:10290000012002B010BD0220FFF7D6FBD8E7044635
:102910000246204B2048C821FFF776FD1F4B204878
:1029200022464FF47A71FFF76FFD1E480EF062FAEF
:102930000020FFF7F3FE002002B010BDB4500108E4
:10294000C0500108C8500108DC500108E8500108D7
:10295000FC500108085101081C51010848510108A8
:102960002C5101083C510108785101088C51010893
:1029700030020020CC53010898510108504C010846
:102980002C470108A8510108005001080C5001080B
:10299000BC4C0108585101086C510108185001083D
:1029A000245001082C500108104B93F830335B077A
:1029B00001D40020704710B582B00D4A00920D4B33
:1029C0000D4802224FF47A71FFF71EFD01280446DC
:1029D00005D00A480EF00EFA002002B010BD0848DB
:1029E0000EF008FA204602B010BD00BF30020020F1
:1029F000C4510108CC530108B8510108F051010835
:102A0000D451010810B51F4A92F95616B2F84E3645
:102A10000029ACBF2B202D20002992B0B8BF49421D
:102A2000C9B2069192F85516CDE9041092F85406F1
:102A300092F85316CDE9021092F8520692F8501609
:102A4000114ACDE90010A3F5FA63282108A80EF079
:102A5000D9F90E4A00920E4B02224FF4FA6108A8EF
:102A6000FFF7D2FC012805D00A480EF0C3F9002078
:102A700012B010BD044608480EF0BCF9204612B052
:102A800010BD00BF30020020105201082C47010881
:102A9000CC5301085C52010840520108F0B5234CA8
:102AA0008DB04FF435620646002120460EF002FB41
:102AB00000251F4B009329461E4B01934FF40077CE
:102AC0006846CDE90357ADF808600BF047F91A4B9B
:102AD00018600A200BF05EF9184B06932946184B34
:102AE000079306A80995ADF820600A970BF036F910
:102AF000144B024601250A201A600BF04BF94FF4E3
:102B0000FD632846A4F84E3684F8505684F8525691
:102B1000FFF704FE18B1FEF755FF0DB0F0BD2846D3
:102B2000FFF7FCFDFEF74EFF0DB0F0BD30020020B8
:102B30007C520108592500082C0200208852010807
:102B400021340008280200202DE9F0412DED028BF0
:102B5000C04EC14988B030460EF0E6FA002800F0B9
:102B6000EA822C210EF0AEFA01300CF0ECF996F866
:102B70002D330128A6F103040CBF43F001036FF3CA
:102B8000000384F83033B549B2480EF0CDFA28B1CD
:102B900094F8303343F0100384F83033B049AD4833
:102BA0000EF0C2FA28B194F8303343F0080384F8E9
:102BB0003033AC49A7480EF0B7FA10B1072384F8B8
:102BC0005A36A949A3480EF0AFFA90B122210EF06F
:102BD00079FA451C222128460EF074FA2946421B38
:102BE000A2480EF08EFA94F84C3643F0010384F8B4
:102BF0004C369F4997480EF097FA38B13A210EF0BB
:102C000061FA01300CF09FF984F838039949914832
:102C10000EF08AFA10B33A210EF054FA451C2846F9
:102C20000CF091F92C2128460EF04CFA451C284650
:102C30000CF089F92C210346284684F831330EF034
:102C400041FA01300CF07CF98B4B51EC100B002257
:102C5000FDF73CFEFEF708F8C4F8340387497D48C9
:102C60000EF062FA10B1052384F85A368449794887
:102C70000EF05AFA10B1022384F85A368149754889
:102C80000EF052FA10B1032384F85A367E49714887
:102C90000EF04AFA10B1042384F85A367B496D4885
:102CA0000EF042FA20B194F830335B0700F12E8227
:102CB000774968480EF038FA28B194F84C3643F05A
:102CC000040384F84C36734962480EF02DFAB8B10B
:102CD0003A210EF0F7F98378222B00F1020500F07B
:102CE0000F8228460CF02FF92C210346284684F841
:102CF000DB370EF0E7F901300CF025F984F8DA073C
:102D0000654954480EF010FA054638B194F8D937A1
:102D1000022B00F05083012B00F02B835F494D48BC
:102D20000EF002FA60B12C210EF0CCF9851C2221A4
:102D300028460EF0C7F92946421B59480EF0E1F922
:102D4000584944480EF0F0F9002854D022210EF0E2
:102D5000B9F902220546411C03A80EF0D2F900275A
:102D600003A88DF80E700CF0EEF800F5FA60022260
:102D7000291DA4F84E0603A80EF0C3F903A80CF011
:102D8000E2F80222E91D84F8500603A80EF0B9F912
:102D900003A80CF0D8F8022205F10A0184F85206C3
:102DA00003A80EF0AEF903A80CF0CDF8022205F14D
:102DB0000D0184F8530603A80EF0A3F903A80CF044
:102DC000C2F8022205F1100184F8540603A80EF09F
:102DD00098F903A80CF0B7F805F1120184F855062C
:102DE000032203A80EF08DF903A80CF0ACF8A4F8A8
:102DF000587684F856062C4916480EF095F948B1D5
:102E00002A4B002513F8012F002A00F0A682013575
:102E10000A2DF7D126490F480EF086F9A0B1254DAD
:102E200000232221C6F88F366B60AB60EB602B74F9
:102E30000EF048F9461C222130460EF043F9314687
:102E4000821B28460EF05DF91B4902480EF06CF912
:102E500034E000BF330200200050010898520108FE
:102E6000A8520108B8520108C45201088B0800207A
:102E7000EC4F0108D052010800408F40D8520108A1
:102E8000E4520108F45201080453010814530108E4
:102E900028530108404E01083453010880530108AB
:102EA000AD0800208C530108985301080B0A00203C
:102EB000684F0108C2080020A453010840B19F4A8E
:102EC0000192531E00939E49931E033A0DF0EEFFAC
:102ED0009C499D480EF028F948B19C4A9C490DF048
:102EE000E5FF9A48FDF704FA052800F204819949A4
:102EF00095480EF019F918B1974A98490DF0D6FF88
:102F0000974991480EF010F918B1964A96490DF07C
:102F1000CDFF96498C480EF007F938B1944A0092DB
:102F2000A2F111039349223A0DF0C0FF924986485D
:102F30000EF0FAF818B1914A91490DF0B7FF914996
:102F400081480EF0F1F870B13A210EF0BBF8013073
:102F50000BF0F9FF94F8E637002840F0C78060F3E3
:102F6000000384F8E637884977480EF0DDF810B1A1
:102F7000032384F82B38854973480EF0D5F810B137
:102F8000012384F82B3882496F480EF0CDF810B138
:102F9000012384F82B387F496B480EF0C5F810B137
:102FA000042384F82B387C4967480EF0BDF810B133
:102FB000022384F82B38794963480EF0B5F810B134
:102FC000022384F82B3876495F480EF0ADF810B133
:102FD000002384F82B3873495B480EF0A5F810B134
:102FE000002384F82B38704957480EF09DF810B133
:102FF000022384F82C386D4953480EF095F810B12F
:10300000032384F82C386A494F480EF08DF808B332
:103010002C210EF057F8461C30460BF094FFB0F50B
:10302000407F8CBF4FF4407787B2054680464FF013
:103030003A01304684BFB8463D460EF043F842465A
:10304000411C5C480EF068F95B48A4F82E782946CC
:103050000DF068FE59493C480EF066F8002863D030
:103060003A210EF02FF8451C28460BF06CFFC0B239
:1030700084F8310B002840F0AD80012384F8303B08
:103080004F4931480EF050F810B1022384F8313B1B
:103090004C4E0025F71C96F8BC3306F56F71384688
:1030A00040364BB10EF040F80135EDB2002840F04B
:1030B0005E810A2DEFD1034600254FF44072294668
:1030C000214884F8483625800DF0F4FF94F8303319
:1030D00065F3410384F8303306F05CFF3230C4F806
:1030E000400608B0BDEC028BBDE8F08143F001035F
:1030F00084F8E63737E72044002380F8D236F6E636
:1031000028462C210DF0DEFF451CEAE54FF4356220
:1031100000212C480DF0CEFF4FF4FA600AF03AFE81
:103120000120FFF7FBFAC3E5274907480DF0FCFF34
:10313000002895D1A4E7F41E25E500BFC1080020B2
:10314000B0530108D45301083302002007090020BE
:10315000E0530108F453010840050020FC53010826
:103160000C54010850050020185401082C54010883
:10317000390A0020385401085C5401084A0A00202A
:10318000685401087C5401088854010898540108C7
:10319000A8540108B4540108C8540108DC540108BB
:1031A000E8470108F45401083C4A01080C5501089D
:1031B0001C550108600A0020245501083C550108EF
:1031C0005455010830020020485501088096184BDC
:1031D0000000C8422C2128460DF074FF2C2101303C
:1031E0000DF070FF471C05460422394603A80DF078
:1031F00088FF002603A88DF810600BF0A4FE691D5F
:103200000222A4F8340B03A80DF07BFF03A8ADF84D
:103210000E600BF098FEE91D022284F8360B03A81D
:103220000DF06FFF03A80BF08EFE05F109010222DD
:1032300084F8380B03A80DF064FF03A80BF083FE9D
:1032400005F10B01022284F8390B03A80DF059FF98
:1032500003A80BF078FE05F10D01022284F83A0B69
:1032600003A80DF04EFF03A80BF06DFE032205F13D
:10327000100184F83B0B03A80DF043FF03A80BF0EB
:1032800062FE2C2103463846A4F83E3B84F83C6B92
:103290000DF018FF451C28460BF052FE51EC100BA8
:1032A000FDF7E2FC1FED378A07EE900A67EE887A99
:1032B0002C21FDEEE77A284617EE903AC4F8403B01
:1032C0000DF000FF451C28460BF03AFE51EC100BA8
:1032D000FDF7CAFC07EE900A67EE887A2C21FDEE16
:1032E000E77A284617EE903AC4F8443B0DF0EAFE20
:1032F000451C28460BF024FE51EC100BFDF7B4FCE6
:103300001FED4D7A07EE900A67EE877A0326FDEEF1
:10331000E77A17EE903AC4F8483B28462C210DF086
:10332000D1FE731E13F0FF0600F10105F5D128460A
:103330000BF009FE072684F8320B28462C210DF0ED
:10334000C1FE731E13F0FF0600F10105F5D12846FA
:103350000BF0F9FD84F84C0B8FE62C210DF0B2FE3A
:1033600001300BF0F0FD254485F8DC0752E52B46D3
:10337000A2E64FF48072274800210DF09BFE264AFA
:103380000023C4F8C536C4F8B4365360137242F84B
:10339000053C02F8013C42F80D3CC4F8CE3642F838
:1033A000093C5374C2F80D3094F84C3643F00203D4
:1033B00084F84C36B2E4174F4FF48072002138463F
:1033C0000DF078FEA7F12302A7F112032846A7F11A
:1033D00009010025009101971049C6F8C25647F827
:1033E000055C47F80E5CC6F8B1561D7207F8015C23
:1033F000D5601574C2E90155C6F8CB560DF056FDDF
:10340000042894F84C36D1D065F3410384F84C3647
:1034100084E400BF07090020F5080020405301089C
:1034200008B50F480F4C0DF0E5FC08E094F8303378
:1034300013F0040F0CBF322003200AF0ABFC2388EA
:10344000042BF3D906F0A6FDD4E9C223801A63EB5E
:103450004303152873F10003E8D3FFF775FBE5E795
:103460005C5501083002002010B5074C7F21204632
:1034700007F018FA0A2006F093FD20460349BDE83C
:103480001040052207F080B9C0180020800D0020F0
:10349000234A9FED247A1188538890880B44D18861
:1034A000128903440B4413449BB207EE903AF8EEA2
:1034B000E77A70B567EE877A1B4EFCEEE77AB6F8CE
:1034C000A83007EE103A17EE903A9BB207EE903A0A
:1034D000B8EEC77AF8EE677A77EE677A17EE900A59
:1034E000FDF772F80CA3D3E90023FDF7C5F80446F5
:1034F000B6F8CA000D46FDF755F802460B462046C1
:103500002946FDF7E3F9094B0022FCF7FFFEFDF722
:10351000ABFB00EE100A70BD33333333333311404D
:10352000800D0020CDCC4C3E0075FF1F00003940BF
:1035300010B54FEA400C86B008461FFA8CF19C4645
:10354000022341F28834019305AB029400930123D6
:10355000644608F06BFB28B9BDF8143023800120C5
:1035600006B010BD002006B010BD00BF2DE9F0432D
:10357000838CA3F17602012A87B004D9002738464C
:1035800007B0BDE8F08341F2883202920D4600F1A7
:10359000320259000123CDE90023044689B2806A32
:1035A000D02208F043FB0028E8D194F83230582BA1
:1035B00001D0602BE2D1A18C012742F2107205AE3E
:1035C000B6230292B940019700968DF81430A06A94
:1035D00089B23B46E02208F003FA0028CED141F23E
:1035E0008838A18CA06A009649000123CDE90178B2
:1035F00089B2F32208F01AFB9DF8143003F001039E
:103600000343DBB2002BECD1A18CCDF8088002275C
:10361000490000960197A06A89B20123882208F028
:1036200005FB0028AAD1CDE901780096A18CBDF850
:10363000143023804900A06A89B201238A2208F04D
:10364000F5FA00289AD1CDE901780096A18CBDF851
:10365000143063804900A06A89B201238C2208F0EB
:10366000E5FA00288AD1CDE901780096A18CBDF851
:103670001430A3804900A06A89B201238E2208F089
:10368000D5FA00287FF47AAFCDE901780096A18CB5
:10369000BDF81430E3804900A06A89B2012390226A
:1036A00008F0C4FA00287FF469AFCDE901780096EC
:1036B000A18CBDF8143023814900A06A89B201238E
:1036C000922208F0B3FA00287FF458AFCDE90178D0
:1036D0000096A18CBDF81400608101239940A06A76
:1036E000942289B208F0A2FA00287FF447AFBDF80F
:1036F0001430A381A16AA08C04F10E039622FFF777
:1037000017FF00283FF43AAFA16AA08C04F1100320
:103710009822FFF70DFF00283FF430AFA16AA08C7C
:1037200004F112039A22FFF703FF00283FF426AFAB
:10373000A16AA08C04F114039C22FFF7F9FE002873
:103740003FF41CAFA16AA08C04F116039E22FFF780
:10375000EFFE074600283FF411AF94F83220A38C07
:10376000A06A602A3DD05B00009699B26B786A79B6
:103770009B0043EA42138DF8143042F21072012389
:10378000CDE90132F52208F02BF900287FF4F6AEDE
:1037900095F80080AB78EA78B8F1010F08BF28707F
:1037A0004FEA830343EA421394F8322008BF80466D
:1037B00048EA0308602AA38CA06A5FFA88F87AD0E6
:1037C0005B0042F2107299B20123CDE901320096FA
:1037D000F4228DF8148008F003F900287FF4CEAEAF
:1037E000CDE65B004FF0010899B241F2883904F14F
:1037F00018030093CDE901894346A12208F016FA87
:1038000000287FF4BBAECDF808900096A18C02236F
:10381000019301FA08F1A06A89B24346E12208F057
:1038200005FA00287FF4AAAECDE90189BDF814306D
:10383000A18C638304F11C03009301FA08F1A06AD0
:1038400089B24346E32208F0F1F900287FF496AEEE
:10385000A16AA08C0DF11203E422FFF769FE002893
:103860003FF48CAEA16AA08C3346E522FFF760FEE0
:1038700000283FF483AECDE90189A18C04F1220236
:10388000434600929940A06A89B2E72208F0CEF937
:1038900000287FF473AEBDF81430BDF81220A06A82
:1038A0001B092384130103F47F63C2F30322134330
:1038B000E383A38C57E75B0099B22B798DF8143022
:1038C00042F210720123CDE901320096F22208F093
:1038D00087F800287FF452AEA06AA38C70E700BF7F
:1038E00030B541F2883287B00125818CCDE9015293
:1038F0000DF116030093A940044689B2806A2B4655
:10390000F42208F093F910B1002007B030BD9DF803
:103910001620A18CA06A42F2107322F003022A43FF
:10392000A94002930DF11703CDE900358DF816205B
:103930008DF8172089B22B46F42208F051F80028A0
:10394000E2D1284607B030BD10B5818C806A86B0C0
:1039500001230DF1170241F2883499400092CDE91C
:10396000013489B2F32208F061F910B1002006B0E9
:1039700010BD9DF81700C0F3C00006B010BD00BF19
:103980002DE9F04F044690F832008FB06028884649
:1039900005921E4600F053810BB1002333600623CD
:1039A000002601930CAB0093A18C41F288320123D5
:1039B00002929940A06A89B2F72208F037F90028EC
:1039C00040F039819DF834309DF833209DF8351052
:1039D000B4F90AC09DF8307006971B0143EA023320
:1039E000228843EA1111C2EB131303FB03F5B4F968
:1039F00004302D1303FB05F55200B4F90230C2EB7D
:103A0000D10203FB02F2AD1305EBE22505EB8509BC
:103A100009F180094FEA2929E188B4F90820C8F89A
:103A200000909DF83180CDF81C809DF83280CDF853
:103A30002080B4F91080CDF82480B4F90E80CDF840
:103A40002880A5F5FA3EB4F90C80CDF82C808EFBC9
:103A50000E894FEAEC7B0CFB09FA82FB0E2308FB74
:103A60000BAAACFB08CBD3441B034FEA1C2C43EA44
:103A700012534CEA0B6C12031CEB020C43EB2B238E
:103A800003F50043ACFB01C201FB0321CB174A1035
:103A900053EA610100F08A800899079F090941EA09
:103AA0000711069F41EA07310A9F87FB0EEC099F29
:103AB0004FEA4C4C07FB09F94FEAE77A4CEADE3C47
:103AC00008FB0A9A4FEA4E4EA7FB08981EEB090E18
:103AD000C1F58011C2444AEB0C0A0B9F10EB0E009B
:103AE00001F0004E4EEA510EC907B1EB00080AEB97
:103AF000C70A6EEB0A0E18EB080C4EEB0E011CEB1E
:103B0000080C4EEB010188014FEA8C1940EA9C60D9
:103B10001CEB090C41EB0001890041EA9C714FEA62
:103B20008C0C1CEB080C4EEB01014FEA8C00890059
:103B300010EB080041EA9C714EEB0101FDF7F2F930
:103B4000B4F9162084464FEA5C3E48134EEAC14E53
:103B5000D31702FB00F80EFB0389A2FB0E2802FB21
:103B600000F0C8440EFB0800A2FB0E2E8644520E45
:103B7000B4F9143042EACE1212EB0C0041EB6E6243
:103B800003FB01F14FEAE37E0EFB0C11A3FB0C3C9F
:103B90006144DB0C43EA4133C01842EBE142B4F923
:103BA0001230000A40EA026000EB0310059B186027
:103BB000002E3CD0BDF83630B4F91E2094F9221006
:103BC0005BBA9BB21205C2EB8332B4F92030A5F583
:103BD000963505FB1322237F05FB03F3DB1205FB60
:103BE00001F1891203F5004301FB03F39B12B4F9C1
:103BF0001A1003F5001301FB03F302F5804203F5ED
:103C00000053D2139B1302FB03F3DA13217E02FB52
:103C100002F2D21101FB02F2A3EB221323EAE373B7
:103C2000B3F1C85FA8BF4FF0C8531B133360012026
:103C30000FB0BDE8F08F00200FB0BDE8F08F002B73
:103C40003FF4ADAE0823ACE670B50D4684B0164621
:103C500013B31C4602AA03AB01A9FFF791FE10B9EA
:103C6000002004B070BDDDED017A9FED177AF8EE0B
:103C7000E77AC7EE876A9DED027ADDED037AC5ED3E
:103C8000006ABBEECC7AFBEECB7A86ED007AC4ED0F
:103C9000007A012004B070BD02AA01A9FFF770FEEE
:103CA0000028DDD0DDED017ADFED076AF8EEE77A76
:103CB00087EEA67ADDED027A85ED007AFBEECC7A0E
:103CC000C6ED007AE5E700BF0000C84270B51548B0
:103CD000154E0DF027F8052540F2DC530322D621BE
:103CE000304608F0C1F8044632200AF053F84FF489
:103CF000FA7044B10AF04EF8013DEDD10B480DF0D9
:103D000079F8284670BD0A480DF074F8D623802251
:103D10002E21054805F02AFC01200AF03BF801207D
:103D200070BD00BF705501080018002088550108BB
:103D30000C6E010800B583B0D6230DF106023B21BD
:103D4000044805F0FDFBBDF8060005F08DFC03B04E
:103D50005DF804FB0018002000B583B0D6230DF1F8
:103D600006023D21044805F0EBFBBDF8060005F016
:103D70007BFC03B05DF804FB0018002000B583B0A5
:103D8000D6230DF106023721044805F0D9FBBDF812
:103D9000060005F069FC03B05DF804FB0018002084
:103DA00000B583B0D6230DF106023921044805F091
:103DB000C7FBBDF8060005F057FC03B05DF804FB37
:103DC0000018002000B583B0D6230DF10602312182
:103DD000044805F0B5FBBDF8060005F045FC03B04E
:103DE0005DF804FB0018002000B583B0D6230DF168
:103DF00006023321044805F0A3FBBDF8060005F0D8
:103E000033FC03B05DF804FB0018002000B587B058
:103E100001230DF117024FF4FA71CDE9013100923F
:103E2000D6210022084807F001FF9DF8173003F063
:103E30003F03C3EB431203EB8200400000F6C410C3
:103E400080B207B05DF804FB0018002000B583B015
:103E5000D6230DF106020121064805F071FBBDF8DD
:103E6000060005F001FC00EB8000400080B203B0CA
:103E70005DF804FB0018002000B583B0D6230DF1D7
:103E800006020321064805F05BFBBDF8060005F0BD
:103E9000EBFB00EB8000400080B203B05DF804FB58
:103EA000001800200246D623024802F03F020021FB
:103EB00005F05CBB00180020074B10B5A3FB0030D9
:103EC000C00805F0D1FBBDE810400246D6230348E8
:103ED000012105F05FBB00BFCDCCCCCC0018002089
:103EE000074B10B5A3FB0030C00805F0BDFBBDE8D3
:103EF00010400246D6230348032105F04BBB00BF08
:103F0000CDCCCCCC001800200246D6230148052198
:103F100005F02CBB0018002010B505F0A5FBBDE88E
:103F200010400246D6230248062105F033BB00BFED
:103F3000001800200246D6230148102105F016BBC8
:103F4000001800200246D6230148182105F00EBBB8
:103F50000018002010B50C4C82B0D6230DF10702DA
:103F60001021204605F0D8FA0DF1070001220321A7
:103F700005F026FB9DF80720D6231021204605F0EA
:103F8000F5FA02B010BD00BF0018002030B50C4D8E
:103F900083B0D62304460DF107021521284605F00B
:103FA000BBFA22460DF10700002105F009FB9DF840
:103FB0000720D6231521284605F0D8FA03B030BDD6
:103FC0000018002038B50D4D0D4C2B8822889342E7
:103FD00009D00C49114407D99A1A0B4892B209F03A
:103FE00019F92B88238038BDC2F50062064892B2C9
:103FF00009F010F90023238038BD00BFD20D002046
:10400000D00D0020D40D0020D4160020024B834296
:1040100000D07047FFF7D6BFD4160020F0B5124B82
:10402000124C1F882688101E83B00EDD0139104DFA
:104030000A18334611F801EF05F803E003F1010C0B
:10404000CCF30A038A422380F4D1BE4201D003B0EC
:10405000F0BD084B9B6F212BF9D00190FFF7B2FF09
:10406000019803B0F0BD00BFD00D0020D20D00209C
:10407000D40D0020D416002038B50D4B98420446CC
:1040800003D00C4B9C4207D038BD0B49402209F0AD
:1040900035FE084B9C42F7D1084D2878FEF79EF973
:1040A000294620460122BDE8384009F027BE00BF5E
:1040B000D416002050160020D8150020D41500205A
:1040C00038B50D4B9842044603D00C4B9C4207D0A8
:1040D00038BD0B49402209F011FE084B9C42F7D134
:1040E000084D2878FEF77AF9294620460122BDE8D6
:1040F000384009F003BE00BFD4160020501600203F
:10410000D8150020D4150020F0B5124E3378DBB15D
:10411000114C374645428446BE4605E09CF80130C6
:10412000A3B11EF8013F8C46E25C614602F0030237
:10413000012A11F8012B08BF20339A42EED017F85C
:10414000013F0135002BE6D11846F0BD654401352D
:104150007019F0BD900D002019760108F8B50778A8
:10416000202F08BF4778064608BF0136F7B13D4605
:10417000002404E016F8015F0CEB40043DB1A5F10A
:10418000300C5FFA8CF0092804EB8400F2D92D2F53
:1041900000D16442944201DB9C4204DD04480CF0EF
:1041A00029FE3046F8BD0C603046F8BD3C46F1E7CC
:1041B0009455010870B50478049E202C08BF013086
:1041C000002B26DDC518844603E00A2C09D0AC4537
:1041D0000ED01CF8014BACEB000E0D2C0EF1FF3E87
:1041E000F3D17245F3DDBDE870400D480CF002BE1E
:1041F00001380C46CD1803E00A2B08D0AC4208D099
:1042000010F8013F0D2B224604F8013BF4D10023A6
:1042100013700A4603483146BDE870400CF082BD79
:10422000A0550108AC55010830B52DED028B03787F
:10423000202B83B00446B0EE408AF0EE608A0D4633
:1042400003D114F8013F202BFBD001A920460BF02D
:1042500051FDB4EEC80AF1EE10FA04DBB4EEE80A40
:10426000F1EE10FA07D907480CF0C4FD204603B060
:10427000BDEC028B30BD204685ED000A03B0BDECDD
:10428000028B30BD9455010800B59FED357B83B09E
:10429000354B36488DED007B00220CF043FD344851
:1042A0000CF040FD334B1B78032B06D8DFE803F0FE
:1042B0005450024C30480CF09DFDFFF7E9F810EE29
:1042C000100AFCF781F902460B462C480CF02AFD37
:1042D000FFF730FD01462A480CF024FDFFF74EFDA4
:1042E000014628480CF01EFDFFF75AFD01462648FE
:1042F0000CF018FDFFF730FD014624480CF012FDCC
:10430000FFF760FD014622480CF00CFDFFF76CFD45
:10431000014620480CF006FDFFF778FD01461E48D7
:104320000CF000FDFFF792FD01461C480CF0FAFC72
:10433000FFF7A2FD01461A480CF0F4FC194803B03F
:104340005DF804EB0CF056BD17480CF053FDB4E7D4
:1043500016480CF04FFDB0E715480CF04BFDACE7EC
:10436000000000E0CCCCEC3F0000F03FB855010865
:10437000DC550108CF1B0020F85501081C56010828
:104380003856010848560108585601086856010871
:104390007C5601088C560108A0560108C456010835
:1043A000E8560108106B01080C560108A0500108DE
:1043B000F05501080000000010B59FED3B7B82B076
:1043C0008DED007B3A4B3B483B4C00220CF0AAFCA5
:1043D0003A480CF00FFD3A480CF00CFD39480CF04F
:1043E00009FD39480CF006FD38480CF003FD38484B
:1043F0000CF000FD37480CF0FDFC37480CF0FAFCDF
:1044000036480CF0F7FC20460CF0F4FC34480CF075
:10441000F1FC34480CF0EEFC33480CF0EBFC334874
:104420000CF0E8FC32480CF0E5FC20460CF0E2FC15
:1044300030480CF0DFFC30480CF0DCFC2F480CF06E
:10444000D9FC20460CF0D6FC2D480CF0D3FC2D48AE
:104450000CF0D0FC2C480CF0CDFC2C480CF0CAFC25
:104460002B480CF0C7FC2B480CF0C4FC2A480CF07D
:10447000C1FC2A480CF0BEFC29480CF0BBFC2948C2
:104480000CF0B8FC28480CF0B5FC28480CF0B2FC45
:1044900020460CF0AFFC26480CF0ACFC204602B0E5
:1044A000BDE810400CF0A6BC000000E0CCCCEC3F16
:1044B0000000F03FB8550108106B01080C570108C7
:1044C0001C57010858570108A4570108F85701085C
:1044D0004C58010898580108E85801082459010867
:1044E0005C5901087059010894590108C059010824
:1044F000E4590108085A0108185A0108605A0108CD
:10450000A45A0108B45A0108BC5A0108C85A010843
:10451000FC5A0108205B0108485B0108685B010840
:10452000805B0108B85B0108E05B01081C5C0108C6
:10453000805C01082DE9F047AC4C2DED028B23681F
:104540003F2B86B003D8AA495A1CC85422600A28B7
:1045500004D006B0BDEC028BBDE8F0872368A44D03
:10456000581E00212A5C0D2A18BF1846C0F14002CF
:1045700028440CF09FFD00239E482360FFF7C4FDF4
:104580006B1C834200F0DA809B48FFF7BDFD2E1DB7
:10459000864200F0D3809948FFF7B6FD05F1060882
:1045A000804500F0E3809648FFF7AEFD05F107096E
:1045B000814500F0E2809348FFF7A6FD05F10B046A
:1045C000844200F0C2809048FFF79EFD844200F0D4
:1045D000E6808E48FFF798FD05F10A07874200F054
:1045E000E5808B48FFF790FD874200F0EA8089481C
:1045F000FFF78AFD05F10C0A824500F0E780864846
:10460000FFF782FD844200F047818448FFF77CFD7C
:10461000804508BF012000F0BB808148FFF774FD92
:10462000814500F0B4807F48FFF76EFD874200F0BF
:1046300062827D487D4DFFF767FD854200F07682FE
:104640007B48FFF761FD844200F077827948FFF7ED
:104650005BFD874200F07F827748FFF755FD85427A
:1046600000F080827548FFF74FFD854277D074488F
:10467000FFF74AFD814500F0D7827248FFF744FDFD
:10468000824500F0D8827048FFF73EFD6F4B8342B1
:1046900000F0F5826E48FFF737FD864200F02C816E
:1046A0006C48FFF731FD6C4B984205467FF451AFE3
:1046B0006A48FFF729FD00283FF44BAFA0427FF482
:1046C00048AF67490CF030FD0646002840F04383B0
:1046D000644920460CF028FD002840F05A836249C6
:1046E00020460CF021FD00283FF433AF0B355F4925
:1046F00028460CF019FD0646002840F088835C49E6
:1047000028460CF011FD00283FF423AF594C5A4ABB
:10471000E3795A48022161F3430301211170E371E7
:104720000CF068FB564B1E8003F010F8208906B091
:10473000BDEC028BBDE8F04702F066BF06B0BDECF1
:10474000028BBDE8F047FFF737BE4E480CF052FB36
:1047500006B0BDEC028BBDE8F047FCF77BBE06B0AF
:10476000BDEC028BBDE8F04704F02AB806B0BDEC02
:10477000028BBDE8F047FFF787BD4348A0223821F0
:1047800006B0BDEC028BBDE8F04704F037BF002057
:1047900006B0BDEC028BBDE8F047FDF7BFBF06B029
:1047A000BDEC028BBDE8F047FCF7FCBEFCF780FED9
:1047B0000146364806B0BDEC028BBDE8F0470CF070
:1047C000B1BAFCF71FFE01463148F3E705A943F6ED
:1047D000982300220AF10100FFF7C0FC059B254A3F
:1047E0002C48A2F8053099B2E4E700BF8C0D0020F8
:1047F000900D0020A05C0108A45C0108AC5C0108DD
:10480000B45C0108BC5C0108E45C0108F05C0108D0
:10481000245D0108705D0108905D0108B05D01082C
:10482000B85D0108C05D0108045E0108990D002013
:10483000105E01082C5E0108385E0108605E010808
:104840006C5E0108745E0108AC5E0108980D0020E2
:10485000EC5E0108DC660108950D0020E4660108A5
:10486000EC660108146701083C6701084467010809
:1048700074670108C0190020B619002048670108B4
:1048800018160020C85C0108AC170020FC5C010869
:10489000305D0108805D01082B7BB448202B03D1DB
:1048A00010F8013F202BFBD005A90BF023FAFAEEFC
:1048B000047AB4EEE70AF1EE10FAB0EE408AC0F2E4
:1048C0002D81F2EE047AB4EEE70AF1EE10FA00F26E
:1048D000258110EE100AFBF777FE02460B46A44C2A
:1048E000A44818EE101AC4F8011006B0BDEC028BF3
:1048F000BDE8F0470CF016BA9F48FFF705FC00280A
:1049000040F0A4819D48FFF7FFFB0546002840F0DA
:10491000CF819B48FFF7F8FB0646002840F0DA817C
:104920009848FFF7F1FB002840F0EF819648FFF729
:10493000EBFB0546002840F04A829448FFF7E4FB71
:10494000002840F04D829248FFF7DEFB002840F03F
:1049500087829048FFF7D8FB002840F06E828E488F
:10496000FFF7D2FB002840F08D828C48FFF7CCFB8C
:10497000002840F07E828A48FFF7C6FB10B1A042B3
:1049800000F0CC828748FFF7BFFB10B1B84200F0BF
:104990006D858548FFF7B8FB002800F05F83A042D3
:1049A0007FF4D7AD8148FFF7AFFB70B18049704C01
:1049B0000B78227E7F4842F0010243F00203227608
:1049C0000B700CF017FAFCF71DFD7B48FFF79CFB02
:1049D00070B16749764B0C7E1A7878486FF34102C4
:1049E0006FF300040C761A700CF004FAFCF70AFD61
:1049F0007348FFF789FBF0B10523002205A94FF0AA
:104A0000FF3470480594FFF7A9FB5949684B059C92
:104A1000087E1A7804F00F0565F3440065F38502FB
:104A20000876E0B21A7001F0C9FF214666480CF022
:104A300079F9FCF7E7FC6548FFF766FB044618B117
:104A4000634B984200F05D846248FFF75DFB0446CB
:104A500018B1614B984200F09C846048FFF754FB0A
:104A6000044600283FF475AD5D4B98427FF471AD6C
:104A70005C490CF059FBB8B1F2EE040ABAEE040A34
:104A800005A9E01DFFF7D0FB494B39490598C3F84C
:104A90000F00C1F81D00FBF797FD02460B46524878
:104AA0000CF040F9FCF7AEFC50494D480CF03CFBD3
:104AB00070B13F492E4C8B7A227E4D4842F0400225
:104AC00043F0010322768B720CF094F9FCF79AFC08
:104AD000484943480CF028FB00283FF43AAD2449EC
:104AE000334B0C7E9A7A44486FF386146FF30002BE
:104AF0000C769A72A9E2414A414811460023FCF71C
:104B0000C1FF404A404B014600290CBF11461946DF
:104B10003E480CF007F93E493E484BE63E489FEDC3
:104B20003F8A0CF067F900220023D8E606B0BDECFE
:104B3000028BBDE8F047FCF745BF394844F6A67143
:104B4000FDF720F82F4A304B014600290CBF1146D3
:104B500019462E482EE606B0BDEC028BBDE8F047A4
:104B6000FDF74CB82F48FDF763F8EBE79C0D0020EC
:104B7000C01900209C5D0108F45E0108185F01085F
:104B80003C5F0108805F0108E45F0108FC5F0108E9
:104B90002060010834600108506001086C60010861
:104BA0008860010884610108AC6201089060010816
:104BB000841B0020B4620108B0600108CC620108C7
:104BC000D0600108A00D0020E4620108F86001082F
:104BD000A70D002064630108A10D002044620108B4
:104BE0009F0D002008610108D463010834610108A9
:104BF000F46301085C61010818640108C0560108EB
:104C0000CC5D0108985C0108945C0108D85D01083E
:104C10004A0A0020E85D01089455010800000000E0
:104C20001C5E0108445E010806B0BDEC028BBDE8C5
:104C3000F04704F09FB89A499A4891F84C4B01F517
:104C400034610EC900940CF06DF882E44FF4B46343
:104C50004FF0FF340F2205A90594FFF77FFA059B5B
:104C60000E2B7FF776AC904A90480733A2FB0323C4
:104C7000DB088F4AC3EB031399B213819AE5FDF762
:104C800093FE87498B4891F9562691F8553691F84D
:104C90005446CDE9023291F8532691F85236CDE9C7
:104CA000002491F85026B1F84E160CF03BF850E471
:104CB000FA234FF0FF34012205A90594FFF74EFABD
:104CC000059B002B7FF745AC794A7B4882F83B3047
:104CD000D9B26FE54FF0FF3402232A4605A90594A7
:104CE000FFF73CFA059C002C40F38D80012C00F06E
:104CF0009A80022C00F09B80704B00221A806C4B33
:104D0000DA7964F34302DA7123E403234FF0FF34CA
:104D1000324605A90594FFF721FA059B002BFFF603
:104D200018AC634A92F83C1003F0030363F30101EB
:104D3000022B82F83C1000F0B080032B00F0AB8017
:104D4000012B14BF5E485F4806B0BDEC028BBDE886
:104D5000F0470CF04FB8564C4FF0FF3005A90590C6
:104D60004FF4FA73012205F10A00FFF7F7F9E2792F
:104D70000599554D55482980012363F34302E2719B
:104D8000534A036089B20023524813700BF0CAFFE4
:104D9000CCE44FF0FF3005A905904FF4FA730122DF
:104DA00005F10A00FFF7DAF9494B474A404C0599EB
:104DB0001E70464B118001221A60E3794648022298
:104DC00062F3430389B2E3710BF0ACFFAAE4434BF7
:104DD0000093434930230122FFF7ECF9FFF7B9BBF9
:104DE0004FF6FF734FF0FF342A4605A90594FFF7ED
:104DF000B5F9059B002BFFF6ACAB2D4A3948A2F85C
:104E00007D3099B2D6E438480BF0F4FF77E7284CB0
:104E10002F49E3793548012262F343030A70E371B5
:104E20000BF0E8FF82E432480BF0E4FF64E731481E
:104E30000BF078FF02F08AFC5EE74FF6FF734FF04D
:104E4000FF34002205A90594FFF788F9059B002B84
:104E5000FFF67FAB164A2848A2F8AF3099B2A9E412
:104E6000264B0093264930230122FFF7A3F9FFF7D1
:104E700070BB244B0093244910230122FFF79AF9B9
:104E8000FFF767BB214B0093214910230122FFF755
:104E900091F9FFF75EBB1F4856E71F4854E700BF74
:104EA00030020020845E010889888888005F01083C
:104EB000C0190020B85E0108245F01081816002000
:104EC000905F01089C5F0108B8190020901900202C
:104ED000B6190020F46601081C670108F05F01089C
:104EE0000D1A00200C600108705F01084867010876
:104EF000485F01085C5F0108406001082C60010800
:104F00003F1A002078600108811A00205C600108C7
:104F1000711A0020C85F0108B45F0108B148FFF7AB
:104F2000F3F870B1B049B14A8B7AB14843F001034C
:104F30008B72137843F0020313700BF05BFFFCF7E6
:104F400061FAAC48FFF7E0F870B1A74AA74B917A35
:104F5000A9486FF3000191721A786FF341021A7039
:104F60000BF048FFFCF74EFAA448FFF7CDF8F8B174
:104F70004FF0FF300323002205A90590A048FFF75A
:104F8000EDF89949994B059D8E7A1A7805F00F0036
:104F900060F3850260F344061A708E7204F020FC00
:104FA000984B2946188098480BF0BCFEFCF72AFA6B
:104FB0009648FFF7A9F8054600283FF4E3AC944B68
:104FC00098427FF4DFAC93490CF0AEF8B8B1F2EE42
:104FD000040ABAEE040A05A9E81DFFF725F9834B78
:104FE00081490598C3F80600C1F80B00FBF7ECFAFD
:104FF00002460B4688480BF095FEFCF703FA8749FA
:1050000083480CF091F870B17849774C4B78A27ACC
:10501000834842F0200243F00103A2724B700BF070
:10502000E9FEFCF7EFF97F4979480CF07DF800289C
:105030003FF48FAA6C496D4B8C7A5A787A486FF39B
:1050400045146FF300028C725A700BF0D3FE06B059
:10505000BDEC028BBDE8F047FCF7D4B97348FFF70D
:1050600053F810B1A04200F09E827148FFF74CF84F
:1050700000283FF415ABA0427FF412AB5948FFF76C
:1050800043F880B158486B4990F832200B7842F0D1
:10509000010243F0020380F8322067480B700BF0E6
:1050A000A9FEFCF7AFF95348FFF72EF880B14E493F
:1050B000604B91F832001A786FF300006FF34102F1
:1050C00081F832005D481A700BF094FEFCF79AF9F3
:1050D0004A48FFF719F850B30823002205A94FF0FA
:1050E000FF3547480595FFF739F83F4A059D92F887
:1050F0003210504B05F00F0060F3440182F832107B
:105100001A7860F385021A7001F034F84C4A0346AD
:10511000DBB213704B4A002010704B4A137000F042
:10512000AFFE294649480BF0FDFDFCF76BF9374807
:10513000FEF7EAFF054618B1354B984200F096801D
:105140004348FEF7E1FF054600283FF4A9AA414B7A
:1051500098427FF4A5AA2F490BF0E6FFB8B1DFED26
:105160003E0A9FED3E0A05A9E81DFFF75DF8314BA9
:105170001D490598C3F80F00C1F83700FBF724FA62
:1051800002460B4636480BF0CDFDFCF73BF92349B0
:1051900030480BF0C9FF80B12649134C8B7A94F844
:1051A0003220304842F0400243F0010384F83220BC
:1051B0008B720BF01FFEFCF725F91A4925480BF0FE
:1051C000B3FF00283FF4C5A907491A4B91F83240B4
:1051D0009A7A25486FF386146FF3000281F8324003
:1051E0009A7232E790600108C0190020C01B0020AD
:1051F00098600108B0600108B8600108D06001083B
:10520000A00D0020B2190020D8600108F860010844
:10521000A70D002008610108106101083461010830
:10522000386101085C610108606101083C640108A3
:10523000B0650108481B0020B8650108D065010869
:10524000AE190020B1190020B0190020E86501084E
:1052500064630108A10D00200000FA430000FAC3B6
:105260007466010894660108B86601086C490BF081
:105270005BFFB8B1F2EE040ABAEE040A05A9E81D14
:10528000FEF7D2FF674B68490598C3F83300C1F8B1
:105290000600FBF799F902460B4664480BF042FD05
:1052A000FCF7B0F8624963480BF03EFF80B15D48FF
:1052B0005D4990F832204B7842F0200243F0010320
:1052C00080F832205C484B700BF094FDFCF79AF8A4
:1052D0005A4958480BF028FF00283FF431AF514994
:1052E000514B91F832005A786FF345106FF300027A
:1052F00081F8320052485A700BF07CFDFCF782F8BE
:105300001EE747490BF010FFB8B1F2EE040ABAEEFF
:10531000040A05A9E01DFEF787FF4A4B414905989D
:10532000C3F80600C1F81900FBF74EF902460B4618
:1053300045480BF0F7FCFCF765F83D493D480BF09C
:10534000F3FE70B13F49374C4B78227E3F4842F024
:10535000200243F0010322764B700BF04BFDFCF76B
:1053600051F8364933480BF0DFFE00283FF46CABB0
:105370002C49344B0C7E5A7835486FF300026FF39A
:1053800045140C765A700BF035FDFCF73BF8FFF72F
:105390005BBB23490BF0C8FEB0B1DFED2E0A9FEDD9
:1053A0002E0A05A9E01DFEF73FFF264B1D49059873
:1053B0009861C1F82100FBF707F902460B46274820
:1053C0000BF0B0FCFCF71EF8194925480BF0ACFEB9
:1053D00070B11C49134CCB7C227E224842F08002E3
:1053E00043F001032276CB740BF004FDFCF70AF8BE
:1053F00012491B480BF098FE00283FF42EAB0949D8
:10540000104B0C7EDA7C18486FF300026FF3C71460
:105410000C76DA740BF0EEFCFBF7F4FFFFF71DBB24
:1054200008610108C0190020481B00200866010817
:1054300034610108A70D00202C6601085C61010899
:1054400050660108841B0020F86201081C630108F3
:10545000406301080000FA430000FAC36C630108CE
:10546000A10D00208C630108B0630108A548FEF778
:105470004BFE70B1A448A549C27B0B7842F00102F3
:1054800043F00203C273A2480B700BF0B3FCFBF7AE
:10549000B9FFA048FEF738FE70B19B499B4BC87B13
:1054A0001A786FF300006FF34102C8739A481A70BC
:1054B0000BF0A0FCFBF7A6FF9848FEF725FEE0B135
:1054C0000123002205A94FF0FF3595480595FEF709
:1054D00045FE8D4A0599D57B8C4B01F00F0060F39A
:1054E0004405D5731A788F4D60F385028E481A7083
:1054F00029700BF017FCFBF785FF8C48FEF704FEC4
:10550000054618B18A4B984200F082818948FEF71F
:10551000FBFD054600283FF43CAA874B98427FF4E8
:1055200038AA86490BF000FEB0B1F2EE040ABAEEDA
:10553000040A05A9E81DFEF777FE744B7249059829
:10554000C3F80F004861FBF73FF802460B467C4862
:105550000BF0E8FBFBF756FF7A4977480BF0E4FDC8
:1055600070B16A49684C8B7AE27B774842F040021E
:1055700043F00103E2738B720BF03CFCFBF742FF3C
:1055800072496D480BF0D0FD00283EF4E2AF5E4951
:105590005E4BCC7B9A7A6E486FF386146FF30002F1
:1055A000CC739A7251E55748FEF7AEFD80B156486C
:1055B000684990F825200B7842F0010243F002037D
:1055C00080F8252064480B700BF014FCFBF71AFFE1
:1055D0005048FEF799FD80B14B495E4B91F825008C
:1055E0001A786FF300006FF3410281F825005B48E1
:1055F0001A700BF0FFFBFBF705FF4848FEF784FD30
:10560000E0B10A23002205A94FF0FF355448059563
:10561000FEF7A4FD3C4A059892F825504D4B00F04A
:105620000F0161F3440582F825501A78C0B261F386
:1056300085021A7004F08AFBFBF7E4FE3B48FEF794
:1056400063FD054618B1474B984200F02781464854
:10565000FEF75AFD054618B1444B984200F08E8083
:105660003448FEF751FD054600283FF4FEAC2C4BB4
:1056700098427FF4FAAC31490BF056FDB8B1F2EE26
:10568000040ABAEE040A05A9E81DFEF7CDFD314B68
:105690001D490598C3F80F00C1F82A00FAF794FFD6
:1056A00002460B4632480BF03DFBFBF7ABFE2549AB
:1056B0001B480BF039FD80B12649134C8B7A94F8C6
:1056C00025202C4842F0400243F0010384F82520B5
:1056D0008B720BF08FFBFBF795FE1C4910480BF00B
:1056E00023FD00283EF435AF07491A4B91F82540B9
:1056F0009A7A21486FF386146FF3000281F82540EF
:105700009A72A2E490600108C0190020A81B002032
:105710008C610108B0600108A4610108D060010833
:105720009F0D0020AC190020BC610108F860010841
:10573000A60D0020446201089E0D002008610108AA
:105740004C620108346101086C6201085C61010867
:105750008C620108601B0020446401085C6401083D
:10576000A00D0020A70D002064630108A10D0020FA
:1057700048650108686501088C6501086D490BF0F2
:10578000D3FCB0B1DFED6C0A9FED6C0A05A9E81DF2
:10579000FEF74AFD6A4B6B490598C3F82E008861F5
:1057A000FAF712FF02460B4667480BF0BBFAFBF70D
:1057B00029FE664966480BF0B7FC80B16048614934
:1057C00090F82520CB7C42F0800243F0010380F862
:1057D00025206048CB740BF00DFBFBF713FE5E49F0
:1057E0005B480BF0A1FC00283FF43AAF5449554BFD
:1057F00091F82500DA7C6FF3C7106FF3000281F88F
:1058000025005648DA740BF0F5FAFBF7FBFD27E7A5
:1058100048490BF089FCB0B1F2EE040ABAEE040A72
:1058200005A9E81DFEF700FD454B4D490598186197
:10583000C1F80600FAF7C8FE02460B4649480BF0CD
:1058400071FAFBF7DFFD414947480BF06DFC70B181
:105850003B484349C27B4B7842F0200243F00103AE
:10586000C27342484B700BF0C5FAFBF7CBFD3A49C7
:105870003D480BF059FC00283FF448AE3049384B06
:10588000C87B5A786FF345106FF30002C87338482D
:105890005A700BF0AFFAFBF7B5FD37E625490BF070
:1058A00043FCB8B1F2EE040ABAEE040A05A9E81DF9
:1058B000FEF7BAFC224B23490598C3F82600C1F82D
:1058C0000600FAF781FE02460B462A480BF02AFA38
:1058D000FBF798FD1D4928480BF026FC80B11848BD
:1058E000184990F825204B7842F0200243F001033C
:1058F00080F8252021484B700BF07CFAFBF782FDE5
:1059000015491D480BF010FC00283FF4A0AE0C49CF
:105910000C4B91F825005A786FF345106FF3000295
:1059200081F8250016485A700BF064FAFBF76AFDFF
:105930008DE600BF086101080000FA430000FAC3C9
:10594000C0190020601B0020E064010834610108D8
:10595000A10D0020006501085C61010824650108B3
:10596000A81B0020DC610108A60D0020FC610108D5
:105970002062010874640108A70D002098640108E2
:10598000BC640108154AB2F85A302DE9F041B2F86A
:105990005840134E9BB2E41A32884034A41A634232
:1059A00003F03F0304F03F0458BF5C42A4B294B13B
:1059B00000250C4FA84600E03288B85C531C9BB20F
:1059C0003F2B05F10105338088BFA6F80080FEF764
:1059D000B1FDA542F0D1BDE8F08100BFD416002092
:1059E000D6150020D8150020084B9A6A22F4805260
:1059F0009A629A6C42F480529A649B6C82B003F46F
:105A000080530193019B002002B0704700100240B8
:105A100010B582B003F02CFE124896230322EE212B
:105A200006F022FA0446642008F0B4F9B4B9EE2373
:105A30000C480DF107020D2103F06EFD9DF80730B3
:105A4000102B05D008480BF0D5F9002002B010BD8E
:105A500006480BF0CFF9012002B010BD04480BF04E
:105A6000C9F9F2E7AC1700208467010878670108DC
:105A70009067010800B58BB003F0FAFD05ABFA2181
:105A80001222CDE90121009310220123EE21354895
:105A900006F0CCF89DF815209DF814309DF81600FE
:105AA000110941EA03111202DB0902F470622E4B64
:105AB00018BFA1F5805110434908D20A9DF818205B
:105AC00019600CBF5860A0F580519DF8170018BFF1
:105AD000596012019DF8191042EA003242EA111091
