:020000040800F2
:1000000000000120614C0008494000084F400008F2
:10001000554000085B4000086140000800000000F7
:100020000000000000000000000000006740000821
:10003000754000080000000083400008914000085F
:10004000B14C0008B14C0008B14C0008B14C00089C
:10005000B14C0008B14C0008B14C0008B14C00088C
:10006000B14C0008B14C0008B14C0008A140000898
:10007000B14C0008B14C0008B14C0008B14C00086C
:10008000B14C0008B14C0008B14C0008B14C00085C
:10009000B14C0008B14C0008B14C0008B14C00084C
:1000A000B14C0008B14C0008B14C0008B14C00083C
:1000B000B14C00080000000000000000B14C000836
:1000C000B14C0008B14C0008B14C0008B14C00081C
:1000D000B14C0008B5400008C9400008B14C000808
:1000E000B14C0008B14C0008000000000000000006
:1000F0000000000000000000000000000000000000
:1001000000000000B14C000800000000B14C0008E5
:100110000000000000000000B14C0008B14C0008D5
:10012000B14C0008B14C0008B14C0008B14C0008BB
:10013000B14C0008000000000000000000000000BA
:10014000B14C0008B14C0008B14C000800000000A0
:10015000B14C0008B14C0008B14C0008B14C00088B
:10016000B14C0008B14C0008B14C00080000000080
:10017000B14C0008B14C0008000000000000000075
:0C018000B14C0008B14C0008B14C000864
:1001900010B5054C237833B9044B13B10448AFF3C1
:1001A00000800123237010BDF80100200000000032
:1001B00014FE000808B5034B1BB103490348AFF315
:1001C000008008BD00000000FC01002014FE0008B3
:1001D00001F0FF01102A2BDB10F0070F08D010F8F8
:1001E000013B013A8B422DD010F0070F42B3F6D1FC
:1001F000F0B441EA012141EA014122F007047FF015
:1002000000070023F0E80256083C85EA010586EA6B
:10021000010685FA47F5A3FA87F586FA47F6A5FAA7
:1002200087F68EB9EED1F0BC01F0FF0102F00702B3
:1002300032B110F8013B013A83EA010313B1F8D15E
:100240000020704701387047002D06BF354603383F
:10025000073815F0010F07D1013015F4807F02BF78
:10026000013015F4C03F0130F0BC0138704700BFC9
:10027000034613F8012B002AFBD1181A01387047E6
:1002800081F0004102E000BF83F0004330B54FEA47
:1002900041044FEA430594EA050F08BF90EA020FB4
:1002A0001FBF54EA000C55EA020C7FEA645C7FEA47
:1002B000655C00F0E2804FEA5454D4EB5555B8BF6A
:1002C0006D420CDD2C4480EA020281EA030382EADB
:1002D000000083EA010180EA020281EA0303362D6D
:1002E00088BF30BD11F0004F4FEA01314FF4801C40
:1002F0004CEA113102D0404261EB410113F0004F52
:100300004FEA03334CEA133302D0524263EB430308
:1003100094EA050F00F0A780A4F10104D5F1200EA6
:100320000DDB02FA0EFC22FA05F2801841F1000101
:1003300003FA0EF2801843FA05F359410EE0A5F1D5
:1003400020050EF1200E012A03FA0EFC28BF4CF006
:10035000020C43FA05F3C01851EBE37101F00045BC
:1003600007D54FF0000EDCF1000C7EEB00006EEBC9
:100370000101B1F5801F1BD3B1F5001F0CD3490853
:100380005FEA30004FEA3C0C04F101044FEA4452AA
:1003900012F5800F80F09A80BCF1004F08BF5FEA31
:1003A000500C50F1000041EB045141EA050130BD11
:1003B0005FEA4C0C404141EB0101013C28BFB1F523
:1003C000801FE9D291F0000F04BF01460020B1FA6E
:1003D00081F308BF2033A3F10B03B3F120020CDA41
:1003E0000C3208DD02F1140CC2F10C0201FA0CF01F
:1003F00021FA02F10CE002F11402D8BFC2F1200C84
:1004000001FA02F120FA0CFCDCBF41EA0C01904039
:10041000E41AA2BF01EB0451294330BD6FEA040482
:100420001F3C1CDA0C340EDC04F11404C4F120026D
:1004300020FA04F001FA02F340EA030021FA04F37F
:1004400045EA030130BDC4F10C04C4F1200220FAD6
:1004500002F001FA04F340EA0300294630BD21FA14
:1004600004F0294630BD94F0000F83F4801306BFDA
:1004700081F480110134013D4EE77FEA645C18BFCE
:100480007FEA655C29D094EA050F08BF90EA020F65
:1004900005D054EA000C04BF1946104630BD91EA5D
:1004A000030F1EBF0021002030BD5FEA545C05D160
:1004B0004000494128BF41F0004130BD14F580049F
:1004C0003CBF01F5801130BD01F0004545F0FE4113
:1004D00041F470014FF0000030BD7FEA645C1ABF48
:1004E000194610467FEA655C1CBF0B46024650EA7F
:1004F000013406BF52EA033591EA030F41F40021AB
:1005000030BD00BF90F0000F04BF0021704730B530
:100510004FF4806404F132044FF000054FF0000105
:1005200050E700BF90F0000F04BF0021704730B5C6
:100530004FF4806404F1320410F0004548BF40429B
:100540004FF000013EE700BF42004FEAE2014FEAF0
:1005500031014FEA02701FBF12F07F4393F07F4FCB
:1005600081F06051704732F07F4208BF704793F0CE
:100570007F4F04BF41F40021704730B54FF46074E1
:1005800001F0004521F000411CE700BF50EA0102E4
:1005900008BF704730B54FF000050AE050EA01028D
:1005A00008BF704730B511F0004502D5404261EBFD
:1005B00041014FF4806404F132045FEA915C3FF43E
:1005C000D8AE4FF003025FEADC0C18BF03325FEADB
:1005D000DC0C18BF033202EBDC02C2F1200300FA8C
:1005E00003FC20FA02F001FA03FE40EA0E0021FAB1
:1005F00002F11444BDE600BF70B54FF0FF0C4CF49F
:10060000E06C1CEA11541DBF1CEA135594EA0C0F50
:1006100095EA0C0F00F0DEF82C4481EA030621EA8B
:100620004C5123EA4C5350EA013518BF52EA0335C6
:1006300041F4801143F4801338D0A0FB02CE4FF078
:100640000005E1FB02E506F00042E0FB03E54FF0A8
:100650000006E1FB03569CF0000F18BF4EF0010EA0
:10066000A4F1FF04B6F5007F64F5407404D25FEA9C
:100670004E0E6D4146EB060642EAC62141EA55514F
:100680004FEAC52040EA5E504FEACE2EB4F1FD0C91
:1006900088BFBCF5E06F1ED8BEF1004F08BF5FEA0F
:1006A000500E50F1000041EB045170BD06F00046C1
:1006B00046EA010140EA020081EA0301B4EB5C046E
:1006C000C2BFD4EB0C0541EA045170BD41F4801166
:1006D0004FF0000E013C00F3AB8014F1360FDEBF8B
:1006E000002001F0004170BDC4F10004203C35DA67
:1006F0000C341BDC04F11404C4F1200500FA05F3EA
:1007000020FA04F001FA05F240EA020001F000428A
:1007100021F0004110EBD37021FA04F642EB060100
:100720005EEA430E08BF20EAD37070BDC4F10C042A
:10073000C4F1200500FA04F320FA05F001FA04F2EE
:1007400040EA020001F0004110EBD37041F10001DA
:100750005EEA430E08BF20EAD37070BDC4F12005E5
:1007600000FA05F24EEA020E20FA04F301FA05F24D
:1007700043EA020321FA04F001F0004121FA04F2F5
:1007800020EA020000EBD3705EEA430E08BF20EAC5
:10079000D37070BD94F0000F0FD101F000464000FF
:1007A00041EB010111F4801F08BF013CF7D041EA81
:1007B000060195F0000F18BF704703F00046520085
:1007C00043EB030313F4801F08BF013DF7D043EA56
:1007D0000603704794EA0C0F0CEA135518BF95EA0C
:1007E0000C0F0CD050EA410618BF52EA4306D1D193
:1007F00081EA030101F000414FF0000070BD50EAB2
:10080000410606BF1046194652EA430619D094EA3B
:100810000C0F02D150EA013613D195EA0C0F05D125
:1008200052EA03361CBF104619460AD181EA030179
:1008300001F0004141F0FE4141F470014FF0000031
:1008400070BD41F0FE4141F4780170BD70B54FF0CC
:10085000FF0C4CF4E06C1CEA11541DBF1CEA13554C
:1008600094EA0C0F95EA0C0F00F0A7F8A4EB05042E
:1008700081EA030E52EA03354FEA013100F0888025
:100880004FEA03334FF0805545EA131343EA1263EE
:100890004FEA022245EA111545EA10654FEA0026A3
:1008A0000EF000419D4208BF964244F1FD0404F55C
:1008B000407402D25B084FEA3202B61A65EB0305B8
:1008C0005B084FEA32024FF480104FF4002CB6EB75
:1008D000020E75EB030E22BFB61A754640EA0C00F5
:1008E0005B084FEA3202B6EB020E75EB030E22BF35
:1008F000B61A754640EA5C005B084FEA3202B6EB76
:10090000020E75EB030E22BFB61A754640EA9C0034
:100910005B084FEA3202B6EB020E75EB030E22BF04
:10092000B61A754640EADC0055EA060E18D04FEAC2
:10093000051545EA16754FEA06164FEAC30343EA62
:1009400052734FEAC2025FEA1C1CC0D111F4801F2F
:100950000BD141EA00014FF000004FF0004CB6E728
:1009600011F4801F04BF01430020B4F1FD0C88BFC7
:10097000BCF5E06F3FF6AFAEB5EB030C04BFB6EBD2
:10098000020C5FEA500C50F1000041EB045170BDC5
:100990000EF0004E4EEA113114EB5C04C2BFD4EBF2
:1009A0000C0541EA045170BD41F480114FF0000E76
:1009B000013C90E645EA060E8DE60CEA135594EAF2
:1009C0000C0F08BF95EA0C0F3FF43BAF94EA0C0FF5
:1009D0000AD150EA01347FF434AF95EA0C0F7FF46A
:1009E00025AF104619462CE795EA0C0F06D152EABE
:1009F00003353FF4FDAE1046194622E750EA4106A2
:100A000018BF52EA43067FF4C5AE50EA41047FF4B2
:100A10000DAF52EA43057FF4EBAE12E74FF0FF3C17
:100A200006E000BF4FF0010C02E000BF4FF0010CE8
:100A30004DF804CD4FEA410C7FEA6C5C4FEA430C61
:100A400018BF7FEA6C5C1BD001B050EA410C0CBFB0
:100A500052EA430C91EA030F02BF90EA020F002012
:100A6000704710F1000F91EA030F58BF994208BF79
:100A700090422CBFD8176FEAE37040F00100704736
:100A80004FEA410C7FEA6C5C02D150EA013C07D18D
:100A90004FEA430C7FEA6C5CD6D152EA033CD3D0D8
:100AA0005DF8040B704700BF8446104662468C46D2
:100AB0001946634600E000BF01B5FFF7B7FF002805
:100AC00048BF10F1000F01BD4DF808EDFFF7F4FF2E
:100AD0000CBF012000205DF808FB00BF4DF808EDB9
:100AE000FFF7EAFF34BF012000205DF808FB00BFDC
:100AF0004DF808EDFFF7E0FF94BF012000205DF8FE
:100B000008FB00BF4DF808EDFFF7CEFF94BF0120B2
:100B100000205DF808FB00BF4DF808EDFFF7C4FFAB
:100B200034BF012000205DF808FB00BF4FEA410CF4
:100B30007FEA6C5C02D150EA013C0AD14FEA430CD7
:100B40007FEA6C5C02D152EA033C02D14FF0000014
:100B500070474FF0010070474FEA410212F5001252
:100B600015D211D56FF47873B3EB625212D94FEAF4
:100B7000C12343F0004343EA505311F0004F23FADE
:100B800002F018BF404270474FF00000704750EA33
:100B9000013005D111F0004008BF6FF000407047F0
:100BA0004FF00000704700BF4A0011D212F500124A
:100BB00011D20DD56FF47873B3EB62520ED44FEAB5
:100BC000C12343F0004343EA505323FA02F0704735
:100BD0004FF00000704750EA013002D14FF0FF3073
:100BE00070474FF0000070474FEA4102B2F1E04316
:100BF00024BFB3F5001CDCF1FE5C0DD901F0004C04
:100C00004FEAC0024CEA5070B2F1004F40EB830053
:100C100008BF20F00100704711F0804F21D113F17F
:100C20003872BCBF01F00040704741F480114FEAB8
:100C30005252C2F11802C2F1200C10FA0CF320FA41
:100C400002F018BF40F001004FEAC1234FEAD3235E
:100C500003FA0CFC40EA0C0023FA02F34FEA4303C8
:100C6000CCE77FEA625307D150EA01331EBF4FF051
:100C7000FE4040F44000704701F0004040F0FE406C
:100C800040F40000704700BF53B94AB9002908BFBB
:100C900000281CBF4FF0FF314FF0FF3000F0A6B925
:100CA000ADF1080C6DE904CE00F03CF8DDF804E08D
:100CB000DDE9022304B0704738B500220023044662
:100CC0000D46FFF70BFF28B920462946BDE83840FE
:100CD00000F00AB8204605F1004100F005F8404256
:100CE00061EB410138BD00BFD0B50C4B0022064678
:100CF0000F46FFF781FCFFF757FF0446FFF702FCA2
:100D0000074B0022FFF778FC02460B463046394677
:100D1000FFF7BAFAFFF748FF2146D0BD0000F03DCB
:100D20000000F0412DE9F047089E0D4604460F46AD
:100D3000002B4AD18A42944665D9B2FA82F343B174
:100D400002FA03FCC3F120029F4020FA02F217438B
:100D50009C404FEA1C4E1FFA8CF5B7FBFEF1220CAB
:100D60000EFB117742EA074201FB05F090420AD9D7
:100D70001CEB020201F1FF3780F01C81904240F22F
:100D8000198102396244121AA4B2B2FBFEF00EFBC2
:100D9000102244EA024400FB05F5A5420AD91CEBE7
:100DA000040400F1FF3280F00781A54240F2048183
:100DB0006444023840EA0140641B00211EB1DC405B
:100DC0000023C6E90043BDE8F0878B4208D9002E16
:100DD00000F0ED800021C6E900050846BDE8F08777
:100DE000B3FA83F1002949D1AB4202D3824200F227
:100DF000F880841A65EB030201201746002EE2D02A
:100E0000C6E90047DFE702B9FFDEB2FA82F3002B42
:100E100040F090808A1A4FEA1C471FFA8CFE01218D
:100E2000B2FBF7F507FB1520220C42EA00420EFB4D
:100E300005F0904208D91CEB020205F1FF3802D2FE
:100E4000904200F2CB804546121AA4B2B2FBF7F0F2
:100E500007FB102244EA02440EFB00FEA64508D917
:100E60001CEB040400F1FF3202D2A64500F2BB8065
:100E70001046A4EB0E0440EA05409FE7C1F12007AD
:100E80008B4022FA07FC4CEA030C05FA01F420FA25
:100E900007F3FD404FEA1C492343B5FBF9F81FFA5D
:100EA0008CFE09FB18551C0C44EA054408FB0EF5A2
:100EB000A54202FA01F200FA01F00BD91CEB04047E
:100EC00008F1FF3A80F08880A54240F28580A8F1C1
:100ED00002086444641B9DB2B4FBF9F309FB13449C
:100EE00045EA044403FB0EFEA64508D91CEB0404A6
:100EF00003F1FF356CD2A6456AD9023B644443EA4C
:100F00000843A3FB0295A4EB0E04AC42C846AE46D0
:100F100056D353D056B1B0EB080264EB0E0404FA7A
:100F200007F7CA40CC401743C6E9007418460021B1
:100F3000BDE8F087C3F1200102FA03FC20FA01F2B8
:100F400025FA01F19D402A434FEA1C471FFA8CFE07
:100F5000B1FBF7F007FB1015110C41EA054100FB4E
:100F60000EF58D4204FA03F408D91CEB010100F1DF
:100F7000FF382FD28D422DD902386144491B92B2DD
:100F8000B1FBF7F507FB151142EA014205FB0EF133
:100F9000914208D91CEB020205F1FF3816D29142AA
:100FA00014D9023D6244521A45EA004138E73146FD
:100FB000304608E73946E6E61046FBE64845A9D242
:100FC000B9EB020865EB0C0E013BA3E74546EAE7E7
:100FD0002B4694E74046D1E7D0467BE7023D62448A
:100FE00032E708460AE76444023842E7704700BF28
:100FF00080B485B000AF03460A46FB8013467B7180
:10100000FB881B0A9BB2DAB27B795340FB73FB7BF4
:101010001B09DAB2FB7B5340FB73FB881B021AB23D
:10102000FB7B9BB21B039BB21BB253401AB2FB7BF0
:101030009BB25B019BB21BB253401AB2FB7B1BB24B
:1010400053401BB2FB80FB8818461437BD465DF841
:10105000047B704780B584B000AF144B4FF0FF3273
:1010600083F838204FF0FF3283F839200F4BFB60B4
:101070004FF6FF737B8100237B600DE0FB685A1CF9
:10108000FA601A787B8911461846FFF7B1FF0346CC
:101090007B817B6801337B607B68372BEED9034B08
:1010A0007A891A8700BF1037BD4680BD7C080020B2
:1010B00080B58EB000AFF860B9607A6000237B61C4
:1010C00005F046FE2F4B9B692E4A43F04043936147
:1010D0002C4B4CF2FA321A610023BB610123FB61F5
:1010E000FB683B6201237B6207F1140207F11803DE
:1010F0001146184605F012FF0346002B08D005F0F4
:1011000049FEFB68194620480CF0D8F9002335E069
:10111000FB68DB02FB60FB6803F10063FB600023FC
:101120007B6322E0BB68D3E90023C7E90A23BB68DD
:101130000833BB607B6BDA00FB68D118D7E90A2360
:10114000002005F099FD0346002B0BD005F022FE90
:101150007B6BDA00FB68134419460C480CF0AEF9BF
:1011600001230BE07B6B01337B637B68DB0801337E
:101170007A6B9A42D6D305F00DFE00231846383715
:10118000BD4680BD0020024030FE000844FE00083D
:1011900080B487B000AFF860B9607A60FB6803F193
:1011A00000637B6100233B610AE07B695A1C7A6122
:1011B000B9683A690A441B7813703B6901333B6193
:1011C0003A697B689A42F0D300BF00BF1C37BD4626
:1011D0005DF8047B704780B586B000AFF860B960F9
:1011E0007A60FB6803F00103FB60FB687E33FB6001
:1011F00000233B610CE07A68B968F868FFF758FF94
:101200000346FB75FB7D002B06D03B6901333B6138
:101210003B69032BEFDD00E000BFFB7D184618376C
:10122000BD4680BD80B584B000AFF860B9607A601B
:10123000FB6803F00103FB60FB68DB02FB60FB68FB
:1012400003F57C33FB607A68B968F868FFF7A0FFA4
:1012500000BF1037BD4680BD80B582B000AF00230F
:10126000FB71154B93F8382093F839301B02134368
:10127000BB80FFF7EFFE104B1B8F9BB2BA889A42E0
:1012800015D00D4B3B603A2239680020FFF7A3FFD1
:101290000346FB713A2239680120FFF79CFF0346A1
:1012A0001A46FB791343FB71FB790133FB71FB7920
:1012B00018460837BD4680BD7C08002080B500AFC9
:1012C0003A2200212B480CF03FFA2A4B002242F030
:1012D00001021A7000225A70264B0233264A1A6005
:1012E000244B002262F01B029A71002242F00C0291
:1012F000DA71204B4FF000029A601E4B4FF0000253
:10130000DA601C4B4FF000021A611A4B4FF00002DA
:101310005A61184B4FF000029A61164B4FF00002D1
:10132000DA61144B4FF000021A62124B4FF00002C8
:101330005A62104B4FF000029A620E4B4FF00002BF
:10134000DA620C4B4FF000021A630A4B002283F85A
:101350003420084B002283F83520064B002283F806
:101360003620044B002283F83720FFF773FE00BFBE
:1013700080BD00BF7C08002017D94E3D80B586B0E7
:1013800000AF00237B613A233B60524B3B613A68DC
:1013900039690020FFF746FF4FF6FF73FB810023FA
:1013A000BB600DE03B695A1C3A611A78FB89114613
:1013B0001846FFF71DFE0346FB81BB680133BB6087
:1013C0003B689A1EBB689A42ECD8424B1B8F9BB27B
:1013D000FA899A4203D17B6943F001037B613D4B5B
:1013E0003B613A6839690120FFF71CFF4FF6FF7334
:1013F000FB8100237B600DE03B695A1C3A611A783F
:10140000FB8911461846FFF7F3FD0346FB817B6815
:1014100001337B603B689A1E7B689A42ECD82D4B67
:101420001B8F9BB2FA899A4203D17B6943F0020376
:101430007B61284B1B889BB2012B01D000237B6171
:10144000244B3B617B69022B2DD07B69022B3CD85E
:101450007B69002B03D07B69012B10D035E0FFF7AF
:101460002DFF1D480CF090F8FFF7F6FE03467B6158
:101470007B69012B01D9032328E0022326E03A6887
:1014800039690020FFF7CEFE14480CF07DF83A6869
:1014900039690120FFF79FFE03467B617B69002BC2
:1014A00010D0032312E03A6839690020FFF793FE59
:1014B00003467B610A480CF067F87B69002B03D078
:1014C000032303E000BF00E000BF002318461837E5
:1014D000BD4680BD7C08002060FE000888FE000834
:1014E000B8FE000880B500AF58480CF04DF8584BD6
:1014F0001B889BB2194657480BF0E0FF544BD3F8BA
:1015000002301846FFF720F802460B4652480BF00F
:10151000D5FF4F4BDB889BB2194650480BF0CEFFEE
:101520004B4B9B681846FFF70FF802460B464C489A
:101530000BF0C4FF464BDB681846FFF705F8024680
:101540000B4648480BF0BAFF414B1B691846FEF7A3
:10155000FBFF02460B4644480BF0B0FF3C4B5B6977
:101560001846FEF7F1FF02460B4640480BF0A6FF77
:10157000374B9B691846FEF7E7FF02460B463C488F
:101580000BF09CFF324BDB691846FEF7DDFF02468D
:101590000B4638480BF092FF2D4B1B6A1846FEF79E
:1015A000D3FF02460B4634480BF088FF284B5B6A9A
:1015B0001846FEF7C9FF02460B4630480BF07EFF87
:1015C000234B9B6A1846FEF7BFFF02460B462C488A
:1015D0000BF074FF1E4BDB6A1846FEF7B5FF0246A0
:1015E0000B4628480BF06AFF194B1B6B1846FEF799
:1015F000ABFF02460B4624480BF060FF144B93F8F8
:101600003430194621480BF059FF114B93F835300F
:1016100019461F480BF052FF0D4B93F83630194610
:101620001C480BF04BFF0A4B93F8373019461A4809
:101630000BF044FF064B1B8F9BB2194617480BF06B
:101640003DFF02480BF0A0FF00BF80BDE8FE000890
:101650007C0800200CFF000824FF00083CFF000865
:1016600054FF000870FF000888FF0008A0FF000872
:10167000BCFF0008D8FF0008F4FF000810000108B4
:101680002C000108480001086400010884000108DA
:10169000A0000108B8000108D4000108F00001080A
:1016A00080B500AF7F21064804F0FAFC0A2003F061
:1016B00075FB05220349024803F0CAFE00BF80BD46
:1016C0009404002014020020B0B584B000AF0023C1
:1016D000FB81334B1B887B81324B1B883B81002372
:1016E0007B730AE07B7B304A32F813309AB2FB8975
:1016F0001344FB817B7B01337B737B7B042BF1D910
:10170000FB8907EE903AF8EEE77A9FED287A67EECC
:10171000877AFCEEE77A17EE903AFB817B8907EE39
:10172000903AB8EEE77AFB8907EE903AF8EE677ADE
:1017300077EE677A17EE900AFEF706FF16A3D3E955
:101740000023FEF759FF02460B4614461D463B890F
:101750001846FEF7E7FE02460B4620462946FFF7ED
:1017600075F802460B46104619464FF00002104B22
:10177000FEF78CFD02460B4610461946FFF734FA79
:1017800003467B607B6807EE903AB0EE670A10373D
:10179000BD46B0BDAFF30080333333333333114034
:1017A000A875FF1FCA75FF1F14020020CDCC4C3E48
:1017B0000000394080B58AB004AFF8600B467A600B
:1017C000FB72FB689B8C5B00FB82FB68986AFB7A70
:1017D0009AB2F98A41F2883302930223019307F106
:1017E00014030093012306F011FA0346002B0BD1DA
:1017F0007B7D1B021AB23B7D1BB213431BB29AB214
:101800007B681A80012300E0002318461837BD4684
:1018100080BD90B58BB004AFF8607A601A460B4675
:10182000FB721346BB72FB689B8C5B00FB82FB6800
:10183000986AFB7A9AB2BB7A9BB2F98A41F28834F1
:10184000029401937B680093012306F0DFF90346BD
:10185000002B01D1002300E0012318461C37BD46B0
:1018600090BD80B582B000AF78607B681A46882151
:101870007868FFF79FFF0346002B6FD07B68023329
:101880001A468A217868FFF795FF0346002B65D03A
:101890007B6804331A468C217868FFF78BFF034678
:1018A000002B5BD07B6806331A468E217868FFF7E1
:1018B00081FF0346002B51D07B6808331A469021E4
:1018C0007868FFF777FF0346002B47D07B680A3321
:1018D0001A4692217868FFF76DFF0346002B3DD032
:1018E0007B680C331A4694217868FFF763FF034640
:1018F000002B33D07B680E331A4696217868FFF7A9
:1019000059FF0346002B29D07B6810331A469821D3
:101910007868FFF74FFF0346002B1FD07B68123318
:101920001A469A217868FFF745FF0346002B15D029
:101930007B6814331A469C217868FFF73BFF034607
:10194000002B0BD07B6816331A469E217868FFF770
:1019500031FF0346002B01D0012300E0002318468D
:101960000837BD4680BD80B584B000AF78607B6825
:1019700003F118020123A1217868FFF74AFF03460B
:10198000002B4BD17B681A331A46E1217868FFF7A8
:1019900011FF0346002B41D07B6803F11C02012399
:1019A000E3217868FFF735FF0346002B36D107F1B6
:1019B0000E031A46E4217868FFF7FCFE0346002B6D
:1019C0002CD007F10C031A46E5217868FFF7F2FEE8
:1019D0000346002B22D07B6803F122020123E7217A
:1019E0007868FFF716FF0346002B17D1FB891B0110
:1019F0001BB203F47F631AB2FB891B121BB203F004
:101A00000F031BB213431AB27B68DA83BB891B092D
:101A10009BB21AB27B681A84012300E000231846A7
:101A20001037BD4680BD80B588B004AF78600B46E6
:101A3000FB701346BB707B689B8C5B00FB817B68F3
:101A4000986AFB789AB2F98942F2107302930123E3
:101A50000193BB1C0093012305F0C4FF0346002B38
:101A600001D1002300E0012318461037BD4680BD98
:101A700080B584B000AF786039607B689B8C762B32
:101A800005D07B689B8C772B01D0002399E07B6885
:101A900003F132020123D0217868FFF7BAFE034632
:101AA000002B01D000238CE07B6893F83230582B58
:101AB00006D07B6893F83230602B01D0002380E0A1
:101AC000B622E0217868FFF7AEFF0346002B01D075
:101AD000002376E007F10C020123F3217868FFF779
:101AE00098FE0346002BF5D13B7B03F00103002B4E
:101AF000F0D17868FFF7B5FE034683F00103DBB24F
:101B0000002B00D101E000235BE07B6893F83230CA
:101B1000602B0AD17868FFF726FF034683F00103A4
:101B2000DBB2002B01D000234BE03B685B795B010B
:101B30005AB23B685B789B005BB213435BB2FB73AA
:101B4000FB7B1A46F5217868FFF76DFF0346002BF3
:101B500001D0002335E03B681B78012B02D13B68A4
:101B600000221A703B68DB785B015AB23B689B78B5
:101B70009B005BB213435AB23B681B785BB21343C2
:101B80005BB2BB737B6893F83230602B0DD13B683E
:101B90001B797B737B7B1A46F2217868FFF743FF42
:101BA0000346002B01D000230BE0BB7B1A46F42137
:101BB0007868FFF738FF0346002B01D0002300E0D0
:101BC000012318461037BD4680BD000080B584B0A3
:101BD00000AF1A480BF072FC0023BB601FE040F21C
:101BE000DC530322D621164806F02AF90346FB717E
:101BF000642003F0D3F8FB79002B07D111480BF0D8
:101C0000C3FC00F023F80123FB730BE00023FB73FC
:101C10004FF4FA7003F0C2F8BB680133BB60BB68D5
:101C2000092BDCDDFB7B002B02D107480BF0ACFC61
:101C3000FB7B18461037BD4680BD00BF040101087C
:101C4000640500201C0101082401010880B582B050
:101C500000AF8023FB71FA79D6232E21044802F0CD
:101C600065FC012003F09AF800BF0837BD4680BD2F
:101C70006405002080B582B000AFBA1DD6233B2199
:101C8000054802F031FCFB88184602F027FD0346A8
:101C900018460837BD4680BD6405002080B582B077
:101CA00000AFBA1DD6233D21054802F01DFCFB887C
:101CB000184602F013FD034618460837BD4680BD9E
:101CC0006405002080B582B000AFBA1DD62337214D
:101CD000054802F009FCFB88184602F0FFFC0346A9
:101CE00018460837BD4680BD6405002080B582B027
:101CF00000AFBA1DD6233921054802F0F5FBFB8859
:101D0000184602F0EBFC034618460837BD4680BD76
:101D10006405002080B582B000AFBA1DD623312102
:101D2000054802F0E1FBFB88184602F0D7FC0346A9
:101D300018460837BD4680BD6405002080B582B0D6
:101D400000AFBA1DD6233321054802F0CDFBFB8836
:101D5000184602F0C3FC034618460837BD4680BD4E
:101D60006405002080B586B004AF3F23FB714FF4BB
:101D7000FA73029301230193FB1C009301230022B9
:101D8000D6210C4805F042FFFA78FB791340DBB20C
:101D9000BB80BB881A465201D21A920013445B00E2
:101DA000BB80BB8803F6C413BB80BB8818460837CA
:101DB000BD4680BD6405002080B582B000AF3A1DED
:101DC000D6230121094802F08FFBBB88184602F098
:101DD00085FC0346FB80FB881A46920013445B0097
:101DE0009BB218460837BD4680BD00BF6405002081
:101DF00080B582B000AF3A1DD6230321094802F016
:101E000073FBBB88184602F069FC0346FB80FB8825
:101E10001A46920013445B009BB218460837BD4631
:101E200080BD00BF6405002080B584B000AF0346CC
:101E3000FB71FB7903F03F03DAB2D623002105489A
:101E400002F074FB0346FB73FB7B18461037BD465C
:101E500080BD00BF6405002080B584B000AF03469C
:101E6000FB80FB880B4AA2FB0323DB08FB80FB887B
:101E7000184602F033FC03461A46D62301210648D1
:101E800002F078FB0346FB73FB7B18461037BD4618
:101E900080BD00BFCDCCCCCC6405002080B584B023
:101EA00000AF0346FB80FB880B4AA2FB0323DB0841
:101EB000FB80FB88184602F011FC03461A46D62325
:101EC0000321064802F056FB0346FB73FB7B1846D2
:101ED0001037BD4680BD00BFCDCCCCCC6405002002
:101EE00080B584B000AFF860B9607A607B689AB260
:101EF0007B680133B968044808F080FC7B681846A9
:101F00001037BD4680BD00BFAC06002080B582B052
:101F100000AF78607B680B4A934205D14FF40072A2
:101F20000949084808F0FEFC7B68084A934205D13D
:101F30004FF400720649054808F0F4FC00BF08376A
:101F4000BD4680BDAC0600202002002030070020E6
:101F50002404002080B582B000AF78607868FFF775
:101F6000D5FF00BF0837BD4680BD000080B400AF7C
:101F70000D4BB3F858301A460B4BB3F85A309BB29E
:101F8000D31A03F50073094A12889B1A5A42C3F305
:101F90000803C2F3080258BF53429BB21846BD461D
:101FA0005DF8047B704700BFAC06002020040020D1
:101FB00080B483B000AF0C4B1B885A1C91B20A4A04
:101FC00011801A46094B9B5CFB71074B1B88B3F5CC
:101FD000007F02D3044B00221A80FB7918460C378D
:101FE000BD465DF8047B70472004002020020020DD
:101FF00080B487B000AF786000237B6131E07B69FB
:102000003B610023FB6011E0FB6801337A681344F5
:102010001B78002B04D13B690133184A134427E095
:102020003B6901333B61FB680133FB60134A3B6949
:1020300013441B78FB72FB7A0133114A13441B785B
:1020400003F00303012B02D1FB7A203300E0FB7A7B
:10205000FA6879680A4412789342D5D07B690133D3
:102060007B61064A7B6913441B78002BC7D1002390
:1020700018461C37BD465DF8047B704748040020B5
:102080002009010880B586B000AFF860B9607A60B9
:102090003B6000237B61FB681B78202B02D1FB682F
:1020A0000133FB60FB681B782D2B0CBF0123002341
:1020B000DBB2FB7416E0FB681B782F2B16D9FB688C
:1020C0001B78392B12D87A6913469B0013445B00A6
:1020D0007B61FB681B78303B7A6913447B61FB684A
:1020E0000133FB60FB681B78002BE4D1FB7C002BE9
:1020F00002D07B695B427B617A697B689A4207DB2D
:102100007A693B689A4203DCBB687A691A6002E02C
:1021100003480BF039FAFB6818461837BD4680BDF6
:102120003001010880B586B000AFF860B96087ED76
:10213000010AC7ED000A4FF000037B6102E0FB6873
:102140000133FB60FB681B78202BF8D007F11003EC
:102150001946F8680AF024FC87ED050A97ED057A20
:10216000D7ED017AB4EEE77AF1EE10FA0DDB97EDD8
:10217000057AD7ED007AB4EEE77AF1EE10FA04D8DA
:10218000BB687A691A60012303E004480BF0FCF98C
:10219000002318461837BD4680BD00BF3001010836
:1021A00080B582B000AFFFF7E1FE03463B603B68BD
:1021B000002B0FD000237B6008E0FFF7F9FE0346F9
:1021C000184600F00BF87B6801337B607A683B6847
:1021D0009A42F2DB00BF0837BD4680BD80B584B0AF
:1021E00000AF0346FB716D4B1B681F2B07D86B4B71
:1021F0001B685A1C69490A606949FA79CA54FB7913
:102200000A2B40F0C880654B1B68013B644AD35CD5
:102210000D2B04D1614B1B68013B604A13605F4B7F
:102220001B681A465E4B13445C4A1268C2F12002D6
:10223000002118460BF088FA584B00221A605948C2
:10224000FFF7D6FE0346584A934206D05748FFF799
:10225000CFFE0346564A934202D100F0B9FA9AE003
:102260005448FFF7C5FE0346534A93420AD1534BE5
:102270001B78002B0CBF01230023DBB21A464F4B07
:102280001A7088E04E48FFF7B3FE03464D4A93426A
:1022900005D1A02238214C4802F0E0F97BE04B4800
:1022A000FFF7A6FE03464A4A934205D149480BF080
:1022B00005F9FFF703F86EE04748FFF799FE03467C
:1022C000434A934202D1FFF70DF964E04348FFF718
:1022D0008FFE0346424A934207D1FFF74FF8034669
:1022E000194640480BF0EAF855E03F48FFF780FEFA
:1022F00003463B4A934207D1FEF7AEFF0346194619
:102300003A480BF0DBF846E03948FFF771FE034628
:10231000384A934213D1384843F69823002237496C
:10232000FFF7B0FE354B1B689AB2354BDA80344B61
:10233000DB889BB2194633480BF0C0F82BE03248DB
:10234000FFF756FE0346224A93421AD1294A07F163
:102350000C03F2EE040ABAEE040A19461046FFF71F
:10236000E1FEFA68264B02331A60254BD3F802309F
:102370001846FEF7E9F802460B4624480BF09EF893
:1023800009E02348FFF734FE0346224A934202D174
:1023900000F042F800BF1037BD4680BD6804002041
:1023A0004804002054010108490400205801010894
:1023B0004C040020600101084E04002000000020B1
:1023C000680101084F040020B805002070010108D1
:1023D000530400207C01010898010108A4010108B0
:1023E00052040020B0010108D8010108E4010108ED
:1023F0002402010854040020550400204404002055
:102400007C0800203402010844020108500201083F
:10241000640201085104002080B582B000AFB44BC3
:102420009B7A742B00F0DC80742B00F3B381682B53
:1024300002D0702B6AD0ADE1AE48FFF7D9FD03465C
:10244000AD4A93421AD1AD4A3B1DF2EE040ABAEEF0
:10245000040A19461046FFF765FE0346002B02D01A
:102460007A68A74B1A61A64B1B691846FEF76CF8F1
:1024700002460B46A3480BF021F893E1A248FFF770
:10248000B7FD0346A14A93421AD1A14A3B1DF2EE81
:10249000040ABAEE040A19461046FFF743FE034643
:1024A000002B02D07A68964B9A61954B9B6918462F
:1024B000FEF74AF802460B4696480AF0FFFF71E124
:1024C0009548FFF795FD0346904A93421AD1904AEA
:1024D0003B1DF2EE040ABAEE040A19461046FFF755
:1024E00021FE0346002B02D07A68854B5A62844B4A
:1024F0005B6A1846FEF728F802460B4687480AF042
:10250000DDFF4FE186480AF0D9FF47E17E48FFF73B
:102510006FFD03467D4A93421AD17D4A3B1DF2EE80
:10252000040ABAEE040A19461046FFF7FBFD0346FB
:10253000002B02D07A68724BDA61714BDB69184666
:10254000FEF702F802460B4676480AF0B7FF29E18B
:102550007148FFF74DFD03466C4A93421AD16C4A0D
:102560003B1DF2EE040ABAEE040A19461046FFF7C4
:10257000D9FD0346002B02D07A68614B9A62604B0A
:102580009B6A1846FDF7E0FF02460B4666480AF0D4
:1025900095FF07E16548FFF72BFD03465B4A934231
:1025A0001AD15B4A3B1DF2EE040ABAEE040A194640
:1025B0001046FFF7B7FD0346002B02D07A68504B58
:1025C0001A634F4B1B6B1846FDF7BEFF02460B46C6
:1025D00057480AF073FFE5E051480AF06FFFDDE06D
:1025E0005448FFF705FD0346484A93421AD1484A2A
:1025F0003B1DF2EE040ABAEE040A19461046FFF734
:1026000091FD0346002B02D07A683D4B9A603C4B0B
:102610009B681846FDF798FF02460B4646480AF0AD
:102620004DFFBFE03348FFF7E3FC0346324A9342D5
:102630001AD1324A3B1DF2EE040ABAEE040A1946D8
:102640001046FFF76FFD0346002B02D07A682C4B33
:10265000DA602B4BDB681846FDF776FF02460B4627
:1026600036480AF02BFF9DE02748FFF7C1FC0346E0
:10267000264A93421AD1264A3B1DF2EE040ABAEECC
:10268000040A19461046FFF74DFD0346002B02D001
:102690007A681B4B5A611A4B5B691846FDF754FF69
:1026A00002460B4626480AF009FF7BE01A48FFF76E
:1026B0009FFC0346154A934246D1154A3B1DF2EE54
:1026C000040ABAEE040A19461046FFF72BFD03462A
:1026D000002B02D07A680A4B1A62094B1B6A184613
:1026E000FDF732FF02460B4616480AF0E7FE59E0B6
:1026F00048040020700201085804002059040020FA
:102700007C08002078020108900201085A04002089
:102710005B04002098020108B4020108BC02010811
:10272000D4020108E4020108000301081C030108A7
:102730002403010840030108480301086403010859
:102740007C030108980301081848FFF751FC034671
:10275000174A93421AD1174A3B1DF2EE040ABAEE09
:10276000040A19461046FFF7DDFC0346002B02D091
:102770007A68114BDA62104BDB6A1846FDF7E4FE0B
:1027800002460B460D480AF099FE0BE00C480AF091
:1027900095FE03E00B480AF091FE00BF0A480AF0DC
:1027A000F3FE00BF0837BD4680BD00BF1C03010813
:1027B0005A0400205B0400207C080020B4030108B8
:1027C000D4020108D0030108E4030108000000005E
:1027D00080B582B002AF50A3D3E90023CDE9002336
:1027E0004FF000023A4B3B480AF068FE3A480AF0C4
:1027F00065FE3A4B1B78032B1AD801A252F823F03E
:102800001128000819280008212800082928000894
:1028100033480AF0B9FE0BE032480AF0B5FE07E093
:1028200031480AF0B1FE03E030480AF0ADFE00BFC7
:10283000FEF74AFF10EE103A1846FDF785FE0246F5
:102840000B462B480AF03AFEFFF714FA03461946E6
:1028500028480AF033FEFFF735FA034619462648A2
:102860000AF02CFEFFF742FA0346194623480AF005
:1028700025FEFFF713FA0346194621480AF01EFE0B
:10288000FFF748FA034619461E480AF017FEFFF7FD
:1028900055FA034619461C480AF010FEFFF762FA83
:1028A0000346194619480AF009FEFFF785FA034660
:1028B000194617480AF002FEFFF79AFA034619462E
:1028C00014480AF0FBFD00BFBD4680BDAFF3008099
:1028D0000000F03F4004010864040108B407002030
:1028E00078040108800401088404010898040108A0
:1028F000A8040108C4040108D4040108E404010880
:10290000F404010808050108180501082C05010850
:102910005005010874050108000000A09999C93FFD
:1029200080B582B000AF022001F0EEFE012002F07F
:1029300035FA96230322EE21144805F081FA034666
:10294000FB71642002F02AFAFB79002B15D1BA1D25
:10295000EE230D210D4801F0A5FD002001F0D4FE6D
:10296000BB79102B04D10A480AF00EFE012308E0BF
:1029700008480AF009FE002303E007480AF004FEB5
:10298000002318460837BD4680BD00BFB8050020AB
:1029900098050108A4050108B005010880B483B0BA
:1029A00000AF78600B46FB707B681B681A46FB78AB
:1029B000013B22FA03F303F00103002B0AD07B68EA
:1029C0001B681946FB78012202FA03F3CB1A1A4658
:1029D0007B681A6000BF0C37BD465DF8047B70470A
:1029E00080B58AB004AF01F0D3FEFA23029312231C
:1029F00001933B1D009301231022EE21414805F075
:102A000005F901F0CCFE3B791A017B791B09DBB299
:102A100003F00F0313431A463B4B1A600C213A484C
:102A2000FFF7BCFF384B1B685B081A46364B1A6031
:102A30007B791B0203F47063BA7913431A46324B55
:102A40005A600C213148FFF7A9FFFB791A033B7A42
:102A50001B011A437B7A1B09DBB203F00F031343FC
:102A60001A46294B9A6014212948FFF797FF7B7A71
:102A70001B0403F47022BB7A1B021343FA7A13433C
:102A80001A46214BDA6014212248FFF787FF3B7B6F
:102A90001B027A7B13431A461B4B1A6110211E48F6
:102AA000FFF77CFFBB7B1B02FA7B13431A46164BD6
:102AB0005A6110211948FFF771FF3B7C1B027A7C99
:102AC00013431A46104B9A6110211548FFF766FF11
:102AD000BB7C1B02FA7C13431A460B4BDA611021B4
:102AE0001048FFF75BFF3B7D1B027A7D13431A46BC
:102AF000054B1A6210210C48FFF750FF00BF183732
:102B0000BD4680BDB80500206C0400207004002084
:102B100074040020780400207C040020800400203D
:102B200084040020880400208C04002080B588B034
:102B300004AF0346FB7101F02BFEFA23029301233D
:102B4000019307F10F03009301230922EE2110489E
:102B500005F05CF8FA7907F10F030121184601F03E
:102B60002DFDFA2302930123019307F10F03009334
:102B700001230922EE21064804F034FF012002F06F
:102B80000DF901F00CFE00BF1037BD4680BD00BF3F
:102B9000B805002080B588B004AF0346FB7101F092
:102BA000F7FDFA2302930123019307F10F0300932A
:102BB00001230922EE21104805F028F8FA7907F1DF
:102BC0000F03F021184601F028FDFA230293012398
:102BD000019307F10F03009301230922EE21064818
:102BE00004F000FF012002F0D9F801F0D8FD00BF89
:102BF0001037BD4680BD00BFB805002080B586B047
:102C000004AF01F0C5FDFA23029301230193BB1D1C
:102C1000009301230722EE21184804F0F7FFFA235E
:102C2000029301230193FB1D009301232822EE212F
:102C3000124804F0EBFFFB795BB2002B06DBBB1DF7
:102C400000220721184601F0B9FC05E0BB1D012256
:102C50000721184601F0B2FCFA23029301230193E5
:102C6000BB1D009301230722EE21044804F0BAFEA5
:102C700001F095FD00BF0837BD4680BDB8050020B6
:102C800080B588B004AF03460A46FB711346BB719A
:102C900001F07EFDFA79BB791344DBB2FB73FA23B2
:102CA00002930123019307F10F03009301230722ED
:102CB000EE21354804F096FEFB79072B3AD801A2A5
:102CC00052F823F0E52C0008EF2C0008F92C00083E
:102CD000032D00080D2D0008172D0008212D0008D8
:102CE0002B2D0008294B4FF400221A6022E0274BBD
:102CF0004FF4C0121A601DE0244B4FF460121A60AA
:102D000018E0224B4FF4F0021A6013E01F4B4FF40F
:102D100078321A600EE01D4B4FF4FC221A6009E075
:102D20001A4B4FF47E221A6004E0184B4FF4FF1246
:102D30001A6000BFFA2302930123019307F10F03E6
:102D4000009301230922EE210F4804F05FFF07F1F1
:102D50000F0300220321184601F030FCFA230293EE
:102D60000123019307F10F03009301230922EE21B0
:102D7000054804F037FEFFF741FF01F010FD00BFEA
:102D80001037BD4680BD00BFB8050020900400206C
:102D900080B586B004AF01F0FBFCA523BB71FA231C
:102DA000029301230193BB1D009301230E22EE2108
:102DB0002E4804F017FE0346FB71FB79002B0FD160
:102DC0009623BB71FA23029301230193BB1D009349
:102DD00001230F22EE21254804F004FE0346FB7177
:102DE000FB79002B0FD10223BB71FA23029301233D
:102DF0000193BB1D009301236222EE211B4804F0C6
:102E0000F1FD0346FB71FB79002B0FD10023BB7151
:102E1000FA23029301230193BB1D009301230E2289
:102E2000EE21124804F0DEFD0346FB71FB79002B16
:102E30000FD10023BB71FA23029301230193BB1D21
:102E4000009301230F22EE21084804F0CBFD034636
:102E5000FB7100210020FFF713FF022000F008F8AB
:102E600001F09DFC00BF0837BD4680BDB8050020BD
:102E700080B588B004AF0346FB7101F089FCFB7993
:102E8000FB73FA2302930123019307F10F030093CD
:102E900001230822EE21064804F0A4FD022001F0DF
:102EA0007DFF01F07CFC00BF1037BD4680BD00BF38
:102EB000B805002080B582B000AF03460A46FB711A
:102EC0001346BB71FFF78CFDBB791846FFF762FE16
:102ED000FB791846FFF72AFE0020FFF7C9FFFFF72E
:102EE00057FF00BF0837BD4680BD000080B584B0E5
:102EF00002AF01F0DEFE00F0C5F900F079FC00F051
:102F000059FC00F023FA00F0BDFA00F0FBFA00F0E3
:102F100039FB00F0EFFB00F01DFC00F087FA00F039
:102F200071FB00F0FEF90021BC4806F0A7FEBC488A
:102F3000FEF7ECFFBB48FEF7E9FF01F017FABA48CD
:102F40000AF022FBFEF71AFA0346002B02D1B7481B
:102F50000AF01AFBFEF73AFE03461A46B44B1A7003
:102F6000B34B1B78DBB2002B0DD0B2480AF00CFB40
:102F70000320FEF759FF41F26800FEF76DFF4FF4A2
:102F8000FA60FEF78BFF00222021AB4804F07EFAA6
:102F9000002001F0D9F9FEF783FB01F0F3FE786021
:102FA00001F0F0FE386000224FF480714FF0904045
:102FB00004F06CFA01F0FAFB034603F00103D9B206
:102FC0009E4A137861F30003137001F027FC034657
:102FD00003F00103D9B29A4A137861F30003137026
:102FE000974B1B7803F00103DBB2002B0AD0954A04
:102FF000137843F001031370934A137843F00103ED
:10300000137009E08F4A13786FF3000313708E4A30
:1030100013786FF30003137001F058FC034603F0BC
:103020000103D9B2894A137861F300031370874B07
:103030001B7803F00103DBB2002B05D0844A137820
:1030400043F00103137004E0814A13786FF3000327
:10305000137001F06FFD034603F00103D9B27D4AFE
:10306000137861F3000313707A4B1B7803F00103AC
:10307000DBB2002B0AD0784A137843F001031370B7
:10308000764A137843F00103137009E0724A13780B
:103090006FF300031370714A13786FF3000313701A
:1030A000FFF73EFC034603F00103D9B26C4A1378E4
:1030B00061F3000313706A4B1B7803F00103DBB26A
:1030C000002B0AD0674A137843F001031370664A55
:1030D000137843F00103137009E0624A13786FF329
:1030E00000031370604A13786FF30003137000231A
:1030F0000093032303220321012001F059FD002145
:103100000020FFF7D7FE01F0A7F901F03BFE0246D1
:103110007B68D31A42F20F7293426DD9534B1B78DE
:10312000DBB2002B68D001F02DFE7860002001F0AA
:103130002DFCF0EE407A454B17EE902AC3F80120A3
:10314000002001F08FFCF0EE407A414B17EE902A00
:10315000C3F8012046480AF017FA3C4BD3F8013077
:103160001846FDF7F1F902460B4642480AF0A6F967
:1031700041480AF0A3F9364BD3F801301846FDF761
:10318000E3F902460B463B480AF098F93B480AF03F
:10319000FBF9012001F0FAFBF0EE407A2B4B17EE21
:1031A000902AC3F80120012001F05CFCF0EE407A87
:1031B000274B17EE902AC3F8012031480AF0E4F9B2
:1031C000224BD3F801301846FDF7BEF902460B46F4
:1031D00028480AF073F928480AF070F91C4BD3F814
:1031E00001301846FDF7B0F902460B4621480AF0B7
:1031F00065F922480AF0C8F901F0C4FD02463B68AF
:10320000D31A1D2B7FF67FAF01F0BCFD3860202163
:10321000094804F053F901F0E3F874E76006002070
:10322000AC06002030070020B4060108CC060108D7
:10323000B4070020E006010800040048B807002099
:10324000C4070020F407002018080020D007002041
:1032500024080020DC07002000080020300800209F
:10326000E80700200C0800203C0800200000002097
:10327000F4060108040701081007010818070108EF
:103280001C07010880B596B000AF07F11403442273
:10329000002118460AF058FA3B4600221A605A608C
:1032A0009A60DA601A614FF4007005F097FA0346ED
:1032B000002B01D000F08AFB01237B614FF48033A7
:1032C000BB610223FB6303233B6401237B640A236A
:1032D000BB640723FB6402233B6502237B6507F184
:1032E0001403184605F0D0FA0346002B01D000F075
:1032F0006DFB0F233B6003237B600023BB60002337
:10330000FB6000233B613B460221184605F0D0FEDE
:103310000346002B01D000F059FB00BF5837BD46D3
:1033200080BD80B500AF00220021252002F0F3FF10
:10333000252003F00CF800220021262002F0EBFFEC
:10334000262003F004F800BF80BD000080B586B0E1
:1033500000AF3B4600221A605A609A60DA601A6138
:103360005A612F4B2F4A1A602D4B4FF480225A601E
:103370002B4B00229A602A4B0022DA60284B002255
:103380001A61274B04225A61254B00221A76244BDE
:1033900001225A76224B0122DA61214B002283F866
:1033A00020201F4B00229A621D4B0022DA621C4B28
:1033B000012283F830201A4B00225A63184B012255
:1033C00083F83820164B0C22DA63154B00221A645E
:1033D000134B00225A64124B01229A64104801F0E8
:1033E000EFFE0346002B01D000F0F0FA0E4B3B60DD
:1033F00006237B600723BB607F23FB6004233B61C4
:1034000000237B613B461946054802F0C3F803469A
:10341000002B01D000F0DAFA00BF1837BD4680BD9E
:103420009404002000000450000052C780B500AF93
:10343000124B134A1A60114B01221A710F4B0122D1
:103440005A710E4B31229A600C4B1022DA600B4BF2
:10345000FF221A61094B00225A61084B00229A612F
:10346000064B01221A62054802F092FF0346002B28
:1034700001D000F0ABFA00BF80BD00BF40050020C6
:103480000030024080B500AF1B4B1C4A1A601A4B3B
:103490001B4A5A60184B00229A60174B0122DA60CF
:1034A000154B00221A61144B00225A61124B002264
:1034B0009A61114B0022DA610F4B00221A620E480A
:1034C00004F016F80346002B01D000F07FFA00212B
:1034D000094805F0DDF80346002B01D000F076FA2C
:1034E0000021054805F01FF90346002B01D000F02C
:1034F0006DFA00BF80BD00BF64050020005400408D
:103500004713300080B500AF1B4B1C4A1A601A4BA2
:103510001B4A5A60184B00229A60174B0122DA604E
:10352000154B00221A61144B00225A61124B0022E3
:103530009A61114B0022DA610F4B4FF400321A628C
:103540000D4803F0D5FF0346002B01D000F03EFAF2
:103550000021094805F09CF80346002B01D000F03B
:1035600035FA0021044805F0DEF80346002B01D0AF
:1035700000F02CFA00BF80BDB805002000580040C4
:103580004713300080B500AF1B4B1C4A1A601A4B22
:103590001B4A5A60184B00229A60174B0122DA60CE
:1035A000154B00221A61144B00225A61124B002263
:1035B0009A61114B0022DA610F4B4FF400321A620C
:1035C0000D4803F095FF0346002B01D000F0FEF9F3
:1035D0000021094805F05CF80346002B01D000F0FB
:1035E000F5F90021044805F09EF80346002B01D0B0
:1035F00000F0ECF900BF80BD0C060020005C00402C
:103600004713300080B592B000AF07F12C030022C1
:103610001A605A609A60DA601A615A619A613B4690
:103620002C22002118460AF08FF8304B304A1A60DD
:103630002E4B4FF49C725A602C4B00229A602B4BFD
:103640004FF48072DA60294B00221A61274B002266
:103650005A61264B00229A61244806F057FA034625
:10366000002B01D000F0B2F9204806F0A6FA03467C
:10367000002B01D000F0AAF96023FB6200233B631A
:1036800002237B630023BB630423FB6300233B64AF
:1036900000237B6407F12C0300221946134806F02F
:1036A000CBFB0346002B01D000F090F900233B60D8
:1036B00000237B600023BB600023FB6000233B6191
:1036C0004FF400537B610023BB623B461946074819
:1036D00006F0CEFF0346002B01D000F077F9034837
:1036E00000F0DEFB00BF4837BD4680BD600600200D
:1036F0000044014080B500AF144B154A1A60134BCB
:103700004FF4E1325A60114B00229A600F4B0022B5
:10371000DA600E4B00221A610C4B0C225A610B4BE3
:1037200000229A61094B0022DA61084B00221A62DA
:10373000064B00225A62054807F012F80346002B98
:1037400001D000F043F900BF80BD00BFAC060020EF
:103750000038014080B500AF144B154A1A60134B76
:103760004FF4E1325A60114B00229A600F4B002255
:10377000DA600E4B00221A610C4B0C225A610B4B83
:1037800000229A61094B0022DA61084B00221A627A
:10379000064B00225A62054806F0E2FF0346002B62
:1037A00001D000F013F900BF80BD00BF300700203A
:1037B0000044004080B582B000AF0C4B9B6C0B4ABC
:1037C00043F001039364094B9B6C03F001037B609E
:1037D0007B68002200210B2002F09DFD0B2002F0EF
:1037E000B6FD00BF0837BD4680BD00BF00100240D7
:1037F00080B58AB000AF07F1140300221A605A6046
:103800009A60DA601A616D4BDB6C6C4A43F004031A
:10381000D3646A4BDB6C03F004033B613B69674B89
:10382000DB6C664A43F08003D364644BDB6C03F0CB
:103830008003FB60FB68614BDB6C604A43F0010373
:10384000D3645E4BDB6C03F00103BB60BB685B4B76
:10385000DB6C5A4A43F00203D364584BDB6C03F031
:1038600002037B607B6800224FF4CB514FF0904005
:1038700003F00CFE002248F22121514803F006FE1D
:103880004FF400537B610023BB610023FB6107F110
:10389000140319464B4803F067FC4FF440437B6127
:1038A0000323BB610023FB6107F11403194645485C
:1038B00003F05AFC48F202037B610323BB6100233F
:1038C000FB6107F1140319464FF0904003F04CFCE4
:1038D00010237B610023BB610023FB6107F114030C
:1038E00019464FF0904003F03FFC4FF4C3537B6107
:1038F0000123BB610023FB6100233B6207F114033A
:1039000019464FF0904003F02FFC40F221237B61D9
:103910000123BB610023FB6100233B6207F1140319
:103920001946274803F020FC41F202037B61002383
:10393000BB610023FB6107F114031946204803F023
:1039400013FC40F60C437B610323BB610023FB6146
:1039500007F1140319461A4803F006FC4FF400431C
:103960007B610123BB610123FB6100233B6207F103
:1039700014031946124803F0F7FB4FF480737B6180
:103980000123BB610123FB6100233B6207F11403A8
:1039900019464FF0904003F0E7FB08237B610323B7
:1039A000BB610023FB6107F114031946064803F0CD
:1039B000DBFB00BF2837BD4680BD00BF00100240C2
:1039C0000004004800080048001C004880B500AF13
:1039D00072B600BF01222021034803F057FD1F20CB
:1039E00000F0B2FCFEE700BF0004004880B500AF65
:1039F000044B01221A70044B05221A7000F04CF897
:103A000000BF80BDB6080020B708002080B500AF19
:103A100000F010F80346002B06D000F024F803460F
:103A2000002B01D0012300E0002303F00103DBB2EF
:103A3000184680BD80B584B000AF8023BB800023D2
:103A4000FB800023BB603B1D184600F02DF80346A9
:103A5000FB73FB7B002B01D0002300E00123184601
:103A60001037BD4680BD80B584B000AFEC23BB806D
:103A70000023FB800023BB603B1D184600F014F8B8
:103A80000346FB73FB7B002B01D0002300E00123E6
:103A900018461037BD4680BD80B400AF00BFBD469C
:103AA0005DF8047B7047000080B586B002AF786097
:103AB0007B6819887B685A687B685B881420009053
:103AC000044803F0A5FD0346FB73FB7B1846103743
:103AD000BD4680BDB805002080B582B000AF104B58
:103AE0001B6E0F4A43F0010313660D4B1B6E03F070
:103AF00001037B607B680A4B9B6D094A43F080534E
:103B00009365074B9B6D03F080533B603B6800223D
:103B10000021052002F0FFFB00BF0837BD4680BD35
:103B20000010024080B59AB000AF786007F10C0336
:103B30005C220021184609F007FE7B681B682E4AAC
:103B4000934255D14FF48043FB604FF08053FB65A7
:103B500003233B6101237B610823BB610723FB61D6
:103B600002233B6202237B624FF08073BB6207F14A
:103B70000C03184605F0C0FC0346002B01D0FFF7EC
:103B800025FF1E4BDB6C1D4A43F40053D3641B4BD3
:103B9000DB6C03F40053BB60BB68194B194A1A6015
:103BA000174B00225A60164B00229A60144B0022D9
:103BB000DA60134B80221A61114B4FF480725A6104
:103BC0000F4B4FF480629A610D4B2022DA610C4B4F
:103BD00000221A620A4802F0D9FD0346002B01D0E8
:103BE000FFF7F4FE7B68064ADA64054A7B68936255
:103BF00000BF6837BD4680BD000004500010024081
:103C0000F80400200800024080B485B000AF78605E
:103C10007B681B680A4A93420BD10A4B9B6C094A8A
:103C200043F480539364074B9B6C03F48053FB6015
:103C3000FB6800BF1437BD465DF8047B704700BFCA
:103C4000003002400010024080B5A6B000AF78609E
:103C500007F1840300221A605A609A60DA601A61E0
:103C600007F128035C220021184609F06DFD7B68EE
:103C70001B68764A93423ED14023BB624FF4805387
:103C8000BB6507F12803184605F036FC0346002BF8
:103C900001D0FFF79BFE6E4BDB6C6D4A43F00103D6
:103CA000D3646B4BDB6C03F001037B627B6A4FF4E4
:103CB000C063C7F884301223C7F888300023C7F8E0
:103CC0008C300323C7F890300423C7F8943007F1F1
:103CD000840319464FF0904003F046FA5C4B9B6D0D
:103CE0005B4A43F400139365594B9B6D03F4001337
:103CF0003B623B6AA6E07B681B68564A93423DD113
:103D00008023BB624FF48043FB6507F1280318460C
:103D100005F0F2FB0346002B01D0FFF757FE4C4B9A
:103D2000DB6C4B4A43F00203D364494BDB6C03F07A
:103D30000203FB61FB694FF4C043C7F884301223D0
:103D4000C7F888300023C7F88C300323C7F89030B9
:103D50000423C7F8943007F1840319463E4803F062
:103D600003FA3B4B9B6D3A4A43F480039365384B0F
:103D70009B6D03F48003BB61BB6963E07B681B68D8
:103D8000364A93425ED14FF48073BB624FF4803366
:103D90003B6607F12803184605F0AEFB0346002BEF
:103DA00001D0FFF713FE2A4BDB6C294A43F00103D5
:103DB000D364274BDB6C03F001037B617B69244BED
:103DC000DB6C234A43F00203D364214BDB6C03F02A
:103DD00002033B613B698023C7F884301223C7F894
:103DE00088300023C7F88C300323C7F890300423B1
:103DF000C7F8943007F1840319464FF0904003F060
:103E0000B3F91023C7F884301223C7F88830002391
:103E1000C7F88C300323C7F890300423C7F89430D8
:103E200007F1840319460C4803F09EF9084B9B6D7B
:103E3000074A43F400039365054B9B6D03F40003AD
:103E4000FB60FB6800BF9837BD4680BD0054004052
:103E5000001002400058004000040048005C004090
:103E600080B485B000AF78607B681B680A4A9342D3
:103E70000BD10A4B1B6E094A43F400331366074B00
:103E80001B6E03F40033FB60FB6800BF1437BD46B4
:103E90005DF8047B704700BF004401400010024001
:103EA00080B588B000AF786007F10C0300221A607B
:103EB0005A609A60DA601A617B681B68114A934203
:103EC0001CD1114BDB6C104A43F00203D3640E4B40
:103ED000DB6C03F00203BB60BB684FF48073FB60D4
:103EE00002233B6100237B610023BB610E23FB6146
:103EF00007F10C031946054803F036F900BF2037D7
:103F0000BD4680BD0044014000100240000400484E
:103F100080B5A2B000AF786007F1740300221A6088
:103F20005A609A60DA601A6107F118035C22002176
:103F3000184609F009FC7B681B683F4A934238D158
:103F40000123BB610123BB6307F11803184605F089
:103F5000D3FA0346002B01D0FFF738FD374B1B6E19
:103F6000364A43F480431366344B1B6E03F480439C
:103F70007B617B69314BDB6C304A43F00203D364D5
:103F80002E4BDB6C03F002033B613B69C0237B6774
:103F90000223BB670023FB670323C7F88030072396
:103FA000C7F8843007F174031946254803F0DCF89C
:103FB0003DE07B681B68234A934238D10223BB61F2
:103FC0000423FB6307F11803184605F095FA03462E
:103FD000002B01D0FFF7FAFC184B9B6D174A43F4F6
:103FE00000339365154B9B6D03F40033FB60FB6856
:103FF000124BDB6C114A43F00103D3640F4BDB6CB3
:1040000003F00103BB60BB680C237B670223BB6723
:104010000023FB670323C7F880300723C7F88430E9
:1040200007F1740319464FF0904003F09DF800BF6C
:104030008837BD4680BD00BF0038014000100240F7
:10404000000400480044004080B400AFFEE780B4A4
:1040500000AFFEE780B400AFFEE780B400AFFEE73C
:1040600080B400AFFEE780B400AF00BFBD465DF88E
:10407000047B704780B400AF00BFBD465DF8047B91
:10408000704780B400AF00BFBD465DF8047B704749
:1040900080B500AF00F062FE02F073F900BF80BD92
:1040A00080B500AF024802F008FD00BF80BD00BF30
:1040B000F804002080B500AF024806F089FC00BF7C
:1040C00080BD00BFAC06002080B500AF024806F0FE
:1040D0007FFC00BF80BD00BF3007002080B400AF70
:1040E00001231846BD465DF8047B704780B582B059
:1040F00000AF7860396009F08BFB034616221A6026
:104100004FF0FF3318460837BD4680BD80B582B0FA
:1041100000AF78604FF0FF317868FFF7E7FFFEE708
:1041200080B586B000AFF860B9607A6000237B612B
:104130000AE0AFF300800146BB685A1CBA60CAB2FD
:104140001A707B6901337B617A697B689A42F0DB84
:104150007B6818461837BD4680BD80B483B000AF79
:1041600078604FF0FF3318460C37BD465DF8047B8E
:10417000704780B483B000AF786039603B684FF41B
:1041800000525A60002318460C37BD465DF8047B88
:10419000704780B483B000AF7860012318460C37B5
:1041A000BD465DF8047B704780B485B000AFF86011
:1041B000B9607A60002318461437BD465DF8047B69
:1041C0007047000080B586B000AF7860144A154B88
:1041D000D31A7B617B693B61134B1B68002B02D1B7
:1041E000114B124A1A60104B1A687B6813443A69E3
:1041F0009A4207D209F00CFB03460C221A604FF0DA
:10420000FF3309E0084B1B68FB60074B1A687B68AB
:104210001344054A1360FB6818461837BD4680BD35
:104220000000012000040000B8080020200A00203F
:1042300080B400AF064BD3F88830054A43F47003CE
:10424000C2F8883000BFBD465DF8047B704700BFF0
:1042500000ED00E080B500AF2E4B1B88002B4BD04B
:104260002D4B1B6801332C4A13602B4B1B68294ACA
:104270001288934240D3284B00221A60274B1B68B8
:104280000133264A1360254B1A68254B1B681B0C0B
:1042900040339A4216D3214B00221A60204B1B68F0
:1042A0009BB24FF6FF72934204D01D4B1B68013B3B
:1042B0001B4A13601A4B1B689BB2002B02D1154B93
:1042C00000221A80154B1B683F2B03D9002000F0F9
:1042D0003BF81CE0114B1B681F2B06D90F4B1B68CA
:1042E000DBB2C3F13F03DBB202E00C4B1B68DBB275
:1042F000184600F029F80AE0064B1B88002B06D16F
:10430000054B00221A60054B00221A60FFE700BF30
:1043100080BD00BFBC080020C8080020CC080020D9
:10432000C008002080B483B000AF0346FB71054B8A
:104330001B68FA795A6300BF0C37BD465DF8047BF1
:10434000704700BF6006002080B582B000AF034612
:10435000FB71FB79044AD35C1846FFF7E3FF00BF0B
:104360000837BD4680BD00BFAC08010880B582B0EB
:1043700000AF00224FF40071154803F087F815488C
:1043800009F002F900F0FEFC786014E000F0FAFC9D
:1043900002467B68D31AB3F57A7F0CD900F0F2FCA1
:1043A000786001224FF40071094803F06FF80A4861
:1043B00009F0EAF808E04FF40051084803F04EF81D
:1043C0000346012BE2D000BF00BF0837BD4680BDC9
:1043D00000040048280701083C07010800080048BD
:1043E00080B500AF4FF40051174803F037F803468B
:1043F000002B22D0154B1B68002B23D000F0C2FCF1
:104400000246124B1B68D31AB3F5FA6F1AD910483B
:1044100009F0BAF800224FF400710E4803F036F8A4
:1044200040F6B83000F0BAFC01222021094803F020
:104430002DF80020FFF788FF04E000F0A3FC0346FE
:10444000024A136000BF80BD00080048C408002075
:10445000480701080004004880B500AFFDF7A0FE42
:1044600000BF80BD80B584B000AF78600B46FB70A4
:104470000B4801F08DFF0A4B1B689A68084B1B68BC
:1044800042F001029A60FB781A467968044801F00C
:10449000E3FFF860FB68DBB218461037BD4680BD0D
:1044A0004005002080B58AB004AFF8607A601A46F3
:1044B0000B467B8113467B727B7A99B27A890823FB
:1044C00002930123019307F1160300930123F86877
:1044D00003F09CFB0346FB75BA7D7B681A70FB7D7D
:1044E00018461837BD4680BD80B58AB004AFF86065
:1044F0007A601A460B467B8113467B727B7A99B2AF
:104500007A89082302930223019307F1140300938D
:104510000123F86803F07AFB0346FB75BA8A7B68CF
:104520001A80FB7D18461837BD4680BD80B588B01F
:1045300004AF7860084611461A4603467B800B4656
:104540007B7013463B707B78BB733B7899B27A885B
:10455000082302930123019307F10E030093012323
:10456000786803F03FFA0346FB73FB7B184610376D
:10457000BD4680BD80B58AB004AFF86008461146DC
:104580001A4603467B810B463B811346FB713B89F0
:10459000BB82FB7999B27A890823029302230193A3
:1045A00007F1140300930123F86803F01BFA034694
:1045B000FB75FB7D18461837BD4680BD80B485B0BD
:1045C00000AFF860B9607A607B68002B0FD1FB68A0
:1045D0001B785AB20121BB6801FA03F35BB2DB43DB
:1045E0005BB213405BB2DAB2FB681A700FE07B6813
:1045F000012B0CD1FB681B785AB20121BB6801FA70
:1046000003F35BB213435BB2DAB2FB681A7000BF0C
:104610001437BD465DF8047B704780B483B000AFAB
:1046200078600B46FB701346BB707B681B785AB2F0
:1046300097F90330DB435BB213405AB2B978FB7889
:104640000B40DBB25BB213435BB2DAB27B681A7029
:1046500000BF0C37BD465DF8047B704780B584B061
:1046600000AF78600B46FB701346BB70184808F02B
:104670008BFFFB78FB7322E0FB7B9BB25B0099B264
:104680004FF4FA730322786803F0DAFB0346BB7336
:10469000642000F083FBBB7B002B05D1FB7B19461C
:1046A0000C4808F00BFF07E0FB7B19460A4808F0AE
:1046B00005FF642000F072FBFB7B0133FB73FA7B88
:1046C000BB789A42D8D900BF00BF1037BD4680BD25
:1046D0005C070108780701089007010880B483B0DF
:1046E00000AF0346FB80FB881B021AB2FB881B0A43
:1046F0009BB21BB213431BB29BB218460C37BD468C
:104700005DF8047B7047000080B586B002AF0346B9
:10471000FB71FB79012B02D0FB79022B1FD1012207
:104720004FF480714FF0904002F0B0FE012000F095
:1047300035FBFB79013B012202FA03F3DBB2FB7389
:1047400007F10F024FF0FF3300930123E4210E48DD
:1047500002F05EFF012000F021FB00BF10E0FB79BA
:10476000002B0AD100224FF480714FF0904002F0EC
:104770008DFE012000F012FB02E0044808F004FF67
:1047800000BF1037BD4680BDB8050020B007010846
:1047900080B500AF0220FFF7B7FF00BF80BD80B536
:1047A00000AF0020FFF7B0FF00BF80BD80B582B032
:1047B00000AF4FF4FA7303229221144803F040FB38
:1047C0000346FB71642000F0E9FAFB79002B14D159
:1047D0003A1D92230F210D48FFF786FEBB8841F258
:1047E0000172934204D10A4808F0CEFE012308E08A
:1047F000084808F0C9FE002303E0074808F0C4FE9B
:10480000002318460837BD4680BD00BFB80500200C
:10481000C4070108D0070108DC07010880B500AF14
:10482000FFF7E4F8FFF7F2F80346002B04D0054841
:1048300008F0AAFE012303E0034808F0A5FE0023C8
:10484000184680BDEC070108F807010880B584B060
:1048500002AF41F23573BB803A1D962300930323C8
:10486000E021094802F0D4FE0346FB710D2000F060
:1048700095FAFB79002B01D1012300E000231846B3
:104880000837BD4680BD00BFB805002080B584B0A4
:1048900002AF49F6B003BB803A1D96230093032371
:1048A000E021094802F0B4FE0346FB71022000F04B
:1048B00075FAFB79002B01D1012300E00023184693
:1048C0000837BD4680BD00BFB805002080B586B062
:1048D00002AF4FF4FA730322E021284803F0B0FA44
:1048E0000346FB73022000F059FAFB7B002B3BD1FF
:1048F000FFF7ACFF4CF6EF03FB80BA1D9623009345
:104900000223E0211D4802F083FE0346BB7307F13A
:104910000802962300930223E121184802F06CFF5D
:104920000346BB73BB7B002B19D13B7A1B021AB227
:104930007B7A1BB213431BB2BB81BB8923F4F863A0
:104940001B051B0D7B817B8940F60702934210D12A
:104950000B4808F019FEFFF799FF01230AE0094808
:1049600008F012FE002305E0074808F00DFE0023C2
:1049700000E0002318461037BD4680BDB805002072
:1049800008080108140801082008010880B588B04B
:1049900002AF0346FB71FFF759FFFB79002B03D1F0
:1049A0004AF27C23FB8102E045F66403FB8107F1B8
:1049B0000E02962300930223E021244802F028FEF1
:1049C0000346FB75142000F0E9F907F11002962365
:1049D00000930323E1211D4802F00EFF0346FB75FF
:1049E000FB7D002B27D13B7C1B021AB27B7C1BB2C8
:1049F00013431BB2BB8207F1100302211846FFF7D5
:104A000031FD0346FB74BB7CFA7C9A4216D1FFF75A
:104A10003DFFBB8A07EE903AF8EEE77A9FED0C7AFD
:104A200027EE877ADFED0B6AC7EE267A9FED0A7ACA
:104A300077EEC77A04E0094808F0A6FDDFED087AB2
:104A4000B0EE670A1837BD4680BD00BFB80500202C
:104A500000002F4300FF7F47000034423008010868
:104A600000007AC480B588B002AF0346FB71FFF73F
:104A7000EDFEFB79002B03D142F25C43FB8102E0A7
:104A80004DF64463FB8107F10E0296230093022347
:104A9000E021234802F0BCFD0346FB75142000F022
:104AA0007DF907F11002962300930323E1211C48AE
:104AB00002F0A2FE0346FB75FB7D002B23D13B7C5D
:104AC0001B021AB27B7C1BB213431BB2BB8207F1E1
:104AD000100302211846FFF7C5FC0346FB74BB7C9C
:104AE000FA7C9A4212D1FFF7D1FEBB8A07EE903AC8
:104AF000F8EEE77A9FED0B7A67EE877ADFED0A6AC8
:104B000087EEA67A04E0094808F03EFD9FED087A9A
:104B1000F0EE477AB0EE670A1837BD4680BD00BF99
:104B2000B80500200000C84200FF7F473008010898
:104B300000007AC480B582B000AF0120FFF7E4FD29
:104B4000012000F02BF996230322EE21144803F0F4
:104B500077F90346FB71642000F020F9FB79002B04
:104B600015D1BA1DEE23D0210D48FFF79BFC002084
:104B7000FFF7CAFDBB79602B04D10A4808F004FD99
:104B8000012308E0084808F0FFFC002303E0074881
:104B900008F0FAFC002318460837BD4680BD00BF68
:104BA000B80500203C08010848080108540801081D
:104BB00090B583B000AF0446084611461A46234616
:104BC000FB710346BB710B467B7113463B710120A1
:104BD000FFF79AFD012000F0E1F81E4A3B7E82F8C3
:104BE0002D301C4A7B7982F82E301A4ABB7982F824
:104BF0002F30184A3B7982F83030164B032283F865
:104C00003120144B77229A84124B134A9A62FB7913
:104C1000012B02D0022B05D009E00E4B012283F8B4
:104C20002C2008E00B4B032283F82C2003E0094BD7
:104C3000032283F82C2009490648FCF719FF0120BC
:104C400000F0ACF80020FFF75FFD00BF0C37BD4659
:104C500090BD00BF48080020B8050020740800205F
:104C6000DFF834D0FFF7E4FA0C480D490D4A002371
:104C700002E0D458C4500433C4188C42F9D30A4A11
:104C80000A4C002301E013600432A242FBD308F077
:104C9000C5FDFEF72BF9FEE7000001200000002013
:104CA000F8010020040D0108F8010020200A00206E
:104CB000FEE780B582B000AF0023FB71032001F056
:104CC0001FFB0F2000F00EF80346002B02D001233B
:104CD000FB7101E0FEF700FFFB7918460837BD467F
:104CE00080BD000080B584B000AF78600023FB7306
:104CF000174B1B78002B23D0164B1A68144B1B78CC
:104D000019464FF47A73B3FBF1F3B2FBF3F3184691
:104D100001F02BFB0346002B0FD17B680F2B09D82A
:104D2000002279684FF0FF3001F0F5FA0A4A7B68FB
:104D3000136007E00123FB7304E00123FB7301E030
:104D40000123FB73FB7B18461037BD4680BD00BFB7
:104D50000C000020040000200800002080B400AFF8
:104D6000064B1B781A46064B1B681344044A136013
:104D700000BFBD465DF8047B704700BF0C000020FB
:104D8000D008002080B400AF034B1B681846BD4616
:104D90005DF8047B704700BFD008002080B584B068
:104DA00000AF7860FFF7EEFFB8607B68FB60FB68E0
:104DB000B3F1FF3F05D00A4B1B781A46FB6813443A
:104DC000FB6000BFFFF7DEFF0246BB68D31AFA683C
:104DD0009A42F7D800BF00BF1037BD4680BD00BF64
:104DE0000C00002080B483B000AF786039607B682D
:104DF0009B6823F47C123B681A437B689A6000BF6F
:104E00000C37BD465DF8047B704780B483B000AFBB
:104E1000786039607B689B6823F0E0723B681A43D6
:104E20007B689A6000BF0C37BD465DF8047B704715
:104E300080B483B000AF78607B689B6803F0E07358
:104E400018460C37BD465DF8047B704780B487B0C8
:104E500000AFF860B9607A603B60FB6860331A4667
:104E6000BB689B0013447B617B691A68084B134045
:104E70007A6802F0F8413A680A43134343F000426B
:104E80007B691A6000BF1C37BD465DF8047B704724
:104E900000F0FF0380B485B000AF786039607B68B4
:104EA00060331A463B689B001344FB60FB681B6839
:104EB00003F0F84318461437BD465DF8047B70478D
:104EC00080B487B000AFF860B9607A60FB68603387
:104ED0001A46BB689B0013447B617B691B6823F007
:104EE00000427B681A437B691A6000BF1C37BD46CD
:104EF0005DF8047B704780B483B000AF78607B6856
:104F0000DB6803F44063002B01D1012300E00023A0
:104F100018460C37BD465DF8047B704780B487B0F7
:104F200000AFF860B9607A60FB6830331A46BB683E
:104F30001B0A9B0003F00C0313447B617B691A6816
:104F4000BB6803F01F031F2101FA03F3DB431A4080
:104F50007B689B0E03F01F01BB6803F01F0301FA7F
:104F600003F31A437B691A6000BF1C37BD465DF826
:104F7000047B704780B487B000AFF860B9607A6096
:104F8000FB6814331A46BB685B0E9B0003F00403F6
:104F900013447B617B691A68BB681B0D03F01F0318
:104FA000072101FA03F3DB431A40BB681B0D03F032
:104FB0001F03796801FA03F31A437B691A6000BF83
:104FC0001C37BD465DF8047B7047000080B485B097
:104FD00000AFF860B9607A60FB68D3F8B020BB68B6
:104FE000C3F31203DB431A407B6803F0180308493C
:104FF000D940BB680B40C3F312031A43FB68C3F8E4
:10500000B02000BF1437BD465DF8047B704700BF79
:10501000FFFF070080B483B000AF78607B689B68B7
:1050200023F0204323F03F037A68936000BF0C37DE
:10503000BD465DF8047B704780B483B000AF7860F4
:105040007B689B6803F00053B3F1005F01D101233B
:1050500000E0002318460C37BD465DF8047B70471E
:1050600080B483B000AF78607B689B6823F0104306
:1050700023F03F0343F080527B689A6000BF0C37F7
:10508000BD465DF8047B704780B483B000AF7860A4
:105090007B689B6803F08053B3F1805F01D10123EB
:1050A00000E0002318460C37BD465DF8047B7047CE
:1050B00080B483B000AF78607B689B6823F00043C6
:1050C00023F03F0343F001027B689A6000BF0C3776
:1050D000BD465DF8047B704780B483B000AF786054
:1050E0007B689B6823F0004323F03F0343F00202F8
:1050F0007B689A6000BF0C37BD465DF8047B704743
:1051000080B483B000AF78607B689B6803F00103D4
:10511000012B01D1012300E0002318460C37BD46C6
:105120005DF8047B704780B483B000AF78607B6823
:105130009B6803F00203022B01D1012300E000234E
:1051400018460C37BD465DF8047B704780B483B0C9
:1051500000AF78607B689B6823F0004323F03F0337
:1051600043F004027B689A6000BF0C37BD465DF8CF
:10517000047B704780B483B000AF78607B689B6825
:1051800003F00403042B01D1012300E0002318469F
:105190000C37BD465DF8047B704780B483B000AF28
:1051A00078607B689B6803F00803082B01D101231A
:1051B00000E0002318460C37BD465DF8047B7047BD
:1051C00080B588B000AF78600023FB770023BB6018
:1051D0007B68002B01D101232CE17B681B69002B2C
:1051E0007B685B6D002B09D17868FEF79BFC7B68C0
:1051F00000229A657B68002283F850207B681B6838
:105200001846FFF719FF0346002B04D07B681B6884
:105210001846FFF7FFFE7B681B681846FFF734FF50
:105220000346002B15D17B681B681846FFF718FF53
:10523000824B1B689B09824AA2FB03239B09013313
:105240005B00BB6002E0BB68013BBB60BB68002B3E
:10525000F9D17B681B681846FFF716FF0346002B41
:105260000DD17B685B6D43F010027B685A657B68EB
:105270009B6D43F001027B689A650123FB777B6895
:105280001B681846FFF776FF78617B685B6D03F05B
:105290001003002B40F0C5807B69002B40F0C180DB
:1052A0007B685B6D23F4817343F002027B685A656F
:1052B0007B681B681846FFF723FF0346002B0BD1C2
:1052C0006048FFF71DFF0346002B05D17B685B6834
:1052D00019465D48FFF786FD7B685B7E5A037B6855
:1052E0005B6B1A437B68DB681A437B689B681A43D5
:1052F0007B6893F820301B041343BB617B6893F8F1
:105300002030012B06D17B685B6A013B5B04BA69E4
:105310001343BB617B689B6A002B09D07B689B6A47
:1053200003F470727B68DB6A1343BA691343BB6191
:105330007B681B68DA68454B13407A681268B96964
:105340000B43D3607B681B681846FFF713FF386177
:105350007B681B681846FFF720FFF8603B69002B4D
:105360003DD1FB68002B3AD17B681B7E9A037B689A
:1053700093F830305B001343BB617B681B68DB68CC
:1053800023F4804323F002037A681268B9690B435F
:10539000D3607B6893F83830012B18D17B681B6889
:1053A0001B6923F4FF6323F004037A68D16B7A68E6
:1053B000126C11437A68526C11437A68926C0A43FA
:1053C0001A437B681B6842F001021A6107E07B68A0
:1053D0001B681A697B681B6822F001021A617B68EE
:1053E0001B69012B0CD17B681B681B6B23F00F0121
:1053F0007B68DB695A1E7B681B680A431A6307E0F7
:105400007B681B681A6B7B681B6822F00F021A63AB
:105410007B685B6D23F0030343F001027B685A65F0
:1054200007E07B685B6D43F010027B685A650123DF
:10543000FB77FB7F18462037BD4680BD0400002067
:10544000632D3E05000004500003045007C0F0FF28
:1054500080B586B000AFF860B9607A60FB681B6801
:105460001846FFF787FE0346002B67D1FB6893F8C9
:105470005030012B01D1022363E0FB68012283F845
:105480005020F86800F066FC0346FB75FB7D002B9E
:105490004FD1FB685B6D23F4706323F0010343F489
:1054A0008072FB685A65FB685B6D03F48053002BC8
:1054B00006D0FB689B6D23F00602FB689A6502E04C
:1054C000FB6800229A65FB68DB6C204ADA62FB68A5
:1054D000DB6C1F4A1A63FB68DB6C1E4A5A63FB686D
:1054E0001B681C221A60FB68002283F85020FB68AE
:1054F0001B685A68FB681B6842F010025A60FB6820
:105500001B68DA68FB681B6842F00102DA60FB681E
:10551000D86CFB681B6840331946BA687B6801F099
:10552000EDF90346FB75FB681B681846FFF70EFE96
:1055300006E0FB68002283F8502001E00223FB759F
:10554000FB7D18461837BD4680BD00BF1F5F0008B1
:10555000F75F00081360000880B483B000AF786084
:1055600000BF0C37BD465DF8047B704780B483B044
:1055700000AF786000BF0C37BD465DF8047B704714
:1055800080B483B000AF786000BF0C37BD465DF8D3
:10559000047B704780B5B6B000AF786039600023F7
:1055A00087F8D7300023FB607B6893F85030012BDD
:1055B00001D10223B9E37B68012283F850207B6884
:1055C0001B681846FFF7D6FD0346002B40F09E836C
:1055D0003B685B68052B24D83B685B68023B032B68
:1055E0001BD801A252F823F0F95500080156000813
:1055F00009560008115600083B680C225A6010E05A
:105600003B6812225A600CE03B6818225A6008E09E
:105610003B684FF480725A6003E03B6806225A6090
:1056200000BF7B6818683B6859683B681B681A466E
:10563000FFF774FC7B681B681846FFF79BFDC7F8F3
:10564000D0007B681B681846FFF7A7FDC7F8CC00A1
:10565000D7F8D030002B40F0A681D7F8CC30002B03
:1056600040F0A1817B6818683B6819683B689B68BB
:105670001A46FFF77FFC3B685A697B681B68DB684A
:10568000DB0803F003035B0002FA03F3C7F8C8303A
:105690003B681B69042B0AD07B6818683B68196952
:1056A0003B681A68D7F8C830FFF7D0FB7BE17B680E
:1056B0001B6800211846FFF7EDFB0346C3F31203F6
:1056C000002B0AD17B681B6800211846FFF7E2FB1C
:1056D00003469B0E03F01F021EE07B681B6800213F
:1056E0001846FFF7D7FB0346C7F8BC30D7F8BC30E5
:1056F00093FAA3F3C7F8B830D7F8B830C7F8C0307A
:10570000D7F8C030002B01D1202304E0D7F8C030F7
:10571000B3FA83F3DBB21A463B681B68C3F3120388
:10572000002B05D13B681B689B0E03F01F0318E09C
:105730003B681B68C7F8B030D7F8B03093FAA3F3D2
:10574000C7F8AC30D7F8AC30C7F8B430D7F8B430BD
:10575000002B01D1202304E0D7F8B430B3FA83F34F
:10576000DBB29A4206D17B681B68002200211846F2
:10577000FFF7A6FB7B681B6801211846FFF78AFB31
:105780000346C3F31203002B0AD17B681B68012177
:105790001846FFF77FFB03469B0E03F01F021EE037
:1057A0007B681B6801211846FFF774FB0346C7F8A6
:1057B000A430D7F8A43093FAA3F3C7F8A030D7F8F1
:1057C000A030C7F8A830D7F8A830002B01D120238B
:1057D00004E0D7F8A830B3FA83F3DBB21A463B688B
:1057E0001B68C3F31203002B05D13B681B689B0E9B
:1057F00003F01F0318E03B681B68C7F89830D7F820
:10580000983093FAA3F3C7F89430D7F89430C7F8D8
:105810009C30D7F89C30002B01D1202304E0D7F82E
:105820009C30B3FA83F3DBB29A4206D17B681B68E3
:10583000002201211846FFF743FB7B681B68022109
:105840001846FFF727FB0346C3F31203002B0AD1C8
:105850007B681B6802211846FFF71CFB03469B0E62
:1058600003F01F021EE07B681B6802211846FFF749
:1058700011FB0346C7F88C30D7F88C3093FAA3F3AA
:10588000C7F88830D7F88830C7F89030D7F890300C
:10589000002B01D1202304E0D7F89030B3FA83F332
:1058A000DBB21A463B681B68C3F31203002B05D119
:1058B0003B681B689B0E03F01F0316E03B681B68E8
:1058C000C7F88030D7F8803093FAA3F3FB67FB6FFB
:1058D000C7F88430D7F88430002B01D1202304E0AE
:1058E000D7F88430B3FA83F3DBB29A4206D17B68EF
:1058F0001B68002202211846FFF7E2FA7B681B684A
:1059000003211846FFF7C6FA0346C3F31203002B20
:105910000AD17B681B6803211846FFF7BBFA0346D0
:105920009B0E03F01F0217E07B681B6803211846DB
:10593000FFF7B0FA03467B677B6F93FAA3F33B67ED
:105940003B6FBB67BB6F002B01D1202303E0BB6F14
:10595000B3FA83F3DBB21A463B681B68C3F3120346
:10596000002B05D13B681B689B0E03F01F0311E061
:105970003B681B68BB66BB6E93FAA3F37B667B6ECA
:10598000FB66FB6E002B01D1202303E0FB6EB3FA14
:1059900083F3DBB29A4206D17B681B6800220321A5
:1059A0001846FFF78DFA7B681B681846FFF7A8FBBF
:1059B0000346002B40F040817B6818683B681968FB
:1059C0003B68DB681A46FFF701FB3B68DB688F4AE0
:1059D000934240F031817B6818683B681B68C3F3D1
:1059E0001203002B0BD13B681B689B0E013303F0A5
:1059F0001F03092B94BF01230023DBB219E03B688E
:105A00001B68FB65FB6D93FAA3F3BB65BB6D3B663F
:105A10003B6E002B01D1202303E03B6EB3FA83F3EE
:105A2000DBB2013303F01F03092B94BF01230023D2
:105A3000DBB2002B79D03B681B68C3F31203002B49
:105A400007D13B681B689B0E01339B0603F0F842AD
:105A500015E03B681B683B653B6D93FAA3F3FB6461
:105A6000FB6C7B657B6D002B01D1202303E07B6DFC
:105A7000B3FA83F3DBB201339B0603F0F8423B68D1
:105A80001B68C3F31203002B09D13B681B689B0EF4
:105A9000013303F01F03012101FA03F317E03B6810
:105AA0001B687B647B6C93FAA3F33B643B6CBB6425
:105AB000BB6C002B01D1202303E0BB6CB3FA83F352
:105AC000DBB2013303F01F03012101FA03F342EAC1
:105AD00003013B681B68C3F31203002B0AD13B6828
