:020000040800F2
:100000000000012041880008616A0008656A000854
:10001000696A00086D6A0008716A00080000000043
:1000200000000000000000000000000091DB00085C
:10003000756A00080000000021DC000885DC00086B
:10004000918800089188000891880008918800082C
:10005000918800089188000891880008918800081C
:10006000918800089188000891880008796A000842
:1000700091880008918800089188000891880008FC
:1000800091880008918800089188000891880008EC
:1000900091880008918800089188000891880008DC
:1000A00091880008918800089188000891880008CC
:1000B00091880008000000000000000091880008FE
:1000C00091880008918800089188000891880008AC
:1000D00091880008856A0008916A000891880008E4
:1000E00091880008918800080000000000000000CE
:1000F0000000000000000000000000000000000000
:1001000000000000918800080000000091880008AD
:100110000000000000000000918800089D6A0008AF
:10012000918800089188000891880008918800084B
:10013000918800080000000000000000000000009E
:10014000918800089188000891880008000000004C
:10015000918800089188000891880008918800081B
:10016000918800089188000891880008000000002C
:10017000918800089188000800000000000000003D
:0C01800091880008918800089188000810
:1001900010B5054C237833B9044B13B10448AFF3C1
:1001A00000800123237010BD040200200000000025
:1001B000E834010808B5034B1BB103490348AFF30A
:1001C000008008BD0000000008020020E83401089B
:1001D00010F8012B11F8013B012A28BF9A42F7D0F1
:1001E000D01A70470000000000000000000000006E
:1001F00001F0FF01102A2BDB10F0070F08D010F8D8
:10020000013B013A8B422DD010F0070F42B3F6D1DB
:10021000F0B441EA012141EA014122F007047FF0F4
:1002200000070023F0E80256083C85EA010586EA4B
:10023000010685FA47F5A3FA87F586FA47F6A5FA87
:1002400087F68EB9EED1F0BC01F0FF0102F0070293
:1002500032B110F8013B013A83EA010313B1F8D13E
:100260000020704701387047002D06BF354603381F
:10027000073815F0010F07D1013015F4807F02BF58
:10028000013015F4C03F0130F0BC0138704700BFA9
:10029000034613F8012B002AFBD1181A01387047C6
:1002A00081F0004102E000BF83F0004330B54FEA27
:1002B00041044FEA430594EA050F08BF90EA020F94
:1002C0001FBF54EA000C55EA020C7FEA645C7FEA27
:1002D000655C00F0E2804FEA5454D4EB5555B8BF4A
:1002E0006D420CDD2C4480EA020281EA030382EABB
:1002F000000083EA010180EA020281EA0303362D4D
:1003000088BF30BD11F0004F4FEA01314FF4801C1F
:100310004CEA113102D0404261EB410113F0004F31
:100320004FEA03334CEA133302D0524263EB4303E8
:1003300094EA050F00F0A780A4F10104D5F1200E86
:100340000DDB02FA0EFC22FA05F2801841F10001E1
:1003500003FA0EF2801843FA05F359410EE0A5F1B5
:1003600020050EF1200E012A03FA0EFC28BF4CF0E6
:10037000020C43FA05F3C01851EBE37101F000459C
:1003800007D54FF0000EDCF1000C7EEB00006EEBA9
:100390000101B1F5801F1BD3B1F5001F0CD3490833
:1003A0005FEA30004FEA3C0C04F101044FEA44528A
:1003B00012F5800F80F09A80BCF1004F08BF5FEA11
:1003C000500C50F1000041EB045141EA050130BDF1
:1003D0005FEA4C0C404141EB0101013C28BFB1F503
:1003E000801FE9D291F0000F04BF01460020B1FA4E
:1003F00081F308BF2033A3F10B03B3F120020CDA21
:100400000C3208DD02F1140CC2F10C0201FA0CF0FE
:1004100021FA02F10CE002F11402D8BFC2F1200C63
:1004200001FA02F120FA0CFCDCBF41EA0C01904019
:10043000E41AA2BF01EB0451294330BD6FEA040462
:100440001F3C1CDA0C340EDC04F11404C4F120024D
:1004500020FA04F001FA02F340EA030021FA04F35F
:1004600045EA030130BDC4F10C04C4F1200220FAB6
:1004700002F001FA04F340EA0300294630BD21FAF4
:1004800004F0294630BD94F0000F83F4801306BFBA
:1004900081F480110134013D4EE77FEA645C18BFAE
:1004A0007FEA655C29D094EA050F08BF90EA020F45
:1004B00005D054EA000C04BF1946104630BD91EA3D
:1004C000030F1EBF0021002030BD5FEA545C05D140
:1004D0004000494128BF41F0004130BD14F580047F
:1004E0003CBF01F5801130BD01F0004545F0FE41F3
:1004F00041F470014FF0000030BD7FEA645C1ABF28
:10050000194610467FEA655C1CBF0B46024650EA5E
:10051000013406BF52EA033591EA030F41F400218A
:1005200030BD00BF90F0000F04BF0021704730B510
:100530004FF4806404F132044FF000054FF00001E5
:1005400050E700BF90F0000F04BF0021704730B5A6
:100550004FF4806404F1320410F0004548BF40427B
:100560004FF000013EE700BF42004FEAE2014FEAD0
:1005700031014FEA02701FBF12F07F4393F07F4FAB
:1005800081F06051704732F07F4208BF704793F0AE
:100590007F4F04BF41F40021704730B54FF46074C1
:1005A00001F0004521F000411CE700BF50EA0102C4
:1005B00008BF704730B54FF000050AE050EA01026D
:1005C00008BF704730B511F0004502D5404261EBDD
:1005D00041014FF4806404F132045FEA915C3FF41E
:1005E000D8AE4FF003025FEADC0C18BF03325FEABB
:1005F000DC0C18BF033202EBDC02C2F1200300FA6C
:1006000003FC20FA02F001FA03FE40EA0E0021FA90
:1006100002F11444BDE600BF70B54FF0FF0C4CF47E
:10062000E06C1CEA11541DBF1CEA135594EA0C0F30
:1006300095EA0C0F00F0DEF82C4481EA030621EA6B
:100640004C5123EA4C5350EA013518BF52EA0335A6
:1006500041F4801143F4801338D0A0FB02CE4FF058
:100660000005E1FB02E506F00042E0FB03E54FF088
:100670000006E1FB03569CF0000F18BF4EF0010E80
:10068000A4F1FF04B6F5007F64F5407404D25FEA7C
:100690004E0E6D4146EB060642EAC62141EA55512F
:1006A0004FEAC52040EA5E504FEACE2EB4F1FD0C71
:1006B00088BFBCF5E06F1ED8BEF1004F08BF5FEAEF
:1006C000500E50F1000041EB045170BD06F00046A1
:1006D00046EA010140EA020081EA0301B4EB5C044E
:1006E000C2BFD4EB0C0541EA045170BD41F4801146
:1006F0004FF0000E013C00F3AB8014F1360FDEBF6B
:10070000002001F0004170BDC4F10004203C35DA46
:100710000C341BDC04F11404C4F1200500FA05F3C9
:1007200020FA04F001FA05F240EA020001F000426A
:1007300021F0004110EBD37021FA04F642EB0601E0
:100740005EEA430E08BF20EAD37070BDC4F10C040A
:10075000C4F1200500FA04F320FA05F001FA04F2CE
:1007600040EA020001F0004110EBD37041F10001BA
:100770005EEA430E08BF20EAD37070BDC4F12005C5
:1007800000FA05F24EEA020E20FA04F301FA05F22D
:1007900043EA020321FA04F001F0004121FA04F2D5
:1007A00020EA020000EBD3705EEA430E08BF20EAA5
:1007B000D37070BD94F0000F0FD101F000464000DF
:1007C00041EB010111F4801F08BF013CF7D041EA61
:1007D000060195F0000F18BF704703F00046520065
:1007E00043EB030313F4801F08BF013DF7D043EA36
:1007F0000603704794EA0C0F0CEA135518BF95EAEC
:100800000C0F0CD050EA410618BF52EA4306D1D172
:1008100081EA030101F000414FF0000070BD50EA91
:10082000410606BF1046194652EA430619D094EA1B
:100830000C0F02D150EA013613D195EA0C0F05D105
:1008400052EA03361CBF104619460AD181EA030159
:1008500001F0004141F0FE4141F470014FF0000011
:1008600070BD41F0FE4141F4780170BD70B54FF0AC
:10087000FF0C4CF4E06C1CEA11541DBF1CEA13552C
:1008800094EA0C0F95EA0C0F00F0A7F8A4EB05040E
:1008900081EA030E52EA03354FEA013100F0888005
:1008A0004FEA03334FF0805545EA131343EA1263CE
:1008B0004FEA022245EA111545EA10654FEA002683
:1008C0000EF000419D4208BF964244F1FD0404F53C
:1008D000407402D25B084FEA3202B61A65EB030598
:1008E0005B084FEA32024FF480104FF4002CB6EB55
:1008F000020E75EB030E22BFB61A754640EA0C00D5
:100900005B084FEA3202B6EB020E75EB030E22BF14
:10091000B61A754640EA5C005B084FEA3202B6EB55
:10092000020E75EB030E22BFB61A754640EA9C0014
:100930005B084FEA3202B6EB020E75EB030E22BFE4
:10094000B61A754640EADC0055EA060E18D04FEAA2
:10095000051545EA16754FEA06164FEAC30343EA42
:1009600052734FEAC2025FEA1C1CC0D111F4801F0F
:100970000BD141EA00014FF000004FF0004CB6E708
:1009800011F4801F04BF01430020B4F1FD0C88BFA7
:10099000BCF5E06F3FF6AFAEB5EB030C04BFB6EBB2
:1009A000020C5FEA500C50F1000041EB045170BDA5
:1009B0000EF0004E4EEA113114EB5C04C2BFD4EBD2
:1009C0000C0541EA045170BD41F480114FF0000E56
:1009D000013C90E645EA060E8DE60CEA135594EAD2
:1009E0000C0F08BF95EA0C0F3FF43BAF94EA0C0FD5
:1009F0000AD150EA01347FF434AF95EA0C0F7FF44A
:100A000025AF104619462CE795EA0C0F06D152EA9D
:100A100003353FF4FDAE1046194622E750EA410681
:100A200018BF52EA43067FF4C5AE50EA41047FF492
:100A30000DAF52EA43057FF4EBAE12E74FF0FF3CF7
:100A400006E000BF4FF0010C02E000BF4FF0010CC8
:100A50004DF804CD4FEA410C7FEA6C5C4FEA430C41
:100A600018BF7FEA6C5C1BD001B050EA410C0CBF90
:100A700052EA430C91EA030F02BF90EA020F0020F2
:100A8000704710F1000F91EA030F58BF994208BF59
:100A900090422CBFD8176FEAE37040F00100704716
:100AA0004FEA410C7FEA6C5C02D150EA013C07D16D
:100AB0004FEA430C7FEA6C5CD6D152EA033CD3D0B8
:100AC0005DF8040B704700BF8446104662468C46B2
:100AD0001946634600E000BF01B5FFF7B7FF0028E5
:100AE00048BF10F1000F01BD4DF808EDFFF7F4FF0E
:100AF0000CBF012000205DF808FB00BF4DF808ED99
:100B0000FFF7EAFF34BF012000205DF808FB00BFBB
:100B10004DF808EDFFF7E0FF94BF012000205DF8DD
:100B200008FB00BF4DF808EDFFF7CEFF94BF012092
:100B300000205DF808FB00BF4DF808EDFFF7C4FF8B
:100B400034BF012000205DF808FB00BF4FEA410CD4
:100B50007FEA6C5C02D150EA013C0AD14FEA430CB7
:100B60007FEA6C5C02D152EA033C02D14FF00000F4
:100B700070474FF0010070474FEA410212F5001232
:100B800015D211D56FF47873B3EB625212D94FEAD4
:100B9000C12343F0004343EA505311F0004F23FABE
:100BA00002F018BF404270474FF00000704750EA13
:100BB000013005D111F0004008BF6FF000407047D0
:100BC0004FF00000704700BF4A0011D212F500122A
:100BD00011D20DD56FF47873B3EB62520ED44FEA95
:100BE000C12343F0004343EA505323FA02F0704715
:100BF0004FF00000704750EA013002D14FF0FF3053
:100C000070474FF0000070474FEA4102B2F1E043F5
:100C100024BFB3F5001CDCF1FE5C0DD901F0004CE3
:100C20004FEAC0024CEA5070B2F1004F40EB830033
:100C300008BF20F00100704711F0804F21D113F15F
:100C40003872BCBF01F00040704741F480114FEA98
:100C50005252C2F11802C2F1200C10FA0CF320FA21
:100C600002F018BF40F001004FEAC1234FEAD3233E
:100C700003FA0CFC40EA0C0023FA02F34FEA4303A8
:100C8000CCE77FEA625307D150EA01331EBF4FF031
:100C9000FE4040F44000704701F0004040F0FE404C
:100CA00040F40000704700BF80F0004002E000BF49
:100CB00081F0004142001FBF5FEA410392EA030F47
:100CC0007FEA226C7FEA236C6AD04FEA1262D2EB91
:100CD0001363C1BFD218414048404140B8BF5B4296
:100CE000192B88BF704710F0004F40F4000020F02F
:100CF0007F4018BF404211F0004F41F4000121F045
:100D00007F4118BF494292EA030F3FD0A2F101028E
:100D100041FA03FC10EB0C00C3F1200301FA03F1CC
:100D200000F0004302D5494260EB4000B0F5000FEF
:100D300013D3B0F1807F06D340084FEA310102F1AE
:100D40000102FE2A51D2B1F1004F40EBC25008BF60
:100D500020F0010040EA03007047490040EB00002A
:100D6000013A28BFB0F5000FEDD2B0FA80FCACF12B
:100D7000080CB2EB0C0200FA0CF0AABF00EBC25058
:100D800052421843BCBFD0401843704792F0000F46
:100D900081F4000106BF80F400000132013BB5E799
:100DA0004FEA41037FEA226C18BF7FEA236C21D00F
:100DB00092EA030F04D092F0000F08BF0846704774
:100DC00090EA010F1CBF0020704712F07F4F04D142
:100DD000400028BF40F00040704712F100723CBF55
:100DE00000F50000704700F0004343F0FE4040F47F
:100DF000000070477FEA226216BF08467FEA23633D
:100E00000146420206BF5FEA412390EA010F40F427
:100E1000800070474FF0000304E000BF10F0004373
:100E200048BF40425FEA000C08BF704743F096435A
:100E300001464FF000001CE050EA010208BF704775
:100E40004FF000030AE000BF50EA010208BF7047FC
:100E500011F0004302D5404261EB41015FEA010C11
:100E600002BF84460146002043F0B64308BFA3F109
:100E70008053A3F50003BCFA8CF2083AA3EBC253EB
:100E800010DB01FA02FC634400FA02FCC2F120020A
:100E9000BCF1004F20FA02F243EB020008BF20F041
:100EA0000100704702F1200201FA02FCC2F12002A7
:100EB00050EA4C0021FA02F243EB020008BF20EA9C
:100EC000DC7070477BB972B90029BEBF00204FF0BB
:100ED000004106E008BF00281CBF6FF000414FF042
:100EE000FF3000F0F1B9ADF1080C6DE904CE002936
:100EF00009DB002B1ADB00F083F8DDF804E0DDE904
:100F0000022304B07047404261EB4101002B1BDB20
:100F100000F076F8DDF804E0DDE9022304B0404299
:100F200061EB4101524263EB43037047524263EB72
:100F3000430300F065F8DDF804E0DDE9022304B0C6
:100F4000404261EB41017047524263EB430300F0C2
:100F500057F8DDF804E0DDE9022304B0524263EB08
:100F60004303704753B94AB9002908BF00281CBF82
:100F70004FF0FF314FF0FF3000F0A6B9ADF1080C93
:100F80006DE904CE00F03CF8DDF804E0DDE9022371
:100F900004B0704738B50022002304460D46FFF721
:100FA000ADFD28B920462946BDE8384000F00AB812
:100FB000204605F1004100F005F8404261EB410197
:100FC00038BD00BFD0B50C4B002206460F46FFF7D8
:100FD00023FBFFF7F9FD0446FFF7A4FA074B0022B5
:100FE000FFF71AFB02460B4630463946FFF75CF91D
:100FF000FFF7EAFD2146D0BD0000F03D0000F041C2
:101000002DE9F047089E0D4604460F46002B4AD1B5
:101010008A42944665D9B2FA82F343B102FA03FCDC
:10102000C3F120029F4020FA02F217439C404FEA8E
:101030001C4E1FFA8CF5B7FBFEF1220C0EFB11774C
:1010400042EA074201FB05F090420AD91CEB02027A
:1010500001F1FF3780F01C81904240F21981023982
:101060006244121AA4B2B2FBFEF00EFB102244EA54
:10107000024400FB05F5A5420AD91CEB040400F16B
:10108000FF3280F00781A54240F2048164440238B7
:1010900040EA0140641B00211EB1DC400023C6E988
:1010A0000043BDE8F0878B4208D9002E00F0ED80A8
:1010B0000021C6E900050846BDE8F087B3FA83F1D0
:1010C000002949D1AB4202D3824200F2F880841A4F
:1010D00065EB030201201746002EE2D0C6E9004767
:1010E000DFE702B9FFDEB2FA82F3002B40F0908016
:1010F0008A1A4FEA1C471FFA8CFE0121B2FBF7F552
:1011000007FB1520220C42EA00420EFB05F090423C
:1011100008D91CEB020205F1FF3802D2904200F21E
:10112000CB804546121AA4B2B2FBF7F007FB10229F
:1011300044EA02440EFB00FEA64508D91CEB040459
:1011400000F1FF3202D2A64500F2BB801046A4EBAC
:101150000E0440EA05409FE7C1F120078B4022FAC8
:1011600007FC4CEA030C05FA01F420FA07F3FD40F2
:101170004FEA1C492343B5FBF9F81FFA8CFE09FB23
:1011800018551C0C44EA054408FB0EF5A54202FA6A
:1011900001F200FA01F00BD91CEB040408F1FF3A4C
:1011A00080F08880A54240F28580A8F1020864445E
:1011B000641B9DB2B4FBF9F309FB134445EA0444F4
:1011C00003FB0EFEA64508D91CEB040403F1FF3512
:1011D0006CD2A6456AD9023B644443EA0843A3FBA8
:1011E0000295A4EB0E04AC42C846AE4656D353D08B
:1011F00056B1B0EB080264EB0E0404FA07F7CA40DC
:10120000CC401743C6E9007418460021BDE8F087BA
:10121000C3F1200102FA03FC20FA01F225FA01F1E0
:101220009D402A434FEA1C471FFA8CFEB1FBF7F0A2
:1012300007FB1015110C41EA054100FB0EF58D422C
:1012400004FA03F408D91CEB010100F1FF382FD296
:101250008D422DD902386144491B92B2B1FBF7F59A
:1012600007FB151142EA014205FB0EF1914208D934
:101270001CEB020205F1FF3816D2914214D9023D4F
:101280006244521A45EA004138E73146304608E7E1
:101290003946E6E61046FBE64845A9D2B9EB020816
:1012A00065EB0C0E013BA3E74546EAE72B4694E7C6
:1012B0004046D1E7D0467BE7023D624432E708462C
:1012C0000AE76444023842E7704700BF10B50F4C8C
:1012D0004FF0FF3384F83B3084F83C304FF6FF701A
:1012E000214604F13B0E11F8013B83EA102383EA07
:1012F000131C4FEA4C124CEA002382EA0C32534092
:101300007145A4F83B3098B2EDD110BD7C1300209C
:101310002DE9F04387B0002407460D46914601941D
:1013200008F0B0FA224B9A694CF2FA3142F040428E
:101330009A6102A81961012301A9CDE90243CDE90F
:10134000047308F085FB40BBC5EBC72707F10067B6
:101350004FEAD9090646083F02E0B14517D01E46BC
:10136000F5E8022305EB07080020414608F0D4FA0F
:10137000731C04460028F0D008F098FA41460D4846
:101380000EF0D0FD0124204607B0BDE8F08308F040
:101390008DFA204607B0BDE8F08308F087FA394699
:1013A00005480EF0BFFD204607B0BDE8F08300BF42
:1013B00000200240703501085C35010870B5124EFE
:1013C000B6F83B40FFF782FFB6F83B30A34201D1AD
:1013D000002070BD04253D2231467E20FFF798FF96
:1013E000044608B1013DF6D1074E04253D223146A1
:1013F0007F20FFF78DFF18B1013DF7D12043C4B224
:10140000601CC0B270BD00BF7C13002010B5154C2D
:101410003922002120460EF019FF134A44F8032C0C
:10142000231F012100204FF00002607161F343028D
:1014300004F8041C6FF01B000C2408214FF0230C4F
:101440009C715871DA714124E72019727122F521DB
:1014500083F80AC0DC73187683F8251083F83220ED
:1014600010BD00BF8013002017D94E3D2DE9F04775
:10147000424CC4F1006004F1010C04F13D0123462B
:1014800000F57C301A5C03F8012F9942FAD13C4EEA
:101490004FF6FF7E06F13B0216F8013B83EA1E235E
:1014A00083EA13177D0147EA0E2385EA07356B406F
:1014B00096421FFA83FEEFD1BCF83B60DFF8C48090
:1014C0002E4BA6EB0E07B7FA87F7A8EB0C087F099F
:1014D00018F8035003F8015F9942F9D1284D4FF6EF
:1014E000FF7915F8013B83EA192383EA131A4FEABF
:1014F0004A184AEA092388EA0A3888EA0303954227
:101500001FFA83F9EDD1BCF83B304B4515F83B3C55
:101510001FD0012B01D1764508D0FFF777FFFFF7E9
:101520004DFF012812D90320BDE8F087035D04F8C0
:10153000013FA142FAD1124D04243D2229467F20C9
:10154000FFF7E6FEB0B1013CF7D1ECE70220BDE8C1
:10155000F087012B47F00207DFD1022F0AD1084D97
:1015600004243D2229467E20FFF7D2FE10B1013C23
:10157000F7D1D8E70020BDE8F08700BF7B1300203B
:101580007C13002001F8030870B59D4E9D4C9E4DC4
:1015900030460EF02DFD21789C480EF0C3FCD4F8A7
:1015A0000100FEF7E1FF0B46024699480EF0BAFC37
:1015B000B4F8051097480EF0B5FC218996480EF056
:1015C000B1FC2A78A17A9548C2F3400201F00101EA
:1015D0000EF0A8FC2A78A17A9148C2F38302C1F3E5
:1015E00043010EF09FFC6A78A17A8E488E4D02F07E
:1015F0000102C1F340110EF095FCD4F80B00FEF788
:10160000B3FF0B46024689480EF08CFCE17B2A783A
:10161000874801F00101C2F340020EF083FC2A78F2
:10162000E17B8448C2F38302C1F343010EF07AFCEC
:101630006A78E17B804802F00102C1F340110EF0AC
:1016400071FCAA7AE17B7D487D4D02F00102C1F375
:1016500080110EF067FC2069FEF786FF02460B46FC
:1016600078480EF05FFC6069FEF77EFF0B4602468D
:1016700075480EF057FC217E2A78744801F001016C
:10168000C2F340020EF04EFC2A78217E7048C2F36D
:101690008302C1F343010EF045FC6A78217E6D4858
:1016A00002F00102C1F340110EF03CFCEA7C217E05
:1016B000694802F00102C9090EF034FCAA7A217EC1
:1016C0006648674D02F00102C1F380110EF02AFC5A
:1016D000D4F81900FEF748FF02460B4661480EF0A9
:1016E00021FCD4F82100FEF73FFF02460B465E487E
:1016F0000EF018FCD4F81D00FEF736FF0B4602462C
:101700005A480EF00FFC94F825102A78584801F03A
:101710000101C2F340020EF005FC6A7894F825102E
:10172000544802F00102C1F340110EF0FBFBEA7CC9
:1017300094F82510504802F00102C9090EF0F2FB9E
:10174000AA7A94F825104D484D4D02F00102C1F3DC
:1017500080110EF0E7FBD4F82600FEF705FF0246E5
:101760000B4648480EF0DEFBD4F82E00FEF7FCFED8
:1017700002460B4644480EF0D5FBD4F82A00FEF78B
:10178000F3FE0B46024641480EF0CCFB94F83210B3
:101790002A783F4801F00101C2F340020EF0C2FB7B
:1017A0006A7894F832103B4802F00102C1F340110C
:1017B0000EF0B8FBAA7A94F83210374802F0010212
:1017C000C1F380110EF0AEFBD4F83300FEF7CCFE6F
:1017D00002460B4631480EF0A5FBD4F83700FEF761
:1017E000C3FE02460B462E480EF09CFBB4F83B109D
:1017F0002C480EF097FB3046BDE870400EF0F8BB69
:101800008C3501087C13002034130020B03501080A
:10181000C8350108E0350108F8350108103601081F
:101820002C360108443601081C13002060360108DC
:101830007C36010898360108B0360108CC3601081C
:10184000F8120020E43601080037010818370108B3
:10185000343701084C37010868370108843701081C
:10186000B8120020A0370108BC370108D83701089A
:10187000F4370108103801082C38010848380108ED
:10188000DC12002064380108803801089C38010807
:10189000B8380108D4380108F03801080C390108BB
:1018A000283901084439010802480022012108F0C2
:1018B00047BA00BF00040048704700BF704700BF30
:1018C00010B5074C7F21204607F0D8FC0A2007F00E
:1018D0004BF820460349BDE81040052207F040BC04
:1018E000E00F002020020020234A9FED247A118877
:1018F000538890880B44D188128903440B441344C5
:101900009BB207EE903AF8EEE77A70B567EE877A09
:101910001B4EFCEEE77AB6F8A83007EE103A17EE49
:10192000903A9BB207EE903AB8EEC77AF8EE677A33
:1019300077EE677A17EE900AFEF716FE0CA3D3E94E
:101940000023FEF769FE0446B6F8CA000D46FEF70E
:10195000F9FD02460B4620462946FEF787FF094B54
:101960000022FEF7A3FCFFF74FF900EE100A70BD4E
:10197000333333333333114020020020CDCC4C3E7F
:101980000075FF1F00003940F8B50F46017801B11E
:10199000F8BD054614464FF4C7621E460EF056FCCD
:1019A0000722394605F225600EF077FCC5F830466F
:1019B000C5F8346654E8003F43F0200344E80032A1
:1019C000002AF7D101232B70F8BD00BF70B5064681
:1019D00012B3013AD0F830364C1E11FA82F504E009
:1019E00014F8012F1A85AC420FD0DA691206F7D429
:1019F00001200BF02BFBD6F83036DA691106F7D54B
:101A000014F8012F1A85AC42EFD1DB695B0600D5D3
:101A100070BD01200BF01AFBD6F83036F5E700BF99
:101A2000D0F83036DA69920613D59A8CB0F8DE35E4
:101A300040F2DA518B4210B592B2044604D8C11874
:101A400001334A70A0F8DE3506F088FFC4F8E005DF
:101A500010BD7047F8B5054600F2E45400F20C677B
:101A6000461C54F8041F304631B10EF085FC18B105
:101A7000D5F8343603B19847A742F2D1F8BD00BF7C
:101A800070B590F824660A2E2DD0044608460D46FF
:101A9000FEF7FEFB01300CF077FA06F5BD7644F850
:101AA000260094F8243603F5BD7354F82360D6B1AC
:101AB0002846FEF7EDFB2946024630460EF0EDFBC8
:101AC0002846FEF7E5FB94F8242602F5BD7203468E
:101AD00054F822200021D15494F8243601200344E4
:101AE00084F8243670BD002070BD00BF2DE9F04F92
:101AF00085B00446BDF838000F9FCDE9003023784B
:101B0000002B00F0B58094F82D3689461546002B41
:101B100040F09B80012384F82D36009B23B1019A6D
:101B2000009800210EF092FB10AE002F039623DDEB
:101B300004F20C6B4FF00108A246346804362046CC
:101B40000396FEF7A5FB01300CF01EFA21464BF878
:101B5000040F48B10EF000FD2046FEF799FBDBF8BC
:101B600000304FF000021A54474508F1010802D036
:101B7000B8F1060FE1D154464846FEF789FB4946C5
:101B800082B22046FFF722FF06F0E8FE5FFA87F9EF
:101B9000064606F0E3FE801BA8423BD201200BF074
:101BA00055FAB4F8DE35002BF3D006F0D7FED4F8A2
:101BB000E035C01A3228ECD92046FFF74BFF04F17C
:101BC000010BB9F1000F16D004F20C6A4FF00008B7
:101BD00004F1010B5AF8041F584661B10EF0CCFB1A
:101BE00008F10103002849D15FFA83F8C14502D00A
:101BF000B8F1050FEED140F2DC52002158460EF04C
:101C000025FB4FF00003A4F8DE3506F0A7FE801B8D
:101C1000A842C3D34FF00009002F0FDD00252E4648
:101C2000A84604EB86060135D6F81006EDB20CF096
:101C300041FABD42C6F810862E46F2DB0023484624
:101C400084F82D3605B0BDE8F08F06F087FE064615
:101C500006E00BF0FBF994F82D36002B3FF45AAF59
:101C600006F07CFE03469B1B9D424FF00100F0D81E
:101C70004FF0FF39484605B0BDE8F08F009B23B117
:101C80000146019A00980EF008FB40F2DC525846DB
:101C900000210EF0DBFA08F101080023A4F8DE357C
:101CA0004FFA88F9B8E700BF38B5037803B30446A4
:101CB00006F054FED4F8E435C01A312818D906F0DD
:101CC0004DFE94F82D36C4F8E405B3B106F046FE97
:101CD000054604E00BF0BAF994F82D366BB106F026
:101CE0003DFE03465B1B092B4FF00100F2D938BDC6
:101CF000BDE8384001200BF0A9B9B4F8DE35012267
:101D000084F82D261BB9002384F82D3638BD06F043
:101D100025FED4F8E035C01A3228F4D92046FFF762
:101D200099FE40F2DC520021601C0EF08FFA002375
:101D3000A4F8DE35E7E700BF10B54FEA400C86B0E7
:101D400008461FFA8CF19C46022341F28834019325
:101D500005AB029400930123644608F083FC28B984
:101D6000BDF814302380012006B010BD002006B05D
:101D700010BD00BF2DE9F04F838CA3F17602012A3C
:101D800087B004D90027384607B0BDE8F08F41F28C
:101D9000883202920D4600F1320259000123CDE94A
:101DA0000023044689B2806AD02208F05BFC002838
:101DB000E8D194F83230582B01D0602BE2D1A18CBD
:101DC000012742F2107205AEB6230292B940019784
:101DD00000968DF81430A06A89B23B46E02208F0E4
:101DE00015FB0028CED141F28838A38CA06A00965A
:101DF0005B0099B2CDE901780123F32208F032FCAF
:101E00009DF8143003F00103184310F0FF09ECD1E2
:101E1000CDF808800096A18C4FF0020ACDF804A0FE
:101E20004900A06A89B20123882208F01BFC0746FA
:101E30000028A7D1CDE901A80096A18CBDF81430E7
:101E400023804900A06A89B201238A2208F00AFC93
:101E5000002898D1CDE901A80096A18CBDF81430D6
:101E600063804900A06A89B201238C2208F0FAFB42
:101E70000746002886D1CDE901A80096A18CBDF8BF
:101E80001430A3804900A06A89B201238E2208F091
:101E9000E9FB00287FF477AFCDE901A80096A18C7B
:101EA000BDF81430E3804900A06A89B20123902272
:101EB00008F0D8FB00287FF465AFCDE901A80096B3
:101EC000A18CBDF8143023814900A06A89B2012396
:101ED000922208F0C7FB074600287FF453AFCDE9F4
:101EE00001A80096A18CBDF81420628101239940BD
:101EF000A06A89B2942208F0B5FB00287FF443AFB2
:101F0000BDF81430A381A16AA08C04F10E039622BF
:101F1000FFF712FF00283FF435AFA16AA08C04F14F
:101F200010039822FFF708FF00283FF42BAFA16AA7
:101F3000A08C04F112039A22FFF7FEFE00283FF462
:101F400021AFA16AA08C04F114039C22FFF7F4FED8
:101F500000283FF417AFA16AA08C04F116039E225B
:101F6000FFF7EAFE074600283FF40CAF94F8323042
:101F7000602B3BD0A18C00966B786A799B0043EA7A
:101F800042138DF8143042F210720123CDE9013270
:101F90004900A06A89B2F52208F038FA00287FF4D7
:101FA000F1AE2A78AB78E978012A4FEA830304BFBF
:101FB0002870024643EA41131A4394F83230602BEA
:101FC0005FFA82F87AD0A18CA06A0096012342F2CF
:101FD00010724900CDE9013289B2F4228DF81480E3
:101FE00008F014FA002818BF0027CCE64FF00109CA
:101FF00041F2883AA18CCDE9019A04F118030093CB
:102000004900A06A89B24B46A12208F02BFB0028A8
:102010007FF4B8AECDF808A00096A18C02230193FE
:102020004900A06A89B24B46E12208F01BFB002858
:102030007FF4A8AECDE9019ABDF81430A18C63837A
:1020400004F11C0300934900A06A89B24B46E322C5
:1020500008F008FB00287FF495AEA16AA08C0DF172
:102060001203E422FFF768FE00283FF48BAEA16A5A
:10207000A08C3346E522FFF75FFE00283FF482AED6
:10208000CDE9019AA18C04F1220200924900A06AD4
:102090004B4689B2E72208F0E5FA00287FF472AED9
:1020A000BDF81430BDF812201B092384130103F47A
:1020B0007F63C2F303221343E3835BE72B798DF83D
:1020C0001430009642F210720123A18CCDE9013246
:1020D0004900A06A89B2F22208F098F900283FF47A
:1020E00072AF4FE630B541F2883287B00125818C5E
:1020F000CDE901520DF116030093A940044689B2BF
:10210000806A2B46F42208F0ADFAE8B9A18C9DF85C
:1021100016C0A06A42F210730293A9400DF1170392
:102120002CF0030C4CEA050CCDE9003589B22B46A6
:10213000F4228DF816C08DF817C008F067F9B0FAD0
:1021400080F0400907B030BD002007B030BD00BFAF
:1021500010B5818C806A86B001230DF1170241F21F
:10216000883499400092CDE9013489B2F32208F015
:1021700079FA10B1002006B010BD9DF81700C0F329
:10218000C00006B010BD00BF2DE9F04F044690F826
:1021900032008FB06028884605921E4600F05481B8
:1021A000002B00F0568100221A6016460623019388
:1021B0000CAB0093A18C41F288320123029299402A
:1021C000A06A89B2F72208F04DFA002840F0388161
:1021D0009DF834309DF833209DF83510B4F90AC0CD
:1021E0009DF8307006971B0143EA0233228843EAC8
:1021F0001111C2EB131303FB03F5B4F904302D13D3
:1022000003FB05F55200B4F90230C2EBD10203FB27
:1022100002F2AD1305EBE22505EB850909F1800912
:102220004FEA2929E188B4F90820C8F800909DF800
:102230003180CDF81C809DF83280CDF82080B4F933
:102240001080CDF82480B4F90E80CDF82880A5F553
:10225000FA3EB4F90C80CDF82C808EFB0E894FEA43
:10226000EC7B0CFB09FA82FB0E2308FB0BAAACFBF0
:1022700008CBD3441B034FEA1C2C43EA12534CEA0D
:102280000B6C12031CEB020C43EB2B2303F50043F6
:10229000ACFB01C201FB0321CB174A1053EA6101D9
:1022A00000F089800899079F090941EA0711069FF4
:1022B00041EA07310A9F87FB0EEC099F4FEA4C4C1D
:1022C00007FB09F94FEAE77A4CEADE3C08FB0A9A79
:1022D0004FEA4E4EA7FB08981EEB090EC1F5801180
:1022E000C2444AEB0C0A0B9F10EB0E0001F0004EAB
:1022F0004EEA510EC907B1EB00080AEBC70A6EEBB4
:102300000A0E18EB080C4EEB0E011CEB080C4EEB02
:10231000010188014FEA8C1940EA9C601CEB090C12
:1023200041EB0001890041EA9C714FEA8C0C1CEBE7
:10233000080C4EEB01014FEA8C00890010EB0800FD
:1023400041EA9C714EEB0101FEF7BCFDB4F9162089
:102350004FEA613E4FEA503C4CEAC14CD31702FBB6
:102360000EF80CFB0389A2FB0C2802FB0EFEC844EE
:102370000CFB08EEA2FB0C2CF444520EB4F9143002
:1023800042EACC12121841EB6C6C4FEAE37E03FB7D
:1023900001F10EFB0011A3FB00300144DB0C43EA0A
:1023A0004133D0184CEBE14CB4F91230000A40EA4A
:1023B0000C6000EB0310059B1860002E4BD0BDF89D
:1023C0003630B4F91E2094F922105BBA9BB2120584
:1023D000C2EB8332B4F92030A5F5963505FB132204
:1023E000237F05FB03F305FB01F1DB12891203F5E3
:1023F000004301FB03F39B12B4F91A1003F5001319
:1024000001FB03F302F5804203F50053D2139B1343
:1024100002FB03F3DA13217E02FB02F2D21101FB6D
:1024200002F2A3EB221323EAE373B3F1C85FA8BF60
:102430004FF0C8531B13012033600FB0BDE8F08F7D
:1024400000200FB0BDE8F08F002B14BF0823062337
:10245000ADE60623ABE601200FB0BDE8F08F00BF6C
:1024600070B50D4684B016460BB31C4602AA03ABEA
:1024700001A9FFF789FE10B9002004B070BDDDEDA1
:10248000017A9FED177AF8EEE77AC7EE876A9DED3D
:10249000027ADDED037AC5ED006ABBEECC7AFBEE85
:1024A000CB7A86ED007AC4ED007A04B070BD02AA42
:1024B00001A9FFF769FE0028DED0DDED017ADFED2E
:1024C000086AF8EEE77A87EEA67ADDED027A85ED06
:1024D000007AFBEECC7AC6ED007A04B070BD00BF86
:1024E0000000C84270B51548154E0DF01BFD0525BE
:1024F00040F2DC530322D621304608F0DBF90446D3
:1025000032200AF0A3FD4FF4FA7044B10AF09EFDA8
:10251000013DEDD10B480DF06BFD284670BD0A481A
:102520000DF066FDD62380222E21054805F006FD1C
:1025300001200AF08BFD012070BD00BF5839010851
:10254000B0100020783901087039010800B583B057
:10255000D6230DF106023B21044805F0D9FCBDF855
:10256000060005F069FD03B05DF804FBB010002023
:1025700000B583B0D6230DF106023D21044805F0D5
:10258000C7FCBDF8060005F057FD03B05DF804FB7D
:10259000B010002000B583B0D6230DF1060237211C
:1025A000044805F0B5FCBDF8060005F045FD03B094
:1025B0005DF804FBB010002000B583B0D6230DF108
:1025C00006023921044805F0A3FCBDF8060005F019
:1025D00033FD03B05DF804FBB010002000B583B0FC
:1025E000D6230DF106023121044805F091FCBDF817
:1025F000060005F021FD03B05DF804FBB0100020DB
:1026000000B583B0D6230DF106023321044805F04E
:102610007FFCBDF8060005F00FFD03B05DF804FB7C
:10262000B010002000B587B001230DF117024FF460
:10263000FA71CDE901310092D6210022084808F054
:1026400011F89DF8173003F03F03C3EB431203EB7F
:102650008200400000F6C41080B207B05DF804FBB1
:10266000B010002000B583B0D6230DF10602012181
:10267000064805F04DFCBDF8060005F0DDFC00EB5A
:102680008000400080B203B05DF804FBB010002071
:1026900000B583B0D6230DF106020321064805F0EC
:1026A00037FCBDF8060005F0C7FC00EB80004000D9
:1026B00080B203B05DF804FBB01000200246D623C0
:1026C000024802F03F02002105F038BCB0100020A3
:1026D000074B10B5A3FB0030C00805F0ADFCBDE80A
:1026E00010400246D6230348012105F03BBC00BF41
:1026F000CDCCCCCCB0100020074B10B5A3FB0030E4
:10270000C00805F099FCBDE810400246D6230348F6
:10271000032105F027BC00BFCDCCCCCCB0100020ED
:102720000246D6230148052105F008BCB010002060
:1027300010B505F081FCBDE810400246D6230248E2
:10274000062105F00FBC00BFB01000200246D623C2
:102750000148102105F0F2BBB01000200246D6233C
:102760000148182105F0EABBB010002010B50C4C50
:1027700082B0D6230DF107021021204605F0B4FBEC
:102780000DF107000122032105F002FC9DF807204E
:10279000D6231021204605F0D1FB02B010BD00BFAA
:1027A000B010002030B50C4D83B0D62304460DF197
:1027B00007021521284605F097FB22460DF1070078
:1027C000002105F0E5FB9DF80720D62315212846BA
:1027D00005F0B4FB03B030BDB010002010B5531CA1
:1027E0001446034892B20AF037F8204610BD00BFE5
:1027F000D0110020034B834200D070470249402291
:102800000AF06CB9D011002074020020034B8342FF
:1028100000D07047024940220AF060B9D011002070
:1028200074020020F0B5124E3378E3B1114D3746F3
:10283000C0F1000E0246BC4603E01378ABB11CF8B1
:10284000013FE95C01F0030101290EEB020412F8DB
:10285000011B08BF20339942EFD017F8013F0EF15A
:10286000010E002BE6D11846F0BD01343019F0BD41
:102870002C020020C9550108F8B50778202F08BFA1
:102880004778064608BF0136F7B13D46002404E00C
:1028900016F8015F0CEB40043DB1A5F1300C5FFA76
:1028A0008CF0092804EB8400F2D92D2F00D164426A
:1028B000944201DB9C4204DD04480DF099FB304654
:1028C000F8BD0C603046F8BD3C46F1E7843901089C
:1028D00030B52DED028B0378202B83B00446B0EE8B
:1028E000408AF0EE608A0D4603D114F8013F202B98
:1028F000FBD001A920460CF0E9FAB4EEC80AF1EECB
:1029000010FA04DBB4EEE80AF1EE10FA07D9074832
:102910000DF06EFB204603B0BDEC028B30BD2046AF
:1029200085ED000A03B0BDEC028B30BD843901088F
:1029300000B59FED357B83B0354B36488DED007B80
:1029400000220DF0EFFA34480DF0ECFA334B1B780F
:10295000032B06D8DFE803F05450024C30480DF04A
:1029600047FBFEF7C1FF10EE100AFDF7FDFD024622
:102970000B462C480DF0D6FAFFF7E8FD01462A4831
:102980000DF0D0FAFFF706FE014628480DF0CAFA0E
:10299000FFF712FE014626480DF0C4FAFFF7E8FDE6
:1029A000014624480DF0BEFAFFF718FE0146224802
:1029B0000DF0B8FAFFF724FE014620480DF0B2FAF8
:1029C000FFF730FE01461E480DF0ACFAFFF74AFE55
:1029D00001461C480DF0A6FAFFF75AFE01461A48B8
:1029E0000DF0A0FA194803B05DF804EB0DF000BB40
:1029F00017480DF0FDFAB4E716480DF0F9FAB0E704
:102A000015480DF0F5FAACE7000000000000E03FCB
:102A10000000F03F90390108B43901087813002014
:102A2000D0390108F4390108103A0108203A0108A8
:102A3000303A0108403A0108543A0108643A010862
:102A4000783A01089C3A0108C03A0108FC50010894
:102A5000E439010800540108C839010800000000E9
:102A600010B59FED297B82B08DED007B284B294866
:102A7000294C00220DF056FA28480DF0B9FA2848E2
:102A80000DF0B6FA27480DF0B3FA27480DF0B0FA6A
:102A900026480DF0ADFA26480DF0AAFA25480DF0AB
:102AA000A7FA25480DF0A4FA24480DF0A1FA204613
:102AB0000DF09EFA22480DF09BFA22480DF098FA8C
:102AC00021480DF095FA21480DF092FA20480DF0BA
:102AD0008FFA20460DF08CFA1E480DF089FA1E4838
:102AE0000DF086FA1D480DF083FA20460DF080FAAD
:102AF0001B480DF07DFA204602B0BDE810400DF0F5
:102B000077BA00BFAFF30080000000000000E03F94
:102B10000000F03F90390108FC500108E43A010838
:102B2000F43A01082C3B0108783B0108CC3B010832
:102B3000203C01086C3C0108BC3C0108F83C010841
:102B4000303D0108443D0108683D0108943D0108FD
:102B5000B83D0108DC3D0108EC3D0108343E0108A8
:102B6000783E01082DE9F047A94C2DED028B236832
:102B70003F2B82B003D8A7495A1CC85422600A28A8
:102B800004D002B0BDEC028BBDE8F0872368A14DF4
:102B9000581E00212A5C0D2A18BF1846C0F14002B9
:102BA00028440DF053FB00239B482360FFF73AFEB7
:102BB0006B1C834200F0DD809848FFF733FE2F1D29
:102BC000874200F0D6809648FFF72CFEAE1D864265
:102BD00000F0E7809348FFF725FE05F107088045E0
:102BE00000F0E6809048FFF71DFE05F10B048442DB
:102BF00000F0C6808D48FFF715FE844200F0E280A9
:102C00008B48FFF70FFE05F10A09814500F0E180CE
:102C10008848FFF707FE814500F0E6808648FFF709
:102C200001FE05F10C0A824500F0E3808348FFF7BE
:102C3000F9FD844200F04C818148FFF7F3FD8642A4
:102C400000F076817F48FFF7EDFD804500F07A8146
:102C50007D48FFF7E7FD864200F04C827B48FFF796
:102C6000E1FD804500F055827948FFF7DBFD8245A4
:102C700000F056827748784DFFF7D4FD854200F08A
:102C800056827648FFF7CEFD854200F057827448A1
:102C9000FFF7C8FD6E1C86427CD07248FFF7C2FD6C
:102CA000854200F052827048FFF7BCFD864200F07A
:102CB00053826E48FFF7B6FD6D4B834200F053829E
:102CC0006C48FFF7AFFD824500F067826A48FFF766
:102CD000A9FD874200F039816848FFF7A3FD684BE2
:102CE000984205467FF44DAF6648FFF79BFD0028EC
:102CF0003FF447AFA0427FF444AF63490DF03CFB83
:102D00000646002840F08583604920460DF034FBDC
:102D1000002840F011855E4920460DF02DFB00286B
:102D20003FF42FAF5B4905F10B000DF025FB044686
:102D3000002840F06D85584905F10B000DF01CFB93
:102D400000283FF41EAF554A554B564801211170DB
:102D500002221A700DF04CF9534B1C8004F02CF930
:102D6000524B188802B0BDEC028BBDE8F04704F06E
:102D700085B802B0BDEC028BBDE8F047FFF770BE2E
:102D80004B480DF035F902B0BDEC028BBDE8F047C1
:102D9000FEF73CBB47480DF02BF9474B00221A7059
:102DA000EFE602B0BDEC028BBDE8F047FFF7C0BD17
:102DB0004248A022382102B0BDEC028BBDE8F047AA
:102DC00005F004B902B0BDEC028BBDE8F047FEF798
:102DD000DBBBFEF74BFB0146394802B0BDEC028B72
:102DE000BDE8F0470DF09EB8FEF7E8FA0146354819
:102DF000F3E701A943F6982300220AF10100FFF747
:102E00003BFD019B304A3148A2F8053099B2E4E716
:102E10006C0200202C0200208C3E0108903E01082C
:102E2000983E0108A03E0108A83E0108D03E0108D6
:102E3000DC3E0108103F01085C3F01087C3F0108AF
:102E40009C3F0108A43F0108AC3F0108B43F0108C2
:102E5000BC3F0108DC3F010839020020FC3F0108AB
:102E60001C4001083C4001085C4001087C4001080E
:102E70003402002088400108BC4001088047010856
:102E8000310200208847010890470108B84701082F
:102E9000E0470108E8470108184801080C00002035
:102EA000B9130020EC470108700200200414002030
:102EB000B43E01082C40010800000020041100204D
:102EC000E83E01081C3F01087C1300206C3F01080C
:102ED0002B7BB748202B03D110F8013F202BFBD0D0
:102EE00001A90BF0F3FFFAEE047AB4EEE70AF1EE73
:102EF00010FAB0EE408AC0F20481F2EE047AB4EE29
:102F0000E70AF1EE10FA00F2FC8010EE100AFDF76D
:102F10002BFB02460B46A74CA74818EE101AC4F824
:102F2000011002B0BDEC028BBDE8F0470CF0FABF17
:102F3000A2480122012102B0BDEC028BBDE8F0479E
:102F400006F0FEBE9D480022F4E79D48FFF76AFCAC
:102F50000546002840F00E819A48FFF763FC0028E0
:102F600040F07C819848FFF75DFC10B1A04200F072
:102F7000A7829648FFF756FC10B1484500F0388309
:102F80009348FFF74FFC002800F08081A0427FF4B7
:102F9000F8AD9048FFF746FC70B18F49854C0B782F
:102FA000227E8E4842F0010243F0020322760B702B
:102FB0000DF01EF8FEF702FA8948FFF733FC70B1F6
:102FC0007C49854B0C7E1A7886486FF341026FF37B
:102FD00000040C761A700DF00BF8FEF7EFF982483A
:102FE000FFF720FCF0B10523002201A94FF0FF34C8
:102FF0007E480194FFF740FC6E49774B019C087EA8
:103000001A7804F00F0565F3440065F3850208762D
:10301000E0B21A7002F014FE214675480CF082FFEF
:10302000FEF7CCF97348FFF7FDFB044618B1724B6D
:10303000984200F043847148FFF7F4FB044618B14E
:103040006F4B984200F082846E48FFF7EBFB04461A
:1030500000283FF496AD6C4B98427FF492AD6B49DB
:103060000DF08AF9B8B1F2EE040ABAEE040A01A929
:10307000E01DFFF72DFC584B4E490198C3F80F0097
:10308000C1F81D00FDF770FA02460B4660480CF0CF
:1030900049FFFEF793F95F495B480DF06DF970B198
:1030A0004D49444C8B7A227E5B4842F0400243F00B
:1030B000010322768B720CF09BFFFEF77FF95749D4
:1030C00051480DF059F900283FF45BAD3949424BA6
:1030D0000C7E9A7A52486FF386146FF300020C76D6
:1030E0009A720CF085FF02B0BDEC028BBDE8F04790
:1030F000FEF764B902B0BDEC028BBDE8F047FEF705
:10310000DBBB48489FED488A0CF072FF0022002389
:1031100001E702B0BDEC028BBDE8F047FEF7CEBB85
:1031200042480CF065FF424B01221A7029E54148E4
:103130000CF05EFF3E4B00221A7022E53E480CF078
:1031400057FF3E4B01221A701BE53D480CF050FF23
:103150003C4B01221A7014E53B480CF049FF394BF7
:1031600000221A700DE502B0BDEC028BBDE8F047FD
:1031700004F094BE04224FF461634FF0FF340DEB72
:1031800002010194FFF778FB019B032B7FF7F9AC59
:103190002E4A2F48138099B21FE62E480CF028FFC4
:1031A00004F006FE10F0FF013FF4EBAC2A4814E6F1
:1031B000380200207C130020883F010800040048EA
:1031C000C4400108E84001082C41010828420108D8
:1031D0005043010834410108F81200205843010807
:1031E0005441010870430108744101083C02002069
:1031F000884301089C41010843020020084401085B
:103200003D020020E84201083B020020AC410108D9
:1032100078440108D8410108984401080042010897
:10322000BC4401088439010800000000CC3F0108BB
:10323000B7020020EC3F01080C400108000000200C
:103240004C400108B60200206C400108C413002065
:10325000D040010898400108A84001084FF0FF3411
:1032600002232A4601A90194FFF706FB019C002CCA
:1032700040F35882012C00F07A82022C00F0D282B6
:10328000704A714B002111801C707AE46F48FFF77F
:10329000C9FA10B1A04200F0D1836D48FFF7C2FA1D
:1032A00000283FF419ADA0427FF416AD6948FFF73E
:1032B000B9FA80B16848694990F832200B7842F039
:1032C000010243F0020380F8322065480B700CF0D5
:1032D0008FFEFEF773F86348FFF7A4FA80B15E49EA
:1032E0005E4B91F832001A786FF300006FF34102E1
:1032F00081F832005C481A700CF07AFEFEF75EF836
:103300005A48FFF78FFA50B30823002201A94FF063
:10331000FF3557480195FFF7AFFA4F4A019D92F8E4
:1033200032104E4B05F00F0060F3440182F832106A
:103330001A7860F385021A7001F036F94D4A034697
:10334000DBB213704C4A002010704C4A137000F02E
:10335000ABFF29464A480CF0E5FDFEF72FF8494837
:10336000FFF760FA054618B1474B984200F05E84BB
:103370004648FFF757FA054600283FF4ADAC444BEA
:1033800098427FF4A9AC43490CF0F6FFB8B1DFEDE9
:10339000420A9FED420A01A9E81DFFF799FA2F4B57
:1033A0002D490198C3F80F00C1F83700FDF7DCF88C
:1033B00002460B463A480CF0B5FDFDF7FFFF3949D0
:1033C00033480CF0D9FF80B12449234C8B7A94F810
:1033D0003220354842F0400243F0010384F83220A5
:1033E0008B720CF005FEFDF7E9FF304928480CF020
:1033F000C3FF00283FF4C5AB1749184B91F8324082
:103400009A7A2B486FF386146FF3000281F83240EA
:1034100066E601A94FF4FA7301224FF0FF3405F17B
:103420000A000194FFF728FA224C0199224A064B20
:1034300021800025157089B2012220481A700CF0F5
:1034400071FD8DE470020020B9130020E0440108F2
:1034500054460108344101087C130020DC1200208E
:103460005C46010854410108744601087441010892
:103470003C020020BA130020BD130020BC13002022
:103480008C4601089C4101084302002008440108C1
:103490003D020020AC4101080000FA430000FAC3DD
:1034A00018470108D84101083847010800420108BF
:1034B0005C4701080E0000200C000020984701081E
:1034C000AD48FFF7AFF970B1AC4AAD48937A43F01D
:1034D00001039372AB4A137843F0020313700CF0AC
:1034E00087FDFDF76BFFA848FFF79CF970B1A34B70
:1034F000A6489A7A6FF300029A72A24B1A786FF379
:1035000041021A700CF074FDFDF758FFA048FFF758
:1035100089F9F8B14FF0FF310323002201919D4852
:1035200001A9FFF7A9F9954A019D917A954B05F0FC
:103530000F0060F3440191721A7860F385021A70EB
:1035400004F03AFE944B2946188094480CF0EAFCAB
:10355000FDF734FF9248FFF765F9054600283FF470
:1035600008AD904B98427FF404AD8F490CF004FFF6
:10357000B8B1F2EE040ABAEE040A01A9E81DFFF799
:10358000A7F9804B7D490198C3F80600C1F80B00EC
:10359000FCF7EAFF02460B4684480CF0C3FCFDF73B
:1035A0000DFF83497F480CF0E7FE70B17549734CFD
:1035B0004B78A27A7F4842F0200243F00103A272C6
:1035C0004B700CF015FDFDF7F9FE7B4975480CF0CA
:1035D000D3FE00283FF4D5AA68496A4B8C7A5A7802
:1035E00076486FF345146FF300028C725A7078E5D9
:1035F0006148FFF717F970B16049714ACB7B714898
:1036000043F00103CB73137843F0020313700CF003
:10361000EFFCFDF7D3FE5C48FFF704F970B1574AA1
:10362000674BD17B68486FF30001D1731A786FF351
:1036300041021A700CF0DCFCFDF7C0FE5448FFF7A5
:10364000F1F8E0B14FF0FF300123002201A9019011
:103650005E484A4DFFF710F9594B01991A78EF7BF4
:1036600001F00F0060F385021A70594B60F34407B4
:1036700058481970EF730CF055FCFDF79FFE484851
:10368000FFF7D0F8054618B1534B984200F0D080B0
:103690005248FFF7C7F800283FF472ACB0427FF4FD
:1036A0006FAC41490CF068FEB0B1F2EE040ABAEE1C
:1036B000040A01A94A48FFF70BF9414B2F49019829
:1036C000C3F80F004861FCF74FFF02460B46454820
:1036D0000CF028FCFDF772FE354943480CF04CFE17
:1036E00070B13749254C8B7AE27B404842F040026A
:1036F00043F00103E2738B720CF07AFCFDF75EFE7F
:103700002D4939480CF038FE00283FF43AAA1B49ED
:103710002B4BCC7B9A7A36486FF386146FF30002FA
:10372000CC73DDE4334B34481C7002B0BDEC028B2B
:10373000BDE8F0470CF05CBC4FF0FF304FF4FA737B
:10374000012201A9019005F10A00FFF795F80199FE
:103750002A482B4A274B018016702A48022289B238
:103760001A700CF0DFFB284B1E80FFF7F7BA2748D2
:103770000CF03EFC84E500BF344101087C130020BE
:103780003C41010834130020544101085C41010808
:10379000744101083C020020061400207C4101080D
:1037A0009C41010843020020AC410108B4410108DA
:1037B000D8410108DC410108004201080442010827
:1037C0001C13002030420108484201083B0200203F
:1037D000FD1300206042010842020020E842010877
:1037E00041020020F04201083A0200201043010883
:1037F00030430108B91300201C4101080E000020CD
:103800000C000020C047010870020020F4400108AD
:103810007249734A734801230B7013700CF0E8FB74
:10382000FFF79EBA70480CF07DFB03F0C5FB27E55F
:103830006E490CF0A1FDB0B1F2EE040ABAEE040A32
:1038400001A9E81DFFF744F8694B01981861694B1D
:10385000C3F80600FCF788FE02460B4666480CF0EB
:1038600061FBFDF7ABFD654965480CF085FD70B166
:103870005F49604ACB7B634843F02003CB735378A6
:1038800043F0010353700CF0B3FBFDF797FD5E4965
:103890005B480CF071FD00283FF4FAAE544A554BDA
:1038A000D17B5A486FF34511D1735A786FF30002F8
:1038B0005A700CF09DFBFDF781FDE9E64B490CF0D9
:1038C0005BFDB8B1F2EE040ABAEE040A01A9E01DEC
:1038D000FEF7FEFF4E4B46490198C3F80600C1F8BB
:1038E0001900FCF741FE02460B464A480CF01AFB51
:1038F000FDF764FD414948480CF03EFD70B1444974
:103900003B4C4B78227E454842F0200243F00103B5
:1039100022764B700CF06CFBFDF750FD3A493E48A7
:103920000CF02AFD00283FF486AB3149384B0C7E61
:103930005A783B486FF300026FF345140C765A70C7
:103940000CF056FBFDF73AFDFFF775BB27490CF06D
:1039500013FDB0B1DFED330A9FED330A01A9E01D7D
:10396000FEF7B6FF2A4B224901989861C1F8210061
:10397000FCF7FAFD02460B462C480CF0D3FAFDF793
:103980001DFD1E492A480CF0F7FC70B12049184C67
:10399000CB7C227E274842F0800243F0010322764E
:1039A000CB740CF025FBFDF709FD174920480CF0FE
:1039B000E3FC00283FF448AB0D49154B0C7EDA7C44
:1039C0001D486FF300026FF3C7140C76DA740CF025
:1039D0000FFBFDF7F3FCFFF737BB00BF0C00002027
:1039E000B9130020EC47010808410108AC41010867
:1039F0007C1300201C13002080420108D8410108DC
:103A000042020020A042010800420108C44201080D
:103A1000F81200209C43010843020020C043010823
:103A2000E44301080000FA430000FAC3104401080F
:103A30003D0200203044010854440108A148FEF72B
:103A4000F1FE80B1A048A14990F825200B7842F002
:103A5000010243F0020380F825209D480B700CF012
:103A6000C7FAFDF7ABFC9B48FEF7DCFE80B1964938
:103A7000964B91F825001A786FF300006FF341021E
:103A800081F8250094481A700CF0B2FAFDF796FC04
:103A90009248FEF7C7FEE0B10A23002201A94FF0C9
:103AA000FF358F480195FEF7E7FE874A019892F8A7
:103AB0002550864B00F00F0161F3440582F8255034
:103AC0001A78C0B261F385021A7004F02BFEFDF77C
:103AD00075FC8448FEF7A6FE054618B1824B984255
:103AE00000F02A818148FEF79DFE054610B1804B0B
:103AF000984251D07F48FEF795FE054600283FF4D6
:103B0000CCAB7D4B98427FF4C8AB7C490CF034FCC5
:103B1000B8B1F2EE040ABAEE040A01A9E81DFEF7F4
:103B2000D7FE6A4B68490198C3F80F00C1F82A0014
:103B3000FCF71AFD02460B4671480CF0F3F9FDF74D
:103B40003DFC70496C480CF017FC80B15F495E4C3D
:103B50008B7A94F825206C4842F0400243F0010330
:103B600084F825208B720CF043FAFDF727FC674997
:103B700061480CF001FC00283FF403A85249534B64
:103B800091F825409A7A62486FF386146FF3000229
:103B900081F82540FFF7A4BA58490CF0EDFBB0B10D
:103BA000DFED5C0A9FED5C0A01A9E81DFEF790FEBF
:103BB000454B46490198C3F82E008861FCF7D4FCB8
:103BC00002460B4655480CF0ADF9FDF7F7FB4D49A1
:103BD00047480CF0D1FB80B13B483C4990F8252088
:103BE000CB7C42F0800243F0010380F825204C4852
:103BF000CB740CF0FDF9FDF7E1FB44493C480CF0B7
:103C0000BBFB00283FF476AF2F49304B91F82500DD
:103C1000DA7C6FF3C7106FF3000281F8250041488A
:103C2000DA740CF0E5F9FDF7C9FB63E733490CF0F2
:103C3000A3FBB8B1F2EE040ABAEE040A01A9E81D2A
:103C4000FEF746FE204B38490198C3F83300C1F80F
:103C50000600FCF789FC02460B4634480CF062F97A
:103C6000FDF7ACFB274920480CF086FB80B11648D5
:103C70002D4990F832204B7842F0200243F00103A6
:103C800080F832202A484B700CF0B2F9FDF796FB11
:103C90001E4915480CF070FB00283FF469AB0A4937
:103CA000214B91F832005A786FF345106FF3000200
:103CB00081F832001F485A700CF09AF9FDF77EFB2C
:103CC000FFF756BB344101087C130020B8120020D6
:103CD000E844010854410108004501087441010805
:103CE0003C0200209C4101084302002008440108D6
:103CF0003D020020E84201083B020020AC410108DF
:103D0000EC450108D84101080C46010800420108B1
:103D1000304601080000FA430000FAC38445010858
:103D2000A4450108C8450108DC120020AC46010882
:103D3000D0460108F446010825490CF01DFBB8B136
:103D4000F2EE040ABAEE040A01A9E81DFEF7C0FD6E
:103D5000204B21490198C3F82600C1F80600FCF762
:103D600003FC02460B461D480CF0DCF8FDF726FB71
:103D70001B491C480CF000FB80B11648164990F80E
:103D800025204B7842F0200243F0010380F82520E3
:103D900015484B700CF02CF9FDF710FB1349114836
:103DA0000CF0EAFA00283FF49DAE0A490A4B91F85C
:103DB00025005A786FF345106FF3000281F8250053
:103DC0000B485A700CF014F9FDF7F8FA8AE600BFB8
:103DD000AC4101087C130020B812002018450108EE
:103DE000D8410108430200203C4501080042010877
:103DF00060450108154AB2F85A302DE9F041B2F891
:103E00005840134E9BB2E41A32884034A41A6342DD
:103E100003F03F0304F03F0458BF5C42A4B294B1E6
:103E200000250C4FA84600E03288B85C531C9BB2BA
:103E30003F2B05F10105338088BFA6F80080FEF70F
:103E400091FEA542F0D1BDE8F08100BFD011002065
:103E5000B40200207402002010B582B004F0F0F823
:103E6000144896230322EE2106F024FD0446642024
:103E700009F0ECF8BCB9EE230E480DF107020D2154
:103E800004F032F89DF80730102B05D00A480CF0EA
:103E9000AFF8204602B010BD08480CF0A9F8012484
:103EA000204602B010BD06480CF0A2F800242046BF
:103EB00002B010BD04110020284801081C48010868
:103EC0003448010800B58BB004F0BAF805ABFA210C
:103ED0001222CDE90121009310220123EE21354861
:103EE00006F0C0FB9DF815209DF814309DF81600D3
:103EF000110941EA03111202DB0902F470622E4B30
:103F000018BFA1F5805110434908D20A9DF8182026
:103F100019600CBF5860A0F580519DF8170018BFBC
:103F2000596012019DF8191042EA003242EA11105C
:103F3000D20C18BFA0F580109860BDF81A200904B3
:103F400052BA01F4702192B20A43C90C18BFA2F50B
:103F50008012DA60BDF81C2052BA91B2120448BF38
:103F6000A1F580311961BDF81E2052BA91B210043A
:103F700048BFA1F580315961BDF8202052BA91B2F5
:103F8000120448BFA1F580319961BDF8222052BAD0
:103F900091B2100448BFA1F58031D961BDF8242049
:103FA00052BA91B2120448BFA1F5803119620BB028
:103FB0005DF804FB04110020B80200202DE9F04157
:103FC000134F86B001240DF117054FF0FA0806468D
:103FD00004F036F82346CDE9014800950922EE2188
:103FE000384606F03FFB32462146284603F0D0FF14
:103FF00023460922EE21CDE901480095384606F016
:1040000005FA204609F022F806B0BDE8F08100BFAD
:10401000041100202DE9F041134F86B001240DF169
:1040200017054FF0FA08064604F00AF82346CDE9D2
:1040300001480095EE210922384606F013FB32466E
:104040002846F02103F0BAFF23460922EE21CDE9EC
:1040500001480095384606F0D9F9204608F0F6FFE9
:1040600006B0BDE8F08100BF0411002070B586B035
:1040700001240DF11705FA2603F0E2FF2346CDE9EE
:10408000014607220095EE21114806F0EBFA0DF1EA
:10409000160328220093CDE901462346EE210C4861
:1040A00006F0E0FA9DF91630002BACBF0022224644
:1040B0002846072103F06CFF0123FA22CDE90132E3
:1040C00000950722EE21024806F0A0F906B070BD67
:1040D0000411002070B586B004460D460DF1170698
:1040E00003F0AEFF0123FA22CDE901322544009608
:1040F0000722EE2130488DF8175006F087F9072C7B
:1041000009D8DFE804F02B3F44494E5304262B4BDB
:104110004FF47E221A600124FA23CDE90143EE21F7
:10412000092225480096234606F09CFA22460321E0
:10413000304603F02DFF0123FA21CDE90131092298
:10414000EE2100961C4806F061F9FFF78FFF06B0DC
:1041500070BD1A4B4FF4FF121A60DCE7174B4FF497
:1041600000221A600123FA22CDE9013200960922C9
:10417000EE21114806F076FA00220321304603F0C2
:1041800007FFD8E70D4B4FF4C0121A60EAE70B4B5C
:104190004FF460121A60E5E7084B4FF4F0021A6022
:1041A000E0E7064B4FF478321A60B4E7034B4FF464
:1041B000FC221A60AFE700BF04110020E0020020DB
:1041C00070B586B004460D460DF1170603F038FFB2
:1041D0000123FA22CDE90132254400960622EE2180
:1041E0002F488DF8175006F011F9072C09D8DFE891
:1041F00004F0293D42474C5104242A4B4FF47E22BF
:104200001A600124FA23CDE90143EE210922244852
:104210000096234606F026FA22460221304603F095
:10422000B7FE0123FA22CDE9013200960922EE21E0
:104230001B4806F0EBF806B070BD1A4B4FF4FF12A6
:104240001A60DEE7174B4FF400221A600123FA22AE
:10425000CDE9013200960922EE21114806F002FA5A
:1042600000220221304603F093FEDAE70D4B4FF4B3
:10427000C0121A60EAE70B4B4FF460121A60E5E7D0
:10428000084B4FF4F0021A60E0E7064B4FF4783227
:104290001A60B6E7034B4FF4FC221A60B1E700BF87
:1042A00004110020DC020020F0B587B0012405468F
:1042B000FA2703F0C5FE0DF11606A5238DF816307A
:1042C000CDE901472B48009623460E22EE2106F049
:1042D0009DF8C8B128460021FFF7FCFE03F0B0FEB0
:1042E00001230DF11702FA21CDE9013102240092D8
:1042F000EE2108221F488DF8174006F087F8204667
:1043000008F0A4FE07B0F0BD96238DF81630CDE975
:1043100001471848009623460F22EE2106F076F852
:104320000028D7D102238DF81630CDE90147114876
:10433000009623466222EE2106F068F80028C9D1D3
:104340008DF81600CDE901470A48009623460E2253
:10435000EE2106F05BF80028BCD18DF81600CDE9FF
:104360000147009623460F22EE21024806F04EF840
:10437000B0E700BF04110020102303FA00F014304E
:10438000704700BF10B588B004460591FFF79AFD4D
:104390000598FFF73FFE2046FFF710FE03F050FEA2
:1043A00001230DF11F02FA21CDE901310092EE2126
:1043B0000822002404488DF81F4006F027F8022048
:1043C00008F044FE08B010BD0411002010B5002113
:1043D00086B0FFF77FFE03F033FE01230DF11702D5
:1043E000FA21CDE9013102240092EE21082205488C
:1043F0008DF8174006F00AF8204608F027FE06B0B0
:1044000010BD00BF04110020064B93ED017AD3EDDF
:10441000007AB8EEC77AF8EEE77AE7EE007AB0EE07
:10442000670A7047B802002000B5002187B0FFF787
:10443000C7FE03F005FE01230DF11702FA21CDE9B5
:1044400001310092EE21082205488DF8173005F061
:10445000DDFF022008F0FAFD07B05DF804FB00BFA5
:104460000411002000B587B003F0EAFD032205AB7C
:10447000FA21CDE901210093EE210123114806F034
:10448000F1F89DF815109DF816309DF8142003EBF7
:10449000012303EB0243DA0D0B4A92ED007AB8EEEA
:1044A000C77AF7EE006A86EE870A18BF03F17F43EA
:1044B00007EE903AF8EEE77A20EE270A07B05DF8AB
:1044C00004FB00BF04110020E002002000B52DED28
:1044D000028B87B0B0EE408A03F0B2FD05ABFA2143
:1044E0000322CDE90121009300220123EE212B4874
:1044F00006F0B8F89DF815109DF816309DF81420B8
:1045000003EB012303EB0243DA0D254A92ED007A17
:10451000244AB8EEC77AB7EE006AC6EE076A18BF3B
:1045200003F17F4392ED087AD2ED044A92ED074AF7
:1045300092ED056A07EE903AF8EEC73A92ED067AE8
:10454000F8EEE77AB8EEC75A66EEA76AF0EE457A5B
:10455000E3EEA67A92ED037AF8EEC75A92ED027A6C
:10456000E7EEA65AB8EEC77AF8EEE44AF0EE477ADC
:10457000E5EEA67AB8EEC44AB8EEC66AE4EE887AEA
:10458000A4EE266A26EE885AE5EE067AB0EE670AB1
:1045900007B0BDEC028B5DF804FB00BF04110020E6
:1045A000DC020020B802002008B507284DD8DFE85B
:1045B00000F00D161F28313A430428480BF018FD6F
:1045C0000721BDE80840084603F0F4BC24480BF07E
:1045D0000FFD0021BDE80840084603F0EBBC214870
:1045E0000BF006FD0121BDE80840084603F0E2BCDF
:1045F0001D480BF0FDFC0221BDE80840084603F011
:10460000D9BC1A480BF0F4FC0321BDE80840084669
:1046100003F0D0BC16480BF0EBFC0421BDE80840C9
:10462000084603F0C7BC13480BF0E2FC0521BDE8C7
:104630000840084603F0BEBC0F480BF0D9FC062129
:10464000BDE80840084603F0B5BC0C480BF0D0FCB0
:10465000BDE808400221072003F0ACBC5C4901081A
:10466000444801086C48010894480108BC48010806
:10467000E44801080C490108344901088849010847
:10468000704700BF704700BF2DE9F04385B030B1DF
:10469000054642F2107000F0ABFA044620B900243F
:1046A000204605B0BDE8F083DFF86890DFF8688049
:1046B0001449154800260227CDE902890197009682
:1046C00033464FF47A72FDF711FA012802D000F058
:1046D000A9FAE4E70D490E482A460BF091FC0C4973
:1046E000CDF80C90CDE90178009633464FF47A72FC
:1046F000A1F5C760FDF7FAF90128E8D100F092FAB8
:10470000CEE700BFC0490108EC020020F4490108CF
:1047100024090020E0490108EC4901082DE9F04393
:1047200042F2107085B000F063FA044618B92046D2
:1047300005B0BDE8F083DFF8D8902C4E2C4F2D4902
:104740004FF000080225434641F28832CDE9027657
:104750000195CDF800804846FDF7C8F94FF4FA609E
:1047600008F074FCCDE90276CDE90085224A2349A0
:1047700043464846FDF7BAF9012814D14FF4FA60D0
:1047800008F064FC1E4B029340F2CC53CDE9003597
:104790001C49039609F5C7634FF47A724846FDF742
:1047A000A5F9012809D0184B0024A3F83C4C00F0CF
:1047B00039FA204605B0BDE8F08309F636421349C0
:1047C000C9F8368CA2F2FE50C9F83A8CC9F83E8C72
:1047D000C9F8428C0BF034FC40F20113A9F8343CC8
:1047E00000F020FA204605B0BDE8F083E04901085A
:1047F000EC490108104A0108905F0100204A0108B5
:10480000404A0108304A0108E4020020504A0108E9
:10481000EC020020F0B51B4F97F83C3C85B01BB96B
:104820000024204605B0F0BD054642F210700E4649
:1048300000F0DEF904460028F2D02A461249334639
:1048400007F5C8600BF0DCFB104A114B0025CDE9E1
:1048500002320223CDE9005342F210722B4607F5D3
:10486000C86107F10800FDF741F9012805D000F003
:10487000D9F92C46204605B0F0BD00F0D3F920460A
:1048800005B0F0BDE4020020684A0108E0490108D3
:10489000EC49010870B5164D95F83C3C84B01BB945
:1048A0000024204604B070BD42F2107000F0A0F960
:1048B00004460028F4D00F4A0F4B1049CDE90232CC
:1048C00000260223CDE9006342F21072334605F15F
:1048D0000800FDF70BF9012805D000F0A3F93446D4
:1048E000204604B070BD00F09DF9204604B070BDB4
:1048F000E4020020E0490108884A01087C4A0108D6
:1049000030B585B030B1054642F2107000F070F954
:10491000044618B90024204605B030BD0F49104A9E
:10492000104BCDE9022140F2CC520221CDE9002109
:10493000A3F5C7600C4942F21072FDF7D7F80128C1
:1049400002D000F06FF9E5E7084906482A460BF067
:1049500077FB00F067F9204605B030BDE04901085B
:10496000A44A010824090020984A0108B04A010815
:1049700070B55A4982B004460BF0FEFC30B1584B7A
:104980001A796FF300021A7102B070BD55492046C2
:104990000BF0F2FCE8B14FF6FF740DF1060301AA2B
:1049A0005149ADF80440ADF806400BF049FBBDF9A4
:1049B00006304B49A3F10103B3FA83F30A795B098B
:1049C0009B0022F00C0243F0080313430B7102B06A
:1049D00070BD464920460BF0CFFC18B12C210BF0DE
:1049E0003DFCA0B9424920460BF0C6FC20B13C4B2F
:1049F000002283F85A2CC7E73E4920460BF0BCFC46
:104A0000054658B1364B012283F85B2CBCE70130D8
:104A100009F090FB324BA3F81A0CB5E73649204653
:104A20000BF0AAFC064618B12D4B83F8E15CABE70E
:104A3000204632490BF0A0FC04460028A4D04022B6
:104A400031462F480BF002FC402231462D480BF036
:104A5000FDFB2D4920460BF033FC2B4930460BF073
:104A60002FFC044600288FD0274930460BF028FC45
:104A7000002889D0031BDBB2402B2AD8022B8ABF27
:104A800003F1FF331A46DAB221461E480BF005FC4B
:104A90001D4900200BF014FC044600283FF474AFBD
:104AA000194900200BF00CFC00283FF46DAF031BEC
:104AB000DAB2402A0FD8022A01D9013AD2B2084DFF
:104AC000214605F54A600BF0E8FB012385F8E03C40
:104AD0005AE73F22D8E74022EFE700BFC44A010867
:104AE000E4020020D44A0108E04A0108F44A01081F
:104AF000004B01080C4B0108204B0108304B01080A
:104B0000840F0020440F0020404B0108F0B52D4DCC
:104B10002D4F2E4985B0002401262346CDE901679B
:104B2000009441F288322846FCF7E0FF2346CDE9A5
:104B30000167274900944FF47A722846FCF7D6FFA4
:104B40002346CDE90167234900944FF47A72284641
:104B5000FCF7CCFF23464FF47A72CDE901671E497A
:104B600000942846FCF7C2FF2146304601F0A4FA23
:104B7000022001F083FB032001F0EAFB174B0393B3
:104B8000174B02930223019316490094234641F2E6
:104B900088322846FCF7AAFF2346CDE9016712496F
:104BA00000944FF47A722846FCF7A0FFCDE9016724
:104BB0000E49009423464FF47A722846FCF796FF7C
:104BC00005B0F0BDEC020020EC490108444B01089F
:104BD0004C4B0108544B0108604B0108E0490108A7
:104BE000804B0108704B01088C4B01089C4B01085D
:104BF00070B5054603F0B2FE094E044603E0737833
:104C000053B108F023FA03F0A9FE031BAB424FF0A7
:104C10000100F4D3002070BD0120707070BD00BF92
:104C2000E4020020014B00225A707047E402002089
:104C300038B52E4C2078012854D0012280212C48F0
:104C400005F07EF840F6B83008F000FA40F6E4428D
:104C5000002120460BF0FAFA2649274B274A04F197
:104C60000800FCF791FE264904F10800FCF708FF54
:104C700010B90025284638BD224904F10800FCF788
:104C8000FFFE0028F5D0204904F10800FCF7F8FEEB
:104C90000028EED04FF6FF731C49A4F81A3C04F12B
:104CA0000800FCF7EDFE0028E3D0194904F10800E4
:104CB000FCF7E6FE0028DCD0164904F10800FCF7FA
:104CC000DFFE0028D5D0144904F10800FCF7D8FE17
:104CD00005460028CDD04FF47A7008F0B7F90123CB
:104CE0002370C7E70546284638BD00BFE402002010
:104CF000000C0048AC4B010871490008004400401A
:104D0000C44A0108B44B0108F44A0108004B0108E9
:104D10000C4B0108C04B0108304B01082DE9F0474E
:104D2000044684B000283DD03E4D2A7912F001039C
:104D300035D122F0600242F040024FF001083A4FB4
:104D40000297009339492A7105F10800CDF80480D3
:104D50004FF47A72FCF7CAFE404542D0402340F23D
:104D6000DC502B7108F072F940F6B83008F06EF99B
:104D7000DFF8B8A0052605F1080900230093CDE966
:104D800001874FF47A7251464846FCF7AFFE01287E
:104D900006F1FF3339D013F0FF06EED1304604B0F0
:104DA000BDE8F0871F4E204A33792049009023F058
:104DB0006003012743F02003CDE9017206F10800EA
:104DC00033714FF47A722346FCF790FEB8420546E1
:104DD0000DD03379384664F30003337104B0BDE875
:104DE000F08741232B71FFF791FE2046D7E740F271
:104DF000DC5008F02BF940F6B83008F027F9337989
:104E000064F3000328463371C9E741F2883008F0A3
:104E10001DF9FFF77BFE2B7943F0010320462B7130
:104E2000BDE700BFE4020020EC490108D04B0108B7
:104E300070B58EB003F092FD234E054603E0747802
:104E40006CB108F003F903F089FD401BB0F5FA6F6F
:104E50004FF00100F3D3002420460EB070BD1B4B71
:104E60001B4902930122727020230222CDE90032F5
:104E700003911848184906AB4FF47A72FCF736FED6
:104E8000012804D00023204673700EB070BD134972
:104E90000DF1160305AA06A80BF0D2F80228F1D1ED
:104EA000BDF91430632B0CD003EB83030C4A03EBE6
:104EB00083039B0082FB03121A44DB17C3EB22130C
:104EC000DCB2F470DEE700BFE4020020E44B01082E
:104ED000E0490108EC020020D84B0108EC4B010826
:104EE00043082184F0B5A54EA54C99B006F1080001
:104EF000FCF7DAFE03F032FD2368C01AB0F57A7FC2
:104F00001AD8A04C03F02AFD226842F21073801ACE
:104F1000984202D93379DD0764D49B4C03F01EFD1F
:104F200022684EF66023801A984203D93379DA0753
:104F300000F19C8019B0F0BD944D03F00FFD29786D
:104F4000327920600131C9B2500629702FD57478AA
:104F50006CBB0A2900F03A8102F01103012B00F02A
:104F6000AA8002F00903092B00F08A80D307C8D574
:104F7000B6F91A0C002880F2908096F8E03C012BDC
:104F800000F04C81D6F8E03C23F07F4323F0FF0390
:104F9000B3F5807F00F0A480B3F5803FB1D100234A
:104FA00086F8E23C00F0D4F9ABE73279B4709106B0
:104FB000D2D52B780A2BCFD1754A764B76497748D4
:104FC000CDE9023200240223CDE900434FF47A7286
:104FD00023462C70B470FCF789FD012800F027816E
:104FE0003279B9E703F0BAFC33792060D80710D5DD
:104FF0007378002B91D1FFF71BFF337913F0040373
:1050000007D1CDE90033664964484FF47A72FCF762
:105010006DFD7478002C80D1B6F8123C002B6AD15B
:105020003379DB077FF579AF96F83C3C002B3FF4F2
:1050300074AF57495B4B5948CDE9023102224023F6
:10504000CDE90032584908AB4FF47A72FCF74EFDB7
:10505000012800F0FD8096F83D3C002B3FF45DAF49
:105060000023A6F83C3C00F06FF956E703F076FC0D
:1050700073782060002B7FF45DAF01F011F859E7E1
:10508000337903F0F70213F004032DD042F002024B
:10509000327100F04DF9327968E780B201F0CCF955
:1050A00000285ED133794FF6FF72DF07A6F81A2C7D
:1050B0003FF563AF25E736493C4B3848CDE902312F
:1050C00002224023CDE90032394908AB4FF47A720D
:1050D000FCF70CFD012825D000F028F9327940E7D3
:1050E000012386F8E23C0CE763F34102327100F0E1
:1050F00021F932793AE72F4F02E0962C00F08180B7
:10510000A5B22846013401F097F90028F5D02846C9
:1051100001F07EF828483B4690E80600183000F081
:105120000BF9EAE7254904AA08A80AF089FF012833
:10513000D4D1234B049A9A4200F0AB80214A049BBD
:10514000934200F099801F4A9342C7D11E4B059AA3
:105150009A42C3D100F0E8F8327942F0100232717D
:10516000FFE6B6F81A0C01F053F8124B03F2D452D2
:1051700006CA03F2EC5000F0DFF893E7E4020020E7
:10518000D00F0020C80F0020D40F0020CC0F00202B
:10519000E0490108EC490108D04B0108EC0200206D
:1051A000404C01084C4C0108304A01080C4C0108E5
:1051B000004C010824090020F80E0020184C0108BA
:1051C0005245414453494D2050554B00374A384BC6
:1051D0003849CDE902320223CDE900434FF47A7217
:1051E00023462C7006F10800FCF780FC01283FF4F0
:1051F000DCAEB3780133DBB2092BB3701BD8327944
:10520000D5E600F0C5FF00F04BFF3379D9077FF5F5
:1052100084AE7378002B3FF407AF7EE62649002367
:10522000A1F1400086F8E03C00F090F8AAE62046A4
:10523000FFF774FDD4E63379012064F30003337182
:10524000FFF76CFD327900283FF4B1AEB470AEE6E2
:105250001A4A1B4908A80AF0F3FE012896F83D3CBB
:105260007FF4FBAE002B7FF458AE40F20113A6F89A
:105270003C3C00F067F850E6124A059991427FF4F1
:1052800062AF00F04FF83279049B42F010023271A5
:1052900059E7BDF81430592B7FF450AF00F040F8B7
:1052A000337943F01003337148E700BFE049010848
:1052B000EC490108D04B0108840F0020220F002088
:1052C000504A010850494E0070B5044603F046FBB1
:1052D0004FF47A73114E054603FB04F406E007F021
:1052E000B5FEFFF7FFFD33799B0709D403F036FBCA
:1052F00003465B1BA3424FF06400F0D3002070BD57
:105300000A24FFF7EFFD4FF4FA7007F09FFE631ECB
:1053100013F0FF04F5D1012070BD00BFE4020020AE
:10532000704700BF704700BF704700BF704700BFA5
:10533000704700BF704700BF82B002AB03E90600B0
:1053400002B07047704700BF704700BF704700BF92
:10535000704700BF08B5012007F078FEFBE700BFEB
:1053600030B597B04422002105A80AF06FFF002352
:105370004FF40070CDE90033CDE90233049305F01A
:10538000AFFB08B172B6FEE709220223059203259E
:105390004FF48032CDE90F35CDE9143301240723D2
:1053A000069205A80A22CDE912230A94119405F069
:1053B00079FC034608B172B6FEE70F22009221463F
:1053C00080226846CDE90152CDE9033305F07AFF2A
:1053D00008B172B6FEE717B030BD00BF80B500243B
:1053E000ACB003F09FFAFFF7BBFFCDE91544CDE960
:1053F0001744B04D1994EB6C43F00403EB64EB6C71
:1054000003F004030493049BEB6C43F08003EB6410
:10541000EB6C03F080030593059BEB6C43F00103F9
:10542000EB64EB6C03F001030693069BEB6C43F01B
:105430000203EB64EB6C03F00203202107930122CB
:105440004FF09040079B04F07BFC22469A4848F2BC
:10545000012104F075FC22464FF4C8514FF09040F2
:1054600004F06EFC012294484FF4907104F068FC43
:105470004FF002094FF400539048CDF85C9015A905
:105480000327CDE9153404F06DFB4FF440438B48FE
:10549000179415A9CDE9153704F064FB48F202030F
:1054A00015A94FF09040CDE91674159304F05AFBFE
:1054B000102315A94FF090400126CDE9164415930D
:1054C00004F050FB4FF4C15315A94FF09040CDE9C3
:1054D00017441593169604F045FB402315A94FF089
:1054E0009040CDE91646159304F03CFB48F2211399
:1054F0007148189415A9CDE91664159304F032FB90
:1055000041F202036C48159315A9CDE9164604F043
:1055100029FB40F60C436848159315A9CDE916748C
:105520004FF4807804F01EFB15A94FF090401894BA
:10553000CDE91666CDF8548004F014FB08236048CA
:10554000159315A9CDE9167404F00CFB4FF4007304
:105550005948189415A91593CDE9166904F002FB72
:10556000AB6C584F3343AB64AB6C574D3340224662
:10557000039305210B20039B03F0DEFE0B2003F0B9
:1055800019FF0C23CDE91544CDE91744CDE91944A1
:10559000C5E90244C5E90A44C5E910442C6185F80F
:1055A00020406C63EB6304244FF48023A5F818803B
:1055B0002846C5E90073EE6185F8306085F83860EB
:1055C000AE646C6103F0E2F908B172B6FEE703461F
:1055D00019943E4C1A930623CDE9154328467F23A0
:1055E000072515A9CDE9175303F0FEFA88B9384C01
:1055F000384B394D2062C4E90206C4E90400C4E90D
:1056000006002046C4E9003504F0F2FC18B172B679
:10561000FEE772B6FEE70146204605F003FA0146B2
:1056200008B172B6FEE7204605F026FA08B172B658
:10563000FEE72A4C2A4BE061C4E90150C4E903604B
:10564000C4E905004FF4003720462762236004F0C8
:10565000CFFC014608B172B6FEE7204605F0E2F93C
:10566000014608B172B6FEE7204605F005FA03468A
:1056700008B172B6FEE71B4CC4E90150C4E904331B
:10568000C4E906332046184BE6602762236004F025
:10569000AFFC014608B172B6FEE7204605F0C2F93C
:1056A00008B172B6FEE70F48002105F0E5F9E8B150
:1056B00072B6FEE7001002400004004800080048EF
:1056C000001C004800000450E00F0020000052C7FA
:1056D000B010002000540040471330000411002097
:1056E0000058004058110020005C0040804B814A67
:1056F0001861C3E90200C3E90600C3E908004FF4DA
:10570000E13718464FF00C08C3E90027C3F81480AE
:1057100007F046F9014608B172B6FEE75822CDE916
:105720000F00CDE91100CDE91300CDE90900CDE965
:105730000B000E9008900D900DEB02000AF086FD14
:1057400002254FF0040915A81595CDF8789005F0BD
:1057500045FF044608B172B6FEE7674B674E9A6D87
:1057600042F400329A659A6D02F400320192019A75
:10577000DA6C42F00102DA64DB6CCDF8209003F0C1
:105780000103CDE90B0002934FF0070908A94FF080
:105790009040CDE90955029BCDF8349007F0C8F947
:1057A0000823CDE9095508A901254FF09040089339
:1057B000CDF834900B940C9507F0BAF90EA9304649
:1057C000CDE90F44CDE913440E97CDF848801194EC
:1057D00007F0BEFB73684A4823F490437360B368D4
:1057E00023F02A03B36033682B433360454B0360D7
:1057F00040F20113838031211023FF26C0E90544C4
:10580000C0E902130562066103F04EFE08B172B6EC
:10581000FEE73D4C3D4B1990CDE91500CDE9170051
:10582000C4E90400C4E906000E90606023602046CD
:105830007F23E660A36006F00DF908B172B6FEE7BB
:10584000CDE91800ADF854008DF856002A4615A988
:10585000204606F049F908B172B6FEE72C4B0E93CC
:1058600020462A460EA906F0CDF9044608B172B6C4
:10587000FEE702460521252003F05EFD252003F00A
:1058800099FD244BDB68C3F30223C3F10702042A0A
:1058900003F1040128BF0422062988BFDC1E4FF053
:1058A000FF339340DB4303F00503A3401A4A1B0177
:1058B000DBB282F8263340235360184C0FCC0EAD78
:1058C0000FC554F8043B2B6000210EA807F0A2FB83
:1058D000134B18600FCC15AD0FC523682B6000214A
:1058E00015A807F097FB0F4B186007F08DFBFEE73C
:1058F000D011002000380140001002400044004058
:105900004410002000300240AC110020002800406C
:105910000101010700ED00E000E100E000350108B1
:10592000DC0F0020D80F002038B5074B04689C42DC
:1059300000D038BD054603F005F82B68A342F8D126
:10594000BDE8384001F0A2BA0014004072B6FEE78C
:10595000F0B53B4A3B4C127887B0002301A9ADF863
:1059600004308DF80630CDE90241374B064682B946
:10597000E52204A88DF800200493CDF814D000F09F
:1059800015FB0128054601D0C8B10225284607B0FD
:10599000F0BDF52204A88DF800200493CDF814D0B2
:1059A00000F0F6FA294A2A4B0546012D106837D037
:1059B000002D3DD1A3FB0030800907F047FB02A872
:1059C00000F0D8FA01280546E0D00028DDD1BDF866
:1059D00004E09DF806701F4C1F499EFA9EFE1FFAB8
:1059E0008EFC4FEA0C2C10224FF4000313EA0C0F2C
:1059F0001CBF04EA01008CEA000C013A4FEA530391
:105A00004FEA54044FEA5101F0D1674503D0032512
:105A1000284607B0F0BD2846A6F800E007B0F0BD64
:105A2000A3FB0030800907F011FB284607B0F0BD4A
:105A3000A3FB00308009022507F008FBA6E700BFA2
:105A40006412002080000300800001000400002098
:105A5000D34D62100080FF00008098002DE9F043D4
:105A600087B0DFF8E090334F334EA0240DF10408E7
:105A7000002510E019BB00F07DFA02340128E4B2E1
:105A800056D0E0B9BDF804305BBA29F8023F9BB2AA
:105A9000ABB1AE2C18D004A8CDE902788DF8004047
:105AA000ADF804500496CDF814D000F071FA014618
:105AB000012902A8DED1084607B0BDE8F083022123
:105AC000084607B0BDE8F0831C4CB4F800C0E08184
:105AD000CCF30B034FEA1C3E23800246C10746BFAE
