:020000040800F2
:1000000000000120393C0008DD310008E331000820
:10001000E9310008EF310008F53100080000000068
:10002000000000000000000000000000FB3100089C
:1000300009320008000000001732000825320008CD
:10004000893C0008893C0008893C0008893C00087C
:10005000893C0008893C0008893C0008893C00086C
:10006000893C0008893C0008893C000835320008BA
:10007000893C0008893C0008893C0008893C00084C
:10008000893C0008893C0008893C0008893C00083C
:10009000893C0008893C0008893C0008893C00082C
:1000A000893C0008893C0008893C0008893C00081C
:1000B000893C00080000000000000000893C0008A6
:1000C000893C0008893C0008893C0008893C0008FC
:1000D000893C0008493200085D320008893C00086C
:1000E000893C0008893C0008000000000000000076
:1000F0000000000000000000000000000000000000
:1001000000000000893C000800000000893C000855
:100110000000000000000000893C0008893C000845
:10012000893C0008893C0008893C0008893C00089B
:10013000893C0008000000000000000000000000F2
:10014000893C0008893C0008893C00080000000048
:10015000893C0008893C0008893C0008893C00086B
:10016000893C0008893C0008893C00080000000028
:10017000893C0008893C00080000000000000000E5
:0C018000893C0008893C0008893C00080C
:1001900010B5054C237833B9044B13B10448AFF3C1
:1001A00000800123237010BDF80100200000000032
:1001B000E4D3000808B5034B1BB103490348AFF370
:1001C000008008BD00000000FC010020E4D300080E
:1001D000034613F8012B002AFBD1181A0138704787
:1001E00001F0FF01102A2BDB10F0070F08D010F8E8
:1001F000013B013A8B422DD010F0070F42B3F6D1EC
:10020000F0B441EA012141EA014122F007047FF004
:1002100000070023F0E80256083C85EA010586EA5B
:10022000010685FA47F5A3FA87F586FA47F6A5FA97
:1002300087F68EB9EED1F0BC01F0FF0102F00702A3
:1002400032B110F8013B013A83EA010313B1F8D14E
:100250000020704701387047002D06BF354603382F
:10026000073815F0010F07D1013015F4807F02BF68
:10027000013015F4C03F0130F0BC0138704700BFB9
:1002800081F0004102E000BF83F0004330B54FEA47
:1002900041044FEA430594EA050F08BF90EA020FB4
:1002A0001FBF54EA000C55EA020C7FEA645C7FEA47
:1002B000655C00F0E2804FEA5454D4EB5555B8BF6A
:1002C0006D420CDD2C4480EA020281EA030382EADB
:1002D000000083EA010180EA020281EA0303362D6D
:1002E00088BF30BD11F0004F4FEA01314FF4801C40
:1002F0004CEA113102D0404261EB410113F0004F52
:100300004FEA03334CEA133302D0524263EB430308
:1003100094EA050F00F0A780A4F10104D5F1200EA6
:100320000DDB02FA0EFC22FA05F2801841F1000101
:1003300003FA0EF2801843FA05F359410EE0A5F1D5
:1003400020050EF1200E012A03FA0EFC28BF4CF006
:10035000020C43FA05F3C01851EBE37101F00045BC
:1003600007D54FF0000EDCF1000C7EEB00006EEBC9
:100370000101B1F5801F1BD3B1F5001F0CD3490853
:100380005FEA30004FEA3C0C04F101044FEA4452AA
:1003900012F5800F80F09A80BCF1004F08BF5FEA31
:1003A000500C50F1000041EB045141EA050130BD11
:1003B0005FEA4C0C404141EB0101013C28BFB1F523
:1003C000801FE9D291F0000F04BF01460020B1FA6E
:1003D00081F308BF2033A3F10B03B3F120020CDA41
:1003E0000C3208DD02F1140CC2F10C0201FA0CF01F
:1003F00021FA02F10CE002F11402D8BFC2F1200C84
:1004000001FA02F120FA0CFCDCBF41EA0C01904039
:10041000E41AA2BF01EB0451294330BD6FEA040482
:100420001F3C1CDA0C340EDC04F11404C4F120026D
:1004300020FA04F001FA02F340EA030021FA04F37F
:1004400045EA030130BDC4F10C04C4F1200220FAD6
:1004500002F001FA04F340EA0300294630BD21FA14
:1004600004F0294630BD94F0000F83F4801306BFDA
:1004700081F480110134013D4EE77FEA645C18BFCE
:100480007FEA655C29D094EA050F08BF90EA020F65
:1004900005D054EA000C04BF1946104630BD91EA5D
:1004A000030F1EBF0021002030BD5FEA545C05D160
:1004B0004000494128BF41F0004130BD14F580049F
:1004C0003CBF01F5801130BD01F0004545F0FE4113
:1004D00041F470014FF0000030BD7FEA645C1ABF48
:1004E000194610467FEA655C1CBF0B46024650EA7F
:1004F000013406BF52EA033591EA030F41F40021AB
:1005000030BD00BF90F0000F04BF0021704730B530
:100510004FF4806404F132044FF000054FF0000105
:1005200050E700BF90F0000F04BF0021704730B5C6
:100530004FF4806404F1320410F0004548BF40429B
:100540004FF000013EE700BF42004FEAE2014FEAF0
:1005500031014FEA02701FBF12F07F4393F07F4FCB
:1005600081F06051704732F07F4208BF704793F0CE
:100570007F4F04BF41F40021704730B54FF46074E1
:1005800001F0004521F000411CE700BF50EA0102E4
:1005900008BF704730B54FF000050AE050EA01028D
:1005A00008BF704730B511F0004502D5404261EBFD
:1005B00041014FF4806404F132045FEA915C3FF43E
:1005C000D8AE4FF003025FEADC0C18BF03325FEADB
:1005D000DC0C18BF033202EBDC02C2F1200300FA8C
:1005E00003FC20FA02F001FA03FE40EA0E0021FAB1
:1005F00002F11444BDE600BF70B54FF0FF0C4CF49F
:10060000E06C1CEA11541DBF1CEA135594EA0C0F50
:1006100095EA0C0F00F0DEF82C4481EA030621EA8B
:100620004C5123EA4C5350EA013518BF52EA0335C6
:1006300041F4801143F4801338D0A0FB02CE4FF078
:100640000005E1FB02E506F00042E0FB03E54FF0A8
:100650000006E1FB03569CF0000F18BF4EF0010EA0
:10066000A4F1FF04B6F5007F64F5407404D25FEA9C
:100670004E0E6D4146EB060642EAC62141EA55514F
:100680004FEAC52040EA5E504FEACE2EB4F1FD0C91
:1006900088BFBCF5E06F1ED8BEF1004F08BF5FEA0F
:1006A000500E50F1000041EB045170BD06F00046C1
:1006B00046EA010140EA020081EA0301B4EB5C046E
:1006C000C2BFD4EB0C0541EA045170BD41F4801166
:1006D0004FF0000E013C00F3AB8014F1360FDEBF8B
:1006E000002001F0004170BDC4F10004203C35DA67
:1006F0000C341BDC04F11404C4F1200500FA05F3EA
:1007000020FA04F001FA05F240EA020001F000428A
:1007100021F0004110EBD37021FA04F642EB060100
:100720005EEA430E08BF20EAD37070BDC4F10C042A
:10073000C4F1200500FA04F320FA05F001FA04F2EE
:1007400040EA020001F0004110EBD37041F10001DA
:100750005EEA430E08BF20EAD37070BDC4F12005E5
:1007600000FA05F24EEA020E20FA04F301FA05F24D
:1007700043EA020321FA04F001F0004121FA04F2F5
:1007800020EA020000EBD3705EEA430E08BF20EAC5
:10079000D37070BD94F0000F0FD101F000464000FF
:1007A00041EB010111F4801F08BF013CF7D041EA81
:1007B000060195F0000F18BF704703F00046520085
:1007C00043EB030313F4801F08BF013DF7D043EA56
:1007D0000603704794EA0C0F0CEA135518BF95EA0C
:1007E0000C0F0CD050EA410618BF52EA4306D1D193
:1007F00081EA030101F000414FF0000070BD50EAB2
:10080000410606BF1046194652EA430619D094EA3B
:100810000C0F02D150EA013613D195EA0C0F05D125
:1008200052EA03361CBF104619460AD181EA030179
:1008300001F0004141F0FE4141F470014FF0000031
:1008400070BD41F0FE4141F4780170BD70B54FF0CC
:10085000FF0C4CF4E06C1CEA11541DBF1CEA13554C
:1008600094EA0C0F95EA0C0F00F0A7F8A4EB05042E
:1008700081EA030E52EA03354FEA013100F0888025
:100880004FEA03334FF0805545EA131343EA1263EE
:100890004FEA022245EA111545EA10654FEA0026A3
:1008A0000EF000419D4208BF964244F1FD0404F55C
:1008B000407402D25B084FEA3202B61A65EB0305B8
:1008C0005B084FEA32024FF480104FF4002CB6EB75
:1008D000020E75EB030E22BFB61A754640EA0C00F5
:1008E0005B084FEA3202B6EB020E75EB030E22BF35
:1008F000B61A754640EA5C005B084FEA3202B6EB76
:10090000020E75EB030E22BFB61A754640EA9C0034
:100910005B084FEA3202B6EB020E75EB030E22BF04
:10092000B61A754640EADC0055EA060E18D04FEAC2
:10093000051545EA16754FEA06164FEAC30343EA62
:1009400052734FEAC2025FEA1C1CC0D111F4801F2F
:100950000BD141EA00014FF000004FF0004CB6E728
:1009600011F4801F04BF01430020B4F1FD0C88BFC7
:10097000BCF5E06F3FF6AFAEB5EB030C04BFB6EBD2
:10098000020C5FEA500C50F1000041EB045170BDC5
:100990000EF0004E4EEA113114EB5C04C2BFD4EBF2
:1009A0000C0541EA045170BD41F480114FF0000E76
:1009B000013C90E645EA060E8DE60CEA135594EAF2
:1009C0000C0F08BF95EA0C0F3FF43BAF94EA0C0FF5
:1009D0000AD150EA01347FF434AF95EA0C0F7FF46A
:1009E00025AF104619462CE795EA0C0F06D152EABE
:1009F00003353FF4FDAE1046194622E750EA4106A2
:100A000018BF52EA43067FF4C5AE50EA41047FF4B2
:100A10000DAF52EA43057FF4EBAE12E74FF0FF3C17
:100A200006E000BF4FF0010C02E000BF4FF0010CE8
:100A30004DF804CD4FEA410C7FEA6C5C4FEA430C61
:100A400018BF7FEA6C5C1BD001B050EA410C0CBFB0
:100A500052EA430C91EA030F02BF90EA020F002012
:100A6000704710F1000F91EA030F58BF994208BF79
:100A700090422CBFD8176FEAE37040F00100704736
:100A80004FEA410C7FEA6C5C02D150EA013C07D18D
:100A90004FEA430C7FEA6C5CD6D152EA033CD3D0D8
:100AA0005DF8040B704700BF8446104662468C46D2
:100AB0001946634600E000BF01B5FFF7B7FF002805
:100AC00048BF10F1000F01BD4DF808EDFFF7F4FF2E
:100AD0000CBF012000205DF808FB00BF4DF808EDB9
:100AE000FFF7EAFF34BF012000205DF808FB00BFDC
:100AF0004DF808EDFFF7E0FF94BF012000205DF8FE
:100B000008FB00BF4DF808EDFFF7CEFF94BF0120B2
:100B100000205DF808FB00BF4DF808EDFFF7C4FFAB
:100B200034BF012000205DF808FB00BF4FEA410CF4
:100B30007FEA6C5C02D150EA013C0AD14FEA430CD7
:100B40007FEA6C5C02D152EA033C02D14FF0000014
:100B500070474FF0010070474FEA410212F5001252
:100B600015D211D56FF47873B3EB625212D94FEAF4
:100B7000C12343F0004343EA505311F0004F23FADE
:100B800002F018BF404270474FF00000704750EA33
:100B9000013005D111F0004008BF6FF000407047F0
:100BA0004FF00000704700BF4FEA4102B2F1E0434E
:100BB00024BFB3F5001CDCF1FE5C0DD901F0004C44
:100BC0004FEAC0024CEA5070B2F1004F40EB830094
:100BD00008BF20F00100704711F0804F21D113F1C0
:100BE0003872BCBF01F00040704741F480114FEAF9
:100BF0005252C2F11802C2F1200C10FA0CF320FA82
:100C000002F018BF40F001004FEAC1234FEAD3239E
:100C100003FA0CFC40EA0C0023FA02F34FEA430308
:100C2000CCE77FEA625307D150EA01331EBF4FF091
:100C3000FE4040F44000704701F0004040F0FE40AC
:100C400040F40000704700BF80F0004002E000BFA9
:100C500081F0004142001FBF5FEA410392EA030FA7
:100C60007FEA226C7FEA236C6AD04FEA1262D2EBF1
:100C70001363C1BFD218414048404140B8BF5B42F6
:100C8000192B88BF704710F0004F40F4000020F08F
:100C90007F4018BF404211F0004F41F4000121F0A5
:100CA0007F4118BF494292EA030F3FD0A2F10102EF
:100CB00041FA03FC10EB0C00C3F1200301FA03F12D
:100CC00000F0004302D5494260EB4000B0F5000F50
:100CD00013D3B0F1807F06D340084FEA310102F10F
:100CE0000102FE2A51D2B1F1004F40EBC25008BFC1
:100CF00020F0010040EA03007047490040EB00008B
:100D0000013A28BFB0F5000FEDD2B0FA80FCACF18B
:100D1000080CB2EB0C0200FA0CF0AABF00EBC250B8
:100D200052421843BCBFD0401843704792F0000FA6
:100D300081F4000106BF80F400000132013BB5E7F9
:100D40004FEA41037FEA226C18BF7FEA236C21D06F
:100D500092EA030F04D092F0000F08BF08467047D4
:100D600090EA010F1CBF0020704712F07F4F04D1A2
:100D7000400028BF40F00040704712F100723CBFB5
:100D800000F50000704700F0004343F0FE4040F4DF
:100D9000000070477FEA226216BF08467FEA23639D
:100DA0000146420206BF5FEA412390EA010F40F488
:100DB000800070474FF0000304E000BF10F00043D4
:100DC00048BF40425FEA000C08BF704743F09643BB
:100DD00001464FF000001CE050EA010208BF7047D6
:100DE0004FF000030AE000BF50EA010208BF70475D
:100DF00011F0004302D5404261EB41015FEA010C72
:100E000002BF84460146002043F0B64308BFA3F169
:100E10008053A3F50003BCFA8CF2083AA3EBC2534B
:100E200010DB01FA02FC634400FA02FCC2F120026A
:100E3000BCF1004F20FA02F243EB020008BF20F0A1
:100E40000100704702F1200201FA02FCC2F1200207
:100E500050EA4C0021FA02F243EB020008BF20EAFC
:100E6000DC70704753B94AB9002908BF00281CBF7D
:100E70004FF0FF314FF0FF3000F074B9ADF1080CC6
:100E80006DE904CE00F006F8DDF804E0DDE90223A8
:100E900004B070472DE9F047089D04468E46002BAC
:100EA0004DD18A42944669D9B2FA82F252B101FA1E
:100EB00002F3C2F1200120FA01F10CFA02FC41EA2E
:100EC000030E94404FEA1C48210CBEFBF8F61FFAB3
:100ED0008CF708FB16E341EA034306FB07F199424E
:100EE0000AD91CEB030306F1FF3080F01F81994201
:100EF00040F21C81023E63445B1AA4B2B3FBF8F0DB
:100F000008FB103344EA034400FB07F7A7420AD961
:100F10001CEB040400F1FF3380F00A81A74240F289
:100F200007816444023840EA0640E41B00261DB1F4
:100F3000D4400023C5E900433146BDE8F0878B4229
:100F400009D9002D00F0EF800026C5E900013046E8
:100F50003146BDE8F087B3FA83F6002E4AD18B42C2
:100F600002D3824200F2F980841A61EB030301206C
:100F70009E46002DE0D0C5E9004EDDE702B9FFDE58
:100F8000B2FA82F2002A40F09280A1EB0C014FEA03
:100F90001C471FFA8CFE0126200CB1FBF7F307FB60
:100FA000131140EA01410EFB03F0884208D91CEB03
:100FB000010103F1FF3802D2884200F2CB804346A0
:100FC000091AA4B2B1FBF7F007FB101144EA01447F
:100FD0000EFB00FEA64508D91CEB040400F1FF310E
:100FE00002D2A64500F2BB800846A4EB0E0440EAFC
:100FF00003409CE7C6F12007B34022FA07FC4CEA05
:10100000030C20FA07F401FA06F31C43F9404FEAF7
:101010001C4900FA06F3B1FBF9F8200C1FFA8CFE0C
:1010200009FB181140EA014108FB0EF0884202FA60
:1010300006F20BD91CEB010108F1FF3A80F0888021
:10104000884240F28580A8F102086144091AA4B2DE
:10105000B1FBF9F009FB101144EA014100FB0EFE5F
:101060008E4508D91CEB010100F1FF346CD28E458E
:101070006AD90238614440EA0840A0FB0294A1EB1F
:101080000E01A142C846A64656D353D05DB1B3EB7C
:10109000080261EB0E0101FA07F722FA06F3F140AC
:1010A0001F43C5E9007100263146BDE8F087C2F153
:1010B0002003D8400CFA02FC21FA03F391400143CB
:1010C0004FEA1C471FFA8CFEB3FBF7F007FB103604
:1010D0000B0C43EA064300FB0EF69E4204FA02F4B0
:1010E00008D91CEB030300F1FF382FD29E422DD903
:1010F000023863449B1B89B2B3FBF7F607FB163338
:1011000041EA034106FB0EF38B4208D91CEB0101B7
:1011100006F1FF3816D28B4214D9023E6144C91A37
:1011200046EA004638E72E46284605E70646E3E647
:101130001846F8E64B45A9D2B9EB020864EB0C0E51
:101140000138A3E74646EAE7204694E74046D1E760
:10115000D0467BE7023B614432E7304609E764440E
:10116000023842E7704700BF80B500AF7F210648D4
:1011700003F082FF0A2002F0FDFD05220349024828
:1011800003F052F900BF80BD680400201402002063
:10119000B0B584B000AF0023FB81334B1B887B814B
:1011A000324B1B883B8100237B730AE07B7B304AF8
:1011B00032F813309AB2FB891344FB817B7B0133F5
:1011C0007B737B7B042BF1D9FB8907EE903AF8EE19
:1011D000E77A9FED287A67EE877AFCEEE77A17EEDA
:1011E000903AFB817B8907EE903AB8EEE77AFB896B
:1011F00007EE903AF8EE677A77EE677A17EE900A84
:10120000FFF7A2F916A3D3E90023FFF7F5F9024689
:101210000B4614461D463B891846FFF783F90246E4
:101220000B4620462946FFF711FB02460B461046A7
:1012300019464FF00002104BFFF728F802460B4604
:1012400010461946FFF7B0FC03467B607B6807EE4B
:10125000903AB0EE670A1037BD46B0BDAFF30080DC
:101260003333333333331140A875FF1FCA75FF1F63
:1012700014020020CDCC4C3E0000394080B584B033
:1012800000AF194809F076FF0023BB601DE040F273
:10129000DC5303226B21154805F02EFB0346FB713E
:1012A000642002F067FDFB79002B05D1104809F09E
:1012B000E7FF0123FB730BE00023FB734FF4FA708D
:1012C00002F058FDBB680133BB60BB68092BDEDD53
:1012D000FB7B002B02D1074809F0D2FFFB7B1846AD
:1012E0001037BD4680BD00BF00D40008380500207F
:1012F00018D4000820D4000880B584B000AFF8608E
:10130000B9607A607B689AB27B680133B968044837
:1013100007F0D0FF7B6818461037BD4680BD00BF80
:101320008006002080B582B000AF78607B680B4AF1
:10133000934205D14FF400720949084808F04EF86D
:101340007B68084A934205D14FF40072064905486C
:1013500008F044F800BF0837BD4680BD8006002075
:1013600020020020040700202404002080B582B061
:1013700000AF78607868FFF7D5FF00BF0837BD463B
:1013800080BD000080B400AF0D4BB3F858301A4652
:101390000B4BB3F85A309BB2D31A03F50073094ACA
:1013A00012889B1A5A42C3F30803C2F3080258BFBB
:1013B00053429BB21846BD465DF8047B704700BFA0
:1013C000800600202004002080B483B000AF0C4BC6
:1013D0001B885A1C91B20A4A11801A46094B9B5C21
:1013E000FB71074B1B88B3F5007F02D3044B00222F
:1013F0001A80FB7918460C37BD465DF8047B7047B0
:10140000200400202002002080B487B000AF786064
:1014100000237B6131E07B693B610023FB6011E0CD
:10142000FB6801337A6813441B78002B04D13B69B5
:101430000133184A134427E03B6901333B61FB68E1
:101440000133FB60134A3B6913441B78FB72FB7A40
:101450000133114A13441B7803F00303012B02D11B
:10146000FB7A203300E0FB7AFA6879680A44127844
:101470009342D5D07B6901337B61064A7B69134473
:101480001B78002BC7D1002318461C37BD465DF8DA
:10149000047B70474404002060D7000880B582B008
:1014A00000AFFFF76FFF03463B603B68002B0FD098
:1014B00000237B6008E0FFF787FF0346184600F033
:1014C0000BF87B6801337B607A683B689A42F2DBF9
:1014D00000BF0837BD4680BD80B582B000AF03466F
:1014E000FB712F4B1B681F2B07D82D4B1B685A1CF9
:1014F0002B490A602B49FA79CA54FB790A2B4BD144
:10150000274B1B68013B274AD35C0D2B04D1244B8E
:101510001B68013B224A1360214B1B681A46214B72
:1015200013441F4A1268C2F120020021184609F034
:10153000AFF91B4B00221A601B48FFF765FF0346FB
:101540001A4A934206D01A48FFF75EFF0346194A2B
:10155000934202D100F03CF81EE01748FFF754FF19
:101560000346164A93420AD1154B1B78002B0CBF39
:1015700001230023DBB21A46114B1A700CE011480C
:10158000FFF742FF0346104A934205D1A0223821BB
:101590000E4802F043F800BF0837BD4680BD00BFCB
:1015A000640400204404002050D4000845040020B6
:1015B00054D40008480400205CD400084A040020E9
:1015C0000000002064D400084B0400208C0500209B
:1015D00080B582B002AF3BA3D3E90023CDE900235D
:1015E0004FF00002284B294809F0C4FD284809F0B3
:1015F000C1FD284B1B78032B1AD801A252F823F007
:1016000011160008191600082116000829160008EE
:10161000214809F035FE0BE0204809F031FE07E0D3
:101620001F4809F02DFE03E01E4809F029FE00BF07
:10163000FFF7AEFD10EE103A1846FEF785FF0246A2
:101640000B46194809F096FD184B1B78C3F30003AD
:10165000DBB21946164809F08DFD164B1B78C3F313
:101660000003DBB21946144809F084FD134B1B78C4
:10167000C3F30003DBB21946114809F07BFD00BF3C
:10168000BD4680BDAFF300800000F03F6CD4000881
:1016900090D4000888070020A4D40008ACD4000827
:1016A000B0D40008C4D40008D4D400088C070020AB
:1016B000F0D400089407002000D500089C07002003
:1016C00014D50008000000A09999C93F80B582B0E8
:1016D00000AF022001F0F8FF012002F04BFB96233F
:1016E0000322EC21144805F007F90346FB7164203E
:1016F00002F040FBFB79002B15D1BA1DEC230D2124
:101700000D4801F023FF002001F0DEFFBB79102B14
:1017100004D10A4809F0B4FD012308E0084809F0A3
:10172000AFFD002303E0074809F0AAFD0023184697
:101730000837BD4680BD00BF8C0500202CD50008B1
:1017400038D5000844D5000880B582B000AF02F05B
:101750009CFA00F0E5F900F099FC00F079FC00F04B
:1017600043FA00F0DDFA00F01BFB00F059FB00F03B
:101770000FFC00F03DFC00F0A7FA00F091FB00F038
:101780001EFA0021C84806F0D5FFC848FFF7CAFD79
:10179000C748FFF7C7FDC74809F072FDFFF76EFDA8
:1017A00003461A46C44B1A7000222021C34804F095
:1017B000C9FB002001F092FEFFF7D6FC02F0CEFA42
:1017C000786002F0CBFA386000224FF480714FF05D
:1017D000904004F0B7FB01F0B5FF034603F00103AE
:1017E000D9B2B74A137861F30003137002F04AF8D4
:1017F000034603F00103D9B2B24A137861F3000340
:101800001370B04B1B7803F00103DBB2002B0AD03E
:10181000AD4A137843F001031370AC4A137843F0D8
:101820000103137009E0A84A13786FF300031370E3
:10183000A64A13786FF30003137002F08BF8034687
:1018400003F00103D9B2A24A137861F300031370C5
:101850009F4B1B7803F00103DBB2002B05D09D4AA0
:10186000137843F00103137004E09A4A13786FF37E
:101870000003137002F0A2F9034603F00103D9B28A
:10188000954A137861F300031370934B1B7803F0B0
:101890000103DBB2002B0AD0904A137843F0010316
:1018A00013708F4A137843F00103137009E08B4AD9
:1018B00013786FF300031370894A13786FF30003F2
:1018C0001370FFF703FF034603F00103D9B2854A03
:1018D000137861F300031370824B1B7803F001034C
:1018E000DBB2002B0AD0804A137843F00103137057
:1018F0007E4A137843F00103137009E07A4A1378A3
:101900006FF300031370794A13786FF300031370B9
:1019100001F0F6FD02F022FA02467B68D31A42F289
:101920000F72934240F2AF80714B1B78DBB2002BF9
:1019300000F0A98002F012FA7860202001F04AFF3E
:10194000F0EE407A5E4B17EE902AC3F8012001F0CA
:10195000B1FFF0EE407A5B4B17EE902AC3F80120FE
:10196000002002F057F8F0EE407A594B17EE902A1B
:10197000C3F80120002002F0B9F8F0EE407A554B90
:1019800017EE902AC3F801205A4809F079FC4C4B15
:10199000D3F801301846FEF7D7FD02460B465648ED
:1019A00009F0E8FB554809F0E5FB464BD3F8013058
:1019B0001846FEF7C9FD02460B46514809F0DAFB0E
:1019C000504809F05DFC504809F05AFC404BD3F8F0
:1019D00001301846FEF7B8FD02460B464B4809F0A9
:1019E000C9FB4B4809F0C6FB3A4BD3F80130184607
:1019F000FEF7AAFD02460B46444809F0BBFB4548EA
:101A000009F03EFC012002F005F8F0EE407A304B80
:101A100017EE902AC3F80120012002F067F8F0EEDB
:101A2000407A2C4B17EE902AC3F801203A4809F06F
:101A300027FC274BD3F801301846FEF785FD0246F8
:101A40000B46324809F096FB314809F093FB214BD5
:101A5000D3F801301846FEF777FD02460B462B48B7
:101A600009F088FB2B4809F00BFC1B4BD3F8013025
:101A70001846FEF769FD02460B46284809F07AFB36
:101A8000244809F0FDFB02F069F902463B68D31ACD
:101A90001D2B7FF63DAF02F061F938602021074829
:101AA00004F068FA34E700BF340600208006002006
:101AB0000407002054D500088807002000040048CF
:101AC0008C07002094070020B4070020CC070020DA
:101AD0009C070020D4070020A4070020BC0700209A
:101AE000DC070020AC070020C4070020E40700202A
:101AF0000000002068D500087CD500088CD50008BF
:101B000094D50008A4D50008ACD50008BCD50008C1
:101B1000C8D50008D0D50008D4D50008E0D5000805
:101B200080B596B000AF07F1140344220021184697
:101B300008F0AEFE3B4600221A605A609A60DA60F6
:101B40001A614FF4007005F0A5FB0346002B01D08D
:101B500000F05EFB01237B614FF48033BB61022305
:101B6000FB6303233B6401237B640A23BB640723D9
:101B7000FB6402233B6502237B6507F114031846CF
:101B800005F0DEFB0346002B01D000F041FB0F23E4
:101B90003B6003237B600023BB600023FB600023CA
:101BA0003B613B460221184605F0DEFF0346002B51
:101BB00001D000F02DFB00BF5837BD4680BD80B579
:101BC00000AF00220021252003F091FB252003F027
:101BD000AAFB00220021262003F089FB262003F027
:101BE000A2FB00BF80BD000080B586B000AF3B46C1
:101BF00000221A605A609A60DA601A615A612F4BAB
:101C00002F4A1A602D4B4FF480225A602B4B002232
:101C10009A602A4B0022DA60284B00221A61274B77
:101C200004225A61254B00221A76244B01225A764F
:101C3000224B0122DA61214B002283F820201F4B26
:101C400000229A621D4B0022DA621C4B012283F8AB
:101C500030201A4B00225A63184B012283F8382097
:101C6000164B0C22DA63154B00221A64134B002228
:101C70005A64124B01229A64104802F08DFA03460E
:101C8000002B01D000F0C4FA0E4B3B6006237B60B2
:101C90000723BB607F23FB6004233B6100237B6140
:101CA0003B461946054802F061FC0346002B01D073
:101CB00000F0AEFA00BF1837BD4680BD68040020B2
:101CC00000000450000052C780B500AF124B134A09
:101CD0001A60114B01221A710F4B01225A710E4BDF
:101CE00031229A600C4B1022DA600B4BFF221A61F2
:101CF000094B00225A61084B00229A61064B0122CF
:101D00001A62054803F030FB0346002B01D000F0B7
:101D10007FFA00BF80BD00BF1405002000300240E4
:101D200080B500AF1B4B1C4A1A601A4B1B4A5A6005
:101D3000184B00229A60174B0122DA60154B0022E3
:101D40001A61144B00225A61124B00229A61114B06
:101D50000022DA610F4B00221A620E4804F024F9C7
:101D60000346002B01D000F053FA0021094805F08A
:101D7000EBF90346002B01D000F04AFA0021054898
:101D800005F02DFA0346002B01D000F041FA00BF08
:101D900080BD00BF380500200054004047133000CC
:101DA00080B500AF1B4B1C4A1A601A4B1B4A5A6085
:101DB000184B00229A60174B0122DA60154B002263
:101DC0001A61144B00225A61124B00229A61114B86
:101DD0000022DA610F4B4FF400321A620D4804F012
:101DE000E3F80346002B01D000F012FA0021094865
:101DF00005F0AAF90346002B01D000F009FA0021F2
:101E0000044805F0ECF90346002B01D000F000FA7D
:101E100000BF80BD8C05002000580040EB9B900067
:101E200080B500AF1B4B1C4A1A601A4B1B4A5A6004
:101E3000184B00229A60174B0122DA60154B0022E2
:101E40001A61144B00225A61124B00229A61114B05
:101E50000022DA610F4B00221A620E4804F0A4F847
:101E60000346002B01D000F0D3F90021094805F00A
:101E70006BF90346002B01D000F0CAF90021054898
:101E800005F0ADF90346002B01D000F0C1F900BF09
:101E900080BD00BFE0050020005C0040471330001B
:101EA00080B592B000AF07F12C0300221A605A608F
:101EB0009A60DA601A615A619A613B462C220021CD
:101EC000184608F0E5FC304B304A1A602E4B4FF4B0
:101ED0009C725A602C4B00229A602B4B4FF48072FC
:101EE000DA60294B00221A61274B00225A61264BE7
:101EF00000229A61244806F065FB0346002B01D0BE
:101F000000F086F9204806F0B4FB0346002B01D010
:101F100000F07EF96023FB6200233B6302237B63B6
:101F20000023BB630423FB6300233B6400237B6427
:101F300007F12C0300221946134806F0D9FC03468A
:101F4000002B01D000F064F900233B6000237B608C
:101F50000023BB600023FB6000233B614FF4005370
:101F60007B610023BB623B461946074807F0DCF85B
:101F70000346002B01D000F04BF9034801F05AF85A
:101F800000BF4837BD4680BD3406002000440140F4
:101F900080B500AF144B154A1A60134B4FF4E13271
:101FA0005A60114B00229A600F4B0022DA600E4BF0
:101FB00000221A610C4B0C225A610B4B00229A61D1
:101FC000094B0022DA61084B00221A62064B0022FC
:101FD0005A62054807F020F90346002B01D000F0B3
:101FE00017F900BF80BD00BF800600200038014007
:101FF00080B500AF144B154A1A60134B4FF4E13211
:102000005A60114B00229A600F4B0022DA600E4B8F
:1020100000221A610C4B0C225A610B4B00229A6170
:10202000094B0022DA61084B00221A62064B00229B
:102030005A62054807F0F0F80346002B01D000F083
:10204000E7F800BF80BD00BF040700200044004047
:1020500080B582B000AF0C4B9B6C0B4A43F0010380
:102060009364094B9B6C03F001037B607B68002247
:1020700000210B2003F03BF90B2003F054F900BFC3
:102080000837BD4680BD00BF0010024080B58AB051
:1020900000AF07F1140300221A605A609A60DA60F8
:1020A0001A61574BDB6C564A43F00403D364544B1C
:1020B000DB6C03F004033B613B69514BDB6C504A22
:1020C00043F08003D3644E4BDB6C03F08003FB6072
:1020D000FB684B4BDB6C4A4A43F00103D364484B2B
:1020E000DB6C03F00103BB60BB68454BDB6C444A0F
:1020F00043F00203D364424BDB6C03F002037B60CA
:102100007B6800224FF4CB514FF0904003F01AFF50
:10211000002248F221213B4803F014FF4FF44043D2
:102120007B610323BB610023FB6107F114031946A4
:10213000354803F08DFD48F202037B610323BB6148
:102140000023FB6107F1140319464FF0904003F0A0
:102150007FFD10237B610023BB610023FB6107F13E
:10216000140319464FF0904003F072FD4FF4CB5327
:102170007B610123BB610023FB6100233B6207F10C
:10218000140319464FF0904003F062FD48F22123FA
:102190007B610123BB610023FB6100233B6207F1EC
:1021A00014031946174803F053FD41F202037B6103
:1021B0000023BB610023FB6107F11403194611489A
:1021C00003F046FD40F60C437B610323BB61002313
:1021D000FB6107F1140319460A4803F039FD08238F
:1021E0007B610323BB610023FB6107F114031946E4
:1021F000064803F02DFD00BF2837BD4680BD00BF57
:10220000001002400004004800080048001C00487C
:1022100080B500AF72B600BF01222021034803F051
:1022200091FE1F2001F05AF9FEE700BF00040048AC
:1022300080B500AF044B01221A70044B05221A70BE
:1022400000F0DDFC00BF80BDE9070020EA070020A8
:1022500080B500AF00F023F80346002B06D000F055
:1022600037F80346002B01D0012300E0002303F0E0
:102270000103DBB2184680BD80B584B000AF786042
:10228000786800F03FF90346FB73FB7B002B01D01D
:10229000FB7B00E0002318461037BD4680BD80B5AB
:1022A00084B000AF8023BB800023FB800023BB6091
:1022B0003B1D184600F0C2FC0346FB73FB7B002B62
:1022C00001D0002300E0012318461037BD4680BD31
:1022D00080B584B000AFEC23BB800023FB800023DB
:1022E000BB603B1D184600F0A9FC0346FB73FB7B5B
:1022F000002B01D0002300E0012318461037BD4613
:1023000080BD80B586B000AF0346FB71FB793B759D
:10231000EC23BB810123FB8107F114033B6107F12F
:102320000C03184600F08AFC0346FB75FB7D012B6D
:1023300001D1012305E0FB7D002B01D0022300E049
:10234000002318461837BD4680BD80B586B000AF63
:1023500003463960FB7100233B7500237B75EC233A
:10236000BB810223FB8107F114033B61FB79184613
:10237000FFF7C7FF0346FB75FB7D002B01D0FB7DFC
:1023800021E007F10C03184600F040FC0346BB7542
:10239000BB7D012B01D1012315E0BB7D002B01D0BA
:1023A000022310E03B7D1B021AB27B7D1BB213435C
:1023B0001BB29AB23B681A803B681B88002B01D184
:1023C000022300E0002318461837BD4680BD0000F8
:1023D00080B582B000AF0023FB7116E0FB7950336B
:1023E000DBB25B00DAB2FB795B0016490B4419469D
:1023F0001046FFF7AAFF0346BB71BB79002B01D043
:10240000BB791AE0FB790133FB71FB79062BE5D927
:102410000C4B1B881B0B9BB2DBB21946094800F022
:1024200081FB034683F00103DBB2002B01D00323C1
:1024300003E0054B01221A70002318460837BD46F9
:1024400080BD00BFEC070020EB07002080B586B000
:1024500000AF03463960FB7100233B7400237B749B
:102460000023BB74EC233B8103237B8107F1100322
:10247000FB60FB791846FFF744FF0346FB75FB79C9
:1024800003F00F03DA0F13445B101A461B4B53F88B
:1024900022301B4AA2FB03239B09184601F06AFC69
:1024A000FB7D002B01D0FB7D24E00020FFF729FFFE
:1024B0000346FB75FB7D002B01D0FB7D1AE007F185
:1024C0000803184600F0A2FB0346BB75BB7D012B39
:1024D00001D101230EE0BB7D002B01D0022309E0D6
:1024E0003B7C1A047B7C1B021343BA7C1A433B6877
:1024F0001A60FB7D18461837BD4680BD04000020D9
:10250000D34D62102DE9B04F2DED028BDEB000AF40
:10251000C7F83C01002387F877311B4B1B7883F009
:102520000103DBB2002B04D0FFF752FF034687F80C
:10253000773197F87731002B02D097F87731E9E2BD
:10254000124B1B785B0087F8673197F8673143F0CF
:10255000500387F8673107F5A27297F86731114683
:102560001846FFF773FF034687F8773197F87731FE
:10257000002B02D097F87731CCE2D7F84431002B0A
:1025800006D10223C6E200BFEB070020EA070020C5
:10259000D7F844311A46CB4B5B891B02D31AC7F8D4
:1025A0006031D7F86031DA17C7F83031C7F8342115
:1025B000C44B9B899BB20022C7F82831C7F82C2155
:1025C000D7E94C010B46D7F8282102FB03F2D7F8D4
:1025D0002C31C7E94C01014601FB03F31344D7F842
:1025E0003021D7F82811A2FB01894B4499464FF0BE
:1025F00000024FF000034FEAD85242EA49224FEA64
:10260000E953134603F5FA63C7F85C31D7F85C3138
:10261000B3F5FA6F80F22182D7F86031DA17C7F884
:10262000F830C7F8FC20D7F86031DA17C7F8F03077
:10263000C7F8F420D7E93E452B46D7E93C89424606
:1026400002FB03F24B46214601FB03F313442246EF
:102650004146A2FB0112C7F824210A46C7F82021EF
:10266000D7F824211344C7F82431D7E94845224636
:102670002B469118B9625B41FB62D7E90A232146D8
:102680005118C7F8E810294643EB0101C7F8EC10D0
:102690004FF000024FF00003D7E93A4529464A10AF
:1026A0002946CB17C7E95A23D7F85C31DA17C7F8A0
:1026B000E030C7F8E420D7E938120B46B3F5FA63E7
:1026C000C7F8D830134643F1FF33C7F8DC30D7F8EA
:1026D0005C31DA17C7F8D030C7F8D420D7E9341204
:1026E0000B46B3F5FA63C7F8C830134643F1FF331E
:1026F000C7F8CC30D7E936452B46D7E93289424670
:1027000002FB03F24B46214601FB03F3134422462E
:102710004146A2FB0112C7F81C210A46C7F818213E
:10272000D7F81C211344C7F81C31D7E94645224687
:102730002B464FF000004FF00001190141EA1271E1
:10274000100102460B462146B2EB010A294663EB13
:10275000010B4FF000024FF000034FEA8B0343EAF6
:102760009A734FEA8A0292469B4623461AEB03036A
:10277000C7F8C0302B464BEB0303C7F8C430D7E98A
:102780003023002B07DA12F10F01396243F1000305
:102790007B62D7E908234FF000004FF000011009D9
:1027A00040EA03701911C7E95401D7F85C31DA1710
:1027B000C7F8B830C7F8BC20D7E92E120B46B3F5DE
:1027C000FA63C7F8B030134643F1FF33C7F8B430AB
:1027D000D7F85C31DA17C7F8A830C7F8AC20D7E9CA
:1027E0002A120B46B3F5FA63C7F8A030134643F13B
:1027F000FF33C7F8A430D7E92C452B46D7E9288901
:10280000424602FB03F24B46214601FB03F313440D
:1028100022464146A2FB0112C7F814210A46C7F816
:102820001021D7F814211344C7F81431D7E94445CF
:1028300022462B464FF000004FF00001D90041EA3C
:102840005271D00002460B462146511AB961294601
:1028500063EB0103FB614FF000024FF00003D7E987
:10286000068949468B00414643EA917341468A00F6
:1028700010461946034622469B18C7F898302B4647
:102880000A4642EB0303C7F89C30D7E92623002B06
:1028900007DA12F10F01396143F100037B61D7E9D7
:1028A00004234FF000004FF00001100940EA0370CC
:1028B0001911C7E95201D7F85C21034B9A4280F203
:1028C000118105E0EC07002024FAFFFF0000C84258
:1028D000D7F85C31DA17C7F89030C7F8942040F287
:1028E000DC53D7E924010246D318C7F888300B46D9
:1028F00043F10003C7F88C30D7F85C31DA17C7F81A
:102900008030C7F8842040F2DC53D7E9200102462A
:10291000D318BB670B4643F10003FB67D7E9224599
:102920002B46D7E91E89424602FB03F24B4621465D
:1029300001FB03F3134422464146A2FB0112C7F8F0
:102940000C210A46C7F80821D7F80C211344C7F810
:102950000C31D7E9424522462B464FF000004FF09C
:102960000001190141EA1271100102460B4621468D
:1029700051183967294643EB01017967D7E9542398
:10298000D7E91C4521465118B960294643EB01019E
:10299000F960D7E90234C7E95434D7F85C31DA1763
:1029A000BB66FA6640F2DC53D7E91A010246D31837
:1029B0003B660B4643F100037B66D7F85C31DA17C0
:1029C000BB65FA6540F2DC53D7E916010246D3181D
:1029D0003B650B4643F100037B65D7E918452B4661
:1029E000D7E91489424602FB03F24B46214601FB1C
:1029F00003F3134422464146A2FB0112C7F8042107
:102A00000A46C7F80021D7F804211344C7F8043157
:102A1000D7E9404522462B464FF000004FF0000119
:102A2000D90041EA5271D00002460B4621465118A6
:102A3000B964294643EB0101F964D7E95223D7E988
:102A40001245214651183960294643EB010179604E
:102A5000D7E90034C7E9523444E0D7F86031DA17D7
:102A60003B647A64D7F86031DA17BB63FA63D7E95D
:102A700010894B46D7E90EAB524602FB03F25B4688
:102A8000414601FB03F3134442465146A2FB014574
:102A90002B441D4622462B464FF000004FF000010C
:102AA000990041EA9271900002460B461119396370
:102AB0006B417B634FF000024FF00003D7E90C45F8
:102AC00029468A112946CB17C7E95A234FF000023D
:102AD0004FF00003C7E954234FF000024FF000030A
:102AE000C7E95223D7F85C3107EE903AB8EEE78A8F
:102AF000D7E95A01FEF778F907EE900A38EE677ABF
:102B00005FED8E6AC7EE267AD7F83C31C3ED007AC6
:102B100097F87731184607F5BC77BD46BDEC028BB8
:102B2000BDE8B08F80B485B000AF78600B46FB7015
:102B30000023BB817B681B887B817B680E3300226E
:102B40001A807B681B88C3F30B039AB27B681A80D8
:102B50000023FB733CE0FB7B03F00103DBB2002BA3
:102B60000FD0FB7B5B08DBB25B007A6813441B88E9
:102B70001BB2DBB21AB2B7F90C3053401BB2BB81A7
:102B80000BE0FB7B5B08DBB25B007A6813441B88BD
:102B90001B0A9AB2BB895340BB810823BB7311E067
:102BA000B7F90C30002B07DABB895B001BB283F44A
:102BB00040531BB2BB8102E0BB895B00BB81BB7B86
:102BC000013BBB73BB7B002BEAD1FB7B0133FB7367
:102BD000FB7B0F2BBFD9BB891B0BBB817B687A8921
:102BE0001A80FB789BB2BA899A420CBF012300235A
:102BF000DBB218461437BD465DF8047B704780B4DD
:102C000000AF00BFBD465DF8047B704780B586B05D
:102C100002AF78607B6819887B685A687B685B883C
:102C200014200090044803F043FB0346FB73FB7B36
:102C300018461037BD4680BD8C05002080B586B093
:102C400002AF78607B6819887B685A687B685B880C
:102C500014200090044803F037FA0346FB73FB7B13
:102C600018461037BD4680BD8C05002080B582B067
:102C700000AF104B1B6E0F4A43F0010313660D4B60
:102C80001B6E03F001037B607B680A4B9B6D094A56
:102C900043F080539365074B9B6D03F080533B607B
:102CA0003B6800220021052002F021FB00BF08370D
:102CB000BD4680BD0010024080B59AB000AF78607C
:102CC00007F10C035C220021184607F0E1FD7B6848
:102CD0001B682E4A934255D14FF48043FB604FF05E
:102CE0008053FB6503233B6101237B610823BB61A8
:102CF0000723FB6102233B6202237B624FF0807358
:102D0000BB6207F10C03184605F052F90346002B8D
:102D100001D0FFF77DFA1E4BDB6C1D4A43F40053D4
:102D2000D3641B4BDB6C03F40053BB60BB68194BD3
:102D3000194A1A60174B00225A60164B00229A60FB
:102D4000144B0022DA60134B80221A61114B4FF4AE
:102D500080725A610F4B4FF480629A610D4B2022B2
:102D6000DA610C4B00221A620A4802F0FBFC0346AF
:102D7000002B01D0FFF74CFA7B68064ADA64054A5B
:102D80007B68936200BF6837BD4680BD0000045079
:102D900000100240CC0400200800024080B485B03E
:102DA00000AF78607B681B680A4A93420BD10A4BDC
:102DB0009B6C094A43F480539364074B9B6C03F468
:102DC0008053FB60FB6800BF1437BD465DF8047B91
:102DD000704700BF003002400010024080B5A6B02E
:102DE00000AF786007F1840300221A605A609A608D
:102DF000DA601A6107F128035C220021184607F007
:102E000047FD7B681B68764A93423ED14023BB62F4
:102E10004FF48053BB6507F12803184605F0C8F846
:102E20000346002B01D0FFF7F3F96E4BDB6C6D4AC4
:102E300043F00103D3646B4BDB6C03F001037B6253
:102E40007B6A4FF4C063C7F884301223C7F8883018
:102E50000023C7F88C300323C7F890300423C7F849
:102E6000943007F1840319464FF0904002F0F0FED1
:102E70005C4B9B6D5B4A43F400139365594B9B6D10
:102E800003F400133B623B6AA6E07B681B68564A6A
:102E900093423DD18023BB624FF48043FB6507F131
:102EA0002803184605F084F80346002B01D0FFF7ED
:102EB000AFF94C4BDB6C4B4A43F00203D364494BF4
:102EC000DB6C03F00203FB61FB694FF4C043C7F8FE
:102ED00084301223C7F888300023C7F88C300323CE
:102EE000C7F890300423C7F8943007F184031946DB
:102EF0003E4802F0ADFE3B4B9B6D3A4A43F48003E3
:102F00009365384B9B6D03F48003BB61BB6963E041
:102F10007B681B68364A93425ED14FF48073BB6274
:102F20004FF480333B6607F12803184605F040F85C
:102F30000346002B01D0FFF76BF92A4BDB6C294AC3
:102F400043F00103D364274BDB6C03F001037B6187
:102F50007B69244BDB6C234A43F00203D364214B8F
:102F6000DB6C03F002033B613B698023C7F88430CC
:102F70001223C7F888300023C7F88C300323C7F822
:102F800090300423C7F8943007F1840319464FF0BA
:102F9000904002F05DFE1023C7F884301223C7F87A
:102FA00088300023C7F88C300323C7F890300423FF
:102FB000C7F8943007F1840319460C4802F048FE24
:102FC000084B9B6D074A43F400039365054B9B6DCB
:102FD00003F40003FB60FB6800BF9837BD4680BD6B
:102FE0000054004000100240005800400004004817
:102FF000005C004080B485B000AF78607B681B68DF
:103000000A4A93420BD10A4B1B6E094A43F4003320
:103010001366074B1B6E03F40033FB60FB6800BFB5
:103020001437BD465DF8047B704700BF0044014083
:103030000010024080B588B000AF786007F10C0343
:1030400000221A605A609A60DA601A617B681B6815
:10305000114A93421CD1114BDB6C104A43F002031E
:10306000D3640E4BDB6C03F00203BB60BB684FF410
:103070008073FB6002233B6100237B610023BB6103
:103080000E23FB6107F10C031946054802F0E0FD31
:1030900000BF2037BD4680BD004401400010024003
:1030A0000004004880B5A2B000AF786007F1740357
:1030B00000221A605A609A60DA601A6107F11803F8
:1030C0005C220021184607F0E3FB7B681B683F4A3F
:1030D000934238D10123BB610123BB6307F118037D
:1030E000184604F065FF0346002B01D0FFF790F867
:1030F000374B1B6E364A43F480431366344B1B6ECA
:1031000003F480437B617B69314BDB6C304A43F0D5
:103110000203D3642E4BDB6C03F002033B613B697B
:10312000C0237B670223BB670023FB670323C7F829
:1031300080300723C7F8843007F174031946254807
:1031400002F086FD3DE07B681B68234A934238D13C
:103150000223BB610423FB6307F11803184604F044
:1031600027FF0346002B01D0FFF752F8184B9B6D49
:10317000174A43F400339365154B9B6D03F40033FA
:10318000FB60FB68124BDB6C114A43F00103D36414
:103190000F4BDB6C03F00103BB60BB680C237B6748
:1031A0000223BB670023FB670323C7F88030072394
:1031B000C7F8843007F1740319464FF0904002F0CD
:1031C00047FD00BF8837BD4680BD00BF00380140C5
:1031D00000100240000400480044004080B400AFEA
:1031E000FEE780B400AFFEE780B400AFFEE780B436
:1031F00000AFFEE780B400AFFEE780B400AF00BFD1
:10320000BD465DF8047B704780B400AF00BFBD468B
:103210005DF8047B704780B400AF00BFBD465DF829
:10322000047B704780B500AF00F084FD02F095F894
:1032300000BF80BD80B500AF024802F02AFC00BF8D
:1032400080BD00BFCC04002080B500AF024806F06E
:103250001BF900BF80BD00BF8006002080B500AF15
:10326000024806F011F900BF80BD00BF040700202E
:1032700080B400AF01231846BD465DF8047B70475B
:1032800080B582B000AF7860396007F0D7FA0346A6
:1032900016221A604FF0FF3318460837BD4680BD2E
:1032A00080B582B000AF78604FF0FF317868FFF7EB
:1032B000E7FFFEE780B586B000AFF860B9607A60DE
:1032C00000237B610AE0AFF300800146BB685A1C13
:1032D000BA60CAB21A707B6901337B617A697B6814
:1032E0009A42F0DB7B6818461837BD4680BD80B433
:1032F00083B000AF78604FF0FF3318460C37BD46FF
:103300005DF8047B704780B483B000AF78603960AB
:103310003B684FF400525A60002318460C37BD46F4
:103320005DF8047B704780B483B000AF7860012300
:1033300018460C37BD465DF8047B704780B485B0F5
:1033400000AFF860B9607A60002318461437BD46B4
:103350005DF8047B7047000080B586B000AF7860F0
:10336000144A154BD31A7B617B693B61134B1B6875
:10337000002B02D1114B124A1A60104B1A687B685D
:1033800013443A699A4207D207F058FA03460C22CE
:103390001A604FF0FF3309E0084B1B68FB60074BD6
:1033A0001A687B681344054A1360FB68184618378F
:1033B000BD4680BD0000012000040000FC07002085
:1033C0002808002080B400AF064BD3F88830054AA7
:1033D00043F47003C2F8883000BFBD465DF8047B3B
:1033E000704700BF00ED00E080B500AF2E4B1B889A
:1033F000002B4BD02D4B1B6801332C4A13602B4BF9
:103400001B68294A1288934240D3284B00221A6035
:10341000274B1B680133264A1360254B1A68254B3E
:103420001B681B0C40339A4216D3214B00221A60B2
:10343000204B1B689BB24FF6FF72934204D01D4B8A
:103440001B68013B1B4A13601A4B1B689BB2002B85
:1034500002D1154B00221A80154B1B683F2B03D954
:10346000002000F03BF81CE0114B1B681F2B06D915
:103470000F4B1B68DBB2C3F13F03DBB202E00C4B26
:103480001B68DBB2184600F029F80AE0064B1B88DF
:10349000002B06D1054B00221A60054B00221A6052
:1034A000FFE700BF80BD00BF000800200808002023
:1034B0000C0800200408002080B483B000AF03464D
:1034C000FB71054B1B68FA795A6300BF0C37BD4688
:1034D0005DF8047B704700BF3406002080B582B0E1
:1034E00000AF0346FB71FB79044AD35C1846FFF733
:1034F000E3FF00BF0837BD4680BD00BF40D70008CE
:1035000080B500AFFDF7CAFF00BF80BD80B584B0B5
:1035100000AF78600B46FB700B4801F025FF0A4BAB
:103520001B689A68084B1B6842F001029A60FB789E
:103530001A467968044801F07BFFF860FB68DBB24B
:1035400018461037BD4680BD1405002080B58AB0EE
:1035500004AFF8607A601A460B467B8113467B7293
:103560007B7A99B27A89082302930123019307F1A8
:10357000160300930123F86803F0A4F80346FB75D3
:10358000BA7D7B681A70FB7D18461837BD4680BD32
:1035900080B58AB004AFF8607A601A460B467B812A
:1035A00013467B727B7A99B27A89082302930223AD
:1035B000019307F1140300930123F86803F082F8E4
:1035C0000346FB75BA8A7B681A80FB7D184618375C
:1035D000BD4680BD80B58AB004AFF860084611468C
:1035E0001A4603467B810B463B811346FB713B89A0
:1035F000BB82FB7999B27A89082302930223019353
:1036000007F1140300930123F86802F047FF034613
:10361000FB75FB7D18461837BD4680BD80B584B06C
:1036200000AF78600B46FB701346BB70184807F07C
:1036300027FEFB78FB7322E0FB7B9BB25B0099B219
:103640004FF4FA730322786803F056F90346BB730C
:10365000642000F08FFBBB7B002B05D1FB7B194660
:103660000C4807F087FD07E0FB7B19460A4807F086
:1036700081FD642000F07EFBFB7B0133FB73FA7B52
:10368000BB789A42D8D900BF00BF1037BD4680BD75
:10369000F0D500080CD6000824D6000880B483B00A
:1036A00000AF0346FB80FB881B021AB2FB881B0A93
:1036B0009BB21BB213431BB29BB218460C37BD46DC
:1036C0005DF8047B7047000080B586B002AF03460A
:1036D000FB71FB79012B02D0FB79022B1CD101225B
:1036E0004FF480714FF0904002F02CFC012000F06C
:1036F00041FBFB79013B012202FA03F3DBB2FB73CE
:1037000007F10F024FF0FF3300930123E4210B4830
:1037100002F0DAFC00BF0DE0FB79002B07D100229C
:103720004FF480714FF0904002F00CFC02E004482E
:1037300007F0A6FD00BF1037BD4680BD8C050020F8
:1037400044D6000880B582B000AF4FF4FA7303226C
:103750009221144803F0D0F80346FB71642000F076
:1037600009FBFB79002B14D13A1D92230F210D4840
:10377000FFF70EFFBB8841F20172934204D10A4861
:1037800007F07EFD012308E0084807F079FD0023DB
:1037900003E0074807F074FD002318460837BD46CC
:1037A00080BD00BF8C05002058D6000864D60008F4
:1037B00070D6000880B500AF92234FF40872012143
:1037C0000348FFF707FF012000F0D4FA00BF80BDD7
:1037D0008C05002080B584B000AF0346FB71FFF775
:1037E000E9FF07F10C02922301212448FFF7D0FEE4
:1037F000BB891846FFF752FF0346FB81FB799AB25B
:10380000FB891343FB81FB8943F44063FB81FB8904
:103810001846FFF743FF0346BB81BA899223012173
:103820001648FFF7D7FE022000F0A4FAFB79002B20
:1038300002D0FB79202B03D1C82000F09BFA03E0D3
:103840004FF4966000F096FA07F10A0292230021E5
:103850000A48FFF79DFE7B891846FFF71FFF0346C6
:1038600007EE903AF8EE677A9FED057A67EE877A71
:10387000B0EE670A1037BD4680BD00BF8C05002042
:103880000000003C80B500AFFEF7D2FCFEF7E0FC84
:103890000346002B04D0054807F0F2FC012303E0A7
:1038A000034807F0EDFC0023184680BD80D60008D1
:1038B0008CD6000880B582B000AF3B1D1846FEF7DD
:1038C000DBFC7B6807EE903AB0EE670A0837BD462E
:1038D00080BD000080B584B002AF41F23573BB807B
:1038E0003A1D962300930323E021094802F0ECFBE4
:1038F0000346FB710D2000F03DFAFB79002B01D14E
:10390000012300E0002318460837BD4680BD00BFF4
:103910008C05002080B584B002AF49F6B003BB80AF
:103920003A1D962300930323E021094802F0CCFBC3
:103930000346FB710A2000F01DFAFB79002B01D130
:10394000012300E0002318460837BD4680BD00BFB4
:103950008C05002080B586B002AF4FF4FA730322C5
:10396000E021284802F0C8FF0346FB73022000F064
:1039700001FAFB7B002B3BD1FFF7ACFF4CF6EF03CA
:10398000FB80BA1D962300930223E0211D4802F01C
:103990009BFB0346BB7307F10802962300930223A7
:1039A000E121184802F084FC0346BB73BB7B002B6B
:1039B00019D13B7A1B021AB27B7A1BB213431BB29A
:1039C000BB81BB8923F4F8631B051B0D7B817B89BD
:1039D00040F60702934210D10B4807F051FCFFF765
:1039E00099FF01230AE0094807F04AFC002305E09B
:1039F000074807F045FC002300E000231846103775
:103A0000BD4680BD8C0500209CD60008A8D60008C5
:103A1000B4D6000880B588B002AF0346FB71FFF74B
:103A200059FFFB79002B03D14AF27C23FB8102E092
:103A300045F66403FB8107F10E02962300930223EF
:103A4000E021244802F040FB0346FB75142000F0FF
:103A500091F907F11002962300930323E1211D48F9
:103A600002F026FC0346FB75FB7D002B27D13B7C37
:103A70001B021AB27B7C1BB213431BB2BB8207F141
:103A8000100302211846FFF741FD0346FB74BB7C7F
:103A9000FA7C9A4216D1FFF73DFFBB8A07EE903AB7
:103AA000F8EEE77A9FED0C7A27EE877ADFED0B6A66
:103AB000C7EE267A9FED0A7A77EEC77A04E00948C6
:103AC00007F0DEFBDFED087AB0EE670A1837BD4677
:103AD00080BD00BF8C05002000002F4300FF7F4702
:103AE00000003442C4D6000800007AC480B588B013
:103AF00002AF0346FB71FFF7EDFEFB79002B03D10C
:103B000042F25C43FB8102E04DF64463FB8107F126
:103B10000E02962300930223E021234802F0D4FAF8
:103B20000346FB75142000F025F907F110029623D7
:103B300000930323E1211C4802F0BAFB0346FB7506
:103B4000FB7D002B23D13B7C1B021AB27B7C1BB27A
:103B500013431BB2BB8207F1100302211846FFF783
:103B6000D5FC0346FB74BB7CFA7C9A4212D1FFF76A
:103B7000D1FEBB8A07EE903AF8EEE77A9FED0B7A1A
:103B800067EE877ADFED0A6A87EEA67A04E00948D5
:103B900007F076FB9FED087AF0EE477AB0EE670A01
:103BA0001837BD4680BD00BF8C0500200000C8420C
:103BB00000FF7F47C4D6000800007AC480B582B0F9
:103BC00000AF0120FFF780FD012000F0D3F896231D
:103BD0000322EC21144802F08FFE0346FB7164209F
:103BE00000F0C8F8FB79002B15D1BA1DEC23D021C9
:103BF0000D48FFF7ABFC0020FFF766FDBB79602B9B
:103C000004D10A4807F03CFB012308E0084807F00C
:103C100037FB002303E0074807F032FB0023184678
:103C20000837BD4680BD00BF8C050020D0D60008F7
:103C3000DCD60008E8D60008DFF834D0FFF7C2FB76
:103C40000C480D490D4A002302E0D458C4500433F7
:103C5000C4188C42F9D30A4A0A4C002301E01360CD
:103C60000432A242FBD306F0EFFDFDF76DFDFEE747
:103C70000000012000000020F80100204CDB0008BB
:103C8000F801002024080020FEE780B582B000AFD4
:103C90000023FB71032001F01FFB0F2000F00EF842
:103CA0000346002B02D00123FB7101E0FEF7DEFF8B
:103CB000FB7918460837BD4680BD000080B584B04A
:103CC00000AF78600023FB73174B1B78002B23D0C9
:103CD000164B1A68144B1B7819464FF47A73B3FBD2
:103CE000F1F3B2FBF3F3184601F02BFB0346002B74
:103CF0000FD17B680F2B09D8002279684FF0FF3075
:103D000001F0F5FA0A4A7B68136007E00123FB73B0
:103D100004E00123FB7301E00123FB73FB7B1846E6
:103D20001037BD4680BD00BF240000201C000020CD
:103D30002000002080B400AF064B1B781A46064BCB
:103D40001B681344044A136000BFBD465DF8047B42
:103D5000704700BF240000201008002080B400AF8E
:103D6000034B1B681846BD465DF8047B704700BFD7
:103D70001008002080B584B000AF7860FFF7EEFF38
:103D8000B8607B68FB60FB68B3F1FF3F05D00A4B6E
:103D90001B781A46FB681344FB6000BFFFF7DEFF89
:103DA0000246BB68D31AFA689A42F7D800BF00BF30
:103DB0001037BD4680BD00BF2400002080B483B012
:103DC00000AF786039607B689B6823F47C123B68A5
:103DD0001A437B689A6000BF0C37BD465DF8047BD0
:103DE000704780B483B000AF786039607B689B68AF
:103DF00023F0E0723B681A437B689A6000BF0C377F
:103E0000BD465DF8047B704780B483B000AF786036
:103E10007B689B6803F0E07318460C37BD465DF87D
:103E2000047B704780B487B000AFF860B9607A60F7
:103E30003B60FB6860331A46BB689B0013447B61A0
:103E40007B691A68084B13407A6802F0F8413A68B7
:103E50000A43134343F000427B691A6000BF1C37DA
:103E6000BD465DF8047B704700F0FF0380B485B069
:103E700000AF786039607B6860331A463B689B000E
:103E80001344FB60FB681B6803F0F84318461437C3
:103E9000BD465DF8047B704780B487B000AFF86022
:103EA000B9607A60FB6860331A46BB689B001344B4
:103EB0007B617B691B6823F000427B681A437B6946
:103EC0001A6000BF1C37BD465DF8047B704780B4A4
:103ED00083B000AF78607B68DB6803F44063002B3D
:103EE00001D1012300E0002318460C37BD465DF8E0
:103EF000047B704780B487B000AFF860B9607A6027
:103F0000FB6830331A46BB681B0A9B0003F00C03A6
:103F100013447B617B691A68BB6803F01F031F2190
:103F200001FA03F3DB431A407B689B0E03F01F0189
:103F3000BB6803F01F0301FA03F31A437B691A609D
:103F400000BF1C37BD465DF8047B704780B487B066
:103F500000AFF860B9607A60FB6814331A46BB683A
:103F60005B0E9B0003F0040313447B617B691A68BA
:103F7000BB681B0D03F01F03072101FA03F3DB43AA
:103F80001A40BB681B0D03F01F03796801FA03F3A5
:103F90001A437B691A6000BF1C37BD465DF8047B7D
:103FA0007047000080B485B000AFF860B9607A60F7
:103FB000FB68D3F8B020BB68C3F31203DB431A409D
:103FC0007B6803F018030849D940BB680B40C3F372
:103FD00012031A43FB68C3F8B02000BF1437BD4674
:103FE0005DF8047B704700BFFFFF070080B483B01B
:103FF00000AF78607B689B6823F0204323F03F0389
:104000007A68936000BF0C37BD465DF8047B70474B
:1040100080B483B000AF78607B689B6803F0005386
:10402000B3F1005F01D1012300E0002318460C37F3
:10403000BD465DF8047B704780B483B000AF786004
:104040007B689B6823F0104323F03F0343F08052CA
:104050007B689A6000BF0C37BD465DF8047B7047F3
:1040600080B483B000AF78607B689B6803F08053B6
:10407000B3F1805F01D1012300E0002318460C3723
:10408000BD465DF8047B704780B483B000AF7860B4
:104090007B689B6823F0004323F03F0343F0010259
:1040A0007B689A6000BF0C37BD465DF8047B7047A3
:1040B00080B483B000AF78607B689B6823F00043D6
:1040C00023F03F0343F002027B689A6000BF0C3785
:1040D000BD465DF8047B704780B483B000AF786064
:1040E0007B689B6803F00103012B01D1012300E0F1
:1040F000002318460C37BD465DF8047B704780B43A
:1041000083B000AF78607B689B6803F00203022BEA
:1041100001D1012300E0002318460C37BD465DF8AD
:10412000047B704780B483B000AF78607B689B6885
:1041300023F0004323F03F0343F004027B689A60BE
:1041400000BF0C37BD465DF8047B704780B483B078
:1041500000AF78607B689B6803F00403042B01D1F7
:10416000012300E0002318460C37BD465DF8047BB0
:10417000704780B483B000AF78607B689B6803F0C1
:104180000803082B01D1012300E0002318460C3757
:10419000BD465DF8047B704780B588B000AF78609D
:1041A0000023FB770023BB607B68002B01D1012338
:1041B0002CE17B681B69002B7B685B6D002B09D1B0
:1041C0007868FEF779FD7B6800229A657B6800229B
:1041D00083F850207B681B681846FFF719FF0346D9
:1041E000002B04D07B681B681846FFF7FFFE7B6836
:1041F0001B681846FFF734FF0346002B15D17B6878
:104200001B681846FFF718FF824B1B689B09824A00
:10421000A2FB03239B0901335B00BB6002E0BB6888
:10422000013BBB60BB68002BF9D17B681B6818465B
:10423000FFF716FF0346002B0DD17B685B6D43F043
:1042400010027B685A657B689B6D43F001027B68B6
:104250009A650123FB777B681B681846FFF776FF9A
:1042600078617B685B6D03F01003002B40F0C58024
:104270007B69002B40F0C1807B685B6D23F4817308
:1042800043F002027B685A657B681B681846FFF79B
:1042900023FF0346002B0BD16048FFF71DFF0346A9
:1042A000002B05D17B685B6819465D48FFF786FDEA
:1042B0007B685B7E5A037B685B6B1A437B68DB68B9
:1042C0001A437B689B681A437B6893F820301B0471
:1042D0001343BB617B6893F82030012B06D17B68C8
:1042E0005B6A013B5B04BA691343BB617B689B6AF1
:1042F000002B09D07B689B6A03F470727B68DB6AD1
:104300001343BA691343BB617B681B68DA68454B8A
:1043100013407A681268B9690B43D3607B681B68E5
:104320001846FFF713FF38617B681B681846FFF7D4
:1043300020FFF8603B69002B3DD1FB68002B3AD190
:104340007B681B7E9A037B6893F830305B001343D5
:10435000BB617B681B68DB6823F4804323F00203A6
:104360007A681268B9690B43D3607B6893F8383078
:10437000012B18D17B681B681B6923F4FF6323F0B2
:1043800004037A68D16B7A68126C11437A68526CB4
:1043900011437A68926C0A431A437B681B6842F0A7
:1043A00001021A6107E07B681B681A697B681B6859
:1043B00022F001021A617B681B69012B0CD17B681A
:1043C0001B681B6B23F00F017B68DB695A1E7B683F
:1043D0001B680A431A6307E07B681B681A6B7B68DB
:1043E0001B6822F00F021A637B685B6D23F00303E6
:1043F00043F001027B685A6507E07B685B6D43F020
:1044000010027B685A650123FB77FB7F1846203733
:10441000BD4680BD1C000020632D3E0500000450F9
:104420000003045007C0F0FF80B586B000AFF8600D
:10443000B9607A60FB681B681846FFF787FE034681
:10444000002B67D1FB6893F85030012B01D1022378
:1044500063E0FB68012283F85020F86800F066FCF6
:104460000346FB75FB7D002B4FD1FB685B6D23F48E
:10447000706323F0010343F48072FB685A65FB68A4
:104480005B6D03F48053002B06D0FB689B6D23F01B
:104490000602FB689A6502E0FB6800229A65FB68E9
:1044A000DB6C204ADA62FB68DB6C1F4A1A63FB682C
:1044B000DB6C1E4A5A63FB681B681C221A60FB688F
:1044C000002283F85020FB681B685A68FB681B6851
:1044D00042F010025A60FB681B68DA68FB681B68D0
:1044E00042F00102DA60FB68D86CFB681B6840335D
:1044F0001946BA687B6801F0EDF90346FB75FB6865
:104500001B681846FFF70EFE06E0FB68002283F8E2
:10451000502001E00223FB75FB7D18461837BD468D
:1045200080BD00BFF74E0008CF4F0008EB4F0008DA
:1045300080B483B000AF786000BF0C37BD465DF833
:10454000047B704780B483B000AF786000BF0C3745
:10455000BD465DF8047B704780B483B000AF7860DF
:1045600000BF0C37BD465DF8047B704780B5B6B020
:1045700000AF78603960002387F8D7300023FB60F4
:104580007B6893F85030012B01D10223B9E37B689B
:10459000012283F850207B681B681846FFF7D6FD80
:1045A0000346002B40F09E833B685B68052B24D8B4
:1045B0003B685B68023B032B1BD801A252F823F037
:1045C000D1450008D9450008E1450008E945000843
:1045D0003B680C225A6011E03B6812225A600DE0E1
:1045E0003B6818225A6009E03B684FF480725A60B9
:1045F00004E03B6806225A6000E000BF7B68186850
:104600003B6859683B681B681A46FFF773FC7B6878
:104610001B681846FFF79AFDC7F8D0007B681B6837
:104620001846FFF7A6FDC7F8CC00D7F8D030002B0E
:1046300040F0A681D7F8CC30002B40F0A1817B68F8
:1046400018683B6819683B689B681A46FFF77EFC50
:104650003B685A697B681B68DB68DB0803F003036F
:104660005B0002FA03F3C7F8C8303B681B69042BF0
:104670000AD07B6818683B6819693B681A68D7F8E4
:10468000C830FFF7CFFB7BE17B681B680021184631
:10469000FFF7ECFB0346C3F31203002B0AD17B6840
:1046A0001B6800211846FFF7E1FB03469B0E03F051
:1046B0001F021EE07B681B6800211846FFF7D6FB2F
:1046C0000346C7F8BC30D7F8BC3093FAA3F3C7F859
:1046D000B830D7F8B830C7F8C030D7F8C030002BA2
:1046E00001D1202304E0D7F8C030B3FA83F3DBB262
:1046F0001A463B681B68C3F31203002B05D13B68C5
:104700001B689B0E03F01F0318E03B681B68C7F88B
:10471000B030D7F8B03093FAA3F3C7F8AC30D7F87D
:10472000AC30C7F8B430D7F8B430002B01D1202317
:1047300004E0D7F8B430B3FA83F3DBB29A4206D17F
:104740007B681B68002200211846FFF7A5FB7B68E9
:104750001B6801211846FFF789FB0346C3F31203C8
:10476000002B0AD17B681B6801211846FFF77EFBEE
:1047700003469B0E03F01F021EE07B681B680121AD
:104780001846FFF773FB0346C7F8A430D7F8A430E8
:1047900093FAA3F3C7F8A030D7F8A030C7F8A83031
:1047A000D7F8A830002B01D1202304E0D7F8A83097
:1047B000B3FA83F3DBB21A463B681B68C3F31203F8
:1047C000002B05D13B681B689B0E03F01F0318E00C
:1047D0003B681B68C7F89830D7F8983093FAA3F372
:1047E000C7F89430D7F89430C7F89C30D7F89C308D
:1047F000002B01D1202304E0D7F89C30B3FA83F3D7
:10480000DBB29A4206D17B681B6800220121184660
:10481000FFF742FB7B681B6802211846FFF726FB67
:104820000346C3F31203002B0AD17B681B680221E5
:104830001846FFF71BFB03469B0E03F01F021EE00A
:104840007B681B6802211846FFF710FB0346C7F878
:104850008C30D7F88C3093FAA3F3C7F88830D7F8A8
:104860008830C7F89030D7F89030002B01D1202342
:1048700004E0D7F89030B3FA83F3DBB21A463B6812
:104880001B68C3F31203002B05D13B681B689B0E0A
:1048900003F01F0316E03B681B68C7F88030D7F8A9
:1048A000803093FAA3F3FB67FB6FC7F88430D7F827
:1048B0008430002B01D1202304E0D7F88430B3FAF0
:1048C00083F3DBB29A4206D17B681B680022022187
:1048D0001846FFF7E1FA7B681B6803211846FFF7CB
:1048E000C5FA0346C3F31203002B0AD17B681B6889
:1048F00003211846FFF7BAFA03469B0E03F01F0286
:1049000017E07B681B6803211846FFF7AFFA0346E0
:104910007B677B6F93FAA3F33B673B6FBB67BB6F10
:10492000002B01D1202303E0BB6FB3FA83F3DBB28A
:104930001A463B681B68C3F31203002B05D13B6882
:104940001B689B0E03F01F0311E03B681B68BB66EE
:10495000BB6E93FAA3F37B667B6EFB66FB6E002B4C
:1049600001D1202303E0FB6EB3FA83F3DBB29A425A
:1049700006D17B681B68002203211846FFF78CFADA
:104980007B681B681846FFF7A7FB0346002B40F027
:104990003F817B6818683B6819683B68DB681A468A
:1049A000FFF700FB3B68DB688E4A934240F03081A2
:1049B0007B6818683B681B68C3F31203002B0BD19C
:1049C0003B681B689B0E013303F01F03092B94BF48
:1049D00001230023DBB219E03B681B68FB65FB6D1C
:1049E00093FAA3F3BB65BB6D3B663B6E002B01D115
:1049F000202303E03B6EB3FA83F3DBB2013303F011
:104A00001F03092B94BF01230023DBB2002B79D0B5
:104A10003B681B68C3F31203002B07D13B681B687C
:104A20009B0E01339B0603F0F84215E03B681B68C0
:104A30003B653B6D93FAA3F3FB64FB6C7B657B6D7D
:104A4000002B01D1202303E07B6DB3FA83F3DBB2AB
:104A500001339B0603F0F8423B681B68C3F3120363
:104A6000002B09D13B681B689B0E013303F01F0329
:104A7000012101FA03F317E03B681B687B647B6C40
:104A800093FAA3F33B643B6CBB64BB6C002B01D17A
:104A9000202303E0BB6CB3FA83F3DBB2013303F0F2
:104AA0001F03012101FA03F342EA03013B681B687B
:104AB000C3F31203002B0AD13B681B689B0E013322
:104AC00003F01F0213465B0013441B0518E03B680C
:104AD0001B68BB63BB6B93FAA3F37B637B6BFB63CA
:104AE000FB6B002B01D1202303E0FB6BB3FA83F3B4
:104AF000DBB2013303F01F0213465B0013441B05B6
:104B00000B4380E03B681B68C3F31203002B07D103
:104B10003B681B689B0E01339B0603F0F84215E0CF
:104B20003B681B68FB62FB6A93FAA3F3BB62BB6A38
:104B30003B633B6B002B01D1202303E03B6BB3FABB
:104B400083F3DBB201339B0603F0F8423B681B683A
:104B5000C3F31203002B09D13B681B689B0E013382
:104B600003F01F03012101FA03F317E03B681B6800
:104B70003B623B6A93FAA3F3FB61FB697B627B6A4E
:104B8000002B01D1202303E07B6AB3FA83F3DBB26D
:104B9000013303F01F03012101FA03F342EA030189
:104BA0003B681B68C3F31203002B0DD13B681B68E5
:104BB0009B0E013303F01F0213465B0013441E3BA0
:104BC0001B0543F000731DE03B681B687B617B693C
:104BD00093FAA3F33B613B69BB61BB69002B03D133
:104BE000202305E000007F40BB69B3FA83F3DBB20A
:104BF000013303F01F0213465B0013441E3B1B05E9
:104C000043F000730B433A6892681946FFF79EF928
:104C10003B681A683D4B1340002B6CD03C48FFF7B3
:104C2000F3F8C7F8C4003B681B683A4A934227D19F
:104C3000D7F8C43003F40003002B21D17B681B6834
:104C4000354A934257D1D7F8C43043F4000319468C
:104C50002F48FFF7C6F8314B1B689B09304AA2FB6F
:104C600003239B095A1C13465B0013449B00FB6003
:104C700002E0FB68013BFB60FB68002BF9D13AE0E6
:104C80003B681B68274A934213D1D7F8C43003F01E
:104C90008073002B0DD17B681B681F4A93422AD179
:104CA000D7F8C43043F0807319461948FFF799F8D4
:104CB00021E03B681B681C4A93421CD1D7F8C430E2
:104CC00003F48003002B16D17B681B68124A9342C1
:104CD00011D1D7F8C43043F4800319460C48FFF7CC
:104CE00080F808E07B685B6D43F020027B685A65C2
:104CF000012387F8D7307B68002283F8502097F88B
:104D0000D7301846D837BD4680BD00BF00000880A8
:104D100000030450000052C7000004501C00002093
:104D2000632D3E05000084CB0100008080B584B077
:104D300000AF78600023BB607B681B681846FFF7F4
:104D4000CBF90346002B69D17B681B689A68364B08
:104D50001340002B0DD07B685B6D43F010027B6825
:104D60005A657B689B6D43F001027B689A6501235D
:104D700055E07B681B681846FFF786F92B48FFF75C
:104D800043F8034603F40003002B13D0284B1B68A1
:104D90009B09284AA2FB03239B095A1C13465B006C
:104DA00013449B00BB6002E0BB68013BBB60BB6877
:104DB000002BF9D1FEF7D2FFF86028E07B681B6872
:104DC0001846FFF789F90346002B04D17B681B685E
:104DD0001846FFF759F9FEF7C1FF0246FB68D31AE0
:104DE000022B14D97B681B681B6803F00103012B9D
:104DF0000DD07B685B6D43F010027B685A657B6861
:104E00009B6D43F001027B689A65012307E07B6894
:104E10001B681B6803F00103012BCFD10023184648
:104E20001037BD4680BD00BF3F0000800003045026
:104E30001C000020632D3E0580B584B000AF786073
:104E40007B681B681846FFF75AF9F8607B681B6897
:104E50001846FFF741F90346002B47D0FB68002BAB
:104E600044D17B681B689B6803F00D03012B0CD1B8
:104E70007B681B681846FFF71BF97B681B680322D9
:104E80001A60FEF76BFFB86029E07B685B6D43F04A
:104E900010027B685A657B689B6D43F001027B685A
:104EA0009A65012323E0FEF759FF0246BB68D31A37
:104EB000022B14D97B681B689B6803F00103002B4D
:104EC0000DD07B685B6D43F010027B685A657B6890
:104ED0009B6D43F001027B689A65012307E07B68C4
:104EE0001B689B6803F00103002BDCD100231846EC
:104EF0001037BD4680BD80B584B000AF78607B6858
:104F00009B6AFB60FB685B6D03F05003002B4BD189
:104F1000FB685B6D43F40072FB685A65FB681B68B5
:104F20001B6803F00803002B21D0FB681B681846A0
:104F3000FEF7CDFF0346002B32D0FB681B68DB6811
:104F400003F40053002B2BD1FB685B6D23F48072BC
:104F5000FB685A65FB685B6D03F48053002B1FD11F
:104F6000FB685B6D43F00102FB685A6518E0FB6863
:104F70001B68DB6803F00203002B11D1FB685B6D3B
:104F800023F48072FB685A65FB685B6D03F4805301
:104F9000002B05D1FB685B6D43F00102FB685A658D
:104FA000F868FFF7C5FA0EE0FB685B6D03F01003CD
:104FB000002B03D0F868FFF7CFFA04E0FB68DB6C46
:104FC0005B6B7868984700BF1037BD4680BD80B5E1
:104FD00084B000AF78607B689B6AFB60F868FFF77D
:104FE000B1FA00BF1037BD4680BD80B584B000AFB8
:104FF00078607B689B6AFB60FB685B6D43F04002F6
:10500000FB685A65FB689B6D43F00402FB689A6578
:10501000F868FFF7A1FA00BF1037BD4680BD80B425
:1050200083B000AF786039607B689B6823F04043B1
:1050300023F03F033A6802F08042134343F00042FA
:105040007B689A6000BF0C37BD465DF8047B7047F3
:1050500080B483B000AF78607B689B6803F0004346
:10506000B3F1004F01D1012300E0002318460C37B3
:10507000BD465DF8047B704780B584B000AF7860B2
:1050800039600023BB607B6893F85030012B01D15D
:1050900002234DE07B68012283F850207868FFF7F7
:1050A000CBFE0346FB73FB7B002B36D17B685B6D2D
:1050B00023F4885323F0020343F002027B685A650D
:1050C0007B681B6839681846FFF7A9FF14E0BB68C6
:1050D0000133BB60BB68B3F5912F0DD37B685B6D6B
:1050E00023F0120343F010027B685A657B680022AC
:1050F00083F8502001231BE07B681B681846FFF7EC
:10510000A7FF0346002BE2D17B685B6D23F003030E
:1051100043F001027B685A6505E07B685B6D43F0F4
:1051200010027B685A657B68002283F85020FB7B65
:1051300018461037BD4680BD80B485B000AF78609A
:105140007B6803F00703FB600C4BDB68BB60BA684D
:105150004FF6FF031340BB60FB681A02BB681343A2
:1051600043F0BF6343F40033BB60044ABB68D360C1
:1051700000BF1437BD465DF8047B704700ED00E0CA
:1051800080B400AF044BDB681B0A03F0070318462A
:10519000BD465DF8047B704700ED00E080B483B04D
:1051A00000AF0346FB7197F90730002B0BDBFB794F
:1051B00003F01F02074997F907305B09012000FA45
:1051C00002F241F8232000BF0C37BD465DF8047B96
:1051D000704700BF00E100E080B483B000AF034639
:1051E0003960FB7197F90730002B0ADB3B68DAB2B4
:1051F0000C4997F907301201D2B20B4483F800230F
:105200000AE03B68DAB20849FB7903F00F03043B7C
:105210001201D2B20B441A7600BF0C37BD465DF8BE
:10522000047B704700E100E000ED00E080B489B04D
:1052300000AFF860B9607A60FB6803F00703FB61B8
:10524000FB69C3F10703042B28BF0423BB61FB697F
:105250000433062B02D9FB69033B00E000237B618A
:105260004FF0FF32BB6902FA03F3DA43BB681A401E
:105270007B699A404FF0FF317B6901FA03F3D94310
:105280007B680B40134318462437BD465DF8047B0A
:105290007047000080B582B000AF78607B68013B4A
:1052A000B3F1807F01D301230FE00A4A7B68013B01
:1052B00053600F214FF0FF30FFF78EFF054B0022A8
:1052C0009A60044B07221A60002318460837BD462F
:1052D00080BD00BF10E000E080B582B000AF786014
:1052E0007868FFF729FF00BF0837BD4680BD80B54D
:1052F00086B000AF0346B9607A60FB7300237B6120
:10530000FFF73EFF78617A68B9687869FFF78EFF2A
:10531000024697F90F3011461846FFF75DFF00BFB0
:105320001837BD4680BD80B582B000AF0346FB7123
:1053300097F907301846FFF731FF00BF0837BD4621
:1053400080BD80B582B000AF78607868FFF7A2FFBB
:10535000034618460837BD4680BD80B500AFFEF74E
:1053600043F800BF80BD000080B582B000AF786018
:105370007B68002B01D1012354E07B685B7FDBB2AB
:10538000002B05D17B6800221A777868FDF706FDAF
:105390007B6802225A777B681B79002B0CD17B68D3
:1053A0001B68224A5A617B681B689A687B681B6885
:1053B00022F018029A600CE07B6899687B68DB68D1
:1053C0001A46786800F048F90346002B01D0012303
:1053D00028E07B685B79002B05D17B681B684FF068
:1053E000FF321A6104E07B681B687A6812691A61EF
:1053F0007B681B689B6823F060017B685A697B6847
:105400001B680A439A607B681B689B6823F08001D5
:105410007B689A697B681B680A439A607B680122F3
:105420005A77002318460837BD4680BDB71DC10412
:1054300080B586B000AFF860B9607A6000233B6148
:10544000FB6802225A77FB681B689A68FB681B6836
:1054500042F001029A60FB681B6A032B06D0032B03
:1054600029D8012B19D0022B1ED024E000237B6108
:105470000AE07B699B00BA681A44FB681B681268E3
:105480001A607B6901337B617A697B689A42F0D349
:10549000FB681B681B683B610EE07A68B968F868B6
:1054A00000F012F8386107E07A68B968F86800F02F
:1054B00099F8386100E000BFFB6801225A773B6928
:1054C00018461837BD4680BD80B489B000AFF8607B
:1054D000B9607A600023FB6123E0FB699B00BA6836
:1054E00013441B781A06FB699B000133B9680B440F
:1054F0001B781B041A43FB699B000233B9680B44F9
:105500001B781B021A43FB699B000333B9680B44E9
:105510001B781946FB681B680A431A60FB69013354
:10552000FB617B689B08FA699A42D6D37B6803F0DB
:105530000303002B4DD07B6803F00303012B07D13D
:10554000FB699B00BA681344FA6812681B781370F1
:105550007B6803F00303022B16D1FB699B00BA683A
:1055600013441B781B021AB2FB699B000133B96814
:105570000B441B781BB213431BB27B83FB681B6875
:105580007B617B697A8B1A807B6803F00303032BB2
:105590001FD1FB699B00BA6813441B781B021AB227
:1055A000FB699B000133B9680B441B781BB21343A2
:1055B0001BB27B83FB681B687B617B697A8B1A80DB
:1055C000FB699B000233BA681344FA6812681B78BF
:1055D0001370FB681B681B6818462437BD465DF8CE
:1055E000047B704780B487B000AFF860B9607A6020
:1055F00000237B6113E07B699B00BA6813441B881E
:105600001A047B699B000233B9680B441B88194656
:10561000FB681B680A431A607B6901337B617B6806
:105620005B087A699A42E6D37B6803F00103002B9A
:1056300009D0FB681B683B617B699B00BA68134417
:105640001A883B691A80FB681B681B6818461C3760
:10565000BD465DF8047B704780B487B000AFF8604A
:10566000B9607A600023FB751F233B6100BF3B6973
:105670005A1E3A61002B09D03B6903F01F03BA6838
:1056800022FA03F303F00103002BF0D07B68182B00
:1056900046D801A252F823F02757000821570008E6
:1056A00021570008215700082157000821570008FA
:1056B00021570008215700081557000821570008F6
:1056C00021570008215700082157000821570008DA
:1056D00021570008215700080957000821570008E2
:1056E00021570008215700082157000821570008BA
:1056F0002157000821570008FD5600083B69062B7A
:1057000013D90123FB7510E03B69072B0FD9012347
:10571000FB750CE03B690F2B0BD90123FB7508E0EF
:105720000123FB7506E000BF04E000BF02E000BFFC
:1057300000E000BFFB7D002B0DD1FB681B68BA6841
:105740005A61FB681B689B6823F01801FB681B68A3
:105750007A680A439A60FB7D18461C37BD465DF89F
:10576000047B704780B485B000AF78607B68002B05
:1057700001D1012398E07B681B681A464D4B9A4281
:105780000FD87B681B681A464B4B13444B4AA2FB4D
:1057900003231B099A007B685A647B68484A1A6491
:1057A0000EE07B681B681A46464B1344434AA2FB33
:1057B00003231B099A007B685A647B68424A1A6477
:1057C0007B68022283F825207B681B681B68FB60CE
:1057D000FB6823F4FF4323F07003FB607B689A6847
:1057E0007B68DB681A437B681B691A437B685B69CB
:1057F0001A437B689B691A437B68DB691A437B68A1
:105800001B6A1343FA681343FB607B681B68FA68E2
:105810001A607B689B68B3F5804F39D07B681B6C3E
:10582000274A93421AD1294B1A687B685B6C03F0B4
:105830001C030F2101FA03F3DB43244913400B60DF
:10584000224B1A687B6859687B685B6C03F01C0309
:1058500001FA03F31D4913430B6019E01C4B1A684E
:105860007B685B6C03F01C030F2101FA03F3DB433D
:10587000174913400B60164B1A687B6859687B68A0
:105880005B6C03F01C0301FA03F3114913430B6033
:105890007B680022DA637B68012283F825207B681D
:1058A000002283F82420002318461437BD465DF8F3
:1058B000047B704707040240F8FFFDBFCDCCCCCC81
:1058C00000000240F8FBFDBF00040240A8000240B7
:1058D000A804024080B586B000AFF860B9607A6075
:1058E0003B600023FB75FB6893F82430012B01D14A
:1058F00002234BE0FB68012283F82420FB6893F825
:105900002530DBB2012B3AD1FB68022283F8252037
:10591000FB680022DA63FB681B681A68FB681B6877
:1059200022F001021A603B687A68B968F86800F0F2
:105930005FF9FB681B6B002B08D0FB681B681A68BB
:10594000FB681B6842F00E021A600FE0FB681B68E0
:105950001A68FB681B6822F004021A60FB681B6867
:105960001A68FB681B6842F00A021A60FB681B6831
:105970001A68FB681B6842F001021A6005E0FB68C8
:10598000002283F824200223FB75FB7D184618377C
:10599000BD4680BD80B485B000AF78600023FB7346
:1059A0007B6893F82530DBB2022B08D07B68042299
:1059B000DA637B68002283F82420012322E07B68DD
:1059C0001B681A687B681B6822F00E021A607B68ED
:1059D0001B681A687B681B6822F001021A607B68EA
:1059E0005B6C03F01C027B681B6C012101FA02F264
:1059F0005A607B68012283F825207B68002283F8A7
:105A00002420FB7B18461437BD465DF8047B7047A5
:105A100080B584B000AF78600023FB737B6893F897
:105A20002530DBB2022B05D07B680422DA63012328
:105A3000FB7329E07B681B681A687B681B6822F08F
:105A40000E021A607B681B681A687B681B6822F06C
:105A500001021A607B685B6C03F01C027B681B6CA4
:105A6000012101FA02F25A607B68012283F82520A5
:105A70007B68002283F824207B689B6B002B03D07B
:105A80007B689B6B78689847FB7B18461037BD4650
:105A900080BD80B584B000AF78607B681B6C1B68EC
:105AA000FB607B681B681B68BB607B685B6C03F0FA
:105AB0001C0304229A40FB681340002B26D0BB68CD
:105AC00003F00403002B21D07B681B681B6803F0E4
:105AD0002003002B07D17B681B681A687B681B6852
