:020000040800F2
:100000000000012015660008B5580008BB5800081C
:10001000C1580008C7580008CD580008000000006B
:10002000000000000000000000000000D35800089D
:10003000E158000800000000EF580008FD580008D3
:100040006566000865660008656600086566000864
:100050006566000865660008656600086566000854
:100060006566000865660008656600080D590008A9
:100070006566000865660008656600086566000834
:100080006566000865660008656600086566000824
:100090006566000865660008656600086566000814
:1000A0006566000865660008656600086566000804
:1000B000656600080000000000000000656600089A
:1000C00065660008656600086566000865660008E4
:1000D0006566000821590008355900086566000862
:1000E000656600086566000800000000000000006A
:1000F0000000000000000000000000000000000000
:100100000000000065660008000000006566000849
:100110000000000000000000656600086566000839
:100120006566000865660008656600086566000883
:1001300065660008000000000000000000000000EC
:100140006566000865660008656600080000000036
:100150006566000865660008656600086566000853
:100160006566000865660008656600080000000016
:1001700065660008656600080000000000000000D9
:0C018000656600086566000865660008FA
:1001900010B5054C237833B9044B13B10448AFF3C1
:1001A00000800123237010BD0C020020000000001D
:1001B000C417010808B5034B1BB103490348AFF34B
:1001C000008008BD0000000010020020C4170108D4
:1001D00001F0FF01102A2BDB10F0070F08D010F8F8
:1001E000013B013A8B422DD010F0070F42B3F6D1FC
:1001F000F0B441EA012141EA014122F007047FF015
:1002000000070023F0E80256083C85EA010586EA6B
:10021000010685FA47F5A3FA87F586FA47F6A5FAA7
:1002200087F68EB9EED1F0BC01F0FF0102F00702B3
:1002300032B110F8013B013A83EA010313B1F8D15E
:100240000020704701387047002D06BF354603383F
:10025000073815F0010F07D1013015F4807F02BF78
:10026000013015F4C03F0130F0BC0138704700BFC9
:10027000034613F8012B002AFBD1181A01387047E6
:1002800081F0004102E000BF83F0004330B54FEA47
:1002900041044FEA430594EA050F08BF90EA020FB4
:1002A0001FBF54EA000C55EA020C7FEA645C7FEA47
:1002B000655C00F0E2804FEA5454D4EB5555B8BF6A
:1002C0006D420CDD2C4480EA020281EA030382EADB
:1002D000000083EA010180EA020281EA0303362D6D
:1002E00088BF30BD11F0004F4FEA01314FF4801C40
:1002F0004CEA113102D0404261EB410113F0004F52
:100300004FEA03334CEA133302D0524263EB430308
:1003100094EA050F00F0A780A4F10104D5F1200EA6
:100320000DDB02FA0EFC22FA05F2801841F1000101
:1003300003FA0EF2801843FA05F359410EE0A5F1D5
:1003400020050EF1200E012A03FA0EFC28BF4CF006
:10035000020C43FA05F3C01851EBE37101F00045BC
:1003600007D54FF0000EDCF1000C7EEB00006EEBC9
:100370000101B1F5801F1BD3B1F5001F0CD3490853
:100380005FEA30004FEA3C0C04F101044FEA4452AA
:1003900012F5800F80F09A80BCF1004F08BF5FEA31
:1003A000500C50F1000041EB045141EA050130BD11
:1003B0005FEA4C0C404141EB0101013C28BFB1F523
:1003C000801FE9D291F0000F04BF01460020B1FA6E
:1003D00081F308BF2033A3F10B03B3F120020CDA41
:1003E0000C3208DD02F1140CC2F10C0201FA0CF01F
:1003F00021FA02F10CE002F11402D8BFC2F1200C84
:1004000001FA02F120FA0CFCDCBF41EA0C01904039
:10041000E41AA2BF01EB0451294330BD6FEA040482
:100420001F3C1CDA0C340EDC04F11404C4F120026D
:1004300020FA04F001FA02F340EA030021FA04F37F
:1004400045EA030130BDC4F10C04C4F1200220FAD6
:1004500002F001FA04F340EA0300294630BD21FA14
:1004600004F0294630BD94F0000F83F4801306BFDA
:1004700081F480110134013D4EE77FEA645C18BFCE
:100480007FEA655C29D094EA050F08BF90EA020F65
:1004900005D054EA000C04BF1946104630BD91EA5D
:1004A000030F1EBF0021002030BD5FEA545C05D160
:1004B0004000494128BF41F0004130BD14F580049F
:1004C0003CBF01F5801130BD01F0004545F0FE4113
:1004D00041F470014FF0000030BD7FEA645C1ABF48
:1004E000194610467FEA655C1CBF0B46024650EA7F
:1004F000013406BF52EA033591EA030F41F40021AB
:1005000030BD00BF90F0000F04BF0021704730B530
:100510004FF4806404F132044FF000054FF0000105
:1005200050E700BF90F0000F04BF0021704730B5C6
:100530004FF4806404F1320410F0004548BF40429B
:100540004FF000013EE700BF42004FEAE2014FEAF0
:1005500031014FEA02701FBF12F07F4393F07F4FCB
:1005600081F06051704732F07F4208BF704793F0CE
:100570007F4F04BF41F40021704730B54FF46074E1
:1005800001F0004521F000411CE700BF50EA0102E4
:1005900008BF704730B54FF000050AE050EA01028D
:1005A00008BF704730B511F0004502D5404261EBFD
:1005B00041014FF4806404F132045FEA915C3FF43E
:1005C000D8AE4FF003025FEADC0C18BF03325FEADB
:1005D000DC0C18BF033202EBDC02C2F1200300FA8C
:1005E00003FC20FA02F001FA03FE40EA0E0021FAB1
:1005F00002F11444BDE600BF70B54FF0FF0C4CF49F
:10060000E06C1CEA11541DBF1CEA135594EA0C0F50
:1006100095EA0C0F00F0DEF82C4481EA030621EA8B
:100620004C5123EA4C5350EA013518BF52EA0335C6
:1006300041F4801143F4801338D0A0FB02CE4FF078
:100640000005E1FB02E506F00042E0FB03E54FF0A8
:100650000006E1FB03569CF0000F18BF4EF0010EA0
:10066000A4F1FF04B6F5007F64F5407404D25FEA9C
:100670004E0E6D4146EB060642EAC62141EA55514F
:100680004FEAC52040EA5E504FEACE2EB4F1FD0C91
:1006900088BFBCF5E06F1ED8BEF1004F08BF5FEA0F
:1006A000500E50F1000041EB045170BD06F00046C1
:1006B00046EA010140EA020081EA0301B4EB5C046E
:1006C000C2BFD4EB0C0541EA045170BD41F4801166
:1006D0004FF0000E013C00F3AB8014F1360FDEBF8B
:1006E000002001F0004170BDC4F10004203C35DA67
:1006F0000C341BDC04F11404C4F1200500FA05F3EA
:1007000020FA04F001FA05F240EA020001F000428A
:1007100021F0004110EBD37021FA04F642EB060100
:100720005EEA430E08BF20EAD37070BDC4F10C042A
:10073000C4F1200500FA04F320FA05F001FA04F2EE
:1007400040EA020001F0004110EBD37041F10001DA
:100750005EEA430E08BF20EAD37070BDC4F12005E5
:1007600000FA05F24EEA020E20FA04F301FA05F24D
:1007700043EA020321FA04F001F0004121FA04F2F5
:1007800020EA020000EBD3705EEA430E08BF20EAC5
:10079000D37070BD94F0000F0FD101F000464000FF
:1007A00041EB010111F4801F08BF013CF7D041EA81
:1007B000060195F0000F18BF704703F00046520085
:1007C00043EB030313F4801F08BF013DF7D043EA56
:1007D0000603704794EA0C0F0CEA135518BF95EA0C
:1007E0000C0F0CD050EA410618BF52EA4306D1D193
:1007F00081EA030101F000414FF0000070BD50EAB2
:10080000410606BF1046194652EA430619D094EA3B
:100810000C0F02D150EA013613D195EA0C0F05D125
:1008200052EA03361CBF104619460AD181EA030179
:1008300001F0004141F0FE4141F470014FF0000031
:1008400070BD41F0FE4141F4780170BD70B54FF0CC
:10085000FF0C4CF4E06C1CEA11541DBF1CEA13554C
:1008600094EA0C0F95EA0C0F00F0A7F8A4EB05042E
:1008700081EA030E52EA03354FEA013100F0888025
:100880004FEA03334FF0805545EA131343EA1263EE
:100890004FEA022245EA111545EA10654FEA0026A3
:1008A0000EF000419D4208BF964244F1FD0404F55C
:1008B000407402D25B084FEA3202B61A65EB0305B8
:1008C0005B084FEA32024FF480104FF4002CB6EB75
:1008D000020E75EB030E22BFB61A754640EA0C00F5
:1008E0005B084FEA3202B6EB020E75EB030E22BF35
:1008F000B61A754640EA5C005B084FEA3202B6EB76
:10090000020E75EB030E22BFB61A754640EA9C0034
:100910005B084FEA3202B6EB020E75EB030E22BF04
:10092000B61A754640EADC0055EA060E18D04FEAC2
:10093000051545EA16754FEA06164FEAC30343EA62
:1009400052734FEAC2025FEA1C1CC0D111F4801F2F
:100950000BD141EA00014FF000004FF0004CB6E728
:1009600011F4801F04BF01430020B4F1FD0C88BFC7
:10097000BCF5E06F3FF6AFAEB5EB030C04BFB6EBD2
:10098000020C5FEA500C50F1000041EB045170BDC5
:100990000EF0004E4EEA113114EB5C04C2BFD4EBF2
:1009A0000C0541EA045170BD41F480114FF0000E76
:1009B000013C90E645EA060E8DE60CEA135594EAF2
:1009C0000C0F08BF95EA0C0F3FF43BAF94EA0C0FF5
:1009D0000AD150EA01347FF434AF95EA0C0F7FF46A
:1009E00025AF104619462CE795EA0C0F06D152EABE
:1009F00003353FF4FDAE1046194622E750EA4106A2
:100A000018BF52EA43067FF4C5AE50EA41047FF4B2
:100A10000DAF52EA43057FF4EBAE12E74FF0FF3C17
:100A200006E000BF4FF0010C02E000BF4FF0010CE8
:100A30004DF804CD4FEA410C7FEA6C5C4FEA430C61
:100A400018BF7FEA6C5C1BD001B050EA410C0CBFB0
:100A500052EA430C91EA030F02BF90EA020F002012
:100A6000704710F1000F91EA030F58BF994208BF79
:100A700090422CBFD8176FEAE37040F00100704736
:100A80004FEA410C7FEA6C5C02D150EA013C07D18D
:100A90004FEA430C7FEA6C5CD6D152EA033CD3D0D8
:100AA0005DF8040B704700BF8446104662468C46D2
:100AB0001946634600E000BF01B5FFF7B7FF002805
:100AC00048BF10F1000F01BD4DF808EDFFF7F4FF2E
:100AD0000CBF012000205DF808FB00BF4DF808EDB9
:100AE000FFF7EAFF34BF012000205DF808FB00BFDC
:100AF0004DF808EDFFF7E0FF94BF012000205DF8FE
:100B000008FB00BF4DF808EDFFF7CEFF94BF0120B2
:100B100000205DF808FB00BF4DF808EDFFF7C4FFAB
:100B200034BF012000205DF808FB00BF4FEA410CF4
:100B30007FEA6C5C02D150EA013C0AD14FEA430CD7
:100B40007FEA6C5C02D152EA033C02D14FF0000014
:100B500070474FF0010070474FEA410212F5001252
:100B600015D211D56FF47873B3EB625212D94FEAF4
:100B7000C12343F0004343EA505311F0004F23FADE
:100B800002F018BF404270474FF00000704750EA33
:100B9000013005D111F0004008BF6FF000407047F0
:100BA0004FF00000704700BF4A0011D212F500124A
:100BB00011D20DD56FF47873B3EB62520ED44FEAB5
:100BC000C12343F0004343EA505323FA02F0704735
:100BD0004FF00000704750EA013002D14FF0FF3073
:100BE00070474FF0000070474FEA4102B2F1E04316
:100BF00024BFB3F5001CDCF1FE5C0DD901F0004C04
:100C00004FEAC0024CEA5070B2F1004F40EB830053
:100C100008BF20F00100704711F0804F21D113F17F
:100C20003872BCBF01F00040704741F480114FEAB8
:100C30005252C2F11802C2F1200C10FA0CF320FA41
:100C400002F018BF40F001004FEAC1234FEAD3235E
:100C500003FA0CFC40EA0C0023FA02F34FEA4303C8
:100C6000CCE77FEA625307D150EA01331EBF4FF051
:100C7000FE4040F44000704701F0004040F0FE406C
:100C800040F40000704700BF80F0004002E000BF69
:100C900081F0004142001FBF5FEA410392EA030F67
:100CA0007FEA226C7FEA236C6AD04FEA1262D2EBB1
:100CB0001363C1BFD218414048404140B8BF5B42B6
:100CC000192B88BF704710F0004F40F4000020F04F
:100CD0007F4018BF404211F0004F41F4000121F065
:100CE0007F4118BF494292EA030F3FD0A2F10102AF
:100CF00041FA03FC10EB0C00C3F1200301FA03F1ED
:100D000000F0004302D5494260EB4000B0F5000F0F
:100D100013D3B0F1807F06D340084FEA310102F1CE
:100D20000102FE2A51D2B1F1004F40EBC25008BF80
:100D300020F0010040EA03007047490040EB00004A
:100D4000013A28BFB0F5000FEDD2B0FA80FCACF14B
:100D5000080CB2EB0C0200FA0CF0AABF00EBC25078
:100D600052421843BCBFD0401843704792F0000F66
:100D700081F4000106BF80F400000132013BB5E7B9
:100D80004FEA41037FEA226C18BF7FEA236C21D02F
:100D900092EA030F04D092F0000F08BF0846704794
:100DA00090EA010F1CBF0020704712F07F4F04D162
:100DB000400028BF40F00040704712F100723CBF75
:100DC00000F50000704700F0004343F0FE4040F49F
:100DD000000070477FEA226216BF08467FEA23635D
:100DE0000146420206BF5FEA412390EA010F40F448
:100DF000800070474FF0000304E000BF10F0004394
:100E000048BF40425FEA000C08BF704743F096437A
:100E100001464FF000001CE050EA010208BF704795
:100E20004FF000030AE000BF50EA010208BF70471C
:100E300011F0004302D5404261EB41015FEA010C31
:100E400002BF84460146002043F0B64308BFA3F129
:100E50008053A3F50003BCFA8CF2083AA3EBC2530B
:100E600010DB01FA02FC634400FA02FCC2F120022A
:100E7000BCF1004F20FA02F243EB020008BF20F061
:100E80000100704702F1200201FA02FCC2F12002C7
:100E900050EA4C0021FA02F243EB020008BF20EABC
:100EA000DC7070477BB972B90029BEBF00204FF0DB
:100EB000004106E008BF00281CBF6FF000414FF062
:100EC000FF3000F0F1B9ADF1080C6DE904CE002956
:100ED00009DB002B1ADB00F083F8DDF804E0DDE924
:100EE000022304B07047404261EB4101002B1BDB41
:100EF00000F076F8DDF804E0DDE9022304B04042BA
:100F000061EB4101524263EB43037047524263EB92
:100F1000430300F065F8DDF804E0DDE9022304B0E6
:100F2000404261EB41017047524263EB430300F0E2
:100F300057F8DDF804E0DDE9022304B0524263EB28
:100F40004303704753B94AB9002908BF00281CBFA2
:100F50004FF0FF314FF0FF3000F0A6B9ADF1080CB3
:100F60006DE904CE00F03CF8DDF804E0DDE9022391
:100F700004B0704738B50022002304460D46FFF741
:100F8000ADFD28B920462946BDE8384000F00AB832
:100F9000204605F1004100F005F8404261EB4101B7
:100FA00038BD00BFD0B50C4B002206460F46FFF7F8
:100FB00023FBFFF7F9FD0446FFF7A4FA074B0022D5
:100FC000FFF71AFB02460B4630463946FFF75CF93D
:100FD000FFF7EAFD2146D0BD0000F03D0000F041E2
:100FE0002DE9F047089E0D4604460F46002B4AD1D6
:100FF0008A42944665D9B2FA82F343B102FA03FCFD
:10100000C3F120029F4020FA02F217439C404FEAAE
:101010001C4E1FFA8CF5B7FBFEF1220C0EFB11776C
:1010200042EA074201FB05F090420AD91CEB02029A
:1010300001F1FF3780F01C81904240F219810239A2
:101040006244121AA4B2B2FBFEF00EFB102244EA74
:10105000024400FB05F5A5420AD91CEB040400F18B
:10106000FF3280F00781A54240F2048164440238D7
:1010700040EA0140641B00211EB1DC400023C6E9A8
:101080000043BDE8F0878B4208D9002E00F0ED80C8
:101090000021C6E900050846BDE8F087B3FA83F1F0
:1010A000002949D1AB4202D3824200F2F880841A6F
:1010B00065EB030201201746002EE2D0C6E9004787
:1010C000DFE702B9FFDEB2FA82F3002B40F0908036
:1010D0008A1A4FEA1C471FFA8CFE0121B2FBF7F572
:1010E00007FB1520220C42EA00420EFB05F090425D
:1010F00008D91CEB020205F1FF3802D2904200F23F
:10110000CB804546121AA4B2B2FBF7F007FB1022BF
:1011100044EA02440EFB00FEA64508D91CEB040479
:1011200000F1FF3202D2A64500F2BB801046A4EBCC
:101130000E0440EA05409FE7C1F120078B4022FAE8
:1011400007FC4CEA030C05FA01F420FA07F3FD4012
:101150004FEA1C492343B5FBF9F81FFA8CFE09FB43
:1011600018551C0C44EA054408FB0EF5A54202FA8A
:1011700001F200FA01F00BD91CEB040408F1FF3A6C
:1011800080F08880A54240F28580A8F1020864447E
:10119000641B9DB2B4FBF9F309FB134445EA044414
:1011A00003FB0EFEA64508D91CEB040403F1FF3532
:1011B0006CD2A6456AD9023B644443EA0843A3FBC8
:1011C0000295A4EB0E04AC42C846AE4656D353D0AB
:1011D00056B1B0EB080264EB0E0404FA07F7CA40FC
:1011E000CC401743C6E9007418460021BDE8F087DB
:1011F000C3F1200102FA03FC20FA01F225FA01F101
:101200009D402A434FEA1C471FFA8CFEB1FBF7F0C2
:1012100007FB1015110C41EA054100FB0EF58D424C
:1012200004FA03F408D91CEB010100F1FF382FD2B6
:101230008D422DD902386144491B92B2B1FBF7F5BA
:1012400007FB151142EA014205FB0EF1914208D954
:101250001CEB020205F1FF3816D2914214D9023D6F
:101260006244521A45EA004138E73146304608E701
:101270003946E6E61046FBE64845A9D2B9EB020836
:1012800065EB0C0E013BA3E74546EAE72B4694E7E6
:101290004046D1E7D0467BE7023D624432E708464C
:1012A0000AE76444023842E7704700BF80B485B063
:1012B00000AF03460A46FB8013467B71FB881B0A7E
:1012C0009BB2DAB27B795340FB73FB7B1B09DAB22A
:1012D000FB7B5340FB73FB881B021AB2FB7B9BB268
:1012E0001B039BB21BB253401AB2FB7B9BB25B0148
:1012F0009BB21BB253401AB2FB7B1BB253401BB2D2
:10130000FB80FB8818461437BD465DF8047B7047A8
:1013100080B584B000AF144B4FF0FF3283F8382013
:101320004FF0FF3283F839200F4BFB604FF6FF730D
:101330007B8100237B600DE0FB685A1CFA601A7801
:101340007B8911461846FFF7B1FF03467B817B6816
:1013500001337B607B68372BEED9034B7A891A8780
:1013600000BF1037BD4680BD9008002080B58EB00C
:1013700000AFF860B9607A6000237B6107F0C2F9C2
:101380002F4B9B692E4A43F0404393612C4B4CF208
:10139000FA321A610023BB610123FB61FB683B62E7
:1013A00001237B6207F1140207F118031146184666
:1013B00007F08EFA0346002B08D007F0C5F9FB684A
:1013C000194620480DF052FD002335E0FB68DB0292
:1013D000FB60FB6803F10063FB6000237B6322E09A
:1013E000BB68D3E90023C7E90A23BB680833BB60A5
:1013F0007B6BDA00FB68D118D7E90A23002007F0DD
:1014000015F90346002B0BD007F09EF97B6BDA0031
:10141000FB68134419460C480DF028FD01230BE02E
:101420007B6B01337B637B68DB0801337A6B9A4209
:10143000D6D307F089F9002318463837BD4680BD5A
:1014400000200240E0170108F417010880B487B0BB
:1014500000AFF860B9607A60FB6803F100637B61FC
:1014600000233B610AE07B695A1C7A61B9683A69DA
:101470000A441B7813703B6901333B613A697B680E
:101480009A42F0D300BF00BF1C37BD465DF8047B15
:10149000704780B586B000AFF860B9607A60FB68CD
:1014A00003F00103FB60FB687E33FB6000233B61BC
:1014B0000CE07A68B968F868FFF758FF0346FB75D7
:1014C000FB7D002B06D03B6901333B613B69032B5D
:1014D000EFDD00E000BFFB7D18461837BD4680BD3C
:1014E00080B584B000AFF860B9607A60FB6803F043
:1014F0000103FB60FB68DB02FB60FB6803F57C33E8
:10150000FB607A68B968F868FFF7A0FF00BF103782
:10151000BD4680BD80B582B000AF0023FB71154B86
:1015200093F8382093F839301B021343BB80FFF740
:10153000EFFE104B1B8F9BB2BA889A4215D00D4B11
:101540003B603A2239680020FFF7A3FF0346FB7196
:101550003A2239680120FFF79CFF03461A46FB79BF
:101560001343FB71FB790133FB71FB791846083794
:10157000BD4680BD9008002080B500AF3A22002112
:101580002B480DF0B9FD2A4B002242F001021A70DF
:1015900000225A70264B0233264A1A60244B00223E
:1015A00062F01B029A71002242F00C02DA71204BA9
:1015B0004FF000029A601E4B4FF00002DA601C4BA5
:1015C0004FF000021A611A4B4FF000025A61184B9B
:1015D0004FF000029A61164B4FF00002DA61144B93
:1015E0004FF000021A62124B4FF000025A62104B89
:1015F0004FF000029A620E4B4FF00002DA620C4B81
:101600004FF000021A630A4B002283F83420084B83
:10161000002283F83520064B002283F83620044B45
:10162000002283F83720FFF773FE00BF80BD00BFA4
:101630009008002017D94E3D80B586B000AF00233A
:101640007B613A233B60524B3B613A683969002029
:10165000FFF746FF4FF6FF73FB810023BB600DE0F1
:101660003B695A1C3A611A78FB8911461846FFF704
:101670001DFE0346FB81BB680133BB603B689A1EBD
:10168000BB689A42ECD8424B1B8F9BB2FA899A42B4
:1016900003D17B6943F001037B613D4B3B613A68B9
:1016A00039690120FFF71CFF4FF6FF73FB81002310
:1016B0007B600DE03B695A1C3A611A78FB89114640
:1016C0001846FFF7F3FD0346FB817B6801337B601F
:1016D0003B689A1E7B689A42ECD82D4B1B8F9BB2BD
:1016E000FA899A4203D17B6943F002037B61284B5C
:1016F0001B889BB2012B01D000237B61244B3B61F3
:101700007B69022B2DD07B69022B3CD87B69002B97
:1017100003D07B69012B10D035E0FFF72DFF1D486A
:101720000DF00AFCFFF7F6FE03467B617B69012B97
:1017300001D9032328E0022326E03A683969002012
:10174000FFF7CEFE14480DF0F7FB3A683969012027
:10175000FFF79FFE03467B617B69002B10D00323BC
:1017600012E03A6839690020FFF793FE03467B6177
:101770000A480DF0E1FB7B69002B03D0032303E053
:1017800000BF00E000BF002318461837BD4680BDEB
:10179000900800201018010838180108681801087E
:1017A00080B500AF58480DF0C7FB584B1B889BB263
:1017B000194657480DF05AFB544BD3F802301846DF
:1017C000FEF7C2FE02460B4652480DF04FFB4F4B50
:1017D000DB889BB2194650480DF048FB4B4B9B6889
:1017E0001846FEF7B1FE02460B464C480DF03EFB94
:1017F000464BDB681846FEF7A7FE02460B464848F4
:101800000DF034FB414B1B691846FEF79DFE024666
:101810000B4644480DF02AFB3C4B5B691846FEF72B
:1018200093FE02460B4640480DF020FB374B9B6968
:101830001846FEF789FE02460B463C480DF016FBA3
:10184000324BDB691846FEF77FFE02460B463848EE
:101850000DF00CFB2D4B1B6A1846FEF775FE024679
:101860000B4634480DF002FB284B5B6A1846FEF726
:101870006BFE02460B4630480DF0F8FA234B9B6A8C
:101880001846FEF761FE02460B462C480DF0EEFAB4
:101890001E4BDB6A1846FEF757FE02460B462848E9
:1018A0000DF0E4FA194B1B6B1846FEF74DFE02468D
:1018B0000B4624480DF0DAFA144B93F834301946ED
:1018C00021480DF0D3FA114B93F8353019461F48D3
:1018D0000DF0CCFA0D4B93F8363019461C480DF03C
:1018E000C5FA0A4B93F8373019461A480DF0BEFA7C
:1018F000064B1B8F9BB2194617480DF0B7FA0248EA
:101900000DF01AFB00BF80BD981801089008002058
:10191000BC180108D4180108EC18010804190108C2
:101920002019010838190108501901086C1901081B
:1019300088190108A4190108C0190108DC19010857
:10194000F8190108141A0108341A0108501A01087C
:10195000681A0108841A0108A01A010880B500AFAE
:101960007F21064806F076F80A2004F0F1FE0522F1
:101970000349024805F046FA00BF80BDA8040020D4
:101980002802002000000000B0B584B000AF0023A2
:10199000FB81334B1B887B81324B1B883B810023AF
:1019A0007B730AE07B7B304A32F813309AB2FB89B2
:1019B0001344FB817B7B01337B737B7B042BF1D94D
:1019C000FB8907EE903AF8EEE77A9FED287A67EE0A
:1019D000877AFCEEE77A17EE903AFB817B8907EE77
:1019E000903AB8EEE77AFB8907EE903AF8EE677A1C
:1019F00077EE677A17EE900AFEF7A6FD16A3D3E9F5
:101A00000023FEF7F9FD02460B4614461D463B89AE
:101A10001846FEF787FD02460B4620462946FEF78C
:101A200015FF02460B46104619464FF00002104BB8
:101A3000FEF72CFC02460B4610461946FFF7D4F879
:101A400003467B607B6807EE903AB0EE670A10377A
:101A5000BD46B0BDAFF30080333333333333114071
:101A6000A875FF1FCA75FF1F28020020CDCC4C3E71
:101A70000000394080B58AB004AFF8600B467A6048
:101A8000FB72FB689B8C5B00FB82FB68986AFB7AAD
:101A90009AB2F98A41F2883302930223019307F143
:101AA00014030093012307F08BFD0346002B0BD199
:101AB0007B7D1B021AB23B7D1BB213431BB29AB251
:101AC0007B681A80012300E0002318461837BD46C2
:101AD00080BD90B58BB004AFF8607A601A460B46B3
:101AE000FB721346BB72FB689B8C5B00FB82FB683E
:101AF000986AFB7A9AB2BB7A9BB2F98A41F288342F
:101B0000029401937B680093012307F059FD03467B
:101B1000002B01D1002300E0012318461C37BD46ED
:101B200090BD80B582B000AF78607B681A4688218E
:101B30007868FFF79FFF0346002B6FD07B68023366
:101B40001A468A217868FFF795FF0346002B65D077
:101B50007B6804331A468C217868FFF78BFF0346B5
:101B6000002B5BD07B6806331A468E217868FFF71E
:101B700081FF0346002B51D07B6808331A46902121
:101B80007868FFF777FF0346002B47D07B680A335E
:101B90001A4692217868FFF76DFF0346002B3DD06F
:101BA0007B680C331A4694217868FFF763FF03467D
:101BB000002B33D07B680E331A4696217868FFF7E6
:101BC00059FF0346002B29D07B6810331A46982111
:101BD0007868FFF74FFF0346002B1FD07B68123356
:101BE0001A469A217868FFF745FF0346002B15D067
:101BF0007B6814331A469C217868FFF73BFF034645
:101C0000002B0BD07B6816331A469E217868FFF7AD
:101C100031FF0346002B01D0012300E000231846CA
:101C20000837BD4680BD80B584B000AF78607B6862
:101C300003F118020123A1217868FFF74AFF034648
:101C4000002B4BD17B681A331A46E1217868FFF7E5
:101C500011FF0346002B41D07B6803F11C020123D6
:101C6000E3217868FFF735FF0346002B36D107F1F3
:101C70000E031A46E4217868FFF7FCFE0346002BAA
:101C80002CD007F10C031A46E5217868FFF7F2FE25
:101C90000346002B22D07B6803F122020123E721B7
:101CA0007868FFF716FF0346002B17D1FB891B014D
:101CB0001BB203F47F631AB2FB891B121BB203F041
:101CC0000F031BB213431AB27B68DA83BB891B096B
:101CD0009BB21AB27B681A84012300E000231846E5
:101CE0001037BD4680BD80B588B004AF78600B4624
:101CF000FB701346BB707B689B8C5B00FB817B6831
:101D0000986AFB789AB2F98942F210730293012320
:101D10000193BB1C0093012307F03EFB0346002BFD
:101D200001D1002300E0012318461037BD4680BDD5
:101D300080B584B000AF786039607B689B8C762B6F
:101D400005D07B689B8C772B01D0002399E07B68C2
:101D500003F132020123D0217868FFF7BAFE03466F
:101D6000002B01D000238CE07B6893F83230582B95
:101D700006D07B6893F83230602B01D0002380E0DE
:101D8000B622E0217868FFF7AEFF0346002B01D0B2
:101D9000002376E007F10C020123F3217868FFF7B6
:101DA00098FE0346002BF5D13B7B03F00103002B8B
:101DB000F0D17868FFF7B5FE034683F00103DBB28C
:101DC000002B00D101E000235BE07B6893F8323008
:101DD000602B0AD17868FFF726FF034683F00103E2
:101DE000DBB2002B01D000234BE03B685B795B0149
:101DF0005AB23B685B789B005BB213435BB2FB73E8
:101E0000FB7B1A46F5217868FFF76DFF0346002B30
:101E100001D0002335E03B681B78012B02D13B68E1
:101E200000221A703B68DB785B015AB23B689B78F2
:101E30009B005BB213435AB23B681B785BB21343FF
:101E40005BB2BB737B6893F83230602B0DD13B687B
:101E50001B797B737B7B1A46F2217868FFF743FF7F
:101E60000346002B01D000230BE0BB7B1A46F42174
:101E70007868FFF738FF0346002B01D0002300E00D
:101E8000012318461037BD4680BD80B584B000AF31
:101E9000786007F10F020123F4217868FFF719FE3B
:101EA0000346002B01D0002315E0FB7B23F0030346
:101EB000DBB2FB73FB7B43F00103DBB2FB73FB7B09
:101EC0001A46F4217868FFF70EFF0346002B01D075
:101ED000002300E0012318461037BD4680BD80B5C1
:101EE00084B000AF786007F10F020123F321786816
:101EF000FFF7EFFD0346002B01D0002307E0FB7B3B
:101F000003F00803002B01D0012300E00023184652
:101F10001037BD4680BD80B487B000AFF860B960AF
:101F20007A60BB68DA10FB681B885B00D31AFA681A
:101F3000B2F9022002FB03F3DB127B61BB681B11C9
:101F4000FA6812889B1ABA681211F9680988521A3D
:101F500002FB03F31B13FA68B2F9042002FB03F33C
:101F60009B133B617A693B691A447B681A607B6802
:101F70001A6813469B00134480331B1218461C3703
:101F8000BD465DF8047B70472DE9B04FCCB000AF83
:101F9000C7F81401C7F81011C7F80C21D7F80C3195
:101FA000DA171C461546B4F5FA3A45F1FF3BC7E986
:101FB0004AABD7F82C21D7F8283103FB02F1D7F828
:101FC0002C21D7F8283102FB03F3CA18D7F828319F
:101FD000A3FB038902EB09039946D7F81431B3F93F
:101FE00010301BB2DA17C7F8B830C7F8BC20D7E9F1
:101FF0002E01034603FB09F20B4608FB03F31344CF
:102000000246A8FB0212C7F8C4200A46C7F8C0203F
:10201000D7F8C4201344C7F8C430D7E93034C7E92F
:102020004834C7E94834D7F81431B3F90E301BB23D
:10203000DA17C7F8B030C7F8B420D7F82831D7E995
:102040002C452A4602FB03F2D7F82C31214601FB2E
:1020500003F31A44D7F828312146A3FB0113C7F82C
:1020600004310B46C7F80031D7F80431D318C7F84C
:1020700004314FF000004FF00001D7E940452B46F6
:102080005904234641EAD33123465804D7E948236B
:1020900014183C644B417B64D7E91034C7E94834D9
:1020A000D7F81431B3F90C301BB2DA17C7F8A830DF
:1020B000C7F8AC204FF000004FF00001D7F8A8306F
:1020C000D9000020D7E948231418BC634B41FB63B7
:1020D000D7E90E34C7E94834D7F82C21D7F828318E
:1020E00003FB02F1D7F82C21D7F8283102FB03F3C8
:1020F000CA18D7F82831A3FB0313C7F8FC300B46E6
:10210000C7F8F830D7F8FC30D318C7F8FC30D7F848
:102110001431B3F90A301BB2DA17C7F8A030C7F888
:10212000A420D7E93E452B46D7E92889424602FB41
:1021300003F24B46214601FB03F31344224641467A
:10214000A2FB0112C7F8F4200A46C7F8F020D7F81E
:10215000F4201344C7F8F4304FF000004FF00001B2
:10216000D7E93C452346180A2B4640EA03602B4634
:102170001912D7F81431B3F908301BB2DA17C7F8BF
:102180009830C7F89C20D7F82831D7E926894A46E5
:1021900002FB03F2D7F82C31444604FB03F31A4444
:1021A000D7F828314446A3FB0443C7F8EC30234654
:1021B000C7F8E830D7F8EC30D318C7F8EC304FF058
:1021C00000024FF00003D7E93A894C462303444606
:1021D00043EA14534446220384183C6341EB03034F
:1021E0007B63D7E90C34C7E94A34D7E94A2303F5BE
:1021F0000041C7F89410C7F89020D7F81431DB8855
:102200009BB20022C7F88830C7F88C20D7E9244554
:102210002B46D7E92289424602FB03F24B46214670
:1022200001FB03F3134422464146A2FB0112C7F807
:10223000E4200A46C7F8E020D7F8E4201344C7F8A2
:10224000E4304FF000024FF00003D7E9384529464B
:102250004A102946CB17C7E94A23D7E94A23134333
:1022600001D1002348E1D7F81031C3F58013DA1704
:10227000BB62FA62D7E90A34C7E94634D7F81831A5
:102280005B10C7F88430D7F81831DB07C7F8803007
:10229000D7E94823D7E920452146891AB967294655
:1022A00061EB0303FB67D7E91E4522462B469118D5
:1022B00039625B417B62D7E9082321465118B96135
:1022C00029464B41FB614FF000024FF00003D7E974
:1022D000068949468B01414643EA916341468A019A
:1022E000414689183961494643EB010179614FF054
:1022F00000024FF00003D7E9048949468B004146AC
:1023000043EA917341468A00104619460346224625
:102310009B18BB600B462A4642EB0303FB604FF061
:1023200000024FF00003D7E9028949468B0041467D
:1023300043EA917341468A001046194603462246F5
:102340009B183B672B460A4642EB03037B67D7E9A2
:102350004A23D7E91C01FEF7A5FD02460B46C7E953
:102360004623D7F81431B3F916301BB2DA17BB661F
:10237000FA66D7E946234FF000004FF00001500BFA
:1023800040EAC3405913D7E91A452B4600FB03F234
:10239000234603FB01F313442246A2FB0012C7F8B5
:1023A000DC200A46C7F8D820D7F8DC201344C7F849
:1023B000DC30D7E946234FF000004FF00001500B0E
:1023C00040EAC3405913D7E936452B4600FB03F2D8
:1023D000234603FB01F313442246A2FB0012C7F875
:1023E000D4200A46C7F8D020D7F8D4201344C7F821
:1023F000D4304FF000024FF00003D7E934452146B6
:102400004A0E294642EAC11229464B16C7E94A2319
:10241000D7F81431B3F914301BB2DA173B667A6679
:10242000D7F81831D7E918452A4602FB03F2D7F846
:102430001C31214601FB03F31344D7F81821214630
:10244000A2FB0112C7F8CC200A46C7F8C820D7F86B
:10245000CC201344C7F8CC304FF000024FF00003FB
:10246000D7E932452146CA0C294642EA413229467B
:10247000CB14C7E94823D7E94601D7E94A23841892
:10248000BC6541EB0303FB65D7E94823D7E9164553
:10249000214689183965294643EB010179654FF0DA
:1024A00000004FF00001D7E914452346180A2B46D7
:1024B00040EA03602B461912D7F81431B3F91230F1
:1024C0001BB2DA17BB64FA644FF000024FF000034E
:1024D000D7E912894C462301444643EA1473444623
:1024E000220184183C6041EB03037B60D7E9003490
:1024F000C7E94634D7F81831184607F59877BD462E
:10250000BDE8B08F80B487B000AFF860B9607A6082
:102510007B68A3F596337B61BB689A03FB68B3F9CC
:102520001E301B05D21AFB68B3F9203019467B69AF
:1025300001FB03F3D31A03F58043DB13FA6892F926
:10254000222011467A6901FB02F29212F968097F92
:102550000846796900FB01F1C91201F5004101FB50
:1025600002F2921202F50012F968B1F91A1001FB99
:1025700002F202F50052921302FB03F37B617B69C6
:10258000DB137A69D21302FB03F3DB11FA68127EC4
:1025900002FB03F31B117A69D31A7B617B6923EA7F
:1025A000E3737B617B69B3F1C85FA8BF4FF0C85389
:1025B0007B617B691B1318461C37BD465DF8047BA5
:1025C000704780B58CB000AFF860B9607A603B604E
:1025D000FB6893F83230602B07D03B68002B02D0A9
:1025E0003B6800221A6000233B603B68002B01D04F
:1025F000082300E00623FB62FB6ADBB207F1180246
:10260000F721F868FFF765FA0346002B01D0002395
:1026100038E03B7E1A037B7E1B011343BA7E12090E
:10262000D2B21343BB62FB7E1A033B7F1B011343F1
:102630007A7F1209D2B213437B6207F114031A4660
:10264000796AF868FFF767FC0246BB681A607B6925
:102650001A46B96AF868FFF797FC02467B681A6069
:102660003B68002B0DD0BB7F1B02FA7F13433B62FC
:102670007B691A46396AF868FFF744FF02463B68EF
:102680001A60012318463037BD4680BD80B588B03A
:1026900000AFF860B9607A603B603B68002B02D005
:1026A00007F1140300E0002307F1180207F11C01F1
:1026B000F868FFF786FF0346002B28D0FB6907EE7A
:1026C000903AB8EEE77ADFED146AC7EE267ABB6877
:1026D000C3ED007ABB6907EE903AB8EE677ADFED9A
:1026E0000F6AC7EE267A7B68C3ED007A3B68002B41
:1026F0000BD07B6907EE903AB8EE677ADFED086A97
:10270000C7EE267A3B68C3ED007A012300E0002380
:1027100018462037BD4680BD0000C84200008043F7
:102720000000804480B584B000AF1A480CF09EFBD6
:102730000023BB601FE040F2DC530322D621164881
:1027400007F058F80346FB71642004F001F8FB79A8
:10275000002B07D111480CF0EFFB00F023F8012308
:10276000FB730BE00023FB734FF4FA7003F0F0FFF0
:10277000BB680133BB60BB68092BDCDDFB7B002B36
:1027800002D107480CF0D8FBFB7B18461037BD463A
:1027900080BD00BFB41A010878050020CC1A0108DA
:1027A000D41A010880B582B000AF8023FB71FA799A
:1027B000D6232E21044803F0EFFA012003F0C8FFCE
:1027C00000BF0837BD4680BD7805002080B582B0C7
:1027D00000AFBA1DD6233B21054803F0BBFAFB88A6
:1027E000184603F0B1FB034618460837BD4680BDC6
:1027F0007805002080B582B000AFBA1DD6233D21F8
:10280000054803F0A7FAFB88184603F09DFB034632
:1028100018460837BD4680BD7805002080B582B0D7
:1028200000AFBA1DD6233721054803F093FAFB8881
:10283000184603F089FB034618460837BD4680BD9D
:102840007805002080B582B000AFBA1DD6233921AB
:10285000054803F07FFAFB88184603F075FB034632
:1028600018460837BD4680BD7805002080B582B087
:1028700000AFBA1DD6233121054803F06BFAFB885F
:10288000184603F061FB034618460837BD4680BD75
:102890007805002080B582B000AFBA1DD623332161
:1028A000054803F057FAFB88184603F04DFB034632
:1028B00018460837BD4680BD7805002080B586B033
:1028C00004AF3F23FB714FF4FA730293012301938A
:1028D000FB1C009301230022D6210C4806F070FE59
:1028E000FA78FB791340DBB2BB80BB881A465201F1
:1028F000D21A920013445B00BB80BB8803F6C4135A
:10290000BB80BB8818460837BD4680BD78050020CF
:1029100080B582B000AF3A1DD6230121094803F0EB
:1029200019FABB88184603F00FFB0346FB80FB88AF
:102930001A46920013445B009BB218460837BD4606
:1029400080BD00BF7805002080B582B000AF3A1D81
:10295000D6230321094803F0FDF9BB88184603F08C
:10296000F3FA0346FB80FB881A46920013445B008F
:102970009BB218460837BD4680BD00BF78050020D1
:1029800080B584B000AF0346FB71FB7903F03F03D1
:10299000DAB2D6230021054803F0FEF90346FB73A3
:1029A000FB7B18461037BD4680BD00BF7805002070
:1029B00080B584B000AF0346FB80FB880B4AA2FBC6
:1029C0000323DB08FB80FB88184603F0BDFA0346AF
:1029D0001A46D6230121064803F002FA0346FB7388
:1029E000FB7B18461037BD4680BD00BFCDCCCCCC9C
:1029F0007805002080B584B000AF0346FB80FB88DB
:102A00000B4AA2FB0323DB08FB80FB88184603F07C
:102A10009BFA03461A46D6230321064803F0E0F941
:102A20000346FB73FB7B18461037BD4680BD00BFD5
:102A3000CDCCCCCC7805002080B584B000AFF86058
:102A4000B9607A607B689AB27B680133B9680448E0
:102A500009F0AEFB7B6818461037BD4680BD00BF4D
:102A6000C006002080B582B000AF78607B680B4A5A
:102A7000934205D14FF400720949084809F02CFC33
:102A80007B68084A934205D14FF400720649054815
:102A900009F022FC00BF0837BD4680BDC0060020FB
:102AA00034020020440700203804002080B582B0A2
:102AB00000AF78607868FFF7D5FF00BF0837BD46E4
:102AC00080BD000080B400AF0D4BB3F858301A46FB
:102AD0000B4BB3F85A309BB2D31A03F50073094A73
:102AE00012889B1A5A42C3F30803C2F3080258BF64
:102AF00053429BB21846BD465DF8047B704700BF49
:102B0000C00600203404002080B483B000AF0C4B1A
:102B10001B885A1C91B20A4A11801A46094B9B5CC9
:102B2000FB71074B1B88B3F5007F02D3044B0022D7
:102B30001A80FB7918460C37BD465DF8047B704758
:102B4000340400203402002080B487B000AF7860E5
:102B500000237B6131E07B693B610023FB6011E076
:102B6000FB6801337A6813441B78002B04D13B695E
:102B70000133184A134427E03B6901333B61FB688A
:102B80000133FB60134A3B6913441B78FB72FB7AE9
:102B90000133114A13441B7803F00303012B02D1C4
:102BA000FB7A203300E0FB7AFA6879680A441278ED
:102BB0009342D5D07B6901337B61064A7B6913441C
:102BC0001B78002BC7D1002318461C37BD465DF883
:102BD000047B70475C0400209823010880B586B010
:102BE00000AFF860B9607A603B6000237B61FB68EE
:102BF0001B78202B02D1FB680133FB60FB681B783C
:102C00002D2B0CBF01230023DBB2FB7416E0FB6805
:102C10001B782F2B16D9FB681B78392B12D87A69B1
:102C200013469B0013445B007B61FB681B78303BC1
:102C30007A6913447B61FB680133FB60FB681B7896
:102C4000002BE4D1FB7C002B02D07B695B427B61D3
:102C50007A697B689A4207DB7A693B689A4203DCAF
:102C6000BB687A691A6002E003480CF065F9FB68FA
:102C700018461837BD4680BDE01A010880B586B0F9
:102C800000AFF860B96087ED010AC7ED000A4FF0A8
:102C900000037B6102E0FB680133FB60FB681B788B
:102CA000202BF8D007F110031946F8680BF050FB01
:102CB00087ED050A97ED057AD7ED017AB4EEE77A4C
:102CC000F1EE10FA0DDB97ED057AD7ED007AB4EE50
:102CD000E77AF1EE10FA04D8BB687A691A6001232A
:102CE00003E004480CF028F9002318461837BD46C5
:102CF00080BD00BFE01A010880B582B000AFFFF7C9
:102D0000E1FE03463B603B68002B0FD000237B6055
:102D100008E0FFF7F9FE0346184600F00BF87B6861
:102D200001337B607A683B689A42F2DB00BF083768
:102D3000BD4680BD80B584B000AF0346FB71724BC9
:102D40001B681F2B07D8704B1B685A1C6E490A6002
:102D50006E49FA79CA54FB790A2B40F0D2806A4B4B
:102D60001B68013B694AD35C0D2B04D1664B1B6881
:102D7000013B654A1360644B1B681A46634B13445E
:102D8000614A1268C2F12002002118460CF0B4F921
:102D90005D4B00221A605E48FFF7D6FE03465D4A8F
:102DA000934206D05C48FFF7CFFE03465B4A93424E
:102DB00002D100F019FCA4E05948FFF7C5FE034614
:102DC000584A93420AD1584B1B78002B0CBF012361
:102DD0000023DBB21A46544B1A7092E05348FFF7B7
:102DE000B3FE0346524A934205D1A02238215148EE
:102DF00003F06AF885E05048FFF7A6FE03464F4A05
:102E0000934205D14E480CF031F8FEF7B5FB78E05F
:102E10004C48FFF799FE0346484A934202D1FEF719
:102E2000BFFC6EE04848FFF78FFE0346474A9342D7
:102E300007D1FEF701FC0346194645480CF016F889
:102E40005FE04448FFF780FE0346404A934207D1C3
:102E5000FEF760FB034619463F480CF007F850E0C8
:102E60003E48FFF771FE03463D4A934213D13D4869
:102E700043F6982300223C49FFF7B0FE3A4B1B680B
:102E80009AB23A4BDA80394BDB889BB21946384804
:102E90000BF0ECFF35E03748FFF756FE0346274AB4
:102EA00093421AD12E4A07F10C03F2EE040ABAEE4D
:102EB000040A19461046FFF7E1FEFA682B4B02336D
:102EC0001A602A4BD3F802301846FDF73DFB024644
:102ED0000B4629480BF0CAFF13E02848FFF734FEE1
:102EE0000346274A934202D100F04EF809E02548F4
:102EF000FFF72AFE0346154A934202D100F01EFA5C
:102F000000BF1037BD4680BD7C0400205C0400205B
:102F1000041B01085D040020081B01086004002058
:102F2000101B010862040020C9070020181B0108BB
:102F300063040020CC050020201B0108670400204A
:102F40002C1B0108481B0108541B010866040020C3
:102F5000601B0108881B0108941B0108D41B010891
:102F60006804002069040020580400209008002014
:102F7000E41B0108F41B0108001C0108141C0108D3
:102F800065040020201C010880B582B000AFB44B5E
:102F90009B7A742B00F0DC80742B00F3B381682BD8
:102FA00002D0702B6AD0ADE1AE48FFF7CDFD0346ED
:102FB000AD4A93421AD1AD4A3B1DF2EE040ABAEE75
:102FC000040A19461046FFF759FE0346002B02D0AB
:102FD0007A68A74B1A61A64B1B691846FDF7B4FA2D
:102FE00002460B46A3480BF041FF93E1A248FFF7CE
:102FF000ABFD0346A14A93421AD1A14A3B1DF2EE12
:10300000040ABAEE040A19461046FFF737FE0346D3
:10301000002B02D07A68964B9A61954B9B691846B3
:10302000FDF792FA02460B4696480BF01FFF71E13E
:103030009548FFF789FD0346904A93421AD1904A7A
:103040003B1DF2EE040ABAEE040A19461046FFF7D9
:1030500015FE0346002B02D07A68854B5A62844BDA
:103060005B6A1846FDF770FA02460B4687480BF07C
:10307000FDFE4FE186480BF0F9FE47E17E48FFF781
:1030800063FD03467D4A93421AD17D4A3B1DF2EE11
:10309000040ABAEE040A19461046FFF7EFFD03468C
:1030A000002B02D07A68724BDA61714BDB691846EB
:1030B000FDF74AFA02460B4676480BF0D7FE29E1A7
:1030C0007148FFF741FD03466C4A93421AD16C4A9E
:1030D0003B1DF2EE040ABAEE040A19461046FFF749
:1030E000CDFD0346002B02D07A68614B9A62604B9B
:1030F0009B6A1846FDF728FA02460B4666480BF015
:10310000B5FE07E16548FFF71FFD03465B4A9342A2
:103110001AD15B4A3B1DF2EE040ABAEE040A1946C4
:103120001046FFF7ABFD0346002B02D07A68504BE8
:103130001A634F4B1B6B1846FDF706FA02460B4607
:1031400057480BF093FEE5E051480BF08FFEDDE0B1
:103150005448FFF7F9FC0346484A93421AD1484ABB
:103160003B1DF2EE040ABAEE040A19461046FFF7B8
:1031700085FD0346002B02D07A683D4B9A603C4B9C
:103180009B681846FDF7E0F902460B4646480BF0EF
:103190006DFEBFE03348FFF7D7FC0346324A934247
:1031A0001AD1324A3B1DF2EE040ABAEE040A19465D
:1031B0001046FFF763FD0346002B02D07A682C4BC4
:1031C000DA602B4BDB681846FDF7BEF902460B466A
:1031D00036480BF04BFE9DE02748FFF7B5FC034651
:1031E000264A93421AD1264A3B1DF2EE040ABAEE51
:1031F000040A19461046FFF741FD0346002B02D092
:103200007A681B4B5A611A4B5B691846FDF79CF9AB
:1032100002460B4626480BF029FE7BE01A48FFF7D2
:1032200093FC0346154A934246D1154A3B1DF2EEE4
:10323000040ABAEE040A19461046FFF71FFD0346BA
:10324000002B02D07A680A4B1A62094B1B6A184697
:10325000FDF77AF902460B4616480BF007FE59E0D7
:103260005C0400202C1C01086C0400206D0400206C
:1032700090080020341C01084C1C01086E0400203A
:103280006F040020541C0108701C0108781C010800
:10329000901C0108A01C0108BC1C0108D81C0108D6
:1032A000E01C0108FC1C0108041D0108201D010888
:1032B000381D0108541D01081848FFF745FC034656
:1032C000174A93421AD1174A3B1DF2EE040ABAEE8E
:1032D000040A19461046FFF7D1FC0346002B02D022
:1032E0007A68114BDA62104BDB6A1846FDF72CF94D
:1032F00002460B460D480BF0B9FD0BE00C480BF0F5
:10330000B5FD03E00B480BF0B1FD00BF0A480BF020
:1033100013FE00BF0837BD4680BD00BFD81C0108A2
:103320006E0400206F04002090080020701D01082A
:10333000901C01088C1D0108A01D0108B0B5A2B0A9
:1033400002AF03F0F9F9F8670023FB660023BB66C0
:10335000964B3C461D460FCD0FC40FCD0FC40FCD6D
:103360000FC42B68238092480A2300229149FFF75B
:1033700035FC0346BB668F4B1B687B66BB6E013317
:103380001846FF2301228B49FFF728FC0346BB6642
:10339000884B1B683B66BB6E013318460223012233
:1033A0008449FFF71BFC0346BB66824B1B68FB6529
:1033B000FB6D012B03D0FB6D022B05D009E007F15B
:1033C00034037D4A1A6009E007F134037B4A1A602E
:1033D00004E007F134037A4A1A6000BF07F13403AE
:1033E0000093FB6D3A6E796E76480BF03FFD02F06C
:1033F0001BFF034687F8403002F00EFE034687F8B5
:10340000413002F0A9FE034687F8423003F040F84D
:10341000034687F8433000F08FF9034687F84430BD
:10342000002387F84330FB6D012B02D166480BF077
:103430001DFD0023BB6717E007F14002BB6F13447B
:103440001B78002B0DD0FB6D012B0AD13946BA6FCA
:1034500013469B0013445B000B4419465B480BF07A
:1034600005FDBB6F0133BB67BB6F042BE4DD584820
:103470000BF062FD00237B6700237B6789E07B6E96
:103480004FF47A7202FB03F3FA6F1344FB6603F006
:1034900053F9F867FA6EFB6F9A42F8D8FB6D012B6F
:1034A00006D17B6F0133FA6F19464A480BF0DEFCF8
:1034B000FB6D022B06D17B6F0133FA6F194646482C
:1034C0000BF0D4FC97F84030012B06D1002002F01D
:1034D0000BFFF0EE407AC7ED127A97F84130012BDE
:1034E00006D1202002F0E0FDF0EE407AC7ED137A1D
:1034F00097F84230012B05D102F046FEF0EE407AFB
:10350000C7ED147A97F84330012B05D103F056F834
:10351000F0EE407AC7ED157A97F84430012B06D1CA
:10352000002000F0D3FBF0EE407AC7ED167A0023BE
:103530003B6725E007F140023B6F13441B78002BEB
:103540001BD0FB6D022B0AD139463A6F13469B0004
:1035500013445B000B44194620480BF087FC3B6F7B
:103560009B0080333B44383B1B681846FCF7ECFF5C
:1035700002460B461A480BF079FC3B6F01333B6760
:103580003B6F042BD6DD12480BF0D6FC7B6F01336A
:103590007B677B6F3A6E9A423FF671AF11480BF032
:1035A000CBFC00BF8037BD46B0BD00BF9C1E0108EC
:1035B0006704002058040020435356005458540018
:1035C00045525200FC1D0108481E01085C1E0108FE
:1035D000601E0108641E01086C1E0108841E01089B
:1035E0008C1E0108901E010880B582B002AF50A366
:1035F000D3E90023CDE900234FF000023A4B3B48CA
:103600000BF034FC3A480BF031FC3A4B1B78032B9F
:103610001AD801A252F823F02936000831360008E2
:10362000393600084136000833480BF085FC0BE0C2
:1036300032480BF081FC07E031480BF07DFC03E0E1
:1036400030480BF079FC00BFFEF79EF910EE103AFF
:103650001846FCF779FF02460B462B480BF006FC98
:10366000FFF7B4F80346194628480BF0FFFBFFF7B5
:10367000D5F80346194626480BF0F8FBFFF7E2F8A9
:103680000346194623480BF0F1FBFFF7B3F8034656
:10369000194621480BF0EAFBFFF7E8F80346194604
:1036A0001E480BF0E3FBFFF7F5F8034619461C48EC
:1036B0000BF0DCFBFFF702F90346194619480BF043
:1036C000D5FBFFF725F90346194617480BF0CEFB4B
:1036D000FFF73AF90346194614480BF0C7FB00BF41
:1036E000BD4680BDAFF300800000F03FD01E010852
:1036F000F41E0108C8070020081F0108101F010858
:10370000141F0108281F0108381F0108541F010851
:10371000641F0108741F0108841F0108981F010815
:10372000A81F0108BC1F0108E01F010804200108B0
:10373000000000A09999C93F80B582B000AF022077
:1037400002F018FC012003F003F896230322EE2177
:10375000144806F04FF80346FB71642002F0F8FFAE
:10376000FB79002B15D1BA1DEE230D210D4802F077
:10377000CFFA002002F0FEFBBB79102B04D10A48DF
:103780000BF0DAFB012308E008480BF0D5FB00231F
:1037900003E007480BF0D0FB002318460837BD466E
:1037A00080BD00BFCC05002028200108342001087E
:1037B0004020010880B483B000AF78600B46FB70F6
:1037C0007B681B681A46FB78013B22FA03F303F07F
:1037D0000103002B0AD07B681B681946FB78012285
:1037E00002FA03F3CB1A1A467B681A6000BF0C3743
:1037F000BD465DF8047B704780B58AB004AF02F027
:10380000FDFBFA230293122301933B1D0093012336
:103810001022EE21414805F0D3FE02F0F6FB3B7981
:103820001A017B791B09DBB203F00F0313431A461D
:103830003B4B1A600C213A48FFF7BCFF384B1B6822
:103840005B081A46364B1A607B791B0203F47063DF
:10385000BA7913431A46324B5A600C213148FFF7AC
:10386000A9FFFB791A033B7A1B011A437B7A1B09D8
:10387000DBB203F00F0313431A46294B9A6014215D
:103880002948FFF797FF7B7A1B0403F47022BB7A69
:103890001B021343FA7A13431A46214BDA601421B0
:1038A0002248FFF787FF3B7B1B027A7B13431A46B4
:1038B0001B4B1A6110211E48FFF77CFFBB7B1B02CC
:1038C000FA7B13431A46164B5A6110211948FFF729
:1038D00071FF3B7C1B027A7C13431A46104B9A61A2
:1038E00010211548FFF766FFBB7C1B02FA7C1343CF
:1038F0001A460B4BDA6110211048FFF75BFF3B7D46
:103900001B027A7D13431A46054B1A6210210C489C
:10391000FFF750FF00BF1837BD4680BDCC05002023
:103920008004002084040020880400208C040020EF
:103930009004002094040020980400209C0400209F
:10394000A004002080B588B004AF0346FB7102F0EC
:1039500055FBFA2302930123019307F10F03009310
:1039600001230922EE21104805F02AFEFA7907F119
:103970000F030121184602F057FAFA23029301239C
:10398000019307F10F03009301230922EE2106485A
:1039900005F002FD012002F0DBFE02F036FB00BF65
:1039A0001037BD4680BD00BFCC05002080B588B073
:1039B00004AF0346FB7102F021FBFA2302930123BB
:1039C000019307F10F03009301230922EE21104810
:1039D00005F0F6FDFA7907F10F03F021184602F021
:1039E00052FAFA2302930123019307F10F03009384
:1039F00001230922EE21064805F0CEFC012002F049
:103A0000A7FE02F002FB00BF1037BD4680BD00BF1D
:103A1000CC05002080B586B004AF02F0EFFAFA239F
:103A2000029301230193BB1D009301230722EE2182
:103A3000184805F0C5FDFA23029301230193FB1DED
:103A4000009301232822EE21124805F0B9FDFB79ED
:103A50005BB2002B06DBBB1D00220721184602F0DB
:103A6000E3F905E0BB1D01220721184602F0DCF94D
:103A7000FA23029301230193BB1D00930123072224
:103A8000EE21044805F088FC02F0BFFA00BF0837B9
:103A9000BD4680BDCC05002080B588B004AF03468C
:103AA0000A46FB711346BB7102F0A8FAFA79BB799A
:103AB0001344DBB2FB73FA2302930123019307F152
:103AC0000F03009301230722EE21354805F064FC23
:103AD000FB79072B3AD801A252F823F0FD3A0008EF
:103AE000073B0008113B00081B3B0008253B000872
:103AF0002F3B0008393B0008433B0008294B4FF49B
:103B000000221A6022E0274B4FF4C0121A601DE019
:103B1000244B4FF460121A6018E0224B4FF4F0026D
:103B20001A6013E01F4B4FF478321A600EE01D4B01
:103B30004FF4FC221A6009E01A4B4FF47E221A60FF
:103B400004E0184B4FF4FF121A6000BFFA230293EF
:103B50000123019307F10F03009301230922EE21B2
:103B60000F4805F02DFD07F10F0300220321184631
:103B700002F05AF9FA2302930123019307F10F038C
:103B8000009301230922EE21054805F005FCFFF70B
:103B900041FF02F03AFA00BF1037BD4680BD00BFBA
:103BA000CC050020A404002080B586B004AF02F04C
:103BB00025FAA523BB71FA23029301230193BB1DB0
:103BC000009301230E22EE212E4805F0E5FB03466B
:103BD000FB71FB79002B0FD19623BB71FA23029363
:103BE00001230193BB1D009301230F22EE212548E1
:103BF00005F0D2FB0346FB71FB79002B0FD10223AA
:103C0000BB71FA23029301230193BB1D009301238F
:103C10006222EE211B4805F0BFFB0346FB71FB79D6
:103C2000002B0FD10023BB71FA23029301230193D0
:103C3000BB1D009301230E22EE21124805F0ACFBC0
:103C40000346FB71FB79002B0FD10023BB71FA23D4
:103C5000029301230193BB1D009301230F22EE2148
:103C6000084805F099FB0346FB7100210020FFF78F
:103C700013FF022000F008F802F0C7F900BF083770
:103C8000BD4680BDCC05002080B588B004AF03469A
:103C9000FB7102F0B3F9FB79FB73FA230293012362
:103CA000019307F10F03009301230822EE21064838
:103CB00005F072FB022002F04BFD02F0A6F900BFF6
:103CC0001037BD4680BD00BFCC05002080B58CB04C
:103CD00004AF0346FB71FB7900211846FFF7DCFEB9
:103CE0000220FFF7D1FFFB79184600F061F8034688
:103CF000184602F02DFD012002F02AFD02F07EF9A7
:103D0000FA2302930323019307F110030093012385
:103D10000322EE21234805F053FC02F076F9BB7C28
:103D20001A467B7C1B021A443B7C1B041344FB6039
:103D300007F10C0318211846FFF73CFD1A4B1B68CE
:103D400007EE903AB8EEE77AF7EE006AC6EE877AA9
:103D5000C7ED077AFB6807EE903AF8EEE77A97ED41
:103D6000077A67EE277AC7ED067A104B1B6807EED5
:103D7000903AB8EEE77A0D4B5B6807EE903AF8EEB2
:103D8000E76AD7ED067A66EEA77A77EE277AC7ED6F
:103D9000057A7B6907EE903AB0EE670A2037BD4698
:103DA00080BD00BFCC050020A404002080040020BA
:103DB00080B483B000AF0346FB71FB79102202FA96
:103DC00003F3143318460C37BD465DF8047B704787
:103DD00080B582B000AF03460A46FB711346BB7143
:103DE000FFF70AFDBB791846FFF7E0FDFB7918469F
:103DF000FFF7A8FD0020FFF747FFFFF7D5FE00BF44
:103E00000837BD4680BD000080B584B002AF02F027
:103E10002AFC00F0C5F900F079FC00F059FC00F034
:103E200023FA00F0BDFA00F0FBFA00F039FB00F0D5
:103E3000EFFB00F01DFC00F087FA00F071FB00F0D2
:103E4000FEF90021BC4807F0F3FBBC48FEF70AFE70
:103E5000BB48FEF707FE01F0BFFEBA480BF06CF856
:103E6000FDF7EAFB0346002B02D1B7480BF064F8DC
:103E7000FEF758FC03461A46B44B1A70B34B1B7836
:103E8000DBB2002B0DD0B2480BF056F80320FEF742
:103E900077FD41F26800FEF78BFD4FF4FA60FEF704
:103EA000A9FD00222021AB4804F0CAFF002001F048
:103EB00081FEFDF753FD02F03FFC786002F03CFC10
:103EC000386000224FF480714FF0904004F0B8FF4A
:103ED00002F0A2F8034603F00103D9B29E4A137818
:103EE00061F30003137002F037F9034603F0010396
:103EF000D9B29A4A137861F300031370974B1B7879
:103F000003F00103DBB2002B0AD0954A137843F08B
:103F100001031370934A137843F00103137009E00F
:103F20008F4A13786FF3000313708E4A13786FF380
:103F30000003137002F078F9034603F00103D9B2CD
:103F4000894A137861F300031370874B1B7803F0E1
:103F50000103DBB2002B05D0844A137843F0010340
:103F6000137004E0814A13786FF30003137002F0BA
:103F70008FFA034603F00103D9B27D4A137861F347
:103F8000000313707A4B1B7803F00103DBB2002BA4
:103F90000AD0784A137843F001031370764A1378F5
:103FA00043F00103137009E0724A13786FF30003C2
:103FB0001370714A13786FF300031370FFF7BCFBA3
:103FC000034603F00103D9B26C4A137861F300038E
:103FD00013706A4B1B7803F00103DBB2002B0AD08D
:103FE000674A137843F001031370664A137843F06D
:103FF0000103137009E0624A13786FF30003137032
:10400000604A13786FF300031370002300930323B7
:1040100003220321012002F079FA00210020FFF79A
:10402000D7FE01F04FFE02F087FB02467B68D31AF1
:1040300042F20F7293426DD9534B1B78DBB2002BC7
:1040400068D002F079FB7860002002F04DF9F0EEC4
:10405000407A454B17EE902AC3F80120002002F069
:10406000AFF9F0EE407A414B17EE902AC3F80120E9
:1040700046480AF061FF3C4BD3F801301846FCF784
:1040800063FA02460B4642480AF0F0FE41480AF045
:10409000EDFE364BD3F801301846FCF755FA0246D0
:1040A0000B463B480AF0E2FE3B480AF045FF012080
:1040B00002F01AF9F0EE407A2B4B17EE902AC3F873
:1040C0000120012002F07CF9F0EE407A274B17EE38
:1040D000902AC3F8012031480AF02EFF224BD3F872
:1040E00001301846FCF730FA02460B4628480AF021
:1040F000BDFE28480AF0BAFE1C4BD3F80130184622
:10410000FCF722FA02460B4621480AF0AFFE22488D
:104110000AF012FF02F010FB02463B68D31A1D2B77
:104120007FF67FAF02F008FB38602021094804F0D9
:104130009FFE01F08BFD74E774060020C00600208E
:10414000440700202C21010844210108C807002051
:104150005821010800040048CC070020D80700209F
:10416000080800202C080020E40700203808002060
:10417000F00700201408002044080020FC0700205D
:104180002008002050080020C90700206C210108E9
:104190007C2101088821010890210108942101084F
:1041A00080B596B000AF07F11403442200211846F1
:1041B0000AF0A2FF3B4600221A605A609A60DA6059
:1041C0001A614FF4007005F0E3FF0346002B01D0A5
:1041D00000F08AFB01237B614FF48033BB61022333
:1041E000FB6303233B6401237B640A23BB64072333
:1041F000FB6402233B6502237B6507F11403184629
:1042000006F01CF80346002B01D000F06DFB0F23D5
:104210003B6003237B600023BB600023FB60002323
:104220003B613B460221184606F01CFC0346002B6E
:1042300001D000F059FB00BF5837BD4680BD80B5A6
:1042400000AF00220021252003F03FFD252003F0D0
:1042500058FD00220021262003F037FD262003F020
:1042600050FD00BF80BD000080B586B000AF3B466A
:1042700000221A605A609A60DA601A615A612F4B04
:104280002F4A1A602D4B4FF480225A602B4B00228C
:104290009A602A4B0022DA60284B00221A61274BD1
:1042A00004225A61254B00221A76244B01225A76A9
:1042B000224B0122DA61214B002283F820201F4B80
:1042C00000229A621D4B0022DA621C4B012283F805
:1042D00030201A4B00225A63184B012283F83820F1
:1042E000164B0C22DA63154B00221A64134B002282
:1042F0005A64124B01229A64104802F03BFC0346B8
:10430000002B01D000F0F0FA0E4B3B6006237B60DF
:104310000723BB607F23FB6004233B6100237B6199
:104320003B461946054802F00FFE0346002B01D01C
:1043300000F0DAFA00BF1837BD4680BDA80400209F
:1043400000000450000052C780B500AF124B134A62
:104350001A60114B01221A710F4B01225A710E4B38
:1043600031229A600C4B1022DA600B4BFF221A614B
:10437000094B00225A61084B00229A61064B012228
:104380001A62054803F0DEFC0346002B01D000F062
:10439000ABFA00BF80BD00BF5405002000300240D2
:1043A00080B500AF1B4B1C4A1A601A4B1B4A5A605F
:1043B000184B00229A60174B0122DA60154B00223D
:1043C0001A61144B00225A61124B00229A61114B60
:1043D0000022DA610F4B00221A620E4804F062FDDF
:1043E0000346002B01D000F07FFA0021094805F0B8
:1043F00029FE0346002B01D000F076FA0021054883
:1044000005F06BFE0346002B01D000F06DFA00BFF3
:1044100080BD00BF780500200054004047133000E5
:1044200080B500AF1B4B1C4A1A601A4B1B4A5A60DE
:10443000184B00229A60174B0122DA60154B0022BC
:104440001A61144B00225A61124B00229A61114BDF
:104450000022DA610F4B4FF400321A620D4804F06B
:1044600021FD0346002B01D000F03EFA002109484F
:1044700005F0E8FD0346002B01D000F035FA0021DD
:10448000044805F02AFE0346002B01D000F02CFA68
:1044900000BF80BDCC05002000580040471330000D
:1044A00080B500AF1B4B1C4A1A601A4B1B4A5A605E
:1044B000184B00229A60174B0122DA60154B00223C
:1044C0001A61144B00225A61124B00229A61114B5F
:1044D0000022DA610F4B4FF400321A620D4804F0EB
:1044E000E1FC0346002B01D000F0FEF90021094851
:1044F00005F0A8FD0346002B01D000F0F5F90021DE
:10450000044805F0EAFD0346002B01D000F0ECF969
:1045100000BF80BD20060020005C00404713300033
:1045200080B592B000AF07F12C0300221A605A60E8
:104530009A60DA601A615A619A613B462C22002126
:1045400018460AF0D9FD304B304A1A602E4B4FF412
:104550009C725A602C4B00229A602B4B4FF4807255
:10456000DA60294B00221A61274B00225A61264B40
:1045700000229A61244806F0A3FF0346002B01D0D5
:1045800000F0B2F9204806F0F2FF0346002B01D0FC
:1045900000F0AAF96023FB6200233B6302237B63E4
:1045A0000023BB630423FB6300233B6400237B6481
:1045B00007F12C0300221946134807F017F90346A8
:1045C000002B01D000F090F900233B6000237B60BA
:1045D0000023BB600023FB6000233B614FF40053CA
:1045E0007B610023BB623B461946074807F01AFD72
:1045F0000346002B01D000F077F9034801F086F85C
:1046000000BF4837BD4680BD74060020004401400D
:1046100080B500AF144B154A1A60134B4FF4E132CA
:104620005A60114B00229A600F4B0022DA600E4B49
:1046300000221A610C4B0C225A610B4B00229A612A
:10464000094B0022DA61084B00221A62064B002255
:104650005A62054807F05EFD0346002B01D000F0CA
:1046600043F900BF80BD00BFC006002000380140F4
:1046700080B500AF144B154A1A60134B4FF4E1326A
:104680005A60114B00229A600F4B0022DA600E4BE9
:1046900000221A610C4B0C225A610B4B00229A61CA
:1046A000094B0022DA61084B00221A62064B0022F5
:1046B0005A62054807F02EFD0346002B01D000F09A
:1046C00013F900BF80BD00BF440700200044004034
:1046D00080B582B000AF0C4B9B6C0B4A43F00103DA
:1046E0009364094B9B6C03F001037B607B680022A1
:1046F00000210B2003F0E9FA0B2003F002FB00BFBE
:104700000837BD4680BD00BF0010024080B58AB0AA
:1047100000AF07F1140300221A605A609A60DA6051
:104720001A616D4BDB6C6C4A43F00403D3646A4B33
:10473000DB6C03F004033B613B69674BDB6C664A4F
:1047400043F08003D364644BDB6C03F08003FB60B5
:10475000FB68614BDB6C604A43F00103D3645E4B42
:10476000DB6C03F00103BB60BB685B4BDB6C5A4A3C
:1047700043F00203D364584BDB6C03F002037B600D
:104780007B6800224FF4CB514FF0904004F058FB6F
:10479000002248F22121514804F052FB4FF400530B
:1047A0007B610023BB610023FB6107F11403194601
:1047B0004B4804F0B3F94FF440437B610323BB61E2
:1047C0000023FB6107F114031946454804F0A6F9DC
:1047D00048F202037B610323BB610023FB6107F105
:1047E000140319464FF0904004F098F910237B61B0
:1047F0000023BB610023FB6107F1140319464FF04E
:10480000904004F08BF94FF4C3537B610123BB61EB
:104810000023FB6100233B6207F1140319464FF0AC
:10482000904004F07BF940F221237B610123BB61BE
:104830000023FB6100233B6207F11403194627485C
:1048400004F06CF941F202037B610023BB61002399
:10485000FB6107F114031946204804F05FF940F6A4
:104860000C437B610323BB610023FB6107F114034D
:1048700019461A4804F052F94FF400437B610123B2
:10488000BB610123FB6100233B6207F1140319465E
:10489000124804F043F94FF480737B610123BB613C
:1048A0000123FB6100233B6207F1140319464FF01B
:1048B000904004F033F908237B610323BB6100239C
:1048C000FB6107F114031946064804F027F900BFFD
:1048D0002837BD4680BD00BF0010024000040048DC
:1048E00000080048001C004880B500AF72B600BF49
:1048F00001222021034804F0A3FA1F2001F05AF9F5
:10490000FEE700BF0004004880B500AF044B012261
:104910001A70044B05221A7000F0DDFC00BF80BD48
:10492000CA080020CB08002080B500AF00F023F8B3
:104930000346002B06D000F037F80346002B01D0C9
:10494000012300E0002303F00103DBB2184680BD21
:1049500080B584B000AF7860786800F03FF9034616
:10496000FB73FB7B002B01D0FB7B00E00023184690
:104970001037BD4680BD80B584B000AF8023BB80BA
:104980000023FB800023BB603B1D184600F0C2FCE7
:104990000346FB73FB7B002B01D0002300E00123C7
:1049A00018461037BD4680BD80B584B000AFEC23FB
:1049B000BB800023FB800023BB603B1D184600F03A
:1049C000A9FC0346FB73FB7B002B01D0002300E016
:1049D000012318461037BD4680BD80B586B000AFB4
:1049E0000346FB71FB793B75EC23BB810123FB8103
:1049F00007F114033B6107F10C03184600F08AFC31
:104A00000346FB75FB7D012B01D1012305E0FB7DF6
:104A1000002B01D0022300E0002318461837BD46C2
:104A200080BD80B586B000AF03463960FB710023BE
:104A30003B7500237B75EC23BB810223FB8107F1CF
:104A400014033B61FB791846FFF7C7FF0346FB756C
:104A5000FB7D002B01D0FB7D21E007F10C03184604
:104A600000F040FC0346BB75BB7D012B01D1012347
:104A700015E0BB7D002B01D0022310E03B7D1B0223
:104A80001AB27B7D1BB213431BB29AB23B681A80E9
:104A90003B681B88002B01D1022300E0002318464D
:104AA0001837BD4680BD000080B582B000AF00233E
:104AB000FB7116E0FB795033DBB25B00DAB2FB79B5
:104AC0005B0016490B4419461046FFF7AAFF034640
:104AD000BB71BB79002B01D0BB791AE0FB790133A4
:104AE000FB71FB79062BE5D90C4B1B881B0B9BB28A
:104AF000DBB21946094800F081FB034683F001034D
:104B0000DBB2002B01D0032303E0054B01221A7016
:104B1000002318460837BD4680BD00BFD0080020DE
:104B2000CC08002080B586B000AF03463960FB7129
:104B300000233B7400237B740023BB74EC233B8174
:104B400003237B8107F11003FB60FB791846FFF715
:104B500044FF0346FB75FB7903F00F03DA0F1344A0
:104B60005B101A461B4B53F822301B4AA2FB03234F
:104B70009B09184601F0ECFDFB7D002B01D0FB7D6D
:104B800024E00020FFF729FF0346FB75FB7D002B87
:104B900001D0FB7D1AE007F10803184600F0A2FBE4
:104BA0000346BB75BB7D012B01D101230EE0BB7D0C
:104BB000002B01D0022309E03B7C1A047B7C1B0202
:104BC0001343BA7C1A433B681A60FB7D18461837BA
:104BD000BD4680BD00000020D34D62102DE9B04FCE
:104BE0002DED028BDEB000AFC7F83C01002387F843
:104BF00077311B4B1B7883F00103DBB2002B04D011
:104C0000FFF752FF034687F8773197F87731002B8B
:104C100002D097F87731E9E2124B1B785B0087F8F6
:104C2000673197F8673143F0500387F8673107F52C
:104C3000A27297F8673111461846FFF773FF0346D3
:104C400087F8773197F87731002B02D097F87731D2
:104C5000CCE2D7F84431002B06D10223C6E200BFD4
:104C6000CC080020CB080020D7F844311A46CB4BA3
:104C70005B891B02D31AC7F86031D7F86031DA17A5
:104C8000C7F83031C7F83421C44B9B899BB200224E
:104C9000C7F82831C7F82C21D7E94C010B46D7F8C3
:104CA000282102FB03F2D7F82C31C7E94C01014659
:104CB00001FB03F31344D7F83021D7F82811A2FBE6
:104CC00001894B4499464FF000024FF000034FEA30
:104CD000D85242EA49224FEAE953134603F5FA63F0
:104CE000C7F85C31D7F85C31B3F5FA6F80F22182F6
:104CF000D7F86031DA17C7F8F830C7F8FC20D7F8D2
:104D00006031DA17C7F8F030C7F8F420D7E93E452C
:104D10002B46D7E93C89424602FB03F24B4621462B
:104D200001FB03F3134422464146A2FB0112C7F8DC
:104D300024210A46C7F82021D7F824211344C7F8B4
:104D40002431D7E9484522462B469118B9625B4188
:104D5000FB62D7E90A2321465118C7F8E810294613
:104D600043EB0101C7F8EC104FF000024FF00003D5
:104D7000D7E93A4529464A102946CB17C7E95A23AD
:104D8000D7F85C31DA17C7F8E030C7F8E420D7E984
:104D900038120B46B3F5FA63C7F8D830134643F11F
:104DA000FF33C7F8DC30D7F85C31DA17C7F8D030FA
:104DB000C7F8D420D7E934120B46B3F5FA63C7F825
:104DC000C830134643F1FF33C7F8CC30D7E9364536
:104DD0002B46D7E93289424602FB03F24B46214675
:104DE00001FB03F3134422464146A2FB0112C7F81C
:104DF0001C210A46C7F81821D7F81C211344C7F80C
:104E00001C31D7E9464522462B464FF000004FF0B3
:104E10000001190141EA1271100102460B462146B8
:104E2000B2EB010A294663EB010B4FF000024FF091
:104E300000034FEA8B0343EA9A734FEA8A029246D1
:104E40009B4623461AEB0303C7F8C0302B464BEBB7
:104E50000303C7F8C430D7E93023002B07DA12F177
:104E60000F01396243F100037B62D7E908234FF059
:104E700000004FF00001100940EA03701911C7E962
:104E80005401D7F85C31DA17C7F8B830C7F8BC203E
:104E9000D7E92E120B46B3F5FA63C7F8B0301346C4
:104EA00043F1FF33C7F8B430D7F85C31DA17C7F8ED
:104EB000A830C7F8AC20D7E92A120B46B3F5FA633D
:104EC000C7F8A030134643F1FF33C7F8A430D7E941
:104ED0002C452B46D7E92889424602FB03F24B4674
:104EE000214601FB03F3134422464146A2FB011273
:104EF000C7F814210A46C7F81021D7F81421134423
:104F0000C7F81431D7E9444522462B464FF000003C
:104F10004FF00001D90041EA5271D00002460B4621
:104F20002146511AB961294663EB0103FB614FF039
:104F300000024FF00003D7E9068949468B0041463D
:104F400043EA917341468A001046194603462246B9
:104F50009B18C7F898302B460A4642EB0303C7F864
:104F60009C30D7E92623002B07DA12F10F013961B3
:104F700043F100037B61D7E904234FF000004FF0B9
:104F80000001100940EA03701911C7E95201D7F86E
:104F90005C21034B9A4280F2118105E0D008002089
:104FA00024FAFFFF0000C842D7F85C31DA17C7F8CF
:104FB0009030C7F8942040F2DC53D7E92401024630
:104FC000D318C7F888300B4643F10003C7F88C307C
:104FD000D7F85C31DA17C7F88030C7F8842040F280
:104FE000DC53D7E920010246D318BB670B4643F1D7
:104FF0000003FB67D7E922452B46D7E91E894246C5
:1050000002FB03F24B46214601FB03F31344224605
:105010004146A2FB0112C7F80C210A46C7F8082135
:10502000D7F80C211344C7F80C31D7E94245224682
:105030002B464FF000004FF00001190141EA1271B8
:10504000100102460B46214651183967294643EBA9
:1050500001017967D7E95423D7E91C452146511846
:10506000B960294643EB0101F960D7E90234C7E989
:105070005434D7F85C31DA17BB66FA6640F2DC5379
:10508000D7E91A010246D3183B660B4643F10003E9
:105090007B66D7F85C31DA17BB65FA6540F2DC5302
:1050A000D7E916010246D3183B650B4643F10003CE
:1050B0007B65D7E918452B46D7E91489424602FBA0
:1050C00003F24B46214601FB03F3134422464146BB
:1050D000A2FB0112C7F804210A46C7F80021D7F83D
:1050E00004211344C7F80431D7E9404522462B4632
:1050F0004FF000004FF00001D90041EA5271D0009A
:1051000002460B4621465118B964294643EB01017A
:10511000F964D7E95223D7E912452146511839607D
:10512000294643EB01017960D7E90034C7E95234DD
:1051300044E0D7F86031DA173B647A64D7F860311D
:10514000DA17BB63FA63D7E910894B46D7E90EAB90
:10515000524602FB03F25B46414601FB03F3134454
:1051600042465146A2FB01452B441D4622462B4692
:105170004FF000004FF00001990041EA9271900059
:1051800002460B46111939636B417B634FF00002F5
:105190004FF00003D7E90C4529468A112946CB1761
:1051A000C7E95A234FF000024FF00003C7E9542328
:1051B0004FF000024FF00003C7E95223D7F85C31EB
:1051C00007EE903AB8EEE78AD7E95A01FBF72CFED2
:1051D00007EE900A38EE677A5FED8E6AC7EE267AA0
:1051E000D7F83C31C3ED007A97F87731184607F5C8
:1051F000BC77BD46BDEC028BBDE8B08F80B485B0F6
:1052000000AF78600B46FB700023BB817B681B8876
:105210007B817B680E3300221A807B681B88C3F376
:105220000B039AB27B681A800023FB733CE0FB7B84
:1052300003F00103DBB2002B0FD0FB7B5B08DBB27A
:105240005B007A6813441B881BB2DBB21AB2B7F951
:105250000C3053401BB2BB810BE0FB7B5B08DBB225
:105260005B007A6813441B881B0A9AB2BB895340BF
:10527000BB810823BB7311E0B7F90C30002B07DAB0
:10528000BB895B001BB283F440531BB2BB8102E0BD
:10529000BB895B00BB81BB7B013BBB73BB7B002B32
:1052A000EAD1FB7B0133FB73FB7B0F2BBFD9BB899F
:1052B0001B0BBB817B687A891A80FB789BB2BA8909
:1052C0009A420CBF01230023DBB218461437BD46B7
:1052D0005DF8047B704780B400AF00BFBD465DF849
:1052E000047B704780B586B002AF78607B68198810
:1052F0007B685A687B685B8814200090044803F040
:1053000055FF0346FB73FB7B18461037BD4680BD37
:10531000CC05002080B586B002AF78607B68198824
:105320007B685A687B685B8814200090044803F00F
:1053300049FE0346FB73FB7B18461037BD4680BD14
:10534000CC05002080B582B000AF104B1B6E0F4A19
:1053500043F0010313660D4B1B6E03F001037B60EA
:105360007B680A4B9B6D094A43F080539365074B5A
:105370009B6D03F080533B603B68002200210520B9
:1053800002F0A3FC00BF0837BD4680BD00100240FC
:1053900080B59AB000AF786007F10C035C22002161
:1053A000184609F0A9FE7B681B682E4A934255D126
:1053B0004FF48043FB604FF08053FB6503233B6158
:1053C00001237B610823BB610723FB6102233B624E
:1053D00002237B624FF08073BB6207F10C03184617
:1053E00005F064FD0346002B01D0FFF77DFA1E4B4C
:1053F000DB6C1D4A43F40053D3641B4BDB6C03F49A
:105400000053BB60BB68194B194A1A60174B002246
:105410005A60164B00229A60144B0022DA60134B3C
:1054200080221A61114B4FF480725A610F4B4FF476
:1054300080629A610D4B2022DA610C4B00221A62C5
:105440000A4802F07DFE0346002B01D0FFF74CFA1C
:105450007B68064ADA64054A7B68936200BF683756
:10546000BD4680BD00000450001002400C05002025
:105470000800024080B485B000AF78607B681B688C
:105480000A4A93420BD10A4B9B6C094A43F480535E
:105490009364074B9B6C03F48053FB60FB6800BF75
:1054A0001437BD465DF8047B704700BF00300240F2
:1054B0000010024080B5A6B000AF786007F1840309
:1054C00000221A605A609A60DA601A6107F12803B4
:1054D0005C220021184609F00FFE7B681B68764AA3
:1054E00093423ED14023BB624FF48053BB6507F12A
:1054F0002803184605F0DAFC0346002B01D0FFF71D
:10550000F3F96E4BDB6C6D4A43F00103D3646B4BD4
:10551000DB6C03F001037B627B6A4FF4C063C7F866
:1055200084301223C7F888300023C7F88C30032357
:10553000C7F890300423C7F8943007F18403194664
:105540004FF0904003F0EAFA5C4B9B6D5B4A43F4EA
:1055500000139365594B9B6D03F400133B623B6A48
:10556000A6E07B681B68564A93423DD18023BB620C
:105570004FF48043FB6507F12803184605F096FCBD
:105580000346002B01D0FFF7AFF94C4BDB6C4B4AC5
:1055900043F00203D364494BDB6C03F00203FB616D
:1055A000FB694FF4C043C7F884301223C7F8883032
:1055B0000023C7F88C300323C7F890300423C7F8C2
:1055C000943007F1840319463E4803F0A7FA3B4B99
:1055D0009B6D3A4A43F480039365384B9B6D03F40B
:1055E0008003BB61BB6963E07B681B68364A9342FA
:1055F0005ED14FF48073BB624FF480333B6607F19A
:105600002803184605F052FC0346002B01D0FFF793
:105610006BF92A4BDB6C294A43F00103D364274B17
:10562000DB6C03F001037B617B69244BDB6C234A59
:1056300043F00203D364214BDB6C03F002033B61B4
:105640003B698023C7F884301223C7F888300023D1
:10565000C7F88C300323C7F890300423C7F8943080
:1056600007F1840319464FF0904003F057FA1023D6
:10567000C7F884301223C7F888300023C7F88C306D
:105680000323C7F890300423C7F8943007F184034C
:1056900019460C4803F042FA084B9B6D074A43F445
:1056A00000039365054B9B6D03F40003FB60FB68EF
:1056B00000BF9837BD4680BD005400400010024036
:1056C0000058004000040048005C004080B485B0F1
:1056D00000AF78607B681B680A4A93420BD10A4B83
:1056E0001B6E094A43F400331366074B1B6E03F429
:1056F0000033FB60FB6800BF1437BD465DF8047BD8
:10570000704700BF004401400010024080B588B0DF
:1057100000AF786007F10C0300221A605A609A60AB
:10572000DA601A617B681B68114A93421CD1114BE5
:10573000DB6C104A43F00203D3640E4BDB6C03F0C6
:105740000203BB60BB684FF48073FB6002233B61C4
:1057500000237B610023BB610E23FB6107F10C0377
:105760001946054803F0DAF900BF2037BD4680BD71
:1057700000440140001002400004004880B5A2B07F
:1057800000AF786007F1740300221A605A609A60D3
:10579000DA601A6107F118035C220021184609F04B
:1057A000ABFC7B681B683F4A934238D10123BB6145
:1057B0000123BB6307F11803184605F077FB034686
:1057C000002B01D0FFF790F8374B1B6E364A43F49D
:1057D00080431366344B1B6E03F480437B617B690B
:1057E000314BDB6C304A43F00203D3642E4BDB6C4D
:1057F00003F002033B613B69C0237B670223BB6765
:105800000023FB670323C7F880300723C7F88430E1
:1058100007F174031946254803F080F93DE07B68E1
:105820001B68234A934238D10223BB610423FB63E4
:1058300007F11803184605F039FB0346002B01D089
:10584000FFF752F8184B9B6D174A43F400339365EA
:10585000154B9B6D03F40033FB60FB68124BDB6C54
:10586000114A43F00103D3640F4BDB6C03F00103D7
:10587000BB60BB680C237B670223BB670023FB670D
:105880000323C7F880300723C7F8843007F1740377
:1058900019464FF0904003F041F900BF8837BD46EC
:1058A00080BD00BF003801400010024000040048E5
:1058B0000044004080B400AFFEE780B400AFFEE7D4
:1058C00080B400AFFEE780B400AFFEE780B400AF65
:1058D000FEE780B400AF00BFBD465DF8047B7047B3
:1058E00080B400AF00BFBD465DF8047B704780B454
:1058F00000AF00BFBD465DF8047B704780B500AFC8
:1059000000F006FF02F017FA00BF80BD80B500AFBF
:10591000024802F0ACFD00BF80BD00BF0C050020B6
:1059200080B500AF024806F02DFD00BF80BD00BF6E
:10593000C006002080B500AF024806F023FD00BF7E
:1059400080BD00BF4407002080B400AF012318468B
:10595000BD465DF8047B704780B582B000AF7860CB
:10596000396009F02DFC034616221A604FF0FF3310
:1059700018460837BD4680BD80B582B000AF78605C
:105980004FF0FF317868FFF7E7FFFEE780B586B09C
:1059900000AFF860B9607A6000237B610AE0AFF382
:1059A00000800146BB685A1CBA60CAB21A707B6993
:1059B00001337B617A697B689A42F0DB7B68184629
:1059C0001837BD4680BD80B483B000AF78604FF01B
:1059D000FF3318460C37BD465DF8047B704780B432
:1059E00083B000AF786039603B684FF400525A6072
:1059F000002318460C37BD465DF8047B704780B421
:105A000083B000AF7860012318460C37BD465DF8BF
:105A1000047B704780B485B000AFF860B9607A60ED
:105A2000002318461437BD465DF8047B704700001C
:105A300080B586B000AF7860144A154BD31A7B61ED
:105A40007B693B61134B1B68002B02D1114B124A3F
:105A50001A60104B1A687B6813443A699A4207D25D
:105A600009F0AEFB03460C221A604FF0FF3309E049
:105A7000084B1B68FB60074B1A687B681344054A98
:105A80001360FB6818461837BD4680BD0000012032
:105A900000040000E0080020480A002080B400AFA5
:105AA000064BD3F88830054A43F47003C2F88830B7
:105AB00000BFBD465DF8047B704700BF00ED00E00D
:105AC00080B500AF2E4B1B88002B4BD02D4B1B6895
:105AD00001332C4A13602B4B1B68294A12889342CE
